{
	"contracts/ACConfig.sol": {
		"ACConfig": {
			"abi": [
				{
					"anonymous": false,
					"inputs": [
						{
							"indexed": false,
							"internalType": "address",
							"name": "previousAdmin",
							"type": "address"
						},
						{
							"indexed": false,
							"internalType": "address",
							"name": "newAdmin",
							"type": "address"
						}
					],
					"name": "AdminChanged",
					"type": "event"
				},
				{
					"anonymous": false,
					"inputs": [
						{
							"indexed": true,
							"internalType": "address",
							"name": "beacon",
							"type": "address"
						}
					],
					"name": "BeaconUpgraded",
					"type": "event"
				},
				{
					"anonymous": false,
					"inputs": [
						{
							"indexed": false,
							"internalType": "uint8",
							"name": "version",
							"type": "uint8"
						}
					],
					"name": "Initialized",
					"type": "event"
				},
				{
					"anonymous": false,
					"inputs": [
						{
							"indexed": true,
							"internalType": "address",
							"name": "previousOwner",
							"type": "address"
						},
						{
							"indexed": true,
							"internalType": "address",
							"name": "newOwner",
							"type": "address"
						}
					],
					"name": "OwnershipTransferred",
					"type": "event"
				},
				{
					"anonymous": false,
					"inputs": [
						{
							"indexed": true,
							"internalType": "address",
							"name": "implementation",
							"type": "address"
						}
					],
					"name": "Upgraded",
					"type": "event"
				},
				{
					"inputs": [],
					"name": "acb",
					"outputs": [
						{
							"internalType": "address",
							"name": "",
							"type": "address"
						}
					],
					"stateMutability": "view",
					"type": "function"
				},
				{
					"inputs": [],
					"name": "acbPair",
					"outputs": [
						{
							"internalType": "address",
							"name": "",
							"type": "address"
						}
					],
					"stateMutability": "view",
					"type": "function"
				},
				{
					"inputs": [
						{
							"internalType": "address",
							"name": "user",
							"type": "address"
						},
						{
							"internalType": "uint256",
							"name": "amount",
							"type": "uint256"
						}
					],
					"name": "airdropMachine",
					"outputs": [],
					"stateMutability": "nonpayable",
					"type": "function"
				},
				{
					"inputs": [
						{
							"internalType": "uint256",
							"name": "_claimInterval",
							"type": "uint256"
						}
					],
					"name": "changeClaimInterval",
					"outputs": [],
					"stateMutability": "nonpayable",
					"type": "function"
				},
				{
					"inputs": [
						{
							"internalType": "uint256",
							"name": "_machineExpireTime",
							"type": "uint256"
						}
					],
					"name": "changeMachineExpireTime",
					"outputs": [],
					"stateMutability": "nonpayable",
					"type": "function"
				},
				{
					"inputs": [
						{
							"internalType": "address",
							"name": "_marketAddress",
							"type": "address"
						}
					],
					"name": "changeMarketAddress",
					"outputs": [],
					"stateMutability": "nonpayable",
					"type": "function"
				},
				{
					"inputs": [
						{
							"internalType": "uint256",
							"name": "_maxComputingPower",
							"type": "uint256"
						}
					],
					"name": "changeMaxComputingPower",
					"outputs": [],
					"stateMutability": "nonpayable",
					"type": "function"
				},
				{
					"inputs": [
						{
							"internalType": "uint256",
							"name": "_minComputingPower",
							"type": "uint256"
						}
					],
					"name": "changeMinComputingPower",
					"outputs": [],
					"stateMutability": "nonpayable",
					"type": "function"
				},
				{
					"inputs": [
						{
							"internalType": "address",
							"name": "_monthDividendAddress",
							"type": "address"
						}
					],
					"name": "changeMonthDividenAddress",
					"outputs": [],
					"stateMutability": "nonpayable",
					"type": "function"
				},
				{
					"inputs": [
						{
							"internalType": "address",
							"name": "_mvCollectionAddress",
							"type": "address"
						}
					],
					"name": "changeMvCollectionAddress",
					"outputs": [],
					"stateMutability": "nonpayable",
					"type": "function"
				},
				{
					"inputs": [
						{
							"internalType": "address",
							"name": "_operator",
							"type": "address"
						}
					],
					"name": "changeOperator",
					"outputs": [],
					"stateMutability": "nonpayable",
					"type": "function"
				},
				{
					"inputs": [
						{
							"internalType": "address",
							"name": "_platformAddress",
							"type": "address"
						}
					],
					"name": "changePlatformAddress",
					"outputs": [],
					"stateMutability": "nonpayable",
					"type": "function"
				},
				{
					"inputs": [
						{
							"internalType": "uint256",
							"name": "_platformRate",
							"type": "uint256"
						}
					],
					"name": "changePlatformRate",
					"outputs": [],
					"stateMutability": "nonpayable",
					"type": "function"
				},
				{
					"inputs": [
						{
							"internalType": "uint256",
							"name": "_oneRate",
							"type": "uint256"
						},
						{
							"internalType": "uint256",
							"name": "_twoRate",
							"type": "uint256"
						}
					],
					"name": "changeRefRewardRate",
					"outputs": [],
					"stateMutability": "nonpayable",
					"type": "function"
				},
				{
					"inputs": [
						{
							"internalType": "address",
							"name": "_remainingAddress",
							"type": "address"
						}
					],
					"name": "changeRemainingAddress",
					"outputs": [],
					"stateMutability": "nonpayable",
					"type": "function"
				},
				{
					"inputs": [
						{
							"internalType": "uint256",
							"name": "_sameLevelRewardRate",
							"type": "uint256"
						}
					],
					"name": "changeSameLevelRewardRate",
					"outputs": [],
					"stateMutability": "nonpayable",
					"type": "function"
				},
				{
					"inputs": [
						{
							"internalType": "uint256",
							"name": "_shareHolderMinLimit",
							"type": "uint256"
						}
					],
					"name": "changeShareHolderMinLimit",
					"outputs": [],
					"stateMutability": "nonpayable",
					"type": "function"
				},
				{
					"inputs": [
						{
							"internalType": "uint256",
							"name": "_shareHolderRewardRate",
							"type": "uint256"
						}
					],
					"name": "changeShareHolderRewardRate",
					"outputs": [],
					"stateMutability": "nonpayable",
					"type": "function"
				},
				{
					"inputs": [
						{
							"internalType": "uint256",
							"name": "_swapRate",
							"type": "uint256"
						}
					],
					"name": "changeSwapRate",
					"outputs": [],
					"stateMutability": "nonpayable",
					"type": "function"
				},
				{
					"inputs": [
						{
							"internalType": "uint256[]",
							"name": "_amount",
							"type": "uint256[]"
						},
						{
							"internalType": "uint256[]",
							"name": "_rate",
							"type": "uint256[]"
						}
					],
					"name": "changeTeamLevel",
					"outputs": [],
					"stateMutability": "nonpayable",
					"type": "function"
				},
				{
					"inputs": [
						{
							"internalType": "address",
							"name": "_teamRewardAddress",
							"type": "address"
						}
					],
					"name": "changeTeamRewardAddress",
					"outputs": [],
					"stateMutability": "nonpayable",
					"type": "function"
				},
				{
					"inputs": [
						{
							"internalType": "uint256",
							"name": "_teamRewardRate",
							"type": "uint256"
						}
					],
					"name": "changeTeamRewardRate",
					"outputs": [],
					"stateMutability": "nonpayable",
					"type": "function"
				},
				{
					"inputs": [
						{
							"internalType": "address",
							"name": "_techAddress",
							"type": "address"
						}
					],
					"name": "changeTechAddress",
					"outputs": [],
					"stateMutability": "nonpayable",
					"type": "function"
				},
				{
					"inputs": [],
					"name": "claimInterval",
					"outputs": [
						{
							"internalType": "uint256",
							"name": "",
							"type": "uint256"
						}
					],
					"stateMutability": "view",
					"type": "function"
				},
				{
					"inputs": [],
					"name": "getRateConfig",
					"outputs": [
						{
							"internalType": "uint256[]",
							"name": "rates",
							"type": "uint256[]"
						}
					],
					"stateMutability": "view",
					"type": "function"
				},
				{
					"inputs": [],
					"name": "getTeamAddress",
					"outputs": [
						{
							"internalType": "address[]",
							"name": "addressArr",
							"type": "address[]"
						}
					],
					"stateMutability": "view",
					"type": "function"
				},
				{
					"inputs": [],
					"name": "getTeamLevel",
					"outputs": [
						{
							"internalType": "uint256[]",
							"name": "amounts",
							"type": "uint256[]"
						},
						{
							"internalType": "uint256[]",
							"name": "rates",
							"type": "uint256[]"
						}
					],
					"stateMutability": "view",
					"type": "function"
				},
				{
					"inputs": [],
					"name": "getUserLevels",
					"outputs": [
						{
							"internalType": "address[]",
							"name": "users",
							"type": "address[]"
						},
						{
							"internalType": "uint256[]",
							"name": "levels",
							"type": "uint256[]"
						}
					],
					"stateMutability": "view",
					"type": "function"
				},
				{
					"inputs": [
						{
							"internalType": "address",
							"name": "_operator",
							"type": "address"
						}
					],
					"name": "initialize",
					"outputs": [],
					"stateMutability": "nonpayable",
					"type": "function"
				},
				{
					"inputs": [],
					"name": "machineExpireTime",
					"outputs": [
						{
							"internalType": "uint256",
							"name": "",
							"type": "uint256"
						}
					],
					"stateMutability": "view",
					"type": "function"
				},
				{
					"inputs": [],
					"name": "marketAddress",
					"outputs": [
						{
							"internalType": "address",
							"name": "",
							"type": "address"
						}
					],
					"stateMutability": "view",
					"type": "function"
				},
				{
					"inputs": [],
					"name": "maxComputingPower",
					"outputs": [
						{
							"internalType": "uint256",
							"name": "",
							"type": "uint256"
						}
					],
					"stateMutability": "view",
					"type": "function"
				},
				{
					"inputs": [],
					"name": "minComputingPower",
					"outputs": [
						{
							"internalType": "uint256",
							"name": "",
							"type": "uint256"
						}
					],
					"stateMutability": "view",
					"type": "function"
				},
				{
					"inputs": [],
					"name": "minePool",
					"outputs": [
						{
							"internalType": "address",
							"name": "",
							"type": "address"
						}
					],
					"stateMutability": "view",
					"type": "function"
				},
				{
					"inputs": [],
					"name": "mmStore",
					"outputs": [
						{
							"internalType": "address",
							"name": "",
							"type": "address"
						}
					],
					"stateMutability": "view",
					"type": "function"
				},
				{
					"inputs": [],
					"name": "monthDividendAddress",
					"outputs": [
						{
							"internalType": "address",
							"name": "",
							"type": "address"
						}
					],
					"stateMutability": "view",
					"type": "function"
				},
				{
					"inputs": [],
					"name": "mv",
					"outputs": [
						{
							"internalType": "address",
							"name": "",
							"type": "address"
						}
					],
					"stateMutability": "view",
					"type": "function"
				},
				{
					"inputs": [],
					"name": "mvCollectionAddress",
					"outputs": [
						{
							"internalType": "address",
							"name": "",
							"type": "address"
						}
					],
					"stateMutability": "view",
					"type": "function"
				},
				{
					"inputs": [],
					"name": "operator",
					"outputs": [
						{
							"internalType": "address",
							"name": "",
							"type": "address"
						}
					],
					"stateMutability": "view",
					"type": "function"
				},
				{
					"inputs": [],
					"name": "owner",
					"outputs": [
						{
							"internalType": "address",
							"name": "",
							"type": "address"
						}
					],
					"stateMutability": "view",
					"type": "function"
				},
				{
					"inputs": [],
					"name": "platformAddress",
					"outputs": [
						{
							"internalType": "address",
							"name": "",
							"type": "address"
						}
					],
					"stateMutability": "view",
					"type": "function"
				},
				{
					"inputs": [],
					"name": "platformRate",
					"outputs": [
						{
							"internalType": "uint256",
							"name": "",
							"type": "uint256"
						}
					],
					"stateMutability": "view",
					"type": "function"
				},
				{
					"inputs": [],
					"name": "proxiableUUID",
					"outputs": [
						{
							"internalType": "bytes32",
							"name": "",
							"type": "bytes32"
						}
					],
					"stateMutability": "view",
					"type": "function"
				},
				{
					"inputs": [],
					"name": "refRewardOneRate",
					"outputs": [
						{
							"internalType": "uint256",
							"name": "",
							"type": "uint256"
						}
					],
					"stateMutability": "view",
					"type": "function"
				},
				{
					"inputs": [],
					"name": "refRewardTwoRate",
					"outputs": [
						{
							"internalType": "uint256",
							"name": "",
							"type": "uint256"
						}
					],
					"stateMutability": "view",
					"type": "function"
				},
				{
					"inputs": [],
					"name": "remainingAddress",
					"outputs": [
						{
							"internalType": "address",
							"name": "",
							"type": "address"
						}
					],
					"stateMutability": "view",
					"type": "function"
				},
				{
					"inputs": [],
					"name": "renounceOwnership",
					"outputs": [],
					"stateMutability": "nonpayable",
					"type": "function"
				},
				{
					"inputs": [],
					"name": "sameLevelRewardRate",
					"outputs": [
						{
							"internalType": "uint256",
							"name": "",
							"type": "uint256"
						}
					],
					"stateMutability": "view",
					"type": "function"
				},
				{
					"inputs": [
						{
							"internalType": "address",
							"name": "user",
							"type": "address"
						},
						{
							"internalType": "bool",
							"name": "auth",
							"type": "bool"
						}
					],
					"name": "setAdmin",
					"outputs": [],
					"stateMutability": "nonpayable",
					"type": "function"
				},
				{
					"inputs": [
						{
							"internalType": "address",
							"name": "_usdt",
							"type": "address"
						},
						{
							"internalType": "address",
							"name": "_mv",
							"type": "address"
						},
						{
							"internalType": "address",
							"name": "_acb",
							"type": "address"
						},
						{
							"internalType": "address",
							"name": "_minePool",
							"type": "address"
						},
						{
							"internalType": "address",
							"name": "_mmStore",
							"type": "address"
						},
						{
							"internalType": "address",
							"name": "_acbPair",
							"type": "address"
						}
					],
					"name": "setConfig",
					"outputs": [],
					"stateMutability": "nonpayable",
					"type": "function"
				},
				{
					"inputs": [
						{
							"internalType": "address",
							"name": "_user",
							"type": "address"
						},
						{
							"internalType": "uint256",
							"name": "_level",
							"type": "uint256"
						}
					],
					"name": "setUserLevel",
					"outputs": [],
					"stateMutability": "nonpayable",
					"type": "function"
				},
				{
					"inputs": [],
					"name": "shareHolderMinLimit",
					"outputs": [
						{
							"internalType": "uint256",
							"name": "",
							"type": "uint256"
						}
					],
					"stateMutability": "view",
					"type": "function"
				},
				{
					"inputs": [],
					"name": "shareHolderRewardRate",
					"outputs": [
						{
							"internalType": "uint256",
							"name": "",
							"type": "uint256"
						}
					],
					"stateMutability": "view",
					"type": "function"
				},
				{
					"inputs": [],
					"name": "swapRate",
					"outputs": [
						{
							"internalType": "uint256",
							"name": "",
							"type": "uint256"
						}
					],
					"stateMutability": "view",
					"type": "function"
				},
				{
					"inputs": [
						{
							"internalType": "uint256",
							"name": "",
							"type": "uint256"
						}
					],
					"name": "teamLevel",
					"outputs": [
						{
							"internalType": "uint256",
							"name": "amount",
							"type": "uint256"
						},
						{
							"internalType": "uint256",
							"name": "rate",
							"type": "uint256"
						}
					],
					"stateMutability": "view",
					"type": "function"
				},
				{
					"inputs": [],
					"name": "teamRewardAddress",
					"outputs": [
						{
							"internalType": "address",
							"name": "",
							"type": "address"
						}
					],
					"stateMutability": "view",
					"type": "function"
				},
				{
					"inputs": [],
					"name": "teamRewardRate",
					"outputs": [
						{
							"internalType": "uint256",
							"name": "",
							"type": "uint256"
						}
					],
					"stateMutability": "view",
					"type": "function"
				},
				{
					"inputs": [],
					"name": "techAddress",
					"outputs": [
						{
							"internalType": "address",
							"name": "",
							"type": "address"
						}
					],
					"stateMutability": "view",
					"type": "function"
				},
				{
					"inputs": [],
					"name": "top",
					"outputs": [
						{
							"internalType": "address",
							"name": "",
							"type": "address"
						}
					],
					"stateMutability": "view",
					"type": "function"
				},
				{
					"inputs": [
						{
							"internalType": "address",
							"name": "newOwner",
							"type": "address"
						}
					],
					"name": "transferOwnership",
					"outputs": [],
					"stateMutability": "nonpayable",
					"type": "function"
				},
				{
					"inputs": [
						{
							"internalType": "address",
							"name": "newImplementation",
							"type": "address"
						}
					],
					"name": "upgradeTo",
					"outputs": [],
					"stateMutability": "nonpayable",
					"type": "function"
				},
				{
					"inputs": [
						{
							"internalType": "address",
							"name": "newImplementation",
							"type": "address"
						},
						{
							"internalType": "bytes",
							"name": "data",
							"type": "bytes"
						}
					],
					"name": "upgradeToAndCall",
					"outputs": [],
					"stateMutability": "payable",
					"type": "function"
				},
				{
					"inputs": [],
					"name": "usdt",
					"outputs": [
						{
							"internalType": "address",
							"name": "",
							"type": "address"
						}
					],
					"stateMutability": "view",
					"type": "function"
				},
				{
					"inputs": [
						{
							"internalType": "uint256",
							"name": "",
							"type": "uint256"
						}
					],
					"name": "userArr",
					"outputs": [
						{
							"internalType": "address",
							"name": "",
							"type": "address"
						}
					],
					"stateMutability": "view",
					"type": "function"
				},
				{
					"inputs": [
						{
							"internalType": "address",
							"name": "",
							"type": "address"
						}
					],
					"name": "userLevel",
					"outputs": [
						{
							"internalType": "uint256",
							"name": "",
							"type": "uint256"
						}
					],
					"stateMutability": "view",
					"type": "function"
				}
			],
			"devdoc": {
				"events": {
					"AdminChanged(address,address)": {
						"details": "Emitted when the admin account has changed."
					},
					"BeaconUpgraded(address)": {
						"details": "Emitted when the beacon is changed."
					},
					"Initialized(uint8)": {
						"details": "Triggered when the contract has been initialized or reinitialized."
					},
					"Upgraded(address)": {
						"details": "Emitted when the implementation is upgraded."
					}
				},
				"kind": "dev",
				"methods": {
					"owner()": {
						"details": "Returns the address of the current owner."
					},
					"proxiableUUID()": {
						"details": "Implementation of the ERC1822 {proxiableUUID} function. This returns the storage slot used by the implementation. It is used to validate the implementation's compatibility when performing an upgrade. IMPORTANT: A proxy pointing at a proxiable contract should not be considered proxiable itself, because this risks bricking a proxy that upgrades to it, by delegating to itself until out of gas. Thus it is critical that this function revert if invoked through a proxy. This is guaranteed by the `notDelegated` modifier."
					},
					"renounceOwnership()": {
						"details": "Leaves the contract without owner. It will not be possible to call `onlyOwner` functions anymore. Can only be called by the current owner. NOTE: Renouncing ownership will leave the contract without an owner, thereby removing any functionality that is only available to the owner."
					},
					"transferOwnership(address)": {
						"details": "Transfers ownership of the contract to a new account (`newOwner`). Can only be called by the current owner."
					},
					"upgradeTo(address)": {
						"details": "Upgrade the implementation of the proxy to `newImplementation`. Calls {_authorizeUpgrade}. Emits an {Upgraded} event."
					},
					"upgradeToAndCall(address,bytes)": {
						"details": "Upgrade the implementation of the proxy to `newImplementation`, and subsequently execute the function call encoded in `data`. Calls {_authorizeUpgrade}. Emits an {Upgraded} event."
					}
				},
				"version": 1
			},
			"evm": {
				"assembly": "    /* \"contracts/ACConfig.sol\":513:8389  contract ACConfig is OwnableUpgradeable,UUPSUpgradeable{... */\n  mstore(0x40, 0xa0)\n    /* \"lib/contracts-upgradeable/proxy/utils/UUPSUpgradeable.sol\":1332:1336  this */\n  address\n    /* \"lib/contracts-upgradeable/proxy/utils/UUPSUpgradeable.sol\":1289:1337  address private immutable __self = address(this) */\n  0x80\n  mstore\n    /* \"contracts/ACConfig.sol\":513:8389  contract ACConfig is OwnableUpgradeable,UUPSUpgradeable{... */\n  callvalue\n  dup1\n  iszero\n  tag_1\n  jumpi\n  0x00\n  dup1\n  revert\ntag_1:\n  pop\n  mload(0x80)\n  codecopy(0x00, dataOffset(sub_0), dataSize(sub_0))\n  0x00\n  assignImmutable(\"0x90a0a53a674dda23f50c6d7df8f61e9f3e3cf11a0ea21d6964915bb3c7f9b219\")\n  return(0x00, dataSize(sub_0))\nstop\n\nsub_0: assembly {\n        /* \"contracts/ACConfig.sol\":513:8389  contract ACConfig is OwnableUpgradeable,UUPSUpgradeable{... */\n      mstore(0x40, 0x80)\n      jumpi(tag_1, lt(calldatasize, 0x04))\n      shr(0xe0, calldataload(0x00))\n      dup1\n      0x602e6623\n      gt\n      tag_67\n      jumpi\n      dup1\n      0x602e6623\n      eq\n      tag_34\n      jumpi\n      dup1\n      0x669934a9\n      eq\n      tag_35\n      jumpi\n      dup1\n      0x66bf8f83\n      eq\n      tag_36\n      jumpi\n      dup1\n      0x698518e5\n      eq\n      tag_37\n      jumpi\n      dup1\n      0x6b1a9c07\n      eq\n      tag_38\n      jumpi\n      dup1\n      0x715018a6\n      eq\n      tag_39\n      jumpi\n      dup1\n      0x72765009\n      eq\n      tag_40\n      jumpi\n      dup1\n      0x7634b070\n      eq\n      tag_41\n      jumpi\n      dup1\n      0x767608e2\n      eq\n      tag_42\n      jumpi\n      dup1\n      0x796f838e\n      eq\n      tag_43\n      jumpi\n      dup1\n      0x812df395\n      eq\n      tag_44\n      jumpi\n      dup1\n      0x85adb294\n      eq\n      tag_45\n      jumpi\n      dup1\n      0x863be1ab\n      eq\n      tag_46\n      jumpi\n      dup1\n      0x8a5705d4\n      eq\n      tag_47\n      jumpi\n      dup1\n      0x8da5cb5b\n      eq\n      tag_48\n      jumpi\n      dup1\n      0x8e10ef0b\n      eq\n      tag_49\n      jumpi\n      dup1\n      0x8f05cdf5\n      eq\n      tag_50\n      jumpi\n      dup1\n      0x95623641\n      eq\n      tag_51\n      jumpi\n      dup1\n      0x9a3135a8\n      eq\n      tag_52\n      jumpi\n      dup1\n      0xb2cf085e\n      eq\n      tag_53\n      jumpi\n      dup1\n      0xc4d66de8\n      eq\n      tag_54\n      jumpi\n      dup1\n      0xcde85744\n      eq\n      tag_55\n      jumpi\n      dup1\n      0xdbe55e56\n      eq\n      tag_56\n      jumpi\n      dup1\n      0xe3d9aa05\n      eq\n      tag_57\n      jumpi\n      dup1\n      0xe9d610e5\n      eq\n      tag_58\n      jumpi\n      dup1\n      0xeb2266bc\n      eq\n      tag_59\n      jumpi\n      dup1\n      0xee787b11\n      eq\n      tag_60\n      jumpi\n      dup1\n      0xf2fde38b\n      eq\n      tag_61\n      jumpi\n      dup1\n      0xf7656704\n      eq\n      tag_62\n      jumpi\n      dup1\n      0xf80183b2\n      eq\n      tag_63\n      jumpi\n      dup1\n      0xf97fe091\n      eq\n      tag_64\n      jumpi\n      dup1\n      0xfe6dcdba\n      eq\n      tag_65\n      jumpi\n      dup1\n      0xff858079\n      eq\n      tag_66\n      jumpi\n      0x00\n      dup1\n      revert\n    tag_67:\n      dup1\n      0x057d7781\n      eq\n      tag_2\n      jumpi\n      dup1\n      0x06394c9b\n      eq\n      tag_3\n      jumpi\n      dup1\n      0x08f93bd8\n      eq\n      tag_4\n      jumpi\n      dup1\n      0x0b433a12\n      eq\n      tag_5\n      jumpi\n      dup1\n      0x182d326e\n      eq\n      tag_6\n      jumpi\n      dup1\n      0x19a2ef5f\n      eq\n      tag_7\n      jumpi\n      dup1\n      0x1e56cfab\n      eq\n      tag_8\n      jumpi\n      dup1\n      0x1e79aa0a\n      eq\n      tag_9\n      jumpi\n      dup1\n      0x21596c25\n      eq\n      tag_10\n      jumpi\n      dup1\n      0x254720b7\n      eq\n      tag_11\n      jumpi\n      dup1\n      0x280e31cc\n      eq\n      tag_12\n      jumpi\n      dup1\n      0x2d8852ee\n      eq\n      tag_13\n      jumpi\n      dup1\n      0x2f48ab7d\n      eq\n      tag_14\n      jumpi\n      dup1\n      0x3360364d\n      eq\n      tag_15\n      jumpi\n      dup1\n      0x33f5780e\n      eq\n      tag_16\n      jumpi\n      dup1\n      0x35aed778\n      eq\n      tag_17\n      jumpi\n      dup1\n      0x3659cfe6\n      eq\n      tag_18\n      jumpi\n      dup1\n      0x36e0cac6\n      eq\n      tag_19\n      jumpi\n      dup1\n      0x39cbc405\n      eq\n      tag_20\n      jumpi\n      dup1\n      0x3b2c2e55\n      eq\n      tag_21\n      jumpi\n      dup1\n      0x3d08e5b3\n      eq\n      tag_22\n      jumpi\n      dup1\n      0x434f9736\n      eq\n      tag_23\n      jumpi\n      dup1\n      0x498c1e3c\n      eq\n      tag_24\n      jumpi\n      dup1\n      0x4b0bddd2\n      eq\n      tag_25\n      jumpi\n      dup1\n      0x4b21ddec\n      eq\n      tag_26\n      jumpi\n      dup1\n      0x4dd40234\n      eq\n      tag_27\n      jumpi\n      dup1\n      0x4f1ef286\n      eq\n      tag_28\n      jumpi\n      dup1\n      0x5250c9b5\n      eq\n      tag_29\n      jumpi\n      dup1\n      0x52d1902d\n      eq\n      tag_30\n      jumpi\n      dup1\n      0x570ca735\n      eq\n      tag_31\n      jumpi\n      dup1\n      0x57629f82\n      eq\n      tag_32\n      jumpi\n      dup1\n      0x5bff9787\n      eq\n      tag_33\n      jumpi\n    tag_1:\n      0x00\n      dup1\n      revert\n        /* \"contracts/ACConfig.sol\":1685:1709  address[] public userArr */\n    tag_2:\n      callvalue\n      dup1\n      iszero\n      tag_68\n      jumpi\n      0x00\n      dup1\n      revert\n    tag_68:\n      pop\n      tag_69\n      tag_70\n      calldatasize\n      0x04\n      tag_71\n      jump\t// in\n    tag_70:\n      tag_72\n      jump\t// in\n    tag_69:\n      mload(0x40)\n      sub(shl(0xa0, 0x01), 0x01)\n        /* \"#utility.yul\":363:395   */\n      swap1\n      swap2\n      and\n        /* \"#utility.yul\":345:396   */\n      dup2\n      mstore\n        /* \"#utility.yul\":333:335   */\n      0x20\n        /* \"#utility.yul\":318:336   */\n      add\n        /* \"contracts/ACConfig.sol\":1685:1709  address[] public userArr */\n    tag_73:\n      mload(0x40)\n      dup1\n      swap2\n      sub\n      swap1\n      return\n        /* \"contracts/ACConfig.sol\":4864:4963  function changeOperator(address _operator)external onlyOwner{... */\n    tag_3:\n      callvalue\n      dup1\n      iszero\n      tag_75\n      jumpi\n      0x00\n      dup1\n      revert\n    tag_75:\n      pop\n      tag_76\n      tag_77\n      calldatasize\n      0x04\n      tag_78\n      jump\t// in\n    tag_77:\n      tag_79\n      jump\t// in\n    tag_76:\n      stop\n        /* \"contracts/ACConfig.sol\":8158:8258  function changeSwapRate(uint256 _swapRate)external onlyAdmin {... */\n    tag_4:\n      callvalue\n      dup1\n      iszero\n      tag_80\n      jumpi\n      0x00\n      dup1\n      revert\n    tag_80:\n      pop\n      tag_76\n      tag_82\n      calldatasize\n      0x04\n      tag_71\n      jump\t// in\n    tag_82:\n      tag_83\n      jump\t// in\n        /* \"contracts/ACConfig.sol\":1757:1785  uint256 public claimInterval */\n    tag_5:\n      callvalue\n      dup1\n      iszero\n      tag_84\n      jumpi\n      0x00\n      dup1\n      revert\n    tag_84:\n      pop\n      tag_85\n      sload(0xe3)\n      dup2\n      jump\n    tag_85:\n      mload(0x40)\n        /* \"#utility.yul\":922:947   */\n      swap1\n      dup2\n      mstore\n        /* \"#utility.yul\":910:912   */\n      0x20\n        /* \"#utility.yul\":895:913   */\n      add\n        /* \"contracts/ACConfig.sol\":1757:1785  uint256 public claimInterval */\n      tag_73\n        /* \"#utility.yul\":776:953   */\n      jump\n        /* \"contracts/ACConfig.sol\":4251:4461  function getTeamAddress()external view returns(address[] memory addressArr){... */\n    tag_6:\n      callvalue\n      dup1\n      iszero\n      tag_89\n      jumpi\n      0x00\n      dup1\n      revert\n    tag_89:\n      pop\n      tag_90\n      tag_91\n      jump\t// in\n    tag_90:\n      mload(0x40)\n      tag_73\n      swap2\n      swap1\n      tag_93\n      jump\t// in\n        /* \"contracts/ACConfig.sol\":6284:6435  function changeShareHolderRewardRate(uint256 _shareHolderRewardRate)external onlyAdmin{... */\n    tag_7:\n      callvalue\n      dup1\n      iszero\n      tag_94\n      jumpi\n      0x00\n      dup1\n      revert\n    tag_94:\n      pop\n      tag_76\n      tag_96\n      calldatasize\n      0x04\n      tag_71\n      jump\t// in\n    tag_96:\n      tag_97\n      jump\t// in\n        /* \"contracts/ACConfig.sol\":1090:1116  address public techAddress */\n    tag_8:\n      callvalue\n      dup1\n      iszero\n      tag_98\n      jumpi\n      0x00\n      dup1\n      revert\n    tag_98:\n      pop\n      sload(0xd4)\n      tag_69\n      swap1\n      sub(shl(0xa0, 0x01), 0x01)\n      and\n      dup2\n      jump\n        /* \"contracts/ACConfig.sol\":3892:4243  function getRateConfig()external view returns(uint256[] memory rates){... */\n    tag_9:\n      callvalue\n      dup1\n      iszero\n      tag_102\n      jumpi\n      0x00\n      dup1\n      revert\n    tag_102:\n      pop\n      tag_103\n      tag_104\n      jump\t// in\n    tag_103:\n      mload(0x40)\n      tag_73\n      swap2\n      swap1\n      tag_106\n      jump\t// in\n        /* \"contracts/ACConfig.sol\":1542:1576  uint256 public shareHolderMinLimit */\n    tag_10:\n      callvalue\n      dup1\n      iszero\n      tag_107\n      jumpi\n      0x00\n      dup1\n      revert\n    tag_107:\n      pop\n      tag_85\n      sload(0xde)\n      dup2\n      jump\n        /* \"contracts/ACConfig.sol\":1585:1627  mapping(uint256 => Level) public teamLevel */\n    tag_11:\n      callvalue\n      dup1\n      iszero\n      tag_111\n      jumpi\n      0x00\n      dup1\n      revert\n    tag_111:\n      pop\n      tag_112\n      tag_113\n      calldatasize\n      0x04\n      tag_71\n      jump\t// in\n    tag_113:\n      mstore(0x20, 0xdf)\n      0x00\n      swap1\n      dup2\n      mstore\n      0x40\n      swap1\n      keccak256\n      dup1\n      sload\n      0x01\n      swap1\n      swap2\n      add\n      sload\n      dup3\n      jump\n    tag_112:\n      0x40\n      dup1\n      mload\n        /* \"#utility.yul\":2570:2595   */\n      swap3\n      dup4\n      mstore\n        /* \"#utility.yul\":2626:2628   */\n      0x20\n        /* \"#utility.yul\":2611:2629   */\n      dup4\n      add\n        /* \"#utility.yul\":2604:2638   */\n      swap2\n      swap1\n      swap2\n      mstore\n        /* \"#utility.yul\":2543:2561   */\n      add\n        /* \"contracts/ACConfig.sol\":1585:1627  mapping(uint256 => Level) public teamLevel */\n      tag_73\n        /* \"#utility.yul\":2396:2644   */\n      jump\n        /* \"contracts/ACConfig.sol\":1634:1678  mapping(address => uint256) public userLevel */\n    tag_12:\n      callvalue\n      dup1\n      iszero\n      tag_117\n      jumpi\n      0x00\n      dup1\n      revert\n    tag_117:\n      pop\n      tag_85\n      tag_119\n      calldatasize\n      0x04\n      tag_78\n      jump\t// in\n    tag_119:\n      mstore(0x20, 0xe0)\n      0x00\n      swap1\n      dup2\n      mstore\n      0x40\n      swap1\n      keccak256\n      sload\n      dup2\n      jump\n        /* \"contracts/ACConfig.sol\":1718:1750  uint256 public machineExpireTime */\n    tag_13:\n      callvalue\n      dup1\n      iszero\n      tag_122\n      jumpi\n      0x00\n      dup1\n      revert\n    tag_122:\n      pop\n      tag_85\n      sload(0xe2)\n      dup2\n      jump\n        /* \"contracts/ACConfig.sol\":656:675  address public usdt */\n    tag_14:\n      callvalue\n      dup1\n      iszero\n      tag_126\n      jumpi\n      0x00\n      dup1\n      revert\n    tag_126:\n      pop\n      sload(0xc9)\n      tag_69\n      swap1\n      sub(shl(0xa0, 0x01), 0x01)\n      and\n      dup2\n      jump\n        /* \"contracts/ACConfig.sol\":7178:7314  function changeMinComputingPower(uint256 _minComputingPower) external onlyAdmin{... */\n    tag_15:\n      callvalue\n      dup1\n      iszero\n      tag_130\n      jumpi\n      0x00\n      dup1\n      revert\n    tag_130:\n      pop\n      tag_76\n      tag_132\n      calldatasize\n      0x04\n      tag_71\n      jump\t// in\n    tag_132:\n      tag_133\n      jump\t// in\n        /* \"contracts/ACConfig.sol\":5117:5260  function setUserLevel(address _user,uint256 _level)external onlyAdmin{... */\n    tag_16:\n      callvalue\n      dup1\n      iszero\n      tag_134\n      jumpi\n      0x00\n      dup1\n      revert\n    tag_134:\n      pop\n      tag_76\n      tag_136\n      calldatasize\n      0x04\n      tag_137\n      jump\t// in\n    tag_136:\n      tag_138\n      jump\t// in\n        /* \"contracts/ACConfig.sol\":7738:7858  function changeMarketAddress(address _marketAddress) external onlyAdmin{... */\n    tag_17:\n      callvalue\n      dup1\n      iszero\n      tag_139\n      jumpi\n      0x00\n      dup1\n      revert\n    tag_139:\n      pop\n      tag_76\n      tag_141\n      calldatasize\n      0x04\n      tag_78\n      jump\t// in\n    tag_141:\n      tag_142\n      jump\t// in\n        /* \"lib/contracts-upgradeable/proxy/utils/UUPSUpgradeable.sol\":3317:3514  function upgradeTo(address newImplementation) external virtual onlyProxy {... */\n    tag_18:\n      callvalue\n      dup1\n      iszero\n      tag_143\n      jumpi\n      0x00\n      dup1\n      revert\n    tag_143:\n      pop\n      tag_76\n      tag_145\n      calldatasize\n      0x04\n      tag_78\n      jump\t// in\n    tag_145:\n      tag_146\n      jump\t// in\n        /* \"contracts/ACConfig.sol\":902:929  uint256 public platformRate */\n    tag_19:\n      callvalue\n      dup1\n      iszero\n      tag_147\n      jumpi\n      0x00\n      dup1\n      revert\n    tag_147:\n      pop\n      tag_85\n      sload(0xd1)\n      dup2\n      jump\n        /* \"contracts/ACConfig.sol\":1484:1520  uint256 public shareHolderRewardRate */\n    tag_20:\n      callvalue\n      dup1\n      iszero\n      tag_151\n      jumpi\n      0x00\n      dup1\n      revert\n    tag_151:\n      pop\n      tag_85\n      sload(0xdd)\n      dup2\n      jump\n        /* \"contracts/ACConfig.sol\":5838:6125  function changeTeamLevel(uint256[] memory _amount,uint256[] memory _rate)external onlyAdmin{... */\n    tag_21:\n      callvalue\n      dup1\n      iszero\n      tag_155\n      jumpi\n      0x00\n      dup1\n      revert\n    tag_155:\n      pop\n      tag_76\n      tag_157\n      calldatasize\n      0x04\n      tag_158\n      jump\t// in\n    tag_157:\n      tag_159\n      jump\t// in\n        /* \"contracts/ACConfig.sol\":1865:1897  uint256 public maxComputingPower */\n    tag_22:\n      callvalue\n      dup1\n      iszero\n      tag_160\n      jumpi\n      0x00\n      dup1\n      revert\n    tag_160:\n      pop\n      tag_85\n      sload(0xe6)\n      dup2\n      jump\n        /* \"contracts/ACConfig.sol\":1254:1285  uint256 public refRewardTwoRate */\n    tag_23:\n      callvalue\n      dup1\n      iszero\n      tag_164\n      jumpi\n      0x00\n      dup1\n      revert\n    tag_164:\n      pop\n      tag_85\n      sload(0xd8)\n      dup2\n      jump\n        /* \"contracts/ACConfig.sol\":6854:6997  function changeSameLevelRewardRate(uint256 _sameLevelRewardRate)external onlyAdmin{... */\n    tag_24:\n      callvalue\n      dup1\n      iszero\n      tag_168\n      jumpi\n      0x00\n      dup1\n      revert\n    tag_168:\n      pop\n      tag_76\n      tag_170\n      calldatasize\n      0x04\n      tag_71\n      jump\t// in\n    tag_170:\n      tag_171\n      jump\t// in\n        /* \"contracts/ACConfig.sol\":4760:4856  function setAdmin(address user,bool auth)external onlyOwner{... */\n    tag_25:\n      callvalue\n      dup1\n      iszero\n      tag_172\n      jumpi\n      0x00\n      dup1\n      revert\n    tag_172:\n      pop\n      tag_76\n      tag_174\n      calldatasize\n      0x04\n      tag_175\n      jump\t// in\n    tag_174:\n      tag_176\n      jump\t// in\n        /* \"contracts/ACConfig.sol\":1405:1437  address public teamRewardAddress */\n    tag_26:\n      callvalue\n      dup1\n      iszero\n      tag_177\n      jumpi\n      0x00\n      dup1\n      revert\n    tag_177:\n      pop\n      sload(0xdb)\n      tag_69\n      swap1\n      sub(shl(0xa0, 0x01), 0x01)\n      and\n      dup2\n      jump\n        /* \"contracts/ACConfig.sol\":731:753  address public mmStore */\n    tag_27:\n      callvalue\n      dup1\n      iszero\n      tag_181\n      jumpi\n      0x00\n      dup1\n      revert\n    tag_181:\n      pop\n      sload(0xcc)\n      tag_69\n      swap1\n      sub(shl(0xa0, 0x01), 0x01)\n      and\n      dup2\n      jump\n        /* \"lib/contracts-upgradeable/proxy/utils/UUPSUpgradeable.sol\":3763:3985  function upgradeToAndCall(address newImplementation, bytes memory data) external payable virtual onlyProxy {... */\n    tag_28:\n      tag_76\n      tag_186\n      calldatasize\n      0x04\n      tag_187\n      jump\t// in\n    tag_186:\n      tag_188\n      jump\t// in\n        /* \"contracts/ACConfig.sol\":790:812  address public acbPair */\n    tag_29:\n      callvalue\n      dup1\n      iszero\n      tag_189\n      jumpi\n      0x00\n      dup1\n      revert\n    tag_189:\n      pop\n      sload(0xce)\n      tag_69\n      swap1\n      sub(shl(0xa0, 0x01), 0x01)\n      and\n      dup2\n      jump\n        /* \"lib/contracts-upgradeable/proxy/utils/UUPSUpgradeable.sol\":3006:3137  function proxiableUUID() external view virtual override notDelegated returns (bytes32) {... */\n    tag_30:\n      callvalue\n      dup1\n      iszero\n      tag_193\n      jumpi\n      0x00\n      dup1\n      revert\n    tag_193:\n      pop\n      tag_85\n      tag_195\n      jump\t// in\n        /* \"contracts/ACConfig.sol\":1794:1817  address public operator */\n    tag_31:\n      callvalue\n      dup1\n      iszero\n      tag_198\n      jumpi\n      0x00\n      dup1\n      revert\n    tag_198:\n      pop\n      sload(0xe4)\n      tag_69\n      swap1\n      sub(shl(0xa0, 0x01), 0x01)\n      and\n      dup2\n      jump\n        /* \"contracts/ACConfig.sol\":4973:5109  function airdropMachine(address user,uint256 amount)external onlyAdmin{... */\n    tag_32:\n      callvalue\n      dup1\n      iszero\n      tag_202\n      jumpi\n      0x00\n      dup1\n      revert\n    tag_202:\n      pop\n      tag_76\n      tag_204\n      calldatasize\n      0x04\n      tag_137\n      jump\t// in\n    tag_204:\n      tag_205\n      jump\t// in\n        /* \"contracts/ACConfig.sol\":682:700  address public acb */\n    tag_33:\n      callvalue\n      dup1\n      iszero\n      tag_206\n      jumpi\n      0x00\n      dup1\n      revert\n    tag_206:\n      pop\n      sload(0xca)\n      tag_69\n      swap1\n      sub(shl(0xa0, 0x01), 0x01)\n      and\n      dup2\n      jump\n        /* \"contracts/ACConfig.sol\":760:783  address public minePool */\n    tag_34:\n      callvalue\n      dup1\n      iszero\n      tag_210\n      jumpi\n      0x00\n      dup1\n      revert\n    tag_210:\n      pop\n      sload(0xcd)\n      tag_69\n      swap1\n      sub(shl(0xa0, 0x01), 0x01)\n      and\n      dup2\n      jump\n        /* \"contracts/ACConfig.sol\":7618:7730  function changeTechAddress(address _techAddress) external onlyAdmin{... */\n    tag_35:\n      callvalue\n      dup1\n      iszero\n      tag_214\n      jumpi\n      0x00\n      dup1\n      revert\n    tag_214:\n      pop\n      tag_76\n      tag_216\n      calldatasize\n      0x04\n      tag_78\n      jump\t// in\n    tag_216:\n      tag_217\n      jump\t// in\n        /* \"contracts/ACConfig.sol\":6133:6276  function changeShareHolderMinLimit(uint256 _shareHolderMinLimit)external onlyAdmin{... */\n    tag_36:\n      callvalue\n      dup1\n      iszero\n      tag_218\n      jumpi\n      0x00\n      dup1\n      revert\n    tag_218:\n      pop\n      tag_76\n      tag_220\n      calldatasize\n      0x04\n      tag_71\n      jump\t// in\n    tag_220:\n      tag_221\n      jump\t// in\n        /* \"contracts/ACConfig.sol\":994:1017  uint256 public swapRate */\n    tag_37:\n      callvalue\n      dup1\n      iszero\n      tag_222\n      jumpi\n      0x00\n      dup1\n      revert\n    tag_222:\n      pop\n      tag_85\n      sload(0xd2)\n      dup2\n      jump\n        /* \"contracts/ACConfig.sol\":4469:4752  function getUserLevels()external view returns(address[] memory users,uint256[] memory levels){... */\n    tag_38:\n      callvalue\n      dup1\n      iszero\n      tag_226\n      jumpi\n      0x00\n      dup1\n      revert\n    tag_226:\n      pop\n      tag_227\n      tag_228\n      jump\t// in\n    tag_227:\n      mload(0x40)\n      tag_73\n      swap3\n      swap2\n      swap1\n      tag_230\n      jump\t// in\n        /* \"lib/contracts-upgradeable/access/OwnableUpgradeable.sol\":2071:2172  function renounceOwnership() public virtual onlyOwner {... */\n    tag_39:\n      callvalue\n      dup1\n      iszero\n      tag_231\n      jumpi\n      0x00\n      dup1\n      revert\n    tag_231:\n      pop\n      tag_76\n      tag_233\n      jump\t// in\n        /* \"contracts/ACConfig.sol\":8266:8382  function changePlatformRate(uint256 _platformRate)external onlyAdmin {... */\n    tag_40:\n      callvalue\n      dup1\n      iszero\n      tag_234\n      jumpi\n      0x00\n      dup1\n      revert\n    tag_234:\n      pop\n      tag_76\n      tag_236\n      calldatasize\n      0x04\n      tag_71\n      jump\t// in\n    tag_236:\n      tag_237\n      jump\t// in\n        /* \"contracts/ACConfig.sol\":5568:5703  function changeMachineExpireTime(uint256 _machineExpireTime)external onlyAdmin{... */\n    tag_41:\n      callvalue\n      dup1\n      iszero\n      tag_238\n      jumpi\n      0x00\n      dup1\n      revert\n    tag_238:\n      pop\n      tag_76\n      tag_240\n      calldatasize\n      0x04\n      tag_71\n      jump\t// in\n    tag_240:\n      tag_241\n      jump\t// in\n        /* \"contracts/ACConfig.sol\":7322:7458  function changeMaxComputingPower(uint256 _maxComputingPower) external onlyAdmin{... */\n    tag_42:\n      callvalue\n      dup1\n      iszero\n      tag_242\n      jumpi\n      0x00\n      dup1\n      revert\n    tag_242:\n      pop\n      tag_76\n      tag_244\n      calldatasize\n      0x04\n      tag_71\n      jump\t// in\n    tag_244:\n      tag_245\n      jump\t// in\n        /* \"contracts/ACConfig.sol\":5711:5830  function changeClaimInterval(uint256 _claimInterval)external onlyAdmin{... */\n    tag_43:\n      callvalue\n      dup1\n      iszero\n      tag_246\n      jumpi\n      0x00\n      dup1\n      revert\n    tag_246:\n      pop\n      tag_76\n      tag_248\n      calldatasize\n      0x04\n      tag_71\n      jump\t// in\n    tag_248:\n      tag_249\n      jump\t// in\n        /* \"contracts/ACConfig.sol\":5268:5556  function setConfig(address _usdt,address _mv,address _acb,address _minePool,address _mmStore,address _acbPair)external onlyAdmin{... */\n    tag_44:\n      callvalue\n      dup1\n      iszero\n      tag_250\n      jumpi\n      0x00\n      dup1\n      revert\n    tag_250:\n      pop\n      tag_76\n      tag_252\n      calldatasize\n      0x04\n      tag_253\n      jump\t// in\n    tag_252:\n      tag_254\n      jump\t// in\n        /* \"contracts/ACConfig.sol\":1160:1192  uint256 public minComputingPower */\n    tag_45:\n      callvalue\n      dup1\n      iszero\n      tag_255\n      jumpi\n      0x00\n      dup1\n      revert\n    tag_255:\n      pop\n      tag_85\n      sload(0xd6)\n      dup2\n      jump\n        /* \"contracts/ACConfig.sol\":6725:6848  function changeTeamRewardRate(uint256 _teamRewardRate)external onlyAdmin{... */\n    tag_46:\n      callvalue\n      dup1\n      iszero\n      tag_259\n      jumpi\n      0x00\n      dup1\n      revert\n    tag_259:\n      pop\n      tag_76\n      tag_261\n      calldatasize\n      0x04\n      tag_71\n      jump\t// in\n    tag_261:\n      tag_262\n      jump\t// in\n        /* \"contracts/ACConfig.sol\":1199:1230  uint256 public refRewardOneRate */\n    tag_47:\n      callvalue\n      dup1\n      iszero\n      tag_263\n      jumpi\n      0x00\n      dup1\n      revert\n    tag_263:\n      pop\n      tag_85\n      sload(0xd7)\n      dup2\n      jump\n        /* \"lib/contracts-upgradeable/access/OwnableUpgradeable.sol\":1441:1526  function owner() public view virtual returns (address) {... */\n    tag_48:\n      callvalue\n      dup1\n      iszero\n      tag_267\n      jumpi\n      0x00\n      dup1\n      revert\n    tag_267:\n      pop\n      tag_69\n      tag_269\n      jump\t// in\n        /* \"contracts/ACConfig.sol\":1352:1381  uint256 public teamRewardRate */\n    tag_49:\n      callvalue\n      dup1\n      iszero\n      tag_271\n      jumpi\n      0x00\n      dup1\n      revert\n    tag_271:\n      pop\n      tag_85\n      sload(0xda)\n      dup2\n      jump\n        /* \"contracts/ACConfig.sol\":707:724  address public mv */\n    tag_50:\n      callvalue\n      dup1\n      iszero\n      tag_275\n      jumpi\n      0x00\n      dup1\n      revert\n    tag_275:\n      pop\n      sload(0xcb)\n      tag_69\n      swap1\n      sub(shl(0xa0, 0x01), 0x01)\n      and\n      dup2\n      jump\n        /* \"contracts/ACConfig.sol\":1123:1151  address public marketAddress */\n    tag_51:\n      callvalue\n      dup1\n      iszero\n      tag_279\n      jumpi\n      0x00\n      dup1\n      revert\n    tag_279:\n      pop\n      sload(0xd5)\n      tag_69\n      swap1\n      sub(shl(0xa0, 0x01), 0x01)\n      and\n      dup2\n      jump\n        /* \"contracts/ACConfig.sol\":3569:3884  function getTeamLevel()external view returns(uint256[] memory amounts,uint256[] memory rates){... */\n    tag_52:\n      callvalue\n      dup1\n      iszero\n      tag_283\n      jumpi\n      0x00\n      dup1\n      revert\n    tag_283:\n      pop\n      tag_284\n      tag_285\n      jump\t// in\n    tag_284:\n      mload(0x40)\n      tag_73\n      swap3\n      swap2\n      swap1\n      tag_287\n      jump\t// in\n        /* \"contracts/ACConfig.sol\":860:895  address public monthDividendAddress */\n    tag_53:\n      callvalue\n      dup1\n      iszero\n      tag_288\n      jumpi\n      0x00\n      dup1\n      revert\n    tag_288:\n      pop\n      sload(0xd0)\n      tag_69\n      swap1\n      sub(shl(0xa0, 0x01), 0x01)\n      and\n      dup2\n      jump\n        /* \"contracts/ACConfig.sol\":2128:3448  function initialize(address _operator)external initializer{... */\n    tag_54:\n      callvalue\n      dup1\n      iszero\n      tag_292\n      jumpi\n      0x00\n      dup1\n      revert\n    tag_292:\n      pop\n      tag_76\n      tag_294\n      calldatasize\n      0x04\n      tag_78\n      jump\t// in\n    tag_294:\n      tag_295\n      jump\t// in\n        /* \"contracts/ACConfig.sol\":7866:7994  function changePlatformAddress(address _platformAddress)external onlyAdmin {... */\n    tag_55:\n      callvalue\n      dup1\n      iszero\n      tag_296\n      jumpi\n      0x00\n      dup1\n      revert\n    tag_296:\n      pop\n      tag_76\n      tag_298\n      calldatasize\n      0x04\n      tag_78\n      jump\t// in\n    tag_298:\n      tag_299\n      jump\t// in\n        /* \"contracts/ACConfig.sol\":823:853  address public platformAddress */\n    tag_56:\n      callvalue\n      dup1\n      iszero\n      tag_300\n      jumpi\n      0x00\n      dup1\n      revert\n    tag_300:\n      pop\n      sload(0xcf)\n      tag_69\n      swap1\n      sub(shl(0xa0, 0x01), 0x01)\n      and\n      dup2\n      jump\n        /* \"contracts/ACConfig.sol\":7005:7170  function changeRefRewardRate(uint256 _oneRate,uint256 _twoRate)external onlyAdmin{... */\n    tag_57:\n      callvalue\n      dup1\n      iszero\n      tag_304\n      jumpi\n      0x00\n      dup1\n      revert\n    tag_304:\n      pop\n      tag_76\n      tag_306\n      calldatasize\n      0x04\n      tag_307\n      jump\t// in\n    tag_306:\n      tag_308\n      jump\t// in\n        /* \"contracts/ACConfig.sol\":1049:1083  address public mvCollectionAddress */\n    tag_58:\n      callvalue\n      dup1\n      iszero\n      tag_309\n      jumpi\n      0x00\n      dup1\n      revert\n    tag_309:\n      pop\n      sload(0xd3)\n      tag_69\n      swap1\n      sub(shl(0xa0, 0x01), 0x01)\n      and\n      dup2\n      jump\n        /* \"contracts/ACConfig.sol\":6443:6574  function changeRemainingAddress(address _remainingAddress)external onlyAdmin{... */\n    tag_59:\n      callvalue\n      dup1\n      iszero\n      tag_313\n      jumpi\n      0x00\n      dup1\n      revert\n    tag_313:\n      pop\n      tag_76\n      tag_315\n      calldatasize\n      0x04\n      tag_78\n      jump\t// in\n    tag_315:\n      tag_316\n      jump\t// in\n        /* \"contracts/ACConfig.sol\":1292:1326  uint256 public sameLevelRewardRate */\n    tag_60:\n      callvalue\n      dup1\n      iszero\n      tag_317\n      jumpi\n      0x00\n      dup1\n      revert\n    tag_317:\n      pop\n      tag_85\n      sload(0xd9)\n      dup2\n      jump\n        /* \"lib/contracts-upgradeable/access/OwnableUpgradeable.sol\":2321:2519  function transferOwnership(address newOwner) public virtual onlyOwner {... */\n    tag_61:\n      callvalue\n      dup1\n      iszero\n      tag_321\n      jumpi\n      0x00\n      dup1\n      revert\n    tag_321:\n      pop\n      tag_76\n      tag_323\n      calldatasize\n      0x04\n      tag_78\n      jump\t// in\n    tag_323:\n      tag_324\n      jump\t// in\n        /* \"contracts/ACConfig.sol\":8002:8150  function changeMonthDividenAddress(address _monthDividendAddress) external onlyAdmin {... */\n    tag_62:\n      callvalue\n      dup1\n      iszero\n      tag_325\n      jumpi\n      0x00\n      dup1\n      revert\n    tag_325:\n      pop\n      tag_76\n      tag_327\n      calldatasize\n      0x04\n      tag_78\n      jump\t// in\n    tag_327:\n      tag_328\n      jump\t// in\n        /* \"contracts/ACConfig.sol\":7466:7610  function changeMvCollectionAddress(address _mvCollectionAddress) external onlyAdmin{... */\n    tag_63:\n      callvalue\n      dup1\n      iszero\n      tag_329\n      jumpi\n      0x00\n      dup1\n      revert\n    tag_329:\n      pop\n      tag_76\n      tag_331\n      calldatasize\n      0x04\n      tag_78\n      jump\t// in\n    tag_331:\n      tag_332\n      jump\t// in\n        /* \"contracts/ACConfig.sol\":1444:1475  address public remainingAddress */\n    tag_64:\n      callvalue\n      dup1\n      iszero\n      tag_333\n      jumpi\n      0x00\n      dup1\n      revert\n    tag_333:\n      pop\n      sload(0xdc)\n      tag_69\n      swap1\n      sub(shl(0xa0, 0x01), 0x01)\n      and\n      dup2\n      jump\n        /* \"contracts/ACConfig.sol\":575:647  address constant public top = 0xd220B3cf1E4660C5509418B42A86d7945E6E2e18 */\n    tag_65:\n      callvalue\n      dup1\n      iszero\n      tag_337\n      jumpi\n      0x00\n      dup1\n      revert\n    tag_337:\n      pop\n      tag_69\n        /* \"contracts/ACConfig.sol\":605:647  0xd220B3cf1E4660C5509418B42A86d7945E6E2e18 */\n      0xd220b3cf1e4660c5509418b42a86d7945e6e2e18\n        /* \"contracts/ACConfig.sol\":575:647  address constant public top = 0xd220B3cf1E4660C5509418B42A86d7945E6E2e18 */\n      dup2\n      jump\n        /* \"contracts/ACConfig.sol\":6582:6717  function changeTeamRewardAddress(address _teamRewardAddress)external onlyAdmin{... */\n    tag_66:\n      callvalue\n      dup1\n      iszero\n      tag_341\n      jumpi\n      0x00\n      dup1\n      revert\n    tag_341:\n      pop\n      tag_76\n      tag_343\n      calldatasize\n      0x04\n      tag_78\n      jump\t// in\n    tag_343:\n      tag_344\n      jump\t// in\n        /* \"contracts/ACConfig.sol\":1685:1709  address[] public userArr */\n    tag_72:\n      0xe1\n      dup2\n      dup2\n      sload\n      dup2\n      lt\n      tag_345\n      jumpi\n      0x00\n      dup1\n      revert\n    tag_345:\n      0x00\n      swap2\n      dup3\n      mstore\n      0x20\n      swap1\n      swap2\n      keccak256\n      add\n      sload\n      sub(shl(0xa0, 0x01), 0x01)\n      and\n      swap1\n      pop\n      dup2\n      jump\t// out\n        /* \"contracts/ACConfig.sol\":4864:4963  function changeOperator(address _operator)external onlyOwner{... */\n    tag_79:\n        /* \"lib/contracts-upgradeable/access/OwnableUpgradeable.sol\":1334:1347  _checkOwner() */\n      tag_348\n        /* \"lib/contracts-upgradeable/access/OwnableUpgradeable.sol\":1334:1345  _checkOwner */\n      tag_349\n        /* \"lib/contracts-upgradeable/access/OwnableUpgradeable.sol\":1334:1347  _checkOwner() */\n      jump\t// in\n    tag_348:\n        /* \"contracts/ACConfig.sol\":4935:4943  operator */\n      0xe4\n        /* \"contracts/ACConfig.sol\":4935:4955  operator = _operator */\n      dup1\n      sload\n      not(sub(shl(0xa0, 0x01), 0x01))\n      and\n      sub(shl(0xa0, 0x01), 0x01)\n      swap3\n      swap1\n      swap3\n      and\n      swap2\n      swap1\n      swap2\n      or\n      swap1\n      sstore\n        /* \"contracts/ACConfig.sol\":4864:4963  function changeOperator(address _operator)external onlyOwner{... */\n      jump\t// out\n        /* \"contracts/ACConfig.sol\":8158:8258  function changeSwapRate(uint256 _swapRate)external onlyAdmin {... */\n    tag_83:\n        /* \"contracts/ACConfig.sol\":2047:2057  msg.sender */\n      caller\n        /* \"contracts/ACConfig.sol\":2041:2058  admin[msg.sender] */\n      0x00\n      swap1\n      dup2\n      mstore\n        /* \"contracts/ACConfig.sol\":2041:2046  admin */\n      0xe5\n        /* \"contracts/ACConfig.sol\":2041:2058  admin[msg.sender] */\n      0x20\n      mstore\n      0x40\n      swap1\n      keccak256\n      sload\n      0xff\n      and\n      dup1\n        /* \"contracts/ACConfig.sol\":2041:2083  admin[msg.sender] || msg.sender == owner() */\n      tag_352\n      jumpi\n      pop\n        /* \"contracts/ACConfig.sol\":2076:2083  owner() */\n      tag_353\n        /* \"contracts/ACConfig.sol\":2076:2081  owner */\n      tag_269\n        /* \"contracts/ACConfig.sol\":2076:2083  owner() */\n      jump\t// in\n    tag_353:\n      sub(shl(0xa0, 0x01), 0x01)\n        /* \"contracts/ACConfig.sol\":2062:2083  msg.sender == owner() */\n      and\n        /* \"contracts/ACConfig.sol\":2062:2072  msg.sender */\n      caller\n      sub(shl(0xa0, 0x01), 0x01)\n        /* \"contracts/ACConfig.sol\":2062:2083  msg.sender == owner() */\n      and\n      eq\n        /* \"contracts/ACConfig.sol\":2041:2083  admin[msg.sender] || msg.sender == owner() */\n    tag_352:\n        /* \"contracts/ACConfig.sol\":2033:2096  require(admin[msg.sender] || msg.sender == owner(),'not admin') */\n      tag_354\n      jumpi\n      mload(0x40)\n      shl(0xe5, 0x461bcd)\n      dup2\n      mstore\n      0x04\n      add\n      tag_355\n      swap1\n      tag_356\n      jump\t// in\n    tag_355:\n      mload(0x40)\n      dup1\n      swap2\n      sub\n      swap1\n      revert\n    tag_354:\n        /* \"contracts/ACConfig.sol\":8230:8238  swapRate */\n      0xd2\n        /* \"contracts/ACConfig.sol\":8230:8250  swapRate = _swapRate */\n      sstore\n        /* \"contracts/ACConfig.sol\":8158:8258  function changeSwapRate(uint256 _swapRate)external onlyAdmin {... */\n      jump\t// out\n        /* \"contracts/ACConfig.sol\":4251:4461  function getTeamAddress()external view returns(address[] memory addressArr){... */\n    tag_91:\n        /* \"contracts/ACConfig.sol\":4350:4366  new address[](2) */\n      0x40\n      dup1\n      mload\n        /* \"contracts/ACConfig.sol\":4364:4365  2 */\n      0x02\n        /* \"contracts/ACConfig.sol\":4350:4366  new address[](2) */\n      dup1\n      dup3\n      mstore\n        /* \"contracts/ACConfig.sol\":4298:4325  address[] memory addressArr */\n      0x60\n        /* \"contracts/ACConfig.sol\":4350:4366  new address[](2) */\n      dup1\n      dup4\n      add\n      dup5\n      mstore\n        /* \"contracts/ACConfig.sol\":4298:4325  address[] memory addressArr */\n      swap3\n        /* \"contracts/ACConfig.sol\":4350:4366  new address[](2) */\n      0x20\n      dup4\n      add\n      swap1\n      dup1\n      calldatasize\n      dup4\n      calldatacopy\n      pop\n      pop\n        /* \"contracts/ACConfig.sol\":4393:4410  teamRewardAddress */\n      sload(0xdb)\n        /* \"contracts/ACConfig.sol\":4377:4390  addressArr[0] */\n      dup3\n      mload\n      swap3\n      swap4\n      pop\n      sub(shl(0xa0, 0x01), 0x01)\n        /* \"contracts/ACConfig.sol\":4393:4410  teamRewardAddress */\n      and\n      swap2\n        /* \"contracts/ACConfig.sol\":4377:4390  addressArr[0] */\n      dup4\n      swap2\n      pop\n        /* \"contracts/ACConfig.sol\":4393:4410  teamRewardAddress */\n      0x00\n      swap1\n        /* \"contracts/ACConfig.sol\":4377:4390  addressArr[0] */\n      tag_364\n      jumpi\n      tag_364\n      tag_365\n      jump\t// in\n    tag_364:\n      sub(shl(0xa0, 0x01), 0x01)\n        /* \"contracts/ACConfig.sol\":4377:4410  addressArr[0] = teamRewardAddress */\n      swap3\n      dup4\n      and\n        /* \"contracts/ACConfig.sol\":4377:4390  addressArr[0] */\n      0x20\n      swap2\n      dup3\n      mul\n      swap3\n      swap1\n      swap3\n      add\n      add\n        /* \"contracts/ACConfig.sol\":4377:4410  addressArr[0] = teamRewardAddress */\n      mstore\n        /* \"contracts/ACConfig.sol\":4437:4453  remainingAddress */\n      sload(0xdc)\n        /* \"contracts/ACConfig.sol\":4421:4434  addressArr[1] */\n      dup3\n      mload\n        /* \"contracts/ACConfig.sol\":4437:4453  remainingAddress */\n      swap2\n      and\n      swap1\n        /* \"contracts/ACConfig.sol\":4421:4431  addressArr */\n      dup3\n      swap1\n        /* \"contracts/ACConfig.sol\":4437:4453  remainingAddress */\n      0x01\n      swap1\n        /* \"contracts/ACConfig.sol\":4421:4434  addressArr[1] */\n      dup2\n      lt\n      tag_367\n      jumpi\n      tag_367\n      tag_365\n      jump\t// in\n    tag_367:\n      0x20\n      mul\n      0x20\n      add\n      add\n        /* \"contracts/ACConfig.sol\":4421:4453  addressArr[1] = remainingAddress */\n      swap1\n      sub(shl(0xa0, 0x01), 0x01)\n      and\n      swap1\n      dup2\n      sub(shl(0xa0, 0x01), 0x01)\n      and\n      dup2\n      mstore\n      pop\n      pop\n        /* \"contracts/ACConfig.sol\":4251:4461  function getTeamAddress()external view returns(address[] memory addressArr){... */\n      swap1\n      jump\t// out\n        /* \"contracts/ACConfig.sol\":6284:6435  function changeShareHolderRewardRate(uint256 _shareHolderRewardRate)external onlyAdmin{... */\n    tag_97:\n        /* \"contracts/ACConfig.sol\":2047:2057  msg.sender */\n      caller\n        /* \"contracts/ACConfig.sol\":2041:2058  admin[msg.sender] */\n      0x00\n      swap1\n      dup2\n      mstore\n        /* \"contracts/ACConfig.sol\":2041:2046  admin */\n      0xe5\n        /* \"contracts/ACConfig.sol\":2041:2058  admin[msg.sender] */\n      0x20\n      mstore\n      0x40\n      swap1\n      keccak256\n      sload\n      0xff\n      and\n      dup1\n        /* \"contracts/ACConfig.sol\":2041:2083  admin[msg.sender] || msg.sender == owner() */\n      tag_369\n      jumpi\n      pop\n        /* \"contracts/ACConfig.sol\":2076:2083  owner() */\n      tag_370\n        /* \"contracts/ACConfig.sol\":2076:2081  owner */\n      tag_269\n        /* \"contracts/ACConfig.sol\":2076:2083  owner() */\n      jump\t// in\n    tag_370:\n      sub(shl(0xa0, 0x01), 0x01)\n        /* \"contracts/ACConfig.sol\":2062:2083  msg.sender == owner() */\n      and\n        /* \"contracts/ACConfig.sol\":2062:2072  msg.sender */\n      caller\n      sub(shl(0xa0, 0x01), 0x01)\n        /* \"contracts/ACConfig.sol\":2062:2083  msg.sender == owner() */\n      and\n      eq\n        /* \"contracts/ACConfig.sol\":2041:2083  admin[msg.sender] || msg.sender == owner() */\n    tag_369:\n        /* \"contracts/ACConfig.sol\":2033:2096  require(admin[msg.sender] || msg.sender == owner(),'not admin') */\n      tag_371\n      jumpi\n      mload(0x40)\n      shl(0xe5, 0x461bcd)\n      dup2\n      mstore\n      0x04\n      add\n      tag_355\n      swap1\n      tag_356\n      jump\t// in\n    tag_371:\n        /* \"contracts/ACConfig.sol\":6381:6402  shareHolderRewardRate */\n      0xdd\n        /* \"contracts/ACConfig.sol\":6381:6427  shareHolderRewardRate = _shareHolderRewardRate */\n      sstore\n        /* \"contracts/ACConfig.sol\":6284:6435  function changeShareHolderRewardRate(uint256 _shareHolderRewardRate)external onlyAdmin{... */\n      jump\t// out\n        /* \"contracts/ACConfig.sol\":3892:4243  function getRateConfig()external view returns(uint256[] memory rates){... */\n    tag_104:\n        /* \"contracts/ACConfig.sol\":3980:3996  new uint256[](6) */\n      0x40\n      dup1\n      mload\n        /* \"contracts/ACConfig.sol\":3994:3995  6 */\n      0x06\n        /* \"contracts/ACConfig.sol\":3980:3996  new uint256[](6) */\n      dup1\n      dup3\n      mstore\n      0xe0\n      dup3\n      add\n      swap1\n      swap3\n      mstore\n        /* \"contracts/ACConfig.sol\":3938:3960  uint256[] memory rates */\n      0x60\n      swap2\n        /* \"contracts/ACConfig.sol\":3980:3996  new uint256[](6) */\n      0x20\n      dup3\n      add\n      0xc0\n      dup1\n      calldatasize\n      dup4\n      calldatacopy\n      add\n      swap1\n      pop\n      pop\n        /* \"contracts/ACConfig.sol\":3972:3996  rates = new uint256[](6) */\n      swap1\n      pop\n        /* \"contracts/ACConfig.sol\":4020:4036  refRewardOneRate */\n      sload(0xd7)\n        /* \"contracts/ACConfig.sol\":4009:4014  rates */\n      dup2\n        /* \"contracts/ACConfig.sol\":4015:4016  0 */\n      0x00\n        /* \"contracts/ACConfig.sol\":4009:4017  rates[0] */\n      dup2\n      mload\n      dup2\n      lt\n      tag_379\n      jumpi\n      tag_379\n      tag_365\n      jump\t// in\n    tag_379:\n      0x20\n      mul\n      0x20\n      add\n      add\n        /* \"contracts/ACConfig.sol\":4009:4036  rates[0] = refRewardOneRate */\n      dup2\n      dup2\n      mstore\n      pop\n      pop\n        /* \"contracts/ACConfig.sol\":4058:4074  refRewardTwoRate */\n      sload(0xd8)\n        /* \"contracts/ACConfig.sol\":4047:4052  rates */\n      dup2\n        /* \"contracts/ACConfig.sol\":4053:4054  1 */\n      0x01\n        /* \"contracts/ACConfig.sol\":4047:4055  rates[1] */\n      dup2\n      mload\n      dup2\n      lt\n      tag_381\n      jumpi\n      tag_381\n      tag_365\n      jump\t// in\n    tag_381:\n      0x20\n      mul\n      0x20\n      add\n      add\n        /* \"contracts/ACConfig.sol\":4047:4074  rates[1] = refRewardTwoRate */\n      dup2\n      dup2\n      mstore\n      pop\n      pop\n        /* \"contracts/ACConfig.sol\":4096:4115  sameLevelRewardRate */\n      sload(0xd9)\n        /* \"contracts/ACConfig.sol\":4085:4090  rates */\n      dup2\n        /* \"contracts/ACConfig.sol\":4091:4092  2 */\n      0x02\n        /* \"contracts/ACConfig.sol\":4085:4093  rates[2] */\n      dup2\n      mload\n      dup2\n      lt\n      tag_383\n      jumpi\n      tag_383\n      tag_365\n      jump\t// in\n    tag_383:\n      0x20\n      mul\n      0x20\n      add\n      add\n        /* \"contracts/ACConfig.sol\":4085:4115  rates[2] = sameLevelRewardRate */\n      dup2\n      dup2\n      mstore\n      pop\n      pop\n        /* \"contracts/ACConfig.sol\":4137:4151  teamRewardRate */\n      sload(0xda)\n        /* \"contracts/ACConfig.sol\":4126:4131  rates */\n      dup2\n        /* \"contracts/ACConfig.sol\":4132:4133  3 */\n      0x03\n        /* \"contracts/ACConfig.sol\":4126:4134  rates[3] */\n      dup2\n      mload\n      dup2\n      lt\n      tag_385\n      jumpi\n      tag_385\n      tag_365\n      jump\t// in\n    tag_385:\n      0x20\n      mul\n      0x20\n      add\n      add\n        /* \"contracts/ACConfig.sol\":4126:4151  rates[3] = teamRewardRate */\n      dup2\n      dup2\n      mstore\n      pop\n      pop\n        /* \"contracts/ACConfig.sol\":4173:4194  shareHolderRewardRate */\n      sload(0xdd)\n        /* \"contracts/ACConfig.sol\":4162:4167  rates */\n      dup2\n        /* \"contracts/ACConfig.sol\":4168:4169  4 */\n      0x04\n        /* \"contracts/ACConfig.sol\":4162:4170  rates[4] */\n      dup2\n      mload\n      dup2\n      lt\n      tag_387\n      jumpi\n      tag_387\n      tag_365\n      jump\t// in\n    tag_387:\n      0x20\n      mul\n      0x20\n      add\n      add\n        /* \"contracts/ACConfig.sol\":4162:4194  rates[4] = shareHolderRewardRate */\n      dup2\n      dup2\n      mstore\n      pop\n      pop\n        /* \"contracts/ACConfig.sol\":4216:4235  shareHolderMinLimit */\n      sload(0xde)\n        /* \"contracts/ACConfig.sol\":4205:4210  rates */\n      dup2\n        /* \"contracts/ACConfig.sol\":4211:4212  5 */\n      0x05\n        /* \"contracts/ACConfig.sol\":4205:4213  rates[5] */\n      dup2\n      mload\n      dup2\n      lt\n      tag_389\n      jumpi\n      tag_389\n      tag_365\n      jump\t// in\n    tag_389:\n      0x20\n      mul\n      0x20\n      add\n      add\n        /* \"contracts/ACConfig.sol\":4205:4235  rates[5] = shareHolderMinLimit */\n      dup2\n      dup2\n      mstore\n      pop\n      pop\n        /* \"contracts/ACConfig.sol\":3892:4243  function getRateConfig()external view returns(uint256[] memory rates){... */\n      swap1\n      jump\t// out\n        /* \"contracts/ACConfig.sol\":7178:7314  function changeMinComputingPower(uint256 _minComputingPower) external onlyAdmin{... */\n    tag_133:\n        /* \"contracts/ACConfig.sol\":2047:2057  msg.sender */\n      caller\n        /* \"contracts/ACConfig.sol\":2041:2058  admin[msg.sender] */\n      0x00\n      swap1\n      dup2\n      mstore\n        /* \"contracts/ACConfig.sol\":2041:2046  admin */\n      0xe5\n        /* \"contracts/ACConfig.sol\":2041:2058  admin[msg.sender] */\n      0x20\n      mstore\n      0x40\n      swap1\n      keccak256\n      sload\n      0xff\n      and\n      dup1\n        /* \"contracts/ACConfig.sol\":2041:2083  admin[msg.sender] || msg.sender == owner() */\n      tag_391\n      jumpi\n      pop\n        /* \"contracts/ACConfig.sol\":2076:2083  owner() */\n      tag_392\n        /* \"contracts/ACConfig.sol\":2076:2081  owner */\n      tag_269\n        /* \"contracts/ACConfig.sol\":2076:2083  owner() */\n      jump\t// in\n    tag_392:\n      sub(shl(0xa0, 0x01), 0x01)\n        /* \"contracts/ACConfig.sol\":2062:2083  msg.sender == owner() */\n      and\n        /* \"contracts/ACConfig.sol\":2062:2072  msg.sender */\n      caller\n      sub(shl(0xa0, 0x01), 0x01)\n        /* \"contracts/ACConfig.sol\":2062:2083  msg.sender == owner() */\n      and\n      eq\n        /* \"contracts/ACConfig.sol\":2041:2083  admin[msg.sender] || msg.sender == owner() */\n    tag_391:\n        /* \"contracts/ACConfig.sol\":2033:2096  require(admin[msg.sender] || msg.sender == owner(),'not admin') */\n      tag_393\n      jumpi\n      mload(0x40)\n      shl(0xe5, 0x461bcd)\n      dup2\n      mstore\n      0x04\n      add\n      tag_355\n      swap1\n      tag_356\n      jump\t// in\n    tag_393:\n        /* \"contracts/ACConfig.sol\":7268:7285  minComputingPower */\n      0xd6\n        /* \"contracts/ACConfig.sol\":7268:7306  minComputingPower = _minComputingPower */\n      sstore\n        /* \"contracts/ACConfig.sol\":7178:7314  function changeMinComputingPower(uint256 _minComputingPower) external onlyAdmin{... */\n      jump\t// out\n        /* \"contracts/ACConfig.sol\":5117:5260  function setUserLevel(address _user,uint256 _level)external onlyAdmin{... */\n    tag_138:\n        /* \"contracts/ACConfig.sol\":2047:2057  msg.sender */\n      caller\n        /* \"contracts/ACConfig.sol\":2041:2058  admin[msg.sender] */\n      0x00\n      swap1\n      dup2\n      mstore\n        /* \"contracts/ACConfig.sol\":2041:2046  admin */\n      0xe5\n        /* \"contracts/ACConfig.sol\":2041:2058  admin[msg.sender] */\n      0x20\n      mstore\n      0x40\n      swap1\n      keccak256\n      sload\n      0xff\n      and\n      dup1\n        /* \"contracts/ACConfig.sol\":2041:2083  admin[msg.sender] || msg.sender == owner() */\n      tag_397\n      jumpi\n      pop\n        /* \"contracts/ACConfig.sol\":2076:2083  owner() */\n      tag_398\n        /* \"contracts/ACConfig.sol\":2076:2081  owner */\n      tag_269\n        /* \"contracts/ACConfig.sol\":2076:2083  owner() */\n      jump\t// in\n    tag_398:\n      sub(shl(0xa0, 0x01), 0x01)\n        /* \"contracts/ACConfig.sol\":2062:2083  msg.sender == owner() */\n      and\n        /* \"contracts/ACConfig.sol\":2062:2072  msg.sender */\n      caller\n      sub(shl(0xa0, 0x01), 0x01)\n        /* \"contracts/ACConfig.sol\":2062:2083  msg.sender == owner() */\n      and\n      eq\n        /* \"contracts/ACConfig.sol\":2041:2083  admin[msg.sender] || msg.sender == owner() */\n    tag_397:\n        /* \"contracts/ACConfig.sol\":2033:2096  require(admin[msg.sender] || msg.sender == owner(),'not admin') */\n      tag_399\n      jumpi\n      mload(0x40)\n      shl(0xe5, 0x461bcd)\n      dup2\n      mstore\n      0x04\n      add\n      tag_355\n      swap1\n      tag_356\n      jump\t// in\n    tag_399:\n      sub(shl(0xa0, 0x01), 0x01)\n        /* \"contracts/ACConfig.sol\":5197:5213  userLevel[_user] */\n      swap1\n      swap2\n      and\n      0x00\n      dup2\n      dup2\n      mstore\n        /* \"contracts/ACConfig.sol\":5197:5206  userLevel */\n      0xe0\n        /* \"contracts/ACConfig.sol\":5197:5213  userLevel[_user] */\n      0x20\n      mstore\n      0x40\n      dup2\n      keccak256\n        /* \"contracts/ACConfig.sol\":5197:5222  userLevel[_user] = _level */\n      swap3\n      swap1\n      swap3\n      sstore\n        /* \"contracts/ACConfig.sol\":5233:5240  userArr */\n      0xe1\n        /* \"contracts/ACConfig.sol\":5233:5252  userArr.push(_user) */\n      dup1\n      sload\n      0x01\n      dup2\n      add\n      dup3\n      sstore\n      swap3\n      mstore\n      0x00\n      dup1\n      mload\n      0x20\n      data_e3d46f142e20657c402ed08bdf439babdd6fbb8091e2708315f00847c0f52cc5\n      dup4\n      codecopy\n      dup2\n      mload\n      swap2\n      mstore\n      swap1\n      swap2\n      add\n      dup1\n      sload\n      not(sub(shl(0xa0, 0x01), 0x01))\n      and\n      swap1\n      swap2\n      or\n      swap1\n      sstore\n        /* \"contracts/ACConfig.sol\":5117:5260  function setUserLevel(address _user,uint256 _level)external onlyAdmin{... */\n      jump\t// out\n        /* \"contracts/ACConfig.sol\":7738:7858  function changeMarketAddress(address _marketAddress) external onlyAdmin{... */\n    tag_142:\n        /* \"contracts/ACConfig.sol\":2047:2057  msg.sender */\n      caller\n        /* \"contracts/ACConfig.sol\":2041:2058  admin[msg.sender] */\n      0x00\n      swap1\n      dup2\n      mstore\n        /* \"contracts/ACConfig.sol\":2041:2046  admin */\n      0xe5\n        /* \"contracts/ACConfig.sol\":2041:2058  admin[msg.sender] */\n      0x20\n      mstore\n      0x40\n      swap1\n      keccak256\n      sload\n      0xff\n      and\n      dup1\n        /* \"contracts/ACConfig.sol\":2041:2083  admin[msg.sender] || msg.sender == owner() */\n      tag_404\n      jumpi\n      pop\n        /* \"contracts/ACConfig.sol\":2076:2083  owner() */\n      tag_405\n        /* \"contracts/ACConfig.sol\":2076:2081  owner */\n      tag_269\n        /* \"contracts/ACConfig.sol\":2076:2083  owner() */\n      jump\t// in\n    tag_405:\n      sub(shl(0xa0, 0x01), 0x01)\n        /* \"contracts/ACConfig.sol\":2062:2083  msg.sender == owner() */\n      and\n        /* \"contracts/ACConfig.sol\":2062:2072  msg.sender */\n      caller\n      sub(shl(0xa0, 0x01), 0x01)\n        /* \"contracts/ACConfig.sol\":2062:2083  msg.sender == owner() */\n      and\n      eq\n        /* \"contracts/ACConfig.sol\":2041:2083  admin[msg.sender] || msg.sender == owner() */\n    tag_404:\n        /* \"contracts/ACConfig.sol\":2033:2096  require(admin[msg.sender] || msg.sender == owner(),'not admin') */\n      tag_406\n      jumpi\n      mload(0x40)\n      shl(0xe5, 0x461bcd)\n      dup2\n      mstore\n      0x04\n      add\n      tag_355\n      swap1\n      tag_356\n      jump\t// in\n    tag_406:\n        /* \"contracts/ACConfig.sol\":7820:7833  marketAddress */\n      0xd5\n        /* \"contracts/ACConfig.sol\":7820:7850  marketAddress = _marketAddress */\n      dup1\n      sload\n      not(sub(shl(0xa0, 0x01), 0x01))\n      and\n      sub(shl(0xa0, 0x01), 0x01)\n      swap3\n      swap1\n      swap3\n      and\n      swap2\n      swap1\n      swap2\n      or\n      swap1\n      sstore\n        /* \"contracts/ACConfig.sol\":7738:7858  function changeMarketAddress(address _marketAddress) external onlyAdmin{... */\n      jump\t// out\n        /* \"lib/contracts-upgradeable/proxy/utils/UUPSUpgradeable.sol\":3317:3514  function upgradeTo(address newImplementation) external virtual onlyProxy {... */\n    tag_146:\n      sub(shl(0xa0, 0x01), 0x01)\n        /* \"lib/contracts-upgradeable/proxy/utils/UUPSUpgradeable.sol\":1898:1904  __self */\n      immutable(\"0x90a0a53a674dda23f50c6d7df8f61e9f3e3cf11a0ea21d6964915bb3c7f9b219\")\n        /* \"lib/contracts-upgradeable/proxy/utils/UUPSUpgradeable.sol\":1881:1904  address(this) != __self */\n      and\n        /* \"lib/contracts-upgradeable/proxy/utils/UUPSUpgradeable.sol\":1889:1893  this */\n      address\n        /* \"lib/contracts-upgradeable/proxy/utils/UUPSUpgradeable.sol\":1881:1904  address(this) != __self */\n      sub\n        /* \"lib/contracts-upgradeable/proxy/utils/UUPSUpgradeable.sol\":1873:1953  require(address(this) != __self, \"Function must be called through delegatecall\") */\n      tag_410\n      jumpi\n      mload(0x40)\n      shl(0xe5, 0x461bcd)\n      dup2\n      mstore\n      0x04\n      add\n      tag_355\n      swap1\n      tag_412\n      jump\t// in\n    tag_410:\n        /* \"lib/contracts-upgradeable/proxy/utils/UUPSUpgradeable.sol\":1995:2001  __self */\n      immutable(\"0x90a0a53a674dda23f50c6d7df8f61e9f3e3cf11a0ea21d6964915bb3c7f9b219\")\n      sub(shl(0xa0, 0x01), 0x01)\n        /* \"lib/contracts-upgradeable/proxy/utils/UUPSUpgradeable.sol\":1971:2001  _getImplementation() == __self */\n      and\n        /* \"lib/contracts-upgradeable/proxy/utils/UUPSUpgradeable.sol\":1971:1991  _getImplementation() */\n      tag_413\n        /* \"lib/contracts-upgradeable/proxy/utils/UUPSUpgradeable.sol\":1971:1989  _getImplementation */\n      tag_414\n        /* \"lib/contracts-upgradeable/proxy/utils/UUPSUpgradeable.sol\":1971:1991  _getImplementation() */\n      jump\t// in\n    tag_413:\n      sub(shl(0xa0, 0x01), 0x01)\n        /* \"lib/contracts-upgradeable/proxy/utils/UUPSUpgradeable.sol\":1971:2001  _getImplementation() == __self */\n      and\n      eq\n        /* \"lib/contracts-upgradeable/proxy/utils/UUPSUpgradeable.sol\":1963:2050  require(_getImplementation() == __self, \"Function must be called through active proxy\") */\n      tag_415\n      jumpi\n      mload(0x40)\n      shl(0xe5, 0x461bcd)\n      dup2\n      mstore\n      0x04\n      add\n      tag_355\n      swap1\n      tag_417\n      jump\t// in\n    tag_415:\n        /* \"lib/contracts-upgradeable/proxy/utils/UUPSUpgradeable.sol\":3400:3436  _authorizeUpgrade(newImplementation) */\n      tag_419\n        /* \"lib/contracts-upgradeable/proxy/utils/UUPSUpgradeable.sol\":3418:3435  newImplementation */\n      dup2\n        /* \"lib/contracts-upgradeable/proxy/utils/UUPSUpgradeable.sol\":3400:3417  _authorizeUpgrade */\n      tag_420\n        /* \"lib/contracts-upgradeable/proxy/utils/UUPSUpgradeable.sol\":3400:3436  _authorizeUpgrade(newImplementation) */\n      jump\t// in\n    tag_419:\n        /* \"lib/contracts-upgradeable/proxy/utils/UUPSUpgradeable.sol\":3487:3499  new bytes(0) */\n      0x40\n      dup1\n      mload\n        /* \"lib/contracts-upgradeable/proxy/utils/UUPSUpgradeable.sol\":3497:3498  0 */\n      0x00\n        /* \"lib/contracts-upgradeable/proxy/utils/UUPSUpgradeable.sol\":3487:3499  new bytes(0) */\n      dup1\n      dup3\n      mstore\n      0x20\n      dup3\n      add\n      swap1\n      swap3\n      mstore\n        /* \"lib/contracts-upgradeable/proxy/utils/UUPSUpgradeable.sol\":3446:3507  _upgradeToAndCallUUPS(newImplementation, new bytes(0), false) */\n      tag_421\n      swap2\n        /* \"lib/contracts-upgradeable/proxy/utils/UUPSUpgradeable.sol\":3468:3485  newImplementation */\n      dup4\n      swap2\n        /* \"lib/contracts-upgradeable/proxy/utils/UUPSUpgradeable.sol\":3487:3499  new bytes(0) */\n      swap1\n        /* \"lib/contracts-upgradeable/proxy/utils/UUPSUpgradeable.sol\":3446:3467  _upgradeToAndCallUUPS */\n      tag_425\n        /* \"lib/contracts-upgradeable/proxy/utils/UUPSUpgradeable.sol\":3446:3507  _upgradeToAndCallUUPS(newImplementation, new bytes(0), false) */\n      jump\t// in\n    tag_421:\n        /* \"lib/contracts-upgradeable/proxy/utils/UUPSUpgradeable.sol\":3317:3514  function upgradeTo(address newImplementation) external virtual onlyProxy {... */\n      pop\n      jump\t// out\n        /* \"contracts/ACConfig.sol\":5838:6125  function changeTeamLevel(uint256[] memory _amount,uint256[] memory _rate)external onlyAdmin{... */\n    tag_159:\n        /* \"contracts/ACConfig.sol\":2047:2057  msg.sender */\n      caller\n        /* \"contracts/ACConfig.sol\":2041:2058  admin[msg.sender] */\n      0x00\n      swap1\n      dup2\n      mstore\n        /* \"contracts/ACConfig.sol\":2041:2046  admin */\n      0xe5\n        /* \"contracts/ACConfig.sol\":2041:2058  admin[msg.sender] */\n      0x20\n      mstore\n      0x40\n      swap1\n      keccak256\n      sload\n      0xff\n      and\n      dup1\n        /* \"contracts/ACConfig.sol\":2041:2083  admin[msg.sender] || msg.sender == owner() */\n      tag_427\n      jumpi\n      pop\n        /* \"contracts/ACConfig.sol\":2076:2083  owner() */\n      tag_428\n        /* \"contracts/ACConfig.sol\":2076:2081  owner */\n      tag_269\n        /* \"contracts/ACConfig.sol\":2076:2083  owner() */\n      jump\t// in\n    tag_428:\n      sub(shl(0xa0, 0x01), 0x01)\n        /* \"contracts/ACConfig.sol\":2062:2083  msg.sender == owner() */\n      and\n        /* \"contracts/ACConfig.sol\":2062:2072  msg.sender */\n      caller\n      sub(shl(0xa0, 0x01), 0x01)\n        /* \"contracts/ACConfig.sol\":2062:2083  msg.sender == owner() */\n      and\n      eq\n        /* \"contracts/ACConfig.sol\":2041:2083  admin[msg.sender] || msg.sender == owner() */\n    tag_427:\n        /* \"contracts/ACConfig.sol\":2033:2096  require(admin[msg.sender] || msg.sender == owner(),'not admin') */\n      tag_429\n      jumpi\n      mload(0x40)\n      shl(0xe5, 0x461bcd)\n      dup2\n      mstore\n      0x04\n      add\n      tag_355\n      swap1\n      tag_356\n      jump\t// in\n    tag_429:\n        /* \"contracts/ACConfig.sol\":5966:5971  _rate */\n      dup1\n        /* \"contracts/ACConfig.sol\":5966:5978  _rate.length */\n      mload\n        /* \"contracts/ACConfig.sol\":5948:5955  _amount */\n      dup3\n        /* \"contracts/ACConfig.sol\":5948:5962  _amount.length */\n      mload\n        /* \"contracts/ACConfig.sol\":5948:5978  _amount.length == _rate.length */\n      eq\n        /* \"contracts/ACConfig.sol\":5940:5994  require(_amount.length == _rate.length,'length error') */\n      tag_432\n      jumpi\n      mload(0x40)\n      shl(0xe5, 0x461bcd)\n      dup2\n      mstore\n        /* \"#utility.yul\":9267:9269   */\n      0x20\n        /* \"contracts/ACConfig.sol\":5940:5994  require(_amount.length == _rate.length,'length error') */\n      0x04\n      dup3\n      add\n        /* \"#utility.yul\":9249:9270   */\n      mstore\n        /* \"#utility.yul\":9306:9308   */\n      0x0c\n        /* \"#utility.yul\":9286:9304   */\n      0x24\n      dup3\n      add\n        /* \"#utility.yul\":9279:9309   */\n      mstore\n      shl(0xa1, 0x3632b733ba341032b93937b9)\n        /* \"#utility.yul\":9325:9343   */\n      0x44\n      dup3\n      add\n        /* \"#utility.yul\":9318:9360   */\n      mstore\n        /* \"#utility.yul\":9377:9395   */\n      0x64\n      add\n        /* \"contracts/ACConfig.sol\":5940:5994  require(_amount.length == _rate.length,'length error') */\n      tag_355\n        /* \"#utility.yul\":9065:9401   */\n      jump\n        /* \"contracts/ACConfig.sol\":5940:5994  require(_amount.length == _rate.length,'length error') */\n    tag_432:\n        /* \"contracts/ACConfig.sol\":6011:6020  uint256 i */\n      0x00\n        /* \"contracts/ACConfig.sol\":6007:6118  for(uint256 i = 0; i < _amount.length; ++i){... */\n    tag_435:\n        /* \"contracts/ACConfig.sol\":6030:6037  _amount */\n      dup3\n        /* \"contracts/ACConfig.sol\":6030:6044  _amount.length */\n      mload\n        /* \"contracts/ACConfig.sol\":6026:6027  i */\n      dup2\n        /* \"contracts/ACConfig.sol\":6026:6044  i < _amount.length */\n      lt\n        /* \"contracts/ACConfig.sol\":6007:6118  for(uint256 i = 0; i < _amount.length; ++i){... */\n      iszero\n      tag_436\n      jumpi\n        /* \"contracts/ACConfig.sol\":6080:6106  Level(_amount[i],_rate[i]) */\n      mload(0x40)\n      dup1\n      0x40\n      add\n      0x40\n      mstore\n      dup1\n        /* \"contracts/ACConfig.sol\":6086:6093  _amount */\n      dup5\n        /* \"contracts/ACConfig.sol\":6094:6095  i */\n      dup4\n        /* \"contracts/ACConfig.sol\":6086:6096  _amount[i] */\n      dup2\n      mload\n      dup2\n      lt\n      tag_439\n      jumpi\n      tag_439\n      tag_365\n      jump\t// in\n    tag_439:\n      0x20\n      mul\n      0x20\n      add\n      add\n      mload\n        /* \"contracts/ACConfig.sol\":6080:6106  Level(_amount[i],_rate[i]) */\n      dup2\n      mstore\n      0x20\n      add\n        /* \"contracts/ACConfig.sol\":6097:6102  _rate */\n      dup4\n        /* \"contracts/ACConfig.sol\":6103:6104  i */\n      dup4\n        /* \"contracts/ACConfig.sol\":6097:6105  _rate[i] */\n      dup2\n      mload\n      dup2\n      lt\n      tag_441\n      jumpi\n      tag_441\n      tag_365\n      jump\t// in\n    tag_441:\n      0x20\n      swap1\n      dup2\n      mul\n      swap2\n      swap1\n      swap2\n      add\n      dup2\n      add\n      mload\n        /* \"contracts/ACConfig.sol\":6080:6106  Level(_amount[i],_rate[i]) */\n      swap1\n      swap2\n      mstore\n        /* \"contracts/ACConfig.sol\":6065:6077  teamLevel[i] */\n      0x00\n      dup4\n      dup2\n      mstore\n        /* \"contracts/ACConfig.sol\":6065:6074  teamLevel */\n      0xdf\n        /* \"contracts/ACConfig.sol\":6065:6077  teamLevel[i] */\n      dup3\n      mstore\n      0x40\n      swap1\n      keccak256\n        /* \"contracts/ACConfig.sol\":6065:6106  teamLevel[i] = Level(_amount[i],_rate[i]) */\n      dup3\n      mload\n      dup2\n      sstore\n      swap2\n      add\n      mload\n      0x01\n      swap1\n      swap2\n      add\n      sstore\n        /* \"contracts/ACConfig.sol\":6046:6049  ++i */\n      tag_442\n        /* \"contracts/ACConfig.sol\":6075:6076  i */\n      dup2\n        /* \"contracts/ACConfig.sol\":6046:6049  ++i */\n      tag_443\n      jump\t// in\n    tag_442:\n      swap1\n      pop\n        /* \"contracts/ACConfig.sol\":6007:6118  for(uint256 i = 0; i < _amount.length; ++i){... */\n      jump(tag_435)\n    tag_436:\n      pop\n        /* \"contracts/ACConfig.sol\":5838:6125  function changeTeamLevel(uint256[] memory _amount,uint256[] memory _rate)external onlyAdmin{... */\n      pop\n      pop\n      jump\t// out\n        /* \"contracts/ACConfig.sol\":6854:6997  function changeSameLevelRewardRate(uint256 _sameLevelRewardRate)external onlyAdmin{... */\n    tag_171:\n        /* \"contracts/ACConfig.sol\":2047:2057  msg.sender */\n      caller\n        /* \"contracts/ACConfig.sol\":2041:2058  admin[msg.sender] */\n      0x00\n      swap1\n      dup2\n      mstore\n        /* \"contracts/ACConfig.sol\":2041:2046  admin */\n      0xe5\n        /* \"contracts/ACConfig.sol\":2041:2058  admin[msg.sender] */\n      0x20\n      mstore\n      0x40\n      swap1\n      keccak256\n      sload\n      0xff\n      and\n      dup1\n        /* \"contracts/ACConfig.sol\":2041:2083  admin[msg.sender] || msg.sender == owner() */\n      tag_445\n      jumpi\n      pop\n        /* \"contracts/ACConfig.sol\":2076:2083  owner() */\n      tag_446\n        /* \"contracts/ACConfig.sol\":2076:2081  owner */\n      tag_269\n        /* \"contracts/ACConfig.sol\":2076:2083  owner() */\n      jump\t// in\n    tag_446:\n      sub(shl(0xa0, 0x01), 0x01)\n        /* \"contracts/ACConfig.sol\":2062:2083  msg.sender == owner() */\n      and\n        /* \"contracts/ACConfig.sol\":2062:2072  msg.sender */\n      caller\n      sub(shl(0xa0, 0x01), 0x01)\n        /* \"contracts/ACConfig.sol\":2062:2083  msg.sender == owner() */\n      and\n      eq\n        /* \"contracts/ACConfig.sol\":2041:2083  admin[msg.sender] || msg.sender == owner() */\n    tag_445:\n        /* \"contracts/ACConfig.sol\":2033:2096  require(admin[msg.sender] || msg.sender == owner(),'not admin') */\n      tag_447\n      jumpi\n      mload(0x40)\n      shl(0xe5, 0x461bcd)\n      dup2\n      mstore\n      0x04\n      add\n      tag_355\n      swap1\n      tag_356\n      jump\t// in\n    tag_447:\n        /* \"contracts/ACConfig.sol\":6947:6966  sameLevelRewardRate */\n      0xd9\n        /* \"contracts/ACConfig.sol\":6947:6989  sameLevelRewardRate = _sameLevelRewardRate */\n      sstore\n        /* \"contracts/ACConfig.sol\":6854:6997  function changeSameLevelRewardRate(uint256 _sameLevelRewardRate)external onlyAdmin{... */\n      jump\t// out\n        /* \"contracts/ACConfig.sol\":4760:4856  function setAdmin(address user,bool auth)external onlyOwner{... */\n    tag_176:\n        /* \"lib/contracts-upgradeable/access/OwnableUpgradeable.sol\":1334:1347  _checkOwner() */\n      tag_451\n        /* \"lib/contracts-upgradeable/access/OwnableUpgradeable.sol\":1334:1345  _checkOwner */\n      tag_349\n        /* \"lib/contracts-upgradeable/access/OwnableUpgradeable.sol\":1334:1347  _checkOwner() */\n      jump\t// in\n    tag_451:\n      sub(shl(0xa0, 0x01), 0x01)\n        /* \"contracts/ACConfig.sol\":4830:4841  admin[user] */\n      swap2\n      swap1\n      swap2\n      and\n      0x00\n      swap1\n      dup2\n      mstore\n        /* \"contracts/ACConfig.sol\":4830:4835  admin */\n      0xe5\n        /* \"contracts/ACConfig.sol\":4830:4841  admin[user] */\n      0x20\n      mstore\n      0x40\n      swap1\n      keccak256\n        /* \"contracts/ACConfig.sol\":4830:4848  admin[user] = auth */\n      dup1\n      sload\n      not(0xff)\n      and\n      swap2\n      iszero\n      iszero\n      swap2\n      swap1\n      swap2\n      or\n      swap1\n      sstore\n        /* \"contracts/ACConfig.sol\":4760:4856  function setAdmin(address user,bool auth)external onlyOwner{... */\n      jump\t// out\n        /* \"lib/contracts-upgradeable/proxy/utils/UUPSUpgradeable.sol\":3763:3985  function upgradeToAndCall(address newImplementation, bytes memory data) external payable virtual onlyProxy {... */\n    tag_188:\n      sub(shl(0xa0, 0x01), 0x01)\n        /* \"lib/contracts-upgradeable/proxy/utils/UUPSUpgradeable.sol\":1898:1904  __self */\n      immutable(\"0x90a0a53a674dda23f50c6d7df8f61e9f3e3cf11a0ea21d6964915bb3c7f9b219\")\n        /* \"lib/contracts-upgradeable/proxy/utils/UUPSUpgradeable.sol\":1881:1904  address(this) != __self */\n      and\n        /* \"lib/contracts-upgradeable/proxy/utils/UUPSUpgradeable.sol\":1889:1893  this */\n      address\n        /* \"lib/contracts-upgradeable/proxy/utils/UUPSUpgradeable.sol\":1881:1904  address(this) != __self */\n      sub\n        /* \"lib/contracts-upgradeable/proxy/utils/UUPSUpgradeable.sol\":1873:1953  require(address(this) != __self, \"Function must be called through delegatecall\") */\n      tag_454\n      jumpi\n      mload(0x40)\n      shl(0xe5, 0x461bcd)\n      dup2\n      mstore\n      0x04\n      add\n      tag_355\n      swap1\n      tag_412\n      jump\t// in\n    tag_454:\n        /* \"lib/contracts-upgradeable/proxy/utils/UUPSUpgradeable.sol\":1995:2001  __self */\n      immutable(\"0x90a0a53a674dda23f50c6d7df8f61e9f3e3cf11a0ea21d6964915bb3c7f9b219\")\n      sub(shl(0xa0, 0x01), 0x01)\n        /* \"lib/contracts-upgradeable/proxy/utils/UUPSUpgradeable.sol\":1971:2001  _getImplementation() == __self */\n      and\n        /* \"lib/contracts-upgradeable/proxy/utils/UUPSUpgradeable.sol\":1971:1991  _getImplementation() */\n      tag_456\n        /* \"lib/contracts-upgradeable/proxy/utils/UUPSUpgradeable.sol\":1971:1989  _getImplementation */\n      tag_414\n        /* \"lib/contracts-upgradeable/proxy/utils/UUPSUpgradeable.sol\":1971:1991  _getImplementation() */\n      jump\t// in\n    tag_456:\n      sub(shl(0xa0, 0x01), 0x01)\n        /* \"lib/contracts-upgradeable/proxy/utils/UUPSUpgradeable.sol\":1971:2001  _getImplementation() == __self */\n      and\n      eq\n        /* \"lib/contracts-upgradeable/proxy/utils/UUPSUpgradeable.sol\":1963:2050  require(_getImplementation() == __self, \"Function must be called through active proxy\") */\n      tag_457\n      jumpi\n      mload(0x40)\n      shl(0xe5, 0x461bcd)\n      dup2\n      mstore\n      0x04\n      add\n      tag_355\n      swap1\n      tag_417\n      jump\t// in\n    tag_457:\n        /* \"lib/contracts-upgradeable/proxy/utils/UUPSUpgradeable.sol\":3880:3916  _authorizeUpgrade(newImplementation) */\n      tag_460\n        /* \"lib/contracts-upgradeable/proxy/utils/UUPSUpgradeable.sol\":3898:3915  newImplementation */\n      dup3\n        /* \"lib/contracts-upgradeable/proxy/utils/UUPSUpgradeable.sol\":3880:3897  _authorizeUpgrade */\n      tag_420\n        /* \"lib/contracts-upgradeable/proxy/utils/UUPSUpgradeable.sol\":3880:3916  _authorizeUpgrade(newImplementation) */\n      jump\t// in\n    tag_460:\n        /* \"lib/contracts-upgradeable/proxy/utils/UUPSUpgradeable.sol\":3926:3978  _upgradeToAndCallUUPS(newImplementation, data, true) */\n      tag_461\n        /* \"lib/contracts-upgradeable/proxy/utils/UUPSUpgradeable.sol\":3948:3965  newImplementation */\n      dup3\n        /* \"lib/contracts-upgradeable/proxy/utils/UUPSUpgradeable.sol\":3967:3971  data */\n      dup3\n        /* \"lib/contracts-upgradeable/proxy/utils/UUPSUpgradeable.sol\":3973:3977  true */\n      0x01\n        /* \"lib/contracts-upgradeable/proxy/utils/UUPSUpgradeable.sol\":3926:3947  _upgradeToAndCallUUPS */\n      tag_425\n        /* \"lib/contracts-upgradeable/proxy/utils/UUPSUpgradeable.sol\":3926:3978  _upgradeToAndCallUUPS(newImplementation, data, true) */\n      jump\t// in\n    tag_461:\n        /* \"lib/contracts-upgradeable/proxy/utils/UUPSUpgradeable.sol\":3763:3985  function upgradeToAndCall(address newImplementation, bytes memory data) external payable virtual onlyProxy {... */\n      pop\n      pop\n      jump\t// out\n        /* \"lib/contracts-upgradeable/proxy/utils/UUPSUpgradeable.sol\":3006:3137  function proxiableUUID() external view virtual override notDelegated returns (bytes32) {... */\n    tag_195:\n        /* \"lib/contracts-upgradeable/proxy/utils/UUPSUpgradeable.sol\":3084:3091  bytes32 */\n      0x00\n        /* \"lib/contracts-upgradeable/proxy/utils/UUPSUpgradeable.sol\":2324:2328  this */\n      address\n      sub(shl(0xa0, 0x01), 0x01)\n        /* \"lib/contracts-upgradeable/proxy/utils/UUPSUpgradeable.sol\":2333:2339  __self */\n      immutable(\"0x90a0a53a674dda23f50c6d7df8f61e9f3e3cf11a0ea21d6964915bb3c7f9b219\")\n        /* \"lib/contracts-upgradeable/proxy/utils/UUPSUpgradeable.sol\":2316:2339  address(this) == __self */\n      and\n      eq\n        /* \"lib/contracts-upgradeable/proxy/utils/UUPSUpgradeable.sol\":2308:2400  require(address(this) == __self, \"UUPSUpgradeable: must not be called through delegatecall\") */\n      tag_463\n      jumpi\n      mload(0x40)\n      shl(0xe5, 0x461bcd)\n      dup2\n      mstore\n        /* \"#utility.yul\":9845:9847   */\n      0x20\n        /* \"lib/contracts-upgradeable/proxy/utils/UUPSUpgradeable.sol\":2308:2400  require(address(this) == __self, \"UUPSUpgradeable: must not be called through delegatecall\") */\n      0x04\n      dup3\n      add\n        /* \"#utility.yul\":9827:9848   */\n      mstore\n        /* \"#utility.yul\":9884:9886   */\n      0x38\n        /* \"#utility.yul\":9864:9882   */\n      0x24\n      dup3\n      add\n        /* \"#utility.yul\":9857:9887   */\n      mstore\n        /* \"#utility.yul\":9923:9957   */\n      0x555550535570677261646561626c653a206d757374206e6f742062652063616c\n        /* \"#utility.yul\":9903:9921   */\n      0x44\n      dup3\n      add\n        /* \"#utility.yul\":9896:9958   */\n      mstore\n      shl(0x42, 0x1b1959081d1a1c9bdd59da0819195b1959d85d1958d85b1b)\n        /* \"#utility.yul\":9974:9992   */\n      0x64\n      dup3\n      add\n        /* \"#utility.yul\":9967:10021   */\n      mstore\n        /* \"#utility.yul\":10038:10057   */\n      0x84\n      add\n        /* \"lib/contracts-upgradeable/proxy/utils/UUPSUpgradeable.sol\":2308:2400  require(address(this) == __self, \"UUPSUpgradeable: must not be called through delegatecall\") */\n      tag_355\n        /* \"#utility.yul\":9643:10063   */\n      jump\n        /* \"lib/contracts-upgradeable/proxy/utils/UUPSUpgradeable.sol\":2308:2400  require(address(this) == __self, \"UUPSUpgradeable: must not be called through delegatecall\") */\n    tag_463:\n      pop\n      0x00\n      dup1\n      mload\n      0x20\n      data_75b20eef8615de99c108b05f0dbda081c91897128caa336d75dffb97c4132b4d\n      dup4\n      codecopy\n      dup2\n      mload\n      swap2\n      mstore\n        /* \"lib/contracts-upgradeable/proxy/utils/UUPSUpgradeable.sol\":3006:3137  function proxiableUUID() external view virtual override notDelegated returns (bytes32) {... */\n      swap1\n      jump\t// out\n        /* \"contracts/ACConfig.sol\":4973:5109  function airdropMachine(address user,uint256 amount)external onlyAdmin{... */\n    tag_205:\n        /* \"contracts/ACConfig.sol\":2047:2057  msg.sender */\n      caller\n        /* \"contracts/ACConfig.sol\":2041:2058  admin[msg.sender] */\n      0x00\n      swap1\n      dup2\n      mstore\n        /* \"contracts/ACConfig.sol\":2041:2046  admin */\n      0xe5\n        /* \"contracts/ACConfig.sol\":2041:2058  admin[msg.sender] */\n      0x20\n      mstore\n      0x40\n      swap1\n      keccak256\n      sload\n      0xff\n      and\n      dup1\n        /* \"contracts/ACConfig.sol\":2041:2083  admin[msg.sender] || msg.sender == owner() */\n      tag_468\n      jumpi\n      pop\n        /* \"contracts/ACConfig.sol\":2076:2083  owner() */\n      tag_469\n        /* \"contracts/ACConfig.sol\":2076:2081  owner */\n      tag_269\n        /* \"contracts/ACConfig.sol\":2076:2083  owner() */\n      jump\t// in\n    tag_469:\n      sub(shl(0xa0, 0x01), 0x01)\n        /* \"contracts/ACConfig.sol\":2062:2083  msg.sender == owner() */\n      and\n        /* \"contracts/ACConfig.sol\":2062:2072  msg.sender */\n      caller\n      sub(shl(0xa0, 0x01), 0x01)\n        /* \"contracts/ACConfig.sol\":2062:2083  msg.sender == owner() */\n      and\n      eq\n        /* \"contracts/ACConfig.sol\":2041:2083  admin[msg.sender] || msg.sender == owner() */\n    tag_468:\n        /* \"contracts/ACConfig.sol\":2033:2096  require(admin[msg.sender] || msg.sender == owner(),'not admin') */\n      tag_470\n      jumpi\n      mload(0x40)\n      shl(0xe5, 0x461bcd)\n      dup2\n      mstore\n      0x04\n      add\n      tag_355\n      swap1\n      tag_356\n      jump\t// in\n    tag_470:\n        /* \"contracts/ACConfig.sol\":5064:5071  mmStore */\n      sload(0xcc)\n        /* \"contracts/ACConfig.sol\":5054:5101  IMMStore2(mmStore).airdropMachine(user, amount) */\n      mload(0x40)\n      shl(0xe1, 0x2bb14fc1)\n      dup2\n      mstore\n      sub(shl(0xa0, 0x01), 0x01)\n        /* \"#utility.yul\":10260:10292   */\n      dup5\n      dup2\n      and\n        /* \"contracts/ACConfig.sol\":5054:5101  IMMStore2(mmStore).airdropMachine(user, amount) */\n      0x04\n      dup4\n      add\n        /* \"#utility.yul\":10242:10293   */\n      mstore\n        /* \"#utility.yul\":10309:10327   */\n      0x24\n      dup3\n      add\n        /* \"#utility.yul\":10302:10336   */\n      dup5\n      swap1\n      mstore\n        /* \"contracts/ACConfig.sol\":5064:5071  mmStore */\n      swap1\n      swap2\n      and\n      swap1\n        /* \"contracts/ACConfig.sol\":5054:5087  IMMStore2(mmStore).airdropMachine */\n      0x57629f82\n      swap1\n        /* \"#utility.yul\":10215:10233   */\n      0x44\n      add\n        /* \"contracts/ACConfig.sol\":5054:5101  IMMStore2(mmStore).airdropMachine(user, amount) */\n      0x00\n      mload(0x40)\n      dup1\n      dup4\n      sub\n      dup2\n      0x00\n      dup8\n      dup1\n      extcodesize\n      iszero\n      dup1\n      iszero\n      tag_475\n      jumpi\n      0x00\n      dup1\n      revert\n    tag_475:\n      pop\n      gas\n      call\n      iszero\n      dup1\n      iszero\n      tag_477\n      jumpi\n      returndatasize\n      0x00\n      dup1\n      returndatacopy\n      revert(0x00, returndatasize)\n    tag_477:\n      pop\n      pop\n      pop\n      pop\n        /* \"contracts/ACConfig.sol\":4973:5109  function airdropMachine(address user,uint256 amount)external onlyAdmin{... */\n      pop\n      pop\n      jump\t// out\n        /* \"contracts/ACConfig.sol\":7618:7730  function changeTechAddress(address _techAddress) external onlyAdmin{... */\n    tag_217:\n        /* \"contracts/ACConfig.sol\":2047:2057  msg.sender */\n      caller\n        /* \"contracts/ACConfig.sol\":2041:2058  admin[msg.sender] */\n      0x00\n      swap1\n      dup2\n      mstore\n        /* \"contracts/ACConfig.sol\":2041:2046  admin */\n      0xe5\n        /* \"contracts/ACConfig.sol\":2041:2058  admin[msg.sender] */\n      0x20\n      mstore\n      0x40\n      swap1\n      keccak256\n      sload\n      0xff\n      and\n      dup1\n        /* \"contracts/ACConfig.sol\":2041:2083  admin[msg.sender] || msg.sender == owner() */\n      tag_479\n      jumpi\n      pop\n        /* \"contracts/ACConfig.sol\":2076:2083  owner() */\n      tag_480\n        /* \"contracts/ACConfig.sol\":2076:2081  owner */\n      tag_269\n        /* \"contracts/ACConfig.sol\":2076:2083  owner() */\n      jump\t// in\n    tag_480:\n      sub(shl(0xa0, 0x01), 0x01)\n        /* \"contracts/ACConfig.sol\":2062:2083  msg.sender == owner() */\n      and\n        /* \"contracts/ACConfig.sol\":2062:2072  msg.sender */\n      caller\n      sub(shl(0xa0, 0x01), 0x01)\n        /* \"contracts/ACConfig.sol\":2062:2083  msg.sender == owner() */\n      and\n      eq\n        /* \"contracts/ACConfig.sol\":2041:2083  admin[msg.sender] || msg.sender == owner() */\n    tag_479:\n        /* \"contracts/ACConfig.sol\":2033:2096  require(admin[msg.sender] || msg.sender == owner(),'not admin') */\n      tag_481\n      jumpi\n      mload(0x40)\n      shl(0xe5, 0x461bcd)\n      dup2\n      mstore\n      0x04\n      add\n      tag_355\n      swap1\n      tag_356\n      jump\t// in\n    tag_481:\n        /* \"contracts/ACConfig.sol\":7696:7707  techAddress */\n      0xd4\n        /* \"contracts/ACConfig.sol\":7696:7722  techAddress = _techAddress */\n      dup1\n      sload\n      not(sub(shl(0xa0, 0x01), 0x01))\n      and\n      sub(shl(0xa0, 0x01), 0x01)\n      swap3\n      swap1\n      swap3\n      and\n      swap2\n      swap1\n      swap2\n      or\n      swap1\n      sstore\n        /* \"contracts/ACConfig.sol\":7618:7730  function changeTechAddress(address _techAddress) external onlyAdmin{... */\n      jump\t// out\n        /* \"contracts/ACConfig.sol\":6133:6276  function changeShareHolderMinLimit(uint256 _shareHolderMinLimit)external onlyAdmin{... */\n    tag_221:\n        /* \"contracts/ACConfig.sol\":2047:2057  msg.sender */\n      caller\n        /* \"contracts/ACConfig.sol\":2041:2058  admin[msg.sender] */\n      0x00\n      swap1\n      dup2\n      mstore\n        /* \"contracts/ACConfig.sol\":2041:2046  admin */\n      0xe5\n        /* \"contracts/ACConfig.sol\":2041:2058  admin[msg.sender] */\n      0x20\n      mstore\n      0x40\n      swap1\n      keccak256\n      sload\n      0xff\n      and\n      dup1\n        /* \"contracts/ACConfig.sol\":2041:2083  admin[msg.sender] || msg.sender == owner() */\n      tag_485\n      jumpi\n      pop\n        /* \"contracts/ACConfig.sol\":2076:2083  owner() */\n      tag_486\n        /* \"contracts/ACConfig.sol\":2076:2081  owner */\n      tag_269\n        /* \"contracts/ACConfig.sol\":2076:2083  owner() */\n      jump\t// in\n    tag_486:\n      sub(shl(0xa0, 0x01), 0x01)\n        /* \"contracts/ACConfig.sol\":2062:2083  msg.sender == owner() */\n      and\n        /* \"contracts/ACConfig.sol\":2062:2072  msg.sender */\n      caller\n      sub(shl(0xa0, 0x01), 0x01)\n        /* \"contracts/ACConfig.sol\":2062:2083  msg.sender == owner() */\n      and\n      eq\n        /* \"contracts/ACConfig.sol\":2041:2083  admin[msg.sender] || msg.sender == owner() */\n    tag_485:\n        /* \"contracts/ACConfig.sol\":2033:2096  require(admin[msg.sender] || msg.sender == owner(),'not admin') */\n      tag_487\n      jumpi\n      mload(0x40)\n      shl(0xe5, 0x461bcd)\n      dup2\n      mstore\n      0x04\n      add\n      tag_355\n      swap1\n      tag_356\n      jump\t// in\n    tag_487:\n        /* \"contracts/ACConfig.sol\":6226:6245  shareHolderMinLimit */\n      0xde\n        /* \"contracts/ACConfig.sol\":6226:6268  shareHolderMinLimit = _shareHolderMinLimit */\n      sstore\n        /* \"contracts/ACConfig.sol\":6133:6276  function changeShareHolderMinLimit(uint256 _shareHolderMinLimit)external onlyAdmin{... */\n      jump\t// out\n        /* \"contracts/ACConfig.sol\":4469:4752  function getUserLevels()external view returns(address[] memory users,uint256[] memory levels){... */\n    tag_228:\n        /* \"contracts/ACConfig.sol\":4515:4537  address[] memory users */\n      0x60\n        /* \"contracts/ACConfig.sol\":4538:4561  uint256[] memory levels */\n      dup1\n        /* \"contracts/ACConfig.sol\":4581:4588  userArr */\n      0xe1\n        /* \"contracts/ACConfig.sol\":4573:4588  users = userArr */\n      dup1\n      sload\n      dup1\n      0x20\n      mul\n      0x20\n      add\n      mload(0x40)\n      swap1\n      dup2\n      add\n      0x40\n      mstore\n      dup1\n      swap3\n      swap2\n      swap1\n      dup2\n      dup2\n      mstore\n      0x20\n      add\n      dup3\n      dup1\n      sload\n      dup1\n      iszero\n      tag_491\n      jumpi\n      0x20\n      mul\n      dup3\n      add\n      swap2\n      swap1\n      0x00\n      mstore\n      keccak256(0x00, 0x20)\n      swap1\n    tag_492:\n      dup2\n      sload\n      sub(shl(0xa0, 0x01), 0x01)\n      and\n      dup2\n      mstore\n      0x01\n      swap1\n      swap2\n      add\n      swap1\n      0x20\n      add\n      dup1\n      dup4\n      gt\n      tag_492\n      jumpi\n    tag_491:\n      pop\n      pop\n      pop\n      pop\n      pop\n      swap2\n      pop\n        /* \"contracts/ACConfig.sol\":4622:4627  users */\n      dup2\n        /* \"contracts/ACConfig.sol\":4622:4634  users.length */\n      mload\n      sub(shl(0x40, 0x01), 0x01)\n        /* \"contracts/ACConfig.sol\":4608:4635  new uint256[](users.length) */\n      dup2\n      gt\n      iszero\n      tag_494\n      jumpi\n      tag_494\n      tag_361\n      jump\t// in\n    tag_494:\n      mload(0x40)\n      swap1\n      dup1\n      dup3\n      mstore\n      dup1\n      0x20\n      mul\n      0x20\n      add\n      dup3\n      add\n      0x40\n      mstore\n      dup1\n      iszero\n      tag_495\n      jumpi\n      dup2\n      0x20\n      add\n      0x20\n      dup3\n      mul\n      dup1\n      calldatasize\n      dup4\n      calldatacopy\n      add\n      swap1\n      pop\n    tag_495:\n      pop\n        /* \"contracts/ACConfig.sol\":4599:4635  levels = new uint256[](users.length) */\n      swap1\n      pop\n        /* \"contracts/ACConfig.sol\":4650:4659  uint256 i */\n      0x00\n        /* \"contracts/ACConfig.sol\":4646:4745  for(uint256 i = 0; i < users.length; i++){... */\n    tag_496:\n        /* \"contracts/ACConfig.sol\":4669:4674  users */\n      dup3\n        /* \"contracts/ACConfig.sol\":4669:4681  users.length */\n      mload\n        /* \"contracts/ACConfig.sol\":4665:4666  i */\n      dup2\n        /* \"contracts/ACConfig.sol\":4665:4681  i < users.length */\n      lt\n        /* \"contracts/ACConfig.sol\":4646:4745  for(uint256 i = 0; i < users.length; i++){... */\n      iszero\n      tag_497\n      jumpi\n        /* \"contracts/ACConfig.sol\":4714:4723  userLevel */\n      0xe0\n        /* \"contracts/ACConfig.sol\":4714:4733  userLevel[users[i]] */\n      0x00\n        /* \"contracts/ACConfig.sol\":4724:4729  users */\n      dup5\n        /* \"contracts/ACConfig.sol\":4730:4731  i */\n      dup4\n        /* \"contracts/ACConfig.sol\":4724:4732  users[i] */\n      dup2\n      mload\n      dup2\n      lt\n      tag_500\n      jumpi\n      tag_500\n      tag_365\n      jump\t// in\n    tag_500:\n      0x20\n      mul\n      0x20\n      add\n      add\n      mload\n      sub(shl(0xa0, 0x01), 0x01)\n        /* \"contracts/ACConfig.sol\":4714:4733  userLevel[users[i]] */\n      and\n      sub(shl(0xa0, 0x01), 0x01)\n      and\n      dup2\n      mstore\n      0x20\n      add\n      swap1\n      dup2\n      mstore\n      0x20\n      add\n      0x00\n      keccak256\n      sload\n        /* \"contracts/ACConfig.sol\":4702:4708  levels */\n      dup3\n        /* \"contracts/ACConfig.sol\":4709:4710  i */\n      dup3\n        /* \"contracts/ACConfig.sol\":4702:4711  levels[i] */\n      dup2\n      mload\n      dup2\n      lt\n      tag_502\n      jumpi\n      tag_502\n      tag_365\n      jump\t// in\n    tag_502:\n      0x20\n      swap1\n      dup2\n      mul\n      swap2\n      swap1\n      swap2\n      add\n      add\n        /* \"contracts/ACConfig.sol\":4702:4733  levels[i] = userLevel[users[i]] */\n      mstore\n        /* \"contracts/ACConfig.sol\":4683:4686  i++ */\n      dup1\n      tag_503\n      dup2\n      tag_443\n      jump\t// in\n    tag_503:\n      swap2\n      pop\n      pop\n        /* \"contracts/ACConfig.sol\":4646:4745  for(uint256 i = 0; i < users.length; i++){... */\n      jump(tag_496)\n    tag_497:\n      pop\n        /* \"contracts/ACConfig.sol\":4469:4752  function getUserLevels()external view returns(address[] memory users,uint256[] memory levels){... */\n      swap1\n      swap2\n      jump\t// out\n        /* \"lib/contracts-upgradeable/access/OwnableUpgradeable.sol\":2071:2172  function renounceOwnership() public virtual onlyOwner {... */\n    tag_233:\n        /* \"lib/contracts-upgradeable/access/OwnableUpgradeable.sol\":1334:1347  _checkOwner() */\n      tag_505\n        /* \"lib/contracts-upgradeable/access/OwnableUpgradeable.sol\":1334:1345  _checkOwner */\n      tag_349\n        /* \"lib/contracts-upgradeable/access/OwnableUpgradeable.sol\":1334:1347  _checkOwner() */\n      jump\t// in\n    tag_505:\n        /* \"lib/contracts-upgradeable/access/OwnableUpgradeable.sol\":2135:2165  _transferOwnership(address(0)) */\n      tag_507\n        /* \"lib/contracts-upgradeable/access/OwnableUpgradeable.sol\":2162:2163  0 */\n      0x00\n        /* \"lib/contracts-upgradeable/access/OwnableUpgradeable.sol\":2135:2153  _transferOwnership */\n      tag_508\n        /* \"lib/contracts-upgradeable/access/OwnableUpgradeable.sol\":2135:2165  _transferOwnership(address(0)) */\n      jump\t// in\n    tag_507:\n        /* \"lib/contracts-upgradeable/access/OwnableUpgradeable.sol\":2071:2172  function renounceOwnership() public virtual onlyOwner {... */\n      jump\t// out\n        /* \"contracts/ACConfig.sol\":8266:8382  function changePlatformRate(uint256 _platformRate)external onlyAdmin {... */\n    tag_237:\n        /* \"contracts/ACConfig.sol\":2047:2057  msg.sender */\n      caller\n        /* \"contracts/ACConfig.sol\":2041:2058  admin[msg.sender] */\n      0x00\n      swap1\n      dup2\n      mstore\n        /* \"contracts/ACConfig.sol\":2041:2046  admin */\n      0xe5\n        /* \"contracts/ACConfig.sol\":2041:2058  admin[msg.sender] */\n      0x20\n      mstore\n      0x40\n      swap1\n      keccak256\n      sload\n      0xff\n      and\n      dup1\n        /* \"contracts/ACConfig.sol\":2041:2083  admin[msg.sender] || msg.sender == owner() */\n      tag_510\n      jumpi\n      pop\n        /* \"contracts/ACConfig.sol\":2076:2083  owner() */\n      tag_511\n        /* \"contracts/ACConfig.sol\":2076:2081  owner */\n      tag_269\n        /* \"contracts/ACConfig.sol\":2076:2083  owner() */\n      jump\t// in\n    tag_511:\n      sub(shl(0xa0, 0x01), 0x01)\n        /* \"contracts/ACConfig.sol\":2062:2083  msg.sender == owner() */\n      and\n        /* \"contracts/ACConfig.sol\":2062:2072  msg.sender */\n      caller\n      sub(shl(0xa0, 0x01), 0x01)\n        /* \"contracts/ACConfig.sol\":2062:2083  msg.sender == owner() */\n      and\n      eq\n        /* \"contracts/ACConfig.sol\":2041:2083  admin[msg.sender] || msg.sender == owner() */\n    tag_510:\n        /* \"contracts/ACConfig.sol\":2033:2096  require(admin[msg.sender] || msg.sender == owner(),'not admin') */\n      tag_512\n      jumpi\n      mload(0x40)\n      shl(0xe5, 0x461bcd)\n      dup2\n      mstore\n      0x04\n      add\n      tag_355\n      swap1\n      tag_356\n      jump\t// in\n    tag_512:\n        /* \"contracts/ACConfig.sol\":8346:8358  platformRate */\n      0xd1\n        /* \"contracts/ACConfig.sol\":8346:8374  platformRate = _platformRate */\n      sstore\n        /* \"contracts/ACConfig.sol\":8266:8382  function changePlatformRate(uint256 _platformRate)external onlyAdmin {... */\n      jump\t// out\n        /* \"contracts/ACConfig.sol\":5568:5703  function changeMachineExpireTime(uint256 _machineExpireTime)external onlyAdmin{... */\n    tag_241:\n        /* \"contracts/ACConfig.sol\":2047:2057  msg.sender */\n      caller\n        /* \"contracts/ACConfig.sol\":2041:2058  admin[msg.sender] */\n      0x00\n      swap1\n      dup2\n      mstore\n        /* \"contracts/ACConfig.sol\":2041:2046  admin */\n      0xe5\n        /* \"contracts/ACConfig.sol\":2041:2058  admin[msg.sender] */\n      0x20\n      mstore\n      0x40\n      swap1\n      keccak256\n      sload\n      0xff\n      and\n      dup1\n        /* \"contracts/ACConfig.sol\":2041:2083  admin[msg.sender] || msg.sender == owner() */\n      tag_516\n      jumpi\n      pop\n        /* \"contracts/ACConfig.sol\":2076:2083  owner() */\n      tag_517\n        /* \"contracts/ACConfig.sol\":2076:2081  owner */\n      tag_269\n        /* \"contracts/ACConfig.sol\":2076:2083  owner() */\n      jump\t// in\n    tag_517:\n      sub(shl(0xa0, 0x01), 0x01)\n        /* \"contracts/ACConfig.sol\":2062:2083  msg.sender == owner() */\n      and\n        /* \"contracts/ACConfig.sol\":2062:2072  msg.sender */\n      caller\n      sub(shl(0xa0, 0x01), 0x01)\n        /* \"contracts/ACConfig.sol\":2062:2083  msg.sender == owner() */\n      and\n      eq\n        /* \"contracts/ACConfig.sol\":2041:2083  admin[msg.sender] || msg.sender == owner() */\n    tag_516:\n        /* \"contracts/ACConfig.sol\":2033:2096  require(admin[msg.sender] || msg.sender == owner(),'not admin') */\n      tag_518\n      jumpi\n      mload(0x40)\n      shl(0xe5, 0x461bcd)\n      dup2\n      mstore\n      0x04\n      add\n      tag_355\n      swap1\n      tag_356\n      jump\t// in\n    tag_518:\n        /* \"contracts/ACConfig.sol\":5657:5674  machineExpireTime */\n      0xe2\n        /* \"contracts/ACConfig.sol\":5657:5695  machineExpireTime = _machineExpireTime */\n      sstore\n        /* \"contracts/ACConfig.sol\":5568:5703  function changeMachineExpireTime(uint256 _machineExpireTime)external onlyAdmin{... */\n      jump\t// out\n        /* \"contracts/ACConfig.sol\":7322:7458  function changeMaxComputingPower(uint256 _maxComputingPower) external onlyAdmin{... */\n    tag_245:\n        /* \"contracts/ACConfig.sol\":2047:2057  msg.sender */\n      caller\n        /* \"contracts/ACConfig.sol\":2041:2058  admin[msg.sender] */\n      0x00\n      swap1\n      dup2\n      mstore\n        /* \"contracts/ACConfig.sol\":2041:2046  admin */\n      0xe5\n        /* \"contracts/ACConfig.sol\":2041:2058  admin[msg.sender] */\n      0x20\n      mstore\n      0x40\n      swap1\n      keccak256\n      sload\n      0xff\n      and\n      dup1\n        /* \"contracts/ACConfig.sol\":2041:2083  admin[msg.sender] || msg.sender == owner() */\n      tag_522\n      jumpi\n      pop\n        /* \"contracts/ACConfig.sol\":2076:2083  owner() */\n      tag_523\n        /* \"contracts/ACConfig.sol\":2076:2081  owner */\n      tag_269\n        /* \"contracts/ACConfig.sol\":2076:2083  owner() */\n      jump\t// in\n    tag_523:\n      sub(shl(0xa0, 0x01), 0x01)\n        /* \"contracts/ACConfig.sol\":2062:2083  msg.sender == owner() */\n      and\n        /* \"contracts/ACConfig.sol\":2062:2072  msg.sender */\n      caller\n      sub(shl(0xa0, 0x01), 0x01)\n        /* \"contracts/ACConfig.sol\":2062:2083  msg.sender == owner() */\n      and\n      eq\n        /* \"contracts/ACConfig.sol\":2041:2083  admin[msg.sender] || msg.sender == owner() */\n    tag_522:\n        /* \"contracts/ACConfig.sol\":2033:2096  require(admin[msg.sender] || msg.sender == owner(),'not admin') */\n      tag_524\n      jumpi\n      mload(0x40)\n      shl(0xe5, 0x461bcd)\n      dup2\n      mstore\n      0x04\n      add\n      tag_355\n      swap1\n      tag_356\n      jump\t// in\n    tag_524:\n        /* \"contracts/ACConfig.sol\":7412:7429  maxComputingPower */\n      0xe6\n        /* \"contracts/ACConfig.sol\":7412:7450  maxComputingPower = _maxComputingPower */\n      sstore\n        /* \"contracts/ACConfig.sol\":7322:7458  function changeMaxComputingPower(uint256 _maxComputingPower) external onlyAdmin{... */\n      jump\t// out\n        /* \"contracts/ACConfig.sol\":5711:5830  function changeClaimInterval(uint256 _claimInterval)external onlyAdmin{... */\n    tag_249:\n        /* \"contracts/ACConfig.sol\":2047:2057  msg.sender */\n      caller\n        /* \"contracts/ACConfig.sol\":2041:2058  admin[msg.sender] */\n      0x00\n      swap1\n      dup2\n      mstore\n        /* \"contracts/ACConfig.sol\":2041:2046  admin */\n      0xe5\n        /* \"contracts/ACConfig.sol\":2041:2058  admin[msg.sender] */\n      0x20\n      mstore\n      0x40\n      swap1\n      keccak256\n      sload\n      0xff\n      and\n      dup1\n        /* \"contracts/ACConfig.sol\":2041:2083  admin[msg.sender] || msg.sender == owner() */\n      tag_528\n      jumpi\n      pop\n        /* \"contracts/ACConfig.sol\":2076:2083  owner() */\n      tag_529\n        /* \"contracts/ACConfig.sol\":2076:2081  owner */\n      tag_269\n        /* \"contracts/ACConfig.sol\":2076:2083  owner() */\n      jump\t// in\n    tag_529:\n      sub(shl(0xa0, 0x01), 0x01)\n        /* \"contracts/ACConfig.sol\":2062:2083  msg.sender == owner() */\n      and\n        /* \"contracts/ACConfig.sol\":2062:2072  msg.sender */\n      caller\n      sub(shl(0xa0, 0x01), 0x01)\n        /* \"contracts/ACConfig.sol\":2062:2083  msg.sender == owner() */\n      and\n      eq\n        /* \"contracts/ACConfig.sol\":2041:2083  admin[msg.sender] || msg.sender == owner() */\n    tag_528:\n        /* \"contracts/ACConfig.sol\":2033:2096  require(admin[msg.sender] || msg.sender == owner(),'not admin') */\n      tag_530\n      jumpi\n      mload(0x40)\n      shl(0xe5, 0x461bcd)\n      dup2\n      mstore\n      0x04\n      add\n      tag_355\n      swap1\n      tag_356\n      jump\t// in\n    tag_530:\n        /* \"contracts/ACConfig.sol\":5792:5805  claimInterval */\n      0xe3\n        /* \"contracts/ACConfig.sol\":5792:5822  claimInterval = _claimInterval */\n      sstore\n        /* \"contracts/ACConfig.sol\":5711:5830  function changeClaimInterval(uint256 _claimInterval)external onlyAdmin{... */\n      jump\t// out\n        /* \"contracts/ACConfig.sol\":5268:5556  function setConfig(address _usdt,address _mv,address _acb,address _minePool,address _mmStore,address _acbPair)external onlyAdmin{... */\n    tag_254:\n        /* \"contracts/ACConfig.sol\":2047:2057  msg.sender */\n      caller\n        /* \"contracts/ACConfig.sol\":2041:2058  admin[msg.sender] */\n      0x00\n      swap1\n      dup2\n      mstore\n        /* \"contracts/ACConfig.sol\":2041:2046  admin */\n      0xe5\n        /* \"contracts/ACConfig.sol\":2041:2058  admin[msg.sender] */\n      0x20\n      mstore\n      0x40\n      swap1\n      keccak256\n      sload\n      0xff\n      and\n      dup1\n        /* \"contracts/ACConfig.sol\":2041:2083  admin[msg.sender] || msg.sender == owner() */\n      tag_534\n      jumpi\n      pop\n        /* \"contracts/ACConfig.sol\":2076:2083  owner() */\n      tag_535\n        /* \"contracts/ACConfig.sol\":2076:2081  owner */\n      tag_269\n        /* \"contracts/ACConfig.sol\":2076:2083  owner() */\n      jump\t// in\n    tag_535:\n      sub(shl(0xa0, 0x01), 0x01)\n        /* \"contracts/ACConfig.sol\":2062:2083  msg.sender == owner() */\n      and\n        /* \"contracts/ACConfig.sol\":2062:2072  msg.sender */\n      caller\n      sub(shl(0xa0, 0x01), 0x01)\n        /* \"contracts/ACConfig.sol\":2062:2083  msg.sender == owner() */\n      and\n      eq\n        /* \"contracts/ACConfig.sol\":2041:2083  admin[msg.sender] || msg.sender == owner() */\n    tag_534:\n        /* \"contracts/ACConfig.sol\":2033:2096  require(admin[msg.sender] || msg.sender == owner(),'not admin') */\n      tag_536\n      jumpi\n      mload(0x40)\n      shl(0xe5, 0x461bcd)\n      dup2\n      mstore\n      0x04\n      add\n      tag_355\n      swap1\n      tag_356\n      jump\t// in\n    tag_536:\n        /* \"contracts/ACConfig.sol\":5407:5411  usdt */\n      0xc9\n        /* \"contracts/ACConfig.sol\":5407:5419  usdt = _usdt */\n      dup1\n      sload\n      not(sub(shl(0xa0, 0x01), 0x01))\n      swap1\n      dup2\n      and\n      sub(shl(0xa0, 0x01), 0x01)\n      swap9\n      dup10\n      and\n      or\n      swap1\n      swap2\n      sstore\n        /* \"contracts/ACConfig.sol\":5430:5432  mv */\n      0xcb\n        /* \"contracts/ACConfig.sol\":5430:5438  mv = _mv */\n      dup1\n      sload\n      dup3\n      and\n      swap7\n      dup9\n      and\n      swap7\n      swap1\n      swap7\n      or\n      swap1\n      swap6\n      sstore\n        /* \"contracts/ACConfig.sol\":5449:5452  acb */\n      0xca\n        /* \"contracts/ACConfig.sol\":5449:5459  acb = _acb */\n      dup1\n      sload\n      dup7\n      and\n      swap5\n      dup8\n      and\n      swap5\n      swap1\n      swap5\n      or\n      swap1\n      swap4\n      sstore\n        /* \"contracts/ACConfig.sol\":5470:5478  minePool */\n      0xcd\n        /* \"contracts/ACConfig.sol\":5470:5490  minePool = _minePool */\n      dup1\n      sload\n      dup6\n      and\n      swap3\n      dup7\n      and\n      swap3\n      swap1\n      swap3\n      or\n      swap1\n      swap2\n      sstore\n        /* \"contracts/ACConfig.sol\":5501:5508  mmStore */\n      0xcc\n        /* \"contracts/ACConfig.sol\":5501:5519  mmStore = _mmStore */\n      dup1\n      sload\n      dup5\n      and\n      swap2\n      dup6\n      and\n      swap2\n      swap1\n      swap2\n      or\n      swap1\n      sstore\n        /* \"contracts/ACConfig.sol\":5530:5537  acbPair */\n      0xce\n        /* \"contracts/ACConfig.sol\":5530:5548  acbPair = _acbPair */\n      dup1\n      sload\n      swap1\n      swap3\n      and\n      swap3\n      and\n      swap2\n      swap1\n      swap2\n      or\n      swap1\n      sstore\n        /* \"contracts/ACConfig.sol\":5268:5556  function setConfig(address _usdt,address _mv,address _acb,address _minePool,address _mmStore,address _acbPair)external onlyAdmin{... */\n      jump\t// out\n        /* \"contracts/ACConfig.sol\":6725:6848  function changeTeamRewardRate(uint256 _teamRewardRate)external onlyAdmin{... */\n    tag_262:\n        /* \"contracts/ACConfig.sol\":2047:2057  msg.sender */\n      caller\n        /* \"contracts/ACConfig.sol\":2041:2058  admin[msg.sender] */\n      0x00\n      swap1\n      dup2\n      mstore\n        /* \"contracts/ACConfig.sol\":2041:2046  admin */\n      0xe5\n        /* \"contracts/ACConfig.sol\":2041:2058  admin[msg.sender] */\n      0x20\n      mstore\n      0x40\n      swap1\n      keccak256\n      sload\n      0xff\n      and\n      dup1\n        /* \"contracts/ACConfig.sol\":2041:2083  admin[msg.sender] || msg.sender == owner() */\n      tag_540\n      jumpi\n      pop\n        /* \"contracts/ACConfig.sol\":2076:2083  owner() */\n      tag_541\n        /* \"contracts/ACConfig.sol\":2076:2081  owner */\n      tag_269\n        /* \"contracts/ACConfig.sol\":2076:2083  owner() */\n      jump\t// in\n    tag_541:\n      sub(shl(0xa0, 0x01), 0x01)\n        /* \"contracts/ACConfig.sol\":2062:2083  msg.sender == owner() */\n      and\n        /* \"contracts/ACConfig.sol\":2062:2072  msg.sender */\n      caller\n      sub(shl(0xa0, 0x01), 0x01)\n        /* \"contracts/ACConfig.sol\":2062:2083  msg.sender == owner() */\n      and\n      eq\n        /* \"contracts/ACConfig.sol\":2041:2083  admin[msg.sender] || msg.sender == owner() */\n    tag_540:\n        /* \"contracts/ACConfig.sol\":2033:2096  require(admin[msg.sender] || msg.sender == owner(),'not admin') */\n      tag_542\n      jumpi\n      mload(0x40)\n      shl(0xe5, 0x461bcd)\n      dup2\n      mstore\n      0x04\n      add\n      tag_355\n      swap1\n      tag_356\n      jump\t// in\n    tag_542:\n        /* \"contracts/ACConfig.sol\":6808:6822  teamRewardRate */\n      0xda\n        /* \"contracts/ACConfig.sol\":6808:6840  teamRewardRate = _teamRewardRate */\n      sstore\n        /* \"contracts/ACConfig.sol\":6725:6848  function changeTeamRewardRate(uint256 _teamRewardRate)external onlyAdmin{... */\n      jump\t// out\n        /* \"lib/contracts-upgradeable/access/OwnableUpgradeable.sol\":1441:1526  function owner() public view virtual returns (address) {... */\n    tag_269:\n        /* \"lib/contracts-upgradeable/access/OwnableUpgradeable.sol\":1513:1519  _owner */\n      and(sub(shl(0xa0, 0x01), 0x01), sload(0x33))\n      swap1\n        /* \"lib/contracts-upgradeable/access/OwnableUpgradeable.sol\":1441:1526  function owner() public view virtual returns (address) {... */\n      jump\t// out\n        /* \"contracts/ACConfig.sol\":3569:3884  function getTeamLevel()external view returns(uint256[] memory amounts,uint256[] memory rates){... */\n    tag_285:\n        /* \"contracts/ACConfig.sol\":3683:3699  new uint256[](4) */\n      0x40\n      dup1\n      mload\n        /* \"contracts/ACConfig.sol\":3697:3698  4 */\n      0x04\n        /* \"contracts/ACConfig.sol\":3683:3699  new uint256[](4) */\n      dup1\n      dup3\n      mstore\n      0xa0\n      dup3\n      add\n      swap1\n      swap3\n      mstore\n        /* \"contracts/ACConfig.sol\":3614:3638  uint256[] memory amounts */\n      0x60\n      swap2\n      dup3\n      swap2\n        /* \"contracts/ACConfig.sol\":3683:3699  new uint256[](4) */\n      swap1\n      0x20\n      dup3\n      add\n      0x80\n      dup1\n      calldatasize\n      dup4\n      calldatacopy\n      pop\n      pop\n        /* \"contracts/ACConfig.sol\":3718:3734  new uint256[](4) */\n      0x40\n      dup1\n      mload\n        /* \"contracts/ACConfig.sol\":3732:3733  4 */\n      0x04\n        /* \"contracts/ACConfig.sol\":3718:3734  new uint256[](4) */\n      dup1\n      dup3\n      mstore\n      0xa0\n      dup3\n      add\n      swap1\n      swap3\n      mstore\n        /* \"contracts/ACConfig.sol\":3673:3699  amounts = new uint256[](4) */\n      swap3\n      swap5\n      pop\n        /* \"contracts/ACConfig.sol\":3732:3733  4 */\n      swap1\n      pop\n        /* \"contracts/ACConfig.sol\":3718:3734  new uint256[](4) */\n      0x20\n      dup3\n      add\n      0x80\n      dup1\n      calldatasize\n      dup4\n      calldatacopy\n      add\n      swap1\n      pop\n      pop\n        /* \"contracts/ACConfig.sol\":3710:3734  rates = new uint256[](4) */\n      swap1\n      pop\n        /* \"contracts/ACConfig.sol\":3749:3758  uint256 i */\n      0x00\n        /* \"contracts/ACConfig.sol\":3745:3877  for(uint256 i = 0; i < 4; i++){... */\n    tag_553:\n        /* \"contracts/ACConfig.sol\":3768:3769  4 */\n      0x04\n        /* \"contracts/ACConfig.sol\":3764:3765  i */\n      dup2\n        /* \"contracts/ACConfig.sol\":3764:3769  i < 4 */\n      lt\n        /* \"contracts/ACConfig.sol\":3745:3877  for(uint256 i = 0; i < 4; i++){... */\n      iszero\n      tag_497\n      jumpi\n        /* \"contracts/ACConfig.sol\":3803:3815  teamLevel[i] */\n      0x00\n      dup2\n      dup2\n      mstore\n        /* \"contracts/ACConfig.sol\":3803:3812  teamLevel */\n      0xdf\n        /* \"contracts/ACConfig.sol\":3803:3815  teamLevel[i] */\n      0x20\n      mstore\n      0x40\n      swap1\n      keccak256\n        /* \"contracts/ACConfig.sol\":3803:3822  teamLevel[i].amount */\n      sload\n        /* \"contracts/ACConfig.sol\":3790:3800  amounts[i] */\n      dup4\n      mload\n        /* \"contracts/ACConfig.sol\":3790:3797  amounts */\n      dup5\n      swap1\n        /* \"contracts/ACConfig.sol\":3813:3814  i */\n      dup4\n      swap1\n        /* \"contracts/ACConfig.sol\":3790:3800  amounts[i] */\n      dup2\n      lt\n      tag_557\n      jumpi\n      tag_557\n      tag_365\n      jump\t// in\n    tag_557:\n      0x20\n      mul\n      0x20\n      add\n      add\n        /* \"contracts/ACConfig.sol\":3790:3822  amounts[i] = teamLevel[i].amount */\n      dup2\n      dup2\n      mstore\n      pop\n      pop\n        /* \"contracts/ACConfig.sol\":3848:3857  teamLevel */\n      0xdf\n        /* \"contracts/ACConfig.sol\":3848:3860  teamLevel[i] */\n      0x00\n        /* \"contracts/ACConfig.sol\":3858:3859  i */\n      dup3\n        /* \"contracts/ACConfig.sol\":3848:3860  teamLevel[i] */\n      dup2\n      mstore\n      0x20\n      add\n      swap1\n      dup2\n      mstore\n      0x20\n      add\n      0x00\n      keccak256\n        /* \"contracts/ACConfig.sol\":3848:3865  teamLevel[i].rate */\n      0x01\n      add\n      sload\n        /* \"contracts/ACConfig.sol\":3837:3842  rates */\n      dup3\n        /* \"contracts/ACConfig.sol\":3843:3844  i */\n      dup3\n        /* \"contracts/ACConfig.sol\":3837:3845  rates[i] */\n      dup2\n      mload\n      dup2\n      lt\n      tag_559\n      jumpi\n      tag_559\n      tag_365\n      jump\t// in\n    tag_559:\n      0x20\n      swap1\n      dup2\n      mul\n      swap2\n      swap1\n      swap2\n      add\n      add\n        /* \"contracts/ACConfig.sol\":3837:3865  rates[i] = teamLevel[i].rate */\n      mstore\n        /* \"contracts/ACConfig.sol\":3771:3774  i++ */\n      dup1\n      tag_560\n      dup2\n      tag_443\n      jump\t// in\n    tag_560:\n      swap2\n      pop\n      pop\n        /* \"contracts/ACConfig.sol\":3745:3877  for(uint256 i = 0; i < 4; i++){... */\n      jump(tag_553)\n        /* \"contracts/ACConfig.sol\":2128:3448  function initialize(address _operator)external initializer{... */\n    tag_295:\n        /* \"lib/contracts-upgradeable/proxy/utils/Initializable.sol\":3268:3287  bool isTopLevelCall */\n      0x00\n        /* \"lib/contracts-upgradeable/proxy/utils/Initializable.sol\":3291:3304  _initializing */\n      sload\n      0x0100\n      swap1\n      div\n      0xff\n      and\n        /* \"lib/contracts-upgradeable/proxy/utils/Initializable.sol\":3290:3304  !_initializing */\n      iszero\n      dup1\n        /* \"lib/contracts-upgradeable/proxy/utils/Initializable.sol\":3336:3370  isTopLevelCall && _initialized < 1 */\n      dup1\n      iszero\n      tag_562\n      jumpi\n      pop\n        /* \"lib/contracts-upgradeable/proxy/utils/Initializable.sol\":3354:3366  _initialized */\n      sload(0x00)\n        /* \"lib/contracts-upgradeable/proxy/utils/Initializable.sol\":3369:3370  1 */\n      0x01\n        /* \"lib/contracts-upgradeable/proxy/utils/Initializable.sol\":3354:3366  _initialized */\n      0xff\n      swap1\n      swap2\n      and\n        /* \"lib/contracts-upgradeable/proxy/utils/Initializable.sol\":3354:3370  _initialized < 1 */\n      lt\n        /* \"lib/contracts-upgradeable/proxy/utils/Initializable.sol\":3336:3370  isTopLevelCall && _initialized < 1 */\n    tag_562:\n        /* \"lib/contracts-upgradeable/proxy/utils/Initializable.sol\":3335:3443  (isTopLevelCall && _initialized < 1) || (!AddressUpgradeable.isContract(address(this)) && _initialized == 1) */\n      dup1\n      tag_566\n      jumpi\n      pop\n        /* \"lib/contracts-upgradeable/proxy/utils/Initializable.sol\":3377:3421  AddressUpgradeable.isContract(address(this)) */\n      tag_564\n        /* \"lib/contracts-upgradeable/proxy/utils/Initializable.sol\":3415:3419  this */\n      address\n        /* \"lib/contracts-upgradeable/proxy/utils/Initializable.sol\":3377:3406  AddressUpgradeable.isContract */\n      tag_565\n        /* \"lib/contracts-upgradeable/proxy/utils/Initializable.sol\":3377:3421  AddressUpgradeable.isContract(address(this)) */\n      jump\t// in\n    tag_564:\n        /* \"lib/contracts-upgradeable/proxy/utils/Initializable.sol\":3376:3421  !AddressUpgradeable.isContract(address(this)) */\n      iszero\n        /* \"lib/contracts-upgradeable/proxy/utils/Initializable.sol\":3376:3442  !AddressUpgradeable.isContract(address(this)) && _initialized == 1 */\n      dup1\n      iszero\n      tag_566\n      jumpi\n      pop\n        /* \"lib/contracts-upgradeable/proxy/utils/Initializable.sol\":3425:3437  _initialized */\n      and(0xff, sload(0x00))\n      0x01\n        /* \"lib/contracts-upgradeable/proxy/utils/Initializable.sol\":3425:3442  _initialized == 1 */\n      eq\n        /* \"lib/contracts-upgradeable/proxy/utils/Initializable.sol\":3376:3442  !AddressUpgradeable.isContract(address(this)) && _initialized == 1 */\n    tag_566:\n        /* \"lib/contracts-upgradeable/proxy/utils/Initializable.sol\":3314:3515  require(... */\n      tag_567\n      jumpi\n      mload(0x40)\n      shl(0xe5, 0x461bcd)\n      dup2\n      mstore\n        /* \"#utility.yul\":10549:10551   */\n      0x20\n        /* \"lib/contracts-upgradeable/proxy/utils/Initializable.sol\":3314:3515  require(... */\n      0x04\n      dup3\n      add\n        /* \"#utility.yul\":10531:10552   */\n      mstore\n        /* \"#utility.yul\":10588:10590   */\n      0x2e\n        /* \"#utility.yul\":10568:10586   */\n      0x24\n      dup3\n      add\n        /* \"#utility.yul\":10561:10591   */\n      mstore\n        /* \"#utility.yul\":10627:10661   */\n      0x496e697469616c697a61626c653a20636f6e747261637420697320616c726561\n        /* \"#utility.yul\":10607:10625   */\n      0x44\n      dup3\n      add\n        /* \"#utility.yul\":10600:10662   */\n      mstore\n      shl(0x92, 0x191e481a5b9a5d1a585b1a5e9959)\n        /* \"#utility.yul\":10678:10696   */\n      0x64\n      dup3\n      add\n        /* \"#utility.yul\":10671:10715   */\n      mstore\n        /* \"#utility.yul\":10732:10751   */\n      0x84\n      add\n        /* \"lib/contracts-upgradeable/proxy/utils/Initializable.sol\":3314:3515  require(... */\n      tag_355\n        /* \"#utility.yul\":10347:10757   */\n      jump\n        /* \"lib/contracts-upgradeable/proxy/utils/Initializable.sol\":3314:3515  require(... */\n    tag_567:\n        /* \"lib/contracts-upgradeable/proxy/utils/Initializable.sol\":3525:3537  _initialized */\n      0x00\n        /* \"lib/contracts-upgradeable/proxy/utils/Initializable.sol\":3525:3541  _initialized = 1 */\n      dup1\n      sload\n      not(0xff)\n      and\n        /* \"lib/contracts-upgradeable/proxy/utils/Initializable.sol\":3540:3541  1 */\n      0x01\n        /* \"lib/contracts-upgradeable/proxy/utils/Initializable.sol\":3525:3541  _initialized = 1 */\n      or\n      swap1\n      sstore\n        /* \"lib/contracts-upgradeable/proxy/utils/Initializable.sol\":3551:3616  if (isTopLevelCall) {... */\n      dup1\n      iszero\n      tag_570\n      jumpi\n        /* \"lib/contracts-upgradeable/proxy/utils/Initializable.sol\":3585:3598  _initializing */\n      0x00\n        /* \"lib/contracts-upgradeable/proxy/utils/Initializable.sol\":3585:3605  _initializing = true */\n      dup1\n      sload\n      not(0xff00)\n      and\n      0x0100\n      or\n      swap1\n      sstore\n        /* \"lib/contracts-upgradeable/proxy/utils/Initializable.sol\":3551:3616  if (isTopLevelCall) {... */\n    tag_570:\n        /* \"contracts/ACConfig.sol\":2197:2213  __Ownable_init() */\n      tag_572\n        /* \"contracts/ACConfig.sol\":2197:2211  __Ownable_init */\n      tag_573\n        /* \"contracts/ACConfig.sol\":2197:2213  __Ownable_init() */\n      jump\t// in\n    tag_572:\n        /* \"contracts/ACConfig.sol\":2224:2232  operator */\n      0xe4\n        /* \"contracts/ACConfig.sol\":2224:2244  operator = _operator */\n      dup1\n      sload\n      sub(shl(0xa0, 0x01), 0x01)\n      dup5\n      and\n      not(sub(shl(0xa0, 0x01), 0x01))\n      swap2\n      dup3\n      and\n      or\n      swap1\n      swap2\n      sstore\n        /* \"contracts/ACConfig.sol\":2257:2272  platformAddress */\n      0xcf\n        /* \"contracts/ACConfig.sol\":2257:2317  platformAddress = 0xdF9228FC02F4554CD80AF6D036dADe242022e4f2 */\n      dup1\n      sload\n      dup3\n      and\n        /* \"contracts/ACConfig.sol\":2275:2317  0xdF9228FC02F4554CD80AF6D036dADe242022e4f2 */\n      0xdf9228fc02f4554cd80af6d036dade242022e4f2\n        /* \"contracts/ACConfig.sol\":2257:2317  platformAddress = 0xdF9228FC02F4554CD80AF6D036dADe242022e4f2 */\n      or\n      swap1\n      sstore\n        /* \"contracts/ACConfig.sol\":2328:2348  monthDividendAddress */\n      0xd0\n        /* \"contracts/ACConfig.sol\":2328:2393  monthDividendAddress = 0x4076AF4556458cDd0ad25E86eD23B4dc8437DcE4 */\n      dup1\n      sload\n      dup3\n      and\n        /* \"contracts/ACConfig.sol\":2351:2393  0x4076AF4556458cDd0ad25E86eD23B4dc8437DcE4 */\n      0x4076af4556458cdd0ad25e86ed23b4dc8437dce4\n        /* \"contracts/ACConfig.sol\":2328:2393  monthDividendAddress = 0x4076AF4556458cDd0ad25E86eD23B4dc8437DcE4 */\n      or\n      swap1\n      sstore\n        /* \"contracts/ACConfig.sol\":2419:2422  900 */\n      0x0384\n        /* \"contracts/ACConfig.sol\":2404:2416  platformRate */\n      0xd1\n        /* \"contracts/ACConfig.sol\":2404:2422  platformRate = 900 */\n      sstore\n        /* \"contracts/ACConfig.sol\":2444:2448  1000 */\n      0x03e8\n        /* \"contracts/ACConfig.sol\":2433:2441  swapRate */\n      0xd2\n        /* \"contracts/ACConfig.sol\":2433:2448  swapRate = 1000 */\n      sstore\n        /* \"contracts/ACConfig.sol\":2461:2480  mvCollectionAddress */\n      0xd3\n        /* \"contracts/ACConfig.sol\":2461:2525  mvCollectionAddress = 0xFAe25F1Ae4B758D7C96D7Eb075B62af4F3398b89 */\n      dup1\n      sload\n      dup3\n      and\n        /* \"contracts/ACConfig.sol\":2483:2525  0xFAe25F1Ae4B758D7C96D7Eb075B62af4F3398b89 */\n      0xfae25f1ae4b758d7c96d7eb075b62af4f3398b89\n        /* \"contracts/ACConfig.sol\":2461:2525  mvCollectionAddress = 0xFAe25F1Ae4B758D7C96D7Eb075B62af4F3398b89 */\n      or\n      swap1\n      sstore\n        /* \"contracts/ACConfig.sol\":2536:2547  techAddress */\n      0xd4\n        /* \"contracts/ACConfig.sol\":2536:2592  techAddress = 0x7FbA7858083836D9169eb3bE21A48189E1798c8e */\n      dup1\n      sload\n      dup3\n      and\n        /* \"contracts/ACConfig.sol\":2550:2592  0x7FbA7858083836D9169eb3bE21A48189E1798c8e */\n      0x7fba7858083836d9169eb3be21a48189e1798c8e\n        /* \"contracts/ACConfig.sol\":2536:2592  techAddress = 0x7FbA7858083836D9169eb3bE21A48189E1798c8e */\n      or\n      swap1\n      sstore\n        /* \"contracts/ACConfig.sol\":2603:2616  marketAddress */\n      0xd5\n        /* \"contracts/ACConfig.sol\":2603:2661  marketAddress = 0x2737ac6359664096f22863088246d885F14E6FF2 */\n      dup1\n      sload\n      dup3\n      and\n        /* \"contracts/ACConfig.sol\":2619:2661  0x2737ac6359664096f22863088246d885F14E6FF2 */\n      0x2737ac6359664096f22863088246d885f14e6ff2\n        /* \"contracts/ACConfig.sol\":2603:2661  marketAddress = 0x2737ac6359664096f22863088246d885F14E6FF2 */\n      swap1\n      dup2\n      or\n      swap1\n      swap2\n      sstore\n        /* \"contracts/ACConfig.sol\":2702:2710  20 ether */\n      0x01158e460913d00000\n        /* \"contracts/ACConfig.sol\":2682:2699  minComputingPower */\n      0xd6\n        /* \"contracts/ACConfig.sol\":2682:2710  minComputingPower = 20 ether */\n      sstore\n        /* \"contracts/ACConfig.sol\":2741:2751  6000 ether */\n      0x014542ba12a337c00000\n        /* \"contracts/ACConfig.sol\":2721:2738  maxComputingPower */\n      0xe6\n        /* \"contracts/ACConfig.sol\":2721:2751  maxComputingPower = 6000 ether */\n      sstore\n        /* \"contracts/ACConfig.sol\":2781:2784  150 */\n      0x96\n        /* \"contracts/ACConfig.sol\":2762:2778  refRewardOneRate */\n      0xd7\n        /* \"contracts/ACConfig.sol\":2762:2784  refRewardOneRate = 150 */\n      sstore\n        /* \"contracts/ACConfig.sol\":2814:2817  100 */\n      0x64\n        /* \"contracts/ACConfig.sol\":2795:2811  refRewardTwoRate */\n      0xd8\n        /* \"contracts/ACConfig.sol\":2795:2817  refRewardTwoRate = 100 */\n      dup2\n      swap1\n      sstore\n        /* \"contracts/ACConfig.sol\":2828:2847  sameLevelRewardRate */\n      0xd9\n        /* \"contracts/ACConfig.sol\":2828:2853  sameLevelRewardRate = 100 */\n      dup2\n      swap1\n      sstore\n        /* \"contracts/ACConfig.sol\":2864:2878  teamRewardRate */\n      0xda\n        /* \"contracts/ACConfig.sol\":2864:2884  teamRewardRate = 100 */\n      sstore\n        /* \"contracts/ACConfig.sol\":2895:2912  teamRewardAddress */\n      0xdb\n        /* \"contracts/ACConfig.sol\":2895:2957  teamRewardAddress = 0x2737ac6359664096f22863088246d885F14E6FF2 */\n      dup1\n      sload\n      dup4\n      and\n      swap1\n      swap2\n      or\n      swap1\n      sstore\n        /* \"contracts/ACConfig.sol\":2968:2984  remainingAddress */\n      0xdc\n        /* \"contracts/ACConfig.sol\":2968:3029  remainingAddress = 0xb36F6361dCf31D0D7956E9e826a9915A5ddEC272 */\n      dup1\n      sload\n      dup3\n      and\n        /* \"contracts/ACConfig.sol\":2987:3029  0xb36F6361dCf31D0D7956E9e826a9915A5ddEC272 */\n      0xb36f6361dcf31d0d7956e9e826a9915a5ddec272\n        /* \"contracts/ACConfig.sol\":2968:3029  remainingAddress = 0xb36F6361dCf31D0D7956E9e826a9915A5ddEC272 */\n      or\n      swap1\n      sstore\n        /* \"contracts/ACConfig.sol\":3064:3066  50 */\n      0x32\n        /* \"contracts/ACConfig.sol\":3040:3061  shareHolderRewardRate */\n      0xdd\n        /* \"contracts/ACConfig.sol\":3040:3066  shareHolderRewardRate = 50 */\n      sstore\n        /* \"contracts/ACConfig.sol\":3099:3110  20000 ether */\n      0x043c33c1937564800000\n        /* \"contracts/ACConfig.sol\":3077:3096  shareHolderMinLimit */\n      0xde\n        /* \"contracts/ACConfig.sol\":3077:3110  shareHolderMinLimit = 20000 ether */\n      sstore\n        /* \"contracts/ACConfig.sol\":3138:3148  Level(0,0) */\n      0x40\n      dup1\n      mload\n      dup1\n      dup3\n      add\n      dup3\n      mstore\n        /* \"contracts/ACConfig.sol\":2224:2232  operator */\n      0x00\n        /* \"contracts/ACConfig.sol\":3138:3148  Level(0,0) */\n      dup1\n      dup3\n      mstore\n      0x20\n      dup1\n      dup4\n      add\n      dup3\n      dup2\n      mstore\n        /* \"contracts/ACConfig.sol\":3123:3135  teamLevel[0] */\n      dup3\n      dup1\n      mstore\n        /* \"contracts/ACConfig.sol\":3123:3132  teamLevel */\n      0xdf\n        /* \"contracts/ACConfig.sol\":3123:3135  teamLevel[0] */\n      dup1\n      dup4\n      mstore\n        /* \"contracts/ACConfig.sol\":3123:3148  teamLevel[0] = Level(0,0) */\n      swap4\n      mload\n        /* \"contracts/ACConfig.sol\":3123:3135  teamLevel[0] */\n      0x4b917336ba36fefa23b90074e126fe5413f0e3fc800e7ab1da217d9a2807b711\n        /* \"contracts/ACConfig.sol\":3123:3148  teamLevel[0] = Level(0,0) */\n      sstore\n      mload\n      0x4b917336ba36fefa23b90074e126fe5413f0e3fc800e7ab1da217d9a2807b712\n      sstore\n        /* \"contracts/ACConfig.sol\":3174:3196  Level(10000 ether,200) */\n      dup4\n      mload\n      dup1\n      dup6\n      add\n      dup6\n      mstore\n        /* \"contracts/ACConfig.sol\":3180:3191  10000 ether */\n      0x021e19e0c9bab2400000\n        /* \"contracts/ACConfig.sol\":3174:3196  Level(10000 ether,200) */\n      dup2\n      mstore\n        /* \"contracts/ACConfig.sol\":3192:3195  200 */\n      0xc8\n        /* \"contracts/ACConfig.sol\":3174:3196  Level(10000 ether,200) */\n      dup2\n      dup4\n      add\n      swap1\n      dup2\n      mstore\n        /* \"contracts/ACConfig.sol\":2224:2244  operator = _operator */\n      0x01\n        /* \"contracts/ACConfig.sol\":3159:3171  teamLevel[1] */\n      dup1\n      dup6\n      mstore\n      dup6\n      dup5\n      mstore\n        /* \"contracts/ACConfig.sol\":3159:3196  teamLevel[1] = Level(10000 ether,200) */\n      swap2\n      mload\n        /* \"contracts/ACConfig.sol\":3159:3171  teamLevel[1] */\n      0x55c38c42e971eeb957b61422467f67fa3b212021ac50a6b2b3d5acd9d01cb97d\n        /* \"contracts/ACConfig.sol\":3159:3196  teamLevel[1] = Level(10000 ether,200) */\n      sstore\n      mload\n      0x55c38c42e971eeb957b61422467f67fa3b212021ac50a6b2b3d5acd9d01cb97e\n      sstore\n        /* \"contracts/ACConfig.sol\":3222:3244  Level(30000 ether,350) */\n      dup5\n      mload\n      dup1\n      dup7\n      add\n      dup7\n      mstore\n        /* \"contracts/ACConfig.sol\":3228:3239  30000 ether */\n      0x065a4da25d3016c00000\n        /* \"contracts/ACConfig.sol\":3222:3244  Level(30000 ether,350) */\n      dup2\n      mstore\n        /* \"contracts/ACConfig.sol\":3240:3243  350 */\n      0x015e\n        /* \"contracts/ACConfig.sol\":3222:3244  Level(30000 ether,350) */\n      dup2\n      dup5\n      add\n      swap1\n      dup2\n      mstore\n        /* \"contracts/ACConfig.sol\":3217:3218  2 */\n      0x02\n        /* \"contracts/ACConfig.sol\":3207:3219  teamLevel[2] */\n      dup6\n      mstore\n      dup6\n      dup5\n      mstore\n        /* \"contracts/ACConfig.sol\":3207:3244  teamLevel[2] = Level(30000 ether,350) */\n      swap1\n      mload\n        /* \"contracts/ACConfig.sol\":3207:3219  teamLevel[2] */\n      0x36d20378f308040d39a8a5e0299048c5eb6a3e2af0aad6fc5cbd63dba6084c75\n        /* \"contracts/ACConfig.sol\":3207:3244  teamLevel[2] = Level(30000 ether,350) */\n      sstore\n      mload\n      0x36d20378f308040d39a8a5e0299048c5eb6a3e2af0aad6fc5cbd63dba6084c76\n      sstore\n        /* \"contracts/ACConfig.sol\":3270:3293  Level(100000 ether,500) */\n      dup5\n      mload\n      dup1\n      dup7\n      add\n      swap1\n      swap6\n      mstore\n        /* \"contracts/ACConfig.sol\":3276:3288  100000 ether */\n      0x152d02c7e14af6800000\n        /* \"contracts/ACConfig.sol\":3270:3293  Level(100000 ether,500) */\n      dup6\n      mstore\n        /* \"contracts/ACConfig.sol\":3289:3292  500 */\n      0x01f4\n        /* \"contracts/ACConfig.sol\":3270:3293  Level(100000 ether,500) */\n      dup6\n      dup4\n      add\n      swap1\n      dup2\n      mstore\n        /* \"contracts/ACConfig.sol\":3265:3266  3 */\n      0x03\n        /* \"contracts/ACConfig.sol\":3255:3267  teamLevel[3] */\n      dup1\n      dup6\n      mstore\n      swap5\n      dup4\n      mstore\n        /* \"contracts/ACConfig.sol\":3255:3293  teamLevel[3] = Level(100000 ether,500) */\n      swap5\n      mload\n        /* \"contracts/ACConfig.sol\":3255:3267  teamLevel[3] */\n      0x780609eda5e52d7936e75ead8ec77fc018859646a90304d10fb581006956b09e\n        /* \"contracts/ACConfig.sol\":3255:3293  teamLevel[3] = Level(100000 ether,500) */\n      sstore\n      swap4\n      mload\n      0x780609eda5e52d7936e75ead8ec77fc018859646a90304d10fb581006956b09f\n      sstore\n        /* \"contracts/ACConfig.sol\":3306:3315  userLevel */\n      0xe0\n        /* \"contracts/ACConfig.sol\":3306:3320  userLevel[top] */\n      swap1\n      mstore\n      0x29f40cf27a854b63617043f10b660b0f327b8234f55a91e6b6f6e8a2fa39678b\n        /* \"contracts/ACConfig.sol\":3306:3324  userLevel[top] = 3 */\n      swap2\n      swap1\n      swap2\n      sstore\n        /* \"contracts/ACConfig.sol\":3335:3342  userArr */\n      0xe1\n        /* \"contracts/ACConfig.sol\":3335:3352  userArr.push(top) */\n      dup1\n      sload\n      swap3\n      dup4\n      add\n      dup2\n      sstore\n      swap1\n      mstore\n      0x00\n      dup1\n      mload\n      0x20\n      data_e3d46f142e20657c402ed08bdf439babdd6fbb8091e2708315f00847c0f52cc5\n      dup4\n      codecopy\n      dup2\n      mload\n      swap2\n      mstore\n      add\n      dup1\n      sload\n      swap1\n      swap2\n      and\n        /* \"contracts/ACConfig.sol\":605:647  0xd220B3cf1E4660C5509418B42A86d7945E6E2e18 */\n      0xd220b3cf1e4660c5509418b42a86d7945e6e2e18\n        /* \"contracts/ACConfig.sol\":3335:3352  userArr.push(top) */\n      or\n      swap1\n      sstore\n        /* \"contracts/ACConfig.sol\":3385:3393  365 days */\n      0x01e13380\n        /* \"contracts/ACConfig.sol\":3365:3382  machineExpireTime */\n      0xe2\n        /* \"contracts/ACConfig.sol\":3365:3393  machineExpireTime = 365 days */\n      sstore\n        /* \"contracts/ACConfig.sol\":3420:3429  1 minutes */\n      0x3c\n        /* \"contracts/ACConfig.sol\":3404:3417  claimInterval */\n      0xe3\n        /* \"contracts/ACConfig.sol\":3404:3429  claimInterval = 1 minutes */\n      sstore\n        /* \"lib/contracts-upgradeable/proxy/utils/Initializable.sol\":3636:3735  if (isTopLevelCall) {... */\n      dup1\n      iszero\n      tag_461\n      jumpi\n        /* \"lib/contracts-upgradeable/proxy/utils/Initializable.sol\":3686:3691  false */\n      0x00\n        /* \"lib/contracts-upgradeable/proxy/utils/Initializable.sol\":3670:3691  _initializing = false */\n      dup1\n      sload\n      not(0xff00)\n      and\n      swap1\n      sstore\n        /* \"lib/contracts-upgradeable/proxy/utils/Initializable.sol\":3710:3724  Initialized(1) */\n      mload(0x40)\n      0x01\n        /* \"#utility.yul\":10914:10950   */\n      dup2\n      mstore\n        /* \"lib/contracts-upgradeable/proxy/utils/Initializable.sol\":3710:3724  Initialized(1) */\n      0x7f26b83ff96e1f2b6a682f133852f6798a09c465da95921460cefb3847402498\n      swap1\n        /* \"#utility.yul\":10902:10904   */\n      0x20\n        /* \"#utility.yul\":10887:10905   */\n      add\n        /* \"lib/contracts-upgradeable/proxy/utils/Initializable.sol\":3710:3724  Initialized(1) */\n      mload(0x40)\n      dup1\n      swap2\n      sub\n      swap1\n      log1\n        /* \"lib/contracts-upgradeable/proxy/utils/Initializable.sol\":3258:3741  {... */\n      pop\n        /* \"contracts/ACConfig.sol\":2128:3448  function initialize(address _operator)external initializer{... */\n      pop\n      jump\t// out\n        /* \"contracts/ACConfig.sol\":7866:7994  function changePlatformAddress(address _platformAddress)external onlyAdmin {... */\n    tag_299:\n        /* \"contracts/ACConfig.sol\":2047:2057  msg.sender */\n      caller\n        /* \"contracts/ACConfig.sol\":2041:2058  admin[msg.sender] */\n      0x00\n      swap1\n      dup2\n      mstore\n        /* \"contracts/ACConfig.sol\":2041:2046  admin */\n      0xe5\n        /* \"contracts/ACConfig.sol\":2041:2058  admin[msg.sender] */\n      0x20\n      mstore\n      0x40\n      swap1\n      keccak256\n      sload\n      0xff\n      and\n      dup1\n        /* \"contracts/ACConfig.sol\":2041:2083  admin[msg.sender] || msg.sender == owner() */\n      tag_579\n      jumpi\n      pop\n        /* \"contracts/ACConfig.sol\":2076:2083  owner() */\n      tag_580\n        /* \"contracts/ACConfig.sol\":2076:2081  owner */\n      tag_269\n        /* \"contracts/ACConfig.sol\":2076:2083  owner() */\n      jump\t// in\n    tag_580:\n      sub(shl(0xa0, 0x01), 0x01)\n        /* \"contracts/ACConfig.sol\":2062:2083  msg.sender == owner() */\n      and\n        /* \"contracts/ACConfig.sol\":2062:2072  msg.sender */\n      caller\n      sub(shl(0xa0, 0x01), 0x01)\n        /* \"contracts/ACConfig.sol\":2062:2083  msg.sender == owner() */\n      and\n      eq\n        /* \"contracts/ACConfig.sol\":2041:2083  admin[msg.sender] || msg.sender == owner() */\n    tag_579:\n        /* \"contracts/ACConfig.sol\":2033:2096  require(admin[msg.sender] || msg.sender == owner(),'not admin') */\n      tag_581\n      jumpi\n      mload(0x40)\n      shl(0xe5, 0x461bcd)\n      dup2\n      mstore\n      0x04\n      add\n      tag_355\n      swap1\n      tag_356\n      jump\t// in\n    tag_581:\n        /* \"contracts/ACConfig.sol\":7952:7967  platformAddress */\n      0xcf\n        /* \"contracts/ACConfig.sol\":7952:7986  platformAddress = _platformAddress */\n      dup1\n      sload\n      not(sub(shl(0xa0, 0x01), 0x01))\n      and\n      sub(shl(0xa0, 0x01), 0x01)\n      swap3\n      swap1\n      swap3\n      and\n      swap2\n      swap1\n      swap2\n      or\n      swap1\n      sstore\n        /* \"contracts/ACConfig.sol\":7866:7994  function changePlatformAddress(address _platformAddress)external onlyAdmin {... */\n      jump\t// out\n        /* \"contracts/ACConfig.sol\":7005:7170  function changeRefRewardRate(uint256 _oneRate,uint256 _twoRate)external onlyAdmin{... */\n    tag_308:\n        /* \"contracts/ACConfig.sol\":2047:2057  msg.sender */\n      caller\n        /* \"contracts/ACConfig.sol\":2041:2058  admin[msg.sender] */\n      0x00\n      swap1\n      dup2\n      mstore\n        /* \"contracts/ACConfig.sol\":2041:2046  admin */\n      0xe5\n        /* \"contracts/ACConfig.sol\":2041:2058  admin[msg.sender] */\n      0x20\n      mstore\n      0x40\n      swap1\n      keccak256\n      sload\n      0xff\n      and\n      dup1\n        /* \"contracts/ACConfig.sol\":2041:2083  admin[msg.sender] || msg.sender == owner() */\n      tag_585\n      jumpi\n      pop\n        /* \"contracts/ACConfig.sol\":2076:2083  owner() */\n      tag_586\n        /* \"contracts/ACConfig.sol\":2076:2081  owner */\n      tag_269\n        /* \"contracts/ACConfig.sol\":2076:2083  owner() */\n      jump\t// in\n    tag_586:\n      sub(shl(0xa0, 0x01), 0x01)\n        /* \"contracts/ACConfig.sol\":2062:2083  msg.sender == owner() */\n      and\n        /* \"contracts/ACConfig.sol\":2062:2072  msg.sender */\n      caller\n      sub(shl(0xa0, 0x01), 0x01)\n        /* \"contracts/ACConfig.sol\":2062:2083  msg.sender == owner() */\n      and\n      eq\n        /* \"contracts/ACConfig.sol\":2041:2083  admin[msg.sender] || msg.sender == owner() */\n    tag_585:\n        /* \"contracts/ACConfig.sol\":2033:2096  require(admin[msg.sender] || msg.sender == owner(),'not admin') */\n      tag_587\n      jumpi\n      mload(0x40)\n      shl(0xe5, 0x461bcd)\n      dup2\n      mstore\n      0x04\n      add\n      tag_355\n      swap1\n      tag_356\n      jump\t// in\n    tag_587:\n        /* \"contracts/ACConfig.sol\":7097:7113  refRewardOneRate */\n      0xd7\n        /* \"contracts/ACConfig.sol\":7097:7124  refRewardOneRate = _oneRate */\n      swap2\n      swap1\n      swap2\n      sstore\n        /* \"contracts/ACConfig.sol\":7135:7151  refRewardTwoRate */\n      0xd8\n        /* \"contracts/ACConfig.sol\":7135:7162  refRewardTwoRate = _twoRate */\n      sstore\n        /* \"contracts/ACConfig.sol\":7005:7170  function changeRefRewardRate(uint256 _oneRate,uint256 _twoRate)external onlyAdmin{... */\n      jump\t// out\n        /* \"contracts/ACConfig.sol\":6443:6574  function changeRemainingAddress(address _remainingAddress)external onlyAdmin{... */\n    tag_316:\n        /* \"contracts/ACConfig.sol\":2047:2057  msg.sender */\n      caller\n        /* \"contracts/ACConfig.sol\":2041:2058  admin[msg.sender] */\n      0x00\n      swap1\n      dup2\n      mstore\n        /* \"contracts/ACConfig.sol\":2041:2046  admin */\n      0xe5\n        /* \"contracts/ACConfig.sol\":2041:2058  admin[msg.sender] */\n      0x20\n      mstore\n      0x40\n      swap1\n      keccak256\n      sload\n      0xff\n      and\n      dup1\n        /* \"contracts/ACConfig.sol\":2041:2083  admin[msg.sender] || msg.sender == owner() */\n      tag_591\n      jumpi\n      pop\n        /* \"contracts/ACConfig.sol\":2076:2083  owner() */\n      tag_592\n        /* \"contracts/ACConfig.sol\":2076:2081  owner */\n      tag_269\n        /* \"contracts/ACConfig.sol\":2076:2083  owner() */\n      jump\t// in\n    tag_592:\n      sub(shl(0xa0, 0x01), 0x01)\n        /* \"contracts/ACConfig.sol\":2062:2083  msg.sender == owner() */\n      and\n        /* \"contracts/ACConfig.sol\":2062:2072  msg.sender */\n      caller\n      sub(shl(0xa0, 0x01), 0x01)\n        /* \"contracts/ACConfig.sol\":2062:2083  msg.sender == owner() */\n      and\n      eq\n        /* \"contracts/ACConfig.sol\":2041:2083  admin[msg.sender] || msg.sender == owner() */\n    tag_591:\n        /* \"contracts/ACConfig.sol\":2033:2096  require(admin[msg.sender] || msg.sender == owner(),'not admin') */\n      tag_593\n      jumpi\n      mload(0x40)\n      shl(0xe5, 0x461bcd)\n      dup2\n      mstore\n      0x04\n      add\n      tag_355\n      swap1\n      tag_356\n      jump\t// in\n    tag_593:\n        /* \"contracts/ACConfig.sol\":6530:6546  remainingAddress */\n      0xdc\n        /* \"contracts/ACConfig.sol\":6530:6566  remainingAddress = _remainingAddress */\n      dup1\n      sload\n      not(sub(shl(0xa0, 0x01), 0x01))\n      and\n      sub(shl(0xa0, 0x01), 0x01)\n      swap3\n      swap1\n      swap3\n      and\n      swap2\n      swap1\n      swap2\n      or\n      swap1\n      sstore\n        /* \"contracts/ACConfig.sol\":6443:6574  function changeRemainingAddress(address _remainingAddress)external onlyAdmin{... */\n      jump\t// out\n        /* \"lib/contracts-upgradeable/access/OwnableUpgradeable.sol\":2321:2519  function transferOwnership(address newOwner) public virtual onlyOwner {... */\n    tag_324:\n        /* \"lib/contracts-upgradeable/access/OwnableUpgradeable.sol\":1334:1347  _checkOwner() */\n      tag_597\n        /* \"lib/contracts-upgradeable/access/OwnableUpgradeable.sol\":1334:1345  _checkOwner */\n      tag_349\n        /* \"lib/contracts-upgradeable/access/OwnableUpgradeable.sol\":1334:1347  _checkOwner() */\n      jump\t// in\n    tag_597:\n      sub(shl(0xa0, 0x01), 0x01)\n        /* \"lib/contracts-upgradeable/access/OwnableUpgradeable.sol\":2409:2431  newOwner != address(0) */\n      dup2\n      and\n        /* \"lib/contracts-upgradeable/access/OwnableUpgradeable.sol\":2401:2474  require(newOwner != address(0), \"Ownable: new owner is the zero address\") */\n      tag_599\n      jumpi\n      mload(0x40)\n      shl(0xe5, 0x461bcd)\n      dup2\n      mstore\n        /* \"#utility.yul\":11163:11165   */\n      0x20\n        /* \"lib/contracts-upgradeable/access/OwnableUpgradeable.sol\":2401:2474  require(newOwner != address(0), \"Ownable: new owner is the zero address\") */\n      0x04\n      dup3\n      add\n        /* \"#utility.yul\":11145:11166   */\n      mstore\n        /* \"#utility.yul\":11202:11204   */\n      0x26\n        /* \"#utility.yul\":11182:11200   */\n      0x24\n      dup3\n      add\n        /* \"#utility.yul\":11175:11205   */\n      mstore\n        /* \"#utility.yul\":11241:11275   */\n      0x4f776e61626c653a206e6577206f776e657220697320746865207a65726f2061\n        /* \"#utility.yul\":11221:11239   */\n      0x44\n      dup3\n      add\n        /* \"#utility.yul\":11214:11276   */\n      mstore\n      shl(0xd0, 0x646472657373)\n        /* \"#utility.yul\":11292:11310   */\n      0x64\n      dup3\n      add\n        /* \"#utility.yul\":11285:11321   */\n      mstore\n        /* \"#utility.yul\":11338:11357   */\n      0x84\n      add\n        /* \"lib/contracts-upgradeable/access/OwnableUpgradeable.sol\":2401:2474  require(newOwner != address(0), \"Ownable: new owner is the zero address\") */\n      tag_355\n        /* \"#utility.yul\":10961:11363   */\n      jump\n        /* \"lib/contracts-upgradeable/access/OwnableUpgradeable.sol\":2401:2474  require(newOwner != address(0), \"Ownable: new owner is the zero address\") */\n    tag_599:\n        /* \"lib/contracts-upgradeable/access/OwnableUpgradeable.sol\":2484:2512  _transferOwnership(newOwner) */\n      tag_421\n        /* \"lib/contracts-upgradeable/access/OwnableUpgradeable.sol\":2503:2511  newOwner */\n      dup2\n        /* \"lib/contracts-upgradeable/access/OwnableUpgradeable.sol\":2484:2502  _transferOwnership */\n      tag_508\n        /* \"lib/contracts-upgradeable/access/OwnableUpgradeable.sol\":2484:2512  _transferOwnership(newOwner) */\n      jump\t// in\n        /* \"contracts/ACConfig.sol\":8002:8150  function changeMonthDividenAddress(address _monthDividendAddress) external onlyAdmin {... */\n    tag_328:\n        /* \"contracts/ACConfig.sol\":2047:2057  msg.sender */\n      caller\n        /* \"contracts/ACConfig.sol\":2041:2058  admin[msg.sender] */\n      0x00\n      swap1\n      dup2\n      mstore\n        /* \"contracts/ACConfig.sol\":2041:2046  admin */\n      0xe5\n        /* \"contracts/ACConfig.sol\":2041:2058  admin[msg.sender] */\n      0x20\n      mstore\n      0x40\n      swap1\n      keccak256\n      sload\n      0xff\n      and\n      dup1\n        /* \"contracts/ACConfig.sol\":2041:2083  admin[msg.sender] || msg.sender == owner() */\n      tag_604\n      jumpi\n      pop\n        /* \"contracts/ACConfig.sol\":2076:2083  owner() */\n      tag_605\n        /* \"contracts/ACConfig.sol\":2076:2081  owner */\n      tag_269\n        /* \"contracts/ACConfig.sol\":2076:2083  owner() */\n      jump\t// in\n    tag_605:\n      sub(shl(0xa0, 0x01), 0x01)\n        /* \"contracts/ACConfig.sol\":2062:2083  msg.sender == owner() */\n      and\n        /* \"contracts/ACConfig.sol\":2062:2072  msg.sender */\n      caller\n      sub(shl(0xa0, 0x01), 0x01)\n        /* \"contracts/ACConfig.sol\":2062:2083  msg.sender == owner() */\n      and\n      eq\n        /* \"contracts/ACConfig.sol\":2041:2083  admin[msg.sender] || msg.sender == owner() */\n    tag_604:\n        /* \"contracts/ACConfig.sol\":2033:2096  require(admin[msg.sender] || msg.sender == owner(),'not admin') */\n      tag_606\n      jumpi\n      mload(0x40)\n      shl(0xe5, 0x461bcd)\n      dup2\n      mstore\n      0x04\n      add\n      tag_355\n      swap1\n      tag_356\n      jump\t// in\n    tag_606:\n        /* \"contracts/ACConfig.sol\":8098:8118  monthDividendAddress */\n      0xd0\n        /* \"contracts/ACConfig.sol\":8098:8142  monthDividendAddress = _monthDividendAddress */\n      dup1\n      sload\n      not(sub(shl(0xa0, 0x01), 0x01))\n      and\n      sub(shl(0xa0, 0x01), 0x01)\n      swap3\n      swap1\n      swap3\n      and\n      swap2\n      swap1\n      swap2\n      or\n      swap1\n      sstore\n        /* \"contracts/ACConfig.sol\":8002:8150  function changeMonthDividenAddress(address _monthDividendAddress) external onlyAdmin {... */\n      jump\t// out\n        /* \"contracts/ACConfig.sol\":7466:7610  function changeMvCollectionAddress(address _mvCollectionAddress) external onlyAdmin{... */\n    tag_332:\n        /* \"contracts/ACConfig.sol\":2047:2057  msg.sender */\n      caller\n        /* \"contracts/ACConfig.sol\":2041:2058  admin[msg.sender] */\n      0x00\n      swap1\n      dup2\n      mstore\n        /* \"contracts/ACConfig.sol\":2041:2046  admin */\n      0xe5\n        /* \"contracts/ACConfig.sol\":2041:2058  admin[msg.sender] */\n      0x20\n      mstore\n      0x40\n      swap1\n      keccak256\n      sload\n      0xff\n      and\n      dup1\n        /* \"contracts/ACConfig.sol\":2041:2083  admin[msg.sender] || msg.sender == owner() */\n      tag_610\n      jumpi\n      pop\n        /* \"contracts/ACConfig.sol\":2076:2083  owner() */\n      tag_611\n        /* \"contracts/ACConfig.sol\":2076:2081  owner */\n      tag_269\n        /* \"contracts/ACConfig.sol\":2076:2083  owner() */\n      jump\t// in\n    tag_611:\n      sub(shl(0xa0, 0x01), 0x01)\n        /* \"contracts/ACConfig.sol\":2062:2083  msg.sender == owner() */\n      and\n        /* \"contracts/ACConfig.sol\":2062:2072  msg.sender */\n      caller\n      sub(shl(0xa0, 0x01), 0x01)\n        /* \"contracts/ACConfig.sol\":2062:2083  msg.sender == owner() */\n      and\n      eq\n        /* \"contracts/ACConfig.sol\":2041:2083  admin[msg.sender] || msg.sender == owner() */\n    tag_610:\n        /* \"contracts/ACConfig.sol\":2033:2096  require(admin[msg.sender] || msg.sender == owner(),'not admin') */\n      tag_612\n      jumpi\n      mload(0x40)\n      shl(0xe5, 0x461bcd)\n      dup2\n      mstore\n      0x04\n      add\n      tag_355\n      swap1\n      tag_356\n      jump\t// in\n    tag_612:\n        /* \"contracts/ACConfig.sol\":7560:7579  mvCollectionAddress */\n      0xd3\n        /* \"contracts/ACConfig.sol\":7560:7602  mvCollectionAddress = _mvCollectionAddress */\n      dup1\n      sload\n      not(sub(shl(0xa0, 0x01), 0x01))\n      and\n      sub(shl(0xa0, 0x01), 0x01)\n      swap3\n      swap1\n      swap3\n      and\n      swap2\n      swap1\n      swap2\n      or\n      swap1\n      sstore\n        /* \"contracts/ACConfig.sol\":7466:7610  function changeMvCollectionAddress(address _mvCollectionAddress) external onlyAdmin{... */\n      jump\t// out\n        /* \"contracts/ACConfig.sol\":6582:6717  function changeTeamRewardAddress(address _teamRewardAddress)external onlyAdmin{... */\n    tag_344:\n        /* \"contracts/ACConfig.sol\":2047:2057  msg.sender */\n      caller\n        /* \"contracts/ACConfig.sol\":2041:2058  admin[msg.sender] */\n      0x00\n      swap1\n      dup2\n      mstore\n        /* \"contracts/ACConfig.sol\":2041:2046  admin */\n      0xe5\n        /* \"contracts/ACConfig.sol\":2041:2058  admin[msg.sender] */\n      0x20\n      mstore\n      0x40\n      swap1\n      keccak256\n      sload\n      0xff\n      and\n      dup1\n        /* \"contracts/ACConfig.sol\":2041:2083  admin[msg.sender] || msg.sender == owner() */\n      tag_616\n      jumpi\n      pop\n        /* \"contracts/ACConfig.sol\":2076:2083  owner() */\n      tag_617\n        /* \"contracts/ACConfig.sol\":2076:2081  owner */\n      tag_269\n        /* \"contracts/ACConfig.sol\":2076:2083  owner() */\n      jump\t// in\n    tag_617:\n      sub(shl(0xa0, 0x01), 0x01)\n        /* \"contracts/ACConfig.sol\":2062:2083  msg.sender == owner() */\n      and\n        /* \"contracts/ACConfig.sol\":2062:2072  msg.sender */\n      caller\n      sub(shl(0xa0, 0x01), 0x01)\n        /* \"contracts/ACConfig.sol\":2062:2083  msg.sender == owner() */\n      and\n      eq\n        /* \"contracts/ACConfig.sol\":2041:2083  admin[msg.sender] || msg.sender == owner() */\n    tag_616:\n        /* \"contracts/ACConfig.sol\":2033:2096  require(admin[msg.sender] || msg.sender == owner(),'not admin') */\n      tag_618\n      jumpi\n      mload(0x40)\n      shl(0xe5, 0x461bcd)\n      dup2\n      mstore\n      0x04\n      add\n      tag_355\n      swap1\n      tag_356\n      jump\t// in\n    tag_618:\n        /* \"contracts/ACConfig.sol\":6671:6688  teamRewardAddress */\n      0xdb\n        /* \"contracts/ACConfig.sol\":6671:6709  teamRewardAddress = _teamRewardAddress */\n      dup1\n      sload\n      not(sub(shl(0xa0, 0x01), 0x01))\n      and\n      sub(shl(0xa0, 0x01), 0x01)\n      swap3\n      swap1\n      swap3\n      and\n      swap2\n      swap1\n      swap2\n      or\n      swap1\n      sstore\n        /* \"contracts/ACConfig.sol\":6582:6717  function changeTeamRewardAddress(address _teamRewardAddress)external onlyAdmin{... */\n      jump\t// out\n        /* \"lib/contracts-upgradeable/access/OwnableUpgradeable.sol\":1599:1729  function _checkOwner() internal view virtual {... */\n    tag_349:\n        /* \"lib/contracts-upgradeable/utils/ContextUpgradeable.sol\":929:939  msg.sender */\n      caller\n        /* \"lib/contracts-upgradeable/access/OwnableUpgradeable.sol\":1662:1669  owner() */\n      tag_624\n        /* \"lib/contracts-upgradeable/access/OwnableUpgradeable.sol\":1662:1667  owner */\n      tag_269\n        /* \"lib/contracts-upgradeable/access/OwnableUpgradeable.sol\":1662:1669  owner() */\n      jump\t// in\n    tag_624:\n      sub(shl(0xa0, 0x01), 0x01)\n        /* \"lib/contracts-upgradeable/access/OwnableUpgradeable.sol\":1662:1685  owner() == _msgSender() */\n      and\n      eq\n        /* \"lib/contracts-upgradeable/access/OwnableUpgradeable.sol\":1654:1722  require(owner() == _msgSender(), \"Ownable: caller is not the owner\") */\n      tag_507\n      jumpi\n      mload(0x40)\n      shl(0xe5, 0x461bcd)\n      dup2\n      mstore\n        /* \"#utility.yul\":11570:11572   */\n      0x20\n        /* \"lib/contracts-upgradeable/access/OwnableUpgradeable.sol\":1654:1722  require(owner() == _msgSender(), \"Ownable: caller is not the owner\") */\n      0x04\n      dup3\n      add\n        /* \"#utility.yul\":11552:11573   */\n      dup2\n      swap1\n      mstore\n        /* \"#utility.yul\":11589:11607   */\n      0x24\n      dup3\n      add\n        /* \"#utility.yul\":11582:11612   */\n      mstore\n        /* \"#utility.yul\":11648:11682   */\n      0x4f776e61626c653a2063616c6c6572206973206e6f7420746865206f776e6572\n        /* \"#utility.yul\":11628:11646   */\n      0x44\n      dup3\n      add\n        /* \"#utility.yul\":11621:11683   */\n      mstore\n        /* \"#utility.yul\":11700:11718   */\n      0x64\n      add\n        /* \"lib/contracts-upgradeable/access/OwnableUpgradeable.sol\":1654:1722  require(owner() == _msgSender(), \"Ownable: caller is not the owner\") */\n      tag_355\n        /* \"#utility.yul\":11368:11724   */\n      jump\n        /* \"lib/contracts-upgradeable/proxy/ERC1967/ERC1967UpgradeUpgradeable.sol\":1509:1660  function _getImplementation() internal view returns (address) {... */\n    tag_414:\n      0x00\n      dup1\n      mload\n      0x20\n      data_75b20eef8615de99c108b05f0dbda081c91897128caa336d75dffb97c4132b4d\n      dup4\n      codecopy\n      dup2\n      mload\n      swap2\n      mstore\n        /* \"lib/contracts-upgradeable/proxy/ERC1967/ERC1967UpgradeUpgradeable.sol\":1588:1653  StorageSlotUpgradeable.getAddressSlot(_IMPLEMENTATION_SLOT).value */\n      sload\n      sub(shl(0xa0, 0x01), 0x01)\n      and\n      swap1\n        /* \"lib/contracts-upgradeable/proxy/ERC1967/ERC1967UpgradeUpgradeable.sol\":1509:1660  function _getImplementation() internal view returns (address) {... */\n      jump\t// out\n        /* \"contracts/ACConfig.sol\":3495:3561  function _authorizeUpgrade(address) internal override onlyOwner {} */\n    tag_420:\n        /* \"lib/contracts-upgradeable/access/OwnableUpgradeable.sol\":1334:1347  _checkOwner() */\n      tag_421\n        /* \"lib/contracts-upgradeable/access/OwnableUpgradeable.sol\":1334:1345  _checkOwner */\n      tag_349\n        /* \"lib/contracts-upgradeable/access/OwnableUpgradeable.sol\":1334:1347  _checkOwner() */\n      jump\t// in\n        /* \"lib/contracts-upgradeable/proxy/ERC1967/ERC1967UpgradeUpgradeable.sol\":2884:3858  function _upgradeToAndCallUUPS(... */\n    tag_425:\n        /* \"lib/contracts-upgradeable/proxy/ERC1967/ERC1967UpgradeUpgradeable.sol\":1023:1089  0x4910fdfa16fed3260ed0e7147f7cc6da11a60208b5b9406d12a635614ffd9143 */\n      0x4910fdfa16fed3260ed0e7147f7cc6da11a60208b5b9406d12a635614ffd9143\n        /* \"lib/contracts-upgradeable/proxy/ERC1967/ERC1967UpgradeUpgradeable.sol\":3330:3389  StorageSlotUpgradeable.getBooleanSlot(_ROLLBACK_SLOT).value */\n      sload\n      0xff\n      and\n        /* \"lib/contracts-upgradeable/proxy/ERC1967/ERC1967UpgradeUpgradeable.sol\":3326:3852  if (StorageSlotUpgradeable.getBooleanSlot(_ROLLBACK_SLOT).value) {... */\n      iszero\n      tag_637\n      jumpi\n        /* \"lib/contracts-upgradeable/proxy/ERC1967/ERC1967UpgradeUpgradeable.sol\":3405:3442  _setImplementation(newImplementation) */\n      tag_436\n        /* \"lib/contracts-upgradeable/proxy/ERC1967/ERC1967UpgradeUpgradeable.sol\":3424:3441  newImplementation */\n      dup4\n        /* \"lib/contracts-upgradeable/proxy/ERC1967/ERC1967UpgradeUpgradeable.sol\":3405:3423  _setImplementation */\n      tag_639\n        /* \"lib/contracts-upgradeable/proxy/ERC1967/ERC1967UpgradeUpgradeable.sol\":3405:3442  _setImplementation(newImplementation) */\n      jump\t// in\n        /* \"lib/contracts-upgradeable/proxy/ERC1967/ERC1967UpgradeUpgradeable.sol\":3326:3852  if (StorageSlotUpgradeable.getBooleanSlot(_ROLLBACK_SLOT).value) {... */\n    tag_637:\n        /* \"lib/contracts-upgradeable/proxy/ERC1967/ERC1967UpgradeUpgradeable.sol\":3506:3523  newImplementation */\n      dup3\n      sub(shl(0xa0, 0x01), 0x01)\n        /* \"lib/contracts-upgradeable/proxy/ERC1967/ERC1967UpgradeUpgradeable.sol\":3477:3538  IERC1822ProxiableUpgradeable(newImplementation).proxiableUUID */\n      and\n      0x52d1902d\n        /* \"lib/contracts-upgradeable/proxy/ERC1967/ERC1967UpgradeUpgradeable.sol\":3477:3540  IERC1822ProxiableUpgradeable(newImplementation).proxiableUUID() */\n      mload(0x40)\n      dup2\n      0xffffffff\n      and\n      0xe0\n      shl\n      dup2\n      mstore\n      0x04\n      add\n      0x20\n      mload(0x40)\n      dup1\n      dup4\n      sub\n      dup2\n      dup7\n      gas\n      staticcall\n      swap3\n      pop\n      pop\n      pop\n      dup1\n      iszero\n      tag_641\n      jumpi\n      pop\n      0x40\n      dup1\n      mload\n      0x1f\n      returndatasize\n      swap1\n      dup2\n      add\n      not(0x1f)\n      and\n      dup3\n      add\n      swap1\n      swap3\n      mstore\n      tag_642\n      swap2\n      dup2\n      add\n      swap1\n      tag_643\n      jump\t// in\n    tag_642:\n      0x01\n    tag_641:\n        /* \"lib/contracts-upgradeable/proxy/ERC1967/ERC1967UpgradeUpgradeable.sol\":3473:3775  try IERC1822ProxiableUpgradeable(newImplementation).proxiableUUID() returns (bytes32 slot) {... */\n      tag_644\n      jumpi\n        /* \"lib/contracts-upgradeable/proxy/ERC1967/ERC1967UpgradeUpgradeable.sol\":3704:3760  revert(\"ERC1967Upgrade: new implementation is not UUPS\") */\n      mload(0x40)\n      shl(0xe5, 0x461bcd)\n      dup2\n      mstore\n        /* \"#utility.yul\":12120:12122   */\n      0x20\n        /* \"lib/contracts-upgradeable/proxy/ERC1967/ERC1967UpgradeUpgradeable.sol\":3704:3760  revert(\"ERC1967Upgrade: new implementation is not UUPS\") */\n      0x04\n      dup3\n      add\n        /* \"#utility.yul\":12102:12123   */\n      mstore\n        /* \"#utility.yul\":12159:12161   */\n      0x2e\n        /* \"#utility.yul\":12139:12157   */\n      0x24\n      dup3\n      add\n        /* \"#utility.yul\":12132:12162   */\n      mstore\n        /* \"#utility.yul\":12198:12232   */\n      0x45524331393637557067726164653a206e657720696d706c656d656e74617469\n        /* \"#utility.yul\":12178:12196   */\n      0x44\n      dup3\n      add\n        /* \"#utility.yul\":12171:12233   */\n      mstore\n      shl(0x90, 0x6f6e206973206e6f742055555053)\n        /* \"#utility.yul\":12249:12267   */\n      0x64\n      dup3\n      add\n        /* \"#utility.yul\":12242:12286   */\n      mstore\n        /* \"#utility.yul\":12303:12322   */\n      0x84\n      add\n        /* \"lib/contracts-upgradeable/proxy/ERC1967/ERC1967UpgradeUpgradeable.sol\":3704:3760  revert(\"ERC1967Upgrade: new implementation is not UUPS\") */\n      tag_355\n        /* \"#utility.yul\":11918:12328   */\n      jump\n        /* \"lib/contracts-upgradeable/proxy/ERC1967/ERC1967UpgradeUpgradeable.sol\":3473:3775  try IERC1822ProxiableUpgradeable(newImplementation).proxiableUUID() returns (bytes32 slot) {... */\n    tag_644:\n      0x00\n      dup1\n      mload\n      0x20\n      data_75b20eef8615de99c108b05f0dbda081c91897128caa336d75dffb97c4132b4d\n      dup4\n      codecopy\n      dup2\n      mload\n      swap2\n      mstore\n        /* \"lib/contracts-upgradeable/proxy/ERC1967/ERC1967UpgradeUpgradeable.sol\":3590:3618  slot == _IMPLEMENTATION_SLOT */\n      dup2\n      eq\n        /* \"lib/contracts-upgradeable/proxy/ERC1967/ERC1967UpgradeUpgradeable.sol\":3582:3664  require(slot == _IMPLEMENTATION_SLOT, \"ERC1967Upgrade: unsupported proxiableUUID\") */\n      tag_651\n      jumpi\n      mload(0x40)\n      shl(0xe5, 0x461bcd)\n      dup2\n      mstore\n        /* \"#utility.yul\":12535:12537   */\n      0x20\n        /* \"lib/contracts-upgradeable/proxy/ERC1967/ERC1967UpgradeUpgradeable.sol\":3582:3664  require(slot == _IMPLEMENTATION_SLOT, \"ERC1967Upgrade: unsupported proxiableUUID\") */\n      0x04\n      dup3\n      add\n        /* \"#utility.yul\":12517:12538   */\n      mstore\n        /* \"#utility.yul\":12574:12576   */\n      0x29\n        /* \"#utility.yul\":12554:12572   */\n      0x24\n      dup3\n      add\n        /* \"#utility.yul\":12547:12577   */\n      mstore\n        /* \"#utility.yul\":12613:12647   */\n      0x45524331393637557067726164653a20756e737570706f727465642070726f78\n        /* \"#utility.yul\":12593:12611   */\n      0x44\n      dup3\n      add\n        /* \"#utility.yul\":12586:12648   */\n      mstore\n      shl(0xba, 0x1a58589b1955555251)\n        /* \"#utility.yul\":12664:12682   */\n      0x64\n      dup3\n      add\n        /* \"#utility.yul\":12657:12696   */\n      mstore\n        /* \"#utility.yul\":12713:12732   */\n      0x84\n      add\n        /* \"lib/contracts-upgradeable/proxy/ERC1967/ERC1967UpgradeUpgradeable.sol\":3582:3664  require(slot == _IMPLEMENTATION_SLOT, \"ERC1967Upgrade: unsupported proxiableUUID\") */\n      tag_355\n        /* \"#utility.yul\":12333:12738   */\n      jump\n        /* \"lib/contracts-upgradeable/proxy/ERC1967/ERC1967UpgradeUpgradeable.sol\":3582:3664  require(slot == _IMPLEMENTATION_SLOT, \"ERC1967Upgrade: unsupported proxiableUUID\") */\n    tag_651:\n        /* \"lib/contracts-upgradeable/proxy/ERC1967/ERC1967UpgradeUpgradeable.sol\":3541:3679  returns (bytes32 slot) {... */\n      pop\n        /* \"lib/contracts-upgradeable/proxy/ERC1967/ERC1967UpgradeUpgradeable.sol\":3788:3841  _upgradeToAndCall(newImplementation, data, forceCall) */\n      tag_436\n        /* \"lib/contracts-upgradeable/proxy/ERC1967/ERC1967UpgradeUpgradeable.sol\":3806:3823  newImplementation */\n      dup4\n        /* \"lib/contracts-upgradeable/proxy/ERC1967/ERC1967UpgradeUpgradeable.sol\":3825:3829  data */\n      dup4\n        /* \"lib/contracts-upgradeable/proxy/ERC1967/ERC1967UpgradeUpgradeable.sol\":3831:3840  forceCall */\n      dup4\n        /* \"lib/contracts-upgradeable/proxy/ERC1967/ERC1967UpgradeUpgradeable.sol\":3788:3805  _upgradeToAndCall */\n      tag_655\n        /* \"lib/contracts-upgradeable/proxy/ERC1967/ERC1967UpgradeUpgradeable.sol\":3788:3841  _upgradeToAndCall(newImplementation, data, forceCall) */\n      jump\t// in\n        /* \"lib/contracts-upgradeable/access/OwnableUpgradeable.sol\":2673:2860  function _transferOwnership(address newOwner) internal virtual {... */\n    tag_508:\n        /* \"lib/contracts-upgradeable/access/OwnableUpgradeable.sol\":2765:2771  _owner */\n      0x33\n      dup1\n      sload\n      sub(shl(0xa0, 0x01), 0x01)\n        /* \"lib/contracts-upgradeable/access/OwnableUpgradeable.sol\":2781:2798  _owner = newOwner */\n      dup4\n      dup2\n      and\n      not(sub(shl(0xa0, 0x01), 0x01))\n      dup4\n      and\n      dup2\n      or\n      swap1\n      swap4\n      sstore\n        /* \"lib/contracts-upgradeable/access/OwnableUpgradeable.sol\":2813:2853  OwnershipTransferred(oldOwner, newOwner) */\n      mload(0x40)\n        /* \"lib/contracts-upgradeable/access/OwnableUpgradeable.sol\":2765:2771  _owner */\n      swap2\n      and\n      swap2\n        /* \"lib/contracts-upgradeable/access/OwnableUpgradeable.sol\":2781:2798  _owner = newOwner */\n      swap1\n        /* \"lib/contracts-upgradeable/access/OwnableUpgradeable.sol\":2765:2771  _owner */\n      dup3\n      swap1\n        /* \"lib/contracts-upgradeable/access/OwnableUpgradeable.sol\":2813:2853  OwnershipTransferred(oldOwner, newOwner) */\n      0x8be0079c531659141344cd1fd0a4f28419497f9722a3daafe3b4186f6b6457e0\n      swap1\n        /* \"lib/contracts-upgradeable/access/OwnableUpgradeable.sol\":2746:2762  address oldOwner */\n      0x00\n      swap1\n        /* \"lib/contracts-upgradeable/access/OwnableUpgradeable.sol\":2813:2853  OwnershipTransferred(oldOwner, newOwner) */\n      log3\n        /* \"lib/contracts-upgradeable/access/OwnableUpgradeable.sol\":2736:2860  {... */\n      pop\n        /* \"lib/contracts-upgradeable/access/OwnableUpgradeable.sol\":2673:2860  function _transferOwnership(address newOwner) internal virtual {... */\n      pop\n      jump\t// out\n        /* \"lib/contracts-upgradeable/utils/AddressUpgradeable.sol\":1186:1506  function isContract(address account) internal view returns (bool) {... */\n    tag_565:\n      sub(shl(0xa0, 0x01), 0x01)\n        /* \"lib/contracts-upgradeable/utils/AddressUpgradeable.sol\":1476:1495  account.code.length */\n      and\n      extcodesize\n        /* \"lib/contracts-upgradeable/utils/AddressUpgradeable.sol\":1476:1499  account.code.length > 0 */\n      iszero\n      iszero\n      swap1\n        /* \"lib/contracts-upgradeable/utils/AddressUpgradeable.sol\":1186:1506  function isContract(address account) internal view returns (bool) {... */\n      jump\t// out\n        /* \"lib/contracts-upgradeable/access/OwnableUpgradeable.sol\":1003:1098  function __Ownable_init() internal onlyInitializing {... */\n    tag_573:\n        /* \"lib/contracts-upgradeable/proxy/utils/Initializable.sol\":5363:5376  _initializing */\n      sload(0x00)\n      0x0100\n      swap1\n      div\n      0xff\n      and\n        /* \"lib/contracts-upgradeable/proxy/utils/Initializable.sol\":5355:5424  require(_initializing, \"Initializable: contract is not initializing\") */\n      tag_659\n      jumpi\n      mload(0x40)\n      shl(0xe5, 0x461bcd)\n      dup2\n      mstore\n      0x04\n      add\n      tag_355\n      swap1\n      tag_661\n      jump\t// in\n    tag_659:\n        /* \"lib/contracts-upgradeable/access/OwnableUpgradeable.sol\":1065:1091  __Ownable_init_unchained() */\n      tag_507\n        /* \"lib/contracts-upgradeable/access/OwnableUpgradeable.sol\":1065:1089  __Ownable_init_unchained */\n      tag_664\n        /* \"lib/contracts-upgradeable/access/OwnableUpgradeable.sol\":1065:1091  __Ownable_init_unchained() */\n      jump\t// in\n        /* \"lib/contracts-upgradeable/proxy/ERC1967/ERC1967UpgradeUpgradeable.sol\":1751:2032  function _setImplementation(address newImplementation) private {... */\n    tag_639:\n        /* \"lib/contracts-upgradeable/proxy/ERC1967/ERC1967UpgradeUpgradeable.sol\":1832:1880  AddressUpgradeable.isContract(newImplementation) */\n      tag_669\n        /* \"lib/contracts-upgradeable/proxy/ERC1967/ERC1967UpgradeUpgradeable.sol\":1862:1879  newImplementation */\n      dup2\n        /* \"lib/contracts-upgradeable/proxy/ERC1967/ERC1967UpgradeUpgradeable.sol\":1832:1861  AddressUpgradeable.isContract */\n      tag_565\n        /* \"lib/contracts-upgradeable/proxy/ERC1967/ERC1967UpgradeUpgradeable.sol\":1832:1880  AddressUpgradeable.isContract(newImplementation) */\n      jump\t// in\n    tag_669:\n        /* \"lib/contracts-upgradeable/proxy/ERC1967/ERC1967UpgradeUpgradeable.sol\":1824:1930  require(AddressUpgradeable.isContract(newImplementation), \"ERC1967: new implementation is not a contract\") */\n      tag_670\n      jumpi\n      mload(0x40)\n      shl(0xe5, 0x461bcd)\n      dup2\n      mstore\n        /* \"#utility.yul\":13357:13359   */\n      0x20\n        /* \"lib/contracts-upgradeable/proxy/ERC1967/ERC1967UpgradeUpgradeable.sol\":1824:1930  require(AddressUpgradeable.isContract(newImplementation), \"ERC1967: new implementation is not a contract\") */\n      0x04\n      dup3\n      add\n        /* \"#utility.yul\":13339:13360   */\n      mstore\n        /* \"#utility.yul\":13396:13398   */\n      0x2d\n        /* \"#utility.yul\":13376:13394   */\n      0x24\n      dup3\n      add\n        /* \"#utility.yul\":13369:13399   */\n      mstore\n        /* \"#utility.yul\":13435:13469   */\n      0x455243313936373a206e657720696d706c656d656e746174696f6e206973206e\n        /* \"#utility.yul\":13415:13433   */\n      0x44\n      dup3\n      add\n        /* \"#utility.yul\":13408:13470   */\n      mstore\n      shl(0x9a, 0x1bdd08184818dbdb9d1c9858dd)\n        /* \"#utility.yul\":13486:13504   */\n      0x64\n      dup3\n      add\n        /* \"#utility.yul\":13479:13522   */\n      mstore\n        /* \"#utility.yul\":13539:13558   */\n      0x84\n      add\n        /* \"lib/contracts-upgradeable/proxy/ERC1967/ERC1967UpgradeUpgradeable.sol\":1824:1930  require(AddressUpgradeable.isContract(newImplementation), \"ERC1967: new implementation is not a contract\") */\n      tag_355\n        /* \"#utility.yul\":13155:13564   */\n      jump\n        /* \"lib/contracts-upgradeable/proxy/ERC1967/ERC1967UpgradeUpgradeable.sol\":1824:1930  require(AddressUpgradeable.isContract(newImplementation), \"ERC1967: new implementation is not a contract\") */\n    tag_670:\n      0x00\n      dup1\n      mload\n      0x20\n      data_75b20eef8615de99c108b05f0dbda081c91897128caa336d75dffb97c4132b4d\n      dup4\n      codecopy\n      dup2\n      mload\n      swap2\n      mstore\n        /* \"lib/contracts-upgradeable/proxy/ERC1967/ERC1967UpgradeUpgradeable.sol\":1940:2025  StorageSlotUpgradeable.getAddressSlot(_IMPLEMENTATION_SLOT).value = newImplementation */\n      dup1\n      sload\n      not(sub(shl(0xa0, 0x01), 0x01))\n      and\n      sub(shl(0xa0, 0x01), 0x01)\n      swap3\n      swap1\n      swap3\n      and\n      swap2\n      swap1\n      swap2\n      or\n      swap1\n      sstore\n        /* \"lib/contracts-upgradeable/proxy/ERC1967/ERC1967UpgradeUpgradeable.sol\":1751:2032  function _setImplementation(address newImplementation) private {... */\n      jump\t// out\n        /* \"lib/contracts-upgradeable/proxy/ERC1967/ERC1967UpgradeUpgradeable.sol\":2424:2712  function _upgradeToAndCall(... */\n    tag_655:\n        /* \"lib/contracts-upgradeable/proxy/ERC1967/ERC1967UpgradeUpgradeable.sol\":2562:2591  _upgradeTo(newImplementation) */\n      tag_675\n        /* \"lib/contracts-upgradeable/proxy/ERC1967/ERC1967UpgradeUpgradeable.sol\":2573:2590  newImplementation */\n      dup4\n        /* \"lib/contracts-upgradeable/proxy/ERC1967/ERC1967UpgradeUpgradeable.sol\":2562:2572  _upgradeTo */\n      tag_676\n        /* \"lib/contracts-upgradeable/proxy/ERC1967/ERC1967UpgradeUpgradeable.sol\":2562:2591  _upgradeTo(newImplementation) */\n      jump\t// in\n    tag_675:\n        /* \"lib/contracts-upgradeable/proxy/ERC1967/ERC1967UpgradeUpgradeable.sol\":2619:2620  0 */\n      0x00\n        /* \"lib/contracts-upgradeable/proxy/ERC1967/ERC1967UpgradeUpgradeable.sol\":2605:2609  data */\n      dup3\n        /* \"lib/contracts-upgradeable/proxy/ERC1967/ERC1967UpgradeUpgradeable.sol\":2605:2616  data.length */\n      mload\n        /* \"lib/contracts-upgradeable/proxy/ERC1967/ERC1967UpgradeUpgradeable.sol\":2605:2620  data.length > 0 */\n      gt\n        /* \"lib/contracts-upgradeable/proxy/ERC1967/ERC1967UpgradeUpgradeable.sol\":2605:2633  data.length > 0 || forceCall */\n      dup1\n      tag_677\n      jumpi\n      pop\n        /* \"lib/contracts-upgradeable/proxy/ERC1967/ERC1967UpgradeUpgradeable.sol\":2624:2633  forceCall */\n      dup1\n        /* \"lib/contracts-upgradeable/proxy/ERC1967/ERC1967UpgradeUpgradeable.sol\":2605:2633  data.length > 0 || forceCall */\n    tag_677:\n        /* \"lib/contracts-upgradeable/proxy/ERC1967/ERC1967UpgradeUpgradeable.sol\":2601:2706  if (data.length > 0 || forceCall) {... */\n      iszero\n      tag_436\n      jumpi\n        /* \"lib/contracts-upgradeable/proxy/ERC1967/ERC1967UpgradeUpgradeable.sol\":2649:2695  _functionDelegateCall(newImplementation, data) */\n      tag_679\n        /* \"lib/contracts-upgradeable/proxy/ERC1967/ERC1967UpgradeUpgradeable.sol\":2671:2688  newImplementation */\n      dup4\n        /* \"lib/contracts-upgradeable/proxy/ERC1967/ERC1967UpgradeUpgradeable.sol\":2690:2694  data */\n      dup4\n        /* \"lib/contracts-upgradeable/proxy/ERC1967/ERC1967UpgradeUpgradeable.sol\":2649:2670  _functionDelegateCall */\n      tag_680\n        /* \"lib/contracts-upgradeable/proxy/ERC1967/ERC1967UpgradeUpgradeable.sol\":2649:2695  _functionDelegateCall(newImplementation, data) */\n      jump\t// in\n    tag_679:\n      pop\n        /* \"lib/contracts-upgradeable/proxy/ERC1967/ERC1967UpgradeUpgradeable.sol\":2424:2712  function _upgradeToAndCall(... */\n      pop\n      pop\n      pop\n      jump\t// out\n        /* \"lib/contracts-upgradeable/access/OwnableUpgradeable.sol\":1104:1215  function __Ownable_init_unchained() internal onlyInitializing {... */\n    tag_664:\n        /* \"lib/contracts-upgradeable/proxy/utils/Initializable.sol\":5363:5376  _initializing */\n      sload(0x00)\n      0x0100\n      swap1\n      div\n      0xff\n      and\n        /* \"lib/contracts-upgradeable/proxy/utils/Initializable.sol\":5355:5424  require(_initializing, \"Initializable: contract is not initializing\") */\n      tag_682\n      jumpi\n      mload(0x40)\n      shl(0xe5, 0x461bcd)\n      dup2\n      mstore\n      0x04\n      add\n      tag_355\n      swap1\n      tag_661\n      jump\t// in\n    tag_682:\n        /* \"lib/contracts-upgradeable/access/OwnableUpgradeable.sol\":1176:1208  _transferOwnership(_msgSender()) */\n      tag_507\n        /* \"lib/contracts-upgradeable/utils/ContextUpgradeable.sol\":929:939  msg.sender */\n      caller\n        /* \"lib/contracts-upgradeable/access/OwnableUpgradeable.sol\":1176:1194  _transferOwnership */\n      tag_508\n        /* \"lib/contracts-upgradeable/access/OwnableUpgradeable.sol\":1176:1208  _transferOwnership(_msgSender()) */\n      jump\t// in\n        /* \"lib/contracts-upgradeable/proxy/ERC1967/ERC1967UpgradeUpgradeable.sol\":2138:2290  function _upgradeTo(address newImplementation) internal {... */\n    tag_676:\n        /* \"lib/contracts-upgradeable/proxy/ERC1967/ERC1967UpgradeUpgradeable.sol\":2204:2241  _setImplementation(newImplementation) */\n      tag_688\n        /* \"lib/contracts-upgradeable/proxy/ERC1967/ERC1967UpgradeUpgradeable.sol\":2223:2240  newImplementation */\n      dup2\n        /* \"lib/contracts-upgradeable/proxy/ERC1967/ERC1967UpgradeUpgradeable.sol\":2204:2222  _setImplementation */\n      tag_639\n        /* \"lib/contracts-upgradeable/proxy/ERC1967/ERC1967UpgradeUpgradeable.sol\":2204:2241  _setImplementation(newImplementation) */\n      jump\t// in\n    tag_688:\n        /* \"lib/contracts-upgradeable/proxy/ERC1967/ERC1967UpgradeUpgradeable.sol\":2256:2283  Upgraded(newImplementation) */\n      mload(0x40)\n      sub(shl(0xa0, 0x01), 0x01)\n      dup3\n      and\n      swap1\n      0xbc7cd75a20ee27fd9adebab32041f755214dbc6bffa90cc0225b39da2e5c2d3b\n      swap1\n      0x00\n      swap1\n      log2\n        /* \"lib/contracts-upgradeable/proxy/ERC1967/ERC1967UpgradeUpgradeable.sol\":2138:2290  function _upgradeTo(address newImplementation) internal {... */\n      pop\n      jump\t// out\n        /* \"lib/contracts-upgradeable/proxy/ERC1967/ERC1967UpgradeUpgradeable.sol\":6780:7235  function _functionDelegateCall(address target, bytes memory data) private returns (bytes memory) {... */\n    tag_680:\n        /* \"lib/contracts-upgradeable/proxy/ERC1967/ERC1967UpgradeUpgradeable.sol\":6863:6875  bytes memory */\n      0x60\n        /* \"lib/contracts-upgradeable/proxy/ERC1967/ERC1967UpgradeUpgradeable.sol\":6895:6932  AddressUpgradeable.isContract(target) */\n      tag_690\n        /* \"lib/contracts-upgradeable/proxy/ERC1967/ERC1967UpgradeUpgradeable.sol\":6925:6931  target */\n      dup4\n        /* \"lib/contracts-upgradeable/proxy/ERC1967/ERC1967UpgradeUpgradeable.sol\":6895:6924  AddressUpgradeable.isContract */\n      tag_565\n        /* \"lib/contracts-upgradeable/proxy/ERC1967/ERC1967UpgradeUpgradeable.sol\":6895:6932  AddressUpgradeable.isContract(target) */\n      jump\t// in\n    tag_690:\n        /* \"lib/contracts-upgradeable/proxy/ERC1967/ERC1967UpgradeUpgradeable.sol\":6887:6975  require(AddressUpgradeable.isContract(target), \"Address: delegate call to non-contract\") */\n      tag_691\n      jumpi\n      mload(0x40)\n      shl(0xe5, 0x461bcd)\n      dup2\n      mstore\n        /* \"#utility.yul\":13771:13773   */\n      0x20\n        /* \"lib/contracts-upgradeable/proxy/ERC1967/ERC1967UpgradeUpgradeable.sol\":6887:6975  require(AddressUpgradeable.isContract(target), \"Address: delegate call to non-contract\") */\n      0x04\n      dup3\n      add\n        /* \"#utility.yul\":13753:13774   */\n      mstore\n        /* \"#utility.yul\":13810:13812   */\n      0x26\n        /* \"#utility.yul\":13790:13808   */\n      0x24\n      dup3\n      add\n        /* \"#utility.yul\":13783:13813   */\n      mstore\n        /* \"#utility.yul\":13849:13883   */\n      0x416464726573733a2064656c65676174652063616c6c20746f206e6f6e2d636f\n        /* \"#utility.yul\":13829:13847   */\n      0x44\n      dup3\n      add\n        /* \"#utility.yul\":13822:13884   */\n      mstore\n      shl(0xd2, 0x1b9d1c9858dd)\n        /* \"#utility.yul\":13900:13918   */\n      0x64\n      dup3\n      add\n        /* \"#utility.yul\":13893:13929   */\n      mstore\n        /* \"#utility.yul\":13946:13965   */\n      0x84\n      add\n        /* \"lib/contracts-upgradeable/proxy/ERC1967/ERC1967UpgradeUpgradeable.sol\":6887:6975  require(AddressUpgradeable.isContract(target), \"Address: delegate call to non-contract\") */\n      tag_355\n        /* \"#utility.yul\":13569:13971   */\n      jump\n        /* \"lib/contracts-upgradeable/proxy/ERC1967/ERC1967UpgradeUpgradeable.sol\":6887:6975  require(AddressUpgradeable.isContract(target), \"Address: delegate call to non-contract\") */\n    tag_691:\n        /* \"lib/contracts-upgradeable/proxy/ERC1967/ERC1967UpgradeUpgradeable.sol\":7046:7058  bool success */\n      0x00\n        /* \"lib/contracts-upgradeable/proxy/ERC1967/ERC1967UpgradeUpgradeable.sol\":7060:7083  bytes memory returndata */\n      dup1\n        /* \"lib/contracts-upgradeable/proxy/ERC1967/ERC1967UpgradeUpgradeable.sol\":7087:7093  target */\n      dup5\n      sub(shl(0xa0, 0x01), 0x01)\n        /* \"lib/contracts-upgradeable/proxy/ERC1967/ERC1967UpgradeUpgradeable.sol\":7087:7106  target.delegatecall */\n      and\n        /* \"lib/contracts-upgradeable/proxy/ERC1967/ERC1967UpgradeUpgradeable.sol\":7107:7111  data */\n      dup5\n        /* \"lib/contracts-upgradeable/proxy/ERC1967/ERC1967UpgradeUpgradeable.sol\":7087:7112  target.delegatecall(data) */\n      mload(0x40)\n      tag_694\n      swap2\n      swap1\n      tag_695\n      jump\t// in\n    tag_694:\n      0x00\n      mload(0x40)\n      dup1\n      dup4\n      sub\n      dup2\n      dup6\n      gas\n      delegatecall\n      swap2\n      pop\n      pop\n      returndatasize\n      dup1\n      0x00\n      dup2\n      eq\n      tag_698\n      jumpi\n      mload(0x40)\n      swap2\n      pop\n      and(add(returndatasize, 0x3f), not(0x1f))\n      dup3\n      add\n      0x40\n      mstore\n      returndatasize\n      dup3\n      mstore\n      returndatasize\n      0x00\n      0x20\n      dup5\n      add\n      returndatacopy\n      jump(tag_697)\n    tag_698:\n      0x60\n      swap2\n      pop\n    tag_697:\n      pop\n        /* \"lib/contracts-upgradeable/proxy/ERC1967/ERC1967UpgradeUpgradeable.sol\":7045:7112  (bool success, bytes memory returndata) = target.delegatecall(data) */\n      swap2\n      pop\n      swap2\n      pop\n        /* \"lib/contracts-upgradeable/proxy/ERC1967/ERC1967UpgradeUpgradeable.sol\":7129:7228  AddressUpgradeable.verifyCallResult(success, returndata, \"Address: low-level delegate call failed\") */\n      tag_699\n        /* \"lib/contracts-upgradeable/proxy/ERC1967/ERC1967UpgradeUpgradeable.sol\":7165:7172  success */\n      dup3\n        /* \"lib/contracts-upgradeable/proxy/ERC1967/ERC1967UpgradeUpgradeable.sol\":7174:7184  returndata */\n      dup3\n        /* \"lib/contracts-upgradeable/proxy/ERC1967/ERC1967UpgradeUpgradeable.sol\":7129:7228  AddressUpgradeable.verifyCallResult(success, returndata, \"Address: low-level delegate call failed\") */\n      mload(0x40)\n      dup1\n      0x60\n      add\n      0x40\n      mstore\n      dup1\n      0x27\n      dup2\n      mstore\n      0x20\n      add\n      data_9fdcd12e4b726339b32a442b0a448365d5d85c96b2d2cff917b4f66c63110398\n      0x27\n      swap2\n      codecopy\n        /* \"lib/contracts-upgradeable/proxy/ERC1967/ERC1967UpgradeUpgradeable.sol\":7129:7164  AddressUpgradeable.verifyCallResult */\n      tag_700\n        /* \"lib/contracts-upgradeable/proxy/ERC1967/ERC1967UpgradeUpgradeable.sol\":7129:7228  AddressUpgradeable.verifyCallResult(success, returndata, \"Address: low-level delegate call failed\") */\n      jump\t// in\n    tag_699:\n        /* \"lib/contracts-upgradeable/proxy/ERC1967/ERC1967UpgradeUpgradeable.sol\":7122:7228  return AddressUpgradeable.verifyCallResult(success, returndata, \"Address: low-level delegate call failed\") */\n      swap6\n        /* \"lib/contracts-upgradeable/proxy/ERC1967/ERC1967UpgradeUpgradeable.sol\":6780:7235  function _functionDelegateCall(address target, bytes memory data) private returns (bytes memory) {... */\n      swap5\n      pop\n      pop\n      pop\n      pop\n      pop\n      jump\t// out\n        /* \"lib/contracts-upgradeable/utils/AddressUpgradeable.sol\":7438:7733  function verifyCallResult(... */\n    tag_700:\n        /* \"lib/contracts-upgradeable/utils/AddressUpgradeable.sol\":7584:7596  bytes memory */\n      0x60\n        /* \"lib/contracts-upgradeable/utils/AddressUpgradeable.sol\":7612:7619  success */\n      dup4\n        /* \"lib/contracts-upgradeable/utils/AddressUpgradeable.sol\":7608:7727  if (success) {... */\n      iszero\n      tag_702\n      jumpi\n      pop\n        /* \"lib/contracts-upgradeable/utils/AddressUpgradeable.sol\":7642:7652  returndata */\n      dup2\n        /* \"lib/contracts-upgradeable/utils/AddressUpgradeable.sol\":7635:7652  return returndata */\n      jump(tag_704)\n        /* \"lib/contracts-upgradeable/utils/AddressUpgradeable.sol\":7608:7727  if (success) {... */\n    tag_702:\n        /* \"lib/contracts-upgradeable/utils/AddressUpgradeable.sol\":7683:7716  _revert(returndata, errorMessage) */\n      tag_704\n        /* \"lib/contracts-upgradeable/utils/AddressUpgradeable.sol\":7691:7701  returndata */\n      dup4\n        /* \"lib/contracts-upgradeable/utils/AddressUpgradeable.sol\":7703:7715  errorMessage */\n      dup4\n        /* \"lib/contracts-upgradeable/utils/AddressUpgradeable.sol\":7683:7690  _revert */\n      tag_705\n        /* \"lib/contracts-upgradeable/utils/AddressUpgradeable.sol\":7683:7716  _revert(returndata, errorMessage) */\n      jump\t// in\n    tag_704:\n        /* \"lib/contracts-upgradeable/utils/AddressUpgradeable.sol\":7438:7733  function verifyCallResult(... */\n      swap4\n      swap3\n      pop\n      pop\n      pop\n      jump\t// out\n        /* \"lib/contracts-upgradeable/utils/AddressUpgradeable.sol\":7739:8279  function _revert(bytes memory returndata, string memory errorMessage) private pure {... */\n    tag_705:\n        /* \"lib/contracts-upgradeable/utils/AddressUpgradeable.sol\":7898:7915  returndata.length */\n      dup2\n      mload\n        /* \"lib/contracts-upgradeable/utils/AddressUpgradeable.sol\":7898:7919  returndata.length > 0 */\n      iszero\n        /* \"lib/contracts-upgradeable/utils/AddressUpgradeable.sol\":7894:8273  if (returndata.length > 0) {... */\n      tag_707\n      jumpi\n        /* \"lib/contracts-upgradeable/utils/AddressUpgradeable.sol\":8126:8136  returndata */\n      dup2\n        /* \"lib/contracts-upgradeable/utils/AddressUpgradeable.sol\":8120:8137  mload(returndata) */\n      mload\n        /* \"lib/contracts-upgradeable/utils/AddressUpgradeable.sol\":8182:8197  returndata_size */\n      dup1\n        /* \"lib/contracts-upgradeable/utils/AddressUpgradeable.sol\":8169:8179  returndata */\n      dup4\n        /* \"lib/contracts-upgradeable/utils/AddressUpgradeable.sol\":8165:8167  32 */\n      0x20\n        /* \"lib/contracts-upgradeable/utils/AddressUpgradeable.sol\":8161:8180  add(32, returndata) */\n      add\n        /* \"lib/contracts-upgradeable/utils/AddressUpgradeable.sol\":8154:8198  revert(add(32, returndata), returndata_size) */\n      revert\n        /* \"lib/contracts-upgradeable/utils/AddressUpgradeable.sol\":7894:8273  if (returndata.length > 0) {... */\n    tag_707:\n        /* \"lib/contracts-upgradeable/utils/AddressUpgradeable.sol\":8249:8261  errorMessage */\n      dup1\n        /* \"lib/contracts-upgradeable/utils/AddressUpgradeable.sol\":8242:8262  revert(errorMessage) */\n      mload(0x40)\n      shl(0xe5, 0x461bcd)\n      dup2\n      mstore\n      0x04\n      add\n      tag_355\n      swap2\n      swap1\n      tag_710\n      jump\t// in\n        /* \"#utility.yul\":14:194   */\n    tag_71:\n        /* \"#utility.yul\":73:79   */\n      0x00\n        /* \"#utility.yul\":126:128   */\n      0x20\n        /* \"#utility.yul\":114:123   */\n      dup3\n        /* \"#utility.yul\":105:112   */\n      dup5\n        /* \"#utility.yul\":101:124   */\n      sub\n        /* \"#utility.yul\":97:129   */\n      slt\n        /* \"#utility.yul\":94:146   */\n      iszero\n      tag_719\n      jumpi\n        /* \"#utility.yul\":142:143   */\n      0x00\n        /* \"#utility.yul\":139:140   */\n      dup1\n        /* \"#utility.yul\":132:144   */\n      revert\n        /* \"#utility.yul\":94:146   */\n    tag_719:\n      pop\n        /* \"#utility.yul\":165:188   */\n      calldataload\n      swap2\n        /* \"#utility.yul\":14:194   */\n      swap1\n      pop\n      jump\t// out\n        /* \"#utility.yul\":407:580   */\n    tag_711:\n        /* \"#utility.yul\":475:495   */\n      dup1\n      calldataload\n      sub(shl(0xa0, 0x01), 0x01)\n        /* \"#utility.yul\":524:555   */\n      dup2\n      and\n        /* \"#utility.yul\":514:556   */\n      dup2\n      eq\n        /* \"#utility.yul\":504:574   */\n      tag_722\n      jumpi\n        /* \"#utility.yul\":570:571   */\n      0x00\n        /* \"#utility.yul\":567:568   */\n      dup1\n        /* \"#utility.yul\":560:572   */\n      revert\n        /* \"#utility.yul\":504:574   */\n    tag_722:\n        /* \"#utility.yul\":407:580   */\n      swap2\n      swap1\n      pop\n      jump\t// out\n        /* \"#utility.yul\":585:771   */\n    tag_78:\n        /* \"#utility.yul\":644:650   */\n      0x00\n        /* \"#utility.yul\":697:699   */\n      0x20\n        /* \"#utility.yul\":685:694   */\n      dup3\n        /* \"#utility.yul\":676:683   */\n      dup5\n        /* \"#utility.yul\":672:695   */\n      sub\n        /* \"#utility.yul\":668:700   */\n      slt\n        /* \"#utility.yul\":665:717   */\n      iszero\n      tag_724\n      jumpi\n        /* \"#utility.yul\":713:714   */\n      0x00\n        /* \"#utility.yul\":710:711   */\n      dup1\n        /* \"#utility.yul\":703:715   */\n      revert\n        /* \"#utility.yul\":665:717   */\n    tag_724:\n        /* \"#utility.yul\":736:765   */\n      tag_704\n        /* \"#utility.yul\":755:764   */\n      dup3\n        /* \"#utility.yul\":736:765   */\n      tag_711\n      jump\t// in\n        /* \"#utility.yul\":958:1419   */\n    tag_712:\n        /* \"#utility.yul\":1011:1014   */\n      0x00\n        /* \"#utility.yul\":1049:1054   */\n      dup2\n        /* \"#utility.yul\":1043:1055   */\n      mload\n        /* \"#utility.yul\":1076:1082   */\n      dup1\n        /* \"#utility.yul\":1071:1074   */\n      dup5\n        /* \"#utility.yul\":1064:1083   */\n      mstore\n        /* \"#utility.yul\":1102:1106   */\n      0x20\n        /* \"#utility.yul\":1131:1133   */\n      dup1\n        /* \"#utility.yul\":1126:1129   */\n      dup6\n        /* \"#utility.yul\":1122:1134   */\n      add\n        /* \"#utility.yul\":1115:1134   */\n      swap5\n      pop\n        /* \"#utility.yul\":1168:1170   */\n      dup1\n        /* \"#utility.yul\":1161:1166   */\n      dup5\n        /* \"#utility.yul\":1157:1171   */\n      add\n        /* \"#utility.yul\":1189:1190   */\n      0x00\n        /* \"#utility.yul\":1199:1394   */\n    tag_728:\n        /* \"#utility.yul\":1213:1219   */\n      dup4\n        /* \"#utility.yul\":1210:1211   */\n      dup2\n        /* \"#utility.yul\":1207:1220   */\n      lt\n        /* \"#utility.yul\":1199:1394   */\n      iszero\n      tag_730\n      jumpi\n        /* \"#utility.yul\":1278:1291   */\n      dup2\n      mload\n      sub(shl(0xa0, 0x01), 0x01)\n        /* \"#utility.yul\":1274:1313   */\n      and\n        /* \"#utility.yul\":1262:1314   */\n      dup8\n      mstore\n        /* \"#utility.yul\":1334:1346   */\n      swap6\n      dup3\n      add\n      swap6\n        /* \"#utility.yul\":1369:1384   */\n      swap1\n      dup3\n      add\n      swap1\n        /* \"#utility.yul\":1310:1311   */\n      0x01\n        /* \"#utility.yul\":1228:1237   */\n      add\n        /* \"#utility.yul\":1199:1394   */\n      jump(tag_728)\n    tag_730:\n      pop\n        /* \"#utility.yul\":1410:1413   */\n      swap5\n      swap6\n        /* \"#utility.yul\":958:1419   */\n      swap5\n      pop\n      pop\n      pop\n      pop\n      pop\n      jump\t// out\n        /* \"#utility.yul\":1424:1685   */\n    tag_93:\n        /* \"#utility.yul\":1603:1605   */\n      0x20\n        /* \"#utility.yul\":1592:1601   */\n      dup2\n        /* \"#utility.yul\":1585:1606   */\n      mstore\n        /* \"#utility.yul\":1566:1570   */\n      0x00\n        /* \"#utility.yul\":1623:1679   */\n      tag_704\n        /* \"#utility.yul\":1675:1677   */\n      0x20\n        /* \"#utility.yul\":1664:1673   */\n      dup4\n        /* \"#utility.yul\":1660:1678   */\n      add\n        /* \"#utility.yul\":1652:1658   */\n      dup5\n        /* \"#utility.yul\":1623:1679   */\n      tag_712\n      jump\t// in\n        /* \"#utility.yul\":1690:2125   */\n    tag_713:\n        /* \"#utility.yul\":1743:1746   */\n      0x00\n        /* \"#utility.yul\":1781:1786   */\n      dup2\n        /* \"#utility.yul\":1775:1787   */\n      mload\n        /* \"#utility.yul\":1808:1814   */\n      dup1\n        /* \"#utility.yul\":1803:1806   */\n      dup5\n        /* \"#utility.yul\":1796:1815   */\n      mstore\n        /* \"#utility.yul\":1834:1838   */\n      0x20\n        /* \"#utility.yul\":1863:1865   */\n      dup1\n        /* \"#utility.yul\":1858:1861   */\n      dup6\n        /* \"#utility.yul\":1854:1866   */\n      add\n        /* \"#utility.yul\":1847:1866   */\n      swap5\n      pop\n        /* \"#utility.yul\":1900:1902   */\n      dup1\n        /* \"#utility.yul\":1893:1898   */\n      dup5\n        /* \"#utility.yul\":1889:1903   */\n      add\n        /* \"#utility.yul\":1921:1922   */\n      0x00\n        /* \"#utility.yul\":1931:2100   */\n    tag_734:\n        /* \"#utility.yul\":1945:1951   */\n      dup4\n        /* \"#utility.yul\":1942:1943   */\n      dup2\n        /* \"#utility.yul\":1939:1952   */\n      lt\n        /* \"#utility.yul\":1931:2100   */\n      iszero\n      tag_730\n      jumpi\n        /* \"#utility.yul\":2006:2019   */\n      dup2\n      mload\n        /* \"#utility.yul\":1994:2020   */\n      dup8\n      mstore\n        /* \"#utility.yul\":2040:2052   */\n      swap6\n      dup3\n      add\n      swap6\n        /* \"#utility.yul\":2075:2090   */\n      swap1\n      dup3\n      add\n      swap1\n        /* \"#utility.yul\":1967:1968   */\n      0x01\n        /* \"#utility.yul\":1960:1969   */\n      add\n        /* \"#utility.yul\":1931:2100   */\n      jump(tag_734)\n        /* \"#utility.yul\":2130:2391   */\n    tag_106:\n        /* \"#utility.yul\":2309:2311   */\n      0x20\n        /* \"#utility.yul\":2298:2307   */\n      dup2\n        /* \"#utility.yul\":2291:2312   */\n      mstore\n        /* \"#utility.yul\":2272:2276   */\n      0x00\n        /* \"#utility.yul\":2329:2385   */\n      tag_704\n        /* \"#utility.yul\":2381:2383   */\n      0x20\n        /* \"#utility.yul\":2370:2379   */\n      dup4\n        /* \"#utility.yul\":2366:2384   */\n      add\n        /* \"#utility.yul\":2358:2364   */\n      dup5\n        /* \"#utility.yul\":2329:2385   */\n      tag_713\n      jump\t// in\n        /* \"#utility.yul\":2649:2903   */\n    tag_137:\n        /* \"#utility.yul\":2717:2723   */\n      0x00\n        /* \"#utility.yul\":2725:2731   */\n      dup1\n        /* \"#utility.yul\":2778:2780   */\n      0x40\n        /* \"#utility.yul\":2766:2775   */\n      dup4\n        /* \"#utility.yul\":2757:2764   */\n      dup6\n        /* \"#utility.yul\":2753:2776   */\n      sub\n        /* \"#utility.yul\":2749:2781   */\n      slt\n        /* \"#utility.yul\":2746:2798   */\n      iszero\n      tag_741\n      jumpi\n        /* \"#utility.yul\":2794:2795   */\n      0x00\n        /* \"#utility.yul\":2791:2792   */\n      dup1\n        /* \"#utility.yul\":2784:2796   */\n      revert\n        /* \"#utility.yul\":2746:2798   */\n    tag_741:\n        /* \"#utility.yul\":2817:2846   */\n      tag_742\n        /* \"#utility.yul\":2836:2845   */\n      dup4\n        /* \"#utility.yul\":2817:2846   */\n      tag_711\n      jump\t// in\n    tag_742:\n        /* \"#utility.yul\":2807:2846   */\n      swap5\n        /* \"#utility.yul\":2893:2895   */\n      0x20\n        /* \"#utility.yul\":2878:2896   */\n      swap4\n      swap1\n      swap4\n      add\n        /* \"#utility.yul\":2865:2897   */\n      calldataload\n      swap4\n      pop\n      pop\n      pop\n        /* \"#utility.yul\":2649:2903   */\n      jump\t// out\n        /* \"#utility.yul\":2908:3035   */\n    tag_361:\n        /* \"#utility.yul\":2969:2979   */\n      0x4e487b71\n        /* \"#utility.yul\":2964:2967   */\n      0xe0\n        /* \"#utility.yul\":2960:2980   */\n      shl\n        /* \"#utility.yul\":2957:2958   */\n      0x00\n        /* \"#utility.yul\":2950:2981   */\n      mstore\n        /* \"#utility.yul\":3000:3004   */\n      0x41\n        /* \"#utility.yul\":2997:2998   */\n      0x04\n        /* \"#utility.yul\":2990:3005   */\n      mstore\n        /* \"#utility.yul\":3024:3028   */\n      0x24\n        /* \"#utility.yul\":3021:3022   */\n      0x00\n        /* \"#utility.yul\":3014:3029   */\n      revert\n        /* \"#utility.yul\":3040:3315   */\n    tag_714:\n        /* \"#utility.yul\":3111:3113   */\n      0x40\n        /* \"#utility.yul\":3105:3114   */\n      mload\n        /* \"#utility.yul\":3176:3178   */\n      0x1f\n        /* \"#utility.yul\":3157:3170   */\n      dup3\n      add\n      not(0x1f)\n        /* \"#utility.yul\":3153:3180   */\n      and\n        /* \"#utility.yul\":3141:3181   */\n      dup2\n      add\n      sub(shl(0x40, 0x01), 0x01)\n        /* \"#utility.yul\":3196:3230   */\n      dup2\n      gt\n        /* \"#utility.yul\":3232:3254   */\n      dup3\n      dup3\n      lt\n        /* \"#utility.yul\":3193:3255   */\n      or\n        /* \"#utility.yul\":3190:3278   */\n      iszero\n      tag_746\n      jumpi\n        /* \"#utility.yul\":3258:3276   */\n      tag_746\n      tag_361\n      jump\t// in\n    tag_746:\n        /* \"#utility.yul\":3294:3296   */\n      0x40\n        /* \"#utility.yul\":3287:3309   */\n      mstore\n        /* \"#utility.yul\":3040:3315   */\n      swap2\n      swap1\n      pop\n      jump\t// out\n        /* \"#utility.yul\":3320:4032   */\n    tag_715:\n        /* \"#utility.yul\":3374:3379   */\n      0x00\n        /* \"#utility.yul\":3427:3430   */\n      dup3\n        /* \"#utility.yul\":3420:3424   */\n      0x1f\n        /* \"#utility.yul\":3412:3418   */\n      dup4\n        /* \"#utility.yul\":3408:3425   */\n      add\n        /* \"#utility.yul\":3404:3431   */\n      slt\n        /* \"#utility.yul\":3394:3449   */\n      tag_748\n      jumpi\n        /* \"#utility.yul\":3445:3446   */\n      0x00\n        /* \"#utility.yul\":3442:3443   */\n      dup1\n        /* \"#utility.yul\":3435:3447   */\n      revert\n        /* \"#utility.yul\":3394:3449   */\n    tag_748:\n        /* \"#utility.yul\":3468:3488   */\n      dup2\n      calldataload\n        /* \"#utility.yul\":3507:3511   */\n      0x20\n      sub(shl(0x40, 0x01), 0x01)\n        /* \"#utility.yul\":3523:3549   */\n      dup3\n      gt\n        /* \"#utility.yul\":3520:3572   */\n      iszero\n      tag_750\n      jumpi\n        /* \"#utility.yul\":3552:3570   */\n      tag_750\n      tag_361\n      jump\t// in\n    tag_750:\n        /* \"#utility.yul\":3598:3600   */\n      dup2\n        /* \"#utility.yul\":3595:3596   */\n      0x05\n        /* \"#utility.yul\":3591:3601   */\n      shl\n        /* \"#utility.yul\":3621:3649   */\n      tag_751\n        /* \"#utility.yul\":3645:3647   */\n      dup3\n        /* \"#utility.yul\":3641:3643   */\n      dup3\n        /* \"#utility.yul\":3637:3648   */\n      add\n        /* \"#utility.yul\":3621:3649   */\n      tag_714\n      jump\t// in\n    tag_751:\n        /* \"#utility.yul\":3683:3698   */\n      swap3\n      dup4\n      mstore\n        /* \"#utility.yul\":3753:3768   */\n      dup5\n      dup2\n      add\n        /* \"#utility.yul\":3749:3773   */\n      dup3\n      add\n      swap3\n        /* \"#utility.yul\":3714:3726   */\n      dup3\n      dup2\n      add\n      swap1\n        /* \"#utility.yul\":3785:3800   */\n      dup8\n      dup6\n      gt\n        /* \"#utility.yul\":3782:3817   */\n      iszero\n      tag_752\n      jumpi\n        /* \"#utility.yul\":3813:3814   */\n      0x00\n        /* \"#utility.yul\":3810:3811   */\n      dup1\n        /* \"#utility.yul\":3803:3815   */\n      revert\n        /* \"#utility.yul\":3782:3817   */\n    tag_752:\n        /* \"#utility.yul\":3849:3851   */\n      dup4\n        /* \"#utility.yul\":3841:3847   */\n      dup8\n        /* \"#utility.yul\":3837:3852   */\n      add\n        /* \"#utility.yul\":3826:3852   */\n      swap3\n      pop\n        /* \"#utility.yul\":3861:4003   */\n    tag_753:\n        /* \"#utility.yul\":3877:3883   */\n      dup5\n        /* \"#utility.yul\":3872:3875   */\n      dup4\n        /* \"#utility.yul\":3869:3884   */\n      lt\n        /* \"#utility.yul\":3861:4003   */\n      iszero\n      tag_755\n      jumpi\n        /* \"#utility.yul\":3943:3960   */\n      dup3\n      calldataload\n        /* \"#utility.yul\":3931:3961   */\n      dup3\n      mstore\n        /* \"#utility.yul\":3894:3906   */\n      swap2\n      dup4\n      add\n      swap2\n        /* \"#utility.yul\":3981:3993   */\n      swap1\n      dup4\n      add\n      swap1\n        /* \"#utility.yul\":3861:4003   */\n      jump(tag_753)\n    tag_755:\n        /* \"#utility.yul\":4021:4026   */\n      swap8\n        /* \"#utility.yul\":3320:4032   */\n      swap7\n      pop\n      pop\n      pop\n      pop\n      pop\n      pop\n      pop\n      jump\t// out\n        /* \"#utility.yul\":4037:4632   */\n    tag_158:\n        /* \"#utility.yul\":4155:4161   */\n      0x00\n        /* \"#utility.yul\":4163:4169   */\n      dup1\n        /* \"#utility.yul\":4216:4218   */\n      0x40\n        /* \"#utility.yul\":4204:4213   */\n      dup4\n        /* \"#utility.yul\":4195:4202   */\n      dup6\n        /* \"#utility.yul\":4191:4214   */\n      sub\n        /* \"#utility.yul\":4187:4219   */\n      slt\n        /* \"#utility.yul\":4184:4236   */\n      iszero\n      tag_757\n      jumpi\n        /* \"#utility.yul\":4232:4233   */\n      0x00\n        /* \"#utility.yul\":4229:4230   */\n      dup1\n        /* \"#utility.yul\":4222:4234   */\n      revert\n        /* \"#utility.yul\":4184:4236   */\n    tag_757:\n        /* \"#utility.yul\":4259:4282   */\n      dup3\n      calldataload\n      sub(shl(0x40, 0x01), 0x01)\n        /* \"#utility.yul\":4331:4345   */\n      dup1\n      dup3\n      gt\n        /* \"#utility.yul\":4328:4362   */\n      iszero\n      tag_758\n      jumpi\n        /* \"#utility.yul\":4358:4359   */\n      0x00\n        /* \"#utility.yul\":4355:4356   */\n      dup1\n        /* \"#utility.yul\":4348:4360   */\n      revert\n        /* \"#utility.yul\":4328:4362   */\n    tag_758:\n        /* \"#utility.yul\":4381:4442   */\n      tag_759\n        /* \"#utility.yul\":4434:4441   */\n      dup7\n        /* \"#utility.yul\":4425:4431   */\n      dup4\n        /* \"#utility.yul\":4414:4423   */\n      dup8\n        /* \"#utility.yul\":4410:4432   */\n      add\n        /* \"#utility.yul\":4381:4442   */\n      tag_715\n      jump\t// in\n    tag_759:\n        /* \"#utility.yul\":4371:4442   */\n      swap4\n      pop\n        /* \"#utility.yul\":4495:4497   */\n      0x20\n        /* \"#utility.yul\":4484:4493   */\n      dup6\n        /* \"#utility.yul\":4480:4498   */\n      add\n        /* \"#utility.yul\":4467:4499   */\n      calldataload\n        /* \"#utility.yul\":4451:4499   */\n      swap2\n      pop\n        /* \"#utility.yul\":4524:4526   */\n      dup1\n        /* \"#utility.yul\":4514:4522   */\n      dup3\n        /* \"#utility.yul\":4511:4527   */\n      gt\n        /* \"#utility.yul\":4508:4544   */\n      iszero\n      tag_760\n      jumpi\n        /* \"#utility.yul\":4540:4541   */\n      0x00\n        /* \"#utility.yul\":4537:4538   */\n      dup1\n        /* \"#utility.yul\":4530:4542   */\n      revert\n        /* \"#utility.yul\":4508:4544   */\n    tag_760:\n      pop\n        /* \"#utility.yul\":4563:4626   */\n      tag_761\n        /* \"#utility.yul\":4618:4625   */\n      dup6\n        /* \"#utility.yul\":4607:4615   */\n      dup3\n        /* \"#utility.yul\":4596:4605   */\n      dup7\n        /* \"#utility.yul\":4592:4616   */\n      add\n        /* \"#utility.yul\":4563:4626   */\n      tag_715\n      jump\t// in\n    tag_761:\n        /* \"#utility.yul\":4553:4626   */\n      swap2\n      pop\n      pop\n        /* \"#utility.yul\":4037:4632   */\n      swap3\n      pop\n      swap3\n      swap1\n      pop\n      jump\t// out\n        /* \"#utility.yul\":4637:4984   */\n    tag_175:\n        /* \"#utility.yul\":4702:4708   */\n      0x00\n        /* \"#utility.yul\":4710:4716   */\n      dup1\n        /* \"#utility.yul\":4763:4765   */\n      0x40\n        /* \"#utility.yul\":4751:4760   */\n      dup4\n        /* \"#utility.yul\":4742:4749   */\n      dup6\n        /* \"#utility.yul\":4738:4761   */\n      sub\n        /* \"#utility.yul\":4734:4766   */\n      slt\n        /* \"#utility.yul\":4731:4783   */\n      iszero\n      tag_763\n      jumpi\n        /* \"#utility.yul\":4779:4780   */\n      0x00\n        /* \"#utility.yul\":4776:4777   */\n      dup1\n        /* \"#utility.yul\":4769:4781   */\n      revert\n        /* \"#utility.yul\":4731:4783   */\n    tag_763:\n        /* \"#utility.yul\":4802:4831   */\n      tag_764\n        /* \"#utility.yul\":4821:4830   */\n      dup4\n        /* \"#utility.yul\":4802:4831   */\n      tag_711\n      jump\t// in\n    tag_764:\n        /* \"#utility.yul\":4792:4831   */\n      swap2\n      pop\n        /* \"#utility.yul\":4881:4883   */\n      0x20\n        /* \"#utility.yul\":4870:4879   */\n      dup4\n        /* \"#utility.yul\":4866:4884   */\n      add\n        /* \"#utility.yul\":4853:4885   */\n      calldataload\n        /* \"#utility.yul\":4928:4933   */\n      dup1\n        /* \"#utility.yul\":4921:4934   */\n      iszero\n        /* \"#utility.yul\":4914:4935   */\n      iszero\n        /* \"#utility.yul\":4907:4912   */\n      dup2\n        /* \"#utility.yul\":4904:4936   */\n      eq\n        /* \"#utility.yul\":4894:4954   */\n      tag_765\n      jumpi\n        /* \"#utility.yul\":4950:4951   */\n      0x00\n        /* \"#utility.yul\":4947:4948   */\n      dup1\n        /* \"#utility.yul\":4940:4952   */\n      revert\n        /* \"#utility.yul\":4894:4954   */\n    tag_765:\n        /* \"#utility.yul\":4973:4978   */\n      dup1\n        /* \"#utility.yul\":4963:4978   */\n      swap2\n      pop\n      pop\n        /* \"#utility.yul\":4637:4984   */\n      swap3\n      pop\n      swap3\n      swap1\n      pop\n      jump\t// out\n        /* \"#utility.yul\":4989:5826   */\n    tag_187:\n        /* \"#utility.yul\":5066:5072   */\n      0x00\n        /* \"#utility.yul\":5074:5080   */\n      dup1\n        /* \"#utility.yul\":5127:5129   */\n      0x40\n        /* \"#utility.yul\":5115:5124   */\n      dup4\n        /* \"#utility.yul\":5106:5113   */\n      dup6\n        /* \"#utility.yul\":5102:5125   */\n      sub\n        /* \"#utility.yul\":5098:5130   */\n      slt\n        /* \"#utility.yul\":5095:5147   */\n      iszero\n      tag_767\n      jumpi\n        /* \"#utility.yul\":5143:5144   */\n      0x00\n        /* \"#utility.yul\":5140:5141   */\n      dup1\n        /* \"#utility.yul\":5133:5145   */\n      revert\n        /* \"#utility.yul\":5095:5147   */\n    tag_767:\n        /* \"#utility.yul\":5166:5195   */\n      tag_768\n        /* \"#utility.yul\":5185:5194   */\n      dup4\n        /* \"#utility.yul\":5166:5195   */\n      tag_711\n      jump\t// in\n    tag_768:\n        /* \"#utility.yul\":5156:5195   */\n      swap2\n      pop\n        /* \"#utility.yul\":5214:5216   */\n      0x20\n        /* \"#utility.yul\":5252:5270   */\n      dup4\n      dup2\n      add\n        /* \"#utility.yul\":5239:5271   */\n      calldataload\n      sub(shl(0x40, 0x01), 0x01)\n        /* \"#utility.yul\":5320:5334   */\n      dup1\n      dup3\n      gt\n        /* \"#utility.yul\":5317:5351   */\n      iszero\n      tag_769\n      jumpi\n        /* \"#utility.yul\":5347:5348   */\n      0x00\n        /* \"#utility.yul\":5344:5345   */\n      dup1\n        /* \"#utility.yul\":5337:5349   */\n      revert\n        /* \"#utility.yul\":5317:5351   */\n    tag_769:\n        /* \"#utility.yul\":5385:5391   */\n      dup2\n        /* \"#utility.yul\":5374:5383   */\n      dup7\n        /* \"#utility.yul\":5370:5392   */\n      add\n        /* \"#utility.yul\":5360:5392   */\n      swap2\n      pop\n        /* \"#utility.yul\":5430:5437   */\n      dup7\n        /* \"#utility.yul\":5423:5427   */\n      0x1f\n        /* \"#utility.yul\":5419:5421   */\n      dup4\n        /* \"#utility.yul\":5415:5428   */\n      add\n        /* \"#utility.yul\":5411:5438   */\n      slt\n        /* \"#utility.yul\":5401:5456   */\n      tag_770\n      jumpi\n        /* \"#utility.yul\":5452:5453   */\n      0x00\n        /* \"#utility.yul\":5449:5450   */\n      dup1\n        /* \"#utility.yul\":5442:5454   */\n      revert\n        /* \"#utility.yul\":5401:5456   */\n    tag_770:\n        /* \"#utility.yul\":5488:5490   */\n      dup2\n        /* \"#utility.yul\":5475:5491   */\n      calldataload\n        /* \"#utility.yul\":5510:5512   */\n      dup2\n        /* \"#utility.yul\":5506:5508   */\n      dup2\n        /* \"#utility.yul\":5503:5513   */\n      gt\n        /* \"#utility.yul\":5500:5536   */\n      iszero\n      tag_772\n      jumpi\n        /* \"#utility.yul\":5516:5534   */\n      tag_772\n      tag_361\n      jump\t// in\n    tag_772:\n        /* \"#utility.yul\":5558:5611   */\n      tag_773\n        /* \"#utility.yul\":5601:5603   */\n      0x1f\n        /* \"#utility.yul\":5582:5595   */\n      dup3\n      add\n      not(0x1f)\n        /* \"#utility.yul\":5578:5605   */\n      and\n        /* \"#utility.yul\":5574:5610   */\n      dup6\n      add\n        /* \"#utility.yul\":5558:5611   */\n      tag_714\n      jump\t// in\n    tag_773:\n        /* \"#utility.yul\":5545:5611   */\n      swap2\n      pop\n        /* \"#utility.yul\":5634:5636   */\n      dup1\n        /* \"#utility.yul\":5627:5632   */\n      dup3\n        /* \"#utility.yul\":5620:5637   */\n      mstore\n        /* \"#utility.yul\":5674:5681   */\n      dup8\n        /* \"#utility.yul\":5669:5671   */\n      dup5\n        /* \"#utility.yul\":5664:5666   */\n      dup3\n        /* \"#utility.yul\":5660:5662   */\n      dup6\n        /* \"#utility.yul\":5656:5667   */\n      add\n        /* \"#utility.yul\":5652:5672   */\n      add\n        /* \"#utility.yul\":5649:5682   */\n      gt\n        /* \"#utility.yul\":5646:5699   */\n      iszero\n      tag_774\n      jumpi\n        /* \"#utility.yul\":5695:5696   */\n      0x00\n        /* \"#utility.yul\":5692:5693   */\n      dup1\n        /* \"#utility.yul\":5685:5697   */\n      revert\n        /* \"#utility.yul\":5646:5699   */\n    tag_774:\n        /* \"#utility.yul\":5750:5752   */\n      dup1\n        /* \"#utility.yul\":5745:5747   */\n      dup5\n        /* \"#utility.yul\":5741:5743   */\n      dup5\n        /* \"#utility.yul\":5737:5748   */\n      add\n        /* \"#utility.yul\":5732:5734   */\n      dup6\n        /* \"#utility.yul\":5725:5730   */\n      dup5\n        /* \"#utility.yul\":5721:5735   */\n      add\n        /* \"#utility.yul\":5708:5753   */\n      calldatacopy\n        /* \"#utility.yul\":5794:5795   */\n      0x00\n        /* \"#utility.yul\":5789:5791   */\n      dup5\n        /* \"#utility.yul\":5784:5786   */\n      dup3\n        /* \"#utility.yul\":5777:5782   */\n      dup5\n        /* \"#utility.yul\":5773:5787   */\n      add\n        /* \"#utility.yul\":5769:5792   */\n      add\n        /* \"#utility.yul\":5762:5796   */\n      mstore\n      pop\n        /* \"#utility.yul\":5815:5820   */\n      dup1\n        /* \"#utility.yul\":5805:5820   */\n      swap4\n      pop\n      pop\n      pop\n      pop\n        /* \"#utility.yul\":4989:5826   */\n      swap3\n      pop\n      swap3\n      swap1\n      pop\n      jump\t// out\n        /* \"#utility.yul\":6013:6478   */\n    tag_230:\n        /* \"#utility.yul\":6270:6272   */\n      0x40\n        /* \"#utility.yul\":6259:6268   */\n      dup2\n        /* \"#utility.yul\":6252:6273   */\n      mstore\n        /* \"#utility.yul\":6233:6237   */\n      0x00\n        /* \"#utility.yul\":6296:6352   */\n      tag_777\n        /* \"#utility.yul\":6348:6350   */\n      0x40\n        /* \"#utility.yul\":6337:6346   */\n      dup4\n        /* \"#utility.yul\":6333:6351   */\n      add\n        /* \"#utility.yul\":6325:6331   */\n      dup6\n        /* \"#utility.yul\":6296:6352   */\n      tag_712\n      jump\t// in\n    tag_777:\n        /* \"#utility.yul\":6400:6409   */\n      dup3\n        /* \"#utility.yul\":6392:6398   */\n      dup2\n        /* \"#utility.yul\":6388:6410   */\n      sub\n        /* \"#utility.yul\":6383:6385   */\n      0x20\n        /* \"#utility.yul\":6372:6381   */\n      dup5\n        /* \"#utility.yul\":6368:6386   */\n      add\n        /* \"#utility.yul\":6361:6411   */\n      mstore\n        /* \"#utility.yul\":6428:6472   */\n      tag_699\n        /* \"#utility.yul\":6465:6471   */\n      dup2\n        /* \"#utility.yul\":6457:6463   */\n      dup6\n        /* \"#utility.yul\":6428:6472   */\n      tag_713\n      jump\t// in\n        /* \"#utility.yul\":6483:7042   */\n    tag_253:\n        /* \"#utility.yul\":6587:6593   */\n      0x00\n        /* \"#utility.yul\":6595:6601   */\n      dup1\n        /* \"#utility.yul\":6603:6609   */\n      0x00\n        /* \"#utility.yul\":6611:6617   */\n      dup1\n        /* \"#utility.yul\":6619:6625   */\n      0x00\n        /* \"#utility.yul\":6627:6633   */\n      dup1\n        /* \"#utility.yul\":6680:6683   */\n      0xc0\n        /* \"#utility.yul\":6668:6677   */\n      dup8\n        /* \"#utility.yul\":6659:6666   */\n      dup10\n        /* \"#utility.yul\":6655:6678   */\n      sub\n        /* \"#utility.yul\":6651:6684   */\n      slt\n        /* \"#utility.yul\":6648:6701   */\n      iszero\n      tag_780\n      jumpi\n        /* \"#utility.yul\":6697:6698   */\n      0x00\n        /* \"#utility.yul\":6694:6695   */\n      dup1\n        /* \"#utility.yul\":6687:6699   */\n      revert\n        /* \"#utility.yul\":6648:6701   */\n    tag_780:\n        /* \"#utility.yul\":6720:6749   */\n      tag_781\n        /* \"#utility.yul\":6739:6748   */\n      dup8\n        /* \"#utility.yul\":6720:6749   */\n      tag_711\n      jump\t// in\n    tag_781:\n        /* \"#utility.yul\":6710:6749   */\n      swap6\n      pop\n        /* \"#utility.yul\":6768:6806   */\n      tag_782\n        /* \"#utility.yul\":6802:6804   */\n      0x20\n        /* \"#utility.yul\":6791:6800   */\n      dup9\n        /* \"#utility.yul\":6787:6805   */\n      add\n        /* \"#utility.yul\":6768:6806   */\n      tag_711\n      jump\t// in\n    tag_782:\n        /* \"#utility.yul\":6758:6806   */\n      swap5\n      pop\n        /* \"#utility.yul\":6825:6863   */\n      tag_783\n        /* \"#utility.yul\":6859:6861   */\n      0x40\n        /* \"#utility.yul\":6848:6857   */\n      dup9\n        /* \"#utility.yul\":6844:6862   */\n      add\n        /* \"#utility.yul\":6825:6863   */\n      tag_711\n      jump\t// in\n    tag_783:\n        /* \"#utility.yul\":6815:6863   */\n      swap4\n      pop\n        /* \"#utility.yul\":6882:6920   */\n      tag_784\n        /* \"#utility.yul\":6916:6918   */\n      0x60\n        /* \"#utility.yul\":6905:6914   */\n      dup9\n        /* \"#utility.yul\":6901:6919   */\n      add\n        /* \"#utility.yul\":6882:6920   */\n      tag_711\n      jump\t// in\n    tag_784:\n        /* \"#utility.yul\":6872:6920   */\n      swap3\n      pop\n        /* \"#utility.yul\":6939:6978   */\n      tag_785\n        /* \"#utility.yul\":6973:6976   */\n      0x80\n        /* \"#utility.yul\":6962:6971   */\n      dup9\n        /* \"#utility.yul\":6958:6977   */\n      add\n        /* \"#utility.yul\":6939:6978   */\n      tag_711\n      jump\t// in\n    tag_785:\n        /* \"#utility.yul\":6929:6978   */\n      swap2\n      pop\n        /* \"#utility.yul\":6997:7036   */\n      tag_786\n        /* \"#utility.yul\":7031:7034   */\n      0xa0\n        /* \"#utility.yul\":7020:7029   */\n      dup9\n        /* \"#utility.yul\":7016:7035   */\n      add\n        /* \"#utility.yul\":6997:7036   */\n      tag_711\n      jump\t// in\n    tag_786:\n        /* \"#utility.yul\":6987:7036   */\n      swap1\n      pop\n        /* \"#utility.yul\":6483:7042   */\n      swap3\n      swap6\n      pop\n      swap3\n      swap6\n      pop\n      swap3\n      swap6\n      jump\t// out\n        /* \"#utility.yul\":7047:7512   */\n    tag_287:\n        /* \"#utility.yul\":7304:7306   */\n      0x40\n        /* \"#utility.yul\":7293:7302   */\n      dup2\n        /* \"#utility.yul\":7286:7307   */\n      mstore\n        /* \"#utility.yul\":7267:7271   */\n      0x00\n        /* \"#utility.yul\":7330:7386   */\n      tag_777\n        /* \"#utility.yul\":7382:7384   */\n      0x40\n        /* \"#utility.yul\":7371:7380   */\n      dup4\n        /* \"#utility.yul\":7367:7385   */\n      add\n        /* \"#utility.yul\":7359:7365   */\n      dup6\n        /* \"#utility.yul\":7330:7386   */\n      tag_713\n      jump\t// in\n        /* \"#utility.yul\":7517:7765   */\n    tag_307:\n        /* \"#utility.yul\":7585:7591   */\n      0x00\n        /* \"#utility.yul\":7593:7599   */\n      dup1\n        /* \"#utility.yul\":7646:7648   */\n      0x40\n        /* \"#utility.yul\":7634:7643   */\n      dup4\n        /* \"#utility.yul\":7625:7632   */\n      dup6\n        /* \"#utility.yul\":7621:7644   */\n      sub\n        /* \"#utility.yul\":7617:7649   */\n      slt\n        /* \"#utility.yul\":7614:7666   */\n      iszero\n      tag_791\n      jumpi\n        /* \"#utility.yul\":7662:7663   */\n      0x00\n        /* \"#utility.yul\":7659:7660   */\n      dup1\n        /* \"#utility.yul\":7652:7664   */\n      revert\n        /* \"#utility.yul\":7614:7666   */\n    tag_791:\n      pop\n      pop\n        /* \"#utility.yul\":7685:7708   */\n      dup1\n      calldataload\n      swap3\n        /* \"#utility.yul\":7755:7757   */\n      0x20\n        /* \"#utility.yul\":7740:7758   */\n      swap1\n      swap2\n      add\n        /* \"#utility.yul\":7727:7759   */\n      calldataload\n      swap2\n      pop\n        /* \"#utility.yul\":7517:7765   */\n      jump\t// out\n        /* \"#utility.yul\":7770:8102   */\n    tag_356:\n        /* \"#utility.yul\":7972:7974   */\n      0x20\n        /* \"#utility.yul\":7954:7975   */\n      dup1\n      dup3\n      mstore\n        /* \"#utility.yul\":8011:8012   */\n      0x09\n        /* \"#utility.yul\":7991:8009   */\n      swap1\n      dup3\n      add\n        /* \"#utility.yul\":7984:8013   */\n      mstore\n      shl(0xb9, 0x3737ba1030b236b4b7)\n        /* \"#utility.yul\":8044:8046   */\n      0x40\n        /* \"#utility.yul\":8029:8047   */\n      dup3\n      add\n        /* \"#utility.yul\":8022:8061   */\n      mstore\n        /* \"#utility.yul\":8093:8095   */\n      0x60\n        /* \"#utility.yul\":8078:8096   */\n      add\n      swap1\n        /* \"#utility.yul\":7770:8102   */\n      jump\t// out\n        /* \"#utility.yul\":8107:8234   */\n    tag_365:\n        /* \"#utility.yul\":8168:8178   */\n      0x4e487b71\n        /* \"#utility.yul\":8163:8166   */\n      0xe0\n        /* \"#utility.yul\":8159:8179   */\n      shl\n        /* \"#utility.yul\":8156:8157   */\n      0x00\n        /* \"#utility.yul\":8149:8180   */\n      mstore\n        /* \"#utility.yul\":8199:8203   */\n      0x32\n        /* \"#utility.yul\":8196:8197   */\n      0x04\n        /* \"#utility.yul\":8189:8204   */\n      mstore\n        /* \"#utility.yul\":8223:8227   */\n      0x24\n        /* \"#utility.yul\":8220:8221   */\n      0x00\n        /* \"#utility.yul\":8213:8228   */\n      revert\n        /* \"#utility.yul\":8239:8647   */\n    tag_412:\n        /* \"#utility.yul\":8441:8443   */\n      0x20\n        /* \"#utility.yul\":8423:8444   */\n      dup1\n      dup3\n      mstore\n        /* \"#utility.yul\":8480:8482   */\n      0x2c\n        /* \"#utility.yul\":8460:8478   */\n      swap1\n      dup3\n      add\n        /* \"#utility.yul\":8453:8483   */\n      mstore\n      0x00\n      dup1\n      mload\n      0x20\n      data_662a7ba1d8fb60beff3d02117181416eb800676fa4d6f1ebc4c3fea5cd79ec88\n      dup4\n      codecopy\n      dup2\n      mload\n      swap2\n      mstore\n        /* \"#utility.yul\":8514:8516   */\n      0x40\n        /* \"#utility.yul\":8499:8517   */\n      dup3\n      add\n        /* \"#utility.yul\":8492:8554   */\n      mstore\n      shl(0xa2, 0x19195b1959d85d1958d85b1b)\n        /* \"#utility.yul\":8585:8587   */\n      0x60\n        /* \"#utility.yul\":8570:8588   */\n      dup3\n      add\n        /* \"#utility.yul\":8563:8605   */\n      mstore\n        /* \"#utility.yul\":8637:8640   */\n      0x80\n        /* \"#utility.yul\":8622:8641   */\n      add\n      swap1\n        /* \"#utility.yul\":8239:8647   */\n      jump\t// out\n        /* \"#utility.yul\":8652:9060   */\n    tag_417:\n        /* \"#utility.yul\":8854:8856   */\n      0x20\n        /* \"#utility.yul\":8836:8857   */\n      dup1\n      dup3\n      mstore\n        /* \"#utility.yul\":8893:8895   */\n      0x2c\n        /* \"#utility.yul\":8873:8891   */\n      swap1\n      dup3\n      add\n        /* \"#utility.yul\":8866:8896   */\n      mstore\n      0x00\n      dup1\n      mload\n      0x20\n      data_662a7ba1d8fb60beff3d02117181416eb800676fa4d6f1ebc4c3fea5cd79ec88\n      dup4\n      codecopy\n      dup2\n      mload\n      swap2\n      mstore\n        /* \"#utility.yul\":8927:8929   */\n      0x40\n        /* \"#utility.yul\":8912:8930   */\n      dup3\n      add\n        /* \"#utility.yul\":8905:8967   */\n      mstore\n      shl(0xa0, 0x6163746976652070726f7879)\n        /* \"#utility.yul\":8998:9000   */\n      0x60\n        /* \"#utility.yul\":8983:9001   */\n      dup3\n      add\n        /* \"#utility.yul\":8976:9018   */\n      mstore\n        /* \"#utility.yul\":9050:9053   */\n      0x80\n        /* \"#utility.yul\":9035:9054   */\n      add\n      swap1\n        /* \"#utility.yul\":8652:9060   */\n      jump\t// out\n        /* \"#utility.yul\":9406:9638   */\n    tag_443:\n        /* \"#utility.yul\":9445:9448   */\n      0x00\n        /* \"#utility.yul\":9466:9483   */\n      0x01\n      dup3\n      add\n        /* \"#utility.yul\":9463:9603   */\n      tag_798\n      jumpi\n        /* \"#utility.yul\":9525:9535   */\n      0x4e487b71\n        /* \"#utility.yul\":9520:9523   */\n      0xe0\n        /* \"#utility.yul\":9516:9536   */\n      shl\n        /* \"#utility.yul\":9513:9514   */\n      0x00\n        /* \"#utility.yul\":9506:9537   */\n      mstore\n        /* \"#utility.yul\":9560:9564   */\n      0x11\n        /* \"#utility.yul\":9557:9558   */\n      0x04\n        /* \"#utility.yul\":9550:9565   */\n      mstore\n        /* \"#utility.yul\":9588:9592   */\n      0x24\n        /* \"#utility.yul\":9585:9586   */\n      0x00\n        /* \"#utility.yul\":9578:9593   */\n      revert\n        /* \"#utility.yul\":9463:9603   */\n    tag_798:\n      pop\n        /* \"#utility.yul\":9630:9631   */\n      0x01\n        /* \"#utility.yul\":9619:9632   */\n      add\n      swap1\n        /* \"#utility.yul\":9406:9638   */\n      jump\t// out\n        /* \"#utility.yul\":11729:11913   */\n    tag_643:\n        /* \"#utility.yul\":11799:11805   */\n      0x00\n        /* \"#utility.yul\":11852:11854   */\n      0x20\n        /* \"#utility.yul\":11840:11849   */\n      dup3\n        /* \"#utility.yul\":11831:11838   */\n      dup5\n        /* \"#utility.yul\":11827:11850   */\n      sub\n        /* \"#utility.yul\":11823:11855   */\n      slt\n        /* \"#utility.yul\":11820:11872   */\n      iszero\n      tag_806\n      jumpi\n        /* \"#utility.yul\":11868:11869   */\n      0x00\n        /* \"#utility.yul\":11865:11866   */\n      dup1\n        /* \"#utility.yul\":11858:11870   */\n      revert\n        /* \"#utility.yul\":11820:11872   */\n    tag_806:\n      pop\n        /* \"#utility.yul\":11891:11907   */\n      mload\n      swap2\n        /* \"#utility.yul\":11729:11913   */\n      swap1\n      pop\n      jump\t// out\n        /* \"#utility.yul\":12743:13150   */\n    tag_661:\n        /* \"#utility.yul\":12945:12947   */\n      0x20\n        /* \"#utility.yul\":12927:12948   */\n      dup1\n      dup3\n      mstore\n        /* \"#utility.yul\":12984:12986   */\n      0x2b\n        /* \"#utility.yul\":12964:12982   */\n      swap1\n      dup3\n      add\n        /* \"#utility.yul\":12957:12987   */\n      mstore\n        /* \"#utility.yul\":13023:13057   */\n      0x496e697469616c697a61626c653a20636f6e7472616374206973206e6f742069\n        /* \"#utility.yul\":13018:13020   */\n      0x40\n        /* \"#utility.yul\":13003:13021   */\n      dup3\n      add\n        /* \"#utility.yul\":12996:13058   */\n      mstore\n      shl(0xa8, 0x6e697469616c697a696e67)\n        /* \"#utility.yul\":13089:13091   */\n      0x60\n        /* \"#utility.yul\":13074:13092   */\n      dup3\n      add\n        /* \"#utility.yul\":13067:13108   */\n      mstore\n        /* \"#utility.yul\":13140:13143   */\n      0x80\n        /* \"#utility.yul\":13125:13144   */\n      add\n      swap1\n        /* \"#utility.yul\":12743:13150   */\n      jump\t// out\n        /* \"#utility.yul\":13976:14226   */\n    tag_716:\n        /* \"#utility.yul\":14061:14062   */\n      0x00\n        /* \"#utility.yul\":14071:14184   */\n    tag_813:\n        /* \"#utility.yul\":14085:14091   */\n      dup4\n        /* \"#utility.yul\":14082:14083   */\n      dup2\n        /* \"#utility.yul\":14079:14092   */\n      lt\n        /* \"#utility.yul\":14071:14184   */\n      iszero\n      tag_815\n      jumpi\n        /* \"#utility.yul\":14161:14172   */\n      dup2\n      dup2\n      add\n        /* \"#utility.yul\":14155:14173   */\n      mload\n        /* \"#utility.yul\":14142:14153   */\n      dup4\n      dup3\n      add\n        /* \"#utility.yul\":14135:14174   */\n      mstore\n        /* \"#utility.yul\":14107:14109   */\n      0x20\n        /* \"#utility.yul\":14100:14110   */\n      add\n        /* \"#utility.yul\":14071:14184   */\n      jump(tag_813)\n    tag_815:\n      pop\n      pop\n        /* \"#utility.yul\":14218:14219   */\n      0x00\n        /* \"#utility.yul\":14200:14216   */\n      swap2\n      add\n        /* \"#utility.yul\":14193:14220   */\n      mstore\n        /* \"#utility.yul\":13976:14226   */\n      jump\t// out\n        /* \"#utility.yul\":14231:14518   */\n    tag_695:\n        /* \"#utility.yul\":14360:14363   */\n      0x00\n        /* \"#utility.yul\":14398:14404   */\n      dup3\n        /* \"#utility.yul\":14392:14405   */\n      mload\n        /* \"#utility.yul\":14414:14480   */\n      tag_817\n        /* \"#utility.yul\":14473:14479   */\n      dup2\n        /* \"#utility.yul\":14468:14471   */\n      dup5\n        /* \"#utility.yul\":14461:14465   */\n      0x20\n        /* \"#utility.yul\":14453:14459   */\n      dup8\n        /* \"#utility.yul\":14449:14466   */\n      add\n        /* \"#utility.yul\":14414:14480   */\n      tag_716\n      jump\t// in\n    tag_817:\n        /* \"#utility.yul\":14496:14512   */\n      swap2\n      swap1\n      swap2\n      add\n      swap3\n        /* \"#utility.yul\":14231:14518   */\n      swap2\n      pop\n      pop\n      jump\t// out\n        /* \"#utility.yul\":14523:14919   */\n    tag_710:\n        /* \"#utility.yul\":14672:14674   */\n      0x20\n        /* \"#utility.yul\":14661:14670   */\n      dup2\n        /* \"#utility.yul\":14654:14675   */\n      mstore\n        /* \"#utility.yul\":14635:14639   */\n      0x00\n        /* \"#utility.yul\":14704:14710   */\n      dup3\n        /* \"#utility.yul\":14698:14711   */\n      mload\n        /* \"#utility.yul\":14747:14753   */\n      dup1\n        /* \"#utility.yul\":14742:14744   */\n      0x20\n        /* \"#utility.yul\":14731:14740   */\n      dup5\n        /* \"#utility.yul\":14727:14745   */\n      add\n        /* \"#utility.yul\":14720:14754   */\n      mstore\n        /* \"#utility.yul\":14763:14842   */\n      tag_819\n        /* \"#utility.yul\":14835:14841   */\n      dup2\n        /* \"#utility.yul\":14830:14832   */\n      0x40\n        /* \"#utility.yul\":14819:14828   */\n      dup6\n        /* \"#utility.yul\":14815:14833   */\n      add\n        /* \"#utility.yul\":14810:14812   */\n      0x20\n        /* \"#utility.yul\":14802:14808   */\n      dup8\n        /* \"#utility.yul\":14798:14813   */\n      add\n        /* \"#utility.yul\":14763:14842   */\n      tag_716\n      jump\t// in\n    tag_819:\n        /* \"#utility.yul\":14903:14905   */\n      0x1f\n        /* \"#utility.yul\":14882:14897   */\n      add\n      not(0x1f)\n        /* \"#utility.yul\":14878:14907   */\n      and\n        /* \"#utility.yul\":14863:14908   */\n      swap2\n      swap1\n      swap2\n      add\n        /* \"#utility.yul\":14910:14912   */\n      0x40\n        /* \"#utility.yul\":14859:14913   */\n      add\n      swap3\n        /* \"#utility.yul\":14523:14919   */\n      swap2\n      pop\n      pop\n      jump\t// out\n    stop\n    data_662a7ba1d8fb60beff3d02117181416eb800676fa4d6f1ebc4c3fea5cd79ec88 46756e6374696f6e206d7573742062652063616c6c6564207468726f75676820\n    data_75b20eef8615de99c108b05f0dbda081c91897128caa336d75dffb97c4132b4d 360894a13ba1a3210667c828492db98dca3e2076cc3735a920a3ca505d382bbc\n    data_9fdcd12e4b726339b32a442b0a448365d5d85c96b2d2cff917b4f66c63110398 416464726573733a206c6f772d6c6576656c2064656c65676174652063616c6c206661696c6564\n    data_e3d46f142e20657c402ed08bdf439babdd6fbb8091e2708315f00847c0f52cc5 3efdd7a884ff9e18c9e5711c185aa6c5e413b68f23197997da5b1665ca978f99\n\n    auxdata: 0xa26469706673582212209fb3eef1a7e8dfd481c6fe090fec9d605b631080bf75fee713d3f374a9a0c71c64736f6c63430008140033\n}\n",
				"bytecode": {
					"linkReferences": {},
					"object": "60a060405230608052348015610013575f80fd5b50608051612ab16100485f395f8181610e9801528181610ed8015281816110fc0152818161113c01526111b70152612ab15ff3fe6080604052600436106102ec575f3560e01c8063602e66231161018b578063602e6623146106d8578063669934a9146106f757806366bf8f8314610716578063698518e5146107355780636b1a9c071461074a578063715018a61461076c57806372765009146107805780637634b0701461079f578063767608e2146107be578063796f838e146107dd578063812df395146107fc57806385adb2941461081b578063863be1ab146108305780638a5705d41461084f5780638da5cb5b146108645780638e10ef0b146108785780638f05cdf51461088d57806395623641146108ac5780639a3135a8146108cb578063b2cf085e146108ed578063c4d66de81461090c578063cde857441461092b578063dbe55e561461094a578063e3d9aa0514610969578063e9d610e514610988578063eb2266bc146109a7578063ee787b11146109c6578063f2fde38b146109db578063f7656704146109fa578063f80183b214610a19578063f97fe09114610a38578063fe6dcdba14610a57578063ff85807914610a7e575f80fd5b8063057d7781146102f057806306394c9b1461032c57806308f93bd81461034d5780630b433a121461036c578063182d326e1461038f57806319a2ef5f146103b05780631e56cfab146103cf5780631e79aa0a146103ee57806321596c251461040f578063254720b714610424578063280e31cc1461046b5780632d8852ee146104965780632f48ab7d146104ab5780633360364d146104ca57806333f5780e146104e957806335aed778146105085780633659cfe61461052757806336e0cac61461054657806339cbc4051461055b5780633b2c2e55146105705780633d08e5b31461058f578063434f9736146105a4578063498c1e3c146105b95780634b0bddd2146105d85780634b21ddec146105f75780634dd40234146106165780634f1ef286146106355780635250c9b51461064857806352d1902d14610667578063570ca7351461067b57806357629f821461069a5780635bff9787146106b9575b5f80fd5b3480156102fb575f80fd5b5061030f61030a366004612492565b610a9d565b6040516001600160a01b0390911681526020015b60405180910390f35b348015610337575f80fd5b5061034b6103463660046124c4565b610ac5565b005b348015610358575f80fd5b5061034b610367366004612492565b610aef565b348015610377575f80fd5b5061038160e35481565b604051908152602001610323565b34801561039a575f80fd5b506103a3610b4e565b604051610323919061251f565b3480156103bb575f80fd5b5061034b6103ca366004612492565b610be1565b3480156103da575f80fd5b5060d45461030f906001600160a01b031681565b3480156103f9575f80fd5b50610402610c37565b604051610323919061255f565b34801561041a575f80fd5b5061038160de5481565b34801561042f575f80fd5b5061045661043e366004612492565b60df6020525f90815260409020805460019091015482565b60408051928352602083019190915201610323565b348015610476575f80fd5b506103816104853660046124c4565b60e06020525f908152604090205481565b3480156104a1575f80fd5b5061038160e25481565b3480156104b6575f80fd5b5060c95461030f906001600160a01b031681565b3480156104d5575f80fd5b5061034b6104e4366004612492565b610d28565b3480156104f4575f80fd5b5061034b610503366004612571565b610d7e565b348015610513575f80fd5b5061034b6105223660046124c4565b610e1b565b348015610532575f80fd5b5061034b6105413660046124c4565b610e8e565b348015610551575f80fd5b5061038160d15481565b348015610566575f80fd5b5061038160dd5481565b34801561057b575f80fd5b5061034b61058a366004612659565b610f55565b34801561059a575f80fd5b5061038160e65481565b3480156105af575f80fd5b5061038160d85481565b3480156105c4575f80fd5b5061034b6105d3366004612492565b61106a565b3480156105e3575f80fd5b5061034b6105f23660046126b8565b6110c0565b348015610602575f80fd5b5060db5461030f906001600160a01b031681565b348015610621575f80fd5b5060cc5461030f906001600160a01b031681565b61034b6106433660046126f1565b6110f2565b348015610653575f80fd5b5060ce5461030f906001600160a01b031681565b348015610672575f80fd5b506103816111ab565b348015610686575f80fd5b5060e45461030f906001600160a01b031681565b3480156106a5575f80fd5b5061034b6106b4366004612571565b611257565b3480156106c4575f80fd5b5060ca5461030f906001600160a01b031681565b3480156106e3575f80fd5b5060cd5461030f906001600160a01b031681565b348015610702575f80fd5b5061034b6107113660046124c4565b61130d565b348015610721575f80fd5b5061034b610730366004612492565b611380565b348015610740575f80fd5b5061038160d25481565b348015610755575f80fd5b5061075e6113d6565b604051610323929190612790565b348015610777575f80fd5b5061034b6114f5565b34801561078b575f80fd5b5061034b61079a366004612492565b611508565b3480156107aa575f80fd5b5061034b6107b9366004612492565b61155e565b3480156107c9575f80fd5b5061034b6107d8366004612492565b6115b4565b3480156107e8575f80fd5b5061034b6107f7366004612492565b61160a565b348015610807575f80fd5b5061034b6108163660046127b4565b611660565b348015610826575f80fd5b5061038160d65481565b34801561083b575f80fd5b5061034b61084a366004612492565b611720565b34801561085a575f80fd5b5061038160d75481565b34801561086f575f80fd5b5061030f611776565b348015610883575f80fd5b5061038160da5481565b348015610898575f80fd5b5060cb5461030f906001600160a01b031681565b3480156108b7575f80fd5b5060d55461030f906001600160a01b031681565b3480156108d6575f80fd5b506108df611785565b604051610323929190612824565b3480156108f8575f80fd5b5060d05461030f906001600160a01b031681565b348015610917575f80fd5b5061034b6109263660046124c4565b611849565b348015610936575f80fd5b5061034b6109453660046124c4565b611c9e565b348015610955575f80fd5b5060cf5461030f906001600160a01b031681565b348015610974575f80fd5b5061034b610983366004612836565b611d11565b348015610993575f80fd5b5060d35461030f906001600160a01b031681565b3480156109b2575f80fd5b5061034b6109c13660046124c4565b611d6d565b3480156109d1575f80fd5b5061038160d95481565b3480156109e6575f80fd5b5061034b6109f53660046124c4565b611de0565b348015610a05575f80fd5b5061034b610a143660046124c4565b611e56565b348015610a24575f80fd5b5061034b610a333660046124c4565b611ec9565b348015610a43575f80fd5b5060dc5461030f906001600160a01b031681565b348015610a62575f80fd5b5061030f73d220b3cf1e4660c5509418b42a86d7945e6e2e1881565b348015610a89575f80fd5b5061034b610a983660046124c4565b611f3c565b60e18181548110610aac575f80fd5b5f918252602090912001546001600160a01b0316905081565b610acd611faf565b60e480546001600160a01b0319166001600160a01b0392909216919091179055565b335f90815260e5602052604090205460ff1680610b245750610b0f611776565b6001600160a01b0316336001600160a01b0316145b610b495760405162461bcd60e51b8152600401610b4090612856565b60405180910390fd5b60d255565b6040805160028082526060808301845292602083019080368337505060db5482519293506001600160a01b0316918391505f90610b8d57610b8d612879565b6001600160a01b03928316602091820292909201015260dc54825191169082906001908110610bbe57610bbe612879565b60200260200101906001600160a01b031690816001600160a01b03168152505090565b335f90815260e5602052604090205460ff1680610c165750610c01611776565b6001600160a01b0316336001600160a01b0316145b610c325760405162461bcd60e51b8152600401610b4090612856565b60dd55565b60408051600680825260e082019092526060916020820160c08036833701905050905060d754815f81518110610c6f57610c6f612879565b60200260200101818152505060d85481600181518110610c9157610c91612879565b60200260200101818152505060d95481600281518110610cb357610cb3612879565b60200260200101818152505060da5481600381518110610cd557610cd5612879565b60200260200101818152505060dd5481600481518110610cf757610cf7612879565b60200260200101818152505060de5481600581518110610d1957610d19612879565b60200260200101818152505090565b335f90815260e5602052604090205460ff1680610d5d5750610d48611776565b6001600160a01b0316336001600160a01b0316145b610d795760405162461bcd60e51b8152600401610b4090612856565b60d655565b335f90815260e5602052604090205460ff1680610db35750610d9e611776565b6001600160a01b0316336001600160a01b0316145b610dcf5760405162461bcd60e51b8152600401610b4090612856565b6001600160a01b039091165f81815260e0602052604081209290925560e1805460018101825592525f80516020612a5c83398151915290910180546001600160a01b0319169091179055565b335f90815260e5602052604090205460ff1680610e505750610e3b611776565b6001600160a01b0316336001600160a01b0316145b610e6c5760405162461bcd60e51b8152600401610b4090612856565b60d580546001600160a01b0319166001600160a01b0392909216919091179055565b6001600160a01b037f0000000000000000000000000000000000000000000000000000000000000000163003610ed65760405162461bcd60e51b8152600401610b409061288d565b7f00000000000000000000000000000000000000000000000000000000000000006001600160a01b0316610f0861200e565b6001600160a01b031614610f2e5760405162461bcd60e51b8152600401610b40906128c6565b610f3781612029565b604080515f80825260208201909252610f5291839190612031565b50565b335f90815260e5602052604090205460ff1680610f8a5750610f75611776565b6001600160a01b0316336001600160a01b0316145b610fa65760405162461bcd60e51b8152600401610b4090612856565b8051825114610fe65760405162461bcd60e51b815260206004820152600c60248201526b3632b733ba341032b93937b960a11b6044820152606401610b40565b5f5b825181101561106557604051806040016040528084838151811061100e5761100e612879565b6020026020010151815260200183838151811061102d5761102d612879565b6020908102919091018101519091525f83815260df8252604090208251815591015160019091015561105e816128ff565b9050610fe8565b505050565b335f90815260e5602052604090205460ff168061109f575061108a611776565b6001600160a01b0316336001600160a01b0316145b6110bb5760405162461bcd60e51b8152600401610b4090612856565b60d955565b6110c8611faf565b6001600160a01b03919091165f90815260e560205260409020805460ff1916911515919091179055565b6001600160a01b037f000000000000000000000000000000000000000000000000000000000000000016300361113a5760405162461bcd60e51b8152600401610b409061288d565b7f00000000000000000000000000000000000000000000000000000000000000006001600160a01b031661116c61200e565b6001600160a01b0316146111925760405162461bcd60e51b8152600401610b40906128c6565b61119b82612029565b6111a782826001612031565b5050565b5f306001600160a01b037f000000000000000000000000000000000000000000000000000000000000000016146112455760405162461bcd60e51b815260206004820152603860248201527f555550535570677261646561626c653a206d757374206e6f742062652063616c6044820152771b1959081d1a1c9bdd59da0819195b1959d85d1958d85b1b60421b6064820152608401610b40565b505f80516020612a1583398151915290565b335f90815260e5602052604090205460ff168061128c5750611277611776565b6001600160a01b0316336001600160a01b0316145b6112a85760405162461bcd60e51b8152600401610b4090612856565b60cc54604051632bb14fc160e11b81526001600160a01b03848116600483015260248201849052909116906357629f82906044015f604051808303815f87803b1580156112f3575f80fd5b505af1158015611305573d5f803e3d5ffd5b505050505050565b335f90815260e5602052604090205460ff1680611342575061132d611776565b6001600160a01b0316336001600160a01b0316145b61135e5760405162461bcd60e51b8152600401610b4090612856565b60d480546001600160a01b0319166001600160a01b0392909216919091179055565b335f90815260e5602052604090205460ff16806113b557506113a0611776565b6001600160a01b0316336001600160a01b0316145b6113d15760405162461bcd60e51b8152600401610b4090612856565b60de55565b60608060e180548060200260200160405190810160405280929190818152602001828054801561142d57602002820191905f5260205f20905b81546001600160a01b0316815260019091019060200180831161140f575b5050505050915081516001600160401b0381111561144d5761144d612599565b604051908082528060200260200182016040528015611476578160200160208202803683370190505b5090505f5b82518110156114f05760e05f84838151811061149957611499612879565b60200260200101516001600160a01b03166001600160a01b031681526020019081526020015f20548282815181106114d3576114d3612879565b6020908102919091010152806114e8816128ff565b91505061147b565b509091565b6114fd611faf565b6115065f61219b565b565b335f90815260e5602052604090205460ff168061153d5750611528611776565b6001600160a01b0316336001600160a01b0316145b6115595760405162461bcd60e51b8152600401610b4090612856565b60d155565b335f90815260e5602052604090205460ff1680611593575061157e611776565b6001600160a01b0316336001600160a01b0316145b6115af5760405162461bcd60e51b8152600401610b4090612856565b60e255565b335f90815260e5602052604090205460ff16806115e957506115d4611776565b6001600160a01b0316336001600160a01b0316145b6116055760405162461bcd60e51b8152600401610b4090612856565b60e655565b335f90815260e5602052604090205460ff168061163f575061162a611776565b6001600160a01b0316336001600160a01b0316145b61165b5760405162461bcd60e51b8152600401610b4090612856565b60e355565b335f90815260e5602052604090205460ff16806116955750611680611776565b6001600160a01b0316336001600160a01b0316145b6116b15760405162461bcd60e51b8152600401610b4090612856565b60c980546001600160a01b03199081166001600160a01b039889161790915560cb805482169688169690961790955560ca805486169487169490941790935560cd805485169286169290921790915560cc8054841691851691909117905560ce80549092169216919091179055565b335f90815260e5602052604090205460ff16806117555750611740611776565b6001600160a01b0316336001600160a01b0316145b6117715760405162461bcd60e51b8152600401610b4090612856565b60da55565b6033546001600160a01b031690565b60408051600480825260a0820190925260609182919060208201608080368337505060408051600480825260a082019092529294509050602082016080803683370190505090505f5b60048110156114f0575f81815260df602052604090205483518490839081106117f9576117f9612879565b60200260200101818152505060df5f8281526020019081526020015f206001015482828151811061182c5761182c612879565b602090810291909101015280611841816128ff565b9150506117ce565b5f54610100900460ff161580801561186757505f54600160ff909116105b806118875750611876306121ec565b15801561188757505f5460ff166001145b6118ea5760405162461bcd60e51b815260206004820152602e60248201527f496e697469616c697a61626c653a20636f6e747261637420697320616c72656160448201526d191e481a5b9a5d1a585b1a5e995960921b6064820152608401610b40565b5f805460ff19166001179055801561190b575f805461ff0019166101001790555b6119136121fb565b60e480546001600160a01b0384166001600160a01b03199182161790915560cf8054821673df9228fc02f4554cd80af6d036dade242022e4f217905560d080548216734076af4556458cdd0ad25e86ed23b4dc8437dce417905561038460d1556103e860d25560d38054821673fae25f1ae4b758d7c96d7eb075b62af4f3398b8917905560d480548216737fba7858083836d9169eb3be21a48189e1798c8e17905560d580548216732737ac6359664096f22863088246d885f14e6ff29081179091556801158e460913d0000060d65569014542ba12a337c0000060e655609660d755606460d881905560d981905560da5560db80548316909117905560dc8054821673b36f6361dcf31d0d7956e9e826a9915a5ddec272179055603260dd5569043c33c193756480000060de556040805180820182525f808252602080830182815282805260df80835293517f4b917336ba36fefa23b90074e126fe5413f0e3fc800e7ab1da217d9a2807b71155517f4b917336ba36fefa23b90074e126fe5413f0e3fc800e7ab1da217d9a2807b712558351808501855269021e19e0c9bab2400000815260c8818301908152600180855285845291517f55c38c42e971eeb957b61422467f67fa3b212021ac50a6b2b3d5acd9d01cb97d55517f55c38c42e971eeb957b61422467f67fa3b212021ac50a6b2b3d5acd9d01cb97e558451808601865269065a4da25d3016c00000815261015e8184019081526002855285845290517f36d20378f308040d39a8a5e0299048c5eb6a3e2af0aad6fc5cbd63dba6084c7555517f36d20378f308040d39a8a5e0299048c5eb6a3e2af0aad6fc5cbd63dba6084c7655845180860190955269152d02c7e14af680000085526101f4858301908152600380855294835294517f780609eda5e52d7936e75ead8ec77fc018859646a90304d10fb581006956b09e5593517f780609eda5e52d7936e75ead8ec77fc018859646a90304d10fb581006956b09f5560e090527f29f40cf27a854b63617043f10b660b0f327b8234f55a91e6b6f6e8a2fa39678b9190915560e18054928301815590525f80516020612a5c83398151915201805490911673d220b3cf1e4660c5509418b42a86d7945e6e2e181790556301e1338060e255603c60e35580156111a7575f805461ff0019169055604051600181527f7f26b83ff96e1f2b6a682f133852f6798a09c465da95921460cefb38474024989060200160405180910390a15050565b335f90815260e5602052604090205460ff1680611cd35750611cbe611776565b6001600160a01b0316336001600160a01b0316145b611cef5760405162461bcd60e51b8152600401610b4090612856565b60cf80546001600160a01b0319166001600160a01b0392909216919091179055565b335f90815260e5602052604090205460ff1680611d465750611d31611776565b6001600160a01b0316336001600160a01b0316145b611d625760405162461bcd60e51b8152600401610b4090612856565b60d79190915560d855565b335f90815260e5602052604090205460ff1680611da25750611d8d611776565b6001600160a01b0316336001600160a01b0316145b611dbe5760405162461bcd60e51b8152600401610b4090612856565b60dc80546001600160a01b0319166001600160a01b0392909216919091179055565b611de8611faf565b6001600160a01b038116611e4d5760405162461bcd60e51b815260206004820152602660248201527f4f776e61626c653a206e6577206f776e657220697320746865207a65726f206160448201526564647265737360d01b6064820152608401610b40565b610f528161219b565b335f90815260e5602052604090205460ff1680611e8b5750611e76611776565b6001600160a01b0316336001600160a01b0316145b611ea75760405162461bcd60e51b8152600401610b4090612856565b60d080546001600160a01b0319166001600160a01b0392909216919091179055565b335f90815260e5602052604090205460ff1680611efe5750611ee9611776565b6001600160a01b0316336001600160a01b0316145b611f1a5760405162461bcd60e51b8152600401610b4090612856565b60d380546001600160a01b0319166001600160a01b0392909216919091179055565b335f90815260e5602052604090205460ff1680611f715750611f5c611776565b6001600160a01b0316336001600160a01b0316145b611f8d5760405162461bcd60e51b8152600401610b4090612856565b60db80546001600160a01b0319166001600160a01b0392909216919091179055565b33611fb8611776565b6001600160a01b0316146115065760405162461bcd60e51b815260206004820181905260248201527f4f776e61626c653a2063616c6c6572206973206e6f7420746865206f776e65726044820152606401610b40565b5f80516020612a15833981519152546001600160a01b031690565b610f52611faf565b7f4910fdfa16fed3260ed0e7147f7cc6da11a60208b5b9406d12a635614ffd91435460ff16156120645761106583612229565b826001600160a01b03166352d1902d6040518163ffffffff1660e01b8152600401602060405180830381865afa9250505080156120be575060408051601f3d908101601f191682019092526120bb91810190612923565b60015b6121215760405162461bcd60e51b815260206004820152602e60248201527f45524331393637557067726164653a206e657720696d706c656d656e7461746960448201526d6f6e206973206e6f74205555505360901b6064820152608401610b40565b5f80516020612a15833981519152811461218f5760405162461bcd60e51b815260206004820152602960248201527f45524331393637557067726164653a20756e737570706f727465642070726f786044820152681a58589b195555525160ba1b6064820152608401610b40565b506110658383836122c2565b603380546001600160a01b038381166001600160a01b0319831681179093556040519116919082907f8be0079c531659141344cd1fd0a4f28419497f9722a3daafe3b4186f6b6457e0905f90a35050565b6001600160a01b03163b151590565b5f54610100900460ff166122215760405162461bcd60e51b8152600401610b409061293a565b6115066122ec565b612232816121ec565b6122945760405162461bcd60e51b815260206004820152602d60248201527f455243313936373a206e657720696d706c656d656e746174696f6e206973206e60448201526c1bdd08184818dbdb9d1c9858dd609a1b6064820152608401610b40565b5f80516020612a1583398151915280546001600160a01b0319166001600160a01b0392909216919091179055565b6122cb8361231b565b5f825111806122d75750805b15611065576122e6838361235a565b50505050565b5f54610100900460ff166123125760405162461bcd60e51b8152600401610b409061293a565b6115063361219b565b61232481612229565b6040516001600160a01b038216907fbc7cd75a20ee27fd9adebab32041f755214dbc6bffa90cc0225b39da2e5c2d3b905f90a250565b6060612365836121ec565b6123c05760405162461bcd60e51b815260206004820152602660248201527f416464726573733a2064656c65676174652063616c6c20746f206e6f6e2d636f6044820152651b9d1c9858dd60d21b6064820152608401610b40565b5f80846001600160a01b0316846040516123da91906129a7565b5f60405180830381855af49150503d805f8114612412576040519150601f19603f3d011682016040523d82523d5f602084013e612417565b606091505b509150915061243f8282604051806060016040528060278152602001612a3560279139612448565b95945050505050565b60608315612457575081612461565b6124618383612468565b9392505050565b8151156124785781518083602001fd5b8060405162461bcd60e51b8152600401610b4091906129c2565b5f602082840312156124a2575f80fd5b5035919050565b80356001600160a01b03811681146124bf575f80fd5b919050565b5f602082840312156124d4575f80fd5b612461826124a9565b5f8151808452602080850194508084015f5b838110156125145781516001600160a01b0316875295820195908201906001016124ef565b509495945050505050565b602081525f61246160208301846124dd565b5f8151808452602080850194508084015f5b8381101561251457815187529582019590820190600101612543565b602081525f6124616020830184612531565b5f8060408385031215612582575f80fd5b61258b836124a9565b946020939093013593505050565b634e487b7160e01b5f52604160045260245ffd5b604051601f8201601f191681016001600160401b03811182821017156125d5576125d5612599565b604052919050565b5f82601f8301126125ec575f80fd5b813560206001600160401b0382111561260757612607612599565b8160051b6126168282016125ad565b928352848101820192828101908785111561262f575f80fd5b83870192505b8483101561264e57823582529183019190830190612635565b979650505050505050565b5f806040838503121561266a575f80fd5b82356001600160401b0380821115612680575f80fd5b61268c868387016125dd565b935060208501359150808211156126a1575f80fd5b506126ae858286016125dd565b9150509250929050565b5f80604083850312156126c9575f80fd5b6126d2836124a9565b9150602083013580151581146126e6575f80fd5b809150509250929050565b5f8060408385031215612702575f80fd5b61270b836124a9565b91506020838101356001600160401b0380821115612727575f80fd5b818601915086601f83011261273a575f80fd5b81358181111561274c5761274c612599565b61275e601f8201601f191685016125ad565b91508082528784828501011115612773575f80fd5b80848401858401375f848284010152508093505050509250929050565b604081525f6127a260408301856124dd565b828103602084015261243f8185612531565b5f805f805f8060c087890312156127c9575f80fd5b6127d2876124a9565b95506127e0602088016124a9565b94506127ee604088016124a9565b93506127fc606088016124a9565b925061280a608088016124a9565b915061281860a088016124a9565b90509295509295509295565b604081525f6127a26040830185612531565b5f8060408385031215612847575f80fd5b50508035926020909101359150565b6020808252600990820152683737ba1030b236b4b760b91b604082015260600190565b634e487b7160e01b5f52603260045260245ffd5b6020808252602c908201525f805160206129f583398151915260408201526b19195b1959d85d1958d85b1b60a21b606082015260800190565b6020808252602c908201525f805160206129f583398151915260408201526b6163746976652070726f787960a01b606082015260800190565b5f6001820161291c57634e487b7160e01b5f52601160045260245ffd5b5060010190565b5f60208284031215612933575f80fd5b5051919050565b6020808252602b908201527f496e697469616c697a61626c653a20636f6e7472616374206973206e6f74206960408201526a6e697469616c697a696e6760a81b606082015260800190565b5f5b8381101561299f578181015183820152602001612987565b50505f910152565b5f82516129b8818460208701612985565b9190910192915050565b602081525f82518060208401526129e0816040850160208701612985565b601f01601f1916919091016040019291505056fe46756e6374696f6e206d7573742062652063616c6c6564207468726f75676820360894a13ba1a3210667c828492db98dca3e2076cc3735a920a3ca505d382bbc416464726573733a206c6f772d6c6576656c2064656c65676174652063616c6c206661696c65643efdd7a884ff9e18c9e5711c185aa6c5e413b68f23197997da5b1665ca978f99a26469706673582212209fb3eef1a7e8dfd481c6fe090fec9d605b631080bf75fee713d3f374a9a0c71c64736f6c63430008140033",
					"opcodes": "PUSH1 0xA0 PUSH1 0x40 MSTORE ADDRESS PUSH1 0x80 MSTORE CALLVALUE DUP1 ISZERO PUSH2 0x13 JUMPI PUSH0 DUP1 REVERT JUMPDEST POP PUSH1 0x80 MLOAD PUSH2 0x2AB1 PUSH2 0x48 PUSH0 CODECOPY PUSH0 DUP2 DUP2 PUSH2 0xE98 ADD MSTORE DUP2 DUP2 PUSH2 0xED8 ADD MSTORE DUP2 DUP2 PUSH2 0x10FC ADD MSTORE DUP2 DUP2 PUSH2 0x113C ADD MSTORE PUSH2 0x11B7 ADD MSTORE PUSH2 0x2AB1 PUSH0 RETURN INVALID PUSH1 0x80 PUSH1 0x40 MSTORE PUSH1 0x4 CALLDATASIZE LT PUSH2 0x2EC JUMPI PUSH0 CALLDATALOAD PUSH1 0xE0 SHR DUP1 PUSH4 0x602E6623 GT PUSH2 0x18B JUMPI DUP1 PUSH4 0x602E6623 EQ PUSH2 0x6D8 JUMPI DUP1 PUSH4 0x669934A9 EQ PUSH2 0x6F7 JUMPI DUP1 PUSH4 0x66BF8F83 EQ PUSH2 0x716 JUMPI DUP1 PUSH4 0x698518E5 EQ PUSH2 0x735 JUMPI DUP1 PUSH4 0x6B1A9C07 EQ PUSH2 0x74A JUMPI DUP1 PUSH4 0x715018A6 EQ PUSH2 0x76C JUMPI DUP1 PUSH4 0x72765009 EQ PUSH2 0x780 JUMPI DUP1 PUSH4 0x7634B070 EQ PUSH2 0x79F JUMPI DUP1 PUSH4 0x767608E2 EQ PUSH2 0x7BE JUMPI DUP1 PUSH4 0x796F838E EQ PUSH2 0x7DD JUMPI DUP1 PUSH4 0x812DF395 EQ PUSH2 0x7FC JUMPI DUP1 PUSH4 0x85ADB294 EQ PUSH2 0x81B JUMPI DUP1 PUSH4 0x863BE1AB EQ PUSH2 0x830 JUMPI DUP1 PUSH4 0x8A5705D4 EQ PUSH2 0x84F JUMPI DUP1 PUSH4 0x8DA5CB5B EQ PUSH2 0x864 JUMPI DUP1 PUSH4 0x8E10EF0B EQ PUSH2 0x878 JUMPI DUP1 PUSH4 0x8F05CDF5 EQ PUSH2 0x88D JUMPI DUP1 PUSH4 0x95623641 EQ PUSH2 0x8AC JUMPI DUP1 PUSH4 0x9A3135A8 EQ PUSH2 0x8CB JUMPI DUP1 PUSH4 0xB2CF085E EQ PUSH2 0x8ED JUMPI DUP1 PUSH4 0xC4D66DE8 EQ PUSH2 0x90C JUMPI DUP1 PUSH4 0xCDE85744 EQ PUSH2 0x92B JUMPI DUP1 PUSH4 0xDBE55E56 EQ PUSH2 0x94A JUMPI DUP1 PUSH4 0xE3D9AA05 EQ PUSH2 0x969 JUMPI DUP1 PUSH4 0xE9D610E5 EQ PUSH2 0x988 JUMPI DUP1 PUSH4 0xEB2266BC EQ PUSH2 0x9A7 JUMPI DUP1 PUSH4 0xEE787B11 EQ PUSH2 0x9C6 JUMPI DUP1 PUSH4 0xF2FDE38B EQ PUSH2 0x9DB JUMPI DUP1 PUSH4 0xF7656704 EQ PUSH2 0x9FA JUMPI DUP1 PUSH4 0xF80183B2 EQ PUSH2 0xA19 JUMPI DUP1 PUSH4 0xF97FE091 EQ PUSH2 0xA38 JUMPI DUP1 PUSH4 0xFE6DCDBA EQ PUSH2 0xA57 JUMPI DUP1 PUSH4 0xFF858079 EQ PUSH2 0xA7E JUMPI PUSH0 DUP1 REVERT JUMPDEST DUP1 PUSH4 0x57D7781 EQ PUSH2 0x2F0 JUMPI DUP1 PUSH4 0x6394C9B EQ PUSH2 0x32C JUMPI DUP1 PUSH4 0x8F93BD8 EQ PUSH2 0x34D JUMPI DUP1 PUSH4 0xB433A12 EQ PUSH2 0x36C JUMPI DUP1 PUSH4 0x182D326E EQ PUSH2 0x38F JUMPI DUP1 PUSH4 0x19A2EF5F EQ PUSH2 0x3B0 JUMPI DUP1 PUSH4 0x1E56CFAB EQ PUSH2 0x3CF JUMPI DUP1 PUSH4 0x1E79AA0A EQ PUSH2 0x3EE JUMPI DUP1 PUSH4 0x21596C25 EQ PUSH2 0x40F JUMPI DUP1 PUSH4 0x254720B7 EQ PUSH2 0x424 JUMPI DUP1 PUSH4 0x280E31CC EQ PUSH2 0x46B JUMPI DUP1 PUSH4 0x2D8852EE EQ PUSH2 0x496 JUMPI DUP1 PUSH4 0x2F48AB7D EQ PUSH2 0x4AB JUMPI DUP1 PUSH4 0x3360364D EQ PUSH2 0x4CA JUMPI DUP1 PUSH4 0x33F5780E EQ PUSH2 0x4E9 JUMPI DUP1 PUSH4 0x35AED778 EQ PUSH2 0x508 JUMPI DUP1 PUSH4 0x3659CFE6 EQ PUSH2 0x527 JUMPI DUP1 PUSH4 0x36E0CAC6 EQ PUSH2 0x546 JUMPI DUP1 PUSH4 0x39CBC405 EQ PUSH2 0x55B JUMPI DUP1 PUSH4 0x3B2C2E55 EQ PUSH2 0x570 JUMPI DUP1 PUSH4 0x3D08E5B3 EQ PUSH2 0x58F JUMPI DUP1 PUSH4 0x434F9736 EQ PUSH2 0x5A4 JUMPI DUP1 PUSH4 0x498C1E3C EQ PUSH2 0x5B9 JUMPI DUP1 PUSH4 0x4B0BDDD2 EQ PUSH2 0x5D8 JUMPI DUP1 PUSH4 0x4B21DDEC EQ PUSH2 0x5F7 JUMPI DUP1 PUSH4 0x4DD40234 EQ PUSH2 0x616 JUMPI DUP1 PUSH4 0x4F1EF286 EQ PUSH2 0x635 JUMPI DUP1 PUSH4 0x5250C9B5 EQ PUSH2 0x648 JUMPI DUP1 PUSH4 0x52D1902D EQ PUSH2 0x667 JUMPI DUP1 PUSH4 0x570CA735 EQ PUSH2 0x67B JUMPI DUP1 PUSH4 0x57629F82 EQ PUSH2 0x69A JUMPI DUP1 PUSH4 0x5BFF9787 EQ PUSH2 0x6B9 JUMPI JUMPDEST PUSH0 DUP1 REVERT JUMPDEST CALLVALUE DUP1 ISZERO PUSH2 0x2FB JUMPI PUSH0 DUP1 REVERT JUMPDEST POP PUSH2 0x30F PUSH2 0x30A CALLDATASIZE PUSH1 0x4 PUSH2 0x2492 JUMP JUMPDEST PUSH2 0xA9D JUMP JUMPDEST PUSH1 0x40 MLOAD PUSH1 0x1 PUSH1 0x1 PUSH1 0xA0 SHL SUB SWAP1 SWAP2 AND DUP2 MSTORE PUSH1 0x20 ADD JUMPDEST PUSH1 0x40 MLOAD DUP1 SWAP2 SUB SWAP1 RETURN JUMPDEST CALLVALUE DUP1 ISZERO PUSH2 0x337 JUMPI PUSH0 DUP1 REVERT JUMPDEST POP PUSH2 0x34B PUSH2 0x346 CALLDATASIZE PUSH1 0x4 PUSH2 0x24C4 JUMP JUMPDEST PUSH2 0xAC5 JUMP JUMPDEST STOP JUMPDEST CALLVALUE DUP1 ISZERO PUSH2 0x358 JUMPI PUSH0 DUP1 REVERT JUMPDEST POP PUSH2 0x34B PUSH2 0x367 CALLDATASIZE PUSH1 0x4 PUSH2 0x2492 JUMP JUMPDEST PUSH2 0xAEF JUMP JUMPDEST CALLVALUE DUP1 ISZERO PUSH2 0x377 JUMPI PUSH0 DUP1 REVERT JUMPDEST POP PUSH2 0x381 PUSH1 0xE3 SLOAD DUP2 JUMP JUMPDEST PUSH1 0x40 MLOAD SWAP1 DUP2 MSTORE PUSH1 0x20 ADD PUSH2 0x323 JUMP JUMPDEST CALLVALUE DUP1 ISZERO PUSH2 0x39A JUMPI PUSH0 DUP1 REVERT JUMPDEST POP PUSH2 0x3A3 PUSH2 0xB4E JUMP JUMPDEST PUSH1 0x40 MLOAD PUSH2 0x323 SWAP2 SWAP1 PUSH2 0x251F JUMP JUMPDEST CALLVALUE DUP1 ISZERO PUSH2 0x3BB JUMPI PUSH0 DUP1 REVERT JUMPDEST POP PUSH2 0x34B PUSH2 0x3CA CALLDATASIZE PUSH1 0x4 PUSH2 0x2492 JUMP JUMPDEST PUSH2 0xBE1 JUMP JUMPDEST CALLVALUE DUP1 ISZERO PUSH2 0x3DA JUMPI PUSH0 DUP1 REVERT JUMPDEST POP PUSH1 0xD4 SLOAD PUSH2 0x30F SWAP1 PUSH1 0x1 PUSH1 0x1 PUSH1 0xA0 SHL SUB AND DUP2 JUMP JUMPDEST CALLVALUE DUP1 ISZERO PUSH2 0x3F9 JUMPI PUSH0 DUP1 REVERT JUMPDEST POP PUSH2 0x402 PUSH2 0xC37 JUMP JUMPDEST PUSH1 0x40 MLOAD PUSH2 0x323 SWAP2 SWAP1 PUSH2 0x255F JUMP JUMPDEST CALLVALUE DUP1 ISZERO PUSH2 0x41A JUMPI PUSH0 DUP1 REVERT JUMPDEST POP PUSH2 0x381 PUSH1 0xDE SLOAD DUP2 JUMP JUMPDEST CALLVALUE DUP1 ISZERO PUSH2 0x42F JUMPI PUSH0 DUP1 REVERT JUMPDEST POP PUSH2 0x456 PUSH2 0x43E CALLDATASIZE PUSH1 0x4 PUSH2 0x2492 JUMP JUMPDEST PUSH1 0xDF PUSH1 0x20 MSTORE PUSH0 SWAP1 DUP2 MSTORE PUSH1 0x40 SWAP1 KECCAK256 DUP1 SLOAD PUSH1 0x1 SWAP1 SWAP2 ADD SLOAD DUP3 JUMP JUMPDEST PUSH1 0x40 DUP1 MLOAD SWAP3 DUP4 MSTORE PUSH1 0x20 DUP4 ADD SWAP2 SWAP1 SWAP2 MSTORE ADD PUSH2 0x323 JUMP JUMPDEST CALLVALUE DUP1 ISZERO PUSH2 0x476 JUMPI PUSH0 DUP1 REVERT JUMPDEST POP PUSH2 0x381 PUSH2 0x485 CALLDATASIZE PUSH1 0x4 PUSH2 0x24C4 JUMP JUMPDEST PUSH1 0xE0 PUSH1 0x20 MSTORE PUSH0 SWAP1 DUP2 MSTORE PUSH1 0x40 SWAP1 KECCAK256 SLOAD DUP2 JUMP JUMPDEST CALLVALUE DUP1 ISZERO PUSH2 0x4A1 JUMPI PUSH0 DUP1 REVERT JUMPDEST POP PUSH2 0x381 PUSH1 0xE2 SLOAD DUP2 JUMP JUMPDEST CALLVALUE DUP1 ISZERO PUSH2 0x4B6 JUMPI PUSH0 DUP1 REVERT JUMPDEST POP PUSH1 0xC9 SLOAD PUSH2 0x30F SWAP1 PUSH1 0x1 PUSH1 0x1 PUSH1 0xA0 SHL SUB AND DUP2 JUMP JUMPDEST CALLVALUE DUP1 ISZERO PUSH2 0x4D5 JUMPI PUSH0 DUP1 REVERT JUMPDEST POP PUSH2 0x34B PUSH2 0x4E4 CALLDATASIZE PUSH1 0x4 PUSH2 0x2492 JUMP JUMPDEST PUSH2 0xD28 JUMP JUMPDEST CALLVALUE DUP1 ISZERO PUSH2 0x4F4 JUMPI PUSH0 DUP1 REVERT JUMPDEST POP PUSH2 0x34B PUSH2 0x503 CALLDATASIZE PUSH1 0x4 PUSH2 0x2571 JUMP JUMPDEST PUSH2 0xD7E JUMP JUMPDEST CALLVALUE DUP1 ISZERO PUSH2 0x513 JUMPI PUSH0 DUP1 REVERT JUMPDEST POP PUSH2 0x34B PUSH2 0x522 CALLDATASIZE PUSH1 0x4 PUSH2 0x24C4 JUMP JUMPDEST PUSH2 0xE1B JUMP JUMPDEST CALLVALUE DUP1 ISZERO PUSH2 0x532 JUMPI PUSH0 DUP1 REVERT JUMPDEST POP PUSH2 0x34B PUSH2 0x541 CALLDATASIZE PUSH1 0x4 PUSH2 0x24C4 JUMP JUMPDEST PUSH2 0xE8E JUMP JUMPDEST CALLVALUE DUP1 ISZERO PUSH2 0x551 JUMPI PUSH0 DUP1 REVERT JUMPDEST POP PUSH2 0x381 PUSH1 0xD1 SLOAD DUP2 JUMP JUMPDEST CALLVALUE DUP1 ISZERO PUSH2 0x566 JUMPI PUSH0 DUP1 REVERT JUMPDEST POP PUSH2 0x381 PUSH1 0xDD SLOAD DUP2 JUMP JUMPDEST CALLVALUE DUP1 ISZERO PUSH2 0x57B JUMPI PUSH0 DUP1 REVERT JUMPDEST POP PUSH2 0x34B PUSH2 0x58A CALLDATASIZE PUSH1 0x4 PUSH2 0x2659 JUMP JUMPDEST PUSH2 0xF55 JUMP JUMPDEST CALLVALUE DUP1 ISZERO PUSH2 0x59A JUMPI PUSH0 DUP1 REVERT JUMPDEST POP PUSH2 0x381 PUSH1 0xE6 SLOAD DUP2 JUMP JUMPDEST CALLVALUE DUP1 ISZERO PUSH2 0x5AF JUMPI PUSH0 DUP1 REVERT JUMPDEST POP PUSH2 0x381 PUSH1 0xD8 SLOAD DUP2 JUMP JUMPDEST CALLVALUE DUP1 ISZERO PUSH2 0x5C4 JUMPI PUSH0 DUP1 REVERT JUMPDEST POP PUSH2 0x34B PUSH2 0x5D3 CALLDATASIZE PUSH1 0x4 PUSH2 0x2492 JUMP JUMPDEST PUSH2 0x106A JUMP JUMPDEST CALLVALUE DUP1 ISZERO PUSH2 0x5E3 JUMPI PUSH0 DUP1 REVERT JUMPDEST POP PUSH2 0x34B PUSH2 0x5F2 CALLDATASIZE PUSH1 0x4 PUSH2 0x26B8 JUMP JUMPDEST PUSH2 0x10C0 JUMP JUMPDEST CALLVALUE DUP1 ISZERO PUSH2 0x602 JUMPI PUSH0 DUP1 REVERT JUMPDEST POP PUSH1 0xDB SLOAD PUSH2 0x30F SWAP1 PUSH1 0x1 PUSH1 0x1 PUSH1 0xA0 SHL SUB AND DUP2 JUMP JUMPDEST CALLVALUE DUP1 ISZERO PUSH2 0x621 JUMPI PUSH0 DUP1 REVERT JUMPDEST POP PUSH1 0xCC SLOAD PUSH2 0x30F SWAP1 PUSH1 0x1 PUSH1 0x1 PUSH1 0xA0 SHL SUB AND DUP2 JUMP JUMPDEST PUSH2 0x34B PUSH2 0x643 CALLDATASIZE PUSH1 0x4 PUSH2 0x26F1 JUMP JUMPDEST PUSH2 0x10F2 JUMP JUMPDEST CALLVALUE DUP1 ISZERO PUSH2 0x653 JUMPI PUSH0 DUP1 REVERT JUMPDEST POP PUSH1 0xCE SLOAD PUSH2 0x30F SWAP1 PUSH1 0x1 PUSH1 0x1 PUSH1 0xA0 SHL SUB AND DUP2 JUMP JUMPDEST CALLVALUE DUP1 ISZERO PUSH2 0x672 JUMPI PUSH0 DUP1 REVERT JUMPDEST POP PUSH2 0x381 PUSH2 0x11AB JUMP JUMPDEST CALLVALUE DUP1 ISZERO PUSH2 0x686 JUMPI PUSH0 DUP1 REVERT JUMPDEST POP PUSH1 0xE4 SLOAD PUSH2 0x30F SWAP1 PUSH1 0x1 PUSH1 0x1 PUSH1 0xA0 SHL SUB AND DUP2 JUMP JUMPDEST CALLVALUE DUP1 ISZERO PUSH2 0x6A5 JUMPI PUSH0 DUP1 REVERT JUMPDEST POP PUSH2 0x34B PUSH2 0x6B4 CALLDATASIZE PUSH1 0x4 PUSH2 0x2571 JUMP JUMPDEST PUSH2 0x1257 JUMP JUMPDEST CALLVALUE DUP1 ISZERO PUSH2 0x6C4 JUMPI PUSH0 DUP1 REVERT JUMPDEST POP PUSH1 0xCA SLOAD PUSH2 0x30F SWAP1 PUSH1 0x1 PUSH1 0x1 PUSH1 0xA0 SHL SUB AND DUP2 JUMP JUMPDEST CALLVALUE DUP1 ISZERO PUSH2 0x6E3 JUMPI PUSH0 DUP1 REVERT JUMPDEST POP PUSH1 0xCD SLOAD PUSH2 0x30F SWAP1 PUSH1 0x1 PUSH1 0x1 PUSH1 0xA0 SHL SUB AND DUP2 JUMP JUMPDEST CALLVALUE DUP1 ISZERO PUSH2 0x702 JUMPI PUSH0 DUP1 REVERT JUMPDEST POP PUSH2 0x34B PUSH2 0x711 CALLDATASIZE PUSH1 0x4 PUSH2 0x24C4 JUMP JUMPDEST PUSH2 0x130D JUMP JUMPDEST CALLVALUE DUP1 ISZERO PUSH2 0x721 JUMPI PUSH0 DUP1 REVERT JUMPDEST POP PUSH2 0x34B PUSH2 0x730 CALLDATASIZE PUSH1 0x4 PUSH2 0x2492 JUMP JUMPDEST PUSH2 0x1380 JUMP JUMPDEST CALLVALUE DUP1 ISZERO PUSH2 0x740 JUMPI PUSH0 DUP1 REVERT JUMPDEST POP PUSH2 0x381 PUSH1 0xD2 SLOAD DUP2 JUMP JUMPDEST CALLVALUE DUP1 ISZERO PUSH2 0x755 JUMPI PUSH0 DUP1 REVERT JUMPDEST POP PUSH2 0x75E PUSH2 0x13D6 JUMP JUMPDEST PUSH1 0x40 MLOAD PUSH2 0x323 SWAP3 SWAP2 SWAP1 PUSH2 0x2790 JUMP JUMPDEST CALLVALUE DUP1 ISZERO PUSH2 0x777 JUMPI PUSH0 DUP1 REVERT JUMPDEST POP PUSH2 0x34B PUSH2 0x14F5 JUMP JUMPDEST CALLVALUE DUP1 ISZERO PUSH2 0x78B JUMPI PUSH0 DUP1 REVERT JUMPDEST POP PUSH2 0x34B PUSH2 0x79A CALLDATASIZE PUSH1 0x4 PUSH2 0x2492 JUMP JUMPDEST PUSH2 0x1508 JUMP JUMPDEST CALLVALUE DUP1 ISZERO PUSH2 0x7AA JUMPI PUSH0 DUP1 REVERT JUMPDEST POP PUSH2 0x34B PUSH2 0x7B9 CALLDATASIZE PUSH1 0x4 PUSH2 0x2492 JUMP JUMPDEST PUSH2 0x155E JUMP JUMPDEST CALLVALUE DUP1 ISZERO PUSH2 0x7C9 JUMPI PUSH0 DUP1 REVERT JUMPDEST POP PUSH2 0x34B PUSH2 0x7D8 CALLDATASIZE PUSH1 0x4 PUSH2 0x2492 JUMP JUMPDEST PUSH2 0x15B4 JUMP JUMPDEST CALLVALUE DUP1 ISZERO PUSH2 0x7E8 JUMPI PUSH0 DUP1 REVERT JUMPDEST POP PUSH2 0x34B PUSH2 0x7F7 CALLDATASIZE PUSH1 0x4 PUSH2 0x2492 JUMP JUMPDEST PUSH2 0x160A JUMP JUMPDEST CALLVALUE DUP1 ISZERO PUSH2 0x807 JUMPI PUSH0 DUP1 REVERT JUMPDEST POP PUSH2 0x34B PUSH2 0x816 CALLDATASIZE PUSH1 0x4 PUSH2 0x27B4 JUMP JUMPDEST PUSH2 0x1660 JUMP JUMPDEST CALLVALUE DUP1 ISZERO PUSH2 0x826 JUMPI PUSH0 DUP1 REVERT JUMPDEST POP PUSH2 0x381 PUSH1 0xD6 SLOAD DUP2 JUMP JUMPDEST CALLVALUE DUP1 ISZERO PUSH2 0x83B JUMPI PUSH0 DUP1 REVERT JUMPDEST POP PUSH2 0x34B PUSH2 0x84A CALLDATASIZE PUSH1 0x4 PUSH2 0x2492 JUMP JUMPDEST PUSH2 0x1720 JUMP JUMPDEST CALLVALUE DUP1 ISZERO PUSH2 0x85A JUMPI PUSH0 DUP1 REVERT JUMPDEST POP PUSH2 0x381 PUSH1 0xD7 SLOAD DUP2 JUMP JUMPDEST CALLVALUE DUP1 ISZERO PUSH2 0x86F JUMPI PUSH0 DUP1 REVERT JUMPDEST POP PUSH2 0x30F PUSH2 0x1776 JUMP JUMPDEST CALLVALUE DUP1 ISZERO PUSH2 0x883 JUMPI PUSH0 DUP1 REVERT JUMPDEST POP PUSH2 0x381 PUSH1 0xDA SLOAD DUP2 JUMP JUMPDEST CALLVALUE DUP1 ISZERO PUSH2 0x898 JUMPI PUSH0 DUP1 REVERT JUMPDEST POP PUSH1 0xCB SLOAD PUSH2 0x30F SWAP1 PUSH1 0x1 PUSH1 0x1 PUSH1 0xA0 SHL SUB AND DUP2 JUMP JUMPDEST CALLVALUE DUP1 ISZERO PUSH2 0x8B7 JUMPI PUSH0 DUP1 REVERT JUMPDEST POP PUSH1 0xD5 SLOAD PUSH2 0x30F SWAP1 PUSH1 0x1 PUSH1 0x1 PUSH1 0xA0 SHL SUB AND DUP2 JUMP JUMPDEST CALLVALUE DUP1 ISZERO PUSH2 0x8D6 JUMPI PUSH0 DUP1 REVERT JUMPDEST POP PUSH2 0x8DF PUSH2 0x1785 JUMP JUMPDEST PUSH1 0x40 MLOAD PUSH2 0x323 SWAP3 SWAP2 SWAP1 PUSH2 0x2824 JUMP JUMPDEST CALLVALUE DUP1 ISZERO PUSH2 0x8F8 JUMPI PUSH0 DUP1 REVERT JUMPDEST POP PUSH1 0xD0 SLOAD PUSH2 0x30F SWAP1 PUSH1 0x1 PUSH1 0x1 PUSH1 0xA0 SHL SUB AND DUP2 JUMP JUMPDEST CALLVALUE DUP1 ISZERO PUSH2 0x917 JUMPI PUSH0 DUP1 REVERT JUMPDEST POP PUSH2 0x34B PUSH2 0x926 CALLDATASIZE PUSH1 0x4 PUSH2 0x24C4 JUMP JUMPDEST PUSH2 0x1849 JUMP JUMPDEST CALLVALUE DUP1 ISZERO PUSH2 0x936 JUMPI PUSH0 DUP1 REVERT JUMPDEST POP PUSH2 0x34B PUSH2 0x945 CALLDATASIZE PUSH1 0x4 PUSH2 0x24C4 JUMP JUMPDEST PUSH2 0x1C9E JUMP JUMPDEST CALLVALUE DUP1 ISZERO PUSH2 0x955 JUMPI PUSH0 DUP1 REVERT JUMPDEST POP PUSH1 0xCF SLOAD PUSH2 0x30F SWAP1 PUSH1 0x1 PUSH1 0x1 PUSH1 0xA0 SHL SUB AND DUP2 JUMP JUMPDEST CALLVALUE DUP1 ISZERO PUSH2 0x974 JUMPI PUSH0 DUP1 REVERT JUMPDEST POP PUSH2 0x34B PUSH2 0x983 CALLDATASIZE PUSH1 0x4 PUSH2 0x2836 JUMP JUMPDEST PUSH2 0x1D11 JUMP JUMPDEST CALLVALUE DUP1 ISZERO PUSH2 0x993 JUMPI PUSH0 DUP1 REVERT JUMPDEST POP PUSH1 0xD3 SLOAD PUSH2 0x30F SWAP1 PUSH1 0x1 PUSH1 0x1 PUSH1 0xA0 SHL SUB AND DUP2 JUMP JUMPDEST CALLVALUE DUP1 ISZERO PUSH2 0x9B2 JUMPI PUSH0 DUP1 REVERT JUMPDEST POP PUSH2 0x34B PUSH2 0x9C1 CALLDATASIZE PUSH1 0x4 PUSH2 0x24C4 JUMP JUMPDEST PUSH2 0x1D6D JUMP JUMPDEST CALLVALUE DUP1 ISZERO PUSH2 0x9D1 JUMPI PUSH0 DUP1 REVERT JUMPDEST POP PUSH2 0x381 PUSH1 0xD9 SLOAD DUP2 JUMP JUMPDEST CALLVALUE DUP1 ISZERO PUSH2 0x9E6 JUMPI PUSH0 DUP1 REVERT JUMPDEST POP PUSH2 0x34B PUSH2 0x9F5 CALLDATASIZE PUSH1 0x4 PUSH2 0x24C4 JUMP JUMPDEST PUSH2 0x1DE0 JUMP JUMPDEST CALLVALUE DUP1 ISZERO PUSH2 0xA05 JUMPI PUSH0 DUP1 REVERT JUMPDEST POP PUSH2 0x34B PUSH2 0xA14 CALLDATASIZE PUSH1 0x4 PUSH2 0x24C4 JUMP JUMPDEST PUSH2 0x1E56 JUMP JUMPDEST CALLVALUE DUP1 ISZERO PUSH2 0xA24 JUMPI PUSH0 DUP1 REVERT JUMPDEST POP PUSH2 0x34B PUSH2 0xA33 CALLDATASIZE PUSH1 0x4 PUSH2 0x24C4 JUMP JUMPDEST PUSH2 0x1EC9 JUMP JUMPDEST CALLVALUE DUP1 ISZERO PUSH2 0xA43 JUMPI PUSH0 DUP1 REVERT JUMPDEST POP PUSH1 0xDC SLOAD PUSH2 0x30F SWAP1 PUSH1 0x1 PUSH1 0x1 PUSH1 0xA0 SHL SUB AND DUP2 JUMP JUMPDEST CALLVALUE DUP1 ISZERO PUSH2 0xA62 JUMPI PUSH0 DUP1 REVERT JUMPDEST POP PUSH2 0x30F PUSH20 0xD220B3CF1E4660C5509418B42A86D7945E6E2E18 DUP2 JUMP JUMPDEST CALLVALUE DUP1 ISZERO PUSH2 0xA89 JUMPI PUSH0 DUP1 REVERT JUMPDEST POP PUSH2 0x34B PUSH2 0xA98 CALLDATASIZE PUSH1 0x4 PUSH2 0x24C4 JUMP JUMPDEST PUSH2 0x1F3C JUMP JUMPDEST PUSH1 0xE1 DUP2 DUP2 SLOAD DUP2 LT PUSH2 0xAAC JUMPI PUSH0 DUP1 REVERT JUMPDEST PUSH0 SWAP2 DUP3 MSTORE PUSH1 0x20 SWAP1 SWAP2 KECCAK256 ADD SLOAD PUSH1 0x1 PUSH1 0x1 PUSH1 0xA0 SHL SUB AND SWAP1 POP DUP2 JUMP JUMPDEST PUSH2 0xACD PUSH2 0x1FAF JUMP JUMPDEST PUSH1 0xE4 DUP1 SLOAD PUSH1 0x1 PUSH1 0x1 PUSH1 0xA0 SHL SUB NOT AND PUSH1 0x1 PUSH1 0x1 PUSH1 0xA0 SHL SUB SWAP3 SWAP1 SWAP3 AND SWAP2 SWAP1 SWAP2 OR SWAP1 SSTORE JUMP JUMPDEST CALLER PUSH0 SWAP1 DUP2 MSTORE PUSH1 0xE5 PUSH1 0x20 MSTORE PUSH1 0x40 SWAP1 KECCAK256 SLOAD PUSH1 0xFF AND DUP1 PUSH2 0xB24 JUMPI POP PUSH2 0xB0F PUSH2 0x1776 JUMP JUMPDEST PUSH1 0x1 PUSH1 0x1 PUSH1 0xA0 SHL SUB AND CALLER PUSH1 0x1 PUSH1 0x1 PUSH1 0xA0 SHL SUB AND EQ JUMPDEST PUSH2 0xB49 JUMPI PUSH1 0x40 MLOAD PUSH3 0x461BCD PUSH1 0xE5 SHL DUP2 MSTORE PUSH1 0x4 ADD PUSH2 0xB40 SWAP1 PUSH2 0x2856 JUMP JUMPDEST PUSH1 0x40 MLOAD DUP1 SWAP2 SUB SWAP1 REVERT JUMPDEST PUSH1 0xD2 SSTORE JUMP JUMPDEST PUSH1 0x40 DUP1 MLOAD PUSH1 0x2 DUP1 DUP3 MSTORE PUSH1 0x60 DUP1 DUP4 ADD DUP5 MSTORE SWAP3 PUSH1 0x20 DUP4 ADD SWAP1 DUP1 CALLDATASIZE DUP4 CALLDATACOPY POP POP PUSH1 0xDB SLOAD DUP3 MLOAD SWAP3 SWAP4 POP PUSH1 0x1 PUSH1 0x1 PUSH1 0xA0 SHL SUB AND SWAP2 DUP4 SWAP2 POP PUSH0 SWAP1 PUSH2 0xB8D JUMPI PUSH2 0xB8D PUSH2 0x2879 JUMP JUMPDEST PUSH1 0x1 PUSH1 0x1 PUSH1 0xA0 SHL SUB SWAP3 DUP4 AND PUSH1 0x20 SWAP2 DUP3 MUL SWAP3 SWAP1 SWAP3 ADD ADD MSTORE PUSH1 0xDC SLOAD DUP3 MLOAD SWAP2 AND SWAP1 DUP3 SWAP1 PUSH1 0x1 SWAP1 DUP2 LT PUSH2 0xBBE JUMPI PUSH2 0xBBE PUSH2 0x2879 JUMP JUMPDEST PUSH1 0x20 MUL PUSH1 0x20 ADD ADD SWAP1 PUSH1 0x1 PUSH1 0x1 PUSH1 0xA0 SHL SUB AND SWAP1 DUP2 PUSH1 0x1 PUSH1 0x1 PUSH1 0xA0 SHL SUB AND DUP2 MSTORE POP POP SWAP1 JUMP JUMPDEST CALLER PUSH0 SWAP1 DUP2 MSTORE PUSH1 0xE5 PUSH1 0x20 MSTORE PUSH1 0x40 SWAP1 KECCAK256 SLOAD PUSH1 0xFF AND DUP1 PUSH2 0xC16 JUMPI POP PUSH2 0xC01 PUSH2 0x1776 JUMP JUMPDEST PUSH1 0x1 PUSH1 0x1 PUSH1 0xA0 SHL SUB AND CALLER PUSH1 0x1 PUSH1 0x1 PUSH1 0xA0 SHL SUB AND EQ JUMPDEST PUSH2 0xC32 JUMPI PUSH1 0x40 MLOAD PUSH3 0x461BCD PUSH1 0xE5 SHL DUP2 MSTORE PUSH1 0x4 ADD PUSH2 0xB40 SWAP1 PUSH2 0x2856 JUMP JUMPDEST PUSH1 0xDD SSTORE JUMP JUMPDEST PUSH1 0x40 DUP1 MLOAD PUSH1 0x6 DUP1 DUP3 MSTORE PUSH1 0xE0 DUP3 ADD SWAP1 SWAP3 MSTORE PUSH1 0x60 SWAP2 PUSH1 0x20 DUP3 ADD PUSH1 0xC0 DUP1 CALLDATASIZE DUP4 CALLDATACOPY ADD SWAP1 POP POP SWAP1 POP PUSH1 0xD7 SLOAD DUP2 PUSH0 DUP2 MLOAD DUP2 LT PUSH2 0xC6F JUMPI PUSH2 0xC6F PUSH2 0x2879 JUMP JUMPDEST PUSH1 0x20 MUL PUSH1 0x20 ADD ADD DUP2 DUP2 MSTORE POP POP PUSH1 0xD8 SLOAD DUP2 PUSH1 0x1 DUP2 MLOAD DUP2 LT PUSH2 0xC91 JUMPI PUSH2 0xC91 PUSH2 0x2879 JUMP JUMPDEST PUSH1 0x20 MUL PUSH1 0x20 ADD ADD DUP2 DUP2 MSTORE POP POP PUSH1 0xD9 SLOAD DUP2 PUSH1 0x2 DUP2 MLOAD DUP2 LT PUSH2 0xCB3 JUMPI PUSH2 0xCB3 PUSH2 0x2879 JUMP JUMPDEST PUSH1 0x20 MUL PUSH1 0x20 ADD ADD DUP2 DUP2 MSTORE POP POP PUSH1 0xDA SLOAD DUP2 PUSH1 0x3 DUP2 MLOAD DUP2 LT PUSH2 0xCD5 JUMPI PUSH2 0xCD5 PUSH2 0x2879 JUMP JUMPDEST PUSH1 0x20 MUL PUSH1 0x20 ADD ADD DUP2 DUP2 MSTORE POP POP PUSH1 0xDD SLOAD DUP2 PUSH1 0x4 DUP2 MLOAD DUP2 LT PUSH2 0xCF7 JUMPI PUSH2 0xCF7 PUSH2 0x2879 JUMP JUMPDEST PUSH1 0x20 MUL PUSH1 0x20 ADD ADD DUP2 DUP2 MSTORE POP POP PUSH1 0xDE SLOAD DUP2 PUSH1 0x5 DUP2 MLOAD DUP2 LT PUSH2 0xD19 JUMPI PUSH2 0xD19 PUSH2 0x2879 JUMP JUMPDEST PUSH1 0x20 MUL PUSH1 0x20 ADD ADD DUP2 DUP2 MSTORE POP POP SWAP1 JUMP JUMPDEST CALLER PUSH0 SWAP1 DUP2 MSTORE PUSH1 0xE5 PUSH1 0x20 MSTORE PUSH1 0x40 SWAP1 KECCAK256 SLOAD PUSH1 0xFF AND DUP1 PUSH2 0xD5D JUMPI POP PUSH2 0xD48 PUSH2 0x1776 JUMP JUMPDEST PUSH1 0x1 PUSH1 0x1 PUSH1 0xA0 SHL SUB AND CALLER PUSH1 0x1 PUSH1 0x1 PUSH1 0xA0 SHL SUB AND EQ JUMPDEST PUSH2 0xD79 JUMPI PUSH1 0x40 MLOAD PUSH3 0x461BCD PUSH1 0xE5 SHL DUP2 MSTORE PUSH1 0x4 ADD PUSH2 0xB40 SWAP1 PUSH2 0x2856 JUMP JUMPDEST PUSH1 0xD6 SSTORE JUMP JUMPDEST CALLER PUSH0 SWAP1 DUP2 MSTORE PUSH1 0xE5 PUSH1 0x20 MSTORE PUSH1 0x40 SWAP1 KECCAK256 SLOAD PUSH1 0xFF AND DUP1 PUSH2 0xDB3 JUMPI POP PUSH2 0xD9E PUSH2 0x1776 JUMP JUMPDEST PUSH1 0x1 PUSH1 0x1 PUSH1 0xA0 SHL SUB AND CALLER PUSH1 0x1 PUSH1 0x1 PUSH1 0xA0 SHL SUB AND EQ JUMPDEST PUSH2 0xDCF JUMPI PUSH1 0x40 MLOAD PUSH3 0x461BCD PUSH1 0xE5 SHL DUP2 MSTORE PUSH1 0x4 ADD PUSH2 0xB40 SWAP1 PUSH2 0x2856 JUMP JUMPDEST PUSH1 0x1 PUSH1 0x1 PUSH1 0xA0 SHL SUB SWAP1 SWAP2 AND PUSH0 DUP2 DUP2 MSTORE PUSH1 0xE0 PUSH1 0x20 MSTORE PUSH1 0x40 DUP2 KECCAK256 SWAP3 SWAP1 SWAP3 SSTORE PUSH1 0xE1 DUP1 SLOAD PUSH1 0x1 DUP2 ADD DUP3 SSTORE SWAP3 MSTORE PUSH0 DUP1 MLOAD PUSH1 0x20 PUSH2 0x2A5C DUP4 CODECOPY DUP2 MLOAD SWAP2 MSTORE SWAP1 SWAP2 ADD DUP1 SLOAD PUSH1 0x1 PUSH1 0x1 PUSH1 0xA0 SHL SUB NOT AND SWAP1 SWAP2 OR SWAP1 SSTORE JUMP JUMPDEST CALLER PUSH0 SWAP1 DUP2 MSTORE PUSH1 0xE5 PUSH1 0x20 MSTORE PUSH1 0x40 SWAP1 KECCAK256 SLOAD PUSH1 0xFF AND DUP1 PUSH2 0xE50 JUMPI POP PUSH2 0xE3B PUSH2 0x1776 JUMP JUMPDEST PUSH1 0x1 PUSH1 0x1 PUSH1 0xA0 SHL SUB AND CALLER PUSH1 0x1 PUSH1 0x1 PUSH1 0xA0 SHL SUB AND EQ JUMPDEST PUSH2 0xE6C JUMPI PUSH1 0x40 MLOAD PUSH3 0x461BCD PUSH1 0xE5 SHL DUP2 MSTORE PUSH1 0x4 ADD PUSH2 0xB40 SWAP1 PUSH2 0x2856 JUMP JUMPDEST PUSH1 0xD5 DUP1 SLOAD PUSH1 0x1 PUSH1 0x1 PUSH1 0xA0 SHL SUB NOT AND PUSH1 0x1 PUSH1 0x1 PUSH1 0xA0 SHL SUB SWAP3 SWAP1 SWAP3 AND SWAP2 SWAP1 SWAP2 OR SWAP1 SSTORE JUMP JUMPDEST PUSH1 0x1 PUSH1 0x1 PUSH1 0xA0 SHL SUB PUSH32 0x0 AND ADDRESS SUB PUSH2 0xED6 JUMPI PUSH1 0x40 MLOAD PUSH3 0x461BCD PUSH1 0xE5 SHL DUP2 MSTORE PUSH1 0x4 ADD PUSH2 0xB40 SWAP1 PUSH2 0x288D JUMP JUMPDEST PUSH32 0x0 PUSH1 0x1 PUSH1 0x1 PUSH1 0xA0 SHL SUB AND PUSH2 0xF08 PUSH2 0x200E JUMP JUMPDEST PUSH1 0x1 PUSH1 0x1 PUSH1 0xA0 SHL SUB AND EQ PUSH2 0xF2E JUMPI PUSH1 0x40 MLOAD PUSH3 0x461BCD PUSH1 0xE5 SHL DUP2 MSTORE PUSH1 0x4 ADD PUSH2 0xB40 SWAP1 PUSH2 0x28C6 JUMP JUMPDEST PUSH2 0xF37 DUP2 PUSH2 0x2029 JUMP JUMPDEST PUSH1 0x40 DUP1 MLOAD PUSH0 DUP1 DUP3 MSTORE PUSH1 0x20 DUP3 ADD SWAP1 SWAP3 MSTORE PUSH2 0xF52 SWAP2 DUP4 SWAP2 SWAP1 PUSH2 0x2031 JUMP JUMPDEST POP JUMP JUMPDEST CALLER PUSH0 SWAP1 DUP2 MSTORE PUSH1 0xE5 PUSH1 0x20 MSTORE PUSH1 0x40 SWAP1 KECCAK256 SLOAD PUSH1 0xFF AND DUP1 PUSH2 0xF8A JUMPI POP PUSH2 0xF75 PUSH2 0x1776 JUMP JUMPDEST PUSH1 0x1 PUSH1 0x1 PUSH1 0xA0 SHL SUB AND CALLER PUSH1 0x1 PUSH1 0x1 PUSH1 0xA0 SHL SUB AND EQ JUMPDEST PUSH2 0xFA6 JUMPI PUSH1 0x40 MLOAD PUSH3 0x461BCD PUSH1 0xE5 SHL DUP2 MSTORE PUSH1 0x4 ADD PUSH2 0xB40 SWAP1 PUSH2 0x2856 JUMP JUMPDEST DUP1 MLOAD DUP3 MLOAD EQ PUSH2 0xFE6 JUMPI PUSH1 0x40 MLOAD PUSH3 0x461BCD PUSH1 0xE5 SHL DUP2 MSTORE PUSH1 0x20 PUSH1 0x4 DUP3 ADD MSTORE PUSH1 0xC PUSH1 0x24 DUP3 ADD MSTORE PUSH12 0x3632B733BA341032B93937B9 PUSH1 0xA1 SHL PUSH1 0x44 DUP3 ADD MSTORE PUSH1 0x64 ADD PUSH2 0xB40 JUMP JUMPDEST PUSH0 JUMPDEST DUP3 MLOAD DUP2 LT ISZERO PUSH2 0x1065 JUMPI PUSH1 0x40 MLOAD DUP1 PUSH1 0x40 ADD PUSH1 0x40 MSTORE DUP1 DUP5 DUP4 DUP2 MLOAD DUP2 LT PUSH2 0x100E JUMPI PUSH2 0x100E PUSH2 0x2879 JUMP JUMPDEST PUSH1 0x20 MUL PUSH1 0x20 ADD ADD MLOAD DUP2 MSTORE PUSH1 0x20 ADD DUP4 DUP4 DUP2 MLOAD DUP2 LT PUSH2 0x102D JUMPI PUSH2 0x102D PUSH2 0x2879 JUMP JUMPDEST PUSH1 0x20 SWAP1 DUP2 MUL SWAP2 SWAP1 SWAP2 ADD DUP2 ADD MLOAD SWAP1 SWAP2 MSTORE PUSH0 DUP4 DUP2 MSTORE PUSH1 0xDF DUP3 MSTORE PUSH1 0x40 SWAP1 KECCAK256 DUP3 MLOAD DUP2 SSTORE SWAP2 ADD MLOAD PUSH1 0x1 SWAP1 SWAP2 ADD SSTORE PUSH2 0x105E DUP2 PUSH2 0x28FF JUMP JUMPDEST SWAP1 POP PUSH2 0xFE8 JUMP JUMPDEST POP POP POP JUMP JUMPDEST CALLER PUSH0 SWAP1 DUP2 MSTORE PUSH1 0xE5 PUSH1 0x20 MSTORE PUSH1 0x40 SWAP1 KECCAK256 SLOAD PUSH1 0xFF AND DUP1 PUSH2 0x109F JUMPI POP PUSH2 0x108A PUSH2 0x1776 JUMP JUMPDEST PUSH1 0x1 PUSH1 0x1 PUSH1 0xA0 SHL SUB AND CALLER PUSH1 0x1 PUSH1 0x1 PUSH1 0xA0 SHL SUB AND EQ JUMPDEST PUSH2 0x10BB JUMPI PUSH1 0x40 MLOAD PUSH3 0x461BCD PUSH1 0xE5 SHL DUP2 MSTORE PUSH1 0x4 ADD PUSH2 0xB40 SWAP1 PUSH2 0x2856 JUMP JUMPDEST PUSH1 0xD9 SSTORE JUMP JUMPDEST PUSH2 0x10C8 PUSH2 0x1FAF JUMP JUMPDEST PUSH1 0x1 PUSH1 0x1 PUSH1 0xA0 SHL SUB SWAP2 SWAP1 SWAP2 AND PUSH0 SWAP1 DUP2 MSTORE PUSH1 0xE5 PUSH1 0x20 MSTORE PUSH1 0x40 SWAP1 KECCAK256 DUP1 SLOAD PUSH1 0xFF NOT AND SWAP2 ISZERO ISZERO SWAP2 SWAP1 SWAP2 OR SWAP1 SSTORE JUMP JUMPDEST PUSH1 0x1 PUSH1 0x1 PUSH1 0xA0 SHL SUB PUSH32 0x0 AND ADDRESS SUB PUSH2 0x113A JUMPI PUSH1 0x40 MLOAD PUSH3 0x461BCD PUSH1 0xE5 SHL DUP2 MSTORE PUSH1 0x4 ADD PUSH2 0xB40 SWAP1 PUSH2 0x288D JUMP JUMPDEST PUSH32 0x0 PUSH1 0x1 PUSH1 0x1 PUSH1 0xA0 SHL SUB AND PUSH2 0x116C PUSH2 0x200E JUMP JUMPDEST PUSH1 0x1 PUSH1 0x1 PUSH1 0xA0 SHL SUB AND EQ PUSH2 0x1192 JUMPI PUSH1 0x40 MLOAD PUSH3 0x461BCD PUSH1 0xE5 SHL DUP2 MSTORE PUSH1 0x4 ADD PUSH2 0xB40 SWAP1 PUSH2 0x28C6 JUMP JUMPDEST PUSH2 0x119B DUP3 PUSH2 0x2029 JUMP JUMPDEST PUSH2 0x11A7 DUP3 DUP3 PUSH1 0x1 PUSH2 0x2031 JUMP JUMPDEST POP POP JUMP JUMPDEST PUSH0 ADDRESS PUSH1 0x1 PUSH1 0x1 PUSH1 0xA0 SHL SUB PUSH32 0x0 AND EQ PUSH2 0x1245 JUMPI PUSH1 0x40 MLOAD PUSH3 0x461BCD PUSH1 0xE5 SHL DUP2 MSTORE PUSH1 0x20 PUSH1 0x4 DUP3 ADD MSTORE PUSH1 0x38 PUSH1 0x24 DUP3 ADD MSTORE PUSH32 0x555550535570677261646561626C653A206D757374206E6F742062652063616C PUSH1 0x44 DUP3 ADD MSTORE PUSH24 0x1B1959081D1A1C9BDD59DA0819195B1959D85D1958D85B1B PUSH1 0x42 SHL PUSH1 0x64 DUP3 ADD MSTORE PUSH1 0x84 ADD PUSH2 0xB40 JUMP JUMPDEST POP PUSH0 DUP1 MLOAD PUSH1 0x20 PUSH2 0x2A15 DUP4 CODECOPY DUP2 MLOAD SWAP2 MSTORE SWAP1 JUMP JUMPDEST CALLER PUSH0 SWAP1 DUP2 MSTORE PUSH1 0xE5 PUSH1 0x20 MSTORE PUSH1 0x40 SWAP1 KECCAK256 SLOAD PUSH1 0xFF AND DUP1 PUSH2 0x128C JUMPI POP PUSH2 0x1277 PUSH2 0x1776 JUMP JUMPDEST PUSH1 0x1 PUSH1 0x1 PUSH1 0xA0 SHL SUB AND CALLER PUSH1 0x1 PUSH1 0x1 PUSH1 0xA0 SHL SUB AND EQ JUMPDEST PUSH2 0x12A8 JUMPI PUSH1 0x40 MLOAD PUSH3 0x461BCD PUSH1 0xE5 SHL DUP2 MSTORE PUSH1 0x4 ADD PUSH2 0xB40 SWAP1 PUSH2 0x2856 JUMP JUMPDEST PUSH1 0xCC SLOAD PUSH1 0x40 MLOAD PUSH4 0x2BB14FC1 PUSH1 0xE1 SHL DUP2 MSTORE PUSH1 0x1 PUSH1 0x1 PUSH1 0xA0 SHL SUB DUP5 DUP2 AND PUSH1 0x4 DUP4 ADD MSTORE PUSH1 0x24 DUP3 ADD DUP5 SWAP1 MSTORE SWAP1 SWAP2 AND SWAP1 PUSH4 0x57629F82 SWAP1 PUSH1 0x44 ADD PUSH0 PUSH1 0x40 MLOAD DUP1 DUP4 SUB DUP2 PUSH0 DUP8 DUP1 EXTCODESIZE ISZERO DUP1 ISZERO PUSH2 0x12F3 JUMPI PUSH0 DUP1 REVERT JUMPDEST POP GAS CALL ISZERO DUP1 ISZERO PUSH2 0x1305 JUMPI RETURNDATASIZE PUSH0 DUP1 RETURNDATACOPY RETURNDATASIZE PUSH0 REVERT JUMPDEST POP POP POP POP POP POP JUMP JUMPDEST CALLER PUSH0 SWAP1 DUP2 MSTORE PUSH1 0xE5 PUSH1 0x20 MSTORE PUSH1 0x40 SWAP1 KECCAK256 SLOAD PUSH1 0xFF AND DUP1 PUSH2 0x1342 JUMPI POP PUSH2 0x132D PUSH2 0x1776 JUMP JUMPDEST PUSH1 0x1 PUSH1 0x1 PUSH1 0xA0 SHL SUB AND CALLER PUSH1 0x1 PUSH1 0x1 PUSH1 0xA0 SHL SUB AND EQ JUMPDEST PUSH2 0x135E JUMPI PUSH1 0x40 MLOAD PUSH3 0x461BCD PUSH1 0xE5 SHL DUP2 MSTORE PUSH1 0x4 ADD PUSH2 0xB40 SWAP1 PUSH2 0x2856 JUMP JUMPDEST PUSH1 0xD4 DUP1 SLOAD PUSH1 0x1 PUSH1 0x1 PUSH1 0xA0 SHL SUB NOT AND PUSH1 0x1 PUSH1 0x1 PUSH1 0xA0 SHL SUB SWAP3 SWAP1 SWAP3 AND SWAP2 SWAP1 SWAP2 OR SWAP1 SSTORE JUMP JUMPDEST CALLER PUSH0 SWAP1 DUP2 MSTORE PUSH1 0xE5 PUSH1 0x20 MSTORE PUSH1 0x40 SWAP1 KECCAK256 SLOAD PUSH1 0xFF AND DUP1 PUSH2 0x13B5 JUMPI POP PUSH2 0x13A0 PUSH2 0x1776 JUMP JUMPDEST PUSH1 0x1 PUSH1 0x1 PUSH1 0xA0 SHL SUB AND CALLER PUSH1 0x1 PUSH1 0x1 PUSH1 0xA0 SHL SUB AND EQ JUMPDEST PUSH2 0x13D1 JUMPI PUSH1 0x40 MLOAD PUSH3 0x461BCD PUSH1 0xE5 SHL DUP2 MSTORE PUSH1 0x4 ADD PUSH2 0xB40 SWAP1 PUSH2 0x2856 JUMP JUMPDEST PUSH1 0xDE SSTORE JUMP JUMPDEST PUSH1 0x60 DUP1 PUSH1 0xE1 DUP1 SLOAD DUP1 PUSH1 0x20 MUL PUSH1 0x20 ADD PUSH1 0x40 MLOAD SWAP1 DUP2 ADD PUSH1 0x40 MSTORE DUP1 SWAP3 SWAP2 SWAP1 DUP2 DUP2 MSTORE PUSH1 0x20 ADD DUP3 DUP1 SLOAD DUP1 ISZERO PUSH2 0x142D JUMPI PUSH1 0x20 MUL DUP3 ADD SWAP2 SWAP1 PUSH0 MSTORE PUSH1 0x20 PUSH0 KECCAK256 SWAP1 JUMPDEST DUP2 SLOAD PUSH1 0x1 PUSH1 0x1 PUSH1 0xA0 SHL SUB AND DUP2 MSTORE PUSH1 0x1 SWAP1 SWAP2 ADD SWAP1 PUSH1 0x20 ADD DUP1 DUP4 GT PUSH2 0x140F JUMPI JUMPDEST POP POP POP POP POP SWAP2 POP DUP2 MLOAD PUSH1 0x1 PUSH1 0x1 PUSH1 0x40 SHL SUB DUP2 GT ISZERO PUSH2 0x144D JUMPI PUSH2 0x144D PUSH2 0x2599 JUMP JUMPDEST PUSH1 0x40 MLOAD SWAP1 DUP1 DUP3 MSTORE DUP1 PUSH1 0x20 MUL PUSH1 0x20 ADD DUP3 ADD PUSH1 0x40 MSTORE DUP1 ISZERO PUSH2 0x1476 JUMPI DUP2 PUSH1 0x20 ADD PUSH1 0x20 DUP3 MUL DUP1 CALLDATASIZE DUP4 CALLDATACOPY ADD SWAP1 POP JUMPDEST POP SWAP1 POP PUSH0 JUMPDEST DUP3 MLOAD DUP2 LT ISZERO PUSH2 0x14F0 JUMPI PUSH1 0xE0 PUSH0 DUP5 DUP4 DUP2 MLOAD DUP2 LT PUSH2 0x1499 JUMPI PUSH2 0x1499 PUSH2 0x2879 JUMP JUMPDEST PUSH1 0x20 MUL PUSH1 0x20 ADD ADD MLOAD PUSH1 0x1 PUSH1 0x1 PUSH1 0xA0 SHL SUB AND PUSH1 0x1 PUSH1 0x1 PUSH1 0xA0 SHL SUB AND DUP2 MSTORE PUSH1 0x20 ADD SWAP1 DUP2 MSTORE PUSH1 0x20 ADD PUSH0 KECCAK256 SLOAD DUP3 DUP3 DUP2 MLOAD DUP2 LT PUSH2 0x14D3 JUMPI PUSH2 0x14D3 PUSH2 0x2879 JUMP JUMPDEST PUSH1 0x20 SWAP1 DUP2 MUL SWAP2 SWAP1 SWAP2 ADD ADD MSTORE DUP1 PUSH2 0x14E8 DUP2 PUSH2 0x28FF JUMP JUMPDEST SWAP2 POP POP PUSH2 0x147B JUMP JUMPDEST POP SWAP1 SWAP2 JUMP JUMPDEST PUSH2 0x14FD PUSH2 0x1FAF JUMP JUMPDEST PUSH2 0x1506 PUSH0 PUSH2 0x219B JUMP JUMPDEST JUMP JUMPDEST CALLER PUSH0 SWAP1 DUP2 MSTORE PUSH1 0xE5 PUSH1 0x20 MSTORE PUSH1 0x40 SWAP1 KECCAK256 SLOAD PUSH1 0xFF AND DUP1 PUSH2 0x153D JUMPI POP PUSH2 0x1528 PUSH2 0x1776 JUMP JUMPDEST PUSH1 0x1 PUSH1 0x1 PUSH1 0xA0 SHL SUB AND CALLER PUSH1 0x1 PUSH1 0x1 PUSH1 0xA0 SHL SUB AND EQ JUMPDEST PUSH2 0x1559 JUMPI PUSH1 0x40 MLOAD PUSH3 0x461BCD PUSH1 0xE5 SHL DUP2 MSTORE PUSH1 0x4 ADD PUSH2 0xB40 SWAP1 PUSH2 0x2856 JUMP JUMPDEST PUSH1 0xD1 SSTORE JUMP JUMPDEST CALLER PUSH0 SWAP1 DUP2 MSTORE PUSH1 0xE5 PUSH1 0x20 MSTORE PUSH1 0x40 SWAP1 KECCAK256 SLOAD PUSH1 0xFF AND DUP1 PUSH2 0x1593 JUMPI POP PUSH2 0x157E PUSH2 0x1776 JUMP JUMPDEST PUSH1 0x1 PUSH1 0x1 PUSH1 0xA0 SHL SUB AND CALLER PUSH1 0x1 PUSH1 0x1 PUSH1 0xA0 SHL SUB AND EQ JUMPDEST PUSH2 0x15AF JUMPI PUSH1 0x40 MLOAD PUSH3 0x461BCD PUSH1 0xE5 SHL DUP2 MSTORE PUSH1 0x4 ADD PUSH2 0xB40 SWAP1 PUSH2 0x2856 JUMP JUMPDEST PUSH1 0xE2 SSTORE JUMP JUMPDEST CALLER PUSH0 SWAP1 DUP2 MSTORE PUSH1 0xE5 PUSH1 0x20 MSTORE PUSH1 0x40 SWAP1 KECCAK256 SLOAD PUSH1 0xFF AND DUP1 PUSH2 0x15E9 JUMPI POP PUSH2 0x15D4 PUSH2 0x1776 JUMP JUMPDEST PUSH1 0x1 PUSH1 0x1 PUSH1 0xA0 SHL SUB AND CALLER PUSH1 0x1 PUSH1 0x1 PUSH1 0xA0 SHL SUB AND EQ JUMPDEST PUSH2 0x1605 JUMPI PUSH1 0x40 MLOAD PUSH3 0x461BCD PUSH1 0xE5 SHL DUP2 MSTORE PUSH1 0x4 ADD PUSH2 0xB40 SWAP1 PUSH2 0x2856 JUMP JUMPDEST PUSH1 0xE6 SSTORE JUMP JUMPDEST CALLER PUSH0 SWAP1 DUP2 MSTORE PUSH1 0xE5 PUSH1 0x20 MSTORE PUSH1 0x40 SWAP1 KECCAK256 SLOAD PUSH1 0xFF AND DUP1 PUSH2 0x163F JUMPI POP PUSH2 0x162A PUSH2 0x1776 JUMP JUMPDEST PUSH1 0x1 PUSH1 0x1 PUSH1 0xA0 SHL SUB AND CALLER PUSH1 0x1 PUSH1 0x1 PUSH1 0xA0 SHL SUB AND EQ JUMPDEST PUSH2 0x165B JUMPI PUSH1 0x40 MLOAD PUSH3 0x461BCD PUSH1 0xE5 SHL DUP2 MSTORE PUSH1 0x4 ADD PUSH2 0xB40 SWAP1 PUSH2 0x2856 JUMP JUMPDEST PUSH1 0xE3 SSTORE JUMP JUMPDEST CALLER PUSH0 SWAP1 DUP2 MSTORE PUSH1 0xE5 PUSH1 0x20 MSTORE PUSH1 0x40 SWAP1 KECCAK256 SLOAD PUSH1 0xFF AND DUP1 PUSH2 0x1695 JUMPI POP PUSH2 0x1680 PUSH2 0x1776 JUMP JUMPDEST PUSH1 0x1 PUSH1 0x1 PUSH1 0xA0 SHL SUB AND CALLER PUSH1 0x1 PUSH1 0x1 PUSH1 0xA0 SHL SUB AND EQ JUMPDEST PUSH2 0x16B1 JUMPI PUSH1 0x40 MLOAD PUSH3 0x461BCD PUSH1 0xE5 SHL DUP2 MSTORE PUSH1 0x4 ADD PUSH2 0xB40 SWAP1 PUSH2 0x2856 JUMP JUMPDEST PUSH1 0xC9 DUP1 SLOAD PUSH1 0x1 PUSH1 0x1 PUSH1 0xA0 SHL SUB NOT SWAP1 DUP2 AND PUSH1 0x1 PUSH1 0x1 PUSH1 0xA0 SHL SUB SWAP9 DUP10 AND OR SWAP1 SWAP2 SSTORE PUSH1 0xCB DUP1 SLOAD DUP3 AND SWAP7 DUP9 AND SWAP7 SWAP1 SWAP7 OR SWAP1 SWAP6 SSTORE PUSH1 0xCA DUP1 SLOAD DUP7 AND SWAP5 DUP8 AND SWAP5 SWAP1 SWAP5 OR SWAP1 SWAP4 SSTORE PUSH1 0xCD DUP1 SLOAD DUP6 AND SWAP3 DUP7 AND SWAP3 SWAP1 SWAP3 OR SWAP1 SWAP2 SSTORE PUSH1 0xCC DUP1 SLOAD DUP5 AND SWAP2 DUP6 AND SWAP2 SWAP1 SWAP2 OR SWAP1 SSTORE PUSH1 0xCE DUP1 SLOAD SWAP1 SWAP3 AND SWAP3 AND SWAP2 SWAP1 SWAP2 OR SWAP1 SSTORE JUMP JUMPDEST CALLER PUSH0 SWAP1 DUP2 MSTORE PUSH1 0xE5 PUSH1 0x20 MSTORE PUSH1 0x40 SWAP1 KECCAK256 SLOAD PUSH1 0xFF AND DUP1 PUSH2 0x1755 JUMPI POP PUSH2 0x1740 PUSH2 0x1776 JUMP JUMPDEST PUSH1 0x1 PUSH1 0x1 PUSH1 0xA0 SHL SUB AND CALLER PUSH1 0x1 PUSH1 0x1 PUSH1 0xA0 SHL SUB AND EQ JUMPDEST PUSH2 0x1771 JUMPI PUSH1 0x40 MLOAD PUSH3 0x461BCD PUSH1 0xE5 SHL DUP2 MSTORE PUSH1 0x4 ADD PUSH2 0xB40 SWAP1 PUSH2 0x2856 JUMP JUMPDEST PUSH1 0xDA SSTORE JUMP JUMPDEST PUSH1 0x33 SLOAD PUSH1 0x1 PUSH1 0x1 PUSH1 0xA0 SHL SUB AND SWAP1 JUMP JUMPDEST PUSH1 0x40 DUP1 MLOAD PUSH1 0x4 DUP1 DUP3 MSTORE PUSH1 0xA0 DUP3 ADD SWAP1 SWAP3 MSTORE PUSH1 0x60 SWAP2 DUP3 SWAP2 SWAP1 PUSH1 0x20 DUP3 ADD PUSH1 0x80 DUP1 CALLDATASIZE DUP4 CALLDATACOPY POP POP PUSH1 0x40 DUP1 MLOAD PUSH1 0x4 DUP1 DUP3 MSTORE PUSH1 0xA0 DUP3 ADD SWAP1 SWAP3 MSTORE SWAP3 SWAP5 POP SWAP1 POP PUSH1 0x20 DUP3 ADD PUSH1 0x80 DUP1 CALLDATASIZE DUP4 CALLDATACOPY ADD SWAP1 POP POP SWAP1 POP PUSH0 JUMPDEST PUSH1 0x4 DUP2 LT ISZERO PUSH2 0x14F0 JUMPI PUSH0 DUP2 DUP2 MSTORE PUSH1 0xDF PUSH1 0x20 MSTORE PUSH1 0x40 SWAP1 KECCAK256 SLOAD DUP4 MLOAD DUP5 SWAP1 DUP4 SWAP1 DUP2 LT PUSH2 0x17F9 JUMPI PUSH2 0x17F9 PUSH2 0x2879 JUMP JUMPDEST PUSH1 0x20 MUL PUSH1 0x20 ADD ADD DUP2 DUP2 MSTORE POP POP PUSH1 0xDF PUSH0 DUP3 DUP2 MSTORE PUSH1 0x20 ADD SWAP1 DUP2 MSTORE PUSH1 0x20 ADD PUSH0 KECCAK256 PUSH1 0x1 ADD SLOAD DUP3 DUP3 DUP2 MLOAD DUP2 LT PUSH2 0x182C JUMPI PUSH2 0x182C PUSH2 0x2879 JUMP JUMPDEST PUSH1 0x20 SWAP1 DUP2 MUL SWAP2 SWAP1 SWAP2 ADD ADD MSTORE DUP1 PUSH2 0x1841 DUP2 PUSH2 0x28FF JUMP JUMPDEST SWAP2 POP POP PUSH2 0x17CE JUMP JUMPDEST PUSH0 SLOAD PUSH2 0x100 SWAP1 DIV PUSH1 0xFF AND ISZERO DUP1 DUP1 ISZERO PUSH2 0x1867 JUMPI POP PUSH0 SLOAD PUSH1 0x1 PUSH1 0xFF SWAP1 SWAP2 AND LT JUMPDEST DUP1 PUSH2 0x1887 JUMPI POP PUSH2 0x1876 ADDRESS PUSH2 0x21EC JUMP JUMPDEST ISZERO DUP1 ISZERO PUSH2 0x1887 JUMPI POP PUSH0 SLOAD PUSH1 0xFF AND PUSH1 0x1 EQ JUMPDEST PUSH2 0x18EA JUMPI PUSH1 0x40 MLOAD PUSH3 0x461BCD PUSH1 0xE5 SHL DUP2 MSTORE PUSH1 0x20 PUSH1 0x4 DUP3 ADD MSTORE PUSH1 0x2E PUSH1 0x24 DUP3 ADD MSTORE PUSH32 0x496E697469616C697A61626C653A20636F6E747261637420697320616C726561 PUSH1 0x44 DUP3 ADD MSTORE PUSH14 0x191E481A5B9A5D1A585B1A5E9959 PUSH1 0x92 SHL PUSH1 0x64 DUP3 ADD MSTORE PUSH1 0x84 ADD PUSH2 0xB40 JUMP JUMPDEST PUSH0 DUP1 SLOAD PUSH1 0xFF NOT AND PUSH1 0x1 OR SWAP1 SSTORE DUP1 ISZERO PUSH2 0x190B JUMPI PUSH0 DUP1 SLOAD PUSH2 0xFF00 NOT AND PUSH2 0x100 OR SWAP1 SSTORE JUMPDEST PUSH2 0x1913 PUSH2 0x21FB JUMP JUMPDEST PUSH1 0xE4 DUP1 SLOAD PUSH1 0x1 PUSH1 0x1 PUSH1 0xA0 SHL SUB DUP5 AND PUSH1 0x1 PUSH1 0x1 PUSH1 0xA0 SHL SUB NOT SWAP2 DUP3 AND OR SWAP1 SWAP2 SSTORE PUSH1 0xCF DUP1 SLOAD DUP3 AND PUSH20 0xDF9228FC02F4554CD80AF6D036DADE242022E4F2 OR SWAP1 SSTORE PUSH1 0xD0 DUP1 SLOAD DUP3 AND PUSH20 0x4076AF4556458CDD0AD25E86ED23B4DC8437DCE4 OR SWAP1 SSTORE PUSH2 0x384 PUSH1 0xD1 SSTORE PUSH2 0x3E8 PUSH1 0xD2 SSTORE PUSH1 0xD3 DUP1 SLOAD DUP3 AND PUSH20 0xFAE25F1AE4B758D7C96D7EB075B62AF4F3398B89 OR SWAP1 SSTORE PUSH1 0xD4 DUP1 SLOAD DUP3 AND PUSH20 0x7FBA7858083836D9169EB3BE21A48189E1798C8E OR SWAP1 SSTORE PUSH1 0xD5 DUP1 SLOAD DUP3 AND PUSH20 0x2737AC6359664096F22863088246D885F14E6FF2 SWAP1 DUP2 OR SWAP1 SWAP2 SSTORE PUSH9 0x1158E460913D00000 PUSH1 0xD6 SSTORE PUSH10 0x14542BA12A337C00000 PUSH1 0xE6 SSTORE PUSH1 0x96 PUSH1 0xD7 SSTORE PUSH1 0x64 PUSH1 0xD8 DUP2 SWAP1 SSTORE PUSH1 0xD9 DUP2 SWAP1 SSTORE PUSH1 0xDA SSTORE PUSH1 0xDB DUP1 SLOAD DUP4 AND SWAP1 SWAP2 OR SWAP1 SSTORE PUSH1 0xDC DUP1 SLOAD DUP3 AND PUSH20 0xB36F6361DCF31D0D7956E9E826A9915A5DDEC272 OR SWAP1 SSTORE PUSH1 0x32 PUSH1 0xDD SSTORE PUSH10 0x43C33C1937564800000 PUSH1 0xDE SSTORE PUSH1 0x40 DUP1 MLOAD DUP1 DUP3 ADD DUP3 MSTORE PUSH0 DUP1 DUP3 MSTORE PUSH1 0x20 DUP1 DUP4 ADD DUP3 DUP2 MSTORE DUP3 DUP1 MSTORE PUSH1 0xDF DUP1 DUP4 MSTORE SWAP4 MLOAD PUSH32 0x4B917336BA36FEFA23B90074E126FE5413F0E3FC800E7AB1DA217D9A2807B711 SSTORE MLOAD PUSH32 0x4B917336BA36FEFA23B90074E126FE5413F0E3FC800E7AB1DA217D9A2807B712 SSTORE DUP4 MLOAD DUP1 DUP6 ADD DUP6 MSTORE PUSH10 0x21E19E0C9BAB2400000 DUP2 MSTORE PUSH1 0xC8 DUP2 DUP4 ADD SWAP1 DUP2 MSTORE PUSH1 0x1 DUP1 DUP6 MSTORE DUP6 DUP5 MSTORE SWAP2 MLOAD PUSH32 0x55C38C42E971EEB957B61422467F67FA3B212021AC50A6B2B3D5ACD9D01CB97D SSTORE MLOAD PUSH32 0x55C38C42E971EEB957B61422467F67FA3B212021AC50A6B2B3D5ACD9D01CB97E SSTORE DUP5 MLOAD DUP1 DUP7 ADD DUP7 MSTORE PUSH10 0x65A4DA25D3016C00000 DUP2 MSTORE PUSH2 0x15E DUP2 DUP5 ADD SWAP1 DUP2 MSTORE PUSH1 0x2 DUP6 MSTORE DUP6 DUP5 MSTORE SWAP1 MLOAD PUSH32 0x36D20378F308040D39A8A5E0299048C5EB6A3E2AF0AAD6FC5CBD63DBA6084C75 SSTORE MLOAD PUSH32 0x36D20378F308040D39A8A5E0299048C5EB6A3E2AF0AAD6FC5CBD63DBA6084C76 SSTORE DUP5 MLOAD DUP1 DUP7 ADD SWAP1 SWAP6 MSTORE PUSH10 0x152D02C7E14AF6800000 DUP6 MSTORE PUSH2 0x1F4 DUP6 DUP4 ADD SWAP1 DUP2 MSTORE PUSH1 0x3 DUP1 DUP6 MSTORE SWAP5 DUP4 MSTORE SWAP5 MLOAD PUSH32 0x780609EDA5E52D7936E75EAD8EC77FC018859646A90304D10FB581006956B09E SSTORE SWAP4 MLOAD PUSH32 0x780609EDA5E52D7936E75EAD8EC77FC018859646A90304D10FB581006956B09F SSTORE PUSH1 0xE0 SWAP1 MSTORE PUSH32 0x29F40CF27A854B63617043F10B660B0F327B8234F55A91E6B6F6E8A2FA39678B SWAP2 SWAP1 SWAP2 SSTORE PUSH1 0xE1 DUP1 SLOAD SWAP3 DUP4 ADD DUP2 SSTORE SWAP1 MSTORE PUSH0 DUP1 MLOAD PUSH1 0x20 PUSH2 0x2A5C DUP4 CODECOPY DUP2 MLOAD SWAP2 MSTORE ADD DUP1 SLOAD SWAP1 SWAP2 AND PUSH20 0xD220B3CF1E4660C5509418B42A86D7945E6E2E18 OR SWAP1 SSTORE PUSH4 0x1E13380 PUSH1 0xE2 SSTORE PUSH1 0x3C PUSH1 0xE3 SSTORE DUP1 ISZERO PUSH2 0x11A7 JUMPI PUSH0 DUP1 SLOAD PUSH2 0xFF00 NOT AND SWAP1 SSTORE PUSH1 0x40 MLOAD PUSH1 0x1 DUP2 MSTORE PUSH32 0x7F26B83FF96E1F2B6A682F133852F6798A09C465DA95921460CEFB3847402498 SWAP1 PUSH1 0x20 ADD PUSH1 0x40 MLOAD DUP1 SWAP2 SUB SWAP1 LOG1 POP POP JUMP JUMPDEST CALLER PUSH0 SWAP1 DUP2 MSTORE PUSH1 0xE5 PUSH1 0x20 MSTORE PUSH1 0x40 SWAP1 KECCAK256 SLOAD PUSH1 0xFF AND DUP1 PUSH2 0x1CD3 JUMPI POP PUSH2 0x1CBE PUSH2 0x1776 JUMP JUMPDEST PUSH1 0x1 PUSH1 0x1 PUSH1 0xA0 SHL SUB AND CALLER PUSH1 0x1 PUSH1 0x1 PUSH1 0xA0 SHL SUB AND EQ JUMPDEST PUSH2 0x1CEF JUMPI PUSH1 0x40 MLOAD PUSH3 0x461BCD PUSH1 0xE5 SHL DUP2 MSTORE PUSH1 0x4 ADD PUSH2 0xB40 SWAP1 PUSH2 0x2856 JUMP JUMPDEST PUSH1 0xCF DUP1 SLOAD PUSH1 0x1 PUSH1 0x1 PUSH1 0xA0 SHL SUB NOT AND PUSH1 0x1 PUSH1 0x1 PUSH1 0xA0 SHL SUB SWAP3 SWAP1 SWAP3 AND SWAP2 SWAP1 SWAP2 OR SWAP1 SSTORE JUMP JUMPDEST CALLER PUSH0 SWAP1 DUP2 MSTORE PUSH1 0xE5 PUSH1 0x20 MSTORE PUSH1 0x40 SWAP1 KECCAK256 SLOAD PUSH1 0xFF AND DUP1 PUSH2 0x1D46 JUMPI POP PUSH2 0x1D31 PUSH2 0x1776 JUMP JUMPDEST PUSH1 0x1 PUSH1 0x1 PUSH1 0xA0 SHL SUB AND CALLER PUSH1 0x1 PUSH1 0x1 PUSH1 0xA0 SHL SUB AND EQ JUMPDEST PUSH2 0x1D62 JUMPI PUSH1 0x40 MLOAD PUSH3 0x461BCD PUSH1 0xE5 SHL DUP2 MSTORE PUSH1 0x4 ADD PUSH2 0xB40 SWAP1 PUSH2 0x2856 JUMP JUMPDEST PUSH1 0xD7 SWAP2 SWAP1 SWAP2 SSTORE PUSH1 0xD8 SSTORE JUMP JUMPDEST CALLER PUSH0 SWAP1 DUP2 MSTORE PUSH1 0xE5 PUSH1 0x20 MSTORE PUSH1 0x40 SWAP1 KECCAK256 SLOAD PUSH1 0xFF AND DUP1 PUSH2 0x1DA2 JUMPI POP PUSH2 0x1D8D PUSH2 0x1776 JUMP JUMPDEST PUSH1 0x1 PUSH1 0x1 PUSH1 0xA0 SHL SUB AND CALLER PUSH1 0x1 PUSH1 0x1 PUSH1 0xA0 SHL SUB AND EQ JUMPDEST PUSH2 0x1DBE JUMPI PUSH1 0x40 MLOAD PUSH3 0x461BCD PUSH1 0xE5 SHL DUP2 MSTORE PUSH1 0x4 ADD PUSH2 0xB40 SWAP1 PUSH2 0x2856 JUMP JUMPDEST PUSH1 0xDC DUP1 SLOAD PUSH1 0x1 PUSH1 0x1 PUSH1 0xA0 SHL SUB NOT AND PUSH1 0x1 PUSH1 0x1 PUSH1 0xA0 SHL SUB SWAP3 SWAP1 SWAP3 AND SWAP2 SWAP1 SWAP2 OR SWAP1 SSTORE JUMP JUMPDEST PUSH2 0x1DE8 PUSH2 0x1FAF JUMP JUMPDEST PUSH1 0x1 PUSH1 0x1 PUSH1 0xA0 SHL SUB DUP2 AND PUSH2 0x1E4D JUMPI PUSH1 0x40 MLOAD PUSH3 0x461BCD PUSH1 0xE5 SHL DUP2 MSTORE PUSH1 0x20 PUSH1 0x4 DUP3 ADD MSTORE PUSH1 0x26 PUSH1 0x24 DUP3 ADD MSTORE PUSH32 0x4F776E61626C653A206E6577206F776E657220697320746865207A65726F2061 PUSH1 0x44 DUP3 ADD MSTORE PUSH6 0x646472657373 PUSH1 0xD0 SHL PUSH1 0x64 DUP3 ADD MSTORE PUSH1 0x84 ADD PUSH2 0xB40 JUMP JUMPDEST PUSH2 0xF52 DUP2 PUSH2 0x219B JUMP JUMPDEST CALLER PUSH0 SWAP1 DUP2 MSTORE PUSH1 0xE5 PUSH1 0x20 MSTORE PUSH1 0x40 SWAP1 KECCAK256 SLOAD PUSH1 0xFF AND DUP1 PUSH2 0x1E8B JUMPI POP PUSH2 0x1E76 PUSH2 0x1776 JUMP JUMPDEST PUSH1 0x1 PUSH1 0x1 PUSH1 0xA0 SHL SUB AND CALLER PUSH1 0x1 PUSH1 0x1 PUSH1 0xA0 SHL SUB AND EQ JUMPDEST PUSH2 0x1EA7 JUMPI PUSH1 0x40 MLOAD PUSH3 0x461BCD PUSH1 0xE5 SHL DUP2 MSTORE PUSH1 0x4 ADD PUSH2 0xB40 SWAP1 PUSH2 0x2856 JUMP JUMPDEST PUSH1 0xD0 DUP1 SLOAD PUSH1 0x1 PUSH1 0x1 PUSH1 0xA0 SHL SUB NOT AND PUSH1 0x1 PUSH1 0x1 PUSH1 0xA0 SHL SUB SWAP3 SWAP1 SWAP3 AND SWAP2 SWAP1 SWAP2 OR SWAP1 SSTORE JUMP JUMPDEST CALLER PUSH0 SWAP1 DUP2 MSTORE PUSH1 0xE5 PUSH1 0x20 MSTORE PUSH1 0x40 SWAP1 KECCAK256 SLOAD PUSH1 0xFF AND DUP1 PUSH2 0x1EFE JUMPI POP PUSH2 0x1EE9 PUSH2 0x1776 JUMP JUMPDEST PUSH1 0x1 PUSH1 0x1 PUSH1 0xA0 SHL SUB AND CALLER PUSH1 0x1 PUSH1 0x1 PUSH1 0xA0 SHL SUB AND EQ JUMPDEST PUSH2 0x1F1A JUMPI PUSH1 0x40 MLOAD PUSH3 0x461BCD PUSH1 0xE5 SHL DUP2 MSTORE PUSH1 0x4 ADD PUSH2 0xB40 SWAP1 PUSH2 0x2856 JUMP JUMPDEST PUSH1 0xD3 DUP1 SLOAD PUSH1 0x1 PUSH1 0x1 PUSH1 0xA0 SHL SUB NOT AND PUSH1 0x1 PUSH1 0x1 PUSH1 0xA0 SHL SUB SWAP3 SWAP1 SWAP3 AND SWAP2 SWAP1 SWAP2 OR SWAP1 SSTORE JUMP JUMPDEST CALLER PUSH0 SWAP1 DUP2 MSTORE PUSH1 0xE5 PUSH1 0x20 MSTORE PUSH1 0x40 SWAP1 KECCAK256 SLOAD PUSH1 0xFF AND DUP1 PUSH2 0x1F71 JUMPI POP PUSH2 0x1F5C PUSH2 0x1776 JUMP JUMPDEST PUSH1 0x1 PUSH1 0x1 PUSH1 0xA0 SHL SUB AND CALLER PUSH1 0x1 PUSH1 0x1 PUSH1 0xA0 SHL SUB AND EQ JUMPDEST PUSH2 0x1F8D JUMPI PUSH1 0x40 MLOAD PUSH3 0x461BCD PUSH1 0xE5 SHL DUP2 MSTORE PUSH1 0x4 ADD PUSH2 0xB40 SWAP1 PUSH2 0x2856 JUMP JUMPDEST PUSH1 0xDB DUP1 SLOAD PUSH1 0x1 PUSH1 0x1 PUSH1 0xA0 SHL SUB NOT AND PUSH1 0x1 PUSH1 0x1 PUSH1 0xA0 SHL SUB SWAP3 SWAP1 SWAP3 AND SWAP2 SWAP1 SWAP2 OR SWAP1 SSTORE JUMP JUMPDEST CALLER PUSH2 0x1FB8 PUSH2 0x1776 JUMP JUMPDEST PUSH1 0x1 PUSH1 0x1 PUSH1 0xA0 SHL SUB AND EQ PUSH2 0x1506 JUMPI PUSH1 0x40 MLOAD PUSH3 0x461BCD PUSH1 0xE5 SHL DUP2 MSTORE PUSH1 0x20 PUSH1 0x4 DUP3 ADD DUP2 SWAP1 MSTORE PUSH1 0x24 DUP3 ADD MSTORE PUSH32 0x4F776E61626C653A2063616C6C6572206973206E6F7420746865206F776E6572 PUSH1 0x44 DUP3 ADD MSTORE PUSH1 0x64 ADD PUSH2 0xB40 JUMP JUMPDEST PUSH0 DUP1 MLOAD PUSH1 0x20 PUSH2 0x2A15 DUP4 CODECOPY DUP2 MLOAD SWAP2 MSTORE SLOAD PUSH1 0x1 PUSH1 0x1 PUSH1 0xA0 SHL SUB AND SWAP1 JUMP JUMPDEST PUSH2 0xF52 PUSH2 0x1FAF JUMP JUMPDEST PUSH32 0x4910FDFA16FED3260ED0E7147F7CC6DA11A60208B5B9406D12A635614FFD9143 SLOAD PUSH1 0xFF AND ISZERO PUSH2 0x2064 JUMPI PUSH2 0x1065 DUP4 PUSH2 0x2229 JUMP JUMPDEST DUP3 PUSH1 0x1 PUSH1 0x1 PUSH1 0xA0 SHL SUB AND PUSH4 0x52D1902D PUSH1 0x40 MLOAD DUP2 PUSH4 0xFFFFFFFF AND PUSH1 0xE0 SHL DUP2 MSTORE PUSH1 0x4 ADD PUSH1 0x20 PUSH1 0x40 MLOAD DUP1 DUP4 SUB DUP2 DUP7 GAS STATICCALL SWAP3 POP POP POP DUP1 ISZERO PUSH2 0x20BE JUMPI POP PUSH1 0x40 DUP1 MLOAD PUSH1 0x1F RETURNDATASIZE SWAP1 DUP2 ADD PUSH1 0x1F NOT AND DUP3 ADD SWAP1 SWAP3 MSTORE PUSH2 0x20BB SWAP2 DUP2 ADD SWAP1 PUSH2 0x2923 JUMP JUMPDEST PUSH1 0x1 JUMPDEST PUSH2 0x2121 JUMPI PUSH1 0x40 MLOAD PUSH3 0x461BCD PUSH1 0xE5 SHL DUP2 MSTORE PUSH1 0x20 PUSH1 0x4 DUP3 ADD MSTORE PUSH1 0x2E PUSH1 0x24 DUP3 ADD MSTORE PUSH32 0x45524331393637557067726164653A206E657720696D706C656D656E74617469 PUSH1 0x44 DUP3 ADD MSTORE PUSH14 0x6F6E206973206E6F742055555053 PUSH1 0x90 SHL PUSH1 0x64 DUP3 ADD MSTORE PUSH1 0x84 ADD PUSH2 0xB40 JUMP JUMPDEST PUSH0 DUP1 MLOAD PUSH1 0x20 PUSH2 0x2A15 DUP4 CODECOPY DUP2 MLOAD SWAP2 MSTORE DUP2 EQ PUSH2 0x218F JUMPI PUSH1 0x40 MLOAD PUSH3 0x461BCD PUSH1 0xE5 SHL DUP2 MSTORE PUSH1 0x20 PUSH1 0x4 DUP3 ADD MSTORE PUSH1 0x29 PUSH1 0x24 DUP3 ADD MSTORE PUSH32 0x45524331393637557067726164653A20756E737570706F727465642070726F78 PUSH1 0x44 DUP3 ADD MSTORE PUSH9 0x1A58589B1955555251 PUSH1 0xBA SHL PUSH1 0x64 DUP3 ADD MSTORE PUSH1 0x84 ADD PUSH2 0xB40 JUMP JUMPDEST POP PUSH2 0x1065 DUP4 DUP4 DUP4 PUSH2 0x22C2 JUMP JUMPDEST PUSH1 0x33 DUP1 SLOAD PUSH1 0x1 PUSH1 0x1 PUSH1 0xA0 SHL SUB DUP4 DUP2 AND PUSH1 0x1 PUSH1 0x1 PUSH1 0xA0 SHL SUB NOT DUP4 AND DUP2 OR SWAP1 SWAP4 SSTORE PUSH1 0x40 MLOAD SWAP2 AND SWAP2 SWAP1 DUP3 SWAP1 PUSH32 0x8BE0079C531659141344CD1FD0A4F28419497F9722A3DAAFE3B4186F6B6457E0 SWAP1 PUSH0 SWAP1 LOG3 POP POP JUMP JUMPDEST PUSH1 0x1 PUSH1 0x1 PUSH1 0xA0 SHL SUB AND EXTCODESIZE ISZERO ISZERO SWAP1 JUMP JUMPDEST PUSH0 SLOAD PUSH2 0x100 SWAP1 DIV PUSH1 0xFF AND PUSH2 0x2221 JUMPI PUSH1 0x40 MLOAD PUSH3 0x461BCD PUSH1 0xE5 SHL DUP2 MSTORE PUSH1 0x4 ADD PUSH2 0xB40 SWAP1 PUSH2 0x293A JUMP JUMPDEST PUSH2 0x1506 PUSH2 0x22EC JUMP JUMPDEST PUSH2 0x2232 DUP2 PUSH2 0x21EC JUMP JUMPDEST PUSH2 0x2294 JUMPI PUSH1 0x40 MLOAD PUSH3 0x461BCD PUSH1 0xE5 SHL DUP2 MSTORE PUSH1 0x20 PUSH1 0x4 DUP3 ADD MSTORE PUSH1 0x2D PUSH1 0x24 DUP3 ADD MSTORE PUSH32 0x455243313936373A206E657720696D706C656D656E746174696F6E206973206E PUSH1 0x44 DUP3 ADD MSTORE PUSH13 0x1BDD08184818DBDB9D1C9858DD PUSH1 0x9A SHL PUSH1 0x64 DUP3 ADD MSTORE PUSH1 0x84 ADD PUSH2 0xB40 JUMP JUMPDEST PUSH0 DUP1 MLOAD PUSH1 0x20 PUSH2 0x2A15 DUP4 CODECOPY DUP2 MLOAD SWAP2 MSTORE DUP1 SLOAD PUSH1 0x1 PUSH1 0x1 PUSH1 0xA0 SHL SUB NOT AND PUSH1 0x1 PUSH1 0x1 PUSH1 0xA0 SHL SUB SWAP3 SWAP1 SWAP3 AND SWAP2 SWAP1 SWAP2 OR SWAP1 SSTORE JUMP JUMPDEST PUSH2 0x22CB DUP4 PUSH2 0x231B JUMP JUMPDEST PUSH0 DUP3 MLOAD GT DUP1 PUSH2 0x22D7 JUMPI POP DUP1 JUMPDEST ISZERO PUSH2 0x1065 JUMPI PUSH2 0x22E6 DUP4 DUP4 PUSH2 0x235A JUMP JUMPDEST POP POP POP POP JUMP JUMPDEST PUSH0 SLOAD PUSH2 0x100 SWAP1 DIV PUSH1 0xFF AND PUSH2 0x2312 JUMPI PUSH1 0x40 MLOAD PUSH3 0x461BCD PUSH1 0xE5 SHL DUP2 MSTORE PUSH1 0x4 ADD PUSH2 0xB40 SWAP1 PUSH2 0x293A JUMP JUMPDEST PUSH2 0x1506 CALLER PUSH2 0x219B JUMP JUMPDEST PUSH2 0x2324 DUP2 PUSH2 0x2229 JUMP JUMPDEST PUSH1 0x40 MLOAD PUSH1 0x1 PUSH1 0x1 PUSH1 0xA0 SHL SUB DUP3 AND SWAP1 PUSH32 0xBC7CD75A20EE27FD9ADEBAB32041F755214DBC6BFFA90CC0225B39DA2E5C2D3B SWAP1 PUSH0 SWAP1 LOG2 POP JUMP JUMPDEST PUSH1 0x60 PUSH2 0x2365 DUP4 PUSH2 0x21EC JUMP JUMPDEST PUSH2 0x23C0 JUMPI PUSH1 0x40 MLOAD PUSH3 0x461BCD PUSH1 0xE5 SHL DUP2 MSTORE PUSH1 0x20 PUSH1 0x4 DUP3 ADD MSTORE PUSH1 0x26 PUSH1 0x24 DUP3 ADD MSTORE PUSH32 0x416464726573733A2064656C65676174652063616C6C20746F206E6F6E2D636F PUSH1 0x44 DUP3 ADD MSTORE PUSH6 0x1B9D1C9858DD PUSH1 0xD2 SHL PUSH1 0x64 DUP3 ADD MSTORE PUSH1 0x84 ADD PUSH2 0xB40 JUMP JUMPDEST PUSH0 DUP1 DUP5 PUSH1 0x1 PUSH1 0x1 PUSH1 0xA0 SHL SUB AND DUP5 PUSH1 0x40 MLOAD PUSH2 0x23DA SWAP2 SWAP1 PUSH2 0x29A7 JUMP JUMPDEST PUSH0 PUSH1 0x40 MLOAD DUP1 DUP4 SUB DUP2 DUP6 GAS DELEGATECALL SWAP2 POP POP RETURNDATASIZE DUP1 PUSH0 DUP2 EQ PUSH2 0x2412 JUMPI PUSH1 0x40 MLOAD SWAP2 POP PUSH1 0x1F NOT PUSH1 0x3F RETURNDATASIZE ADD AND DUP3 ADD PUSH1 0x40 MSTORE RETURNDATASIZE DUP3 MSTORE RETURNDATASIZE PUSH0 PUSH1 0x20 DUP5 ADD RETURNDATACOPY PUSH2 0x2417 JUMP JUMPDEST PUSH1 0x60 SWAP2 POP JUMPDEST POP SWAP2 POP SWAP2 POP PUSH2 0x243F DUP3 DUP3 PUSH1 0x40 MLOAD DUP1 PUSH1 0x60 ADD PUSH1 0x40 MSTORE DUP1 PUSH1 0x27 DUP2 MSTORE PUSH1 0x20 ADD PUSH2 0x2A35 PUSH1 0x27 SWAP2 CODECOPY PUSH2 0x2448 JUMP JUMPDEST SWAP6 SWAP5 POP POP POP POP POP JUMP JUMPDEST PUSH1 0x60 DUP4 ISZERO PUSH2 0x2457 JUMPI POP DUP2 PUSH2 0x2461 JUMP JUMPDEST PUSH2 0x2461 DUP4 DUP4 PUSH2 0x2468 JUMP JUMPDEST SWAP4 SWAP3 POP POP POP JUMP JUMPDEST DUP2 MLOAD ISZERO PUSH2 0x2478 JUMPI DUP2 MLOAD DUP1 DUP4 PUSH1 0x20 ADD REVERT JUMPDEST DUP1 PUSH1 0x40 MLOAD PUSH3 0x461BCD PUSH1 0xE5 SHL DUP2 MSTORE PUSH1 0x4 ADD PUSH2 0xB40 SWAP2 SWAP1 PUSH2 0x29C2 JUMP JUMPDEST PUSH0 PUSH1 0x20 DUP3 DUP5 SUB SLT ISZERO PUSH2 0x24A2 JUMPI PUSH0 DUP1 REVERT JUMPDEST POP CALLDATALOAD SWAP2 SWAP1 POP JUMP JUMPDEST DUP1 CALLDATALOAD PUSH1 0x1 PUSH1 0x1 PUSH1 0xA0 SHL SUB DUP2 AND DUP2 EQ PUSH2 0x24BF JUMPI PUSH0 DUP1 REVERT JUMPDEST SWAP2 SWAP1 POP JUMP JUMPDEST PUSH0 PUSH1 0x20 DUP3 DUP5 SUB SLT ISZERO PUSH2 0x24D4 JUMPI PUSH0 DUP1 REVERT JUMPDEST PUSH2 0x2461 DUP3 PUSH2 0x24A9 JUMP JUMPDEST PUSH0 DUP2 MLOAD DUP1 DUP5 MSTORE PUSH1 0x20 DUP1 DUP6 ADD SWAP5 POP DUP1 DUP5 ADD PUSH0 JUMPDEST DUP4 DUP2 LT ISZERO PUSH2 0x2514 JUMPI DUP2 MLOAD PUSH1 0x1 PUSH1 0x1 PUSH1 0xA0 SHL SUB AND DUP8 MSTORE SWAP6 DUP3 ADD SWAP6 SWAP1 DUP3 ADD SWAP1 PUSH1 0x1 ADD PUSH2 0x24EF JUMP JUMPDEST POP SWAP5 SWAP6 SWAP5 POP POP POP POP POP JUMP JUMPDEST PUSH1 0x20 DUP2 MSTORE PUSH0 PUSH2 0x2461 PUSH1 0x20 DUP4 ADD DUP5 PUSH2 0x24DD JUMP JUMPDEST PUSH0 DUP2 MLOAD DUP1 DUP5 MSTORE PUSH1 0x20 DUP1 DUP6 ADD SWAP5 POP DUP1 DUP5 ADD PUSH0 JUMPDEST DUP4 DUP2 LT ISZERO PUSH2 0x2514 JUMPI DUP2 MLOAD DUP8 MSTORE SWAP6 DUP3 ADD SWAP6 SWAP1 DUP3 ADD SWAP1 PUSH1 0x1 ADD PUSH2 0x2543 JUMP JUMPDEST PUSH1 0x20 DUP2 MSTORE PUSH0 PUSH2 0x2461 PUSH1 0x20 DUP4 ADD DUP5 PUSH2 0x2531 JUMP JUMPDEST PUSH0 DUP1 PUSH1 0x40 DUP4 DUP6 SUB SLT ISZERO PUSH2 0x2582 JUMPI PUSH0 DUP1 REVERT JUMPDEST PUSH2 0x258B DUP4 PUSH2 0x24A9 JUMP JUMPDEST SWAP5 PUSH1 0x20 SWAP4 SWAP1 SWAP4 ADD CALLDATALOAD SWAP4 POP POP POP JUMP JUMPDEST PUSH4 0x4E487B71 PUSH1 0xE0 SHL PUSH0 MSTORE PUSH1 0x41 PUSH1 0x4 MSTORE PUSH1 0x24 PUSH0 REVERT JUMPDEST PUSH1 0x40 MLOAD PUSH1 0x1F DUP3 ADD PUSH1 0x1F NOT AND DUP2 ADD PUSH1 0x1 PUSH1 0x1 PUSH1 0x40 SHL SUB DUP2 GT DUP3 DUP3 LT OR ISZERO PUSH2 0x25D5 JUMPI PUSH2 0x25D5 PUSH2 0x2599 JUMP JUMPDEST PUSH1 0x40 MSTORE SWAP2 SWAP1 POP JUMP JUMPDEST PUSH0 DUP3 PUSH1 0x1F DUP4 ADD SLT PUSH2 0x25EC JUMPI PUSH0 DUP1 REVERT JUMPDEST DUP2 CALLDATALOAD PUSH1 0x20 PUSH1 0x1 PUSH1 0x1 PUSH1 0x40 SHL SUB DUP3 GT ISZERO PUSH2 0x2607 JUMPI PUSH2 0x2607 PUSH2 0x2599 JUMP JUMPDEST DUP2 PUSH1 0x5 SHL PUSH2 0x2616 DUP3 DUP3 ADD PUSH2 0x25AD JUMP JUMPDEST SWAP3 DUP4 MSTORE DUP5 DUP2 ADD DUP3 ADD SWAP3 DUP3 DUP2 ADD SWAP1 DUP8 DUP6 GT ISZERO PUSH2 0x262F JUMPI PUSH0 DUP1 REVERT JUMPDEST DUP4 DUP8 ADD SWAP3 POP JUMPDEST DUP5 DUP4 LT ISZERO PUSH2 0x264E JUMPI DUP3 CALLDATALOAD DUP3 MSTORE SWAP2 DUP4 ADD SWAP2 SWAP1 DUP4 ADD SWAP1 PUSH2 0x2635 JUMP JUMPDEST SWAP8 SWAP7 POP POP POP POP POP POP POP JUMP JUMPDEST PUSH0 DUP1 PUSH1 0x40 DUP4 DUP6 SUB SLT ISZERO PUSH2 0x266A JUMPI PUSH0 DUP1 REVERT JUMPDEST DUP3 CALLDATALOAD PUSH1 0x1 PUSH1 0x1 PUSH1 0x40 SHL SUB DUP1 DUP3 GT ISZERO PUSH2 0x2680 JUMPI PUSH0 DUP1 REVERT JUMPDEST PUSH2 0x268C DUP7 DUP4 DUP8 ADD PUSH2 0x25DD JUMP JUMPDEST SWAP4 POP PUSH1 0x20 DUP6 ADD CALLDATALOAD SWAP2 POP DUP1 DUP3 GT ISZERO PUSH2 0x26A1 JUMPI PUSH0 DUP1 REVERT JUMPDEST POP PUSH2 0x26AE DUP6 DUP3 DUP7 ADD PUSH2 0x25DD JUMP JUMPDEST SWAP2 POP POP SWAP3 POP SWAP3 SWAP1 POP JUMP JUMPDEST PUSH0 DUP1 PUSH1 0x40 DUP4 DUP6 SUB SLT ISZERO PUSH2 0x26C9 JUMPI PUSH0 DUP1 REVERT JUMPDEST PUSH2 0x26D2 DUP4 PUSH2 0x24A9 JUMP JUMPDEST SWAP2 POP PUSH1 0x20 DUP4 ADD CALLDATALOAD DUP1 ISZERO ISZERO DUP2 EQ PUSH2 0x26E6 JUMPI PUSH0 DUP1 REVERT JUMPDEST DUP1 SWAP2 POP POP SWAP3 POP SWAP3 SWAP1 POP JUMP JUMPDEST PUSH0 DUP1 PUSH1 0x40 DUP4 DUP6 SUB SLT ISZERO PUSH2 0x2702 JUMPI PUSH0 DUP1 REVERT JUMPDEST PUSH2 0x270B DUP4 PUSH2 0x24A9 JUMP JUMPDEST SWAP2 POP PUSH1 0x20 DUP4 DUP2 ADD CALLDATALOAD PUSH1 0x1 PUSH1 0x1 PUSH1 0x40 SHL SUB DUP1 DUP3 GT ISZERO PUSH2 0x2727 JUMPI PUSH0 DUP1 REVERT JUMPDEST DUP2 DUP7 ADD SWAP2 POP DUP7 PUSH1 0x1F DUP4 ADD SLT PUSH2 0x273A JUMPI PUSH0 DUP1 REVERT JUMPDEST DUP2 CALLDATALOAD DUP2 DUP2 GT ISZERO PUSH2 0x274C JUMPI PUSH2 0x274C PUSH2 0x2599 JUMP JUMPDEST PUSH2 0x275E PUSH1 0x1F DUP3 ADD PUSH1 0x1F NOT AND DUP6 ADD PUSH2 0x25AD JUMP JUMPDEST SWAP2 POP DUP1 DUP3 MSTORE DUP8 DUP5 DUP3 DUP6 ADD ADD GT ISZERO PUSH2 0x2773 JUMPI PUSH0 DUP1 REVERT JUMPDEST DUP1 DUP5 DUP5 ADD DUP6 DUP5 ADD CALLDATACOPY PUSH0 DUP5 DUP3 DUP5 ADD ADD MSTORE POP DUP1 SWAP4 POP POP POP POP SWAP3 POP SWAP3 SWAP1 POP JUMP JUMPDEST PUSH1 0x40 DUP2 MSTORE PUSH0 PUSH2 0x27A2 PUSH1 0x40 DUP4 ADD DUP6 PUSH2 0x24DD JUMP JUMPDEST DUP3 DUP2 SUB PUSH1 0x20 DUP5 ADD MSTORE PUSH2 0x243F DUP2 DUP6 PUSH2 0x2531 JUMP JUMPDEST PUSH0 DUP1 PUSH0 DUP1 PUSH0 DUP1 PUSH1 0xC0 DUP8 DUP10 SUB SLT ISZERO PUSH2 0x27C9 JUMPI PUSH0 DUP1 REVERT JUMPDEST PUSH2 0x27D2 DUP8 PUSH2 0x24A9 JUMP JUMPDEST SWAP6 POP PUSH2 0x27E0 PUSH1 0x20 DUP9 ADD PUSH2 0x24A9 JUMP JUMPDEST SWAP5 POP PUSH2 0x27EE PUSH1 0x40 DUP9 ADD PUSH2 0x24A9 JUMP JUMPDEST SWAP4 POP PUSH2 0x27FC PUSH1 0x60 DUP9 ADD PUSH2 0x24A9 JUMP JUMPDEST SWAP3 POP PUSH2 0x280A PUSH1 0x80 DUP9 ADD PUSH2 0x24A9 JUMP JUMPDEST SWAP2 POP PUSH2 0x2818 PUSH1 0xA0 DUP9 ADD PUSH2 0x24A9 JUMP JUMPDEST SWAP1 POP SWAP3 SWAP6 POP SWAP3 SWAP6 POP SWAP3 SWAP6 JUMP JUMPDEST PUSH1 0x40 DUP2 MSTORE PUSH0 PUSH2 0x27A2 PUSH1 0x40 DUP4 ADD DUP6 PUSH2 0x2531 JUMP JUMPDEST PUSH0 DUP1 PUSH1 0x40 DUP4 DUP6 SUB SLT ISZERO PUSH2 0x2847 JUMPI PUSH0 DUP1 REVERT JUMPDEST POP POP DUP1 CALLDATALOAD SWAP3 PUSH1 0x20 SWAP1 SWAP2 ADD CALLDATALOAD SWAP2 POP JUMP JUMPDEST PUSH1 0x20 DUP1 DUP3 MSTORE PUSH1 0x9 SWAP1 DUP3 ADD MSTORE PUSH9 0x3737BA1030B236B4B7 PUSH1 0xB9 SHL PUSH1 0x40 DUP3 ADD MSTORE PUSH1 0x60 ADD SWAP1 JUMP JUMPDEST PUSH4 0x4E487B71 PUSH1 0xE0 SHL PUSH0 MSTORE PUSH1 0x32 PUSH1 0x4 MSTORE PUSH1 0x24 PUSH0 REVERT JUMPDEST PUSH1 0x20 DUP1 DUP3 MSTORE PUSH1 0x2C SWAP1 DUP3 ADD MSTORE PUSH0 DUP1 MLOAD PUSH1 0x20 PUSH2 0x29F5 DUP4 CODECOPY DUP2 MLOAD SWAP2 MSTORE PUSH1 0x40 DUP3 ADD MSTORE PUSH12 0x19195B1959D85D1958D85B1B PUSH1 0xA2 SHL PUSH1 0x60 DUP3 ADD MSTORE PUSH1 0x80 ADD SWAP1 JUMP JUMPDEST PUSH1 0x20 DUP1 DUP3 MSTORE PUSH1 0x2C SWAP1 DUP3 ADD MSTORE PUSH0 DUP1 MLOAD PUSH1 0x20 PUSH2 0x29F5 DUP4 CODECOPY DUP2 MLOAD SWAP2 MSTORE PUSH1 0x40 DUP3 ADD MSTORE PUSH12 0x6163746976652070726F7879 PUSH1 0xA0 SHL PUSH1 0x60 DUP3 ADD MSTORE PUSH1 0x80 ADD SWAP1 JUMP JUMPDEST PUSH0 PUSH1 0x1 DUP3 ADD PUSH2 0x291C JUMPI PUSH4 0x4E487B71 PUSH1 0xE0 SHL PUSH0 MSTORE PUSH1 0x11 PUSH1 0x4 MSTORE PUSH1 0x24 PUSH0 REVERT JUMPDEST POP PUSH1 0x1 ADD SWAP1 JUMP JUMPDEST PUSH0 PUSH1 0x20 DUP3 DUP5 SUB SLT ISZERO PUSH2 0x2933 JUMPI PUSH0 DUP1 REVERT JUMPDEST POP MLOAD SWAP2 SWAP1 POP JUMP JUMPDEST PUSH1 0x20 DUP1 DUP3 MSTORE PUSH1 0x2B SWAP1 DUP3 ADD MSTORE PUSH32 0x496E697469616C697A61626C653A20636F6E7472616374206973206E6F742069 PUSH1 0x40 DUP3 ADD MSTORE PUSH11 0x6E697469616C697A696E67 PUSH1 0xA8 SHL PUSH1 0x60 DUP3 ADD MSTORE PUSH1 0x80 ADD SWAP1 JUMP JUMPDEST PUSH0 JUMPDEST DUP4 DUP2 LT ISZERO PUSH2 0x299F JUMPI DUP2 DUP2 ADD MLOAD DUP4 DUP3 ADD MSTORE PUSH1 0x20 ADD PUSH2 0x2987 JUMP JUMPDEST POP POP PUSH0 SWAP2 ADD MSTORE JUMP JUMPDEST PUSH0 DUP3 MLOAD PUSH2 0x29B8 DUP2 DUP5 PUSH1 0x20 DUP8 ADD PUSH2 0x2985 JUMP JUMPDEST SWAP2 SWAP1 SWAP2 ADD SWAP3 SWAP2 POP POP JUMP JUMPDEST PUSH1 0x20 DUP2 MSTORE PUSH0 DUP3 MLOAD DUP1 PUSH1 0x20 DUP5 ADD MSTORE PUSH2 0x29E0 DUP2 PUSH1 0x40 DUP6 ADD PUSH1 0x20 DUP8 ADD PUSH2 0x2985 JUMP JUMPDEST PUSH1 0x1F ADD PUSH1 0x1F NOT AND SWAP2 SWAP1 SWAP2 ADD PUSH1 0x40 ADD SWAP3 SWAP2 POP POP JUMP INVALID CHAINID PUSH22 0x6E6374696F6E206D7573742062652063616C6C656420 PUSH21 0x68726F75676820360894A13BA1A3210667C828492D 0xB9 DUP14 0xCA RETURNDATACOPY KECCAK256 PUSH23 0xCC3735A920A3CA505D382BBC416464726573733A206C6F PUSH24 0x2D6C6576656C2064656C65676174652063616C6C20666169 PUSH13 0x65643EFDD7A884FF9E18C9E571 SHR XOR GAS 0xA6 0xC5 0xE4 SGT 0xB6 DUP16 0x23 NOT PUSH26 0x97DA5B1665CA978F99A26469706673582212209FB3EEF1A7E8DF 0xD4 DUP2 0xC6 INVALID MULMOD 0xF 0xEC SWAP14 PUSH1 0x5B PUSH4 0x1080BF75 INVALID 0xE7 SGT 0xD3 RETURN PUSH21 0xA9A0C71C64736F6C63430008140033000000000000 "
				},
				"gasEstimates": {
					"creation": {
						"codeDepositCost": "2185800",
						"executionCost": "infinite",
						"totalCost": "infinite"
					},
					"external": {
						"acb()": "3008",
						"acbPair()": "2920",
						"airdropMachine(address,uint256)": "infinite",
						"changeClaimInterval(uint256)": "26918",
						"changeMachineExpireTime(uint256)": "26874",
						"changeMarketAddress(address)": "29298",
						"changeMaxComputingPower(uint256)": "26896",
						"changeMinComputingPower(uint256)": "27007",
						"changeMonthDividenAddress(address)": "29583",
						"changeMvCollectionAddress(address)": "29605",
						"changeOperator(address)": "26801",
						"changePlatformAddress(address)": "29429",
						"changePlatformRate(uint256)": "26852",
						"changeRefRewardRate(uint256,uint256)": "49361",
						"changeRemainingAddress(address)": "29517",
						"changeSameLevelRewardRate(uint256)": "27205",
						"changeShareHolderMinLimit(uint256)": "26764",
						"changeShareHolderRewardRate(uint256)": "26831",
						"changeSwapRate(uint256)": "26765",
						"changeTeamLevel(uint256[],uint256[])": "infinite",
						"changeTeamRewardAddress(address)": "29671",
						"changeTeamRewardRate(uint256)": "26984",
						"changeTechAddress(address)": "28989",
						"claimInterval()": "2361",
						"getRateConfig()": "infinite",
						"getTeamAddress()": "infinite",
						"getTeamLevel()": "infinite",
						"getUserLevels()": "infinite",
						"initialize(address)": "infinite",
						"machineExpireTime()": "2537",
						"marketAddress()": "2699",
						"maxComputingPower()": "2735",
						"minComputingPower()": "2536",
						"minePool()": "2325",
						"mmStore()": "2876",
						"monthDividendAddress()": "2743",
						"mv()": "2677",
						"mvCollectionAddress()": "2853",
						"operator()": "2964",
						"owner()": "2642",
						"platformAddress()": "2809",
						"platformRate()": "2669",
						"proxiableUUID()": "infinite",
						"refRewardOneRate()": "2580",
						"refRewardTwoRate()": "2757",
						"remainingAddress()": "2985",
						"renounceOwnership()": "infinite",
						"sameLevelRewardRate()": "2866",
						"setAdmin(address,bool)": "27407",
						"setConfig(address,address,address,address,address,address)": "infinite",
						"setUserLevel(address,uint256)": "75733",
						"shareHolderMinLimit()": "2471",
						"shareHolderRewardRate()": "2691",
						"swapRate()": "2360",
						"teamLevel(uint256)": "4773",
						"teamRewardAddress()": "2854",
						"teamRewardRate()": "2624",
						"techAddress()": "2458",
						"top()": "886",
						"transferOwnership(address)": "28972",
						"upgradeTo(address)": "infinite",
						"upgradeToAndCall(address,bytes)": "infinite",
						"usdt()": "2590",
						"userArr(uint256)": "4601",
						"userLevel(address)": "2737"
					},
					"internal": {
						"_authorizeUpgrade(address)": "infinite"
					}
				},
				"methodIdentifiers": {
					"acb()": "5bff9787",
					"acbPair()": "5250c9b5",
					"airdropMachine(address,uint256)": "57629f82",
					"changeClaimInterval(uint256)": "796f838e",
					"changeMachineExpireTime(uint256)": "7634b070",
					"changeMarketAddress(address)": "35aed778",
					"changeMaxComputingPower(uint256)": "767608e2",
					"changeMinComputingPower(uint256)": "3360364d",
					"changeMonthDividenAddress(address)": "f7656704",
					"changeMvCollectionAddress(address)": "f80183b2",
					"changeOperator(address)": "06394c9b",
					"changePlatformAddress(address)": "cde85744",
					"changePlatformRate(uint256)": "72765009",
					"changeRefRewardRate(uint256,uint256)": "e3d9aa05",
					"changeRemainingAddress(address)": "eb2266bc",
					"changeSameLevelRewardRate(uint256)": "498c1e3c",
					"changeShareHolderMinLimit(uint256)": "66bf8f83",
					"changeShareHolderRewardRate(uint256)": "19a2ef5f",
					"changeSwapRate(uint256)": "08f93bd8",
					"changeTeamLevel(uint256[],uint256[])": "3b2c2e55",
					"changeTeamRewardAddress(address)": "ff858079",
					"changeTeamRewardRate(uint256)": "863be1ab",
					"changeTechAddress(address)": "669934a9",
					"claimInterval()": "0b433a12",
					"getRateConfig()": "1e79aa0a",
					"getTeamAddress()": "182d326e",
					"getTeamLevel()": "9a3135a8",
					"getUserLevels()": "6b1a9c07",
					"initialize(address)": "c4d66de8",
					"machineExpireTime()": "2d8852ee",
					"marketAddress()": "95623641",
					"maxComputingPower()": "3d08e5b3",
					"minComputingPower()": "85adb294",
					"minePool()": "602e6623",
					"mmStore()": "4dd40234",
					"monthDividendAddress()": "b2cf085e",
					"mv()": "8f05cdf5",
					"mvCollectionAddress()": "e9d610e5",
					"operator()": "570ca735",
					"owner()": "8da5cb5b",
					"platformAddress()": "dbe55e56",
					"platformRate()": "36e0cac6",
					"proxiableUUID()": "52d1902d",
					"refRewardOneRate()": "8a5705d4",
					"refRewardTwoRate()": "434f9736",
					"remainingAddress()": "f97fe091",
					"renounceOwnership()": "715018a6",
					"sameLevelRewardRate()": "ee787b11",
					"setAdmin(address,bool)": "4b0bddd2",
					"setConfig(address,address,address,address,address,address)": "812df395",
					"setUserLevel(address,uint256)": "33f5780e",
					"shareHolderMinLimit()": "21596c25",
					"shareHolderRewardRate()": "39cbc405",
					"swapRate()": "698518e5",
					"teamLevel(uint256)": "254720b7",
					"teamRewardAddress()": "4b21ddec",
					"teamRewardRate()": "8e10ef0b",
					"techAddress()": "1e56cfab",
					"top()": "fe6dcdba",
					"transferOwnership(address)": "f2fde38b",
					"upgradeTo(address)": "3659cfe6",
					"upgradeToAndCall(address,bytes)": "4f1ef286",
					"usdt()": "2f48ab7d",
					"userArr(uint256)": "057d7781",
					"userLevel(address)": "280e31cc"
				}
			},
			"storageLayout": {
				"storage": [
					{
						"astId": 1461,
						"contract": "contracts/ACConfig.sol:ACConfig",
						"label": "_initialized",
						"offset": 0,
						"slot": "0",
						"type": "t_uint8"
					},
					{
						"astId": 1464,
						"contract": "contracts/ACConfig.sol:ACConfig",
						"label": "_initializing",
						"offset": 1,
						"slot": "0",
						"type": "t_bool"
					},
					{
						"astId": 2162,
						"contract": "contracts/ACConfig.sol:ACConfig",
						"label": "__gap",
						"offset": 0,
						"slot": "1",
						"type": "t_array(t_uint256)50_storage"
					},
					{
						"astId": 937,
						"contract": "contracts/ACConfig.sol:ACConfig",
						"label": "_owner",
						"offset": 0,
						"slot": "51",
						"type": "t_address"
					},
					{
						"astId": 1057,
						"contract": "contracts/ACConfig.sol:ACConfig",
						"label": "__gap",
						"offset": 0,
						"slot": "52",
						"type": "t_array(t_uint256)49_storage"
					},
					{
						"astId": 1443,
						"contract": "contracts/ACConfig.sol:ACConfig",
						"label": "__gap",
						"offset": 0,
						"slot": "101",
						"type": "t_array(t_uint256)50_storage"
					},
					{
						"astId": 1758,
						"contract": "contracts/ACConfig.sol:ACConfig",
						"label": "__gap",
						"offset": 0,
						"slot": "151",
						"type": "t_array(t_uint256)50_storage"
					},
					{
						"astId": 26,
						"contract": "contracts/ACConfig.sol:ACConfig",
						"label": "usdt",
						"offset": 0,
						"slot": "201",
						"type": "t_address"
					},
					{
						"astId": 28,
						"contract": "contracts/ACConfig.sol:ACConfig",
						"label": "acb",
						"offset": 0,
						"slot": "202",
						"type": "t_address"
					},
					{
						"astId": 30,
						"contract": "contracts/ACConfig.sol:ACConfig",
						"label": "mv",
						"offset": 0,
						"slot": "203",
						"type": "t_address"
					},
					{
						"astId": 32,
						"contract": "contracts/ACConfig.sol:ACConfig",
						"label": "mmStore",
						"offset": 0,
						"slot": "204",
						"type": "t_address"
					},
					{
						"astId": 34,
						"contract": "contracts/ACConfig.sol:ACConfig",
						"label": "minePool",
						"offset": 0,
						"slot": "205",
						"type": "t_address"
					},
					{
						"astId": 36,
						"contract": "contracts/ACConfig.sol:ACConfig",
						"label": "acbPair",
						"offset": 0,
						"slot": "206",
						"type": "t_address"
					},
					{
						"astId": 38,
						"contract": "contracts/ACConfig.sol:ACConfig",
						"label": "platformAddress",
						"offset": 0,
						"slot": "207",
						"type": "t_address"
					},
					{
						"astId": 40,
						"contract": "contracts/ACConfig.sol:ACConfig",
						"label": "monthDividendAddress",
						"offset": 0,
						"slot": "208",
						"type": "t_address"
					},
					{
						"astId": 42,
						"contract": "contracts/ACConfig.sol:ACConfig",
						"label": "platformRate",
						"offset": 0,
						"slot": "209",
						"type": "t_uint256"
					},
					{
						"astId": 44,
						"contract": "contracts/ACConfig.sol:ACConfig",
						"label": "swapRate",
						"offset": 0,
						"slot": "210",
						"type": "t_uint256"
					},
					{
						"astId": 46,
						"contract": "contracts/ACConfig.sol:ACConfig",
						"label": "mvCollectionAddress",
						"offset": 0,
						"slot": "211",
						"type": "t_address"
					},
					{
						"astId": 48,
						"contract": "contracts/ACConfig.sol:ACConfig",
						"label": "techAddress",
						"offset": 0,
						"slot": "212",
						"type": "t_address"
					},
					{
						"astId": 50,
						"contract": "contracts/ACConfig.sol:ACConfig",
						"label": "marketAddress",
						"offset": 0,
						"slot": "213",
						"type": "t_address"
					},
					{
						"astId": 52,
						"contract": "contracts/ACConfig.sol:ACConfig",
						"label": "minComputingPower",
						"offset": 0,
						"slot": "214",
						"type": "t_uint256"
					},
					{
						"astId": 54,
						"contract": "contracts/ACConfig.sol:ACConfig",
						"label": "refRewardOneRate",
						"offset": 0,
						"slot": "215",
						"type": "t_uint256"
					},
					{
						"astId": 56,
						"contract": "contracts/ACConfig.sol:ACConfig",
						"label": "refRewardTwoRate",
						"offset": 0,
						"slot": "216",
						"type": "t_uint256"
					},
					{
						"astId": 58,
						"contract": "contracts/ACConfig.sol:ACConfig",
						"label": "sameLevelRewardRate",
						"offset": 0,
						"slot": "217",
						"type": "t_uint256"
					},
					{
						"astId": 60,
						"contract": "contracts/ACConfig.sol:ACConfig",
						"label": "teamRewardRate",
						"offset": 0,
						"slot": "218",
						"type": "t_uint256"
					},
					{
						"astId": 62,
						"contract": "contracts/ACConfig.sol:ACConfig",
						"label": "teamRewardAddress",
						"offset": 0,
						"slot": "219",
						"type": "t_address"
					},
					{
						"astId": 64,
						"contract": "contracts/ACConfig.sol:ACConfig",
						"label": "remainingAddress",
						"offset": 0,
						"slot": "220",
						"type": "t_address"
					},
					{
						"astId": 66,
						"contract": "contracts/ACConfig.sol:ACConfig",
						"label": "shareHolderRewardRate",
						"offset": 0,
						"slot": "221",
						"type": "t_uint256"
					},
					{
						"astId": 68,
						"contract": "contracts/ACConfig.sol:ACConfig",
						"label": "shareHolderMinLimit",
						"offset": 0,
						"slot": "222",
						"type": "t_uint256"
					},
					{
						"astId": 73,
						"contract": "contracts/ACConfig.sol:ACConfig",
						"label": "teamLevel",
						"offset": 0,
						"slot": "223",
						"type": "t_mapping(t_uint256,t_struct(Level)97_storage)"
					},
					{
						"astId": 77,
						"contract": "contracts/ACConfig.sol:ACConfig",
						"label": "userLevel",
						"offset": 0,
						"slot": "224",
						"type": "t_mapping(t_address,t_uint256)"
					},
					{
						"astId": 80,
						"contract": "contracts/ACConfig.sol:ACConfig",
						"label": "userArr",
						"offset": 0,
						"slot": "225",
						"type": "t_array(t_address)dyn_storage"
					},
					{
						"astId": 82,
						"contract": "contracts/ACConfig.sol:ACConfig",
						"label": "machineExpireTime",
						"offset": 0,
						"slot": "226",
						"type": "t_uint256"
					},
					{
						"astId": 84,
						"contract": "contracts/ACConfig.sol:ACConfig",
						"label": "claimInterval",
						"offset": 0,
						"slot": "227",
						"type": "t_uint256"
					},
					{
						"astId": 86,
						"contract": "contracts/ACConfig.sol:ACConfig",
						"label": "operator",
						"offset": 0,
						"slot": "228",
						"type": "t_address"
					},
					{
						"astId": 90,
						"contract": "contracts/ACConfig.sol:ACConfig",
						"label": "admin",
						"offset": 0,
						"slot": "229",
						"type": "t_mapping(t_address,t_bool)"
					},
					{
						"astId": 92,
						"contract": "contracts/ACConfig.sol:ACConfig",
						"label": "maxComputingPower",
						"offset": 0,
						"slot": "230",
						"type": "t_uint256"
					}
				],
				"types": {
					"t_address": {
						"encoding": "inplace",
						"label": "address",
						"numberOfBytes": "20"
					},
					"t_array(t_address)dyn_storage": {
						"base": "t_address",
						"encoding": "dynamic_array",
						"label": "address[]",
						"numberOfBytes": "32"
					},
					"t_array(t_uint256)49_storage": {
						"base": "t_uint256",
						"encoding": "inplace",
						"label": "uint256[49]",
						"numberOfBytes": "1568"
					},
					"t_array(t_uint256)50_storage": {
						"base": "t_uint256",
						"encoding": "inplace",
						"label": "uint256[50]",
						"numberOfBytes": "1600"
					},
					"t_bool": {
						"encoding": "inplace",
						"label": "bool",
						"numberOfBytes": "1"
					},
					"t_mapping(t_address,t_bool)": {
						"encoding": "mapping",
						"key": "t_address",
						"label": "mapping(address => bool)",
						"numberOfBytes": "32",
						"value": "t_bool"
					},
					"t_mapping(t_address,t_uint256)": {
						"encoding": "mapping",
						"key": "t_address",
						"label": "mapping(address => uint256)",
						"numberOfBytes": "32",
						"value": "t_uint256"
					},
					"t_mapping(t_uint256,t_struct(Level)97_storage)": {
						"encoding": "mapping",
						"key": "t_uint256",
						"label": "mapping(uint256 => struct ACConfig.Level)",
						"numberOfBytes": "32",
						"value": "t_struct(Level)97_storage"
					},
					"t_struct(Level)97_storage": {
						"encoding": "inplace",
						"label": "struct ACConfig.Level",
						"members": [
							{
								"astId": 94,
								"contract": "contracts/ACConfig.sol:ACConfig",
								"label": "amount",
								"offset": 0,
								"slot": "0",
								"type": "t_uint256"
							},
							{
								"astId": 96,
								"contract": "contracts/ACConfig.sol:ACConfig",
								"label": "rate",
								"offset": 0,
								"slot": "1",
								"type": "t_uint256"
							}
						],
						"numberOfBytes": "64"
					},
					"t_uint256": {
						"encoding": "inplace",
						"label": "uint256",
						"numberOfBytes": "32"
					},
					"t_uint8": {
						"encoding": "inplace",
						"label": "uint8",
						"numberOfBytes": "1"
					}
				}
			},
			"userdoc": {
				"kind": "user",
				"methods": {},
				"version": 1
			}
		}
	}
}