{
	"contracts/MMEXT.sol": {
		"MMEXT": {
			"abi": [
				{
					"anonymous": false,
					"inputs": [
						{
							"indexed": false,
							"internalType": "address",
							"name": "previousAdmin",
							"type": "address"
						},
						{
							"indexed": false,
							"internalType": "address",
							"name": "newAdmin",
							"type": "address"
						}
					],
					"name": "AdminChanged",
					"type": "event"
				},
				{
					"anonymous": false,
					"inputs": [
						{
							"indexed": true,
							"internalType": "address",
							"name": "beacon",
							"type": "address"
						}
					],
					"name": "BeaconUpgraded",
					"type": "event"
				},
				{
					"anonymous": false,
					"inputs": [
						{
							"indexed": false,
							"internalType": "uint8",
							"name": "version",
							"type": "uint8"
						}
					],
					"name": "Initialized",
					"type": "event"
				},
				{
					"anonymous": false,
					"inputs": [
						{
							"indexed": true,
							"internalType": "address",
							"name": "previousOwner",
							"type": "address"
						},
						{
							"indexed": true,
							"internalType": "address",
							"name": "newOwner",
							"type": "address"
						}
					],
					"name": "OwnershipTransferred",
					"type": "event"
				},
				{
					"anonymous": false,
					"inputs": [
						{
							"indexed": true,
							"internalType": "address",
							"name": "implementation",
							"type": "address"
						}
					],
					"name": "Upgraded",
					"type": "event"
				},
				{
					"inputs": [],
					"name": "MMstore",
					"outputs": [
						{
							"internalType": "address",
							"name": "",
							"type": "address"
						}
					],
					"stateMutability": "view",
					"type": "function"
				},
				{
					"inputs": [
						{
							"internalType": "uint256",
							"name": "",
							"type": "uint256"
						}
					],
					"name": "NoOrder",
					"outputs": [
						{
							"internalType": "address",
							"name": "user",
							"type": "address"
						},
						{
							"internalType": "uint256",
							"name": "amount",
							"type": "uint256"
						},
						{
							"internalType": "uint256",
							"name": "number",
							"type": "uint256"
						},
						{
							"internalType": "uint256",
							"name": "timestamp",
							"type": "uint256"
						}
					],
					"stateMutability": "view",
					"type": "function"
				},
				{
					"inputs": [
						{
							"internalType": "address",
							"name": "_store",
							"type": "address"
						}
					],
					"name": "changeMmstore",
					"outputs": [],
					"stateMutability": "nonpayable",
					"type": "function"
				},
				{
					"inputs": [
						{
							"internalType": "uint256",
							"name": "",
							"type": "uint256"
						}
					],
					"name": "claimOrderArr",
					"outputs": [
						{
							"internalType": "address",
							"name": "user",
							"type": "address"
						},
						{
							"internalType": "uint256",
							"name": "amount",
							"type": "uint256"
						},
						{
							"internalType": "uint256",
							"name": "orderType",
							"type": "uint256"
						},
						{
							"internalType": "uint256",
							"name": "createTime",
							"type": "uint256"
						}
					],
					"stateMutability": "view",
					"type": "function"
				},
				{
					"inputs": [],
					"name": "getNoOrderRewardBy",
					"outputs": [
						{
							"components": [
								{
									"internalType": "address",
									"name": "user",
									"type": "address"
								},
								{
									"internalType": "uint256",
									"name": "amount",
									"type": "uint256"
								},
								{
									"internalType": "uint256",
									"name": "number",
									"type": "uint256"
								},
								{
									"internalType": "uint256",
									"name": "timestamp",
									"type": "uint256"
								}
							],
							"internalType": "struct IMMStore.TransferOrder[]",
							"name": "NoOrderReward",
							"type": "tuple[]"
						}
					],
					"stateMutability": "view",
					"type": "function"
				},
				{
					"inputs": [
						{
							"internalType": "uint256",
							"name": "start",
							"type": "uint256"
						},
						{
							"internalType": "uint256",
							"name": "end",
							"type": "uint256"
						}
					],
					"name": "getNoOrderRewardByIndex",
					"outputs": [
						{
							"components": [
								{
									"internalType": "address",
									"name": "user",
									"type": "address"
								},
								{
									"internalType": "uint256",
									"name": "amount",
									"type": "uint256"
								},
								{
									"internalType": "uint256",
									"name": "number",
									"type": "uint256"
								},
								{
									"internalType": "uint256",
									"name": "timestamp",
									"type": "uint256"
								}
							],
							"internalType": "struct IMMStore.TransferOrder[]",
							"name": "NoOrderReward",
							"type": "tuple[]"
						}
					],
					"stateMutability": "view",
					"type": "function"
				},
				{
					"inputs": [
						{
							"internalType": "address",
							"name": "_store",
							"type": "address"
						}
					],
					"name": "initialize",
					"outputs": [],
					"stateMutability": "nonpayable",
					"type": "function"
				},
				{
					"inputs": [
						{
							"internalType": "uint256",
							"name": "",
							"type": "uint256"
						}
					],
					"name": "machineArr",
					"outputs": [
						{
							"internalType": "address",
							"name": "user",
							"type": "address"
						},
						{
							"internalType": "uint256",
							"name": "computingPower",
							"type": "uint256"
						},
						{
							"internalType": "uint256",
							"name": "createTime",
							"type": "uint256"
						},
						{
							"internalType": "uint256",
							"name": "lastTime",
							"type": "uint256"
						}
					],
					"stateMutability": "view",
					"type": "function"
				},
				{
					"inputs": [],
					"name": "owner",
					"outputs": [
						{
							"internalType": "address",
							"name": "",
							"type": "address"
						}
					],
					"stateMutability": "view",
					"type": "function"
				},
				{
					"inputs": [],
					"name": "proxiableUUID",
					"outputs": [
						{
							"internalType": "bytes32",
							"name": "",
							"type": "bytes32"
						}
					],
					"stateMutability": "view",
					"type": "function"
				},
				{
					"inputs": [],
					"name": "renounceOwnership",
					"outputs": [],
					"stateMutability": "nonpayable",
					"type": "function"
				},
				{
					"inputs": [
						{
							"internalType": "uint256",
							"name": "",
							"type": "uint256"
						}
					],
					"name": "transferMaxOrder",
					"outputs": [
						{
							"internalType": "address",
							"name": "user",
							"type": "address"
						},
						{
							"internalType": "uint256",
							"name": "amount",
							"type": "uint256"
						},
						{
							"internalType": "uint256",
							"name": "number",
							"type": "uint256"
						},
						{
							"internalType": "uint256",
							"name": "timestamp",
							"type": "uint256"
						}
					],
					"stateMutability": "view",
					"type": "function"
				},
				{
					"inputs": [
						{
							"internalType": "address",
							"name": "newOwner",
							"type": "address"
						}
					],
					"name": "transferOwnership",
					"outputs": [],
					"stateMutability": "nonpayable",
					"type": "function"
				},
				{
					"inputs": [
						{
							"internalType": "address",
							"name": "newImplementation",
							"type": "address"
						}
					],
					"name": "upgradeTo",
					"outputs": [],
					"stateMutability": "nonpayable",
					"type": "function"
				},
				{
					"inputs": [
						{
							"internalType": "address",
							"name": "newImplementation",
							"type": "address"
						},
						{
							"internalType": "bytes",
							"name": "data",
							"type": "bytes"
						}
					],
					"name": "upgradeToAndCall",
					"outputs": [],
					"stateMutability": "payable",
					"type": "function"
				}
			],
			"devdoc": {
				"events": {
					"AdminChanged(address,address)": {
						"details": "Emitted when the admin account has changed."
					},
					"BeaconUpgraded(address)": {
						"details": "Emitted when the beacon is changed."
					},
					"Initialized(uint8)": {
						"details": "Triggered when the contract has been initialized or reinitialized."
					},
					"Upgraded(address)": {
						"details": "Emitted when the implementation is upgraded."
					}
				},
				"kind": "dev",
				"methods": {
					"owner()": {
						"details": "Returns the address of the current owner."
					},
					"proxiableUUID()": {
						"details": "Implementation of the ERC1822 {proxiableUUID} function. This returns the storage slot used by the implementation. It is used to validate the implementation's compatibility when performing an upgrade. IMPORTANT: A proxy pointing at a proxiable contract should not be considered proxiable itself, because this risks bricking a proxy that upgrades to it, by delegating to itself until out of gas. Thus it is critical that this function revert if invoked through a proxy. This is guaranteed by the `notDelegated` modifier."
					},
					"renounceOwnership()": {
						"details": "Leaves the contract without owner. It will not be possible to call `onlyOwner` functions anymore. Can only be called by the current owner. NOTE: Renouncing ownership will leave the contract without an owner, thereby removing any functionality that is only available to the owner."
					},
					"transferOwnership(address)": {
						"details": "Transfers ownership of the contract to a new account (`newOwner`). Can only be called by the current owner."
					},
					"upgradeTo(address)": {
						"details": "Upgrade the implementation of the proxy to `newImplementation`. Calls {_authorizeUpgrade}. Emits an {Upgraded} event."
					},
					"upgradeToAndCall(address,bytes)": {
						"details": "Upgrade the implementation of the proxy to `newImplementation`, and subsequently execute the function call encoded in `data`. Calls {_authorizeUpgrade}. Emits an {Upgraded} event."
					}
				},
				"version": 1
			},
			"evm": {
				"assembly": "    /* \"contracts/MMEXT.sol\":2517:3782  contract MMEXT is IMMStore,OwnableUpgradeable,UUPSUpgradeable{... */\n  mstore(0x40, 0xa0)\n    /* \"lib/contracts-upgradeable/proxy/utils/UUPSUpgradeable.sol\":1332:1336  this */\n  address\n    /* \"lib/contracts-upgradeable/proxy/utils/UUPSUpgradeable.sol\":1289:1337  address private immutable __self = address(this) */\n  0x80\n  mstore\n    /* \"contracts/MMEXT.sol\":2517:3782  contract MMEXT is IMMStore,OwnableUpgradeable,UUPSUpgradeable{... */\n  callvalue\n  dup1\n  iszero\n  tag_1\n  jumpi\n  0x00\n  dup1\n  revert\ntag_1:\n  pop\n  mload(0x80)\n  codecopy(0x00, dataOffset(sub_0), dataSize(sub_0))\n  0x00\n  assignImmutable(\"0x135d24c3045eb2fc378507486529b206ce031bd4e306ff07b2abc1c06a63b749\")\n  return(0x00, dataSize(sub_0))\nstop\n\nsub_0: assembly {\n        /* \"contracts/MMEXT.sol\":2517:3782  contract MMEXT is IMMStore,OwnableUpgradeable,UUPSUpgradeable{... */\n      mstore(0x40, 0x80)\n      jumpi(tag_1, lt(calldatasize, 0x04))\n      shr(0xe0, calldataload(0x00))\n      dup1\n      0x08e277c1\n      eq\n      tag_2\n      jumpi\n      dup1\n      0x3659cfe6\n      eq\n      tag_3\n      jumpi\n      dup1\n      0x4469ed13\n      eq\n      tag_4\n      jumpi\n      dup1\n      0x4f1ef286\n      eq\n      tag_5\n      jumpi\n      dup1\n      0x52d1902d\n      eq\n      tag_6\n      jumpi\n      dup1\n      0x661a5614\n      eq\n      tag_7\n      jumpi\n      dup1\n      0x715018a6\n      eq\n      tag_8\n      jumpi\n      dup1\n      0x8a1e0a17\n      eq\n      tag_9\n      jumpi\n      dup1\n      0x8da5cb5b\n      eq\n      tag_10\n      jumpi\n      dup1\n      0xc4d66de8\n      eq\n      tag_11\n      jumpi\n      dup1\n      0xcb82ab19\n      eq\n      tag_12\n      jumpi\n      dup1\n      0xd05a38d7\n      eq\n      tag_13\n      jumpi\n      dup1\n      0xf2782d6d\n      eq\n      tag_14\n      jumpi\n      dup1\n      0xf2fde38b\n      eq\n      tag_15\n      jumpi\n      dup1\n      0xf64387a7\n      eq\n      tag_16\n      jumpi\n    tag_1:\n      0x00\n      dup1\n      revert\n        /* \"contracts/MMEXT.sol\":2712:2742  TransferOrder[] public NoOrder */\n    tag_2:\n      callvalue\n      dup1\n      iszero\n      tag_17\n      jumpi\n      0x00\n      dup1\n      revert\n    tag_17:\n      pop\n      tag_18\n      tag_19\n      calldatasize\n      0x04\n      tag_20\n      jump\t// in\n    tag_19:\n      tag_21\n      jump\t// in\n    tag_18:\n      0x40\n      dup1\n      mload\n      sub(shl(0xa0, 0x01), 0x01)\n        /* \"#utility.yul\":448:480   */\n      swap1\n      swap6\n      and\n        /* \"#utility.yul\":430:481   */\n      dup6\n      mstore\n        /* \"#utility.yul\":512:514   */\n      0x20\n        /* \"#utility.yul\":497:515   */\n      dup6\n      add\n        /* \"#utility.yul\":490:524   */\n      swap4\n      swap1\n      swap4\n      mstore\n        /* \"#utility.yul\":540:558   */\n      swap2\n      dup4\n      add\n        /* \"#utility.yul\":533:567   */\n      mstore\n        /* \"#utility.yul\":598:600   */\n      0x60\n        /* \"#utility.yul\":583:601   */\n      dup3\n      add\n        /* \"#utility.yul\":576:610   */\n      mstore\n        /* \"#utility.yul\":417:420   */\n      0x80\n        /* \"#utility.yul\":402:421   */\n      add\n        /* \"contracts/MMEXT.sol\":2712:2742  TransferOrder[] public NoOrder */\n    tag_22:\n      mload(0x40)\n      dup1\n      swap2\n      sub\n      swap1\n      return\n        /* \"lib/contracts-upgradeable/proxy/utils/UUPSUpgradeable.sol\":3317:3514  function upgradeTo(address newImplementation) external virtual onlyProxy {... */\n    tag_3:\n      callvalue\n      dup1\n      iszero\n      tag_24\n      jumpi\n      0x00\n      dup1\n      revert\n    tag_24:\n      pop\n      tag_25\n      tag_26\n      calldatasize\n      0x04\n      tag_27\n      jump\t// in\n    tag_26:\n      tag_28\n      jump\t// in\n    tag_25:\n      stop\n        /* \"contracts/MMEXT.sol\":2749:2788  TransferOrder[] public transferMaxOrder */\n    tag_4:\n      callvalue\n      dup1\n      iszero\n      tag_29\n      jumpi\n      0x00\n      dup1\n      revert\n    tag_29:\n      pop\n      tag_18\n      tag_31\n      calldatasize\n      0x04\n      tag_20\n      jump\t// in\n    tag_31:\n      tag_32\n      jump\t// in\n        /* \"lib/contracts-upgradeable/proxy/utils/UUPSUpgradeable.sol\":3763:3985  function upgradeToAndCall(address newImplementation, bytes memory data) external payable virtual onlyProxy {... */\n    tag_5:\n      tag_25\n      tag_35\n      calldatasize\n      0x04\n      tag_36\n      jump\t// in\n    tag_35:\n      tag_37\n      jump\t// in\n        /* \"lib/contracts-upgradeable/proxy/utils/UUPSUpgradeable.sol\":3006:3137  function proxiableUUID() external view virtual override notDelegated returns (bytes32) {... */\n    tag_6:\n      callvalue\n      dup1\n      iszero\n      tag_38\n      jumpi\n      0x00\n      dup1\n      revert\n    tag_38:\n      pop\n      tag_39\n      tag_40\n      jump\t// in\n    tag_39:\n      mload(0x40)\n        /* \"#utility.yul\":2728:2753   */\n      swap1\n      dup2\n      mstore\n        /* \"#utility.yul\":2716:2718   */\n      0x20\n        /* \"#utility.yul\":2701:2719   */\n      add\n        /* \"lib/contracts-upgradeable/proxy/utils/UUPSUpgradeable.sol\":3006:3137  function proxiableUUID() external view virtual override notDelegated returns (bytes32) {... */\n      tag_22\n        /* \"#utility.yul\":2582:2759   */\n      jump\n        /* \"contracts/MMEXT.sol\":3056:3147  function changeMmstore(address _store)external onlyOwner{... */\n    tag_7:\n      callvalue\n      dup1\n      iszero\n      tag_43\n      jumpi\n      0x00\n      dup1\n      revert\n    tag_43:\n      pop\n      tag_25\n      tag_45\n      calldatasize\n      0x04\n      tag_27\n      jump\t// in\n    tag_45:\n      tag_46\n      jump\t// in\n        /* \"lib/contracts-upgradeable/access/OwnableUpgradeable.sol\":2071:2172  function renounceOwnership() public virtual onlyOwner {... */\n    tag_8:\n      callvalue\n      dup1\n      iszero\n      tag_47\n      jumpi\n      0x00\n      dup1\n      revert\n    tag_47:\n      pop\n      tag_25\n      tag_49\n      jump\t// in\n        /* \"contracts/MMEXT.sol\":2594:2616  address public MMstore */\n    tag_9:\n      callvalue\n      dup1\n      iszero\n      tag_50\n      jumpi\n      0x00\n      dup1\n      revert\n    tag_50:\n      pop\n      sload(0xc9)\n      tag_51\n      swap1\n      sub(shl(0xa0, 0x01), 0x01)\n      and\n      dup2\n      jump\n    tag_51:\n      mload(0x40)\n      sub(shl(0xa0, 0x01), 0x01)\n        /* \"#utility.yul\":2928:2960   */\n      swap1\n      swap2\n      and\n        /* \"#utility.yul\":2910:2961   */\n      dup2\n      mstore\n        /* \"#utility.yul\":2898:2900   */\n      0x20\n        /* \"#utility.yul\":2883:2901   */\n      add\n        /* \"contracts/MMEXT.sol\":2594:2616  address public MMstore */\n      tag_22\n        /* \"#utility.yul\":2764:2967   */\n      jump\n        /* \"lib/contracts-upgradeable/access/OwnableUpgradeable.sol\":1441:1526  function owner() public view virtual returns (address) {... */\n    tag_10:\n      callvalue\n      dup1\n      iszero\n      tag_55\n      jumpi\n      0x00\n      dup1\n      revert\n    tag_55:\n      pop\n      tag_51\n      tag_57\n      jump\t// in\n        /* \"contracts/MMEXT.sol\":2820:2956  function initialize( address _store)external initializer{... */\n    tag_11:\n      callvalue\n      dup1\n      iszero\n      tag_59\n      jumpi\n      0x00\n      dup1\n      revert\n    tag_59:\n      pop\n      tag_25\n      tag_61\n      calldatasize\n      0x04\n      tag_27\n      jump\t// in\n    tag_61:\n      tag_62\n      jump\t// in\n        /* \"contracts/MMEXT.sol\":2672:2705  ClaimOrder[] public claimOrderArr */\n    tag_12:\n      callvalue\n      dup1\n      iszero\n      tag_63\n      jumpi\n      0x00\n      dup1\n      revert\n    tag_63:\n      pop\n      tag_18\n      tag_65\n      calldatasize\n      0x04\n      tag_20\n      jump\t// in\n    tag_65:\n      tag_66\n      jump\t// in\n        /* \"contracts/MMEXT.sol\":3161:3579  function getNoOrderRewardByIndex(uint256 start,uint256 end) external view returns(TransferOrder[] memory NoOrderReward) {... */\n    tag_13:\n      callvalue\n      dup1\n      iszero\n      tag_68\n      jumpi\n      0x00\n      dup1\n      revert\n    tag_68:\n      pop\n      tag_69\n      tag_70\n      calldatasize\n      0x04\n      tag_71\n      jump\t// in\n    tag_70:\n      tag_72\n      jump\t// in\n    tag_69:\n      mload(0x40)\n      tag_22\n      swap2\n      swap1\n      tag_74\n      jump\t// in\n        /* \"contracts/MMEXT.sol\":2632:2665  MiningMachine[] public machineArr */\n    tag_14:\n      callvalue\n      dup1\n      iszero\n      tag_75\n      jumpi\n      0x00\n      dup1\n      revert\n    tag_75:\n      pop\n      tag_18\n      tag_77\n      calldatasize\n      0x04\n      tag_20\n      jump\t// in\n    tag_77:\n      tag_78\n      jump\t// in\n        /* \"lib/contracts-upgradeable/access/OwnableUpgradeable.sol\":2321:2519  function transferOwnership(address newOwner) public virtual onlyOwner {... */\n    tag_15:\n      callvalue\n      dup1\n      iszero\n      tag_80\n      jumpi\n      0x00\n      dup1\n      revert\n    tag_80:\n      pop\n      tag_25\n      tag_82\n      calldatasize\n      0x04\n      tag_27\n      jump\t// in\n    tag_82:\n      tag_83\n      jump\t// in\n        /* \"contracts/MMEXT.sol\":3589:3762  function getNoOrderRewardBy( ) external view returns(TransferOrder[] memory NoOrderReward) {... */\n    tag_16:\n      callvalue\n      dup1\n      iszero\n      tag_84\n      jumpi\n      0x00\n      dup1\n      revert\n    tag_84:\n      pop\n      tag_69\n      tag_86\n      jump\t// in\n        /* \"contracts/MMEXT.sol\":2712:2742  TransferOrder[] public NoOrder */\n    tag_21:\n      0xcc\n      dup2\n      dup2\n      sload\n      dup2\n      lt\n      tag_88\n      jumpi\n      0x00\n      dup1\n      revert\n    tag_88:\n      0x00\n      swap2\n      dup3\n      mstore\n      0x20\n      swap1\n      swap2\n      keccak256\n      0x04\n      swap1\n      swap2\n      mul\n      add\n      dup1\n      sload\n      0x01\n      dup3\n      add\n      sload\n      0x02\n      dup4\n      add\n      sload\n      0x03\n      swap1\n      swap4\n      add\n      sload\n      sub(shl(0xa0, 0x01), 0x01)\n      swap1\n      swap3\n      and\n      swap4\n      pop\n      swap2\n      swap1\n      dup5\n      jump\t// out\n        /* \"lib/contracts-upgradeable/proxy/utils/UUPSUpgradeable.sol\":3317:3514  function upgradeTo(address newImplementation) external virtual onlyProxy {... */\n    tag_28:\n      sub(shl(0xa0, 0x01), 0x01)\n        /* \"lib/contracts-upgradeable/proxy/utils/UUPSUpgradeable.sol\":1898:1904  __self */\n      immutable(\"0x135d24c3045eb2fc378507486529b206ce031bd4e306ff07b2abc1c06a63b749\")\n        /* \"lib/contracts-upgradeable/proxy/utils/UUPSUpgradeable.sol\":1881:1904  address(this) != __self */\n      and\n        /* \"lib/contracts-upgradeable/proxy/utils/UUPSUpgradeable.sol\":1889:1893  this */\n      address\n        /* \"lib/contracts-upgradeable/proxy/utils/UUPSUpgradeable.sol\":1881:1904  address(this) != __self */\n      sub\n        /* \"lib/contracts-upgradeable/proxy/utils/UUPSUpgradeable.sol\":1873:1953  require(address(this) != __self, \"Function must be called through delegatecall\") */\n      tag_91\n      jumpi\n      mload(0x40)\n      shl(0xe5, 0x461bcd)\n      dup2\n      mstore\n      0x04\n      add\n      tag_92\n      swap1\n      tag_93\n      jump\t// in\n    tag_92:\n      mload(0x40)\n      dup1\n      swap2\n      sub\n      swap1\n      revert\n    tag_91:\n        /* \"lib/contracts-upgradeable/proxy/utils/UUPSUpgradeable.sol\":1995:2001  __self */\n      immutable(\"0x135d24c3045eb2fc378507486529b206ce031bd4e306ff07b2abc1c06a63b749\")\n      sub(shl(0xa0, 0x01), 0x01)\n        /* \"lib/contracts-upgradeable/proxy/utils/UUPSUpgradeable.sol\":1971:2001  _getImplementation() == __self */\n      and\n        /* \"lib/contracts-upgradeable/proxy/utils/UUPSUpgradeable.sol\":1971:1991  _getImplementation() */\n      tag_94\n        /* \"lib/contracts-upgradeable/proxy/utils/UUPSUpgradeable.sol\":1971:1989  _getImplementation */\n      tag_95\n        /* \"lib/contracts-upgradeable/proxy/utils/UUPSUpgradeable.sol\":1971:1991  _getImplementation() */\n      jump\t// in\n    tag_94:\n      sub(shl(0xa0, 0x01), 0x01)\n        /* \"lib/contracts-upgradeable/proxy/utils/UUPSUpgradeable.sol\":1971:2001  _getImplementation() == __self */\n      and\n      eq\n        /* \"lib/contracts-upgradeable/proxy/utils/UUPSUpgradeable.sol\":1963:2050  require(_getImplementation() == __self, \"Function must be called through active proxy\") */\n      tag_96\n      jumpi\n      mload(0x40)\n      shl(0xe5, 0x461bcd)\n      dup2\n      mstore\n      0x04\n      add\n      tag_92\n      swap1\n      tag_98\n      jump\t// in\n    tag_96:\n        /* \"lib/contracts-upgradeable/proxy/utils/UUPSUpgradeable.sol\":3400:3436  _authorizeUpgrade(newImplementation) */\n      tag_100\n        /* \"lib/contracts-upgradeable/proxy/utils/UUPSUpgradeable.sol\":3418:3435  newImplementation */\n      dup2\n        /* \"lib/contracts-upgradeable/proxy/utils/UUPSUpgradeable.sol\":3400:3417  _authorizeUpgrade */\n      tag_101\n        /* \"lib/contracts-upgradeable/proxy/utils/UUPSUpgradeable.sol\":3400:3436  _authorizeUpgrade(newImplementation) */\n      jump\t// in\n    tag_100:\n        /* \"lib/contracts-upgradeable/proxy/utils/UUPSUpgradeable.sol\":3487:3499  new bytes(0) */\n      0x40\n      dup1\n      mload\n        /* \"lib/contracts-upgradeable/proxy/utils/UUPSUpgradeable.sol\":3497:3498  0 */\n      0x00\n        /* \"lib/contracts-upgradeable/proxy/utils/UUPSUpgradeable.sol\":3487:3499  new bytes(0) */\n      dup1\n      dup3\n      mstore\n      0x20\n      dup3\n      add\n      swap1\n      swap3\n      mstore\n        /* \"lib/contracts-upgradeable/proxy/utils/UUPSUpgradeable.sol\":3446:3507  _upgradeToAndCallUUPS(newImplementation, new bytes(0), false) */\n      tag_102\n      swap2\n        /* \"lib/contracts-upgradeable/proxy/utils/UUPSUpgradeable.sol\":3468:3485  newImplementation */\n      dup4\n      swap2\n        /* \"lib/contracts-upgradeable/proxy/utils/UUPSUpgradeable.sol\":3487:3499  new bytes(0) */\n      swap1\n        /* \"lib/contracts-upgradeable/proxy/utils/UUPSUpgradeable.sol\":3446:3467  _upgradeToAndCallUUPS */\n      tag_107\n        /* \"lib/contracts-upgradeable/proxy/utils/UUPSUpgradeable.sol\":3446:3507  _upgradeToAndCallUUPS(newImplementation, new bytes(0), false) */\n      jump\t// in\n    tag_102:\n        /* \"lib/contracts-upgradeable/proxy/utils/UUPSUpgradeable.sol\":3317:3514  function upgradeTo(address newImplementation) external virtual onlyProxy {... */\n      pop\n      jump\t// out\n        /* \"contracts/MMEXT.sol\":2749:2788  TransferOrder[] public transferMaxOrder */\n    tag_32:\n      0xcd\n      dup2\n      dup2\n      sload\n      dup2\n      lt\n      tag_88\n      jumpi\n      0x00\n      dup1\n      revert\n        /* \"lib/contracts-upgradeable/proxy/utils/UUPSUpgradeable.sol\":3763:3985  function upgradeToAndCall(address newImplementation, bytes memory data) external payable virtual onlyProxy {... */\n    tag_37:\n      sub(shl(0xa0, 0x01), 0x01)\n        /* \"lib/contracts-upgradeable/proxy/utils/UUPSUpgradeable.sol\":1898:1904  __self */\n      immutable(\"0x135d24c3045eb2fc378507486529b206ce031bd4e306ff07b2abc1c06a63b749\")\n        /* \"lib/contracts-upgradeable/proxy/utils/UUPSUpgradeable.sol\":1881:1904  address(this) != __self */\n      and\n        /* \"lib/contracts-upgradeable/proxy/utils/UUPSUpgradeable.sol\":1889:1893  this */\n      address\n        /* \"lib/contracts-upgradeable/proxy/utils/UUPSUpgradeable.sol\":1881:1904  address(this) != __self */\n      sub\n        /* \"lib/contracts-upgradeable/proxy/utils/UUPSUpgradeable.sol\":1873:1953  require(address(this) != __self, \"Function must be called through delegatecall\") */\n      tag_111\n      jumpi\n      mload(0x40)\n      shl(0xe5, 0x461bcd)\n      dup2\n      mstore\n      0x04\n      add\n      tag_92\n      swap1\n      tag_93\n      jump\t// in\n    tag_111:\n        /* \"lib/contracts-upgradeable/proxy/utils/UUPSUpgradeable.sol\":1995:2001  __self */\n      immutable(\"0x135d24c3045eb2fc378507486529b206ce031bd4e306ff07b2abc1c06a63b749\")\n      sub(shl(0xa0, 0x01), 0x01)\n        /* \"lib/contracts-upgradeable/proxy/utils/UUPSUpgradeable.sol\":1971:2001  _getImplementation() == __self */\n      and\n        /* \"lib/contracts-upgradeable/proxy/utils/UUPSUpgradeable.sol\":1971:1991  _getImplementation() */\n      tag_113\n        /* \"lib/contracts-upgradeable/proxy/utils/UUPSUpgradeable.sol\":1971:1989  _getImplementation */\n      tag_95\n        /* \"lib/contracts-upgradeable/proxy/utils/UUPSUpgradeable.sol\":1971:1991  _getImplementation() */\n      jump\t// in\n    tag_113:\n      sub(shl(0xa0, 0x01), 0x01)\n        /* \"lib/contracts-upgradeable/proxy/utils/UUPSUpgradeable.sol\":1971:2001  _getImplementation() == __self */\n      and\n      eq\n        /* \"lib/contracts-upgradeable/proxy/utils/UUPSUpgradeable.sol\":1963:2050  require(_getImplementation() == __self, \"Function must be called through active proxy\") */\n      tag_114\n      jumpi\n      mload(0x40)\n      shl(0xe5, 0x461bcd)\n      dup2\n      mstore\n      0x04\n      add\n      tag_92\n      swap1\n      tag_98\n      jump\t// in\n    tag_114:\n        /* \"lib/contracts-upgradeable/proxy/utils/UUPSUpgradeable.sol\":3880:3916  _authorizeUpgrade(newImplementation) */\n      tag_117\n        /* \"lib/contracts-upgradeable/proxy/utils/UUPSUpgradeable.sol\":3898:3915  newImplementation */\n      dup3\n        /* \"lib/contracts-upgradeable/proxy/utils/UUPSUpgradeable.sol\":3880:3897  _authorizeUpgrade */\n      tag_101\n        /* \"lib/contracts-upgradeable/proxy/utils/UUPSUpgradeable.sol\":3880:3916  _authorizeUpgrade(newImplementation) */\n      jump\t// in\n    tag_117:\n        /* \"lib/contracts-upgradeable/proxy/utils/UUPSUpgradeable.sol\":3926:3978  _upgradeToAndCallUUPS(newImplementation, data, true) */\n      tag_118\n        /* \"lib/contracts-upgradeable/proxy/utils/UUPSUpgradeable.sol\":3948:3965  newImplementation */\n      dup3\n        /* \"lib/contracts-upgradeable/proxy/utils/UUPSUpgradeable.sol\":3967:3971  data */\n      dup3\n        /* \"lib/contracts-upgradeable/proxy/utils/UUPSUpgradeable.sol\":3973:3977  true */\n      0x01\n        /* \"lib/contracts-upgradeable/proxy/utils/UUPSUpgradeable.sol\":3926:3947  _upgradeToAndCallUUPS */\n      tag_107\n        /* \"lib/contracts-upgradeable/proxy/utils/UUPSUpgradeable.sol\":3926:3978  _upgradeToAndCallUUPS(newImplementation, data, true) */\n      jump\t// in\n    tag_118:\n        /* \"lib/contracts-upgradeable/proxy/utils/UUPSUpgradeable.sol\":3763:3985  function upgradeToAndCall(address newImplementation, bytes memory data) external payable virtual onlyProxy {... */\n      pop\n      pop\n      jump\t// out\n        /* \"lib/contracts-upgradeable/proxy/utils/UUPSUpgradeable.sol\":3006:3137  function proxiableUUID() external view virtual override notDelegated returns (bytes32) {... */\n    tag_40:\n        /* \"lib/contracts-upgradeable/proxy/utils/UUPSUpgradeable.sol\":3084:3091  bytes32 */\n      0x00\n        /* \"lib/contracts-upgradeable/proxy/utils/UUPSUpgradeable.sol\":2324:2328  this */\n      address\n      sub(shl(0xa0, 0x01), 0x01)\n        /* \"lib/contracts-upgradeable/proxy/utils/UUPSUpgradeable.sol\":2333:2339  __self */\n      immutable(\"0x135d24c3045eb2fc378507486529b206ce031bd4e306ff07b2abc1c06a63b749\")\n        /* \"lib/contracts-upgradeable/proxy/utils/UUPSUpgradeable.sol\":2316:2339  address(this) == __self */\n      and\n      eq\n        /* \"lib/contracts-upgradeable/proxy/utils/UUPSUpgradeable.sol\":2308:2400  require(address(this) == __self, \"UUPSUpgradeable: must not be called through delegatecall\") */\n      tag_120\n      jumpi\n      mload(0x40)\n      shl(0xe5, 0x461bcd)\n      dup2\n      mstore\n        /* \"#utility.yul\":5217:5219   */\n      0x20\n        /* \"lib/contracts-upgradeable/proxy/utils/UUPSUpgradeable.sol\":2308:2400  require(address(this) == __self, \"UUPSUpgradeable: must not be called through delegatecall\") */\n      0x04\n      dup3\n      add\n        /* \"#utility.yul\":5199:5220   */\n      mstore\n        /* \"#utility.yul\":5256:5258   */\n      0x38\n        /* \"#utility.yul\":5236:5254   */\n      0x24\n      dup3\n      add\n        /* \"#utility.yul\":5229:5259   */\n      mstore\n        /* \"#utility.yul\":5295:5329   */\n      0x555550535570677261646561626c653a206d757374206e6f742062652063616c\n        /* \"#utility.yul\":5275:5293   */\n      0x44\n      dup3\n      add\n        /* \"#utility.yul\":5268:5330   */\n      mstore\n      shl(0x42, 0x1b1959081d1a1c9bdd59da0819195b1959d85d1958d85b1b)\n        /* \"#utility.yul\":5346:5364   */\n      0x64\n      dup3\n      add\n        /* \"#utility.yul\":5339:5393   */\n      mstore\n        /* \"#utility.yul\":5410:5429   */\n      0x84\n      add\n        /* \"lib/contracts-upgradeable/proxy/utils/UUPSUpgradeable.sol\":2308:2400  require(address(this) == __self, \"UUPSUpgradeable: must not be called through delegatecall\") */\n      tag_92\n        /* \"#utility.yul\":5015:5435   */\n      jump\n        /* \"lib/contracts-upgradeable/proxy/utils/UUPSUpgradeable.sol\":2308:2400  require(address(this) == __self, \"UUPSUpgradeable: must not be called through delegatecall\") */\n    tag_120:\n      pop\n      0x00\n      dup1\n      mload\n      0x20\n      data_75b20eef8615de99c108b05f0dbda081c91897128caa336d75dffb97c4132b4d\n      dup4\n      codecopy\n      dup2\n      mload\n      swap2\n      mstore\n        /* \"lib/contracts-upgradeable/proxy/utils/UUPSUpgradeable.sol\":3006:3137  function proxiableUUID() external view virtual override notDelegated returns (bytes32) {... */\n      swap1\n      jump\t// out\n        /* \"contracts/MMEXT.sol\":3056:3147  function changeMmstore(address _store)external onlyOwner{... */\n    tag_46:\n        /* \"lib/contracts-upgradeable/access/OwnableUpgradeable.sol\":1334:1347  _checkOwner() */\n      tag_125\n        /* \"lib/contracts-upgradeable/access/OwnableUpgradeable.sol\":1334:1345  _checkOwner */\n      tag_126\n        /* \"lib/contracts-upgradeable/access/OwnableUpgradeable.sol\":1334:1347  _checkOwner() */\n      jump\t// in\n    tag_125:\n        /* \"contracts/MMEXT.sol\":3123:3130  MMstore */\n      0xc9\n        /* \"contracts/MMEXT.sol\":3123:3139  MMstore = _store */\n      dup1\n      sload\n      not(sub(shl(0xa0, 0x01), 0x01))\n      and\n      sub(shl(0xa0, 0x01), 0x01)\n      swap3\n      swap1\n      swap3\n      and\n      swap2\n      swap1\n      swap2\n      or\n      swap1\n      sstore\n        /* \"contracts/MMEXT.sol\":3056:3147  function changeMmstore(address _store)external onlyOwner{... */\n      jump\t// out\n        /* \"lib/contracts-upgradeable/access/OwnableUpgradeable.sol\":2071:2172  function renounceOwnership() public virtual onlyOwner {... */\n    tag_49:\n        /* \"lib/contracts-upgradeable/access/OwnableUpgradeable.sol\":1334:1347  _checkOwner() */\n      tag_129\n        /* \"lib/contracts-upgradeable/access/OwnableUpgradeable.sol\":1334:1345  _checkOwner */\n      tag_126\n        /* \"lib/contracts-upgradeable/access/OwnableUpgradeable.sol\":1334:1347  _checkOwner() */\n      jump\t// in\n    tag_129:\n        /* \"lib/contracts-upgradeable/access/OwnableUpgradeable.sol\":2135:2165  _transferOwnership(address(0)) */\n      tag_131\n        /* \"lib/contracts-upgradeable/access/OwnableUpgradeable.sol\":2162:2163  0 */\n      0x00\n        /* \"lib/contracts-upgradeable/access/OwnableUpgradeable.sol\":2135:2153  _transferOwnership */\n      tag_132\n        /* \"lib/contracts-upgradeable/access/OwnableUpgradeable.sol\":2135:2165  _transferOwnership(address(0)) */\n      jump\t// in\n    tag_131:\n        /* \"lib/contracts-upgradeable/access/OwnableUpgradeable.sol\":2071:2172  function renounceOwnership() public virtual onlyOwner {... */\n      jump\t// out\n        /* \"lib/contracts-upgradeable/access/OwnableUpgradeable.sol\":1441:1526  function owner() public view virtual returns (address) {... */\n    tag_57:\n        /* \"lib/contracts-upgradeable/access/OwnableUpgradeable.sol\":1513:1519  _owner */\n      and(sub(shl(0xa0, 0x01), 0x01), sload(0x33))\n      swap1\n        /* \"lib/contracts-upgradeable/access/OwnableUpgradeable.sol\":1441:1526  function owner() public view virtual returns (address) {... */\n      jump\t// out\n        /* \"contracts/MMEXT.sol\":2820:2956  function initialize( address _store)external initializer{... */\n    tag_62:\n        /* \"lib/contracts-upgradeable/proxy/utils/Initializable.sol\":3268:3287  bool isTopLevelCall */\n      0x00\n        /* \"lib/contracts-upgradeable/proxy/utils/Initializable.sol\":3291:3304  _initializing */\n      sload\n      0x0100\n      swap1\n      div\n      0xff\n      and\n        /* \"lib/contracts-upgradeable/proxy/utils/Initializable.sol\":3290:3304  !_initializing */\n      iszero\n      dup1\n        /* \"lib/contracts-upgradeable/proxy/utils/Initializable.sol\":3336:3370  isTopLevelCall && _initialized < 1 */\n      dup1\n      iszero\n      tag_135\n      jumpi\n      pop\n        /* \"lib/contracts-upgradeable/proxy/utils/Initializable.sol\":3354:3366  _initialized */\n      sload(0x00)\n        /* \"lib/contracts-upgradeable/proxy/utils/Initializable.sol\":3369:3370  1 */\n      0x01\n        /* \"lib/contracts-upgradeable/proxy/utils/Initializable.sol\":3354:3366  _initialized */\n      0xff\n      swap1\n      swap2\n      and\n        /* \"lib/contracts-upgradeable/proxy/utils/Initializable.sol\":3354:3370  _initialized < 1 */\n      lt\n        /* \"lib/contracts-upgradeable/proxy/utils/Initializable.sol\":3336:3370  isTopLevelCall && _initialized < 1 */\n    tag_135:\n        /* \"lib/contracts-upgradeable/proxy/utils/Initializable.sol\":3335:3443  (isTopLevelCall && _initialized < 1) || (!AddressUpgradeable.isContract(address(this)) && _initialized == 1) */\n      dup1\n      tag_139\n      jumpi\n      pop\n        /* \"lib/contracts-upgradeable/proxy/utils/Initializable.sol\":3377:3421  AddressUpgradeable.isContract(address(this)) */\n      tag_137\n        /* \"lib/contracts-upgradeable/proxy/utils/Initializable.sol\":3415:3419  this */\n      address\n        /* \"lib/contracts-upgradeable/proxy/utils/Initializable.sol\":3377:3406  AddressUpgradeable.isContract */\n      tag_138\n        /* \"lib/contracts-upgradeable/proxy/utils/Initializable.sol\":3377:3421  AddressUpgradeable.isContract(address(this)) */\n      jump\t// in\n    tag_137:\n        /* \"lib/contracts-upgradeable/proxy/utils/Initializable.sol\":3376:3421  !AddressUpgradeable.isContract(address(this)) */\n      iszero\n        /* \"lib/contracts-upgradeable/proxy/utils/Initializable.sol\":3376:3442  !AddressUpgradeable.isContract(address(this)) && _initialized == 1 */\n      dup1\n      iszero\n      tag_139\n      jumpi\n      pop\n        /* \"lib/contracts-upgradeable/proxy/utils/Initializable.sol\":3425:3437  _initialized */\n      and(0xff, sload(0x00))\n      0x01\n        /* \"lib/contracts-upgradeable/proxy/utils/Initializable.sol\":3425:3442  _initialized == 1 */\n      eq\n        /* \"lib/contracts-upgradeable/proxy/utils/Initializable.sol\":3376:3442  !AddressUpgradeable.isContract(address(this)) && _initialized == 1 */\n    tag_139:\n        /* \"lib/contracts-upgradeable/proxy/utils/Initializable.sol\":3314:3515  require(... */\n      tag_140\n      jumpi\n      mload(0x40)\n      shl(0xe5, 0x461bcd)\n      dup2\n      mstore\n        /* \"#utility.yul\":5642:5644   */\n      0x20\n        /* \"lib/contracts-upgradeable/proxy/utils/Initializable.sol\":3314:3515  require(... */\n      0x04\n      dup3\n      add\n        /* \"#utility.yul\":5624:5645   */\n      mstore\n        /* \"#utility.yul\":5681:5683   */\n      0x2e\n        /* \"#utility.yul\":5661:5679   */\n      0x24\n      dup3\n      add\n        /* \"#utility.yul\":5654:5684   */\n      mstore\n        /* \"#utility.yul\":5720:5754   */\n      0x496e697469616c697a61626c653a20636f6e747261637420697320616c726561\n        /* \"#utility.yul\":5700:5718   */\n      0x44\n      dup3\n      add\n        /* \"#utility.yul\":5693:5755   */\n      mstore\n      shl(0x92, 0x191e481a5b9a5d1a585b1a5e9959)\n        /* \"#utility.yul\":5771:5789   */\n      0x64\n      dup3\n      add\n        /* \"#utility.yul\":5764:5808   */\n      mstore\n        /* \"#utility.yul\":5825:5844   */\n      0x84\n      add\n        /* \"lib/contracts-upgradeable/proxy/utils/Initializable.sol\":3314:3515  require(... */\n      tag_92\n        /* \"#utility.yul\":5440:5850   */\n      jump\n        /* \"lib/contracts-upgradeable/proxy/utils/Initializable.sol\":3314:3515  require(... */\n    tag_140:\n        /* \"lib/contracts-upgradeable/proxy/utils/Initializable.sol\":3525:3537  _initialized */\n      0x00\n        /* \"lib/contracts-upgradeable/proxy/utils/Initializable.sol\":3525:3541  _initialized = 1 */\n      dup1\n      sload\n      not(0xff)\n      and\n        /* \"lib/contracts-upgradeable/proxy/utils/Initializable.sol\":3540:3541  1 */\n      0x01\n        /* \"lib/contracts-upgradeable/proxy/utils/Initializable.sol\":3525:3541  _initialized = 1 */\n      or\n      swap1\n      sstore\n        /* \"lib/contracts-upgradeable/proxy/utils/Initializable.sol\":3551:3616  if (isTopLevelCall) {... */\n      dup1\n      iszero\n      tag_143\n      jumpi\n        /* \"lib/contracts-upgradeable/proxy/utils/Initializable.sol\":3585:3598  _initializing */\n      0x00\n        /* \"lib/contracts-upgradeable/proxy/utils/Initializable.sol\":3585:3605  _initializing = true */\n      dup1\n      sload\n      not(0xff00)\n      and\n      0x0100\n      or\n      swap1\n      sstore\n        /* \"lib/contracts-upgradeable/proxy/utils/Initializable.sol\":3551:3616  if (isTopLevelCall) {... */\n    tag_143:\n        /* \"contracts/MMEXT.sol\":2887:2903  __Ownable_init() */\n      tag_145\n        /* \"contracts/MMEXT.sol\":2887:2901  __Ownable_init */\n      tag_146\n        /* \"contracts/MMEXT.sol\":2887:2903  __Ownable_init() */\n      jump\t// in\n    tag_145:\n        /* \"contracts/MMEXT.sol\":2925:2932  MMstore */\n      0xc9\n        /* \"contracts/MMEXT.sol\":2925:2941  MMstore = _store */\n      dup1\n      sload\n      not(sub(shl(0xa0, 0x01), 0x01))\n      and\n      sub(shl(0xa0, 0x01), 0x01)\n      dup5\n      and\n      or\n      swap1\n      sstore\n        /* \"lib/contracts-upgradeable/proxy/utils/Initializable.sol\":3636:3735  if (isTopLevelCall) {... */\n      dup1\n      iszero\n      tag_118\n      jumpi\n        /* \"lib/contracts-upgradeable/proxy/utils/Initializable.sol\":3686:3691  false */\n      0x00\n        /* \"lib/contracts-upgradeable/proxy/utils/Initializable.sol\":3670:3691  _initializing = false */\n      dup1\n      sload\n      not(0xff00)\n      and\n      swap1\n      sstore\n        /* \"lib/contracts-upgradeable/proxy/utils/Initializable.sol\":3710:3724  Initialized(1) */\n      mload(0x40)\n      0x01\n        /* \"#utility.yul\":6007:6043   */\n      dup2\n      mstore\n        /* \"lib/contracts-upgradeable/proxy/utils/Initializable.sol\":3710:3724  Initialized(1) */\n      0x7f26b83ff96e1f2b6a682f133852f6798a09c465da95921460cefb3847402498\n      swap1\n        /* \"#utility.yul\":5995:5997   */\n      0x20\n        /* \"#utility.yul\":5980:5998   */\n      add\n        /* \"lib/contracts-upgradeable/proxy/utils/Initializable.sol\":3710:3724  Initialized(1) */\n      mload(0x40)\n      dup1\n      swap2\n      sub\n      swap1\n      log1\n        /* \"lib/contracts-upgradeable/proxy/utils/Initializable.sol\":3258:3741  {... */\n      pop\n        /* \"contracts/MMEXT.sol\":2820:2956  function initialize( address _store)external initializer{... */\n      pop\n      jump\t// out\n        /* \"contracts/MMEXT.sol\":2672:2705  ClaimOrder[] public claimOrderArr */\n    tag_66:\n      0xcb\n      dup2\n      dup2\n      sload\n      dup2\n      lt\n      tag_88\n      jumpi\n      0x00\n      dup1\n      revert\n        /* \"contracts/MMEXT.sol\":3161:3579  function getNoOrderRewardByIndex(uint256 start,uint256 end) external view returns(TransferOrder[] memory NoOrderReward) {... */\n    tag_72:\n        /* \"contracts/MMEXT.sol\":3243:3279  TransferOrder[] memory NoOrderReward */\n      0x60\n        /* \"contracts/MMEXT.sol\":3292:3323  TransferOrder[] memory NoOrderr */\n      0x00\n        /* \"contracts/MMEXT.sol\":3334:3341  MMstore */\n      0xc9\n      0x00\n      swap1\n      sload\n      swap1\n      0x0100\n      exp\n      swap1\n      div\n      sub(shl(0xa0, 0x01), 0x01)\n      and\n      sub(shl(0xa0, 0x01), 0x01)\n        /* \"contracts/MMEXT.sol\":3326:3362  MMSTORE(MMstore).getNoOrderRewardArr */\n      and\n      0x18d36b15\n        /* \"contracts/MMEXT.sol\":3326:3364  MMSTORE(MMstore).getNoOrderRewardArr() */\n      mload(0x40)\n      dup2\n      0xffffffff\n      and\n      0xe0\n      shl\n      dup2\n      mstore\n      0x04\n      add\n      0x00\n      mload(0x40)\n      dup1\n      dup4\n      sub\n      dup2\n      dup7\n      gas\n      staticcall\n      iszero\n      dup1\n      iszero\n      tag_154\n      jumpi\n      returndatasize\n      0x00\n      dup1\n      returndatacopy\n      revert(0x00, returndatasize)\n    tag_154:\n      pop\n      pop\n      pop\n      pop\n      mload(0x40)\n      returndatasize\n      0x00\n      dup3\n      returndatacopy\n      0x1f\n      returndatasize\n      swap1\n      dup2\n      add\n      not(0x1f)\n      and\n      dup3\n      add\n      0x40\n      mstore\n      tag_155\n      swap2\n      swap1\n      dup2\n      add\n      swap1\n      tag_156\n      jump\t// in\n    tag_155:\n        /* \"contracts/MMEXT.sol\":3292:3364  TransferOrder[] memory NoOrderr = MMSTORE(MMstore).getNoOrderRewardArr() */\n      swap1\n      pop\n        /* \"contracts/MMEXT.sol\":3375:3389  uint256 length */\n      0x00\n        /* \"contracts/MMEXT.sol\":3392:3403  end - start */\n      tag_157\n        /* \"contracts/MMEXT.sol\":3398:3403  start */\n      dup6\n        /* \"contracts/MMEXT.sol\":3392:3395  end */\n      dup6\n        /* \"contracts/MMEXT.sol\":3392:3403  end - start */\n      tag_158\n      jump\t// in\n    tag_157:\n        /* \"contracts/MMEXT.sol\":3392:3407  end - start + 1 */\n      tag_159\n      swap1\n        /* \"contracts/MMEXT.sol\":3406:3407  1 */\n      0x01\n        /* \"contracts/MMEXT.sol\":3392:3407  end - start + 1 */\n      tag_160\n      jump\t// in\n    tag_159:\n        /* \"contracts/MMEXT.sol\":3375:3407  uint256 length = end - start + 1 */\n      swap1\n      pop\n        /* \"contracts/MMEXT.sol\":3454:3460  length */\n      dup1\n      sub(shl(0x40, 0x01), 0x01)\n        /* \"contracts/MMEXT.sol\":3434:3461  new TransferOrder[](length) */\n      dup2\n      gt\n      iszero\n      tag_162\n      jumpi\n      tag_162\n      tag_105\n      jump\t// in\n    tag_162:\n      mload(0x40)\n      swap1\n      dup1\n      dup3\n      mstore\n      dup1\n      0x20\n      mul\n      0x20\n      add\n      dup3\n      add\n      0x40\n      mstore\n      dup1\n      iszero\n      tag_163\n      jumpi\n      dup2\n      0x20\n      add\n    tag_164:\n      tag_165\n      mload(0x40)\n      dup1\n      0x80\n      add\n      0x40\n      mstore\n      dup1\n      and(sub(shl(0xa0, 0x01), 0x01), 0x00)\n      dup2\n      mstore\n      0x20\n      add\n      0x00\n      dup2\n      mstore\n      0x20\n      add\n      0x00\n      dup2\n      mstore\n      0x20\n      add\n      0x00\n      dup2\n      mstore\n      pop\n      swap1\n      jump\n    tag_165:\n      dup2\n      mstore\n      0x20\n      add\n      swap1\n      0x01\n      swap1\n      sub\n      swap1\n      dup2\n      tag_164\n      jumpi\n      swap1\n      pop\n    tag_163:\n      pop\n        /* \"contracts/MMEXT.sol\":3418:3461  NoOrderReward = new TransferOrder[](length) */\n      swap3\n      pop\n        /* \"contracts/MMEXT.sol\":3476:3485  uint256 i */\n      0x00\n        /* \"contracts/MMEXT.sol\":3472:3572  for(uint256 i = 0; i < length; i++){... */\n    tag_167:\n        /* \"contracts/MMEXT.sol\":3495:3501  length */\n      dup2\n        /* \"contracts/MMEXT.sol\":3491:3492  i */\n      dup2\n        /* \"contracts/MMEXT.sol\":3491:3501  i < length */\n      lt\n        /* \"contracts/MMEXT.sol\":3472:3572  for(uint256 i = 0; i < length; i++){... */\n      iszero\n      tag_168\n      jumpi\n        /* \"contracts/MMEXT.sol\":3541:3549  NoOrderr */\n      dup3\n        /* \"contracts/MMEXT.sol\":3550:3559  start + i */\n      tag_170\n        /* \"contracts/MMEXT.sol\":3558:3559  i */\n      dup3\n        /* \"contracts/MMEXT.sol\":3550:3555  start */\n      dup9\n        /* \"contracts/MMEXT.sol\":3550:3559  start + i */\n      tag_160\n      jump\t// in\n    tag_170:\n        /* \"contracts/MMEXT.sol\":3541:3560  NoOrderr[start + i] */\n      dup2\n      mload\n      dup2\n      lt\n      tag_172\n      jumpi\n      tag_172\n      tag_173\n      jump\t// in\n    tag_172:\n      0x20\n      mul\n      0x20\n      add\n      add\n      mload\n        /* \"contracts/MMEXT.sol\":3522:3535  NoOrderReward */\n      dup5\n        /* \"contracts/MMEXT.sol\":3536:3537  i */\n      dup3\n        /* \"contracts/MMEXT.sol\":3522:3538  NoOrderReward[i] */\n      dup2\n      mload\n      dup2\n      lt\n      tag_175\n      jumpi\n      tag_175\n      tag_173\n      jump\t// in\n    tag_175:\n      0x20\n      mul\n      0x20\n      add\n      add\n        /* \"contracts/MMEXT.sol\":3522:3560  NoOrderReward[i] = NoOrderr[start + i] */\n      dup2\n      swap1\n      mstore\n      pop\n        /* \"contracts/MMEXT.sol\":3503:3506  i++ */\n      dup1\n      dup1\n      tag_176\n      swap1\n      tag_177\n      jump\t// in\n    tag_176:\n      swap2\n      pop\n      pop\n        /* \"contracts/MMEXT.sol\":3472:3572  for(uint256 i = 0; i < length; i++){... */\n      jump(tag_167)\n    tag_168:\n      pop\n        /* \"contracts/MMEXT.sol\":3281:3579  {... */\n      pop\n      pop\n        /* \"contracts/MMEXT.sol\":3161:3579  function getNoOrderRewardByIndex(uint256 start,uint256 end) external view returns(TransferOrder[] memory NoOrderReward) {... */\n      swap3\n      swap2\n      pop\n      pop\n      jump\t// out\n        /* \"contracts/MMEXT.sol\":2632:2665  MiningMachine[] public machineArr */\n    tag_78:\n      0xca\n      dup2\n      dup2\n      sload\n      dup2\n      lt\n      tag_88\n      jumpi\n      0x00\n      dup1\n      revert\n        /* \"lib/contracts-upgradeable/access/OwnableUpgradeable.sol\":2321:2519  function transferOwnership(address newOwner) public virtual onlyOwner {... */\n    tag_83:\n        /* \"lib/contracts-upgradeable/access/OwnableUpgradeable.sol\":1334:1347  _checkOwner() */\n      tag_181\n        /* \"lib/contracts-upgradeable/access/OwnableUpgradeable.sol\":1334:1345  _checkOwner */\n      tag_126\n        /* \"lib/contracts-upgradeable/access/OwnableUpgradeable.sol\":1334:1347  _checkOwner() */\n      jump\t// in\n    tag_181:\n      sub(shl(0xa0, 0x01), 0x01)\n        /* \"lib/contracts-upgradeable/access/OwnableUpgradeable.sol\":2409:2431  newOwner != address(0) */\n      dup2\n      and\n        /* \"lib/contracts-upgradeable/access/OwnableUpgradeable.sol\":2401:2474  require(newOwner != address(0), \"Ownable: new owner is the zero address\") */\n      tag_183\n      jumpi\n      mload(0x40)\n      shl(0xe5, 0x461bcd)\n      dup2\n      mstore\n        /* \"#utility.yul\":8394:8396   */\n      0x20\n        /* \"lib/contracts-upgradeable/access/OwnableUpgradeable.sol\":2401:2474  require(newOwner != address(0), \"Ownable: new owner is the zero address\") */\n      0x04\n      dup3\n      add\n        /* \"#utility.yul\":8376:8397   */\n      mstore\n        /* \"#utility.yul\":8433:8435   */\n      0x26\n        /* \"#utility.yul\":8413:8431   */\n      0x24\n      dup3\n      add\n        /* \"#utility.yul\":8406:8436   */\n      mstore\n        /* \"#utility.yul\":8472:8506   */\n      0x4f776e61626c653a206e6577206f776e657220697320746865207a65726f2061\n        /* \"#utility.yul\":8452:8470   */\n      0x44\n      dup3\n      add\n        /* \"#utility.yul\":8445:8507   */\n      mstore\n      shl(0xd0, 0x646472657373)\n        /* \"#utility.yul\":8523:8541   */\n      0x64\n      dup3\n      add\n        /* \"#utility.yul\":8516:8552   */\n      mstore\n        /* \"#utility.yul\":8569:8588   */\n      0x84\n      add\n        /* \"lib/contracts-upgradeable/access/OwnableUpgradeable.sol\":2401:2474  require(newOwner != address(0), \"Ownable: new owner is the zero address\") */\n      tag_92\n        /* \"#utility.yul\":8192:8594   */\n      jump\n        /* \"lib/contracts-upgradeable/access/OwnableUpgradeable.sol\":2401:2474  require(newOwner != address(0), \"Ownable: new owner is the zero address\") */\n    tag_183:\n        /* \"lib/contracts-upgradeable/access/OwnableUpgradeable.sol\":2484:2512  _transferOwnership(newOwner) */\n      tag_102\n        /* \"lib/contracts-upgradeable/access/OwnableUpgradeable.sol\":2503:2511  newOwner */\n      dup2\n        /* \"lib/contracts-upgradeable/access/OwnableUpgradeable.sol\":2484:2502  _transferOwnership */\n      tag_132\n        /* \"lib/contracts-upgradeable/access/OwnableUpgradeable.sol\":2484:2512  _transferOwnership(newOwner) */\n      jump\t// in\n        /* \"contracts/MMEXT.sol\":3589:3762  function getNoOrderRewardBy( ) external view returns(TransferOrder[] memory NoOrderReward) {... */\n    tag_86:\n        /* \"contracts/MMEXT.sol\":3715:3722  MMstore */\n      sload(0xc9)\n        /* \"contracts/MMEXT.sol\":3707:3745  MMSTORE(MMstore).getNoOrderRewardArr() */\n      0x40\n      dup1\n      mload\n      shl(0xe0, 0x18d36b15)\n      dup2\n      mstore\n      swap1\n      mload\n        /* \"contracts/MMEXT.sol\":3642:3678  TransferOrder[] memory NoOrderReward */\n      0x60\n      swap3\n      sub(shl(0xa0, 0x01), 0x01)\n        /* \"contracts/MMEXT.sol\":3715:3722  MMstore */\n      and\n      swap2\n        /* \"contracts/MMEXT.sol\":3707:3743  MMSTORE(MMstore).getNoOrderRewardArr */\n      0x18d36b15\n      swap2\n        /* \"contracts/MMEXT.sol\":3707:3745  MMSTORE(MMstore).getNoOrderRewardArr() */\n      0x04\n      dup1\n      dup4\n      add\n      swap3\n        /* \"contracts/MMEXT.sol\":3715:3722  MMstore */\n      0x00\n      swap3\n        /* \"contracts/MMEXT.sol\":3707:3745  MMSTORE(MMstore).getNoOrderRewardArr() */\n      swap2\n      swap1\n      dup3\n      swap1\n      sub\n      add\n      dup2\n        /* \"contracts/MMEXT.sol\":3715:3722  MMstore */\n      dup7\n        /* \"contracts/MMEXT.sol\":3707:3745  MMSTORE(MMstore).getNoOrderRewardArr() */\n      gas\n      staticcall\n      iszero\n      dup1\n      iszero\n      tag_189\n      jumpi\n      returndatasize\n      0x00\n      dup1\n      returndatacopy\n      revert(0x00, returndatasize)\n    tag_189:\n      pop\n      pop\n      pop\n      pop\n      mload(0x40)\n      returndatasize\n      0x00\n      dup3\n      returndatacopy\n      0x1f\n      returndatasize\n      swap1\n      dup2\n      add\n      not(0x1f)\n      and\n      dup3\n      add\n      0x40\n      mstore\n      tag_190\n      swap2\n      swap1\n      dup2\n      add\n      swap1\n      tag_156\n      jump\t// in\n    tag_190:\n        /* \"contracts/MMEXT.sol\":3691:3745  NoOrderReward = MMSTORE(MMstore).getNoOrderRewardArr() */\n      swap1\n      pop\n        /* \"contracts/MMEXT.sol\":3589:3762  function getNoOrderRewardBy( ) external view returns(TransferOrder[] memory NoOrderReward) {... */\n      swap1\n      jump\t// out\n        /* \"lib/contracts-upgradeable/proxy/ERC1967/ERC1967UpgradeUpgradeable.sol\":1509:1660  function _getImplementation() internal view returns (address) {... */\n    tag_95:\n      0x00\n      dup1\n      mload\n      0x20\n      data_75b20eef8615de99c108b05f0dbda081c91897128caa336d75dffb97c4132b4d\n      dup4\n      codecopy\n      dup2\n      mload\n      swap2\n      mstore\n        /* \"lib/contracts-upgradeable/proxy/ERC1967/ERC1967UpgradeUpgradeable.sol\":1588:1653  StorageSlotUpgradeable.getAddressSlot(_IMPLEMENTATION_SLOT).value */\n      sload\n      sub(shl(0xa0, 0x01), 0x01)\n      and\n      swap1\n        /* \"lib/contracts-upgradeable/proxy/ERC1967/ERC1967UpgradeUpgradeable.sol\":1509:1660  function _getImplementation() internal view returns (address) {... */\n      jump\t// out\n        /* \"contracts/MMEXT.sol\":2970:3036  function _authorizeUpgrade(address) internal override onlyOwner {} */\n    tag_101:\n        /* \"lib/contracts-upgradeable/access/OwnableUpgradeable.sol\":1334:1347  _checkOwner() */\n      tag_102\n        /* \"lib/contracts-upgradeable/access/OwnableUpgradeable.sol\":1334:1345  _checkOwner */\n      tag_126\n        /* \"lib/contracts-upgradeable/access/OwnableUpgradeable.sol\":1334:1347  _checkOwner() */\n      jump\t// in\n        /* \"lib/contracts-upgradeable/proxy/ERC1967/ERC1967UpgradeUpgradeable.sol\":2884:3858  function _upgradeToAndCallUUPS(... */\n    tag_107:\n        /* \"lib/contracts-upgradeable/proxy/ERC1967/ERC1967UpgradeUpgradeable.sol\":1023:1089  0x4910fdfa16fed3260ed0e7147f7cc6da11a60208b5b9406d12a635614ffd9143 */\n      0x4910fdfa16fed3260ed0e7147f7cc6da11a60208b5b9406d12a635614ffd9143\n        /* \"lib/contracts-upgradeable/proxy/ERC1967/ERC1967UpgradeUpgradeable.sol\":3330:3389  StorageSlotUpgradeable.getBooleanSlot(_ROLLBACK_SLOT).value */\n      sload\n      0xff\n      and\n        /* \"lib/contracts-upgradeable/proxy/ERC1967/ERC1967UpgradeUpgradeable.sol\":3326:3852  if (StorageSlotUpgradeable.getBooleanSlot(_ROLLBACK_SLOT).value) {... */\n      iszero\n      tag_200\n      jumpi\n        /* \"lib/contracts-upgradeable/proxy/ERC1967/ERC1967UpgradeUpgradeable.sol\":3405:3442  _setImplementation(newImplementation) */\n      tag_201\n        /* \"lib/contracts-upgradeable/proxy/ERC1967/ERC1967UpgradeUpgradeable.sol\":3424:3441  newImplementation */\n      dup4\n        /* \"lib/contracts-upgradeable/proxy/ERC1967/ERC1967UpgradeUpgradeable.sol\":3405:3423  _setImplementation */\n      tag_202\n        /* \"lib/contracts-upgradeable/proxy/ERC1967/ERC1967UpgradeUpgradeable.sol\":3405:3442  _setImplementation(newImplementation) */\n      jump\t// in\n    tag_201:\n        /* \"lib/contracts-upgradeable/proxy/ERC1967/ERC1967UpgradeUpgradeable.sol\":2884:3858  function _upgradeToAndCallUUPS(... */\n      pop\n      pop\n      pop\n      jump\t// out\n        /* \"lib/contracts-upgradeable/proxy/ERC1967/ERC1967UpgradeUpgradeable.sol\":3326:3852  if (StorageSlotUpgradeable.getBooleanSlot(_ROLLBACK_SLOT).value) {... */\n    tag_200:\n        /* \"lib/contracts-upgradeable/proxy/ERC1967/ERC1967UpgradeUpgradeable.sol\":3506:3523  newImplementation */\n      dup3\n      sub(shl(0xa0, 0x01), 0x01)\n        /* \"lib/contracts-upgradeable/proxy/ERC1967/ERC1967UpgradeUpgradeable.sol\":3477:3538  IERC1822ProxiableUpgradeable(newImplementation).proxiableUUID */\n      and\n      0x52d1902d\n        /* \"lib/contracts-upgradeable/proxy/ERC1967/ERC1967UpgradeUpgradeable.sol\":3477:3540  IERC1822ProxiableUpgradeable(newImplementation).proxiableUUID() */\n      mload(0x40)\n      dup2\n      0xffffffff\n      and\n      0xe0\n      shl\n      dup2\n      mstore\n      0x04\n      add\n      0x20\n      mload(0x40)\n      dup1\n      dup4\n      sub\n      dup2\n      dup7\n      gas\n      staticcall\n      swap3\n      pop\n      pop\n      pop\n      dup1\n      iszero\n      tag_204\n      jumpi\n      pop\n      0x40\n      dup1\n      mload\n      0x1f\n      returndatasize\n      swap1\n      dup2\n      add\n      not(0x1f)\n      and\n      dup3\n      add\n      swap1\n      swap3\n      mstore\n      tag_205\n      swap2\n      dup2\n      add\n      swap1\n      tag_206\n      jump\t// in\n    tag_205:\n      0x01\n    tag_204:\n        /* \"lib/contracts-upgradeable/proxy/ERC1967/ERC1967UpgradeUpgradeable.sol\":3473:3775  try IERC1822ProxiableUpgradeable(newImplementation).proxiableUUID() returns (bytes32 slot) {... */\n      tag_207\n      jumpi\n        /* \"lib/contracts-upgradeable/proxy/ERC1967/ERC1967UpgradeUpgradeable.sol\":3704:3760  revert(\"ERC1967Upgrade: new implementation is not UUPS\") */\n      mload(0x40)\n      shl(0xe5, 0x461bcd)\n      dup2\n      mstore\n        /* \"#utility.yul\":8990:8992   */\n      0x20\n        /* \"lib/contracts-upgradeable/proxy/ERC1967/ERC1967UpgradeUpgradeable.sol\":3704:3760  revert(\"ERC1967Upgrade: new implementation is not UUPS\") */\n      0x04\n      dup3\n      add\n        /* \"#utility.yul\":8972:8993   */\n      mstore\n        /* \"#utility.yul\":9029:9031   */\n      0x2e\n        /* \"#utility.yul\":9009:9027   */\n      0x24\n      dup3\n      add\n        /* \"#utility.yul\":9002:9032   */\n      mstore\n        /* \"#utility.yul\":9068:9102   */\n      0x45524331393637557067726164653a206e657720696d706c656d656e74617469\n        /* \"#utility.yul\":9048:9066   */\n      0x44\n      dup3\n      add\n        /* \"#utility.yul\":9041:9103   */\n      mstore\n      shl(0x90, 0x6f6e206973206e6f742055555053)\n        /* \"#utility.yul\":9119:9137   */\n      0x64\n      dup3\n      add\n        /* \"#utility.yul\":9112:9156   */\n      mstore\n        /* \"#utility.yul\":9173:9192   */\n      0x84\n      add\n        /* \"lib/contracts-upgradeable/proxy/ERC1967/ERC1967UpgradeUpgradeable.sol\":3704:3760  revert(\"ERC1967Upgrade: new implementation is not UUPS\") */\n      tag_92\n        /* \"#utility.yul\":8788:9198   */\n      jump\n        /* \"lib/contracts-upgradeable/proxy/ERC1967/ERC1967UpgradeUpgradeable.sol\":3473:3775  try IERC1822ProxiableUpgradeable(newImplementation).proxiableUUID() returns (bytes32 slot) {... */\n    tag_207:\n      0x00\n      dup1\n      mload\n      0x20\n      data_75b20eef8615de99c108b05f0dbda081c91897128caa336d75dffb97c4132b4d\n      dup4\n      codecopy\n      dup2\n      mload\n      swap2\n      mstore\n        /* \"lib/contracts-upgradeable/proxy/ERC1967/ERC1967UpgradeUpgradeable.sol\":3590:3618  slot == _IMPLEMENTATION_SLOT */\n      dup2\n      eq\n        /* \"lib/contracts-upgradeable/proxy/ERC1967/ERC1967UpgradeUpgradeable.sol\":3582:3664  require(slot == _IMPLEMENTATION_SLOT, \"ERC1967Upgrade: unsupported proxiableUUID\") */\n      tag_214\n      jumpi\n      mload(0x40)\n      shl(0xe5, 0x461bcd)\n      dup2\n      mstore\n        /* \"#utility.yul\":9405:9407   */\n      0x20\n        /* \"lib/contracts-upgradeable/proxy/ERC1967/ERC1967UpgradeUpgradeable.sol\":3582:3664  require(slot == _IMPLEMENTATION_SLOT, \"ERC1967Upgrade: unsupported proxiableUUID\") */\n      0x04\n      dup3\n      add\n        /* \"#utility.yul\":9387:9408   */\n      mstore\n        /* \"#utility.yul\":9444:9446   */\n      0x29\n        /* \"#utility.yul\":9424:9442   */\n      0x24\n      dup3\n      add\n        /* \"#utility.yul\":9417:9447   */\n      mstore\n        /* \"#utility.yul\":9483:9517   */\n      0x45524331393637557067726164653a20756e737570706f727465642070726f78\n        /* \"#utility.yul\":9463:9481   */\n      0x44\n      dup3\n      add\n        /* \"#utility.yul\":9456:9518   */\n      mstore\n      shl(0xba, 0x1a58589b1955555251)\n        /* \"#utility.yul\":9534:9552   */\n      0x64\n      dup3\n      add\n        /* \"#utility.yul\":9527:9566   */\n      mstore\n        /* \"#utility.yul\":9583:9602   */\n      0x84\n      add\n        /* \"lib/contracts-upgradeable/proxy/ERC1967/ERC1967UpgradeUpgradeable.sol\":3582:3664  require(slot == _IMPLEMENTATION_SLOT, \"ERC1967Upgrade: unsupported proxiableUUID\") */\n      tag_92\n        /* \"#utility.yul\":9203:9608   */\n      jump\n        /* \"lib/contracts-upgradeable/proxy/ERC1967/ERC1967UpgradeUpgradeable.sol\":3582:3664  require(slot == _IMPLEMENTATION_SLOT, \"ERC1967Upgrade: unsupported proxiableUUID\") */\n    tag_214:\n        /* \"lib/contracts-upgradeable/proxy/ERC1967/ERC1967UpgradeUpgradeable.sol\":3541:3679  returns (bytes32 slot) {... */\n      pop\n        /* \"lib/contracts-upgradeable/proxy/ERC1967/ERC1967UpgradeUpgradeable.sol\":3788:3841  _upgradeToAndCall(newImplementation, data, forceCall) */\n      tag_201\n        /* \"lib/contracts-upgradeable/proxy/ERC1967/ERC1967UpgradeUpgradeable.sol\":3806:3823  newImplementation */\n      dup4\n        /* \"lib/contracts-upgradeable/proxy/ERC1967/ERC1967UpgradeUpgradeable.sol\":3825:3829  data */\n      dup4\n        /* \"lib/contracts-upgradeable/proxy/ERC1967/ERC1967UpgradeUpgradeable.sol\":3831:3840  forceCall */\n      dup4\n        /* \"lib/contracts-upgradeable/proxy/ERC1967/ERC1967UpgradeUpgradeable.sol\":3788:3805  _upgradeToAndCall */\n      tag_218\n        /* \"lib/contracts-upgradeable/proxy/ERC1967/ERC1967UpgradeUpgradeable.sol\":3788:3841  _upgradeToAndCall(newImplementation, data, forceCall) */\n      jump\t// in\n        /* \"lib/contracts-upgradeable/access/OwnableUpgradeable.sol\":1599:1729  function _checkOwner() internal view virtual {... */\n    tag_126:\n        /* \"lib/contracts-upgradeable/utils/ContextUpgradeable.sol\":929:939  msg.sender */\n      caller\n        /* \"lib/contracts-upgradeable/access/OwnableUpgradeable.sol\":1662:1669  owner() */\n      tag_222\n        /* \"lib/contracts-upgradeable/access/OwnableUpgradeable.sol\":1662:1667  owner */\n      tag_57\n        /* \"lib/contracts-upgradeable/access/OwnableUpgradeable.sol\":1662:1669  owner() */\n      jump\t// in\n    tag_222:\n      sub(shl(0xa0, 0x01), 0x01)\n        /* \"lib/contracts-upgradeable/access/OwnableUpgradeable.sol\":1662:1685  owner() == _msgSender() */\n      and\n      eq\n        /* \"lib/contracts-upgradeable/access/OwnableUpgradeable.sol\":1654:1722  require(owner() == _msgSender(), \"Ownable: caller is not the owner\") */\n      tag_131\n      jumpi\n      mload(0x40)\n      shl(0xe5, 0x461bcd)\n      dup2\n      mstore\n        /* \"#utility.yul\":9815:9817   */\n      0x20\n        /* \"lib/contracts-upgradeable/access/OwnableUpgradeable.sol\":1654:1722  require(owner() == _msgSender(), \"Ownable: caller is not the owner\") */\n      0x04\n      dup3\n      add\n        /* \"#utility.yul\":9797:9818   */\n      dup2\n      swap1\n      mstore\n        /* \"#utility.yul\":9834:9852   */\n      0x24\n      dup3\n      add\n        /* \"#utility.yul\":9827:9857   */\n      mstore\n        /* \"#utility.yul\":9893:9927   */\n      0x4f776e61626c653a2063616c6c6572206973206e6f7420746865206f776e6572\n        /* \"#utility.yul\":9873:9891   */\n      0x44\n      dup3\n      add\n        /* \"#utility.yul\":9866:9928   */\n      mstore\n        /* \"#utility.yul\":9945:9963   */\n      0x64\n      add\n        /* \"lib/contracts-upgradeable/access/OwnableUpgradeable.sol\":1654:1722  require(owner() == _msgSender(), \"Ownable: caller is not the owner\") */\n      tag_92\n        /* \"#utility.yul\":9613:9969   */\n      jump\n        /* \"lib/contracts-upgradeable/access/OwnableUpgradeable.sol\":2673:2860  function _transferOwnership(address newOwner) internal virtual {... */\n    tag_132:\n        /* \"lib/contracts-upgradeable/access/OwnableUpgradeable.sol\":2765:2771  _owner */\n      0x33\n      dup1\n      sload\n      sub(shl(0xa0, 0x01), 0x01)\n        /* \"lib/contracts-upgradeable/access/OwnableUpgradeable.sol\":2781:2798  _owner = newOwner */\n      dup4\n      dup2\n      and\n      not(sub(shl(0xa0, 0x01), 0x01))\n      dup4\n      and\n      dup2\n      or\n      swap1\n      swap4\n      sstore\n        /* \"lib/contracts-upgradeable/access/OwnableUpgradeable.sol\":2813:2853  OwnershipTransferred(oldOwner, newOwner) */\n      mload(0x40)\n        /* \"lib/contracts-upgradeable/access/OwnableUpgradeable.sol\":2765:2771  _owner */\n      swap2\n      and\n      swap2\n        /* \"lib/contracts-upgradeable/access/OwnableUpgradeable.sol\":2781:2798  _owner = newOwner */\n      swap1\n        /* \"lib/contracts-upgradeable/access/OwnableUpgradeable.sol\":2765:2771  _owner */\n      dup3\n      swap1\n        /* \"lib/contracts-upgradeable/access/OwnableUpgradeable.sol\":2813:2853  OwnershipTransferred(oldOwner, newOwner) */\n      0x8be0079c531659141344cd1fd0a4f28419497f9722a3daafe3b4186f6b6457e0\n      swap1\n        /* \"lib/contracts-upgradeable/access/OwnableUpgradeable.sol\":2746:2762  address oldOwner */\n      0x00\n      swap1\n        /* \"lib/contracts-upgradeable/access/OwnableUpgradeable.sol\":2813:2853  OwnershipTransferred(oldOwner, newOwner) */\n      log3\n        /* \"lib/contracts-upgradeable/access/OwnableUpgradeable.sol\":2736:2860  {... */\n      pop\n        /* \"lib/contracts-upgradeable/access/OwnableUpgradeable.sol\":2673:2860  function _transferOwnership(address newOwner) internal virtual {... */\n      pop\n      jump\t// out\n        /* \"lib/contracts-upgradeable/utils/AddressUpgradeable.sol\":1186:1506  function isContract(address account) internal view returns (bool) {... */\n    tag_138:\n      sub(shl(0xa0, 0x01), 0x01)\n        /* \"lib/contracts-upgradeable/utils/AddressUpgradeable.sol\":1476:1495  account.code.length */\n      and\n      extcodesize\n        /* \"lib/contracts-upgradeable/utils/AddressUpgradeable.sol\":1476:1499  account.code.length > 0 */\n      iszero\n      iszero\n      swap1\n        /* \"lib/contracts-upgradeable/utils/AddressUpgradeable.sol\":1186:1506  function isContract(address account) internal view returns (bool) {... */\n      jump\t// out\n        /* \"lib/contracts-upgradeable/access/OwnableUpgradeable.sol\":1003:1098  function __Ownable_init() internal onlyInitializing {... */\n    tag_146:\n        /* \"lib/contracts-upgradeable/proxy/utils/Initializable.sol\":5363:5376  _initializing */\n      sload(0x00)\n      0x0100\n      swap1\n      div\n      0xff\n      and\n        /* \"lib/contracts-upgradeable/proxy/utils/Initializable.sol\":5355:5424  require(_initializing, \"Initializable: contract is not initializing\") */\n      tag_229\n      jumpi\n      mload(0x40)\n      shl(0xe5, 0x461bcd)\n      dup2\n      mstore\n      0x04\n      add\n      tag_92\n      swap1\n      tag_231\n      jump\t// in\n    tag_229:\n        /* \"lib/contracts-upgradeable/access/OwnableUpgradeable.sol\":1065:1091  __Ownable_init_unchained() */\n      tag_131\n        /* \"lib/contracts-upgradeable/access/OwnableUpgradeable.sol\":1065:1089  __Ownable_init_unchained */\n      tag_234\n        /* \"lib/contracts-upgradeable/access/OwnableUpgradeable.sol\":1065:1091  __Ownable_init_unchained() */\n      jump\t// in\n        /* \"lib/contracts-upgradeable/proxy/ERC1967/ERC1967UpgradeUpgradeable.sol\":1751:2032  function _setImplementation(address newImplementation) private {... */\n    tag_202:\n        /* \"lib/contracts-upgradeable/proxy/ERC1967/ERC1967UpgradeUpgradeable.sol\":1832:1880  AddressUpgradeable.isContract(newImplementation) */\n      tag_238\n        /* \"lib/contracts-upgradeable/proxy/ERC1967/ERC1967UpgradeUpgradeable.sol\":1862:1879  newImplementation */\n      dup2\n        /* \"lib/contracts-upgradeable/proxy/ERC1967/ERC1967UpgradeUpgradeable.sol\":1832:1861  AddressUpgradeable.isContract */\n      tag_138\n        /* \"lib/contracts-upgradeable/proxy/ERC1967/ERC1967UpgradeUpgradeable.sol\":1832:1880  AddressUpgradeable.isContract(newImplementation) */\n      jump\t// in\n    tag_238:\n        /* \"lib/contracts-upgradeable/proxy/ERC1967/ERC1967UpgradeUpgradeable.sol\":1824:1930  require(AddressUpgradeable.isContract(newImplementation), \"ERC1967: new implementation is not a contract\") */\n      tag_239\n      jumpi\n      mload(0x40)\n      shl(0xe5, 0x461bcd)\n      dup2\n      mstore\n        /* \"#utility.yul\":10588:10590   */\n      0x20\n        /* \"lib/contracts-upgradeable/proxy/ERC1967/ERC1967UpgradeUpgradeable.sol\":1824:1930  require(AddressUpgradeable.isContract(newImplementation), \"ERC1967: new implementation is not a contract\") */\n      0x04\n      dup3\n      add\n        /* \"#utility.yul\":10570:10591   */\n      mstore\n        /* \"#utility.yul\":10627:10629   */\n      0x2d\n        /* \"#utility.yul\":10607:10625   */\n      0x24\n      dup3\n      add\n        /* \"#utility.yul\":10600:10630   */\n      mstore\n        /* \"#utility.yul\":10666:10700   */\n      0x455243313936373a206e657720696d706c656d656e746174696f6e206973206e\n        /* \"#utility.yul\":10646:10664   */\n      0x44\n      dup3\n      add\n        /* \"#utility.yul\":10639:10701   */\n      mstore\n      shl(0x9a, 0x1bdd08184818dbdb9d1c9858dd)\n        /* \"#utility.yul\":10717:10735   */\n      0x64\n      dup3\n      add\n        /* \"#utility.yul\":10710:10753   */\n      mstore\n        /* \"#utility.yul\":10770:10789   */\n      0x84\n      add\n        /* \"lib/contracts-upgradeable/proxy/ERC1967/ERC1967UpgradeUpgradeable.sol\":1824:1930  require(AddressUpgradeable.isContract(newImplementation), \"ERC1967: new implementation is not a contract\") */\n      tag_92\n        /* \"#utility.yul\":10386:10795   */\n      jump\n        /* \"lib/contracts-upgradeable/proxy/ERC1967/ERC1967UpgradeUpgradeable.sol\":1824:1930  require(AddressUpgradeable.isContract(newImplementation), \"ERC1967: new implementation is not a contract\") */\n    tag_239:\n      0x00\n      dup1\n      mload\n      0x20\n      data_75b20eef8615de99c108b05f0dbda081c91897128caa336d75dffb97c4132b4d\n      dup4\n      codecopy\n      dup2\n      mload\n      swap2\n      mstore\n        /* \"lib/contracts-upgradeable/proxy/ERC1967/ERC1967UpgradeUpgradeable.sol\":1940:2025  StorageSlotUpgradeable.getAddressSlot(_IMPLEMENTATION_SLOT).value = newImplementation */\n      dup1\n      sload\n      not(sub(shl(0xa0, 0x01), 0x01))\n      and\n      sub(shl(0xa0, 0x01), 0x01)\n      swap3\n      swap1\n      swap3\n      and\n      swap2\n      swap1\n      swap2\n      or\n      swap1\n      sstore\n        /* \"lib/contracts-upgradeable/proxy/ERC1967/ERC1967UpgradeUpgradeable.sol\":1751:2032  function _setImplementation(address newImplementation) private {... */\n      jump\t// out\n        /* \"lib/contracts-upgradeable/proxy/ERC1967/ERC1967UpgradeUpgradeable.sol\":2424:2712  function _upgradeToAndCall(... */\n    tag_218:\n        /* \"lib/contracts-upgradeable/proxy/ERC1967/ERC1967UpgradeUpgradeable.sol\":2562:2591  _upgradeTo(newImplementation) */\n      tag_244\n        /* \"lib/contracts-upgradeable/proxy/ERC1967/ERC1967UpgradeUpgradeable.sol\":2573:2590  newImplementation */\n      dup4\n        /* \"lib/contracts-upgradeable/proxy/ERC1967/ERC1967UpgradeUpgradeable.sol\":2562:2572  _upgradeTo */\n      tag_245\n        /* \"lib/contracts-upgradeable/proxy/ERC1967/ERC1967UpgradeUpgradeable.sol\":2562:2591  _upgradeTo(newImplementation) */\n      jump\t// in\n    tag_244:\n        /* \"lib/contracts-upgradeable/proxy/ERC1967/ERC1967UpgradeUpgradeable.sol\":2619:2620  0 */\n      0x00\n        /* \"lib/contracts-upgradeable/proxy/ERC1967/ERC1967UpgradeUpgradeable.sol\":2605:2609  data */\n      dup3\n        /* \"lib/contracts-upgradeable/proxy/ERC1967/ERC1967UpgradeUpgradeable.sol\":2605:2616  data.length */\n      mload\n        /* \"lib/contracts-upgradeable/proxy/ERC1967/ERC1967UpgradeUpgradeable.sol\":2605:2620  data.length > 0 */\n      gt\n        /* \"lib/contracts-upgradeable/proxy/ERC1967/ERC1967UpgradeUpgradeable.sol\":2605:2633  data.length > 0 || forceCall */\n      dup1\n      tag_246\n      jumpi\n      pop\n        /* \"lib/contracts-upgradeable/proxy/ERC1967/ERC1967UpgradeUpgradeable.sol\":2624:2633  forceCall */\n      dup1\n        /* \"lib/contracts-upgradeable/proxy/ERC1967/ERC1967UpgradeUpgradeable.sol\":2605:2633  data.length > 0 || forceCall */\n    tag_246:\n        /* \"lib/contracts-upgradeable/proxy/ERC1967/ERC1967UpgradeUpgradeable.sol\":2601:2706  if (data.length > 0 || forceCall) {... */\n      iszero\n      tag_201\n      jumpi\n        /* \"lib/contracts-upgradeable/proxy/ERC1967/ERC1967UpgradeUpgradeable.sol\":2649:2695  _functionDelegateCall(newImplementation, data) */\n      tag_248\n        /* \"lib/contracts-upgradeable/proxy/ERC1967/ERC1967UpgradeUpgradeable.sol\":2671:2688  newImplementation */\n      dup4\n        /* \"lib/contracts-upgradeable/proxy/ERC1967/ERC1967UpgradeUpgradeable.sol\":2690:2694  data */\n      dup4\n        /* \"lib/contracts-upgradeable/proxy/ERC1967/ERC1967UpgradeUpgradeable.sol\":2649:2670  _functionDelegateCall */\n      tag_249\n        /* \"lib/contracts-upgradeable/proxy/ERC1967/ERC1967UpgradeUpgradeable.sol\":2649:2695  _functionDelegateCall(newImplementation, data) */\n      jump\t// in\n    tag_248:\n      pop\n        /* \"lib/contracts-upgradeable/proxy/ERC1967/ERC1967UpgradeUpgradeable.sol\":2424:2712  function _upgradeToAndCall(... */\n      pop\n      pop\n      pop\n      jump\t// out\n        /* \"lib/contracts-upgradeable/access/OwnableUpgradeable.sol\":1104:1215  function __Ownable_init_unchained() internal onlyInitializing {... */\n    tag_234:\n        /* \"lib/contracts-upgradeable/proxy/utils/Initializable.sol\":5363:5376  _initializing */\n      sload(0x00)\n      0x0100\n      swap1\n      div\n      0xff\n      and\n        /* \"lib/contracts-upgradeable/proxy/utils/Initializable.sol\":5355:5424  require(_initializing, \"Initializable: contract is not initializing\") */\n      tag_252\n      jumpi\n      mload(0x40)\n      shl(0xe5, 0x461bcd)\n      dup2\n      mstore\n      0x04\n      add\n      tag_92\n      swap1\n      tag_231\n      jump\t// in\n    tag_252:\n        /* \"lib/contracts-upgradeable/access/OwnableUpgradeable.sol\":1176:1208  _transferOwnership(_msgSender()) */\n      tag_131\n        /* \"lib/contracts-upgradeable/utils/ContextUpgradeable.sol\":929:939  msg.sender */\n      caller\n        /* \"lib/contracts-upgradeable/access/OwnableUpgradeable.sol\":1176:1194  _transferOwnership */\n      tag_132\n        /* \"lib/contracts-upgradeable/access/OwnableUpgradeable.sol\":1176:1208  _transferOwnership(_msgSender()) */\n      jump\t// in\n        /* \"lib/contracts-upgradeable/proxy/ERC1967/ERC1967UpgradeUpgradeable.sol\":2138:2290  function _upgradeTo(address newImplementation) internal {... */\n    tag_245:\n        /* \"lib/contracts-upgradeable/proxy/ERC1967/ERC1967UpgradeUpgradeable.sol\":2204:2241  _setImplementation(newImplementation) */\n      tag_258\n        /* \"lib/contracts-upgradeable/proxy/ERC1967/ERC1967UpgradeUpgradeable.sol\":2223:2240  newImplementation */\n      dup2\n        /* \"lib/contracts-upgradeable/proxy/ERC1967/ERC1967UpgradeUpgradeable.sol\":2204:2222  _setImplementation */\n      tag_202\n        /* \"lib/contracts-upgradeable/proxy/ERC1967/ERC1967UpgradeUpgradeable.sol\":2204:2241  _setImplementation(newImplementation) */\n      jump\t// in\n    tag_258:\n        /* \"lib/contracts-upgradeable/proxy/ERC1967/ERC1967UpgradeUpgradeable.sol\":2256:2283  Upgraded(newImplementation) */\n      mload(0x40)\n      sub(shl(0xa0, 0x01), 0x01)\n      dup3\n      and\n      swap1\n      0xbc7cd75a20ee27fd9adebab32041f755214dbc6bffa90cc0225b39da2e5c2d3b\n      swap1\n      0x00\n      swap1\n      log2\n        /* \"lib/contracts-upgradeable/proxy/ERC1967/ERC1967UpgradeUpgradeable.sol\":2138:2290  function _upgradeTo(address newImplementation) internal {... */\n      pop\n      jump\t// out\n        /* \"lib/contracts-upgradeable/proxy/ERC1967/ERC1967UpgradeUpgradeable.sol\":6780:7235  function _functionDelegateCall(address target, bytes memory data) private returns (bytes memory) {... */\n    tag_249:\n        /* \"lib/contracts-upgradeable/proxy/ERC1967/ERC1967UpgradeUpgradeable.sol\":6863:6875  bytes memory */\n      0x60\n        /* \"lib/contracts-upgradeable/proxy/ERC1967/ERC1967UpgradeUpgradeable.sol\":6895:6932  AddressUpgradeable.isContract(target) */\n      tag_260\n        /* \"lib/contracts-upgradeable/proxy/ERC1967/ERC1967UpgradeUpgradeable.sol\":6925:6931  target */\n      dup4\n        /* \"lib/contracts-upgradeable/proxy/ERC1967/ERC1967UpgradeUpgradeable.sol\":6895:6924  AddressUpgradeable.isContract */\n      tag_138\n        /* \"lib/contracts-upgradeable/proxy/ERC1967/ERC1967UpgradeUpgradeable.sol\":6895:6932  AddressUpgradeable.isContract(target) */\n      jump\t// in\n    tag_260:\n        /* \"lib/contracts-upgradeable/proxy/ERC1967/ERC1967UpgradeUpgradeable.sol\":6887:6975  require(AddressUpgradeable.isContract(target), \"Address: delegate call to non-contract\") */\n      tag_261\n      jumpi\n      mload(0x40)\n      shl(0xe5, 0x461bcd)\n      dup2\n      mstore\n        /* \"#utility.yul\":11002:11004   */\n      0x20\n        /* \"lib/contracts-upgradeable/proxy/ERC1967/ERC1967UpgradeUpgradeable.sol\":6887:6975  require(AddressUpgradeable.isContract(target), \"Address: delegate call to non-contract\") */\n      0x04\n      dup3\n      add\n        /* \"#utility.yul\":10984:11005   */\n      mstore\n        /* \"#utility.yul\":11041:11043   */\n      0x26\n        /* \"#utility.yul\":11021:11039   */\n      0x24\n      dup3\n      add\n        /* \"#utility.yul\":11014:11044   */\n      mstore\n        /* \"#utility.yul\":11080:11114   */\n      0x416464726573733a2064656c65676174652063616c6c20746f206e6f6e2d636f\n        /* \"#utility.yul\":11060:11078   */\n      0x44\n      dup3\n      add\n        /* \"#utility.yul\":11053:11115   */\n      mstore\n      shl(0xd2, 0x1b9d1c9858dd)\n        /* \"#utility.yul\":11131:11149   */\n      0x64\n      dup3\n      add\n        /* \"#utility.yul\":11124:11160   */\n      mstore\n        /* \"#utility.yul\":11177:11196   */\n      0x84\n      add\n        /* \"lib/contracts-upgradeable/proxy/ERC1967/ERC1967UpgradeUpgradeable.sol\":6887:6975  require(AddressUpgradeable.isContract(target), \"Address: delegate call to non-contract\") */\n      tag_92\n        /* \"#utility.yul\":10800:11202   */\n      jump\n        /* \"lib/contracts-upgradeable/proxy/ERC1967/ERC1967UpgradeUpgradeable.sol\":6887:6975  require(AddressUpgradeable.isContract(target), \"Address: delegate call to non-contract\") */\n    tag_261:\n        /* \"lib/contracts-upgradeable/proxy/ERC1967/ERC1967UpgradeUpgradeable.sol\":7046:7058  bool success */\n      0x00\n        /* \"lib/contracts-upgradeable/proxy/ERC1967/ERC1967UpgradeUpgradeable.sol\":7060:7083  bytes memory returndata */\n      dup1\n        /* \"lib/contracts-upgradeable/proxy/ERC1967/ERC1967UpgradeUpgradeable.sol\":7087:7093  target */\n      dup5\n      sub(shl(0xa0, 0x01), 0x01)\n        /* \"lib/contracts-upgradeable/proxy/ERC1967/ERC1967UpgradeUpgradeable.sol\":7087:7106  target.delegatecall */\n      and\n        /* \"lib/contracts-upgradeable/proxy/ERC1967/ERC1967UpgradeUpgradeable.sol\":7107:7111  data */\n      dup5\n        /* \"lib/contracts-upgradeable/proxy/ERC1967/ERC1967UpgradeUpgradeable.sol\":7087:7112  target.delegatecall(data) */\n      mload(0x40)\n      tag_264\n      swap2\n      swap1\n      tag_265\n      jump\t// in\n    tag_264:\n      0x00\n      mload(0x40)\n      dup1\n      dup4\n      sub\n      dup2\n      dup6\n      gas\n      delegatecall\n      swap2\n      pop\n      pop\n      returndatasize\n      dup1\n      0x00\n      dup2\n      eq\n      tag_268\n      jumpi\n      mload(0x40)\n      swap2\n      pop\n      and(add(returndatasize, 0x3f), not(0x1f))\n      dup3\n      add\n      0x40\n      mstore\n      returndatasize\n      dup3\n      mstore\n      returndatasize\n      0x00\n      0x20\n      dup5\n      add\n      returndatacopy\n      jump(tag_267)\n    tag_268:\n      0x60\n      swap2\n      pop\n    tag_267:\n      pop\n        /* \"lib/contracts-upgradeable/proxy/ERC1967/ERC1967UpgradeUpgradeable.sol\":7045:7112  (bool success, bytes memory returndata) = target.delegatecall(data) */\n      swap2\n      pop\n      swap2\n      pop\n        /* \"lib/contracts-upgradeable/proxy/ERC1967/ERC1967UpgradeUpgradeable.sol\":7129:7228  AddressUpgradeable.verifyCallResult(success, returndata, \"Address: low-level delegate call failed\") */\n      tag_269\n        /* \"lib/contracts-upgradeable/proxy/ERC1967/ERC1967UpgradeUpgradeable.sol\":7165:7172  success */\n      dup3\n        /* \"lib/contracts-upgradeable/proxy/ERC1967/ERC1967UpgradeUpgradeable.sol\":7174:7184  returndata */\n      dup3\n        /* \"lib/contracts-upgradeable/proxy/ERC1967/ERC1967UpgradeUpgradeable.sol\":7129:7228  AddressUpgradeable.verifyCallResult(success, returndata, \"Address: low-level delegate call failed\") */\n      mload(0x40)\n      dup1\n      0x60\n      add\n      0x40\n      mstore\n      dup1\n      0x27\n      dup2\n      mstore\n      0x20\n      add\n      data_9fdcd12e4b726339b32a442b0a448365d5d85c96b2d2cff917b4f66c63110398\n      0x27\n      swap2\n      codecopy\n        /* \"lib/contracts-upgradeable/proxy/ERC1967/ERC1967UpgradeUpgradeable.sol\":7129:7164  AddressUpgradeable.verifyCallResult */\n      tag_270\n        /* \"lib/contracts-upgradeable/proxy/ERC1967/ERC1967UpgradeUpgradeable.sol\":7129:7228  AddressUpgradeable.verifyCallResult(success, returndata, \"Address: low-level delegate call failed\") */\n      jump\t// in\n    tag_269:\n        /* \"lib/contracts-upgradeable/proxy/ERC1967/ERC1967UpgradeUpgradeable.sol\":7122:7228  return AddressUpgradeable.verifyCallResult(success, returndata, \"Address: low-level delegate call failed\") */\n      swap3\n      pop\n      pop\n      pop\n        /* \"lib/contracts-upgradeable/proxy/ERC1967/ERC1967UpgradeUpgradeable.sol\":6780:7235  function _functionDelegateCall(address target, bytes memory data) private returns (bytes memory) {... */\n    tag_259:\n      swap3\n      swap2\n      pop\n      pop\n      jump\t// out\n        /* \"lib/contracts-upgradeable/utils/AddressUpgradeable.sol\":7438:7733  function verifyCallResult(... */\n    tag_270:\n        /* \"lib/contracts-upgradeable/utils/AddressUpgradeable.sol\":7584:7596  bytes memory */\n      0x60\n        /* \"lib/contracts-upgradeable/utils/AddressUpgradeable.sol\":7612:7619  success */\n      dup4\n        /* \"lib/contracts-upgradeable/utils/AddressUpgradeable.sol\":7608:7727  if (success) {... */\n      iszero\n      tag_272\n      jumpi\n      pop\n        /* \"lib/contracts-upgradeable/utils/AddressUpgradeable.sol\":7642:7652  returndata */\n      dup2\n        /* \"lib/contracts-upgradeable/utils/AddressUpgradeable.sol\":7635:7652  return returndata */\n      jump(tag_274)\n        /* \"lib/contracts-upgradeable/utils/AddressUpgradeable.sol\":7608:7727  if (success) {... */\n    tag_272:\n        /* \"lib/contracts-upgradeable/utils/AddressUpgradeable.sol\":7683:7716  _revert(returndata, errorMessage) */\n      tag_274\n        /* \"lib/contracts-upgradeable/utils/AddressUpgradeable.sol\":7691:7701  returndata */\n      dup4\n        /* \"lib/contracts-upgradeable/utils/AddressUpgradeable.sol\":7703:7715  errorMessage */\n      dup4\n        /* \"lib/contracts-upgradeable/utils/AddressUpgradeable.sol\":7683:7690  _revert */\n      tag_275\n        /* \"lib/contracts-upgradeable/utils/AddressUpgradeable.sol\":7683:7716  _revert(returndata, errorMessage) */\n      jump\t// in\n    tag_274:\n        /* \"lib/contracts-upgradeable/utils/AddressUpgradeable.sol\":7438:7733  function verifyCallResult(... */\n      swap4\n      swap3\n      pop\n      pop\n      pop\n      jump\t// out\n        /* \"lib/contracts-upgradeable/utils/AddressUpgradeable.sol\":7739:8279  function _revert(bytes memory returndata, string memory errorMessage) private pure {... */\n    tag_275:\n        /* \"lib/contracts-upgradeable/utils/AddressUpgradeable.sol\":7898:7915  returndata.length */\n      dup2\n      mload\n        /* \"lib/contracts-upgradeable/utils/AddressUpgradeable.sol\":7898:7919  returndata.length > 0 */\n      iszero\n        /* \"lib/contracts-upgradeable/utils/AddressUpgradeable.sol\":7894:8273  if (returndata.length > 0) {... */\n      tag_277\n      jumpi\n        /* \"lib/contracts-upgradeable/utils/AddressUpgradeable.sol\":8126:8136  returndata */\n      dup2\n        /* \"lib/contracts-upgradeable/utils/AddressUpgradeable.sol\":8120:8137  mload(returndata) */\n      mload\n        /* \"lib/contracts-upgradeable/utils/AddressUpgradeable.sol\":8182:8197  returndata_size */\n      dup1\n        /* \"lib/contracts-upgradeable/utils/AddressUpgradeable.sol\":8169:8179  returndata */\n      dup4\n        /* \"lib/contracts-upgradeable/utils/AddressUpgradeable.sol\":8165:8167  32 */\n      0x20\n        /* \"lib/contracts-upgradeable/utils/AddressUpgradeable.sol\":8161:8180  add(32, returndata) */\n      add\n        /* \"lib/contracts-upgradeable/utils/AddressUpgradeable.sol\":8154:8198  revert(add(32, returndata), returndata_size) */\n      revert\n        /* \"lib/contracts-upgradeable/utils/AddressUpgradeable.sol\":7894:8273  if (returndata.length > 0) {... */\n    tag_277:\n        /* \"lib/contracts-upgradeable/utils/AddressUpgradeable.sol\":8249:8261  errorMessage */\n      dup1\n        /* \"lib/contracts-upgradeable/utils/AddressUpgradeable.sol\":8242:8262  revert(errorMessage) */\n      mload(0x40)\n      shl(0xe5, 0x461bcd)\n      dup2\n      mstore\n      0x04\n      add\n      tag_92\n      swap2\n      swap1\n      tag_280\n      jump\t// in\n        /* \"#utility.yul\":14:194   */\n    tag_20:\n        /* \"#utility.yul\":73:79   */\n      0x00\n        /* \"#utility.yul\":126:128   */\n      0x20\n        /* \"#utility.yul\":114:123   */\n      dup3\n        /* \"#utility.yul\":105:112   */\n      dup5\n        /* \"#utility.yul\":101:124   */\n      sub\n        /* \"#utility.yul\":97:129   */\n      slt\n        /* \"#utility.yul\":94:146   */\n      iszero\n      tag_288\n      jumpi\n        /* \"#utility.yul\":142:143   */\n      0x00\n        /* \"#utility.yul\":139:140   */\n      dup1\n        /* \"#utility.yul\":132:144   */\n      revert\n        /* \"#utility.yul\":94:146   */\n    tag_288:\n      pop\n        /* \"#utility.yul\":165:188   */\n      calldataload\n      swap2\n        /* \"#utility.yul\":14:194   */\n      swap1\n      pop\n      jump\t// out\n        /* \"#utility.yul\":621:752   */\n    tag_281:\n      sub(shl(0xa0, 0x01), 0x01)\n        /* \"#utility.yul\":696:727   */\n      dup2\n      and\n        /* \"#utility.yul\":686:728   */\n      dup2\n      eq\n        /* \"#utility.yul\":676:746   */\n      tag_102\n      jumpi\n        /* \"#utility.yul\":742:743   */\n      0x00\n        /* \"#utility.yul\":739:740   */\n      dup1\n        /* \"#utility.yul\":732:744   */\n      revert\n        /* \"#utility.yul\":757:1004   */\n    tag_27:\n        /* \"#utility.yul\":816:822   */\n      0x00\n        /* \"#utility.yul\":869:871   */\n      0x20\n        /* \"#utility.yul\":857:866   */\n      dup3\n        /* \"#utility.yul\":848:855   */\n      dup5\n        /* \"#utility.yul\":844:867   */\n      sub\n        /* \"#utility.yul\":840:872   */\n      slt\n        /* \"#utility.yul\":837:889   */\n      iszero\n      tag_293\n      jumpi\n        /* \"#utility.yul\":885:886   */\n      0x00\n        /* \"#utility.yul\":882:883   */\n      dup1\n        /* \"#utility.yul\":875:887   */\n      revert\n        /* \"#utility.yul\":837:889   */\n    tag_293:\n        /* \"#utility.yul\":924:933   */\n      dup2\n        /* \"#utility.yul\":911:934   */\n      calldataload\n        /* \"#utility.yul\":943:974   */\n      tag_274\n        /* \"#utility.yul\":968:973   */\n      dup2\n        /* \"#utility.yul\":943:974   */\n      tag_281\n      jump\t// in\n        /* \"#utility.yul\":1009:1136   */\n    tag_105:\n        /* \"#utility.yul\":1070:1080   */\n      0x4e487b71\n        /* \"#utility.yul\":1065:1068   */\n      0xe0\n        /* \"#utility.yul\":1061:1081   */\n      shl\n        /* \"#utility.yul\":1058:1059   */\n      0x00\n        /* \"#utility.yul\":1051:1082   */\n      mstore\n        /* \"#utility.yul\":1101:1105   */\n      0x41\n        /* \"#utility.yul\":1098:1099   */\n      0x04\n        /* \"#utility.yul\":1091:1106   */\n      mstore\n        /* \"#utility.yul\":1125:1129   */\n      0x24\n        /* \"#utility.yul\":1122:1123   */\n      0x00\n        /* \"#utility.yul\":1115:1130   */\n      revert\n        /* \"#utility.yul\":1141:1394   */\n    tag_282:\n        /* \"#utility.yul\":1213:1215   */\n      0x40\n        /* \"#utility.yul\":1207:1216   */\n      mload\n        /* \"#utility.yul\":1255:1259   */\n      0x80\n        /* \"#utility.yul\":1243:1260   */\n      dup2\n      add\n      sub(shl(0x40, 0x01), 0x01)\n        /* \"#utility.yul\":1275:1309   */\n      dup2\n      gt\n        /* \"#utility.yul\":1311:1333   */\n      dup3\n      dup3\n      lt\n        /* \"#utility.yul\":1272:1334   */\n      or\n        /* \"#utility.yul\":1269:1357   */\n      iszero\n      tag_298\n      jumpi\n        /* \"#utility.yul\":1337:1355   */\n      tag_298\n      tag_105\n      jump\t// in\n    tag_298:\n        /* \"#utility.yul\":1373:1375   */\n      0x40\n        /* \"#utility.yul\":1366:1388   */\n      mstore\n        /* \"#utility.yul\":1141:1394   */\n      swap1\n      jump\t// out\n        /* \"#utility.yul\":1399:1674   */\n    tag_283:\n        /* \"#utility.yul\":1470:1472   */\n      0x40\n        /* \"#utility.yul\":1464:1473   */\n      mload\n        /* \"#utility.yul\":1535:1537   */\n      0x1f\n        /* \"#utility.yul\":1516:1529   */\n      dup3\n      add\n      not(0x1f)\n        /* \"#utility.yul\":1512:1539   */\n      and\n        /* \"#utility.yul\":1500:1540   */\n      dup2\n      add\n      sub(shl(0x40, 0x01), 0x01)\n        /* \"#utility.yul\":1555:1589   */\n      dup2\n      gt\n        /* \"#utility.yul\":1591:1613   */\n      dup3\n      dup3\n      lt\n        /* \"#utility.yul\":1552:1614   */\n      or\n        /* \"#utility.yul\":1549:1637   */\n      iszero\n      tag_301\n      jumpi\n        /* \"#utility.yul\":1617:1635   */\n      tag_301\n      tag_105\n      jump\t// in\n    tag_301:\n        /* \"#utility.yul\":1653:1655   */\n      0x40\n        /* \"#utility.yul\":1646:1668   */\n      mstore\n        /* \"#utility.yul\":1399:1674   */\n      swap2\n      swap1\n      pop\n      jump\t// out\n        /* \"#utility.yul\":1679:2577   */\n    tag_36:\n        /* \"#utility.yul\":1756:1762   */\n      0x00\n        /* \"#utility.yul\":1764:1770   */\n      dup1\n        /* \"#utility.yul\":1817:1819   */\n      0x40\n        /* \"#utility.yul\":1805:1814   */\n      dup4\n        /* \"#utility.yul\":1796:1803   */\n      dup6\n        /* \"#utility.yul\":1792:1815   */\n      sub\n        /* \"#utility.yul\":1788:1820   */\n      slt\n        /* \"#utility.yul\":1785:1837   */\n      iszero\n      tag_303\n      jumpi\n        /* \"#utility.yul\":1833:1834   */\n      0x00\n        /* \"#utility.yul\":1830:1831   */\n      dup1\n        /* \"#utility.yul\":1823:1835   */\n      revert\n        /* \"#utility.yul\":1785:1837   */\n    tag_303:\n        /* \"#utility.yul\":1872:1881   */\n      dup3\n        /* \"#utility.yul\":1859:1882   */\n      calldataload\n        /* \"#utility.yul\":1891:1922   */\n      tag_304\n        /* \"#utility.yul\":1916:1921   */\n      dup2\n        /* \"#utility.yul\":1891:1922   */\n      tag_281\n      jump\t// in\n    tag_304:\n        /* \"#utility.yul\":1941:1946   */\n      swap2\n      pop\n        /* \"#utility.yul\":1965:1967   */\n      0x20\n        /* \"#utility.yul\":2003:2021   */\n      dup4\n      dup2\n      add\n        /* \"#utility.yul\":1990:2022   */\n      calldataload\n      sub(shl(0x40, 0x01), 0x01)\n        /* \"#utility.yul\":2071:2085   */\n      dup1\n      dup3\n      gt\n        /* \"#utility.yul\":2068:2102   */\n      iszero\n      tag_305\n      jumpi\n        /* \"#utility.yul\":2098:2099   */\n      0x00\n        /* \"#utility.yul\":2095:2096   */\n      dup1\n        /* \"#utility.yul\":2088:2100   */\n      revert\n        /* \"#utility.yul\":2068:2102   */\n    tag_305:\n        /* \"#utility.yul\":2136:2142   */\n      dup2\n        /* \"#utility.yul\":2125:2134   */\n      dup7\n        /* \"#utility.yul\":2121:2143   */\n      add\n        /* \"#utility.yul\":2111:2143   */\n      swap2\n      pop\n        /* \"#utility.yul\":2181:2188   */\n      dup7\n        /* \"#utility.yul\":2174:2178   */\n      0x1f\n        /* \"#utility.yul\":2170:2172   */\n      dup4\n        /* \"#utility.yul\":2166:2179   */\n      add\n        /* \"#utility.yul\":2162:2189   */\n      slt\n        /* \"#utility.yul\":2152:2207   */\n      tag_306\n      jumpi\n        /* \"#utility.yul\":2203:2204   */\n      0x00\n        /* \"#utility.yul\":2200:2201   */\n      dup1\n        /* \"#utility.yul\":2193:2205   */\n      revert\n        /* \"#utility.yul\":2152:2207   */\n    tag_306:\n        /* \"#utility.yul\":2239:2241   */\n      dup2\n        /* \"#utility.yul\":2226:2242   */\n      calldataload\n        /* \"#utility.yul\":2261:2263   */\n      dup2\n        /* \"#utility.yul\":2257:2259   */\n      dup2\n        /* \"#utility.yul\":2254:2264   */\n      gt\n        /* \"#utility.yul\":2251:2287   */\n      iszero\n      tag_308\n      jumpi\n        /* \"#utility.yul\":2267:2285   */\n      tag_308\n      tag_105\n      jump\t// in\n    tag_308:\n        /* \"#utility.yul\":2309:2362   */\n      tag_309\n        /* \"#utility.yul\":2352:2354   */\n      0x1f\n        /* \"#utility.yul\":2333:2346   */\n      dup3\n      add\n      not(0x1f)\n        /* \"#utility.yul\":2329:2356   */\n      and\n        /* \"#utility.yul\":2325:2361   */\n      dup6\n      add\n        /* \"#utility.yul\":2309:2362   */\n      tag_283\n      jump\t// in\n    tag_309:\n        /* \"#utility.yul\":2296:2362   */\n      swap2\n      pop\n        /* \"#utility.yul\":2385:2387   */\n      dup1\n        /* \"#utility.yul\":2378:2383   */\n      dup3\n        /* \"#utility.yul\":2371:2388   */\n      mstore\n        /* \"#utility.yul\":2425:2432   */\n      dup8\n        /* \"#utility.yul\":2420:2422   */\n      dup5\n        /* \"#utility.yul\":2415:2417   */\n      dup3\n        /* \"#utility.yul\":2411:2413   */\n      dup6\n        /* \"#utility.yul\":2407:2418   */\n      add\n        /* \"#utility.yul\":2403:2423   */\n      add\n        /* \"#utility.yul\":2400:2433   */\n      gt\n        /* \"#utility.yul\":2397:2450   */\n      iszero\n      tag_310\n      jumpi\n        /* \"#utility.yul\":2446:2447   */\n      0x00\n        /* \"#utility.yul\":2443:2444   */\n      dup1\n        /* \"#utility.yul\":2436:2448   */\n      revert\n        /* \"#utility.yul\":2397:2450   */\n    tag_310:\n        /* \"#utility.yul\":2501:2503   */\n      dup1\n        /* \"#utility.yul\":2496:2498   */\n      dup5\n        /* \"#utility.yul\":2492:2494   */\n      dup5\n        /* \"#utility.yul\":2488:2499   */\n      add\n        /* \"#utility.yul\":2483:2485   */\n      dup6\n        /* \"#utility.yul\":2476:2481   */\n      dup5\n        /* \"#utility.yul\":2472:2486   */\n      add\n        /* \"#utility.yul\":2459:2504   */\n      calldatacopy\n        /* \"#utility.yul\":2545:2546   */\n      0x00\n        /* \"#utility.yul\":2540:2542   */\n      dup5\n        /* \"#utility.yul\":2535:2537   */\n      dup3\n        /* \"#utility.yul\":2528:2533   */\n      dup5\n        /* \"#utility.yul\":2524:2538   */\n      add\n        /* \"#utility.yul\":2520:2543   */\n      add\n        /* \"#utility.yul\":2513:2547   */\n      mstore\n      pop\n        /* \"#utility.yul\":2566:2571   */\n      dup1\n        /* \"#utility.yul\":2556:2571   */\n      swap4\n      pop\n      pop\n      pop\n      pop\n        /* \"#utility.yul\":1679:2577   */\n      swap3\n      pop\n      swap3\n      swap1\n      pop\n      jump\t// out\n        /* \"#utility.yul\":2972:3220   */\n    tag_71:\n        /* \"#utility.yul\":3040:3046   */\n      0x00\n        /* \"#utility.yul\":3048:3054   */\n      dup1\n        /* \"#utility.yul\":3101:3103   */\n      0x40\n        /* \"#utility.yul\":3089:3098   */\n      dup4\n        /* \"#utility.yul\":3080:3087   */\n      dup6\n        /* \"#utility.yul\":3076:3099   */\n      sub\n        /* \"#utility.yul\":3072:3104   */\n      slt\n        /* \"#utility.yul\":3069:3121   */\n      iszero\n      tag_314\n      jumpi\n        /* \"#utility.yul\":3117:3118   */\n      0x00\n        /* \"#utility.yul\":3114:3115   */\n      dup1\n        /* \"#utility.yul\":3107:3119   */\n      revert\n        /* \"#utility.yul\":3069:3121   */\n    tag_314:\n      pop\n      pop\n        /* \"#utility.yul\":3140:3163   */\n      dup1\n      calldataload\n      swap3\n        /* \"#utility.yul\":3210:3212   */\n      0x20\n        /* \"#utility.yul\":3195:3213   */\n      swap1\n      swap2\n      add\n        /* \"#utility.yul\":3182:3214   */\n      calldataload\n      swap2\n      pop\n        /* \"#utility.yul\":2972:3220   */\n      jump\t// out\n        /* \"#utility.yul\":3225:4184   */\n    tag_74:\n        /* \"#utility.yul\":3456:3458   */\n      0x20\n        /* \"#utility.yul\":3508:3529   */\n      dup1\n      dup3\n      mstore\n        /* \"#utility.yul\":3578:3591   */\n      dup3\n      mload\n        /* \"#utility.yul\":3481:3499   */\n      dup3\n      dup3\n      add\n        /* \"#utility.yul\":3600:3622   */\n      dup2\n      swap1\n      mstore\n        /* \"#utility.yul\":3427:3431   */\n      0x00\n      swap2\n        /* \"#utility.yul\":3456:3458   */\n      swap1\n        /* \"#utility.yul\":3641:3643   */\n      0x40\n      swap1\n        /* \"#utility.yul\":3659:3677   */\n      dup2\n      dup6\n      add\n      swap1\n        /* \"#utility.yul\":3700:3715   */\n      dup7\n      dup5\n      add\n        /* \"#utility.yul\":3427:3431   */\n      dup6\n        /* \"#utility.yul\":3743:4158   */\n    tag_316:\n        /* \"#utility.yul\":3757:3763   */\n      dup3\n        /* \"#utility.yul\":3754:3755   */\n      dup2\n        /* \"#utility.yul\":3751:3764   */\n      lt\n        /* \"#utility.yul\":3743:4158   */\n      iszero\n      tag_318\n      jumpi\n        /* \"#utility.yul\":3816:3829   */\n      dup2\n      mload\n        /* \"#utility.yul\":3858:3867   */\n      dup1\n      mload\n      sub(shl(0xa0, 0x01), 0x01)\n        /* \"#utility.yul\":3854:3889   */\n      and\n        /* \"#utility.yul\":3842:3890   */\n      dup6\n      mstore\n        /* \"#utility.yul\":3930:3941   */\n      dup7\n      dup2\n      add\n        /* \"#utility.yul\":3924:3942   */\n      mload\n        /* \"#utility.yul\":3910:3922   */\n      dup8\n      dup7\n      add\n        /* \"#utility.yul\":3903:3943   */\n      mstore\n        /* \"#utility.yul\":3983:3994   */\n      dup6\n      dup2\n      add\n        /* \"#utility.yul\":3977:3995   */\n      mload\n        /* \"#utility.yul\":3963:3975   */\n      dup7\n      dup7\n      add\n        /* \"#utility.yul\":3956:3996   */\n      mstore\n        /* \"#utility.yul\":4019:4023   */\n      0x60\n        /* \"#utility.yul\":4063:4074   */\n      swap1\n      dup2\n      add\n        /* \"#utility.yul\":4057:4075   */\n      mload\n        /* \"#utility.yul\":4043:4055   */\n      swap1\n      dup6\n      add\n        /* \"#utility.yul\":4036:4076   */\n      mstore\n        /* \"#utility.yul\":4105:4109   */\n      0x80\n        /* \"#utility.yul\":4096:4110   */\n      swap1\n      swap4\n      add\n      swap3\n        /* \"#utility.yul\":4133:4148   */\n      swap1\n      dup6\n      add\n      swap1\n        /* \"#utility.yul\":3886:3887   */\n      0x01\n        /* \"#utility.yul\":3772:3781   */\n      add\n        /* \"#utility.yul\":3743:4158   */\n      jump(tag_316)\n    tag_318:\n      pop\n        /* \"#utility.yul\":4175:4178   */\n      swap2\n      swap8\n        /* \"#utility.yul\":3225:4184   */\n      swap7\n      pop\n      pop\n      pop\n      pop\n      pop\n      pop\n      pop\n      jump\t// out\n        /* \"#utility.yul\":4189:4597   */\n    tag_93:\n        /* \"#utility.yul\":4391:4393   */\n      0x20\n        /* \"#utility.yul\":4373:4394   */\n      dup1\n      dup3\n      mstore\n        /* \"#utility.yul\":4430:4432   */\n      0x2c\n        /* \"#utility.yul\":4410:4428   */\n      swap1\n      dup3\n      add\n        /* \"#utility.yul\":4403:4433   */\n      mstore\n      0x00\n      dup1\n      mload\n      0x20\n      data_662a7ba1d8fb60beff3d02117181416eb800676fa4d6f1ebc4c3fea5cd79ec88\n      dup4\n      codecopy\n      dup2\n      mload\n      swap2\n      mstore\n        /* \"#utility.yul\":4464:4466   */\n      0x40\n        /* \"#utility.yul\":4449:4467   */\n      dup3\n      add\n        /* \"#utility.yul\":4442:4504   */\n      mstore\n      shl(0xa2, 0x19195b1959d85d1958d85b1b)\n        /* \"#utility.yul\":4535:4537   */\n      0x60\n        /* \"#utility.yul\":4520:4538   */\n      dup3\n      add\n        /* \"#utility.yul\":4513:4555   */\n      mstore\n        /* \"#utility.yul\":4587:4590   */\n      0x80\n        /* \"#utility.yul\":4572:4591   */\n      add\n      swap1\n        /* \"#utility.yul\":4189:4597   */\n      jump\t// out\n        /* \"#utility.yul\":4602:5010   */\n    tag_98:\n        /* \"#utility.yul\":4804:4806   */\n      0x20\n        /* \"#utility.yul\":4786:4807   */\n      dup1\n      dup3\n      mstore\n        /* \"#utility.yul\":4843:4845   */\n      0x2c\n        /* \"#utility.yul\":4823:4841   */\n      swap1\n      dup3\n      add\n        /* \"#utility.yul\":4816:4846   */\n      mstore\n      0x00\n      dup1\n      mload\n      0x20\n      data_662a7ba1d8fb60beff3d02117181416eb800676fa4d6f1ebc4c3fea5cd79ec88\n      dup4\n      codecopy\n      dup2\n      mload\n      swap2\n      mstore\n        /* \"#utility.yul\":4877:4879   */\n      0x40\n        /* \"#utility.yul\":4862:4880   */\n      dup3\n      add\n        /* \"#utility.yul\":4855:4917   */\n      mstore\n      shl(0xa0, 0x6163746976652070726f7879)\n        /* \"#utility.yul\":4948:4950   */\n      0x60\n        /* \"#utility.yul\":4933:4951   */\n      dup3\n      add\n        /* \"#utility.yul\":4926:4968   */\n      mstore\n        /* \"#utility.yul\":5000:5003   */\n      0x80\n        /* \"#utility.yul\":4985:5004   */\n      add\n      swap1\n        /* \"#utility.yul\":4602:5010   */\n      jump\t// out\n        /* \"#utility.yul\":6054:7520   */\n    tag_156:\n        /* \"#utility.yul\":6179:6185   */\n      0x00\n        /* \"#utility.yul\":6210:6212   */\n      0x20\n        /* \"#utility.yul\":6253:6255   */\n      dup1\n        /* \"#utility.yul\":6241:6250   */\n      dup4\n        /* \"#utility.yul\":6232:6239   */\n      dup6\n        /* \"#utility.yul\":6228:6251   */\n      sub\n        /* \"#utility.yul\":6224:6256   */\n      slt\n        /* \"#utility.yul\":6221:6273   */\n      iszero\n      tag_325\n      jumpi\n        /* \"#utility.yul\":6269:6270   */\n      0x00\n        /* \"#utility.yul\":6266:6267   */\n      dup1\n        /* \"#utility.yul\":6259:6271   */\n      revert\n        /* \"#utility.yul\":6221:6273   */\n    tag_325:\n        /* \"#utility.yul\":6296:6312   */\n      dup3\n      mload\n      sub(shl(0x40, 0x01), 0x01)\n        /* \"#utility.yul\":6361:6375   */\n      dup1\n      dup3\n      gt\n        /* \"#utility.yul\":6358:6392   */\n      iszero\n      tag_326\n      jumpi\n        /* \"#utility.yul\":6388:6389   */\n      0x00\n        /* \"#utility.yul\":6385:6386   */\n      dup1\n        /* \"#utility.yul\":6378:6390   */\n      revert\n        /* \"#utility.yul\":6358:6392   */\n    tag_326:\n        /* \"#utility.yul\":6426:6432   */\n      dup2\n        /* \"#utility.yul\":6415:6424   */\n      dup6\n        /* \"#utility.yul\":6411:6433   */\n      add\n        /* \"#utility.yul\":6401:6433   */\n      swap2\n      pop\n        /* \"#utility.yul\":6471:6478   */\n      dup6\n        /* \"#utility.yul\":6464:6468   */\n      0x1f\n        /* \"#utility.yul\":6460:6462   */\n      dup4\n        /* \"#utility.yul\":6456:6469   */\n      add\n        /* \"#utility.yul\":6452:6479   */\n      slt\n        /* \"#utility.yul\":6442:6497   */\n      tag_327\n      jumpi\n        /* \"#utility.yul\":6493:6494   */\n      0x00\n        /* \"#utility.yul\":6490:6491   */\n      dup1\n        /* \"#utility.yul\":6483:6495   */\n      revert\n        /* \"#utility.yul\":6442:6497   */\n    tag_327:\n        /* \"#utility.yul\":6522:6524   */\n      dup2\n        /* \"#utility.yul\":6516:6525   */\n      mload\n        /* \"#utility.yul\":6544:6546   */\n      dup2\n        /* \"#utility.yul\":6540:6542   */\n      dup2\n        /* \"#utility.yul\":6537:6547   */\n      gt\n        /* \"#utility.yul\":6534:6570   */\n      iszero\n      tag_329\n      jumpi\n        /* \"#utility.yul\":6550:6568   */\n      tag_329\n      tag_105\n      jump\t// in\n    tag_329:\n        /* \"#utility.yul\":6590:6626   */\n      tag_330\n        /* \"#utility.yul\":6622:6624   */\n      dup5\n        /* \"#utility.yul\":6617:6619   */\n      dup3\n        /* \"#utility.yul\":6614:6615   */\n      0x05\n        /* \"#utility.yul\":6610:6620   */\n      shl\n        /* \"#utility.yul\":6606:6625   */\n      add\n        /* \"#utility.yul\":6590:6626   */\n      tag_283\n      jump\t// in\n    tag_330:\n        /* \"#utility.yul\":6660:6675   */\n      dup2\n      dup2\n      mstore\n        /* \"#utility.yul\":6691:6703   */\n      dup5\n      dup2\n      add\n      swap3\n      pop\n        /* \"#utility.yul\":6742:6743   */\n      0x07\n        /* \"#utility.yul\":6738:6748   */\n      swap2\n      swap1\n      swap2\n      shl\n        /* \"#utility.yul\":6730:6749   */\n      dup4\n      add\n        /* \"#utility.yul\":6726:6754   */\n      dup5\n      add\n      swap1\n        /* \"#utility.yul\":6766:6785   */\n      dup8\n      dup3\n      gt\n        /* \"#utility.yul\":6763:6802   */\n      iszero\n      tag_331\n      jumpi\n        /* \"#utility.yul\":6798:6799   */\n      0x00\n        /* \"#utility.yul\":6795:6796   */\n      dup1\n        /* \"#utility.yul\":6788:6800   */\n      revert\n        /* \"#utility.yul\":6763:6802   */\n    tag_331:\n        /* \"#utility.yul\":6822:6833   */\n      swap3\n      dup5\n      add\n      swap3\n        /* \"#utility.yul\":6842:7490   */\n    tag_332:\n        /* \"#utility.yul\":6858:6864   */\n      dup2\n        /* \"#utility.yul\":6853:6856   */\n      dup5\n        /* \"#utility.yul\":6850:6865   */\n      lt\n        /* \"#utility.yul\":6842:7490   */\n      iszero\n      tag_334\n      jumpi\n        /* \"#utility.yul\":6940:6944   */\n      0x80\n        /* \"#utility.yul\":6934:6937   */\n      dup5\n        /* \"#utility.yul\":6925:6932   */\n      dup10\n        /* \"#utility.yul\":6921:6938   */\n      sub\n        /* \"#utility.yul\":6917:6945   */\n      slt\n        /* \"#utility.yul\":6914:7032   */\n      iszero\n      tag_335\n      jumpi\n        /* \"#utility.yul\":6986:6987   */\n      0x00\n        /* \"#utility.yul\":7015:7017   */\n      dup1\n        /* \"#utility.yul\":7011:7013   */\n      dup2\n        /* \"#utility.yul\":7004:7018   */\n      revert\n        /* \"#utility.yul\":6914:7032   */\n    tag_335:\n        /* \"#utility.yul\":7058:7080   */\n      tag_336\n      tag_282\n      jump\t// in\n    tag_336:\n        /* \"#utility.yul\":7114:7117   */\n      dup5\n        /* \"#utility.yul\":7108:7118   */\n      mload\n        /* \"#utility.yul\":7131:7164   */\n      tag_337\n        /* \"#utility.yul\":7156:7163   */\n      dup2\n        /* \"#utility.yul\":7131:7164   */\n      tag_281\n      jump\t// in\n    tag_337:\n        /* \"#utility.yul\":7177:7199   */\n      dup2\n      mstore\n        /* \"#utility.yul\":7241:7253   */\n      dup5\n      dup7\n      add\n        /* \"#utility.yul\":7235:7254   */\n      mload\n        /* \"#utility.yul\":7219:7233   */\n      dup7\n      dup3\n      add\n        /* \"#utility.yul\":7212:7255   */\n      mstore\n        /* \"#utility.yul\":7278:7280   */\n      0x40\n        /* \"#utility.yul\":7322:7334   */\n      dup1\n      dup7\n      add\n        /* \"#utility.yul\":7316:7335   */\n      mload\n        /* \"#utility.yul\":7300:7314   */\n      swap1\n      dup3\n      add\n        /* \"#utility.yul\":7293:7336   */\n      mstore\n        /* \"#utility.yul\":7359:7361   */\n      0x60\n        /* \"#utility.yul\":7403:7415   */\n      dup1\n      dup7\n      add\n        /* \"#utility.yul\":7397:7416   */\n      mload\n        /* \"#utility.yul\":7381:7395   */\n      swap1\n      dup3\n      add\n        /* \"#utility.yul\":7374:7417   */\n      mstore\n        /* \"#utility.yul\":7430:7448   */\n      dup4\n      mstore\n        /* \"#utility.yul\":6884:6888   */\n      0x80\n        /* \"#utility.yul\":6875:6889   */\n      swap1\n      swap4\n      add\n      swap3\n        /* \"#utility.yul\":7468:7480   */\n      swap2\n      dup5\n      add\n      swap2\n        /* \"#utility.yul\":6842:7490   */\n      jump(tag_332)\n    tag_334:\n        /* \"#utility.yul\":7509:7514   */\n      swap8\n        /* \"#utility.yul\":6054:7520   */\n      swap7\n      pop\n      pop\n      pop\n      pop\n      pop\n      pop\n      pop\n      jump\t// out\n        /* \"#utility.yul\":7525:7652   */\n    tag_284:\n        /* \"#utility.yul\":7586:7596   */\n      0x4e487b71\n        /* \"#utility.yul\":7581:7584   */\n      0xe0\n        /* \"#utility.yul\":7577:7597   */\n      shl\n        /* \"#utility.yul\":7574:7575   */\n      0x00\n        /* \"#utility.yul\":7567:7598   */\n      mstore\n        /* \"#utility.yul\":7617:7621   */\n      0x11\n        /* \"#utility.yul\":7614:7615   */\n      0x04\n        /* \"#utility.yul\":7607:7622   */\n      mstore\n        /* \"#utility.yul\":7641:7645   */\n      0x24\n        /* \"#utility.yul\":7638:7639   */\n      0x00\n        /* \"#utility.yul\":7631:7646   */\n      revert\n        /* \"#utility.yul\":7657:7785   */\n    tag_158:\n        /* \"#utility.yul\":7724:7733   */\n      dup2\n      dup2\n      sub\n        /* \"#utility.yul\":7745:7756   */\n      dup2\n      dup2\n      gt\n        /* \"#utility.yul\":7742:7779   */\n      iszero\n      tag_259\n      jumpi\n        /* \"#utility.yul\":7759:7777   */\n      tag_259\n      tag_284\n      jump\t// in\n        /* \"#utility.yul\":7790:7915   */\n    tag_160:\n        /* \"#utility.yul\":7855:7864   */\n      dup1\n      dup3\n      add\n        /* \"#utility.yul\":7876:7886   */\n      dup1\n      dup3\n      gt\n        /* \"#utility.yul\":7873:7909   */\n      iszero\n      tag_259\n      jumpi\n        /* \"#utility.yul\":7889:7907   */\n      tag_259\n      tag_284\n      jump\t// in\n        /* \"#utility.yul\":7920:8047   */\n    tag_173:\n        /* \"#utility.yul\":7981:7991   */\n      0x4e487b71\n        /* \"#utility.yul\":7976:7979   */\n      0xe0\n        /* \"#utility.yul\":7972:7992   */\n      shl\n        /* \"#utility.yul\":7969:7970   */\n      0x00\n        /* \"#utility.yul\":7962:7993   */\n      mstore\n        /* \"#utility.yul\":8012:8016   */\n      0x32\n        /* \"#utility.yul\":8009:8010   */\n      0x04\n        /* \"#utility.yul\":8002:8017   */\n      mstore\n        /* \"#utility.yul\":8036:8040   */\n      0x24\n        /* \"#utility.yul\":8033:8034   */\n      0x00\n        /* \"#utility.yul\":8026:8041   */\n      revert\n        /* \"#utility.yul\":8052:8187   */\n    tag_177:\n        /* \"#utility.yul\":8091:8094   */\n      0x00\n        /* \"#utility.yul\":8112:8129   */\n      0x01\n      dup3\n      add\n        /* \"#utility.yul\":8109:8152   */\n      tag_348\n      jumpi\n        /* \"#utility.yul\":8132:8150   */\n      tag_348\n      tag_284\n      jump\t// in\n    tag_348:\n      pop\n        /* \"#utility.yul\":8179:8180   */\n      0x01\n        /* \"#utility.yul\":8168:8181   */\n      add\n      swap1\n        /* \"#utility.yul\":8052:8187   */\n      jump\t// out\n        /* \"#utility.yul\":8599:8783   */\n    tag_206:\n        /* \"#utility.yul\":8669:8675   */\n      0x00\n        /* \"#utility.yul\":8722:8724   */\n      0x20\n        /* \"#utility.yul\":8710:8719   */\n      dup3\n        /* \"#utility.yul\":8701:8708   */\n      dup5\n        /* \"#utility.yul\":8697:8720   */\n      sub\n        /* \"#utility.yul\":8693:8725   */\n      slt\n        /* \"#utility.yul\":8690:8742   */\n      iszero\n      tag_351\n      jumpi\n        /* \"#utility.yul\":8738:8739   */\n      0x00\n        /* \"#utility.yul\":8735:8736   */\n      dup1\n        /* \"#utility.yul\":8728:8740   */\n      revert\n        /* \"#utility.yul\":8690:8742   */\n    tag_351:\n      pop\n        /* \"#utility.yul\":8761:8777   */\n      mload\n      swap2\n        /* \"#utility.yul\":8599:8783   */\n      swap1\n      pop\n      jump\t// out\n        /* \"#utility.yul\":9974:10381   */\n    tag_231:\n        /* \"#utility.yul\":10176:10178   */\n      0x20\n        /* \"#utility.yul\":10158:10179   */\n      dup1\n      dup3\n      mstore\n        /* \"#utility.yul\":10215:10217   */\n      0x2b\n        /* \"#utility.yul\":10195:10213   */\n      swap1\n      dup3\n      add\n        /* \"#utility.yul\":10188:10218   */\n      mstore\n        /* \"#utility.yul\":10254:10288   */\n      0x496e697469616c697a61626c653a20636f6e7472616374206973206e6f742069\n        /* \"#utility.yul\":10249:10251   */\n      0x40\n        /* \"#utility.yul\":10234:10252   */\n      dup3\n      add\n        /* \"#utility.yul\":10227:10289   */\n      mstore\n      shl(0xa8, 0x6e697469616c697a696e67)\n        /* \"#utility.yul\":10320:10322   */\n      0x60\n        /* \"#utility.yul\":10305:10323   */\n      dup3\n      add\n        /* \"#utility.yul\":10298:10339   */\n      mstore\n        /* \"#utility.yul\":10371:10374   */\n      0x80\n        /* \"#utility.yul\":10356:10375   */\n      add\n      swap1\n        /* \"#utility.yul\":9974:10381   */\n      jump\t// out\n        /* \"#utility.yul\":11207:11457   */\n    tag_285:\n        /* \"#utility.yul\":11292:11293   */\n      0x00\n        /* \"#utility.yul\":11302:11415   */\n    tag_359:\n        /* \"#utility.yul\":11316:11322   */\n      dup4\n        /* \"#utility.yul\":11313:11314   */\n      dup2\n        /* \"#utility.yul\":11310:11323   */\n      lt\n        /* \"#utility.yul\":11302:11415   */\n      iszero\n      tag_361\n      jumpi\n        /* \"#utility.yul\":11392:11403   */\n      dup2\n      dup2\n      add\n        /* \"#utility.yul\":11386:11404   */\n      mload\n        /* \"#utility.yul\":11373:11384   */\n      dup4\n      dup3\n      add\n        /* \"#utility.yul\":11366:11405   */\n      mstore\n        /* \"#utility.yul\":11338:11340   */\n      0x20\n        /* \"#utility.yul\":11331:11341   */\n      add\n        /* \"#utility.yul\":11302:11415   */\n      jump(tag_359)\n    tag_361:\n      pop\n      pop\n        /* \"#utility.yul\":11449:11450   */\n      0x00\n        /* \"#utility.yul\":11431:11447   */\n      swap2\n      add\n        /* \"#utility.yul\":11424:11451   */\n      mstore\n        /* \"#utility.yul\":11207:11457   */\n      jump\t// out\n        /* \"#utility.yul\":11462:11749   */\n    tag_265:\n        /* \"#utility.yul\":11591:11594   */\n      0x00\n        /* \"#utility.yul\":11629:11635   */\n      dup3\n        /* \"#utility.yul\":11623:11636   */\n      mload\n        /* \"#utility.yul\":11645:11711   */\n      tag_363\n        /* \"#utility.yul\":11704:11710   */\n      dup2\n        /* \"#utility.yul\":11699:11702   */\n      dup5\n        /* \"#utility.yul\":11692:11696   */\n      0x20\n        /* \"#utility.yul\":11684:11690   */\n      dup8\n        /* \"#utility.yul\":11680:11697   */\n      add\n        /* \"#utility.yul\":11645:11711   */\n      tag_285\n      jump\t// in\n    tag_363:\n        /* \"#utility.yul\":11727:11743   */\n      swap2\n      swap1\n      swap2\n      add\n      swap3\n        /* \"#utility.yul\":11462:11749   */\n      swap2\n      pop\n      pop\n      jump\t// out\n        /* \"#utility.yul\":11754:12150   */\n    tag_280:\n        /* \"#utility.yul\":11903:11905   */\n      0x20\n        /* \"#utility.yul\":11892:11901   */\n      dup2\n        /* \"#utility.yul\":11885:11906   */\n      mstore\n        /* \"#utility.yul\":11866:11870   */\n      0x00\n        /* \"#utility.yul\":11935:11941   */\n      dup3\n        /* \"#utility.yul\":11929:11942   */\n      mload\n        /* \"#utility.yul\":11978:11984   */\n      dup1\n        /* \"#utility.yul\":11973:11975   */\n      0x20\n        /* \"#utility.yul\":11962:11971   */\n      dup5\n        /* \"#utility.yul\":11958:11976   */\n      add\n        /* \"#utility.yul\":11951:11985   */\n      mstore\n        /* \"#utility.yul\":11994:12073   */\n      tag_365\n        /* \"#utility.yul\":12066:12072   */\n      dup2\n        /* \"#utility.yul\":12061:12063   */\n      0x40\n        /* \"#utility.yul\":12050:12059   */\n      dup6\n        /* \"#utility.yul\":12046:12064   */\n      add\n        /* \"#utility.yul\":12041:12043   */\n      0x20\n        /* \"#utility.yul\":12033:12039   */\n      dup8\n        /* \"#utility.yul\":12029:12044   */\n      add\n        /* \"#utility.yul\":11994:12073   */\n      tag_285\n      jump\t// in\n    tag_365:\n        /* \"#utility.yul\":12134:12136   */\n      0x1f\n        /* \"#utility.yul\":12113:12128   */\n      add\n      not(0x1f)\n        /* \"#utility.yul\":12109:12138   */\n      and\n        /* \"#utility.yul\":12094:12139   */\n      swap2\n      swap1\n      swap2\n      add\n        /* \"#utility.yul\":12141:12143   */\n      0x40\n        /* \"#utility.yul\":12090:12144   */\n      add\n      swap3\n        /* \"#utility.yul\":11754:12150   */\n      swap2\n      pop\n      pop\n      jump\t// out\n    stop\n    data_662a7ba1d8fb60beff3d02117181416eb800676fa4d6f1ebc4c3fea5cd79ec88 46756e6374696f6e206d7573742062652063616c6c6564207468726f75676820\n    data_75b20eef8615de99c108b05f0dbda081c91897128caa336d75dffb97c4132b4d 360894a13ba1a3210667c828492db98dca3e2076cc3735a920a3ca505d382bbc\n    data_9fdcd12e4b726339b32a442b0a448365d5d85c96b2d2cff917b4f66c63110398 416464726573733a206c6f772d6c6576656c2064656c65676174652063616c6c206661696c6564\n\n    auxdata: 0xa2646970667358221220028a6ac9394f654610242098198cd8f1fbd5c8284d0e1d452ac86b5add9da8fc64736f6c63430008140033\n}\n",
				"bytecode": {
					"linkReferences": {},
					"object": "60a060405230608052348015610013575f80fd5b506080516113256100485f395f81816103040152818161034d015281816103e301528181610423015261049e01526113255ff3fe6080604052600436106100b7575f3560e01c806308e277c1146100bb5780633659cfe6146101095780634469ed131461012a5780634f1ef2861461014957806352d1902d1461015c578063661a56141461017e578063715018a61461019d5780638a1e0a17146101b15780638da5cb5b146101e8578063c4d66de8146101fc578063cb82ab191461021b578063d05a38d71461023a578063f2782d6d14610266578063f2fde38b14610285578063f64387a7146102a4575b5f80fd5b3480156100c6575f80fd5b506100da6100d5366004610e1d565b6102b8565b604080516001600160a01b03909516855260208501939093529183015260608201526080015b60405180910390f35b348015610114575f80fd5b50610128610123366004610e48565b6102fa565b005b348015610135575f80fd5b506100da610144366004610e1d565b6103ca565b610128610157366004610ecf565b6103d9565b348015610167575f80fd5b50610170610492565b604051908152602001610100565b348015610189575f80fd5b50610128610198366004610e48565b61053e565b3480156101a8575f80fd5b50610128610568565b3480156101bc575f80fd5b5060c9546101d0906001600160a01b031681565b6040516001600160a01b039091168152602001610100565b3480156101f3575f80fd5b506101d061057b565b348015610207575f80fd5b50610128610216366004610e48565b61058a565b348015610226575f80fd5b506100da610235366004610e1d565b6106b7565b348015610245575f80fd5b50610259610254366004610f70565b6106c6565b6040516101009190610f90565b348015610271575f80fd5b506100da610280366004610e1d565b61083b565b348015610290575f80fd5b5061012861029f366004610e48565b61084a565b3480156102af575f80fd5b506102596108c0565b60cc81815481106102c7575f80fd5b5f91825260209091206004909102018054600182015460028301546003909301546001600160a01b039092169350919084565b6001600160a01b037f000000000000000000000000000000000000000000000000000000000000000016300361034b5760405162461bcd60e51b815260040161034290610ffc565b60405180910390fd5b7f00000000000000000000000000000000000000000000000000000000000000006001600160a01b031661037d610933565b6001600160a01b0316146103a35760405162461bcd60e51b815260040161034290611035565b6103ac8161094e565b604080515f808252602082019092526103c791839190610956565b50565b60cd81815481106102c7575f80fd5b6001600160a01b037f00000000000000000000000000000000000000000000000000000000000000001630036104215760405162461bcd60e51b815260040161034290610ffc565b7f00000000000000000000000000000000000000000000000000000000000000006001600160a01b0316610453610933565b6001600160a01b0316146104795760405162461bcd60e51b815260040161034290611035565b6104828261094e565b61048e82826001610956565b5050565b5f306001600160a01b037f0000000000000000000000000000000000000000000000000000000000000000161461052c5760405162461bcd60e51b815260206004820152603860248201527f555550535570677261646561626c653a206d757374206e6f742062652063616c6044820152771b1959081d1a1c9bdd59da0819195b1959d85d1958d85b1b60421b6064820152608401610342565b505f805160206112a983398151915290565b610546610ac5565b60c980546001600160a01b0319166001600160a01b0392909216919091179055565b610570610ac5565b6105795f610b24565b565b6033546001600160a01b031690565b5f54610100900460ff16158080156105a857505f54600160ff909116105b806105c857506105b730610b75565b1580156105c857505f5460ff166001145b61062b5760405162461bcd60e51b815260206004820152602e60248201527f496e697469616c697a61626c653a20636f6e747261637420697320616c72656160448201526d191e481a5b9a5d1a585b1a5e995960921b6064820152608401610342565b5f805460ff19166001179055801561064c575f805461ff0019166101001790555b610654610b84565b60c980546001600160a01b0319166001600160a01b038416179055801561048e575f805461ff0019169055604051600181527f7f26b83ff96e1f2b6a682f133852f6798a09c465da95921460cefb38474024989060200160405180910390a15050565b60cb81815481106102c7575f80fd5b60605f60c95f9054906101000a90046001600160a01b03166001600160a01b03166318d36b156040518163ffffffff1660e01b81526004015f60405180830381865afa158015610718573d5f803e3d5ffd5b505050506040513d5f823e601f3d908101601f1916820160405261073f919081019061106e565b90505f61074c8585611165565b610757906001611178565b9050806001600160401b0381111561077157610771610e63565b6040519080825280602002602001820160405280156107d257816020015b6107bf60405180608001604052805f6001600160a01b031681526020015f81526020015f81526020015f81525090565b81526020019060019003908161078f5790505b5092505f5b8181101561083257826107ea8288611178565b815181106107fa576107fa61118b565b60200260200101518482815181106108145761081461118b565b6020026020010181905250808061082a9061119f565b9150506107d7565b50505092915050565b60ca81815481106102c7575f80fd5b610852610ac5565b6001600160a01b0381166108b75760405162461bcd60e51b815260206004820152602660248201527f4f776e61626c653a206e6577206f776e657220697320746865207a65726f206160448201526564647265737360d01b6064820152608401610342565b6103c781610b24565b60c954604080516318d36b1560e01b815290516060926001600160a01b0316916318d36b15916004808301925f9291908290030181865afa158015610907573d5f803e3d5ffd5b505050506040513d5f823e601f3d908101601f1916820160405261092e919081019061106e565b905090565b5f805160206112a9833981519152546001600160a01b031690565b6103c7610ac5565b7f4910fdfa16fed3260ed0e7147f7cc6da11a60208b5b9406d12a635614ffd91435460ff161561098e5761098983610bb2565b505050565b826001600160a01b03166352d1902d6040518163ffffffff1660e01b8152600401602060405180830381865afa9250505080156109e8575060408051601f3d908101601f191682019092526109e5918101906111b7565b60015b610a4b5760405162461bcd60e51b815260206004820152602e60248201527f45524331393637557067726164653a206e657720696d706c656d656e7461746960448201526d6f6e206973206e6f74205555505360901b6064820152608401610342565b5f805160206112a98339815191528114610ab95760405162461bcd60e51b815260206004820152602960248201527f45524331393637557067726164653a20756e737570706f727465642070726f786044820152681a58589b195555525160ba1b6064820152608401610342565b50610989838383610c4b565b33610ace61057b565b6001600160a01b0316146105795760405162461bcd60e51b815260206004820181905260248201527f4f776e61626c653a2063616c6c6572206973206e6f7420746865206f776e65726044820152606401610342565b603380546001600160a01b038381166001600160a01b0319831681179093556040519116919082907f8be0079c531659141344cd1fd0a4f28419497f9722a3daafe3b4186f6b6457e0905f90a35050565b6001600160a01b03163b151590565b5f54610100900460ff16610baa5760405162461bcd60e51b8152600401610342906111ce565b610579610c75565b610bbb81610b75565b610c1d5760405162461bcd60e51b815260206004820152602d60248201527f455243313936373a206e657720696d706c656d656e746174696f6e206973206e60448201526c1bdd08184818dbdb9d1c9858dd609a1b6064820152608401610342565b5f805160206112a983398151915280546001600160a01b0319166001600160a01b0392909216919091179055565b610c5483610ca4565b5f82511180610c605750805b1561098957610c6f8383610ce3565b50505050565b5f54610100900460ff16610c9b5760405162461bcd60e51b8152600401610342906111ce565b61057933610b24565b610cad81610bb2565b6040516001600160a01b038216907fbc7cd75a20ee27fd9adebab32041f755214dbc6bffa90cc0225b39da2e5c2d3b905f90a250565b6060610cee83610b75565b610d495760405162461bcd60e51b815260206004820152602660248201527f416464726573733a2064656c65676174652063616c6c20746f206e6f6e2d636f6044820152651b9d1c9858dd60d21b6064820152608401610342565b5f80846001600160a01b031684604051610d63919061123b565b5f60405180830381855af49150503d805f8114610d9b576040519150601f19603f3d011682016040523d82523d5f602084013e610da0565b606091505b5091509150610dc882826040518060600160405280602781526020016112c960279139610dd3565b925050505b92915050565b60608315610de2575081610dec565b610dec8383610df3565b9392505050565b815115610e035781518083602001fd5b8060405162461bcd60e51b81526004016103429190611256565b5f60208284031215610e2d575f80fd5b5035919050565b6001600160a01b03811681146103c7575f80fd5b5f60208284031215610e58575f80fd5b8135610dec81610e34565b634e487b7160e01b5f52604160045260245ffd5b604051608081016001600160401b0381118282101715610e9957610e99610e63565b60405290565b604051601f8201601f191681016001600160401b0381118282101715610ec757610ec7610e63565b604052919050565b5f8060408385031215610ee0575f80fd5b8235610eeb81610e34565b91506020838101356001600160401b0380821115610f07575f80fd5b818601915086601f830112610f1a575f80fd5b813581811115610f2c57610f2c610e63565b610f3e601f8201601f19168501610e9f565b91508082528784828501011115610f53575f80fd5b80848401858401375f848284010152508093505050509250929050565b5f8060408385031215610f81575f80fd5b50508035926020909101359150565b602080825282518282018190525f919060409081850190868401855b82811015610fef57815180516001600160a01b03168552868101518786015285810151868601526060908101519085015260809093019290850190600101610fac565b5091979650505050505050565b6020808252602c908201525f8051602061128983398151915260408201526b19195b1959d85d1958d85b1b60a21b606082015260800190565b6020808252602c908201525f8051602061128983398151915260408201526b6163746976652070726f787960a01b606082015260800190565b5f602080838503121561107f575f80fd5b82516001600160401b0380821115611095575f80fd5b818501915085601f8301126110a8575f80fd5b8151818111156110ba576110ba610e63565b6110c8848260051b01610e9f565b818152848101925060079190911b8301840190878211156110e7575f80fd5b928401925b818410156111465760808489031215611104575f8081fd5b61110c610e77565b845161111781610e34565b8152848601518682015260408086015190820152606080860151908201528352608090930192918401916110ec565b979650505050505050565b634e487b7160e01b5f52601160045260245ffd5b81810381811115610dcd57610dcd611151565b80820180821115610dcd57610dcd611151565b634e487b7160e01b5f52603260045260245ffd5b5f600182016111b0576111b0611151565b5060010190565b5f602082840312156111c7575f80fd5b5051919050565b6020808252602b908201527f496e697469616c697a61626c653a20636f6e7472616374206973206e6f74206960408201526a6e697469616c697a696e6760a81b606082015260800190565b5f5b8381101561123357818101518382015260200161121b565b50505f910152565b5f825161124c818460208701611219565b9190910192915050565b602081525f8251806020840152611274816040850160208701611219565b601f01601f1916919091016040019291505056fe46756e6374696f6e206d7573742062652063616c6c6564207468726f75676820360894a13ba1a3210667c828492db98dca3e2076cc3735a920a3ca505d382bbc416464726573733a206c6f772d6c6576656c2064656c65676174652063616c6c206661696c6564a2646970667358221220028a6ac9394f654610242098198cd8f1fbd5c8284d0e1d452ac86b5add9da8fc64736f6c63430008140033",
					"opcodes": "PUSH1 0xA0 PUSH1 0x40 MSTORE ADDRESS PUSH1 0x80 MSTORE CALLVALUE DUP1 ISZERO PUSH2 0x13 JUMPI PUSH0 DUP1 REVERT JUMPDEST POP PUSH1 0x80 MLOAD PUSH2 0x1325 PUSH2 0x48 PUSH0 CODECOPY PUSH0 DUP2 DUP2 PUSH2 0x304 ADD MSTORE DUP2 DUP2 PUSH2 0x34D ADD MSTORE DUP2 DUP2 PUSH2 0x3E3 ADD MSTORE DUP2 DUP2 PUSH2 0x423 ADD MSTORE PUSH2 0x49E ADD MSTORE PUSH2 0x1325 PUSH0 RETURN INVALID PUSH1 0x80 PUSH1 0x40 MSTORE PUSH1 0x4 CALLDATASIZE LT PUSH2 0xB7 JUMPI PUSH0 CALLDATALOAD PUSH1 0xE0 SHR DUP1 PUSH4 0x8E277C1 EQ PUSH2 0xBB JUMPI DUP1 PUSH4 0x3659CFE6 EQ PUSH2 0x109 JUMPI DUP1 PUSH4 0x4469ED13 EQ PUSH2 0x12A JUMPI DUP1 PUSH4 0x4F1EF286 EQ PUSH2 0x149 JUMPI DUP1 PUSH4 0x52D1902D EQ PUSH2 0x15C JUMPI DUP1 PUSH4 0x661A5614 EQ PUSH2 0x17E JUMPI DUP1 PUSH4 0x715018A6 EQ PUSH2 0x19D JUMPI DUP1 PUSH4 0x8A1E0A17 EQ PUSH2 0x1B1 JUMPI DUP1 PUSH4 0x8DA5CB5B EQ PUSH2 0x1E8 JUMPI DUP1 PUSH4 0xC4D66DE8 EQ PUSH2 0x1FC JUMPI DUP1 PUSH4 0xCB82AB19 EQ PUSH2 0x21B JUMPI DUP1 PUSH4 0xD05A38D7 EQ PUSH2 0x23A JUMPI DUP1 PUSH4 0xF2782D6D EQ PUSH2 0x266 JUMPI DUP1 PUSH4 0xF2FDE38B EQ PUSH2 0x285 JUMPI DUP1 PUSH4 0xF64387A7 EQ PUSH2 0x2A4 JUMPI JUMPDEST PUSH0 DUP1 REVERT JUMPDEST CALLVALUE DUP1 ISZERO PUSH2 0xC6 JUMPI PUSH0 DUP1 REVERT JUMPDEST POP PUSH2 0xDA PUSH2 0xD5 CALLDATASIZE PUSH1 0x4 PUSH2 0xE1D JUMP JUMPDEST PUSH2 0x2B8 JUMP JUMPDEST PUSH1 0x40 DUP1 MLOAD PUSH1 0x1 PUSH1 0x1 PUSH1 0xA0 SHL SUB SWAP1 SWAP6 AND DUP6 MSTORE PUSH1 0x20 DUP6 ADD SWAP4 SWAP1 SWAP4 MSTORE SWAP2 DUP4 ADD MSTORE PUSH1 0x60 DUP3 ADD MSTORE PUSH1 0x80 ADD JUMPDEST PUSH1 0x40 MLOAD DUP1 SWAP2 SUB SWAP1 RETURN JUMPDEST CALLVALUE DUP1 ISZERO PUSH2 0x114 JUMPI PUSH0 DUP1 REVERT JUMPDEST POP PUSH2 0x128 PUSH2 0x123 CALLDATASIZE PUSH1 0x4 PUSH2 0xE48 JUMP JUMPDEST PUSH2 0x2FA JUMP JUMPDEST STOP JUMPDEST CALLVALUE DUP1 ISZERO PUSH2 0x135 JUMPI PUSH0 DUP1 REVERT JUMPDEST POP PUSH2 0xDA PUSH2 0x144 CALLDATASIZE PUSH1 0x4 PUSH2 0xE1D JUMP JUMPDEST PUSH2 0x3CA JUMP JUMPDEST PUSH2 0x128 PUSH2 0x157 CALLDATASIZE PUSH1 0x4 PUSH2 0xECF JUMP JUMPDEST PUSH2 0x3D9 JUMP JUMPDEST CALLVALUE DUP1 ISZERO PUSH2 0x167 JUMPI PUSH0 DUP1 REVERT JUMPDEST POP PUSH2 0x170 PUSH2 0x492 JUMP JUMPDEST PUSH1 0x40 MLOAD SWAP1 DUP2 MSTORE PUSH1 0x20 ADD PUSH2 0x100 JUMP JUMPDEST CALLVALUE DUP1 ISZERO PUSH2 0x189 JUMPI PUSH0 DUP1 REVERT JUMPDEST POP PUSH2 0x128 PUSH2 0x198 CALLDATASIZE PUSH1 0x4 PUSH2 0xE48 JUMP JUMPDEST PUSH2 0x53E JUMP JUMPDEST CALLVALUE DUP1 ISZERO PUSH2 0x1A8 JUMPI PUSH0 DUP1 REVERT JUMPDEST POP PUSH2 0x128 PUSH2 0x568 JUMP JUMPDEST CALLVALUE DUP1 ISZERO PUSH2 0x1BC JUMPI PUSH0 DUP1 REVERT JUMPDEST POP PUSH1 0xC9 SLOAD PUSH2 0x1D0 SWAP1 PUSH1 0x1 PUSH1 0x1 PUSH1 0xA0 SHL SUB AND DUP2 JUMP JUMPDEST PUSH1 0x40 MLOAD PUSH1 0x1 PUSH1 0x1 PUSH1 0xA0 SHL SUB SWAP1 SWAP2 AND DUP2 MSTORE PUSH1 0x20 ADD PUSH2 0x100 JUMP JUMPDEST CALLVALUE DUP1 ISZERO PUSH2 0x1F3 JUMPI PUSH0 DUP1 REVERT JUMPDEST POP PUSH2 0x1D0 PUSH2 0x57B JUMP JUMPDEST CALLVALUE DUP1 ISZERO PUSH2 0x207 JUMPI PUSH0 DUP1 REVERT JUMPDEST POP PUSH2 0x128 PUSH2 0x216 CALLDATASIZE PUSH1 0x4 PUSH2 0xE48 JUMP JUMPDEST PUSH2 0x58A JUMP JUMPDEST CALLVALUE DUP1 ISZERO PUSH2 0x226 JUMPI PUSH0 DUP1 REVERT JUMPDEST POP PUSH2 0xDA PUSH2 0x235 CALLDATASIZE PUSH1 0x4 PUSH2 0xE1D JUMP JUMPDEST PUSH2 0x6B7 JUMP JUMPDEST CALLVALUE DUP1 ISZERO PUSH2 0x245 JUMPI PUSH0 DUP1 REVERT JUMPDEST POP PUSH2 0x259 PUSH2 0x254 CALLDATASIZE PUSH1 0x4 PUSH2 0xF70 JUMP JUMPDEST PUSH2 0x6C6 JUMP JUMPDEST PUSH1 0x40 MLOAD PUSH2 0x100 SWAP2 SWAP1 PUSH2 0xF90 JUMP JUMPDEST CALLVALUE DUP1 ISZERO PUSH2 0x271 JUMPI PUSH0 DUP1 REVERT JUMPDEST POP PUSH2 0xDA PUSH2 0x280 CALLDATASIZE PUSH1 0x4 PUSH2 0xE1D JUMP JUMPDEST PUSH2 0x83B JUMP JUMPDEST CALLVALUE DUP1 ISZERO PUSH2 0x290 JUMPI PUSH0 DUP1 REVERT JUMPDEST POP PUSH2 0x128 PUSH2 0x29F CALLDATASIZE PUSH1 0x4 PUSH2 0xE48 JUMP JUMPDEST PUSH2 0x84A JUMP JUMPDEST CALLVALUE DUP1 ISZERO PUSH2 0x2AF JUMPI PUSH0 DUP1 REVERT JUMPDEST POP PUSH2 0x259 PUSH2 0x8C0 JUMP JUMPDEST PUSH1 0xCC DUP2 DUP2 SLOAD DUP2 LT PUSH2 0x2C7 JUMPI PUSH0 DUP1 REVERT JUMPDEST PUSH0 SWAP2 DUP3 MSTORE PUSH1 0x20 SWAP1 SWAP2 KECCAK256 PUSH1 0x4 SWAP1 SWAP2 MUL ADD DUP1 SLOAD PUSH1 0x1 DUP3 ADD SLOAD PUSH1 0x2 DUP4 ADD SLOAD PUSH1 0x3 SWAP1 SWAP4 ADD SLOAD PUSH1 0x1 PUSH1 0x1 PUSH1 0xA0 SHL SUB SWAP1 SWAP3 AND SWAP4 POP SWAP2 SWAP1 DUP5 JUMP JUMPDEST PUSH1 0x1 PUSH1 0x1 PUSH1 0xA0 SHL SUB PUSH32 0x0 AND ADDRESS SUB PUSH2 0x34B JUMPI PUSH1 0x40 MLOAD PUSH3 0x461BCD PUSH1 0xE5 SHL DUP2 MSTORE PUSH1 0x4 ADD PUSH2 0x342 SWAP1 PUSH2 0xFFC JUMP JUMPDEST PUSH1 0x40 MLOAD DUP1 SWAP2 SUB SWAP1 REVERT JUMPDEST PUSH32 0x0 PUSH1 0x1 PUSH1 0x1 PUSH1 0xA0 SHL SUB AND PUSH2 0x37D PUSH2 0x933 JUMP JUMPDEST PUSH1 0x1 PUSH1 0x1 PUSH1 0xA0 SHL SUB AND EQ PUSH2 0x3A3 JUMPI PUSH1 0x40 MLOAD PUSH3 0x461BCD PUSH1 0xE5 SHL DUP2 MSTORE PUSH1 0x4 ADD PUSH2 0x342 SWAP1 PUSH2 0x1035 JUMP JUMPDEST PUSH2 0x3AC DUP2 PUSH2 0x94E JUMP JUMPDEST PUSH1 0x40 DUP1 MLOAD PUSH0 DUP1 DUP3 MSTORE PUSH1 0x20 DUP3 ADD SWAP1 SWAP3 MSTORE PUSH2 0x3C7 SWAP2 DUP4 SWAP2 SWAP1 PUSH2 0x956 JUMP JUMPDEST POP JUMP JUMPDEST PUSH1 0xCD DUP2 DUP2 SLOAD DUP2 LT PUSH2 0x2C7 JUMPI PUSH0 DUP1 REVERT JUMPDEST PUSH1 0x1 PUSH1 0x1 PUSH1 0xA0 SHL SUB PUSH32 0x0 AND ADDRESS SUB PUSH2 0x421 JUMPI PUSH1 0x40 MLOAD PUSH3 0x461BCD PUSH1 0xE5 SHL DUP2 MSTORE PUSH1 0x4 ADD PUSH2 0x342 SWAP1 PUSH2 0xFFC JUMP JUMPDEST PUSH32 0x0 PUSH1 0x1 PUSH1 0x1 PUSH1 0xA0 SHL SUB AND PUSH2 0x453 PUSH2 0x933 JUMP JUMPDEST PUSH1 0x1 PUSH1 0x1 PUSH1 0xA0 SHL SUB AND EQ PUSH2 0x479 JUMPI PUSH1 0x40 MLOAD PUSH3 0x461BCD PUSH1 0xE5 SHL DUP2 MSTORE PUSH1 0x4 ADD PUSH2 0x342 SWAP1 PUSH2 0x1035 JUMP JUMPDEST PUSH2 0x482 DUP3 PUSH2 0x94E JUMP JUMPDEST PUSH2 0x48E DUP3 DUP3 PUSH1 0x1 PUSH2 0x956 JUMP JUMPDEST POP POP JUMP JUMPDEST PUSH0 ADDRESS PUSH1 0x1 PUSH1 0x1 PUSH1 0xA0 SHL SUB PUSH32 0x0 AND EQ PUSH2 0x52C JUMPI PUSH1 0x40 MLOAD PUSH3 0x461BCD PUSH1 0xE5 SHL DUP2 MSTORE PUSH1 0x20 PUSH1 0x4 DUP3 ADD MSTORE PUSH1 0x38 PUSH1 0x24 DUP3 ADD MSTORE PUSH32 0x555550535570677261646561626C653A206D757374206E6F742062652063616C PUSH1 0x44 DUP3 ADD MSTORE PUSH24 0x1B1959081D1A1C9BDD59DA0819195B1959D85D1958D85B1B PUSH1 0x42 SHL PUSH1 0x64 DUP3 ADD MSTORE PUSH1 0x84 ADD PUSH2 0x342 JUMP JUMPDEST POP PUSH0 DUP1 MLOAD PUSH1 0x20 PUSH2 0x12A9 DUP4 CODECOPY DUP2 MLOAD SWAP2 MSTORE SWAP1 JUMP JUMPDEST PUSH2 0x546 PUSH2 0xAC5 JUMP JUMPDEST PUSH1 0xC9 DUP1 SLOAD PUSH1 0x1 PUSH1 0x1 PUSH1 0xA0 SHL SUB NOT AND PUSH1 0x1 PUSH1 0x1 PUSH1 0xA0 SHL SUB SWAP3 SWAP1 SWAP3 AND SWAP2 SWAP1 SWAP2 OR SWAP1 SSTORE JUMP JUMPDEST PUSH2 0x570 PUSH2 0xAC5 JUMP JUMPDEST PUSH2 0x579 PUSH0 PUSH2 0xB24 JUMP JUMPDEST JUMP JUMPDEST PUSH1 0x33 SLOAD PUSH1 0x1 PUSH1 0x1 PUSH1 0xA0 SHL SUB AND SWAP1 JUMP JUMPDEST PUSH0 SLOAD PUSH2 0x100 SWAP1 DIV PUSH1 0xFF AND ISZERO DUP1 DUP1 ISZERO PUSH2 0x5A8 JUMPI POP PUSH0 SLOAD PUSH1 0x1 PUSH1 0xFF SWAP1 SWAP2 AND LT JUMPDEST DUP1 PUSH2 0x5C8 JUMPI POP PUSH2 0x5B7 ADDRESS PUSH2 0xB75 JUMP JUMPDEST ISZERO DUP1 ISZERO PUSH2 0x5C8 JUMPI POP PUSH0 SLOAD PUSH1 0xFF AND PUSH1 0x1 EQ JUMPDEST PUSH2 0x62B JUMPI PUSH1 0x40 MLOAD PUSH3 0x461BCD PUSH1 0xE5 SHL DUP2 MSTORE PUSH1 0x20 PUSH1 0x4 DUP3 ADD MSTORE PUSH1 0x2E PUSH1 0x24 DUP3 ADD MSTORE PUSH32 0x496E697469616C697A61626C653A20636F6E747261637420697320616C726561 PUSH1 0x44 DUP3 ADD MSTORE PUSH14 0x191E481A5B9A5D1A585B1A5E9959 PUSH1 0x92 SHL PUSH1 0x64 DUP3 ADD MSTORE PUSH1 0x84 ADD PUSH2 0x342 JUMP JUMPDEST PUSH0 DUP1 SLOAD PUSH1 0xFF NOT AND PUSH1 0x1 OR SWAP1 SSTORE DUP1 ISZERO PUSH2 0x64C JUMPI PUSH0 DUP1 SLOAD PUSH2 0xFF00 NOT AND PUSH2 0x100 OR SWAP1 SSTORE JUMPDEST PUSH2 0x654 PUSH2 0xB84 JUMP JUMPDEST PUSH1 0xC9 DUP1 SLOAD PUSH1 0x1 PUSH1 0x1 PUSH1 0xA0 SHL SUB NOT AND PUSH1 0x1 PUSH1 0x1 PUSH1 0xA0 SHL SUB DUP5 AND OR SWAP1 SSTORE DUP1 ISZERO PUSH2 0x48E JUMPI PUSH0 DUP1 SLOAD PUSH2 0xFF00 NOT AND SWAP1 SSTORE PUSH1 0x40 MLOAD PUSH1 0x1 DUP2 MSTORE PUSH32 0x7F26B83FF96E1F2B6A682F133852F6798A09C465DA95921460CEFB3847402498 SWAP1 PUSH1 0x20 ADD PUSH1 0x40 MLOAD DUP1 SWAP2 SUB SWAP1 LOG1 POP POP JUMP JUMPDEST PUSH1 0xCB DUP2 DUP2 SLOAD DUP2 LT PUSH2 0x2C7 JUMPI PUSH0 DUP1 REVERT JUMPDEST PUSH1 0x60 PUSH0 PUSH1 0xC9 PUSH0 SWAP1 SLOAD SWAP1 PUSH2 0x100 EXP SWAP1 DIV PUSH1 0x1 PUSH1 0x1 PUSH1 0xA0 SHL SUB AND PUSH1 0x1 PUSH1 0x1 PUSH1 0xA0 SHL SUB AND PUSH4 0x18D36B15 PUSH1 0x40 MLOAD DUP2 PUSH4 0xFFFFFFFF AND PUSH1 0xE0 SHL DUP2 MSTORE PUSH1 0x4 ADD PUSH0 PUSH1 0x40 MLOAD DUP1 DUP4 SUB DUP2 DUP7 GAS STATICCALL ISZERO DUP1 ISZERO PUSH2 0x718 JUMPI RETURNDATASIZE PUSH0 DUP1 RETURNDATACOPY RETURNDATASIZE PUSH0 REVERT JUMPDEST POP POP POP POP PUSH1 0x40 MLOAD RETURNDATASIZE PUSH0 DUP3 RETURNDATACOPY PUSH1 0x1F RETURNDATASIZE SWAP1 DUP2 ADD PUSH1 0x1F NOT AND DUP3 ADD PUSH1 0x40 MSTORE PUSH2 0x73F SWAP2 SWAP1 DUP2 ADD SWAP1 PUSH2 0x106E JUMP JUMPDEST SWAP1 POP PUSH0 PUSH2 0x74C DUP6 DUP6 PUSH2 0x1165 JUMP JUMPDEST PUSH2 0x757 SWAP1 PUSH1 0x1 PUSH2 0x1178 JUMP JUMPDEST SWAP1 POP DUP1 PUSH1 0x1 PUSH1 0x1 PUSH1 0x40 SHL SUB DUP2 GT ISZERO PUSH2 0x771 JUMPI PUSH2 0x771 PUSH2 0xE63 JUMP JUMPDEST PUSH1 0x40 MLOAD SWAP1 DUP1 DUP3 MSTORE DUP1 PUSH1 0x20 MUL PUSH1 0x20 ADD DUP3 ADD PUSH1 0x40 MSTORE DUP1 ISZERO PUSH2 0x7D2 JUMPI DUP2 PUSH1 0x20 ADD JUMPDEST PUSH2 0x7BF PUSH1 0x40 MLOAD DUP1 PUSH1 0x80 ADD PUSH1 0x40 MSTORE DUP1 PUSH0 PUSH1 0x1 PUSH1 0x1 PUSH1 0xA0 SHL SUB AND DUP2 MSTORE PUSH1 0x20 ADD PUSH0 DUP2 MSTORE PUSH1 0x20 ADD PUSH0 DUP2 MSTORE PUSH1 0x20 ADD PUSH0 DUP2 MSTORE POP SWAP1 JUMP JUMPDEST DUP2 MSTORE PUSH1 0x20 ADD SWAP1 PUSH1 0x1 SWAP1 SUB SWAP1 DUP2 PUSH2 0x78F JUMPI SWAP1 POP JUMPDEST POP SWAP3 POP PUSH0 JUMPDEST DUP2 DUP2 LT ISZERO PUSH2 0x832 JUMPI DUP3 PUSH2 0x7EA DUP3 DUP9 PUSH2 0x1178 JUMP JUMPDEST DUP2 MLOAD DUP2 LT PUSH2 0x7FA JUMPI PUSH2 0x7FA PUSH2 0x118B JUMP JUMPDEST PUSH1 0x20 MUL PUSH1 0x20 ADD ADD MLOAD DUP5 DUP3 DUP2 MLOAD DUP2 LT PUSH2 0x814 JUMPI PUSH2 0x814 PUSH2 0x118B JUMP JUMPDEST PUSH1 0x20 MUL PUSH1 0x20 ADD ADD DUP2 SWAP1 MSTORE POP DUP1 DUP1 PUSH2 0x82A SWAP1 PUSH2 0x119F JUMP JUMPDEST SWAP2 POP POP PUSH2 0x7D7 JUMP JUMPDEST POP POP POP SWAP3 SWAP2 POP POP JUMP JUMPDEST PUSH1 0xCA DUP2 DUP2 SLOAD DUP2 LT PUSH2 0x2C7 JUMPI PUSH0 DUP1 REVERT JUMPDEST PUSH2 0x852 PUSH2 0xAC5 JUMP JUMPDEST PUSH1 0x1 PUSH1 0x1 PUSH1 0xA0 SHL SUB DUP2 AND PUSH2 0x8B7 JUMPI PUSH1 0x40 MLOAD PUSH3 0x461BCD PUSH1 0xE5 SHL DUP2 MSTORE PUSH1 0x20 PUSH1 0x4 DUP3 ADD MSTORE PUSH1 0x26 PUSH1 0x24 DUP3 ADD MSTORE PUSH32 0x4F776E61626C653A206E6577206F776E657220697320746865207A65726F2061 PUSH1 0x44 DUP3 ADD MSTORE PUSH6 0x646472657373 PUSH1 0xD0 SHL PUSH1 0x64 DUP3 ADD MSTORE PUSH1 0x84 ADD PUSH2 0x342 JUMP JUMPDEST PUSH2 0x3C7 DUP2 PUSH2 0xB24 JUMP JUMPDEST PUSH1 0xC9 SLOAD PUSH1 0x40 DUP1 MLOAD PUSH4 0x18D36B15 PUSH1 0xE0 SHL DUP2 MSTORE SWAP1 MLOAD PUSH1 0x60 SWAP3 PUSH1 0x1 PUSH1 0x1 PUSH1 0xA0 SHL SUB AND SWAP2 PUSH4 0x18D36B15 SWAP2 PUSH1 0x4 DUP1 DUP4 ADD SWAP3 PUSH0 SWAP3 SWAP2 SWAP1 DUP3 SWAP1 SUB ADD DUP2 DUP7 GAS STATICCALL ISZERO DUP1 ISZERO PUSH2 0x907 JUMPI RETURNDATASIZE PUSH0 DUP1 RETURNDATACOPY RETURNDATASIZE PUSH0 REVERT JUMPDEST POP POP POP POP PUSH1 0x40 MLOAD RETURNDATASIZE PUSH0 DUP3 RETURNDATACOPY PUSH1 0x1F RETURNDATASIZE SWAP1 DUP2 ADD PUSH1 0x1F NOT AND DUP3 ADD PUSH1 0x40 MSTORE PUSH2 0x92E SWAP2 SWAP1 DUP2 ADD SWAP1 PUSH2 0x106E JUMP JUMPDEST SWAP1 POP SWAP1 JUMP JUMPDEST PUSH0 DUP1 MLOAD PUSH1 0x20 PUSH2 0x12A9 DUP4 CODECOPY DUP2 MLOAD SWAP2 MSTORE SLOAD PUSH1 0x1 PUSH1 0x1 PUSH1 0xA0 SHL SUB AND SWAP1 JUMP JUMPDEST PUSH2 0x3C7 PUSH2 0xAC5 JUMP JUMPDEST PUSH32 0x4910FDFA16FED3260ED0E7147F7CC6DA11A60208B5B9406D12A635614FFD9143 SLOAD PUSH1 0xFF AND ISZERO PUSH2 0x98E JUMPI PUSH2 0x989 DUP4 PUSH2 0xBB2 JUMP JUMPDEST POP POP POP JUMP JUMPDEST DUP3 PUSH1 0x1 PUSH1 0x1 PUSH1 0xA0 SHL SUB AND PUSH4 0x52D1902D PUSH1 0x40 MLOAD DUP2 PUSH4 0xFFFFFFFF AND PUSH1 0xE0 SHL DUP2 MSTORE PUSH1 0x4 ADD PUSH1 0x20 PUSH1 0x40 MLOAD DUP1 DUP4 SUB DUP2 DUP7 GAS STATICCALL SWAP3 POP POP POP DUP1 ISZERO PUSH2 0x9E8 JUMPI POP PUSH1 0x40 DUP1 MLOAD PUSH1 0x1F RETURNDATASIZE SWAP1 DUP2 ADD PUSH1 0x1F NOT AND DUP3 ADD SWAP1 SWAP3 MSTORE PUSH2 0x9E5 SWAP2 DUP2 ADD SWAP1 PUSH2 0x11B7 JUMP JUMPDEST PUSH1 0x1 JUMPDEST PUSH2 0xA4B JUMPI PUSH1 0x40 MLOAD PUSH3 0x461BCD PUSH1 0xE5 SHL DUP2 MSTORE PUSH1 0x20 PUSH1 0x4 DUP3 ADD MSTORE PUSH1 0x2E PUSH1 0x24 DUP3 ADD MSTORE PUSH32 0x45524331393637557067726164653A206E657720696D706C656D656E74617469 PUSH1 0x44 DUP3 ADD MSTORE PUSH14 0x6F6E206973206E6F742055555053 PUSH1 0x90 SHL PUSH1 0x64 DUP3 ADD MSTORE PUSH1 0x84 ADD PUSH2 0x342 JUMP JUMPDEST PUSH0 DUP1 MLOAD PUSH1 0x20 PUSH2 0x12A9 DUP4 CODECOPY DUP2 MLOAD SWAP2 MSTORE DUP2 EQ PUSH2 0xAB9 JUMPI PUSH1 0x40 MLOAD PUSH3 0x461BCD PUSH1 0xE5 SHL DUP2 MSTORE PUSH1 0x20 PUSH1 0x4 DUP3 ADD MSTORE PUSH1 0x29 PUSH1 0x24 DUP3 ADD MSTORE PUSH32 0x45524331393637557067726164653A20756E737570706F727465642070726F78 PUSH1 0x44 DUP3 ADD MSTORE PUSH9 0x1A58589B1955555251 PUSH1 0xBA SHL PUSH1 0x64 DUP3 ADD MSTORE PUSH1 0x84 ADD PUSH2 0x342 JUMP JUMPDEST POP PUSH2 0x989 DUP4 DUP4 DUP4 PUSH2 0xC4B JUMP JUMPDEST CALLER PUSH2 0xACE PUSH2 0x57B JUMP JUMPDEST PUSH1 0x1 PUSH1 0x1 PUSH1 0xA0 SHL SUB AND EQ PUSH2 0x579 JUMPI PUSH1 0x40 MLOAD PUSH3 0x461BCD PUSH1 0xE5 SHL DUP2 MSTORE PUSH1 0x20 PUSH1 0x4 DUP3 ADD DUP2 SWAP1 MSTORE PUSH1 0x24 DUP3 ADD MSTORE PUSH32 0x4F776E61626C653A2063616C6C6572206973206E6F7420746865206F776E6572 PUSH1 0x44 DUP3 ADD MSTORE PUSH1 0x64 ADD PUSH2 0x342 JUMP JUMPDEST PUSH1 0x33 DUP1 SLOAD PUSH1 0x1 PUSH1 0x1 PUSH1 0xA0 SHL SUB DUP4 DUP2 AND PUSH1 0x1 PUSH1 0x1 PUSH1 0xA0 SHL SUB NOT DUP4 AND DUP2 OR SWAP1 SWAP4 SSTORE PUSH1 0x40 MLOAD SWAP2 AND SWAP2 SWAP1 DUP3 SWAP1 PUSH32 0x8BE0079C531659141344CD1FD0A4F28419497F9722A3DAAFE3B4186F6B6457E0 SWAP1 PUSH0 SWAP1 LOG3 POP POP JUMP JUMPDEST PUSH1 0x1 PUSH1 0x1 PUSH1 0xA0 SHL SUB AND EXTCODESIZE ISZERO ISZERO SWAP1 JUMP JUMPDEST PUSH0 SLOAD PUSH2 0x100 SWAP1 DIV PUSH1 0xFF AND PUSH2 0xBAA JUMPI PUSH1 0x40 MLOAD PUSH3 0x461BCD PUSH1 0xE5 SHL DUP2 MSTORE PUSH1 0x4 ADD PUSH2 0x342 SWAP1 PUSH2 0x11CE JUMP JUMPDEST PUSH2 0x579 PUSH2 0xC75 JUMP JUMPDEST PUSH2 0xBBB DUP2 PUSH2 0xB75 JUMP JUMPDEST PUSH2 0xC1D JUMPI PUSH1 0x40 MLOAD PUSH3 0x461BCD PUSH1 0xE5 SHL DUP2 MSTORE PUSH1 0x20 PUSH1 0x4 DUP3 ADD MSTORE PUSH1 0x2D PUSH1 0x24 DUP3 ADD MSTORE PUSH32 0x455243313936373A206E657720696D706C656D656E746174696F6E206973206E PUSH1 0x44 DUP3 ADD MSTORE PUSH13 0x1BDD08184818DBDB9D1C9858DD PUSH1 0x9A SHL PUSH1 0x64 DUP3 ADD MSTORE PUSH1 0x84 ADD PUSH2 0x342 JUMP JUMPDEST PUSH0 DUP1 MLOAD PUSH1 0x20 PUSH2 0x12A9 DUP4 CODECOPY DUP2 MLOAD SWAP2 MSTORE DUP1 SLOAD PUSH1 0x1 PUSH1 0x1 PUSH1 0xA0 SHL SUB NOT AND PUSH1 0x1 PUSH1 0x1 PUSH1 0xA0 SHL SUB SWAP3 SWAP1 SWAP3 AND SWAP2 SWAP1 SWAP2 OR SWAP1 SSTORE JUMP JUMPDEST PUSH2 0xC54 DUP4 PUSH2 0xCA4 JUMP JUMPDEST PUSH0 DUP3 MLOAD GT DUP1 PUSH2 0xC60 JUMPI POP DUP1 JUMPDEST ISZERO PUSH2 0x989 JUMPI PUSH2 0xC6F DUP4 DUP4 PUSH2 0xCE3 JUMP JUMPDEST POP POP POP POP JUMP JUMPDEST PUSH0 SLOAD PUSH2 0x100 SWAP1 DIV PUSH1 0xFF AND PUSH2 0xC9B JUMPI PUSH1 0x40 MLOAD PUSH3 0x461BCD PUSH1 0xE5 SHL DUP2 MSTORE PUSH1 0x4 ADD PUSH2 0x342 SWAP1 PUSH2 0x11CE JUMP JUMPDEST PUSH2 0x579 CALLER PUSH2 0xB24 JUMP JUMPDEST PUSH2 0xCAD DUP2 PUSH2 0xBB2 JUMP JUMPDEST PUSH1 0x40 MLOAD PUSH1 0x1 PUSH1 0x1 PUSH1 0xA0 SHL SUB DUP3 AND SWAP1 PUSH32 0xBC7CD75A20EE27FD9ADEBAB32041F755214DBC6BFFA90CC0225B39DA2E5C2D3B SWAP1 PUSH0 SWAP1 LOG2 POP JUMP JUMPDEST PUSH1 0x60 PUSH2 0xCEE DUP4 PUSH2 0xB75 JUMP JUMPDEST PUSH2 0xD49 JUMPI PUSH1 0x40 MLOAD PUSH3 0x461BCD PUSH1 0xE5 SHL DUP2 MSTORE PUSH1 0x20 PUSH1 0x4 DUP3 ADD MSTORE PUSH1 0x26 PUSH1 0x24 DUP3 ADD MSTORE PUSH32 0x416464726573733A2064656C65676174652063616C6C20746F206E6F6E2D636F PUSH1 0x44 DUP3 ADD MSTORE PUSH6 0x1B9D1C9858DD PUSH1 0xD2 SHL PUSH1 0x64 DUP3 ADD MSTORE PUSH1 0x84 ADD PUSH2 0x342 JUMP JUMPDEST PUSH0 DUP1 DUP5 PUSH1 0x1 PUSH1 0x1 PUSH1 0xA0 SHL SUB AND DUP5 PUSH1 0x40 MLOAD PUSH2 0xD63 SWAP2 SWAP1 PUSH2 0x123B JUMP JUMPDEST PUSH0 PUSH1 0x40 MLOAD DUP1 DUP4 SUB DUP2 DUP6 GAS DELEGATECALL SWAP2 POP POP RETURNDATASIZE DUP1 PUSH0 DUP2 EQ PUSH2 0xD9B JUMPI PUSH1 0x40 MLOAD SWAP2 POP PUSH1 0x1F NOT PUSH1 0x3F RETURNDATASIZE ADD AND DUP3 ADD PUSH1 0x40 MSTORE RETURNDATASIZE DUP3 MSTORE RETURNDATASIZE PUSH0 PUSH1 0x20 DUP5 ADD RETURNDATACOPY PUSH2 0xDA0 JUMP JUMPDEST PUSH1 0x60 SWAP2 POP JUMPDEST POP SWAP2 POP SWAP2 POP PUSH2 0xDC8 DUP3 DUP3 PUSH1 0x40 MLOAD DUP1 PUSH1 0x60 ADD PUSH1 0x40 MSTORE DUP1 PUSH1 0x27 DUP2 MSTORE PUSH1 0x20 ADD PUSH2 0x12C9 PUSH1 0x27 SWAP2 CODECOPY PUSH2 0xDD3 JUMP JUMPDEST SWAP3 POP POP POP JUMPDEST SWAP3 SWAP2 POP POP JUMP JUMPDEST PUSH1 0x60 DUP4 ISZERO PUSH2 0xDE2 JUMPI POP DUP2 PUSH2 0xDEC JUMP JUMPDEST PUSH2 0xDEC DUP4 DUP4 PUSH2 0xDF3 JUMP JUMPDEST SWAP4 SWAP3 POP POP POP JUMP JUMPDEST DUP2 MLOAD ISZERO PUSH2 0xE03 JUMPI DUP2 MLOAD DUP1 DUP4 PUSH1 0x20 ADD REVERT JUMPDEST DUP1 PUSH1 0x40 MLOAD PUSH3 0x461BCD PUSH1 0xE5 SHL DUP2 MSTORE PUSH1 0x4 ADD PUSH2 0x342 SWAP2 SWAP1 PUSH2 0x1256 JUMP JUMPDEST PUSH0 PUSH1 0x20 DUP3 DUP5 SUB SLT ISZERO PUSH2 0xE2D JUMPI PUSH0 DUP1 REVERT JUMPDEST POP CALLDATALOAD SWAP2 SWAP1 POP JUMP JUMPDEST PUSH1 0x1 PUSH1 0x1 PUSH1 0xA0 SHL SUB DUP2 AND DUP2 EQ PUSH2 0x3C7 JUMPI PUSH0 DUP1 REVERT JUMPDEST PUSH0 PUSH1 0x20 DUP3 DUP5 SUB SLT ISZERO PUSH2 0xE58 JUMPI PUSH0 DUP1 REVERT JUMPDEST DUP2 CALLDATALOAD PUSH2 0xDEC DUP2 PUSH2 0xE34 JUMP JUMPDEST PUSH4 0x4E487B71 PUSH1 0xE0 SHL PUSH0 MSTORE PUSH1 0x41 PUSH1 0x4 MSTORE PUSH1 0x24 PUSH0 REVERT JUMPDEST PUSH1 0x40 MLOAD PUSH1 0x80 DUP2 ADD PUSH1 0x1 PUSH1 0x1 PUSH1 0x40 SHL SUB DUP2 GT DUP3 DUP3 LT OR ISZERO PUSH2 0xE99 JUMPI PUSH2 0xE99 PUSH2 0xE63 JUMP JUMPDEST PUSH1 0x40 MSTORE SWAP1 JUMP JUMPDEST PUSH1 0x40 MLOAD PUSH1 0x1F DUP3 ADD PUSH1 0x1F NOT AND DUP2 ADD PUSH1 0x1 PUSH1 0x1 PUSH1 0x40 SHL SUB DUP2 GT DUP3 DUP3 LT OR ISZERO PUSH2 0xEC7 JUMPI PUSH2 0xEC7 PUSH2 0xE63 JUMP JUMPDEST PUSH1 0x40 MSTORE SWAP2 SWAP1 POP JUMP JUMPDEST PUSH0 DUP1 PUSH1 0x40 DUP4 DUP6 SUB SLT ISZERO PUSH2 0xEE0 JUMPI PUSH0 DUP1 REVERT JUMPDEST DUP3 CALLDATALOAD PUSH2 0xEEB DUP2 PUSH2 0xE34 JUMP JUMPDEST SWAP2 POP PUSH1 0x20 DUP4 DUP2 ADD CALLDATALOAD PUSH1 0x1 PUSH1 0x1 PUSH1 0x40 SHL SUB DUP1 DUP3 GT ISZERO PUSH2 0xF07 JUMPI PUSH0 DUP1 REVERT JUMPDEST DUP2 DUP7 ADD SWAP2 POP DUP7 PUSH1 0x1F DUP4 ADD SLT PUSH2 0xF1A JUMPI PUSH0 DUP1 REVERT JUMPDEST DUP2 CALLDATALOAD DUP2 DUP2 GT ISZERO PUSH2 0xF2C JUMPI PUSH2 0xF2C PUSH2 0xE63 JUMP JUMPDEST PUSH2 0xF3E PUSH1 0x1F DUP3 ADD PUSH1 0x1F NOT AND DUP6 ADD PUSH2 0xE9F JUMP JUMPDEST SWAP2 POP DUP1 DUP3 MSTORE DUP8 DUP5 DUP3 DUP6 ADD ADD GT ISZERO PUSH2 0xF53 JUMPI PUSH0 DUP1 REVERT JUMPDEST DUP1 DUP5 DUP5 ADD DUP6 DUP5 ADD CALLDATACOPY PUSH0 DUP5 DUP3 DUP5 ADD ADD MSTORE POP DUP1 SWAP4 POP POP POP POP SWAP3 POP SWAP3 SWAP1 POP JUMP JUMPDEST PUSH0 DUP1 PUSH1 0x40 DUP4 DUP6 SUB SLT ISZERO PUSH2 0xF81 JUMPI PUSH0 DUP1 REVERT JUMPDEST POP POP DUP1 CALLDATALOAD SWAP3 PUSH1 0x20 SWAP1 SWAP2 ADD CALLDATALOAD SWAP2 POP JUMP JUMPDEST PUSH1 0x20 DUP1 DUP3 MSTORE DUP3 MLOAD DUP3 DUP3 ADD DUP2 SWAP1 MSTORE PUSH0 SWAP2 SWAP1 PUSH1 0x40 SWAP1 DUP2 DUP6 ADD SWAP1 DUP7 DUP5 ADD DUP6 JUMPDEST DUP3 DUP2 LT ISZERO PUSH2 0xFEF JUMPI DUP2 MLOAD DUP1 MLOAD PUSH1 0x1 PUSH1 0x1 PUSH1 0xA0 SHL SUB AND DUP6 MSTORE DUP7 DUP2 ADD MLOAD DUP8 DUP7 ADD MSTORE DUP6 DUP2 ADD MLOAD DUP7 DUP7 ADD MSTORE PUSH1 0x60 SWAP1 DUP2 ADD MLOAD SWAP1 DUP6 ADD MSTORE PUSH1 0x80 SWAP1 SWAP4 ADD SWAP3 SWAP1 DUP6 ADD SWAP1 PUSH1 0x1 ADD PUSH2 0xFAC JUMP JUMPDEST POP SWAP2 SWAP8 SWAP7 POP POP POP POP POP POP POP JUMP JUMPDEST PUSH1 0x20 DUP1 DUP3 MSTORE PUSH1 0x2C SWAP1 DUP3 ADD MSTORE PUSH0 DUP1 MLOAD PUSH1 0x20 PUSH2 0x1289 DUP4 CODECOPY DUP2 MLOAD SWAP2 MSTORE PUSH1 0x40 DUP3 ADD MSTORE PUSH12 0x19195B1959D85D1958D85B1B PUSH1 0xA2 SHL PUSH1 0x60 DUP3 ADD MSTORE PUSH1 0x80 ADD SWAP1 JUMP JUMPDEST PUSH1 0x20 DUP1 DUP3 MSTORE PUSH1 0x2C SWAP1 DUP3 ADD MSTORE PUSH0 DUP1 MLOAD PUSH1 0x20 PUSH2 0x1289 DUP4 CODECOPY DUP2 MLOAD SWAP2 MSTORE PUSH1 0x40 DUP3 ADD MSTORE PUSH12 0x6163746976652070726F7879 PUSH1 0xA0 SHL PUSH1 0x60 DUP3 ADD MSTORE PUSH1 0x80 ADD SWAP1 JUMP JUMPDEST PUSH0 PUSH1 0x20 DUP1 DUP4 DUP6 SUB SLT ISZERO PUSH2 0x107F JUMPI PUSH0 DUP1 REVERT JUMPDEST DUP3 MLOAD PUSH1 0x1 PUSH1 0x1 PUSH1 0x40 SHL SUB DUP1 DUP3 GT ISZERO PUSH2 0x1095 JUMPI PUSH0 DUP1 REVERT JUMPDEST DUP2 DUP6 ADD SWAP2 POP DUP6 PUSH1 0x1F DUP4 ADD SLT PUSH2 0x10A8 JUMPI PUSH0 DUP1 REVERT JUMPDEST DUP2 MLOAD DUP2 DUP2 GT ISZERO PUSH2 0x10BA JUMPI PUSH2 0x10BA PUSH2 0xE63 JUMP JUMPDEST PUSH2 0x10C8 DUP5 DUP3 PUSH1 0x5 SHL ADD PUSH2 0xE9F JUMP JUMPDEST DUP2 DUP2 MSTORE DUP5 DUP2 ADD SWAP3 POP PUSH1 0x7 SWAP2 SWAP1 SWAP2 SHL DUP4 ADD DUP5 ADD SWAP1 DUP8 DUP3 GT ISZERO PUSH2 0x10E7 JUMPI PUSH0 DUP1 REVERT JUMPDEST SWAP3 DUP5 ADD SWAP3 JUMPDEST DUP2 DUP5 LT ISZERO PUSH2 0x1146 JUMPI PUSH1 0x80 DUP5 DUP10 SUB SLT ISZERO PUSH2 0x1104 JUMPI PUSH0 DUP1 DUP2 REVERT JUMPDEST PUSH2 0x110C PUSH2 0xE77 JUMP JUMPDEST DUP5 MLOAD PUSH2 0x1117 DUP2 PUSH2 0xE34 JUMP JUMPDEST DUP2 MSTORE DUP5 DUP7 ADD MLOAD DUP7 DUP3 ADD MSTORE PUSH1 0x40 DUP1 DUP7 ADD MLOAD SWAP1 DUP3 ADD MSTORE PUSH1 0x60 DUP1 DUP7 ADD MLOAD SWAP1 DUP3 ADD MSTORE DUP4 MSTORE PUSH1 0x80 SWAP1 SWAP4 ADD SWAP3 SWAP2 DUP5 ADD SWAP2 PUSH2 0x10EC JUMP JUMPDEST SWAP8 SWAP7 POP POP POP POP POP POP POP JUMP JUMPDEST PUSH4 0x4E487B71 PUSH1 0xE0 SHL PUSH0 MSTORE PUSH1 0x11 PUSH1 0x4 MSTORE PUSH1 0x24 PUSH0 REVERT JUMPDEST DUP2 DUP2 SUB DUP2 DUP2 GT ISZERO PUSH2 0xDCD JUMPI PUSH2 0xDCD PUSH2 0x1151 JUMP JUMPDEST DUP1 DUP3 ADD DUP1 DUP3 GT ISZERO PUSH2 0xDCD JUMPI PUSH2 0xDCD PUSH2 0x1151 JUMP JUMPDEST PUSH4 0x4E487B71 PUSH1 0xE0 SHL PUSH0 MSTORE PUSH1 0x32 PUSH1 0x4 MSTORE PUSH1 0x24 PUSH0 REVERT JUMPDEST PUSH0 PUSH1 0x1 DUP3 ADD PUSH2 0x11B0 JUMPI PUSH2 0x11B0 PUSH2 0x1151 JUMP JUMPDEST POP PUSH1 0x1 ADD SWAP1 JUMP JUMPDEST PUSH0 PUSH1 0x20 DUP3 DUP5 SUB SLT ISZERO PUSH2 0x11C7 JUMPI PUSH0 DUP1 REVERT JUMPDEST POP MLOAD SWAP2 SWAP1 POP JUMP JUMPDEST PUSH1 0x20 DUP1 DUP3 MSTORE PUSH1 0x2B SWAP1 DUP3 ADD MSTORE PUSH32 0x496E697469616C697A61626C653A20636F6E7472616374206973206E6F742069 PUSH1 0x40 DUP3 ADD MSTORE PUSH11 0x6E697469616C697A696E67 PUSH1 0xA8 SHL PUSH1 0x60 DUP3 ADD MSTORE PUSH1 0x80 ADD SWAP1 JUMP JUMPDEST PUSH0 JUMPDEST DUP4 DUP2 LT ISZERO PUSH2 0x1233 JUMPI DUP2 DUP2 ADD MLOAD DUP4 DUP3 ADD MSTORE PUSH1 0x20 ADD PUSH2 0x121B JUMP JUMPDEST POP POP PUSH0 SWAP2 ADD MSTORE JUMP JUMPDEST PUSH0 DUP3 MLOAD PUSH2 0x124C DUP2 DUP5 PUSH1 0x20 DUP8 ADD PUSH2 0x1219 JUMP JUMPDEST SWAP2 SWAP1 SWAP2 ADD SWAP3 SWAP2 POP POP JUMP JUMPDEST PUSH1 0x20 DUP2 MSTORE PUSH0 DUP3 MLOAD DUP1 PUSH1 0x20 DUP5 ADD MSTORE PUSH2 0x1274 DUP2 PUSH1 0x40 DUP6 ADD PUSH1 0x20 DUP8 ADD PUSH2 0x1219 JUMP JUMPDEST PUSH1 0x1F ADD PUSH1 0x1F NOT AND SWAP2 SWAP1 SWAP2 ADD PUSH1 0x40 ADD SWAP3 SWAP2 POP POP JUMP INVALID CHAINID PUSH22 0x6E6374696F6E206D7573742062652063616C6C656420 PUSH21 0x68726F75676820360894A13BA1A3210667C828492D 0xB9 DUP14 0xCA RETURNDATACOPY KECCAK256 PUSH23 0xCC3735A920A3CA505D382BBC416464726573733A206C6F PUSH24 0x2D6C6576656C2064656C65676174652063616C6C20666169 PUSH13 0x6564A264697066735822122002 DUP11 PUSH11 0xC9394F654610242098198C 0xD8 CALL 0xFB 0xD5 0xC8 0x28 0x4D 0xE SAR GASLIMIT 0x2A 0xC8 PUSH12 0x5ADD9DA8FC64736F6C634300 ADDMOD EQ STOP CALLER "
				},
				"gasEstimates": {
					"creation": {
						"codeDepositCost": "980200",
						"executionCost": "infinite",
						"totalCost": "infinite"
					},
					"external": {
						"MMstore()": "2468",
						"NoOrder(uint256)": "10994",
						"changeMmstore(address)": "26860",
						"claimOrderArr(uint256)": "11214",
						"getNoOrderRewardBy()": "infinite",
						"getNoOrderRewardByIndex(uint256,uint256)": "infinite",
						"initialize(address)": "infinite",
						"machineArr(uint256)": "11258",
						"owner()": "2499",
						"proxiableUUID()": "infinite",
						"renounceOwnership()": "infinite",
						"transferMaxOrder(uint256)": "11038",
						"transferOwnership(address)": "infinite",
						"upgradeTo(address)": "infinite",
						"upgradeToAndCall(address,bytes)": "infinite"
					},
					"internal": {
						"_authorizeUpgrade(address)": "infinite"
					}
				},
				"methodIdentifiers": {
					"MMstore()": "8a1e0a17",
					"NoOrder(uint256)": "08e277c1",
					"changeMmstore(address)": "661a5614",
					"claimOrderArr(uint256)": "cb82ab19",
					"getNoOrderRewardBy()": "f64387a7",
					"getNoOrderRewardByIndex(uint256,uint256)": "d05a38d7",
					"initialize(address)": "c4d66de8",
					"machineArr(uint256)": "f2782d6d",
					"owner()": "8da5cb5b",
					"proxiableUUID()": "52d1902d",
					"renounceOwnership()": "715018a6",
					"transferMaxOrder(uint256)": "4469ed13",
					"transferOwnership(address)": "f2fde38b",
					"upgradeTo(address)": "3659cfe6",
					"upgradeToAndCall(address,bytes)": "4f1ef286"
				}
			},
			"storageLayout": {
				"storage": [
					{
						"astId": 1145,
						"contract": "contracts/MMEXT.sol:MMEXT",
						"label": "_initialized",
						"offset": 0,
						"slot": "0",
						"type": "t_uint8"
					},
					{
						"astId": 1148,
						"contract": "contracts/MMEXT.sol:MMEXT",
						"label": "_initializing",
						"offset": 1,
						"slot": "0",
						"type": "t_bool"
					},
					{
						"astId": 1846,
						"contract": "contracts/MMEXT.sol:MMEXT",
						"label": "__gap",
						"offset": 0,
						"slot": "1",
						"type": "t_array(t_uint256)50_storage"
					},
					{
						"astId": 621,
						"contract": "contracts/MMEXT.sol:MMEXT",
						"label": "_owner",
						"offset": 0,
						"slot": "51",
						"type": "t_address"
					},
					{
						"astId": 741,
						"contract": "contracts/MMEXT.sol:MMEXT",
						"label": "__gap",
						"offset": 0,
						"slot": "52",
						"type": "t_array(t_uint256)49_storage"
					},
					{
						"astId": 1127,
						"contract": "contracts/MMEXT.sol:MMEXT",
						"label": "__gap",
						"offset": 0,
						"slot": "101",
						"type": "t_array(t_uint256)50_storage"
					},
					{
						"astId": 1442,
						"contract": "contracts/MMEXT.sol:MMEXT",
						"label": "__gap",
						"offset": 0,
						"slot": "151",
						"type": "t_array(t_uint256)50_storage"
					},
					{
						"astId": 172,
						"contract": "contracts/MMEXT.sol:MMEXT",
						"label": "MMstore",
						"offset": 0,
						"slot": "201",
						"type": "t_address"
					},
					{
						"astId": 176,
						"contract": "contracts/MMEXT.sol:MMEXT",
						"label": "machineArr",
						"offset": 0,
						"slot": "202",
						"type": "t_array(t_struct(MiningMachine)314_storage)dyn_storage"
					},
					{
						"astId": 180,
						"contract": "contracts/MMEXT.sol:MMEXT",
						"label": "claimOrderArr",
						"offset": 0,
						"slot": "203",
						"type": "t_array(t_struct(ClaimOrder)323_storage)dyn_storage"
					},
					{
						"astId": 184,
						"contract": "contracts/MMEXT.sol:MMEXT",
						"label": "NoOrder",
						"offset": 0,
						"slot": "204",
						"type": "t_array(t_struct(TransferOrder)332_storage)dyn_storage"
					},
					{
						"astId": 188,
						"contract": "contracts/MMEXT.sol:MMEXT",
						"label": "transferMaxOrder",
						"offset": 0,
						"slot": "205",
						"type": "t_array(t_struct(TransferOrder)332_storage)dyn_storage"
					}
				],
				"types": {
					"t_address": {
						"encoding": "inplace",
						"label": "address",
						"numberOfBytes": "20"
					},
					"t_array(t_struct(ClaimOrder)323_storage)dyn_storage": {
						"base": "t_struct(ClaimOrder)323_storage",
						"encoding": "dynamic_array",
						"label": "struct IMMStore.ClaimOrder[]",
						"numberOfBytes": "32"
					},
					"t_array(t_struct(MiningMachine)314_storage)dyn_storage": {
						"base": "t_struct(MiningMachine)314_storage",
						"encoding": "dynamic_array",
						"label": "struct IMMStore.MiningMachine[]",
						"numberOfBytes": "32"
					},
					"t_array(t_struct(TransferOrder)332_storage)dyn_storage": {
						"base": "t_struct(TransferOrder)332_storage",
						"encoding": "dynamic_array",
						"label": "struct IMMStore.TransferOrder[]",
						"numberOfBytes": "32"
					},
					"t_array(t_uint256)49_storage": {
						"base": "t_uint256",
						"encoding": "inplace",
						"label": "uint256[49]",
						"numberOfBytes": "1568"
					},
					"t_array(t_uint256)50_storage": {
						"base": "t_uint256",
						"encoding": "inplace",
						"label": "uint256[50]",
						"numberOfBytes": "1600"
					},
					"t_bool": {
						"encoding": "inplace",
						"label": "bool",
						"numberOfBytes": "1"
					},
					"t_struct(ClaimOrder)323_storage": {
						"encoding": "inplace",
						"label": "struct IMMStore.ClaimOrder",
						"members": [
							{
								"astId": 316,
								"contract": "contracts/MMEXT.sol:MMEXT",
								"label": "user",
								"offset": 0,
								"slot": "0",
								"type": "t_address"
							},
							{
								"astId": 318,
								"contract": "contracts/MMEXT.sol:MMEXT",
								"label": "amount",
								"offset": 0,
								"slot": "1",
								"type": "t_uint256"
							},
							{
								"astId": 320,
								"contract": "contracts/MMEXT.sol:MMEXT",
								"label": "orderType",
								"offset": 0,
								"slot": "2",
								"type": "t_uint256"
							},
							{
								"astId": 322,
								"contract": "contracts/MMEXT.sol:MMEXT",
								"label": "createTime",
								"offset": 0,
								"slot": "3",
								"type": "t_uint256"
							}
						],
						"numberOfBytes": "128"
					},
					"t_struct(MiningMachine)314_storage": {
						"encoding": "inplace",
						"label": "struct IMMStore.MiningMachine",
						"members": [
							{
								"astId": 307,
								"contract": "contracts/MMEXT.sol:MMEXT",
								"label": "user",
								"offset": 0,
								"slot": "0",
								"type": "t_address"
							},
							{
								"astId": 309,
								"contract": "contracts/MMEXT.sol:MMEXT",
								"label": "computingPower",
								"offset": 0,
								"slot": "1",
								"type": "t_uint256"
							},
							{
								"astId": 311,
								"contract": "contracts/MMEXT.sol:MMEXT",
								"label": "createTime",
								"offset": 0,
								"slot": "2",
								"type": "t_uint256"
							},
							{
								"astId": 313,
								"contract": "contracts/MMEXT.sol:MMEXT",
								"label": "lastTime",
								"offset": 0,
								"slot": "3",
								"type": "t_uint256"
							}
						],
						"numberOfBytes": "128"
					},
					"t_struct(TransferOrder)332_storage": {
						"encoding": "inplace",
						"label": "struct IMMStore.TransferOrder",
						"members": [
							{
								"astId": 325,
								"contract": "contracts/MMEXT.sol:MMEXT",
								"label": "user",
								"offset": 0,
								"slot": "0",
								"type": "t_address"
							},
							{
								"astId": 327,
								"contract": "contracts/MMEXT.sol:MMEXT",
								"label": "amount",
								"offset": 0,
								"slot": "1",
								"type": "t_uint256"
							},
							{
								"astId": 329,
								"contract": "contracts/MMEXT.sol:MMEXT",
								"label": "number",
								"offset": 0,
								"slot": "2",
								"type": "t_uint256"
							},
							{
								"astId": 331,
								"contract": "contracts/MMEXT.sol:MMEXT",
								"label": "timestamp",
								"offset": 0,
								"slot": "3",
								"type": "t_uint256"
							}
						],
						"numberOfBytes": "128"
					},
					"t_uint256": {
						"encoding": "inplace",
						"label": "uint256",
						"numberOfBytes": "32"
					},
					"t_uint8": {
						"encoding": "inplace",
						"label": "uint8",
						"numberOfBytes": "1"
					}
				}
			},
			"userdoc": {
				"kind": "user",
				"methods": {},
				"version": 1
			}
		}
	}
}