{
	"data": {
		"bytecode": {
			"linkReferences": {},
			"object": "60a0604052306080525f60e755348015610017575f80fd5b50608051612b5161004c5f395f8181610ee201528181610f22015281816111460152818161118601526112010152612b515ff3fe608060405260043610610302575f3560e01c8063669934a911610196578063669934a91461070d57806366bf8f831461072c578063698518e51461074b5780636b1a9c0714610760578063715018a61461078257806372765009146107965780637634b070146107b5578063767608e2146107d4578063796f838e146107f3578063812df3951461081257806385adb29414610831578063863be1ab146108465780638a5705d4146108655780638da5cb5b1461087a5780638e10ef0b1461088e5780638f05cdf5146108a357806395623641146108c25780639a3135a8146108e1578063a03cc2a614610903578063a40b64d514610918578063b2cf085e14610937578063c4d66de814610956578063cde8574414610975578063dbe55e5614610994578063e3d9aa05146109b3578063e9d610e5146109d2578063eb2266bc146109f1578063ee787b1114610a10578063f2fde38b14610a25578063f765670414610a44578063f80183b214610a63578063f97fe09114610a82578063fe6dcdba14610aa1578063ff85807914610ac8575f80fd5b8063057d77811461030657806306394c9b1461034257806308f93bd8146103635780630b433a1214610382578063182d326e146103a557806319a2ef5f146103c65780631e56cfab146103e55780631e79aa0a1461040457806321596c2514610425578063254720b71461043a578063280e31cc146104815780632d8852ee146104ac5780632f48ab7d146104c15780633360364d146104e057806333f5780e146104ff57806335aed7781461051e5780633659cfe61461053d57806336e0cac61461055c57806339cbc405146105715780633b2c2e55146105865780633d08e5b3146105a5578063434f9736146105ba578063498c1e3c146105cf5780634b0bddd2146105ee5780634b21ddec1461060d5780634dd402341461062c5780634f1ef2861461064b5780635250c9b51461065e57806352d1902d1461067d578063570ca7351461069157806357629f82146106b05780635bff9787146106cf578063602e6623146106ee575b5f80fd5b348015610311575f80fd5b50610325610320366004612532565b610ae7565b6040516001600160a01b0390911681526020015b60405180910390f35b34801561034d575f80fd5b5061036161035c366004612564565b610b0f565b005b34801561036e575f80fd5b5061036161037d366004612532565b610b39565b34801561038d575f80fd5b5061039760e35481565b604051908152602001610339565b3480156103b0575f80fd5b506103b9610b98565b60405161033991906125bf565b3480156103d1575f80fd5b506103616103e0366004612532565b610c2b565b3480156103f0575f80fd5b5060d454610325906001600160a01b031681565b34801561040f575f80fd5b50610418610c81565b60405161033991906125ff565b348015610430575f80fd5b5061039760de5481565b348015610445575f80fd5b5061046c610454366004612532565b60df6020525f90815260409020805460019091015482565b60408051928352602083019190915201610339565b34801561048c575f80fd5b5061039761049b366004612564565b60e06020525f908152604090205481565b3480156104b7575f80fd5b5061039760e25481565b3480156104cc575f80fd5b5060c954610325906001600160a01b031681565b3480156104eb575f80fd5b506103616104fa366004612532565b610d72565b34801561050a575f80fd5b50610361610519366004612611565b610dc8565b348015610529575f80fd5b50610361610538366004612564565b610e65565b348015610548575f80fd5b50610361610557366004612564565b610ed8565b348015610567575f80fd5b5061039760d15481565b34801561057c575f80fd5b5061039760dd5481565b348015610591575f80fd5b506103616105a03660046126f9565b610f9f565b3480156105b0575f80fd5b5061039760e65481565b3480156105c5575f80fd5b5061039760d85481565b3480156105da575f80fd5b506103616105e9366004612532565b6110b4565b3480156105f9575f80fd5b50610361610608366004612758565b61110a565b348015610618575f80fd5b5060db54610325906001600160a01b031681565b348015610637575f80fd5b5060cc54610325906001600160a01b031681565b610361610659366004612791565b61113c565b348015610669575f80fd5b5060ce54610325906001600160a01b031681565b348015610688575f80fd5b506103976111f5565b34801561069c575f80fd5b5060e454610325906001600160a01b031681565b3480156106bb575f80fd5b506103616106ca366004612611565b6112a1565b3480156106da575f80fd5b5060ca54610325906001600160a01b031681565b3480156106f9575f80fd5b5060cd54610325906001600160a01b031681565b348015610718575f80fd5b50610361610727366004612564565b611357565b348015610737575f80fd5b50610361610746366004612532565b6113ca565b348015610756575f80fd5b5061039760d25481565b34801561076b575f80fd5b50610774611420565b604051610339929190612830565b34801561078d575f80fd5b5061036161153f565b3480156107a1575f80fd5b506103616107b0366004612532565b611552565b3480156107c0575f80fd5b506103616107cf366004612532565b6115a8565b3480156107df575f80fd5b506103616107ee366004612532565b6115fe565b3480156107fe575f80fd5b5061036161080d366004612532565b611654565b34801561081d575f80fd5b5061036161082c366004612854565b6116aa565b34801561083c575f80fd5b5061039760d65481565b348015610851575f80fd5b50610361610860366004612532565b61176a565b348015610870575f80fd5b5061039760d75481565b348015610885575f80fd5b506103256117c0565b348015610899575f80fd5b5061039760da5481565b3480156108ae575f80fd5b5060cb54610325906001600160a01b031681565b3480156108cd575f80fd5b5060d554610325906001600160a01b031681565b3480156108ec575f80fd5b506108f56117cf565b6040516103399291906128c4565b34801561090e575f80fd5b5061039760e75481565b348015610923575f80fd5b50610361610932366004612532565b611893565b348015610942575f80fd5b5060d054610325906001600160a01b031681565b348015610961575f80fd5b50610361610970366004612564565b6118e9565b348015610980575f80fd5b5061036161098f366004612564565b611d3e565b34801561099f575f80fd5b5060cf54610325906001600160a01b031681565b3480156109be575f80fd5b506103616109cd3660046128d6565b611db1565b3480156109dd575f80fd5b5060d354610325906001600160a01b031681565b3480156109fc575f80fd5b50610361610a0b366004612564565b611e0d565b348015610a1b575f80fd5b5061039760d95481565b348015610a30575f80fd5b50610361610a3f366004612564565b611e80565b348015610a4f575f80fd5b50610361610a5e366004612564565b611ef6565b348015610a6e575f80fd5b50610361610a7d366004612564565b611f69565b348015610a8d575f80fd5b5060dc54610325906001600160a01b031681565b348015610aac575f80fd5b5061032573f51446f195d697ed51235e7b382fc170503e197681565b348015610ad3575f80fd5b50610361610ae2366004612564565b611fdc565b60e18181548110610af6575f80fd5b5f918252602090912001546001600160a01b0316905081565b610b1761204f565b60e480546001600160a01b0319166001600160a01b0392909216919091179055565b335f90815260e5602052604090205460ff1680610b6e5750610b596117c0565b6001600160a01b0316336001600160a01b0316145b610b935760405162461bcd60e51b8152600401610b8a906128f6565b60405180910390fd5b60d255565b6040805160028082526060808301845292602083019080368337505060db5482519293506001600160a01b0316918391505f90610bd757610bd7612919565b6001600160a01b03928316602091820292909201015260dc54825191169082906001908110610c0857610c08612919565b60200260200101906001600160a01b031690816001600160a01b03168152505090565b335f90815260e5602052604090205460ff1680610c605750610c4b6117c0565b6001600160a01b0316336001600160a01b0316145b610c7c5760405162461bcd60e51b8152600401610b8a906128f6565b60dd55565b60408051600680825260e082019092526060916020820160c08036833701905050905060d754815f81518110610cb957610cb9612919565b60200260200101818152505060d85481600181518110610cdb57610cdb612919565b60200260200101818152505060d95481600281518110610cfd57610cfd612919565b60200260200101818152505060da5481600381518110610d1f57610d1f612919565b60200260200101818152505060dd5481600481518110610d4157610d41612919565b60200260200101818152505060de5481600581518110610d6357610d63612919565b60200260200101818152505090565b335f90815260e5602052604090205460ff1680610da75750610d926117c0565b6001600160a01b0316336001600160a01b0316145b610dc35760405162461bcd60e51b8152600401610b8a906128f6565b60d655565b335f90815260e5602052604090205460ff1680610dfd5750610de86117c0565b6001600160a01b0316336001600160a01b0316145b610e195760405162461bcd60e51b8152600401610b8a906128f6565b6001600160a01b039091165f81815260e0602052604081209290925560e1805460018101825592525f80516020612afc83398151915290910180546001600160a01b0319169091179055565b335f90815260e5602052604090205460ff1680610e9a5750610e856117c0565b6001600160a01b0316336001600160a01b0316145b610eb65760405162461bcd60e51b8152600401610b8a906128f6565b60d580546001600160a01b0319166001600160a01b0392909216919091179055565b6001600160a01b037f0000000000000000000000000000000000000000000000000000000000000000163003610f205760405162461bcd60e51b8152600401610b8a9061292d565b7f00000000000000000000000000000000000000000000000000000000000000006001600160a01b0316610f526120ae565b6001600160a01b031614610f785760405162461bcd60e51b8152600401610b8a90612966565b610f81816120c9565b604080515f80825260208201909252610f9c918391906120d1565b50565b335f90815260e5602052604090205460ff1680610fd45750610fbf6117c0565b6001600160a01b0316336001600160a01b0316145b610ff05760405162461bcd60e51b8152600401610b8a906128f6565b80518251146110305760405162461bcd60e51b815260206004820152600c60248201526b3632b733ba341032b93937b960a11b6044820152606401610b8a565b5f5b82518110156110af57604051806040016040528084838151811061105857611058612919565b6020026020010151815260200183838151811061107757611077612919565b6020908102919091018101519091525f83815260df825260409020825181559101516001909101556110a88161299f565b9050611032565b505050565b335f90815260e5602052604090205460ff16806110e957506110d46117c0565b6001600160a01b0316336001600160a01b0316145b6111055760405162461bcd60e51b8152600401610b8a906128f6565b60d955565b61111261204f565b6001600160a01b03919091165f90815260e560205260409020805460ff1916911515919091179055565b6001600160a01b037f00000000000000000000000000000000000000000000000000000000000000001630036111845760405162461bcd60e51b8152600401610b8a9061292d565b7f00000000000000000000000000000000000000000000000000000000000000006001600160a01b03166111b66120ae565b6001600160a01b0316146111dc5760405162461bcd60e51b8152600401610b8a90612966565b6111e5826120c9565b6111f1828260016120d1565b5050565b5f306001600160a01b037f0000000000000000000000000000000000000000000000000000000000000000161461128f5760405162461bcd60e51b815260206004820152603860248201527f555550535570677261646561626c653a206d757374206e6f742062652063616c6044820152771b1959081d1a1c9bdd59da0819195b1959d85d1958d85b1b60421b6064820152608401610b8a565b505f80516020612ab583398151915290565b335f90815260e5602052604090205460ff16806112d657506112c16117c0565b6001600160a01b0316336001600160a01b0316145b6112f25760405162461bcd60e51b8152600401610b8a906128f6565b60cc54604051632bb14fc160e11b81526001600160a01b03848116600483015260248201849052909116906357629f82906044015f604051808303815f87803b15801561133d575f80fd5b505af115801561134f573d5f803e3d5ffd5b505050505050565b335f90815260e5602052604090205460ff168061138c57506113776117c0565b6001600160a01b0316336001600160a01b0316145b6113a85760405162461bcd60e51b8152600401610b8a906128f6565b60d480546001600160a01b0319166001600160a01b0392909216919091179055565b335f90815260e5602052604090205460ff16806113ff57506113ea6117c0565b6001600160a01b0316336001600160a01b0316145b61141b5760405162461bcd60e51b8152600401610b8a906128f6565b60de55565b60608060e180548060200260200160405190810160405280929190818152602001828054801561147757602002820191905f5260205f20905b81546001600160a01b03168152600190910190602001808311611459575b5050505050915081516001600160401b0381111561149757611497612639565b6040519080825280602002602001820160405280156114c0578160200160208202803683370190505b5090505f5b825181101561153a5760e05f8483815181106114e3576114e3612919565b60200260200101516001600160a01b03166001600160a01b031681526020019081526020015f205482828151811061151d5761151d612919565b6020908102919091010152806115328161299f565b9150506114c5565b509091565b61154761204f565b6115505f61223b565b565b335f90815260e5602052604090205460ff168061158757506115726117c0565b6001600160a01b0316336001600160a01b0316145b6115a35760405162461bcd60e51b8152600401610b8a906128f6565b60d155565b335f90815260e5602052604090205460ff16806115dd57506115c86117c0565b6001600160a01b0316336001600160a01b0316145b6115f95760405162461bcd60e51b8152600401610b8a906128f6565b60e255565b335f90815260e5602052604090205460ff1680611633575061161e6117c0565b6001600160a01b0316336001600160a01b0316145b61164f5760405162461bcd60e51b8152600401610b8a906128f6565b60e655565b335f90815260e5602052604090205460ff168061168957506116746117c0565b6001600160a01b0316336001600160a01b0316145b6116a55760405162461bcd60e51b8152600401610b8a906128f6565b60e355565b335f90815260e5602052604090205460ff16806116df57506116ca6117c0565b6001600160a01b0316336001600160a01b0316145b6116fb5760405162461bcd60e51b8152600401610b8a906128f6565b60c980546001600160a01b03199081166001600160a01b039889161790915560cb805482169688169690961790955560ca805486169487169490941790935560cd805485169286169290921790915560cc8054841691851691909117905560ce80549092169216919091179055565b335f90815260e5602052604090205460ff168061179f575061178a6117c0565b6001600160a01b0316336001600160a01b0316145b6117bb5760405162461bcd60e51b8152600401610b8a906128f6565b60da55565b6033546001600160a01b031690565b60408051600480825260a0820190925260609182919060208201608080368337505060408051600480825260a082019092529294509050602082016080803683370190505090505f5b600481101561153a575f81815260df6020526040902054835184908390811061184357611843612919565b60200260200101818152505060df5f8281526020019081526020015f206001015482828151811061187657611876612919565b60209081029190910101528061188b8161299f565b915050611818565b335f90815260e5602052604090205460ff16806118c857506118b36117c0565b6001600160a01b0316336001600160a01b0316145b6118e45760405162461bcd60e51b8152600401610b8a906128f6565b60e755565b5f54610100900460ff161580801561190757505f54600160ff909116105b8061192757506119163061228c565b15801561192757505f5460ff166001145b61198a5760405162461bcd60e51b815260206004820152602e60248201527f496e697469616c697a61626c653a20636f6e747261637420697320616c72656160448201526d191e481a5b9a5d1a585b1a5e995960921b6064820152608401610b8a565b5f805460ff1916600117905580156119ab575f805461ff0019166101001790555b6119b361229b565b60e480546001600160a01b0384166001600160a01b03199182161790915560cf8054821673df9228fc02f4554cd80af6d036dade242022e4f217905560d080548216734076af4556458cdd0ad25e86ed23b4dc8437dce417905561038460d1556103e860d25560d38054821673fae25f1ae4b758d7c96d7eb075b62af4f3398b8917905560d480548216737fba7858083836d9169eb3be21a48189e1798c8e17905560d580548216732737ac6359664096f22863088246d885f14e6ff29081179091556801158e460913d0000060d65569014542ba12a337c0000060e655609660d755606460d881905560d981905560da5560db80548316909117905560dc8054821673b36f6361dcf31d0d7956e9e826a9915a5ddec272179055603260dd5569043c33c193756480000060de556040805180820182525f808252602080830182815282805260df80835293517f4b917336ba36fefa23b90074e126fe5413f0e3fc800e7ab1da217d9a2807b71155517f4b917336ba36fefa23b90074e126fe5413f0e3fc800e7ab1da217d9a2807b712558351808501855269021e19e0c9bab2400000815260c8818301908152600180855285845291517f55c38c42e971eeb957b61422467f67fa3b212021ac50a6b2b3d5acd9d01cb97d55517f55c38c42e971eeb957b61422467f67fa3b212021ac50a6b2b3d5acd9d01cb97e558451808601865269065a4da25d3016c00000815261015e8184019081526002855285845290517f36d20378f308040d39a8a5e0299048c5eb6a3e2af0aad6fc5cbd63dba6084c7555517f36d20378f308040d39a8a5e0299048c5eb6a3e2af0aad6fc5cbd63dba6084c7655845180860190955269152d02c7e14af680000085526101f4858301908152600380855294835294517f780609eda5e52d7936e75ead8ec77fc018859646a90304d10fb581006956b09e5593517f780609eda5e52d7936e75ead8ec77fc018859646a90304d10fb581006956b09f5560e090527f8c1b51b97da4a7d19a16112b2b5f6595497c2a9fa9d3658419a1a3a06f79af0e9190915560e18054928301815590525f80516020612afc83398151915201805490911673f51446f195d697ed51235e7b382fc170503e19761790556301e1338060e255603c60e35580156111f1575f805461ff0019169055604051600181527f7f26b83ff96e1f2b6a682f133852f6798a09c465da95921460cefb38474024989060200160405180910390a15050565b335f90815260e5602052604090205460ff1680611d735750611d5e6117c0565b6001600160a01b0316336001600160a01b0316145b611d8f5760405162461bcd60e51b8152600401610b8a906128f6565b60cf80546001600160a01b0319166001600160a01b0392909216919091179055565b335f90815260e5602052604090205460ff1680611de65750611dd16117c0565b6001600160a01b0316336001600160a01b0316145b611e025760405162461bcd60e51b8152600401610b8a906128f6565b60d79190915560d855565b335f90815260e5602052604090205460ff1680611e425750611e2d6117c0565b6001600160a01b0316336001600160a01b0316145b611e5e5760405162461bcd60e51b8152600401610b8a906128f6565b60dc80546001600160a01b0319166001600160a01b0392909216919091179055565b611e8861204f565b6001600160a01b038116611eed5760405162461bcd60e51b815260206004820152602660248201527f4f776e61626c653a206e6577206f776e657220697320746865207a65726f206160448201526564647265737360d01b6064820152608401610b8a565b610f9c8161223b565b335f90815260e5602052604090205460ff1680611f2b5750611f166117c0565b6001600160a01b0316336001600160a01b0316145b611f475760405162461bcd60e51b8152600401610b8a906128f6565b60d080546001600160a01b0319166001600160a01b0392909216919091179055565b335f90815260e5602052604090205460ff1680611f9e5750611f896117c0565b6001600160a01b0316336001600160a01b0316145b611fba5760405162461bcd60e51b8152600401610b8a906128f6565b60d380546001600160a01b0319166001600160a01b0392909216919091179055565b335f90815260e5602052604090205460ff16806120115750611ffc6117c0565b6001600160a01b0316336001600160a01b0316145b61202d5760405162461bcd60e51b8152600401610b8a906128f6565b60db80546001600160a01b0319166001600160a01b0392909216919091179055565b336120586117c0565b6001600160a01b0316146115505760405162461bcd60e51b815260206004820181905260248201527f4f776e61626c653a2063616c6c6572206973206e6f7420746865206f776e65726044820152606401610b8a565b5f80516020612ab5833981519152546001600160a01b031690565b610f9c61204f565b7f4910fdfa16fed3260ed0e7147f7cc6da11a60208b5b9406d12a635614ffd91435460ff1615612104576110af836122c9565b826001600160a01b03166352d1902d6040518163ffffffff1660e01b8152600401602060405180830381865afa92505050801561215e575060408051601f3d908101601f1916820190925261215b918101906129c3565b60015b6121c15760405162461bcd60e51b815260206004820152602e60248201527f45524331393637557067726164653a206e657720696d706c656d656e7461746960448201526d6f6e206973206e6f74205555505360901b6064820152608401610b8a565b5f80516020612ab5833981519152811461222f5760405162461bcd60e51b815260206004820152602960248201527f45524331393637557067726164653a20756e737570706f727465642070726f786044820152681a58589b195555525160ba1b6064820152608401610b8a565b506110af838383612362565b603380546001600160a01b038381166001600160a01b0319831681179093556040519116919082907f8be0079c531659141344cd1fd0a4f28419497f9722a3daafe3b4186f6b6457e0905f90a35050565b6001600160a01b03163b151590565b5f54610100900460ff166122c15760405162461bcd60e51b8152600401610b8a906129da565b61155061238c565b6122d28161228c565b6123345760405162461bcd60e51b815260206004820152602d60248201527f455243313936373a206e657720696d706c656d656e746174696f6e206973206e60448201526c1bdd08184818dbdb9d1c9858dd609a1b6064820152608401610b8a565b5f80516020612ab583398151915280546001600160a01b0319166001600160a01b0392909216919091179055565b61236b836123bb565b5f825111806123775750805b156110af5761238683836123fa565b50505050565b5f54610100900460ff166123b25760405162461bcd60e51b8152600401610b8a906129da565b6115503361223b565b6123c4816122c9565b6040516001600160a01b038216907fbc7cd75a20ee27fd9adebab32041f755214dbc6bffa90cc0225b39da2e5c2d3b905f90a250565b60606124058361228c565b6124605760405162461bcd60e51b815260206004820152602660248201527f416464726573733a2064656c65676174652063616c6c20746f206e6f6e2d636f6044820152651b9d1c9858dd60d21b6064820152608401610b8a565b5f80846001600160a01b03168460405161247a9190612a47565b5f60405180830381855af49150503d805f81146124b2576040519150601f19603f3d011682016040523d82523d5f602084013e6124b7565b606091505b50915091506124df8282604051806060016040528060278152602001612ad5602791396124e8565b95945050505050565b606083156124f7575081612501565b6125018383612508565b9392505050565b8151156125185781518083602001fd5b8060405162461bcd60e51b8152600401610b8a9190612a62565b5f60208284031215612542575f80fd5b5035919050565b80356001600160a01b038116811461255f575f80fd5b919050565b5f60208284031215612574575f80fd5b61250182612549565b5f8151808452602080850194508084015f5b838110156125b45781516001600160a01b03168752958201959082019060010161258f565b509495945050505050565b602081525f612501602083018461257d565b5f8151808452602080850194508084015f5b838110156125b4578151875295820195908201906001016125e3565b602081525f61250160208301846125d1565b5f8060408385031215612622575f80fd5b61262b83612549565b946020939093013593505050565b634e487b7160e01b5f52604160045260245ffd5b604051601f8201601f191681016001600160401b038111828210171561267557612675612639565b604052919050565b5f82601f83011261268c575f80fd5b813560206001600160401b038211156126a7576126a7612639565b8160051b6126b682820161264d565b92835284810182019282810190878511156126cf575f80fd5b83870192505b848310156126ee578235825291830191908301906126d5565b979650505050505050565b5f806040838503121561270a575f80fd5b82356001600160401b0380821115612720575f80fd5b61272c8683870161267d565b93506020850135915080821115612741575f80fd5b5061274e8582860161267d565b9150509250929050565b5f8060408385031215612769575f80fd5b61277283612549565b915060208301358015158114612786575f80fd5b809150509250929050565b5f80604083850312156127a2575f80fd5b6127ab83612549565b91506020838101356001600160401b03808211156127c7575f80fd5b818601915086601f8301126127da575f80fd5b8135818111156127ec576127ec612639565b6127fe601f8201601f1916850161264d565b91508082528784828501011115612813575f80fd5b80848401858401375f848284010152508093505050509250929050565b604081525f612842604083018561257d565b82810360208401526124df81856125d1565b5f805f805f8060c08789031215612869575f80fd5b61287287612549565b955061288060208801612549565b945061288e60408801612549565b935061289c60608801612549565b92506128aa60808801612549565b91506128b860a08801612549565b90509295509295509295565b604081525f61284260408301856125d1565b5f80604083850312156128e7575f80fd5b50508035926020909101359150565b6020808252600990820152683737ba1030b236b4b760b91b604082015260600190565b634e487b7160e01b5f52603260045260245ffd5b6020808252602c908201525f80516020612a9583398151915260408201526b19195b1959d85d1958d85b1b60a21b606082015260800190565b6020808252602c908201525f80516020612a9583398151915260408201526b6163746976652070726f787960a01b606082015260800190565b5f600182016129bc57634e487b7160e01b5f52601160045260245ffd5b5060010190565b5f602082840312156129d3575f80fd5b5051919050565b6020808252602b908201527f496e697469616c697a61626c653a20636f6e7472616374206973206e6f74206960408201526a6e697469616c697a696e6760a81b606082015260800190565b5f5b83811015612a3f578181015183820152602001612a27565b50505f910152565b5f8251612a58818460208701612a25565b9190910192915050565b602081525f8251806020840152612a80816040850160208701612a25565b601f01601f1916919091016040019291505056fe46756e6374696f6e206d7573742062652063616c6c6564207468726f75676820360894a13ba1a3210667c828492db98dca3e2076cc3735a920a3ca505d382bbc416464726573733a206c6f772d6c6576656c2064656c65676174652063616c6c206661696c65643efdd7a884ff9e18c9e5711c185aa6c5e413b68f23197997da5b1665ca978f99a2646970667358221220b11eb40ace0e272b0f6bc76f49fec165f3ea9109ca821ac571ab1e243916758364736f6c63430008140033",
			"opcodes": "PUSH1 0xA0 PUSH1 0x40 MSTORE ADDRESS PUSH1 0x80 MSTORE PUSH0 PUSH1 0xE7 SSTORE CALLVALUE DUP1 ISZERO PUSH2 0x17 JUMPI PUSH0 DUP1 REVERT JUMPDEST POP PUSH1 0x80 MLOAD PUSH2 0x2B51 PUSH2 0x4C PUSH0 CODECOPY PUSH0 DUP2 DUP2 PUSH2 0xEE2 ADD MSTORE DUP2 DUP2 PUSH2 0xF22 ADD MSTORE DUP2 DUP2 PUSH2 0x1146 ADD MSTORE DUP2 DUP2 PUSH2 0x1186 ADD MSTORE PUSH2 0x1201 ADD MSTORE PUSH2 0x2B51 PUSH0 RETURN INVALID PUSH1 0x80 PUSH1 0x40 MSTORE PUSH1 0x4 CALLDATASIZE LT PUSH2 0x302 JUMPI PUSH0 CALLDATALOAD PUSH1 0xE0 SHR DUP1 PUSH4 0x669934A9 GT PUSH2 0x196 JUMPI DUP1 PUSH4 0x669934A9 EQ PUSH2 0x70D JUMPI DUP1 PUSH4 0x66BF8F83 EQ PUSH2 0x72C JUMPI DUP1 PUSH4 0x698518E5 EQ PUSH2 0x74B JUMPI DUP1 PUSH4 0x6B1A9C07 EQ PUSH2 0x760 JUMPI DUP1 PUSH4 0x715018A6 EQ PUSH2 0x782 JUMPI DUP1 PUSH4 0x72765009 EQ PUSH2 0x796 JUMPI DUP1 PUSH4 0x7634B070 EQ PUSH2 0x7B5 JUMPI DUP1 PUSH4 0x767608E2 EQ PUSH2 0x7D4 JUMPI DUP1 PUSH4 0x796F838E EQ PUSH2 0x7F3 JUMPI DUP1 PUSH4 0x812DF395 EQ PUSH2 0x812 JUMPI DUP1 PUSH4 0x85ADB294 EQ PUSH2 0x831 JUMPI DUP1 PUSH4 0x863BE1AB EQ PUSH2 0x846 JUMPI DUP1 PUSH4 0x8A5705D4 EQ PUSH2 0x865 JUMPI DUP1 PUSH4 0x8DA5CB5B EQ PUSH2 0x87A JUMPI DUP1 PUSH4 0x8E10EF0B EQ PUSH2 0x88E JUMPI DUP1 PUSH4 0x8F05CDF5 EQ PUSH2 0x8A3 JUMPI DUP1 PUSH4 0x95623641 EQ PUSH2 0x8C2 JUMPI DUP1 PUSH4 0x9A3135A8 EQ PUSH2 0x8E1 JUMPI DUP1 PUSH4 0xA03CC2A6 EQ PUSH2 0x903 JUMPI DUP1 PUSH4 0xA40B64D5 EQ PUSH2 0x918 JUMPI DUP1 PUSH4 0xB2CF085E EQ PUSH2 0x937 JUMPI DUP1 PUSH4 0xC4D66DE8 EQ PUSH2 0x956 JUMPI DUP1 PUSH4 0xCDE85744 EQ PUSH2 0x975 JUMPI DUP1 PUSH4 0xDBE55E56 EQ PUSH2 0x994 JUMPI DUP1 PUSH4 0xE3D9AA05 EQ PUSH2 0x9B3 JUMPI DUP1 PUSH4 0xE9D610E5 EQ PUSH2 0x9D2 JUMPI DUP1 PUSH4 0xEB2266BC EQ PUSH2 0x9F1 JUMPI DUP1 PUSH4 0xEE787B11 EQ PUSH2 0xA10 JUMPI DUP1 PUSH4 0xF2FDE38B EQ PUSH2 0xA25 JUMPI DUP1 PUSH4 0xF7656704 EQ PUSH2 0xA44 JUMPI DUP1 PUSH4 0xF80183B2 EQ PUSH2 0xA63 JUMPI DUP1 PUSH4 0xF97FE091 EQ PUSH2 0xA82 JUMPI DUP1 PUSH4 0xFE6DCDBA EQ PUSH2 0xAA1 JUMPI DUP1 PUSH4 0xFF858079 EQ PUSH2 0xAC8 JUMPI PUSH0 DUP1 REVERT JUMPDEST DUP1 PUSH4 0x57D7781 EQ PUSH2 0x306 JUMPI DUP1 PUSH4 0x6394C9B EQ PUSH2 0x342 JUMPI DUP1 PUSH4 0x8F93BD8 EQ PUSH2 0x363 JUMPI DUP1 PUSH4 0xB433A12 EQ PUSH2 0x382 JUMPI DUP1 PUSH4 0x182D326E EQ PUSH2 0x3A5 JUMPI DUP1 PUSH4 0x19A2EF5F EQ PUSH2 0x3C6 JUMPI DUP1 PUSH4 0x1E56CFAB EQ PUSH2 0x3E5 JUMPI DUP1 PUSH4 0x1E79AA0A EQ PUSH2 0x404 JUMPI DUP1 PUSH4 0x21596C25 EQ PUSH2 0x425 JUMPI DUP1 PUSH4 0x254720B7 EQ PUSH2 0x43A JUMPI DUP1 PUSH4 0x280E31CC EQ PUSH2 0x481 JUMPI DUP1 PUSH4 0x2D8852EE EQ PUSH2 0x4AC JUMPI DUP1 PUSH4 0x2F48AB7D EQ PUSH2 0x4C1 JUMPI DUP1 PUSH4 0x3360364D EQ PUSH2 0x4E0 JUMPI DUP1 PUSH4 0x33F5780E EQ PUSH2 0x4FF JUMPI DUP1 PUSH4 0x35AED778 EQ PUSH2 0x51E JUMPI DUP1 PUSH4 0x3659CFE6 EQ PUSH2 0x53D JUMPI DUP1 PUSH4 0x36E0CAC6 EQ PUSH2 0x55C JUMPI DUP1 PUSH4 0x39CBC405 EQ PUSH2 0x571 JUMPI DUP1 PUSH4 0x3B2C2E55 EQ PUSH2 0x586 JUMPI DUP1 PUSH4 0x3D08E5B3 EQ PUSH2 0x5A5 JUMPI DUP1 PUSH4 0x434F9736 EQ PUSH2 0x5BA JUMPI DUP1 PUSH4 0x498C1E3C EQ PUSH2 0x5CF JUMPI DUP1 PUSH4 0x4B0BDDD2 EQ PUSH2 0x5EE JUMPI DUP1 PUSH4 0x4B21DDEC EQ PUSH2 0x60D JUMPI DUP1 PUSH4 0x4DD40234 EQ PUSH2 0x62C JUMPI DUP1 PUSH4 0x4F1EF286 EQ PUSH2 0x64B JUMPI DUP1 PUSH4 0x5250C9B5 EQ PUSH2 0x65E JUMPI DUP1 PUSH4 0x52D1902D EQ PUSH2 0x67D JUMPI DUP1 PUSH4 0x570CA735 EQ PUSH2 0x691 JUMPI DUP1 PUSH4 0x57629F82 EQ PUSH2 0x6B0 JUMPI DUP1 PUSH4 0x5BFF9787 EQ PUSH2 0x6CF JUMPI DUP1 PUSH4 0x602E6623 EQ PUSH2 0x6EE JUMPI JUMPDEST PUSH0 DUP1 REVERT JUMPDEST CALLVALUE DUP1 ISZERO PUSH2 0x311 JUMPI PUSH0 DUP1 REVERT JUMPDEST POP PUSH2 0x325 PUSH2 0x320 CALLDATASIZE PUSH1 0x4 PUSH2 0x2532 JUMP JUMPDEST PUSH2 0xAE7 JUMP JUMPDEST PUSH1 0x40 MLOAD PUSH1 0x1 PUSH1 0x1 PUSH1 0xA0 SHL SUB SWAP1 SWAP2 AND DUP2 MSTORE PUSH1 0x20 ADD JUMPDEST PUSH1 0x40 MLOAD DUP1 SWAP2 SUB SWAP1 RETURN JUMPDEST CALLVALUE DUP1 ISZERO PUSH2 0x34D JUMPI PUSH0 DUP1 REVERT JUMPDEST POP PUSH2 0x361 PUSH2 0x35C CALLDATASIZE PUSH1 0x4 PUSH2 0x2564 JUMP JUMPDEST PUSH2 0xB0F JUMP JUMPDEST STOP JUMPDEST CALLVALUE DUP1 ISZERO PUSH2 0x36E JUMPI PUSH0 DUP1 REVERT JUMPDEST POP PUSH2 0x361 PUSH2 0x37D CALLDATASIZE PUSH1 0x4 PUSH2 0x2532 JUMP JUMPDEST PUSH2 0xB39 JUMP JUMPDEST CALLVALUE DUP1 ISZERO PUSH2 0x38D JUMPI PUSH0 DUP1 REVERT JUMPDEST POP PUSH2 0x397 PUSH1 0xE3 SLOAD DUP2 JUMP JUMPDEST PUSH1 0x40 MLOAD SWAP1 DUP2 MSTORE PUSH1 0x20 ADD PUSH2 0x339 JUMP JUMPDEST CALLVALUE DUP1 ISZERO PUSH2 0x3B0 JUMPI PUSH0 DUP1 REVERT JUMPDEST POP PUSH2 0x3B9 PUSH2 0xB98 JUMP JUMPDEST PUSH1 0x40 MLOAD PUSH2 0x339 SWAP2 SWAP1 PUSH2 0x25BF JUMP JUMPDEST CALLVALUE DUP1 ISZERO PUSH2 0x3D1 JUMPI PUSH0 DUP1 REVERT JUMPDEST POP PUSH2 0x361 PUSH2 0x3E0 CALLDATASIZE PUSH1 0x4 PUSH2 0x2532 JUMP JUMPDEST PUSH2 0xC2B JUMP JUMPDEST CALLVALUE DUP1 ISZERO PUSH2 0x3F0 JUMPI PUSH0 DUP1 REVERT JUMPDEST POP PUSH1 0xD4 SLOAD PUSH2 0x325 SWAP1 PUSH1 0x1 PUSH1 0x1 PUSH1 0xA0 SHL SUB AND DUP2 JUMP JUMPDEST CALLVALUE DUP1 ISZERO PUSH2 0x40F JUMPI PUSH0 DUP1 REVERT JUMPDEST POP PUSH2 0x418 PUSH2 0xC81 JUMP JUMPDEST PUSH1 0x40 MLOAD PUSH2 0x339 SWAP2 SWAP1 PUSH2 0x25FF JUMP JUMPDEST CALLVALUE DUP1 ISZERO PUSH2 0x430 JUMPI PUSH0 DUP1 REVERT JUMPDEST POP PUSH2 0x397 PUSH1 0xDE SLOAD DUP2 JUMP JUMPDEST CALLVALUE DUP1 ISZERO PUSH2 0x445 JUMPI PUSH0 DUP1 REVERT JUMPDEST POP PUSH2 0x46C PUSH2 0x454 CALLDATASIZE PUSH1 0x4 PUSH2 0x2532 JUMP JUMPDEST PUSH1 0xDF PUSH1 0x20 MSTORE PUSH0 SWAP1 DUP2 MSTORE PUSH1 0x40 SWAP1 KECCAK256 DUP1 SLOAD PUSH1 0x1 SWAP1 SWAP2 ADD SLOAD DUP3 JUMP JUMPDEST PUSH1 0x40 DUP1 MLOAD SWAP3 DUP4 MSTORE PUSH1 0x20 DUP4 ADD SWAP2 SWAP1 SWAP2 MSTORE ADD PUSH2 0x339 JUMP JUMPDEST CALLVALUE DUP1 ISZERO PUSH2 0x48C JUMPI PUSH0 DUP1 REVERT JUMPDEST POP PUSH2 0x397 PUSH2 0x49B CALLDATASIZE PUSH1 0x4 PUSH2 0x2564 JUMP JUMPDEST PUSH1 0xE0 PUSH1 0x20 MSTORE PUSH0 SWAP1 DUP2 MSTORE PUSH1 0x40 SWAP1 KECCAK256 SLOAD DUP2 JUMP JUMPDEST CALLVALUE DUP1 ISZERO PUSH2 0x4B7 JUMPI PUSH0 DUP1 REVERT JUMPDEST POP PUSH2 0x397 PUSH1 0xE2 SLOAD DUP2 JUMP JUMPDEST CALLVALUE DUP1 ISZERO PUSH2 0x4CC JUMPI PUSH0 DUP1 REVERT JUMPDEST POP PUSH1 0xC9 SLOAD PUSH2 0x325 SWAP1 PUSH1 0x1 PUSH1 0x1 PUSH1 0xA0 SHL SUB AND DUP2 JUMP JUMPDEST CALLVALUE DUP1 ISZERO PUSH2 0x4EB JUMPI PUSH0 DUP1 REVERT JUMPDEST POP PUSH2 0x361 PUSH2 0x4FA CALLDATASIZE PUSH1 0x4 PUSH2 0x2532 JUMP JUMPDEST PUSH2 0xD72 JUMP JUMPDEST CALLVALUE DUP1 ISZERO PUSH2 0x50A JUMPI PUSH0 DUP1 REVERT JUMPDEST POP PUSH2 0x361 PUSH2 0x519 CALLDATASIZE PUSH1 0x4 PUSH2 0x2611 JUMP JUMPDEST PUSH2 0xDC8 JUMP JUMPDEST CALLVALUE DUP1 ISZERO PUSH2 0x529 JUMPI PUSH0 DUP1 REVERT JUMPDEST POP PUSH2 0x361 PUSH2 0x538 CALLDATASIZE PUSH1 0x4 PUSH2 0x2564 JUMP JUMPDEST PUSH2 0xE65 JUMP JUMPDEST CALLVALUE DUP1 ISZERO PUSH2 0x548 JUMPI PUSH0 DUP1 REVERT JUMPDEST POP PUSH2 0x361 PUSH2 0x557 CALLDATASIZE PUSH1 0x4 PUSH2 0x2564 JUMP JUMPDEST PUSH2 0xED8 JUMP JUMPDEST CALLVALUE DUP1 ISZERO PUSH2 0x567 JUMPI PUSH0 DUP1 REVERT JUMPDEST POP PUSH2 0x397 PUSH1 0xD1 SLOAD DUP2 JUMP JUMPDEST CALLVALUE DUP1 ISZERO PUSH2 0x57C JUMPI PUSH0 DUP1 REVERT JUMPDEST POP PUSH2 0x397 PUSH1 0xDD SLOAD DUP2 JUMP JUMPDEST CALLVALUE DUP1 ISZERO PUSH2 0x591 JUMPI PUSH0 DUP1 REVERT JUMPDEST POP PUSH2 0x361 PUSH2 0x5A0 CALLDATASIZE PUSH1 0x4 PUSH2 0x26F9 JUMP JUMPDEST PUSH2 0xF9F JUMP JUMPDEST CALLVALUE DUP1 ISZERO PUSH2 0x5B0 JUMPI PUSH0 DUP1 REVERT JUMPDEST POP PUSH2 0x397 PUSH1 0xE6 SLOAD DUP2 JUMP JUMPDEST CALLVALUE DUP1 ISZERO PUSH2 0x5C5 JUMPI PUSH0 DUP1 REVERT JUMPDEST POP PUSH2 0x397 PUSH1 0xD8 SLOAD DUP2 JUMP JUMPDEST CALLVALUE DUP1 ISZERO PUSH2 0x5DA JUMPI PUSH0 DUP1 REVERT JUMPDEST POP PUSH2 0x361 PUSH2 0x5E9 CALLDATASIZE PUSH1 0x4 PUSH2 0x2532 JUMP JUMPDEST PUSH2 0x10B4 JUMP JUMPDEST CALLVALUE DUP1 ISZERO PUSH2 0x5F9 JUMPI PUSH0 DUP1 REVERT JUMPDEST POP PUSH2 0x361 PUSH2 0x608 CALLDATASIZE PUSH1 0x4 PUSH2 0x2758 JUMP JUMPDEST PUSH2 0x110A JUMP JUMPDEST CALLVALUE DUP1 ISZERO PUSH2 0x618 JUMPI PUSH0 DUP1 REVERT JUMPDEST POP PUSH1 0xDB SLOAD PUSH2 0x325 SWAP1 PUSH1 0x1 PUSH1 0x1 PUSH1 0xA0 SHL SUB AND DUP2 JUMP JUMPDEST CALLVALUE DUP1 ISZERO PUSH2 0x637 JUMPI PUSH0 DUP1 REVERT JUMPDEST POP PUSH1 0xCC SLOAD PUSH2 0x325 SWAP1 PUSH1 0x1 PUSH1 0x1 PUSH1 0xA0 SHL SUB AND DUP2 JUMP JUMPDEST PUSH2 0x361 PUSH2 0x659 CALLDATASIZE PUSH1 0x4 PUSH2 0x2791 JUMP JUMPDEST PUSH2 0x113C JUMP JUMPDEST CALLVALUE DUP1 ISZERO PUSH2 0x669 JUMPI PUSH0 DUP1 REVERT JUMPDEST POP PUSH1 0xCE SLOAD PUSH2 0x325 SWAP1 PUSH1 0x1 PUSH1 0x1 PUSH1 0xA0 SHL SUB AND DUP2 JUMP JUMPDEST CALLVALUE DUP1 ISZERO PUSH2 0x688 JUMPI PUSH0 DUP1 REVERT JUMPDEST POP PUSH2 0x397 PUSH2 0x11F5 JUMP JUMPDEST CALLVALUE DUP1 ISZERO PUSH2 0x69C JUMPI PUSH0 DUP1 REVERT JUMPDEST POP PUSH1 0xE4 SLOAD PUSH2 0x325 SWAP1 PUSH1 0x1 PUSH1 0x1 PUSH1 0xA0 SHL SUB AND DUP2 JUMP JUMPDEST CALLVALUE DUP1 ISZERO PUSH2 0x6BB JUMPI PUSH0 DUP1 REVERT JUMPDEST POP PUSH2 0x361 PUSH2 0x6CA CALLDATASIZE PUSH1 0x4 PUSH2 0x2611 JUMP JUMPDEST PUSH2 0x12A1 JUMP JUMPDEST CALLVALUE DUP1 ISZERO PUSH2 0x6DA JUMPI PUSH0 DUP1 REVERT JUMPDEST POP PUSH1 0xCA SLOAD PUSH2 0x325 SWAP1 PUSH1 0x1 PUSH1 0x1 PUSH1 0xA0 SHL SUB AND DUP2 JUMP JUMPDEST CALLVALUE DUP1 ISZERO PUSH2 0x6F9 JUMPI PUSH0 DUP1 REVERT JUMPDEST POP PUSH1 0xCD SLOAD PUSH2 0x325 SWAP1 PUSH1 0x1 PUSH1 0x1 PUSH1 0xA0 SHL SUB AND DUP2 JUMP JUMPDEST CALLVALUE DUP1 ISZERO PUSH2 0x718 JUMPI PUSH0 DUP1 REVERT JUMPDEST POP PUSH2 0x361 PUSH2 0x727 CALLDATASIZE PUSH1 0x4 PUSH2 0x2564 JUMP JUMPDEST PUSH2 0x1357 JUMP JUMPDEST CALLVALUE DUP1 ISZERO PUSH2 0x737 JUMPI PUSH0 DUP1 REVERT JUMPDEST POP PUSH2 0x361 PUSH2 0x746 CALLDATASIZE PUSH1 0x4 PUSH2 0x2532 JUMP JUMPDEST PUSH2 0x13CA JUMP JUMPDEST CALLVALUE DUP1 ISZERO PUSH2 0x756 JUMPI PUSH0 DUP1 REVERT JUMPDEST POP PUSH2 0x397 PUSH1 0xD2 SLOAD DUP2 JUMP JUMPDEST CALLVALUE DUP1 ISZERO PUSH2 0x76B JUMPI PUSH0 DUP1 REVERT JUMPDEST POP PUSH2 0x774 PUSH2 0x1420 JUMP JUMPDEST PUSH1 0x40 MLOAD PUSH2 0x339 SWAP3 SWAP2 SWAP1 PUSH2 0x2830 JUMP JUMPDEST CALLVALUE DUP1 ISZERO PUSH2 0x78D JUMPI PUSH0 DUP1 REVERT JUMPDEST POP PUSH2 0x361 PUSH2 0x153F JUMP JUMPDEST CALLVALUE DUP1 ISZERO PUSH2 0x7A1 JUMPI PUSH0 DUP1 REVERT JUMPDEST POP PUSH2 0x361 PUSH2 0x7B0 CALLDATASIZE PUSH1 0x4 PUSH2 0x2532 JUMP JUMPDEST PUSH2 0x1552 JUMP JUMPDEST CALLVALUE DUP1 ISZERO PUSH2 0x7C0 JUMPI PUSH0 DUP1 REVERT JUMPDEST POP PUSH2 0x361 PUSH2 0x7CF CALLDATASIZE PUSH1 0x4 PUSH2 0x2532 JUMP JUMPDEST PUSH2 0x15A8 JUMP JUMPDEST CALLVALUE DUP1 ISZERO PUSH2 0x7DF JUMPI PUSH0 DUP1 REVERT JUMPDEST POP PUSH2 0x361 PUSH2 0x7EE CALLDATASIZE PUSH1 0x4 PUSH2 0x2532 JUMP JUMPDEST PUSH2 0x15FE JUMP JUMPDEST CALLVALUE DUP1 ISZERO PUSH2 0x7FE JUMPI PUSH0 DUP1 REVERT JUMPDEST POP PUSH2 0x361 PUSH2 0x80D CALLDATASIZE PUSH1 0x4 PUSH2 0x2532 JUMP JUMPDEST PUSH2 0x1654 JUMP JUMPDEST CALLVALUE DUP1 ISZERO PUSH2 0x81D JUMPI PUSH0 DUP1 REVERT JUMPDEST POP PUSH2 0x361 PUSH2 0x82C CALLDATASIZE PUSH1 0x4 PUSH2 0x2854 JUMP JUMPDEST PUSH2 0x16AA JUMP JUMPDEST CALLVALUE DUP1 ISZERO PUSH2 0x83C JUMPI PUSH0 DUP1 REVERT JUMPDEST POP PUSH2 0x397 PUSH1 0xD6 SLOAD DUP2 JUMP JUMPDEST CALLVALUE DUP1 ISZERO PUSH2 0x851 JUMPI PUSH0 DUP1 REVERT JUMPDEST POP PUSH2 0x361 PUSH2 0x860 CALLDATASIZE PUSH1 0x4 PUSH2 0x2532 JUMP JUMPDEST PUSH2 0x176A JUMP JUMPDEST CALLVALUE DUP1 ISZERO PUSH2 0x870 JUMPI PUSH0 DUP1 REVERT JUMPDEST POP PUSH2 0x397 PUSH1 0xD7 SLOAD DUP2 JUMP JUMPDEST CALLVALUE DUP1 ISZERO PUSH2 0x885 JUMPI PUSH0 DUP1 REVERT JUMPDEST POP PUSH2 0x325 PUSH2 0x17C0 JUMP JUMPDEST CALLVALUE DUP1 ISZERO PUSH2 0x899 JUMPI PUSH0 DUP1 REVERT JUMPDEST POP PUSH2 0x397 PUSH1 0xDA SLOAD DUP2 JUMP JUMPDEST CALLVALUE DUP1 ISZERO PUSH2 0x8AE JUMPI PUSH0 DUP1 REVERT JUMPDEST POP PUSH1 0xCB SLOAD PUSH2 0x325 SWAP1 PUSH1 0x1 PUSH1 0x1 PUSH1 0xA0 SHL SUB AND DUP2 JUMP JUMPDEST CALLVALUE DUP1 ISZERO PUSH2 0x8CD JUMPI PUSH0 DUP1 REVERT JUMPDEST POP PUSH1 0xD5 SLOAD PUSH2 0x325 SWAP1 PUSH1 0x1 PUSH1 0x1 PUSH1 0xA0 SHL SUB AND DUP2 JUMP JUMPDEST CALLVALUE DUP1 ISZERO PUSH2 0x8EC JUMPI PUSH0 DUP1 REVERT JUMPDEST POP PUSH2 0x8F5 PUSH2 0x17CF JUMP JUMPDEST PUSH1 0x40 MLOAD PUSH2 0x339 SWAP3 SWAP2 SWAP1 PUSH2 0x28C4 JUMP JUMPDEST CALLVALUE DUP1 ISZERO PUSH2 0x90E JUMPI PUSH0 DUP1 REVERT JUMPDEST POP PUSH2 0x397 PUSH1 0xE7 SLOAD DUP2 JUMP JUMPDEST CALLVALUE DUP1 ISZERO PUSH2 0x923 JUMPI PUSH0 DUP1 REVERT JUMPDEST POP PUSH2 0x361 PUSH2 0x932 CALLDATASIZE PUSH1 0x4 PUSH2 0x2532 JUMP JUMPDEST PUSH2 0x1893 JUMP JUMPDEST CALLVALUE DUP1 ISZERO PUSH2 0x942 JUMPI PUSH0 DUP1 REVERT JUMPDEST POP PUSH1 0xD0 SLOAD PUSH2 0x325 SWAP1 PUSH1 0x1 PUSH1 0x1 PUSH1 0xA0 SHL SUB AND DUP2 JUMP JUMPDEST CALLVALUE DUP1 ISZERO PUSH2 0x961 JUMPI PUSH0 DUP1 REVERT JUMPDEST POP PUSH2 0x361 PUSH2 0x970 CALLDATASIZE PUSH1 0x4 PUSH2 0x2564 JUMP JUMPDEST PUSH2 0x18E9 JUMP JUMPDEST CALLVALUE DUP1 ISZERO PUSH2 0x980 JUMPI PUSH0 DUP1 REVERT JUMPDEST POP PUSH2 0x361 PUSH2 0x98F CALLDATASIZE PUSH1 0x4 PUSH2 0x2564 JUMP JUMPDEST PUSH2 0x1D3E JUMP JUMPDEST CALLVALUE DUP1 ISZERO PUSH2 0x99F JUMPI PUSH0 DUP1 REVERT JUMPDEST POP PUSH1 0xCF SLOAD PUSH2 0x325 SWAP1 PUSH1 0x1 PUSH1 0x1 PUSH1 0xA0 SHL SUB AND DUP2 JUMP JUMPDEST CALLVALUE DUP1 ISZERO PUSH2 0x9BE JUMPI PUSH0 DUP1 REVERT JUMPDEST POP PUSH2 0x361 PUSH2 0x9CD CALLDATASIZE PUSH1 0x4 PUSH2 0x28D6 JUMP JUMPDEST PUSH2 0x1DB1 JUMP JUMPDEST CALLVALUE DUP1 ISZERO PUSH2 0x9DD JUMPI PUSH0 DUP1 REVERT JUMPDEST POP PUSH1 0xD3 SLOAD PUSH2 0x325 SWAP1 PUSH1 0x1 PUSH1 0x1 PUSH1 0xA0 SHL SUB AND DUP2 JUMP JUMPDEST CALLVALUE DUP1 ISZERO PUSH2 0x9FC JUMPI PUSH0 DUP1 REVERT JUMPDEST POP PUSH2 0x361 PUSH2 0xA0B CALLDATASIZE PUSH1 0x4 PUSH2 0x2564 JUMP JUMPDEST PUSH2 0x1E0D JUMP JUMPDEST CALLVALUE DUP1 ISZERO PUSH2 0xA1B JUMPI PUSH0 DUP1 REVERT JUMPDEST POP PUSH2 0x397 PUSH1 0xD9 SLOAD DUP2 JUMP JUMPDEST CALLVALUE DUP1 ISZERO PUSH2 0xA30 JUMPI PUSH0 DUP1 REVERT JUMPDEST POP PUSH2 0x361 PUSH2 0xA3F CALLDATASIZE PUSH1 0x4 PUSH2 0x2564 JUMP JUMPDEST PUSH2 0x1E80 JUMP JUMPDEST CALLVALUE DUP1 ISZERO PUSH2 0xA4F JUMPI PUSH0 DUP1 REVERT JUMPDEST POP PUSH2 0x361 PUSH2 0xA5E CALLDATASIZE PUSH1 0x4 PUSH2 0x2564 JUMP JUMPDEST PUSH2 0x1EF6 JUMP JUMPDEST CALLVALUE DUP1 ISZERO PUSH2 0xA6E JUMPI PUSH0 DUP1 REVERT JUMPDEST POP PUSH2 0x361 PUSH2 0xA7D CALLDATASIZE PUSH1 0x4 PUSH2 0x2564 JUMP JUMPDEST PUSH2 0x1F69 JUMP JUMPDEST CALLVALUE DUP1 ISZERO PUSH2 0xA8D JUMPI PUSH0 DUP1 REVERT JUMPDEST POP PUSH1 0xDC SLOAD PUSH2 0x325 SWAP1 PUSH1 0x1 PUSH1 0x1 PUSH1 0xA0 SHL SUB AND DUP2 JUMP JUMPDEST CALLVALUE DUP1 ISZERO PUSH2 0xAAC JUMPI PUSH0 DUP1 REVERT JUMPDEST POP PUSH2 0x325 PUSH20 0xF51446F195D697ED51235E7B382FC170503E1976 DUP2 JUMP JUMPDEST CALLVALUE DUP1 ISZERO PUSH2 0xAD3 JUMPI PUSH0 DUP1 REVERT JUMPDEST POP PUSH2 0x361 PUSH2 0xAE2 CALLDATASIZE PUSH1 0x4 PUSH2 0x2564 JUMP JUMPDEST PUSH2 0x1FDC JUMP JUMPDEST PUSH1 0xE1 DUP2 DUP2 SLOAD DUP2 LT PUSH2 0xAF6 JUMPI PUSH0 DUP1 REVERT JUMPDEST PUSH0 SWAP2 DUP3 MSTORE PUSH1 0x20 SWAP1 SWAP2 KECCAK256 ADD SLOAD PUSH1 0x1 PUSH1 0x1 PUSH1 0xA0 SHL SUB AND SWAP1 POP DUP2 JUMP JUMPDEST PUSH2 0xB17 PUSH2 0x204F JUMP JUMPDEST PUSH1 0xE4 DUP1 SLOAD PUSH1 0x1 PUSH1 0x1 PUSH1 0xA0 SHL SUB NOT AND PUSH1 0x1 PUSH1 0x1 PUSH1 0xA0 SHL SUB SWAP3 SWAP1 SWAP3 AND SWAP2 SWAP1 SWAP2 OR SWAP1 SSTORE JUMP JUMPDEST CALLER PUSH0 SWAP1 DUP2 MSTORE PUSH1 0xE5 PUSH1 0x20 MSTORE PUSH1 0x40 SWAP1 KECCAK256 SLOAD PUSH1 0xFF AND DUP1 PUSH2 0xB6E JUMPI POP PUSH2 0xB59 PUSH2 0x17C0 JUMP JUMPDEST PUSH1 0x1 PUSH1 0x1 PUSH1 0xA0 SHL SUB AND CALLER PUSH1 0x1 PUSH1 0x1 PUSH1 0xA0 SHL SUB AND EQ JUMPDEST PUSH2 0xB93 JUMPI PUSH1 0x40 MLOAD PUSH3 0x461BCD PUSH1 0xE5 SHL DUP2 MSTORE PUSH1 0x4 ADD PUSH2 0xB8A SWAP1 PUSH2 0x28F6 JUMP JUMPDEST PUSH1 0x40 MLOAD DUP1 SWAP2 SUB SWAP1 REVERT JUMPDEST PUSH1 0xD2 SSTORE JUMP JUMPDEST PUSH1 0x40 DUP1 MLOAD PUSH1 0x2 DUP1 DUP3 MSTORE PUSH1 0x60 DUP1 DUP4 ADD DUP5 MSTORE SWAP3 PUSH1 0x20 DUP4 ADD SWAP1 DUP1 CALLDATASIZE DUP4 CALLDATACOPY POP POP PUSH1 0xDB SLOAD DUP3 MLOAD SWAP3 SWAP4 POP PUSH1 0x1 PUSH1 0x1 PUSH1 0xA0 SHL SUB AND SWAP2 DUP4 SWAP2 POP PUSH0 SWAP1 PUSH2 0xBD7 JUMPI PUSH2 0xBD7 PUSH2 0x2919 JUMP JUMPDEST PUSH1 0x1 PUSH1 0x1 PUSH1 0xA0 SHL SUB SWAP3 DUP4 AND PUSH1 0x20 SWAP2 DUP3 MUL SWAP3 SWAP1 SWAP3 ADD ADD MSTORE PUSH1 0xDC SLOAD DUP3 MLOAD SWAP2 AND SWAP1 DUP3 SWAP1 PUSH1 0x1 SWAP1 DUP2 LT PUSH2 0xC08 JUMPI PUSH2 0xC08 PUSH2 0x2919 JUMP JUMPDEST PUSH1 0x20 MUL PUSH1 0x20 ADD ADD SWAP1 PUSH1 0x1 PUSH1 0x1 PUSH1 0xA0 SHL SUB AND SWAP1 DUP2 PUSH1 0x1 PUSH1 0x1 PUSH1 0xA0 SHL SUB AND DUP2 MSTORE POP POP SWAP1 JUMP JUMPDEST CALLER PUSH0 SWAP1 DUP2 MSTORE PUSH1 0xE5 PUSH1 0x20 MSTORE PUSH1 0x40 SWAP1 KECCAK256 SLOAD PUSH1 0xFF AND DUP1 PUSH2 0xC60 JUMPI POP PUSH2 0xC4B PUSH2 0x17C0 JUMP JUMPDEST PUSH1 0x1 PUSH1 0x1 PUSH1 0xA0 SHL SUB AND CALLER PUSH1 0x1 PUSH1 0x1 PUSH1 0xA0 SHL SUB AND EQ JUMPDEST PUSH2 0xC7C JUMPI PUSH1 0x40 MLOAD PUSH3 0x461BCD PUSH1 0xE5 SHL DUP2 MSTORE PUSH1 0x4 ADD PUSH2 0xB8A SWAP1 PUSH2 0x28F6 JUMP JUMPDEST PUSH1 0xDD SSTORE JUMP JUMPDEST PUSH1 0x40 DUP1 MLOAD PUSH1 0x6 DUP1 DUP3 MSTORE PUSH1 0xE0 DUP3 ADD SWAP1 SWAP3 MSTORE PUSH1 0x60 SWAP2 PUSH1 0x20 DUP3 ADD PUSH1 0xC0 DUP1 CALLDATASIZE DUP4 CALLDATACOPY ADD SWAP1 POP POP SWAP1 POP PUSH1 0xD7 SLOAD DUP2 PUSH0 DUP2 MLOAD DUP2 LT PUSH2 0xCB9 JUMPI PUSH2 0xCB9 PUSH2 0x2919 JUMP JUMPDEST PUSH1 0x20 MUL PUSH1 0x20 ADD ADD DUP2 DUP2 MSTORE POP POP PUSH1 0xD8 SLOAD DUP2 PUSH1 0x1 DUP2 MLOAD DUP2 LT PUSH2 0xCDB JUMPI PUSH2 0xCDB PUSH2 0x2919 JUMP JUMPDEST PUSH1 0x20 MUL PUSH1 0x20 ADD ADD DUP2 DUP2 MSTORE POP POP PUSH1 0xD9 SLOAD DUP2 PUSH1 0x2 DUP2 MLOAD DUP2 LT PUSH2 0xCFD JUMPI PUSH2 0xCFD PUSH2 0x2919 JUMP JUMPDEST PUSH1 0x20 MUL PUSH1 0x20 ADD ADD DUP2 DUP2 MSTORE POP POP PUSH1 0xDA SLOAD DUP2 PUSH1 0x3 DUP2 MLOAD DUP2 LT PUSH2 0xD1F JUMPI PUSH2 0xD1F PUSH2 0x2919 JUMP JUMPDEST PUSH1 0x20 MUL PUSH1 0x20 ADD ADD DUP2 DUP2 MSTORE POP POP PUSH1 0xDD SLOAD DUP2 PUSH1 0x4 DUP2 MLOAD DUP2 LT PUSH2 0xD41 JUMPI PUSH2 0xD41 PUSH2 0x2919 JUMP JUMPDEST PUSH1 0x20 MUL PUSH1 0x20 ADD ADD DUP2 DUP2 MSTORE POP POP PUSH1 0xDE SLOAD DUP2 PUSH1 0x5 DUP2 MLOAD DUP2 LT PUSH2 0xD63 JUMPI PUSH2 0xD63 PUSH2 0x2919 JUMP JUMPDEST PUSH1 0x20 MUL PUSH1 0x20 ADD ADD DUP2 DUP2 MSTORE POP POP SWAP1 JUMP JUMPDEST CALLER PUSH0 SWAP1 DUP2 MSTORE PUSH1 0xE5 PUSH1 0x20 MSTORE PUSH1 0x40 SWAP1 KECCAK256 SLOAD PUSH1 0xFF AND DUP1 PUSH2 0xDA7 JUMPI POP PUSH2 0xD92 PUSH2 0x17C0 JUMP JUMPDEST PUSH1 0x1 PUSH1 0x1 PUSH1 0xA0 SHL SUB AND CALLER PUSH1 0x1 PUSH1 0x1 PUSH1 0xA0 SHL SUB AND EQ JUMPDEST PUSH2 0xDC3 JUMPI PUSH1 0x40 MLOAD PUSH3 0x461BCD PUSH1 0xE5 SHL DUP2 MSTORE PUSH1 0x4 ADD PUSH2 0xB8A SWAP1 PUSH2 0x28F6 JUMP JUMPDEST PUSH1 0xD6 SSTORE JUMP JUMPDEST CALLER PUSH0 SWAP1 DUP2 MSTORE PUSH1 0xE5 PUSH1 0x20 MSTORE PUSH1 0x40 SWAP1 KECCAK256 SLOAD PUSH1 0xFF AND DUP1 PUSH2 0xDFD JUMPI POP PUSH2 0xDE8 PUSH2 0x17C0 JUMP JUMPDEST PUSH1 0x1 PUSH1 0x1 PUSH1 0xA0 SHL SUB AND CALLER PUSH1 0x1 PUSH1 0x1 PUSH1 0xA0 SHL SUB AND EQ JUMPDEST PUSH2 0xE19 JUMPI PUSH1 0x40 MLOAD PUSH3 0x461BCD PUSH1 0xE5 SHL DUP2 MSTORE PUSH1 0x4 ADD PUSH2 0xB8A SWAP1 PUSH2 0x28F6 JUMP JUMPDEST PUSH1 0x1 PUSH1 0x1 PUSH1 0xA0 SHL SUB SWAP1 SWAP2 AND PUSH0 DUP2 DUP2 MSTORE PUSH1 0xE0 PUSH1 0x20 MSTORE PUSH1 0x40 DUP2 KECCAK256 SWAP3 SWAP1 SWAP3 SSTORE PUSH1 0xE1 DUP1 SLOAD PUSH1 0x1 DUP2 ADD DUP3 SSTORE SWAP3 MSTORE PUSH0 DUP1 MLOAD PUSH1 0x20 PUSH2 0x2AFC DUP4 CODECOPY DUP2 MLOAD SWAP2 MSTORE SWAP1 SWAP2 ADD DUP1 SLOAD PUSH1 0x1 PUSH1 0x1 PUSH1 0xA0 SHL SUB NOT AND SWAP1 SWAP2 OR SWAP1 SSTORE JUMP JUMPDEST CALLER PUSH0 SWAP1 DUP2 MSTORE PUSH1 0xE5 PUSH1 0x20 MSTORE PUSH1 0x40 SWAP1 KECCAK256 SLOAD PUSH1 0xFF AND DUP1 PUSH2 0xE9A JUMPI POP PUSH2 0xE85 PUSH2 0x17C0 JUMP JUMPDEST PUSH1 0x1 PUSH1 0x1 PUSH1 0xA0 SHL SUB AND CALLER PUSH1 0x1 PUSH1 0x1 PUSH1 0xA0 SHL SUB AND EQ JUMPDEST PUSH2 0xEB6 JUMPI PUSH1 0x40 MLOAD PUSH3 0x461BCD PUSH1 0xE5 SHL DUP2 MSTORE PUSH1 0x4 ADD PUSH2 0xB8A SWAP1 PUSH2 0x28F6 JUMP JUMPDEST PUSH1 0xD5 DUP1 SLOAD PUSH1 0x1 PUSH1 0x1 PUSH1 0xA0 SHL SUB NOT AND PUSH1 0x1 PUSH1 0x1 PUSH1 0xA0 SHL SUB SWAP3 SWAP1 SWAP3 AND SWAP2 SWAP1 SWAP2 OR SWAP1 SSTORE JUMP JUMPDEST PUSH1 0x1 PUSH1 0x1 PUSH1 0xA0 SHL SUB PUSH32 0x0 AND ADDRESS SUB PUSH2 0xF20 JUMPI PUSH1 0x40 MLOAD PUSH3 0x461BCD PUSH1 0xE5 SHL DUP2 MSTORE PUSH1 0x4 ADD PUSH2 0xB8A SWAP1 PUSH2 0x292D JUMP JUMPDEST PUSH32 0x0 PUSH1 0x1 PUSH1 0x1 PUSH1 0xA0 SHL SUB AND PUSH2 0xF52 PUSH2 0x20AE JUMP JUMPDEST PUSH1 0x1 PUSH1 0x1 PUSH1 0xA0 SHL SUB AND EQ PUSH2 0xF78 JUMPI PUSH1 0x40 MLOAD PUSH3 0x461BCD PUSH1 0xE5 SHL DUP2 MSTORE PUSH1 0x4 ADD PUSH2 0xB8A SWAP1 PUSH2 0x2966 JUMP JUMPDEST PUSH2 0xF81 DUP2 PUSH2 0x20C9 JUMP JUMPDEST PUSH1 0x40 DUP1 MLOAD PUSH0 DUP1 DUP3 MSTORE PUSH1 0x20 DUP3 ADD SWAP1 SWAP3 MSTORE PUSH2 0xF9C SWAP2 DUP4 SWAP2 SWAP1 PUSH2 0x20D1 JUMP JUMPDEST POP JUMP JUMPDEST CALLER PUSH0 SWAP1 DUP2 MSTORE PUSH1 0xE5 PUSH1 0x20 MSTORE PUSH1 0x40 SWAP1 KECCAK256 SLOAD PUSH1 0xFF AND DUP1 PUSH2 0xFD4 JUMPI POP PUSH2 0xFBF PUSH2 0x17C0 JUMP JUMPDEST PUSH1 0x1 PUSH1 0x1 PUSH1 0xA0 SHL SUB AND CALLER PUSH1 0x1 PUSH1 0x1 PUSH1 0xA0 SHL SUB AND EQ JUMPDEST PUSH2 0xFF0 JUMPI PUSH1 0x40 MLOAD PUSH3 0x461BCD PUSH1 0xE5 SHL DUP2 MSTORE PUSH1 0x4 ADD PUSH2 0xB8A SWAP1 PUSH2 0x28F6 JUMP JUMPDEST DUP1 MLOAD DUP3 MLOAD EQ PUSH2 0x1030 JUMPI PUSH1 0x40 MLOAD PUSH3 0x461BCD PUSH1 0xE5 SHL DUP2 MSTORE PUSH1 0x20 PUSH1 0x4 DUP3 ADD MSTORE PUSH1 0xC PUSH1 0x24 DUP3 ADD MSTORE PUSH12 0x3632B733BA341032B93937B9 PUSH1 0xA1 SHL PUSH1 0x44 DUP3 ADD MSTORE PUSH1 0x64 ADD PUSH2 0xB8A JUMP JUMPDEST PUSH0 JUMPDEST DUP3 MLOAD DUP2 LT ISZERO PUSH2 0x10AF JUMPI PUSH1 0x40 MLOAD DUP1 PUSH1 0x40 ADD PUSH1 0x40 MSTORE DUP1 DUP5 DUP4 DUP2 MLOAD DUP2 LT PUSH2 0x1058 JUMPI PUSH2 0x1058 PUSH2 0x2919 JUMP JUMPDEST PUSH1 0x20 MUL PUSH1 0x20 ADD ADD MLOAD DUP2 MSTORE PUSH1 0x20 ADD DUP4 DUP4 DUP2 MLOAD DUP2 LT PUSH2 0x1077 JUMPI PUSH2 0x1077 PUSH2 0x2919 JUMP JUMPDEST PUSH1 0x20 SWAP1 DUP2 MUL SWAP2 SWAP1 SWAP2 ADD DUP2 ADD MLOAD SWAP1 SWAP2 MSTORE PUSH0 DUP4 DUP2 MSTORE PUSH1 0xDF DUP3 MSTORE PUSH1 0x40 SWAP1 KECCAK256 DUP3 MLOAD DUP2 SSTORE SWAP2 ADD MLOAD PUSH1 0x1 SWAP1 SWAP2 ADD SSTORE PUSH2 0x10A8 DUP2 PUSH2 0x299F JUMP JUMPDEST SWAP1 POP PUSH2 0x1032 JUMP JUMPDEST POP POP POP JUMP JUMPDEST CALLER PUSH0 SWAP1 DUP2 MSTORE PUSH1 0xE5 PUSH1 0x20 MSTORE PUSH1 0x40 SWAP1 KECCAK256 SLOAD PUSH1 0xFF AND DUP1 PUSH2 0x10E9 JUMPI POP PUSH2 0x10D4 PUSH2 0x17C0 JUMP JUMPDEST PUSH1 0x1 PUSH1 0x1 PUSH1 0xA0 SHL SUB AND CALLER PUSH1 0x1 PUSH1 0x1 PUSH1 0xA0 SHL SUB AND EQ JUMPDEST PUSH2 0x1105 JUMPI PUSH1 0x40 MLOAD PUSH3 0x461BCD PUSH1 0xE5 SHL DUP2 MSTORE PUSH1 0x4 ADD PUSH2 0xB8A SWAP1 PUSH2 0x28F6 JUMP JUMPDEST PUSH1 0xD9 SSTORE JUMP JUMPDEST PUSH2 0x1112 PUSH2 0x204F JUMP JUMPDEST PUSH1 0x1 PUSH1 0x1 PUSH1 0xA0 SHL SUB SWAP2 SWAP1 SWAP2 AND PUSH0 SWAP1 DUP2 MSTORE PUSH1 0xE5 PUSH1 0x20 MSTORE PUSH1 0x40 SWAP1 KECCAK256 DUP1 SLOAD PUSH1 0xFF NOT AND SWAP2 ISZERO ISZERO SWAP2 SWAP1 SWAP2 OR SWAP1 SSTORE JUMP JUMPDEST PUSH1 0x1 PUSH1 0x1 PUSH1 0xA0 SHL SUB PUSH32 0x0 AND ADDRESS SUB PUSH2 0x1184 JUMPI PUSH1 0x40 MLOAD PUSH3 0x461BCD PUSH1 0xE5 SHL DUP2 MSTORE PUSH1 0x4 ADD PUSH2 0xB8A SWAP1 PUSH2 0x292D JUMP JUMPDEST PUSH32 0x0 PUSH1 0x1 PUSH1 0x1 PUSH1 0xA0 SHL SUB AND PUSH2 0x11B6 PUSH2 0x20AE JUMP JUMPDEST PUSH1 0x1 PUSH1 0x1 PUSH1 0xA0 SHL SUB AND EQ PUSH2 0x11DC JUMPI PUSH1 0x40 MLOAD PUSH3 0x461BCD PUSH1 0xE5 SHL DUP2 MSTORE PUSH1 0x4 ADD PUSH2 0xB8A SWAP1 PUSH2 0x2966 JUMP JUMPDEST PUSH2 0x11E5 DUP3 PUSH2 0x20C9 JUMP JUMPDEST PUSH2 0x11F1 DUP3 DUP3 PUSH1 0x1 PUSH2 0x20D1 JUMP JUMPDEST POP POP JUMP JUMPDEST PUSH0 ADDRESS PUSH1 0x1 PUSH1 0x1 PUSH1 0xA0 SHL SUB PUSH32 0x0 AND EQ PUSH2 0x128F JUMPI PUSH1 0x40 MLOAD PUSH3 0x461BCD PUSH1 0xE5 SHL DUP2 MSTORE PUSH1 0x20 PUSH1 0x4 DUP3 ADD MSTORE PUSH1 0x38 PUSH1 0x24 DUP3 ADD MSTORE PUSH32 0x555550535570677261646561626C653A206D757374206E6F742062652063616C PUSH1 0x44 DUP3 ADD MSTORE PUSH24 0x1B1959081D1A1C9BDD59DA0819195B1959D85D1958D85B1B PUSH1 0x42 SHL PUSH1 0x64 DUP3 ADD MSTORE PUSH1 0x84 ADD PUSH2 0xB8A JUMP JUMPDEST POP PUSH0 DUP1 MLOAD PUSH1 0x20 PUSH2 0x2AB5 DUP4 CODECOPY DUP2 MLOAD SWAP2 MSTORE SWAP1 JUMP JUMPDEST CALLER PUSH0 SWAP1 DUP2 MSTORE PUSH1 0xE5 PUSH1 0x20 MSTORE PUSH1 0x40 SWAP1 KECCAK256 SLOAD PUSH1 0xFF AND DUP1 PUSH2 0x12D6 JUMPI POP PUSH2 0x12C1 PUSH2 0x17C0 JUMP JUMPDEST PUSH1 0x1 PUSH1 0x1 PUSH1 0xA0 SHL SUB AND CALLER PUSH1 0x1 PUSH1 0x1 PUSH1 0xA0 SHL SUB AND EQ JUMPDEST PUSH2 0x12F2 JUMPI PUSH1 0x40 MLOAD PUSH3 0x461BCD PUSH1 0xE5 SHL DUP2 MSTORE PUSH1 0x4 ADD PUSH2 0xB8A SWAP1 PUSH2 0x28F6 JUMP JUMPDEST PUSH1 0xCC SLOAD PUSH1 0x40 MLOAD PUSH4 0x2BB14FC1 PUSH1 0xE1 SHL DUP2 MSTORE PUSH1 0x1 PUSH1 0x1 PUSH1 0xA0 SHL SUB DUP5 DUP2 AND PUSH1 0x4 DUP4 ADD MSTORE PUSH1 0x24 DUP3 ADD DUP5 SWAP1 MSTORE SWAP1 SWAP2 AND SWAP1 PUSH4 0x57629F82 SWAP1 PUSH1 0x44 ADD PUSH0 PUSH1 0x40 MLOAD DUP1 DUP4 SUB DUP2 PUSH0 DUP8 DUP1 EXTCODESIZE ISZERO DUP1 ISZERO PUSH2 0x133D JUMPI PUSH0 DUP1 REVERT JUMPDEST POP GAS CALL ISZERO DUP1 ISZERO PUSH2 0x134F JUMPI RETURNDATASIZE PUSH0 DUP1 RETURNDATACOPY RETURNDATASIZE PUSH0 REVERT JUMPDEST POP POP POP POP POP POP JUMP JUMPDEST CALLER PUSH0 SWAP1 DUP2 MSTORE PUSH1 0xE5 PUSH1 0x20 MSTORE PUSH1 0x40 SWAP1 KECCAK256 SLOAD PUSH1 0xFF AND DUP1 PUSH2 0x138C JUMPI POP PUSH2 0x1377 PUSH2 0x17C0 JUMP JUMPDEST PUSH1 0x1 PUSH1 0x1 PUSH1 0xA0 SHL SUB AND CALLER PUSH1 0x1 PUSH1 0x1 PUSH1 0xA0 SHL SUB AND EQ JUMPDEST PUSH2 0x13A8 JUMPI PUSH1 0x40 MLOAD PUSH3 0x461BCD PUSH1 0xE5 SHL DUP2 MSTORE PUSH1 0x4 ADD PUSH2 0xB8A SWAP1 PUSH2 0x28F6 JUMP JUMPDEST PUSH1 0xD4 DUP1 SLOAD PUSH1 0x1 PUSH1 0x1 PUSH1 0xA0 SHL SUB NOT AND PUSH1 0x1 PUSH1 0x1 PUSH1 0xA0 SHL SUB SWAP3 SWAP1 SWAP3 AND SWAP2 SWAP1 SWAP2 OR SWAP1 SSTORE JUMP JUMPDEST CALLER PUSH0 SWAP1 DUP2 MSTORE PUSH1 0xE5 PUSH1 0x20 MSTORE PUSH1 0x40 SWAP1 KECCAK256 SLOAD PUSH1 0xFF AND DUP1 PUSH2 0x13FF JUMPI POP PUSH2 0x13EA PUSH2 0x17C0 JUMP JUMPDEST PUSH1 0x1 PUSH1 0x1 PUSH1 0xA0 SHL SUB AND CALLER PUSH1 0x1 PUSH1 0x1 PUSH1 0xA0 SHL SUB AND EQ JUMPDEST PUSH2 0x141B JUMPI PUSH1 0x40 MLOAD PUSH3 0x461BCD PUSH1 0xE5 SHL DUP2 MSTORE PUSH1 0x4 ADD PUSH2 0xB8A SWAP1 PUSH2 0x28F6 JUMP JUMPDEST PUSH1 0xDE SSTORE JUMP JUMPDEST PUSH1 0x60 DUP1 PUSH1 0xE1 DUP1 SLOAD DUP1 PUSH1 0x20 MUL PUSH1 0x20 ADD PUSH1 0x40 MLOAD SWAP1 DUP2 ADD PUSH1 0x40 MSTORE DUP1 SWAP3 SWAP2 SWAP1 DUP2 DUP2 MSTORE PUSH1 0x20 ADD DUP3 DUP1 SLOAD DUP1 ISZERO PUSH2 0x1477 JUMPI PUSH1 0x20 MUL DUP3 ADD SWAP2 SWAP1 PUSH0 MSTORE PUSH1 0x20 PUSH0 KECCAK256 SWAP1 JUMPDEST DUP2 SLOAD PUSH1 0x1 PUSH1 0x1 PUSH1 0xA0 SHL SUB AND DUP2 MSTORE PUSH1 0x1 SWAP1 SWAP2 ADD SWAP1 PUSH1 0x20 ADD DUP1 DUP4 GT PUSH2 0x1459 JUMPI JUMPDEST POP POP POP POP POP SWAP2 POP DUP2 MLOAD PUSH1 0x1 PUSH1 0x1 PUSH1 0x40 SHL SUB DUP2 GT ISZERO PUSH2 0x1497 JUMPI PUSH2 0x1497 PUSH2 0x2639 JUMP JUMPDEST PUSH1 0x40 MLOAD SWAP1 DUP1 DUP3 MSTORE DUP1 PUSH1 0x20 MUL PUSH1 0x20 ADD DUP3 ADD PUSH1 0x40 MSTORE DUP1 ISZERO PUSH2 0x14C0 JUMPI DUP2 PUSH1 0x20 ADD PUSH1 0x20 DUP3 MUL DUP1 CALLDATASIZE DUP4 CALLDATACOPY ADD SWAP1 POP JUMPDEST POP SWAP1 POP PUSH0 JUMPDEST DUP3 MLOAD DUP2 LT ISZERO PUSH2 0x153A JUMPI PUSH1 0xE0 PUSH0 DUP5 DUP4 DUP2 MLOAD DUP2 LT PUSH2 0x14E3 JUMPI PUSH2 0x14E3 PUSH2 0x2919 JUMP JUMPDEST PUSH1 0x20 MUL PUSH1 0x20 ADD ADD MLOAD PUSH1 0x1 PUSH1 0x1 PUSH1 0xA0 SHL SUB AND PUSH1 0x1 PUSH1 0x1 PUSH1 0xA0 SHL SUB AND DUP2 MSTORE PUSH1 0x20 ADD SWAP1 DUP2 MSTORE PUSH1 0x20 ADD PUSH0 KECCAK256 SLOAD DUP3 DUP3 DUP2 MLOAD DUP2 LT PUSH2 0x151D JUMPI PUSH2 0x151D PUSH2 0x2919 JUMP JUMPDEST PUSH1 0x20 SWAP1 DUP2 MUL SWAP2 SWAP1 SWAP2 ADD ADD MSTORE DUP1 PUSH2 0x1532 DUP2 PUSH2 0x299F JUMP JUMPDEST SWAP2 POP POP PUSH2 0x14C5 JUMP JUMPDEST POP SWAP1 SWAP2 JUMP JUMPDEST PUSH2 0x1547 PUSH2 0x204F JUMP JUMPDEST PUSH2 0x1550 PUSH0 PUSH2 0x223B JUMP JUMPDEST JUMP JUMPDEST CALLER PUSH0 SWAP1 DUP2 MSTORE PUSH1 0xE5 PUSH1 0x20 MSTORE PUSH1 0x40 SWAP1 KECCAK256 SLOAD PUSH1 0xFF AND DUP1 PUSH2 0x1587 JUMPI POP PUSH2 0x1572 PUSH2 0x17C0 JUMP JUMPDEST PUSH1 0x1 PUSH1 0x1 PUSH1 0xA0 SHL SUB AND CALLER PUSH1 0x1 PUSH1 0x1 PUSH1 0xA0 SHL SUB AND EQ JUMPDEST PUSH2 0x15A3 JUMPI PUSH1 0x40 MLOAD PUSH3 0x461BCD PUSH1 0xE5 SHL DUP2 MSTORE PUSH1 0x4 ADD PUSH2 0xB8A SWAP1 PUSH2 0x28F6 JUMP JUMPDEST PUSH1 0xD1 SSTORE JUMP JUMPDEST CALLER PUSH0 SWAP1 DUP2 MSTORE PUSH1 0xE5 PUSH1 0x20 MSTORE PUSH1 0x40 SWAP1 KECCAK256 SLOAD PUSH1 0xFF AND DUP1 PUSH2 0x15DD JUMPI POP PUSH2 0x15C8 PUSH2 0x17C0 JUMP JUMPDEST PUSH1 0x1 PUSH1 0x1 PUSH1 0xA0 SHL SUB AND CALLER PUSH1 0x1 PUSH1 0x1 PUSH1 0xA0 SHL SUB AND EQ JUMPDEST PUSH2 0x15F9 JUMPI PUSH1 0x40 MLOAD PUSH3 0x461BCD PUSH1 0xE5 SHL DUP2 MSTORE PUSH1 0x4 ADD PUSH2 0xB8A SWAP1 PUSH2 0x28F6 JUMP JUMPDEST PUSH1 0xE2 SSTORE JUMP JUMPDEST CALLER PUSH0 SWAP1 DUP2 MSTORE PUSH1 0xE5 PUSH1 0x20 MSTORE PUSH1 0x40 SWAP1 KECCAK256 SLOAD PUSH1 0xFF AND DUP1 PUSH2 0x1633 JUMPI POP PUSH2 0x161E PUSH2 0x17C0 JUMP JUMPDEST PUSH1 0x1 PUSH1 0x1 PUSH1 0xA0 SHL SUB AND CALLER PUSH1 0x1 PUSH1 0x1 PUSH1 0xA0 SHL SUB AND EQ JUMPDEST PUSH2 0x164F JUMPI PUSH1 0x40 MLOAD PUSH3 0x461BCD PUSH1 0xE5 SHL DUP2 MSTORE PUSH1 0x4 ADD PUSH2 0xB8A SWAP1 PUSH2 0x28F6 JUMP JUMPDEST PUSH1 0xE6 SSTORE JUMP JUMPDEST CALLER PUSH0 SWAP1 DUP2 MSTORE PUSH1 0xE5 PUSH1 0x20 MSTORE PUSH1 0x40 SWAP1 KECCAK256 SLOAD PUSH1 0xFF AND DUP1 PUSH2 0x1689 JUMPI POP PUSH2 0x1674 PUSH2 0x17C0 JUMP JUMPDEST PUSH1 0x1 PUSH1 0x1 PUSH1 0xA0 SHL SUB AND CALLER PUSH1 0x1 PUSH1 0x1 PUSH1 0xA0 SHL SUB AND EQ JUMPDEST PUSH2 0x16A5 JUMPI PUSH1 0x40 MLOAD PUSH3 0x461BCD PUSH1 0xE5 SHL DUP2 MSTORE PUSH1 0x4 ADD PUSH2 0xB8A SWAP1 PUSH2 0x28F6 JUMP JUMPDEST PUSH1 0xE3 SSTORE JUMP JUMPDEST CALLER PUSH0 SWAP1 DUP2 MSTORE PUSH1 0xE5 PUSH1 0x20 MSTORE PUSH1 0x40 SWAP1 KECCAK256 SLOAD PUSH1 0xFF AND DUP1 PUSH2 0x16DF JUMPI POP PUSH2 0x16CA PUSH2 0x17C0 JUMP JUMPDEST PUSH1 0x1 PUSH1 0x1 PUSH1 0xA0 SHL SUB AND CALLER PUSH1 0x1 PUSH1 0x1 PUSH1 0xA0 SHL SUB AND EQ JUMPDEST PUSH2 0x16FB JUMPI PUSH1 0x40 MLOAD PUSH3 0x461BCD PUSH1 0xE5 SHL DUP2 MSTORE PUSH1 0x4 ADD PUSH2 0xB8A SWAP1 PUSH2 0x28F6 JUMP JUMPDEST PUSH1 0xC9 DUP1 SLOAD PUSH1 0x1 PUSH1 0x1 PUSH1 0xA0 SHL SUB NOT SWAP1 DUP2 AND PUSH1 0x1 PUSH1 0x1 PUSH1 0xA0 SHL SUB SWAP9 DUP10 AND OR SWAP1 SWAP2 SSTORE PUSH1 0xCB DUP1 SLOAD DUP3 AND SWAP7 DUP9 AND SWAP7 SWAP1 SWAP7 OR SWAP1 SWAP6 SSTORE PUSH1 0xCA DUP1 SLOAD DUP7 AND SWAP5 DUP8 AND SWAP5 SWAP1 SWAP5 OR SWAP1 SWAP4 SSTORE PUSH1 0xCD DUP1 SLOAD DUP6 AND SWAP3 DUP7 AND SWAP3 SWAP1 SWAP3 OR SWAP1 SWAP2 SSTORE PUSH1 0xCC DUP1 SLOAD DUP5 AND SWAP2 DUP6 AND SWAP2 SWAP1 SWAP2 OR SWAP1 SSTORE PUSH1 0xCE DUP1 SLOAD SWAP1 SWAP3 AND SWAP3 AND SWAP2 SWAP1 SWAP2 OR SWAP1 SSTORE JUMP JUMPDEST CALLER PUSH0 SWAP1 DUP2 MSTORE PUSH1 0xE5 PUSH1 0x20 MSTORE PUSH1 0x40 SWAP1 KECCAK256 SLOAD PUSH1 0xFF AND DUP1 PUSH2 0x179F JUMPI POP PUSH2 0x178A PUSH2 0x17C0 JUMP JUMPDEST PUSH1 0x1 PUSH1 0x1 PUSH1 0xA0 SHL SUB AND CALLER PUSH1 0x1 PUSH1 0x1 PUSH1 0xA0 SHL SUB AND EQ JUMPDEST PUSH2 0x17BB JUMPI PUSH1 0x40 MLOAD PUSH3 0x461BCD PUSH1 0xE5 SHL DUP2 MSTORE PUSH1 0x4 ADD PUSH2 0xB8A SWAP1 PUSH2 0x28F6 JUMP JUMPDEST PUSH1 0xDA SSTORE JUMP JUMPDEST PUSH1 0x33 SLOAD PUSH1 0x1 PUSH1 0x1 PUSH1 0xA0 SHL SUB AND SWAP1 JUMP JUMPDEST PUSH1 0x40 DUP1 MLOAD PUSH1 0x4 DUP1 DUP3 MSTORE PUSH1 0xA0 DUP3 ADD SWAP1 SWAP3 MSTORE PUSH1 0x60 SWAP2 DUP3 SWAP2 SWAP1 PUSH1 0x20 DUP3 ADD PUSH1 0x80 DUP1 CALLDATASIZE DUP4 CALLDATACOPY POP POP PUSH1 0x40 DUP1 MLOAD PUSH1 0x4 DUP1 DUP3 MSTORE PUSH1 0xA0 DUP3 ADD SWAP1 SWAP3 MSTORE SWAP3 SWAP5 POP SWAP1 POP PUSH1 0x20 DUP3 ADD PUSH1 0x80 DUP1 CALLDATASIZE DUP4 CALLDATACOPY ADD SWAP1 POP POP SWAP1 POP PUSH0 JUMPDEST PUSH1 0x4 DUP2 LT ISZERO PUSH2 0x153A JUMPI PUSH0 DUP2 DUP2 MSTORE PUSH1 0xDF PUSH1 0x20 MSTORE PUSH1 0x40 SWAP1 KECCAK256 SLOAD DUP4 MLOAD DUP5 SWAP1 DUP4 SWAP1 DUP2 LT PUSH2 0x1843 JUMPI PUSH2 0x1843 PUSH2 0x2919 JUMP JUMPDEST PUSH1 0x20 MUL PUSH1 0x20 ADD ADD DUP2 DUP2 MSTORE POP POP PUSH1 0xDF PUSH0 DUP3 DUP2 MSTORE PUSH1 0x20 ADD SWAP1 DUP2 MSTORE PUSH1 0x20 ADD PUSH0 KECCAK256 PUSH1 0x1 ADD SLOAD DUP3 DUP3 DUP2 MLOAD DUP2 LT PUSH2 0x1876 JUMPI PUSH2 0x1876 PUSH2 0x2919 JUMP JUMPDEST PUSH1 0x20 SWAP1 DUP2 MUL SWAP2 SWAP1 SWAP2 ADD ADD MSTORE DUP1 PUSH2 0x188B DUP2 PUSH2 0x299F JUMP JUMPDEST SWAP2 POP POP PUSH2 0x1818 JUMP JUMPDEST CALLER PUSH0 SWAP1 DUP2 MSTORE PUSH1 0xE5 PUSH1 0x20 MSTORE PUSH1 0x40 SWAP1 KECCAK256 SLOAD PUSH1 0xFF AND DUP1 PUSH2 0x18C8 JUMPI POP PUSH2 0x18B3 PUSH2 0x17C0 JUMP JUMPDEST PUSH1 0x1 PUSH1 0x1 PUSH1 0xA0 SHL SUB AND CALLER PUSH1 0x1 PUSH1 0x1 PUSH1 0xA0 SHL SUB AND EQ JUMPDEST PUSH2 0x18E4 JUMPI PUSH1 0x40 MLOAD PUSH3 0x461BCD PUSH1 0xE5 SHL DUP2 MSTORE PUSH1 0x4 ADD PUSH2 0xB8A SWAP1 PUSH2 0x28F6 JUMP JUMPDEST PUSH1 0xE7 SSTORE JUMP JUMPDEST PUSH0 SLOAD PUSH2 0x100 SWAP1 DIV PUSH1 0xFF AND ISZERO DUP1 DUP1 ISZERO PUSH2 0x1907 JUMPI POP PUSH0 SLOAD PUSH1 0x1 PUSH1 0xFF SWAP1 SWAP2 AND LT JUMPDEST DUP1 PUSH2 0x1927 JUMPI POP PUSH2 0x1916 ADDRESS PUSH2 0x228C JUMP JUMPDEST ISZERO DUP1 ISZERO PUSH2 0x1927 JUMPI POP PUSH0 SLOAD PUSH1 0xFF AND PUSH1 0x1 EQ JUMPDEST PUSH2 0x198A JUMPI PUSH1 0x40 MLOAD PUSH3 0x461BCD PUSH1 0xE5 SHL DUP2 MSTORE PUSH1 0x20 PUSH1 0x4 DUP3 ADD MSTORE PUSH1 0x2E PUSH1 0x24 DUP3 ADD MSTORE PUSH32 0x496E697469616C697A61626C653A20636F6E747261637420697320616C726561 PUSH1 0x44 DUP3 ADD MSTORE PUSH14 0x191E481A5B9A5D1A585B1A5E9959 PUSH1 0x92 SHL PUSH1 0x64 DUP3 ADD MSTORE PUSH1 0x84 ADD PUSH2 0xB8A JUMP JUMPDEST PUSH0 DUP1 SLOAD PUSH1 0xFF NOT AND PUSH1 0x1 OR SWAP1 SSTORE DUP1 ISZERO PUSH2 0x19AB JUMPI PUSH0 DUP1 SLOAD PUSH2 0xFF00 NOT AND PUSH2 0x100 OR SWAP1 SSTORE JUMPDEST PUSH2 0x19B3 PUSH2 0x229B JUMP JUMPDEST PUSH1 0xE4 DUP1 SLOAD PUSH1 0x1 PUSH1 0x1 PUSH1 0xA0 SHL SUB DUP5 AND PUSH1 0x1 PUSH1 0x1 PUSH1 0xA0 SHL SUB NOT SWAP2 DUP3 AND OR SWAP1 SWAP2 SSTORE PUSH1 0xCF DUP1 SLOAD DUP3 AND PUSH20 0xDF9228FC02F4554CD80AF6D036DADE242022E4F2 OR SWAP1 SSTORE PUSH1 0xD0 DUP1 SLOAD DUP3 AND PUSH20 0x4076AF4556458CDD0AD25E86ED23B4DC8437DCE4 OR SWAP1 SSTORE PUSH2 0x384 PUSH1 0xD1 SSTORE PUSH2 0x3E8 PUSH1 0xD2 SSTORE PUSH1 0xD3 DUP1 SLOAD DUP3 AND PUSH20 0xFAE25F1AE4B758D7C96D7EB075B62AF4F3398B89 OR SWAP1 SSTORE PUSH1 0xD4 DUP1 SLOAD DUP3 AND PUSH20 0x7FBA7858083836D9169EB3BE21A48189E1798C8E OR SWAP1 SSTORE PUSH1 0xD5 DUP1 SLOAD DUP3 AND PUSH20 0x2737AC6359664096F22863088246D885F14E6FF2 SWAP1 DUP2 OR SWAP1 SWAP2 SSTORE PUSH9 0x1158E460913D00000 PUSH1 0xD6 SSTORE PUSH10 0x14542BA12A337C00000 PUSH1 0xE6 SSTORE PUSH1 0x96 PUSH1 0xD7 SSTORE PUSH1 0x64 PUSH1 0xD8 DUP2 SWAP1 SSTORE PUSH1 0xD9 DUP2 SWAP1 SSTORE PUSH1 0xDA SSTORE PUSH1 0xDB DUP1 SLOAD DUP4 AND SWAP1 SWAP2 OR SWAP1 SSTORE PUSH1 0xDC DUP1 SLOAD DUP3 AND PUSH20 0xB36F6361DCF31D0D7956E9E826A9915A5DDEC272 OR SWAP1 SSTORE PUSH1 0x32 PUSH1 0xDD SSTORE PUSH10 0x43C33C1937564800000 PUSH1 0xDE SSTORE PUSH1 0x40 DUP1 MLOAD DUP1 DUP3 ADD DUP3 MSTORE PUSH0 DUP1 DUP3 MSTORE PUSH1 0x20 DUP1 DUP4 ADD DUP3 DUP2 MSTORE DUP3 DUP1 MSTORE PUSH1 0xDF DUP1 DUP4 MSTORE SWAP4 MLOAD PUSH32 0x4B917336BA36FEFA23B90074E126FE5413F0E3FC800E7AB1DA217D9A2807B711 SSTORE MLOAD PUSH32 0x4B917336BA36FEFA23B90074E126FE5413F0E3FC800E7AB1DA217D9A2807B712 SSTORE DUP4 MLOAD DUP1 DUP6 ADD DUP6 MSTORE PUSH10 0x21E19E0C9BAB2400000 DUP2 MSTORE PUSH1 0xC8 DUP2 DUP4 ADD SWAP1 DUP2 MSTORE PUSH1 0x1 DUP1 DUP6 MSTORE DUP6 DUP5 MSTORE SWAP2 MLOAD PUSH32 0x55C38C42E971EEB957B61422467F67FA3B212021AC50A6B2B3D5ACD9D01CB97D SSTORE MLOAD PUSH32 0x55C38C42E971EEB957B61422467F67FA3B212021AC50A6B2B3D5ACD9D01CB97E SSTORE DUP5 MLOAD DUP1 DUP7 ADD DUP7 MSTORE PUSH10 0x65A4DA25D3016C00000 DUP2 MSTORE PUSH2 0x15E DUP2 DUP5 ADD SWAP1 DUP2 MSTORE PUSH1 0x2 DUP6 MSTORE DUP6 DUP5 MSTORE SWAP1 MLOAD PUSH32 0x36D20378F308040D39A8A5E0299048C5EB6A3E2AF0AAD6FC5CBD63DBA6084C75 SSTORE MLOAD PUSH32 0x36D20378F308040D39A8A5E0299048C5EB6A3E2AF0AAD6FC5CBD63DBA6084C76 SSTORE DUP5 MLOAD DUP1 DUP7 ADD SWAP1 SWAP6 MSTORE PUSH10 0x152D02C7E14AF6800000 DUP6 MSTORE PUSH2 0x1F4 DUP6 DUP4 ADD SWAP1 DUP2 MSTORE PUSH1 0x3 DUP1 DUP6 MSTORE SWAP5 DUP4 MSTORE SWAP5 MLOAD PUSH32 0x780609EDA5E52D7936E75EAD8EC77FC018859646A90304D10FB581006956B09E SSTORE SWAP4 MLOAD PUSH32 0x780609EDA5E52D7936E75EAD8EC77FC018859646A90304D10FB581006956B09F SSTORE PUSH1 0xE0 SWAP1 MSTORE PUSH32 0x8C1B51B97DA4A7D19A16112B2B5F6595497C2A9FA9D3658419A1A3A06F79AF0E SWAP2 SWAP1 SWAP2 SSTORE PUSH1 0xE1 DUP1 SLOAD SWAP3 DUP4 ADD DUP2 SSTORE SWAP1 MSTORE PUSH0 DUP1 MLOAD PUSH1 0x20 PUSH2 0x2AFC DUP4 CODECOPY DUP2 MLOAD SWAP2 MSTORE ADD DUP1 SLOAD SWAP1 SWAP2 AND PUSH20 0xF51446F195D697ED51235E7B382FC170503E1976 OR SWAP1 SSTORE PUSH4 0x1E13380 PUSH1 0xE2 SSTORE PUSH1 0x3C PUSH1 0xE3 SSTORE DUP1 ISZERO PUSH2 0x11F1 JUMPI PUSH0 DUP1 SLOAD PUSH2 0xFF00 NOT AND SWAP1 SSTORE PUSH1 0x40 MLOAD PUSH1 0x1 DUP2 MSTORE PUSH32 0x7F26B83FF96E1F2B6A682F133852F6798A09C465DA95921460CEFB3847402498 SWAP1 PUSH1 0x20 ADD PUSH1 0x40 MLOAD DUP1 SWAP2 SUB SWAP1 LOG1 POP POP JUMP JUMPDEST CALLER PUSH0 SWAP1 DUP2 MSTORE PUSH1 0xE5 PUSH1 0x20 MSTORE PUSH1 0x40 SWAP1 KECCAK256 SLOAD PUSH1 0xFF AND DUP1 PUSH2 0x1D73 JUMPI POP PUSH2 0x1D5E PUSH2 0x17C0 JUMP JUMPDEST PUSH1 0x1 PUSH1 0x1 PUSH1 0xA0 SHL SUB AND CALLER PUSH1 0x1 PUSH1 0x1 PUSH1 0xA0 SHL SUB AND EQ JUMPDEST PUSH2 0x1D8F JUMPI PUSH1 0x40 MLOAD PUSH3 0x461BCD PUSH1 0xE5 SHL DUP2 MSTORE PUSH1 0x4 ADD PUSH2 0xB8A SWAP1 PUSH2 0x28F6 JUMP JUMPDEST PUSH1 0xCF DUP1 SLOAD PUSH1 0x1 PUSH1 0x1 PUSH1 0xA0 SHL SUB NOT AND PUSH1 0x1 PUSH1 0x1 PUSH1 0xA0 SHL SUB SWAP3 SWAP1 SWAP3 AND SWAP2 SWAP1 SWAP2 OR SWAP1 SSTORE JUMP JUMPDEST CALLER PUSH0 SWAP1 DUP2 MSTORE PUSH1 0xE5 PUSH1 0x20 MSTORE PUSH1 0x40 SWAP1 KECCAK256 SLOAD PUSH1 0xFF AND DUP1 PUSH2 0x1DE6 JUMPI POP PUSH2 0x1DD1 PUSH2 0x17C0 JUMP JUMPDEST PUSH1 0x1 PUSH1 0x1 PUSH1 0xA0 SHL SUB AND CALLER PUSH1 0x1 PUSH1 0x1 PUSH1 0xA0 SHL SUB AND EQ JUMPDEST PUSH2 0x1E02 JUMPI PUSH1 0x40 MLOAD PUSH3 0x461BCD PUSH1 0xE5 SHL DUP2 MSTORE PUSH1 0x4 ADD PUSH2 0xB8A SWAP1 PUSH2 0x28F6 JUMP JUMPDEST PUSH1 0xD7 SWAP2 SWAP1 SWAP2 SSTORE PUSH1 0xD8 SSTORE JUMP JUMPDEST CALLER PUSH0 SWAP1 DUP2 MSTORE PUSH1 0xE5 PUSH1 0x20 MSTORE PUSH1 0x40 SWAP1 KECCAK256 SLOAD PUSH1 0xFF AND DUP1 PUSH2 0x1E42 JUMPI POP PUSH2 0x1E2D PUSH2 0x17C0 JUMP JUMPDEST PUSH1 0x1 PUSH1 0x1 PUSH1 0xA0 SHL SUB AND CALLER PUSH1 0x1 PUSH1 0x1 PUSH1 0xA0 SHL SUB AND EQ JUMPDEST PUSH2 0x1E5E JUMPI PUSH1 0x40 MLOAD PUSH3 0x461BCD PUSH1 0xE5 SHL DUP2 MSTORE PUSH1 0x4 ADD PUSH2 0xB8A SWAP1 PUSH2 0x28F6 JUMP JUMPDEST PUSH1 0xDC DUP1 SLOAD PUSH1 0x1 PUSH1 0x1 PUSH1 0xA0 SHL SUB NOT AND PUSH1 0x1 PUSH1 0x1 PUSH1 0xA0 SHL SUB SWAP3 SWAP1 SWAP3 AND SWAP2 SWAP1 SWAP2 OR SWAP1 SSTORE JUMP JUMPDEST PUSH2 0x1E88 PUSH2 0x204F JUMP JUMPDEST PUSH1 0x1 PUSH1 0x1 PUSH1 0xA0 SHL SUB DUP2 AND PUSH2 0x1EED JUMPI PUSH1 0x40 MLOAD PUSH3 0x461BCD PUSH1 0xE5 SHL DUP2 MSTORE PUSH1 0x20 PUSH1 0x4 DUP3 ADD MSTORE PUSH1 0x26 PUSH1 0x24 DUP3 ADD MSTORE PUSH32 0x4F776E61626C653A206E6577206F776E657220697320746865207A65726F2061 PUSH1 0x44 DUP3 ADD MSTORE PUSH6 0x646472657373 PUSH1 0xD0 SHL PUSH1 0x64 DUP3 ADD MSTORE PUSH1 0x84 ADD PUSH2 0xB8A JUMP JUMPDEST PUSH2 0xF9C DUP2 PUSH2 0x223B JUMP JUMPDEST CALLER PUSH0 SWAP1 DUP2 MSTORE PUSH1 0xE5 PUSH1 0x20 MSTORE PUSH1 0x40 SWAP1 KECCAK256 SLOAD PUSH1 0xFF AND DUP1 PUSH2 0x1F2B JUMPI POP PUSH2 0x1F16 PUSH2 0x17C0 JUMP JUMPDEST PUSH1 0x1 PUSH1 0x1 PUSH1 0xA0 SHL SUB AND CALLER PUSH1 0x1 PUSH1 0x1 PUSH1 0xA0 SHL SUB AND EQ JUMPDEST PUSH2 0x1F47 JUMPI PUSH1 0x40 MLOAD PUSH3 0x461BCD PUSH1 0xE5 SHL DUP2 MSTORE PUSH1 0x4 ADD PUSH2 0xB8A SWAP1 PUSH2 0x28F6 JUMP JUMPDEST PUSH1 0xD0 DUP1 SLOAD PUSH1 0x1 PUSH1 0x1 PUSH1 0xA0 SHL SUB NOT AND PUSH1 0x1 PUSH1 0x1 PUSH1 0xA0 SHL SUB SWAP3 SWAP1 SWAP3 AND SWAP2 SWAP1 SWAP2 OR SWAP1 SSTORE JUMP JUMPDEST CALLER PUSH0 SWAP1 DUP2 MSTORE PUSH1 0xE5 PUSH1 0x20 MSTORE PUSH1 0x40 SWAP1 KECCAK256 SLOAD PUSH1 0xFF AND DUP1 PUSH2 0x1F9E JUMPI POP PUSH2 0x1F89 PUSH2 0x17C0 JUMP JUMPDEST PUSH1 0x1 PUSH1 0x1 PUSH1 0xA0 SHL SUB AND CALLER PUSH1 0x1 PUSH1 0x1 PUSH1 0xA0 SHL SUB AND EQ JUMPDEST PUSH2 0x1FBA JUMPI PUSH1 0x40 MLOAD PUSH3 0x461BCD PUSH1 0xE5 SHL DUP2 MSTORE PUSH1 0x4 ADD PUSH2 0xB8A SWAP1 PUSH2 0x28F6 JUMP JUMPDEST PUSH1 0xD3 DUP1 SLOAD PUSH1 0x1 PUSH1 0x1 PUSH1 0xA0 SHL SUB NOT AND PUSH1 0x1 PUSH1 0x1 PUSH1 0xA0 SHL SUB SWAP3 SWAP1 SWAP3 AND SWAP2 SWAP1 SWAP2 OR SWAP1 SSTORE JUMP JUMPDEST CALLER PUSH0 SWAP1 DUP2 MSTORE PUSH1 0xE5 PUSH1 0x20 MSTORE PUSH1 0x40 SWAP1 KECCAK256 SLOAD PUSH1 0xFF AND DUP1 PUSH2 0x2011 JUMPI POP PUSH2 0x1FFC PUSH2 0x17C0 JUMP JUMPDEST PUSH1 0x1 PUSH1 0x1 PUSH1 0xA0 SHL SUB AND CALLER PUSH1 0x1 PUSH1 0x1 PUSH1 0xA0 SHL SUB AND EQ JUMPDEST PUSH2 0x202D JUMPI PUSH1 0x40 MLOAD PUSH3 0x461BCD PUSH1 0xE5 SHL DUP2 MSTORE PUSH1 0x4 ADD PUSH2 0xB8A SWAP1 PUSH2 0x28F6 JUMP JUMPDEST PUSH1 0xDB DUP1 SLOAD PUSH1 0x1 PUSH1 0x1 PUSH1 0xA0 SHL SUB NOT AND PUSH1 0x1 PUSH1 0x1 PUSH1 0xA0 SHL SUB SWAP3 SWAP1 SWAP3 AND SWAP2 SWAP1 SWAP2 OR SWAP1 SSTORE JUMP JUMPDEST CALLER PUSH2 0x2058 PUSH2 0x17C0 JUMP JUMPDEST PUSH1 0x1 PUSH1 0x1 PUSH1 0xA0 SHL SUB AND EQ PUSH2 0x1550 JUMPI PUSH1 0x40 MLOAD PUSH3 0x461BCD PUSH1 0xE5 SHL DUP2 MSTORE PUSH1 0x20 PUSH1 0x4 DUP3 ADD DUP2 SWAP1 MSTORE PUSH1 0x24 DUP3 ADD MSTORE PUSH32 0x4F776E61626C653A2063616C6C6572206973206E6F7420746865206F776E6572 PUSH1 0x44 DUP3 ADD MSTORE PUSH1 0x64 ADD PUSH2 0xB8A JUMP JUMPDEST PUSH0 DUP1 MLOAD PUSH1 0x20 PUSH2 0x2AB5 DUP4 CODECOPY DUP2 MLOAD SWAP2 MSTORE SLOAD PUSH1 0x1 PUSH1 0x1 PUSH1 0xA0 SHL SUB AND SWAP1 JUMP JUMPDEST PUSH2 0xF9C PUSH2 0x204F JUMP JUMPDEST PUSH32 0x4910FDFA16FED3260ED0E7147F7CC6DA11A60208B5B9406D12A635614FFD9143 SLOAD PUSH1 0xFF AND ISZERO PUSH2 0x2104 JUMPI PUSH2 0x10AF DUP4 PUSH2 0x22C9 JUMP JUMPDEST DUP3 PUSH1 0x1 PUSH1 0x1 PUSH1 0xA0 SHL SUB AND PUSH4 0x52D1902D PUSH1 0x40 MLOAD DUP2 PUSH4 0xFFFFFFFF AND PUSH1 0xE0 SHL DUP2 MSTORE PUSH1 0x4 ADD PUSH1 0x20 PUSH1 0x40 MLOAD DUP1 DUP4 SUB DUP2 DUP7 GAS STATICCALL SWAP3 POP POP POP DUP1 ISZERO PUSH2 0x215E JUMPI POP PUSH1 0x40 DUP1 MLOAD PUSH1 0x1F RETURNDATASIZE SWAP1 DUP2 ADD PUSH1 0x1F NOT AND DUP3 ADD SWAP1 SWAP3 MSTORE PUSH2 0x215B SWAP2 DUP2 ADD SWAP1 PUSH2 0x29C3 JUMP JUMPDEST PUSH1 0x1 JUMPDEST PUSH2 0x21C1 JUMPI PUSH1 0x40 MLOAD PUSH3 0x461BCD PUSH1 0xE5 SHL DUP2 MSTORE PUSH1 0x20 PUSH1 0x4 DUP3 ADD MSTORE PUSH1 0x2E PUSH1 0x24 DUP3 ADD MSTORE PUSH32 0x45524331393637557067726164653A206E657720696D706C656D656E74617469 PUSH1 0x44 DUP3 ADD MSTORE PUSH14 0x6F6E206973206E6F742055555053 PUSH1 0x90 SHL PUSH1 0x64 DUP3 ADD MSTORE PUSH1 0x84 ADD PUSH2 0xB8A JUMP JUMPDEST PUSH0 DUP1 MLOAD PUSH1 0x20 PUSH2 0x2AB5 DUP4 CODECOPY DUP2 MLOAD SWAP2 MSTORE DUP2 EQ PUSH2 0x222F JUMPI PUSH1 0x40 MLOAD PUSH3 0x461BCD PUSH1 0xE5 SHL DUP2 MSTORE PUSH1 0x20 PUSH1 0x4 DUP3 ADD MSTORE PUSH1 0x29 PUSH1 0x24 DUP3 ADD MSTORE PUSH32 0x45524331393637557067726164653A20756E737570706F727465642070726F78 PUSH1 0x44 DUP3 ADD MSTORE PUSH9 0x1A58589B1955555251 PUSH1 0xBA SHL PUSH1 0x64 DUP3 ADD MSTORE PUSH1 0x84 ADD PUSH2 0xB8A JUMP JUMPDEST POP PUSH2 0x10AF DUP4 DUP4 DUP4 PUSH2 0x2362 JUMP JUMPDEST PUSH1 0x33 DUP1 SLOAD PUSH1 0x1 PUSH1 0x1 PUSH1 0xA0 SHL SUB DUP4 DUP2 AND PUSH1 0x1 PUSH1 0x1 PUSH1 0xA0 SHL SUB NOT DUP4 AND DUP2 OR SWAP1 SWAP4 SSTORE PUSH1 0x40 MLOAD SWAP2 AND SWAP2 SWAP1 DUP3 SWAP1 PUSH32 0x8BE0079C531659141344CD1FD0A4F28419497F9722A3DAAFE3B4186F6B6457E0 SWAP1 PUSH0 SWAP1 LOG3 POP POP JUMP JUMPDEST PUSH1 0x1 PUSH1 0x1 PUSH1 0xA0 SHL SUB AND EXTCODESIZE ISZERO ISZERO SWAP1 JUMP JUMPDEST PUSH0 SLOAD PUSH2 0x100 SWAP1 DIV PUSH1 0xFF AND PUSH2 0x22C1 JUMPI PUSH1 0x40 MLOAD PUSH3 0x461BCD PUSH1 0xE5 SHL DUP2 MSTORE PUSH1 0x4 ADD PUSH2 0xB8A SWAP1 PUSH2 0x29DA JUMP JUMPDEST PUSH2 0x1550 PUSH2 0x238C JUMP JUMPDEST PUSH2 0x22D2 DUP2 PUSH2 0x228C JUMP JUMPDEST PUSH2 0x2334 JUMPI PUSH1 0x40 MLOAD PUSH3 0x461BCD PUSH1 0xE5 SHL DUP2 MSTORE PUSH1 0x20 PUSH1 0x4 DUP3 ADD MSTORE PUSH1 0x2D PUSH1 0x24 DUP3 ADD MSTORE PUSH32 0x455243313936373A206E657720696D706C656D656E746174696F6E206973206E PUSH1 0x44 DUP3 ADD MSTORE PUSH13 0x1BDD08184818DBDB9D1C9858DD PUSH1 0x9A SHL PUSH1 0x64 DUP3 ADD MSTORE PUSH1 0x84 ADD PUSH2 0xB8A JUMP JUMPDEST PUSH0 DUP1 MLOAD PUSH1 0x20 PUSH2 0x2AB5 DUP4 CODECOPY DUP2 MLOAD SWAP2 MSTORE DUP1 SLOAD PUSH1 0x1 PUSH1 0x1 PUSH1 0xA0 SHL SUB NOT AND PUSH1 0x1 PUSH1 0x1 PUSH1 0xA0 SHL SUB SWAP3 SWAP1 SWAP3 AND SWAP2 SWAP1 SWAP2 OR SWAP1 SSTORE JUMP JUMPDEST PUSH2 0x236B DUP4 PUSH2 0x23BB JUMP JUMPDEST PUSH0 DUP3 MLOAD GT DUP1 PUSH2 0x2377 JUMPI POP DUP1 JUMPDEST ISZERO PUSH2 0x10AF JUMPI PUSH2 0x2386 DUP4 DUP4 PUSH2 0x23FA JUMP JUMPDEST POP POP POP POP JUMP JUMPDEST PUSH0 SLOAD PUSH2 0x100 SWAP1 DIV PUSH1 0xFF AND PUSH2 0x23B2 JUMPI PUSH1 0x40 MLOAD PUSH3 0x461BCD PUSH1 0xE5 SHL DUP2 MSTORE PUSH1 0x4 ADD PUSH2 0xB8A SWAP1 PUSH2 0x29DA JUMP JUMPDEST PUSH2 0x1550 CALLER PUSH2 0x223B JUMP JUMPDEST PUSH2 0x23C4 DUP2 PUSH2 0x22C9 JUMP JUMPDEST PUSH1 0x40 MLOAD PUSH1 0x1 PUSH1 0x1 PUSH1 0xA0 SHL SUB DUP3 AND SWAP1 PUSH32 0xBC7CD75A20EE27FD9ADEBAB32041F755214DBC6BFFA90CC0225B39DA2E5C2D3B SWAP1 PUSH0 SWAP1 LOG2 POP JUMP JUMPDEST PUSH1 0x60 PUSH2 0x2405 DUP4 PUSH2 0x228C JUMP JUMPDEST PUSH2 0x2460 JUMPI PUSH1 0x40 MLOAD PUSH3 0x461BCD PUSH1 0xE5 SHL DUP2 MSTORE PUSH1 0x20 PUSH1 0x4 DUP3 ADD MSTORE PUSH1 0x26 PUSH1 0x24 DUP3 ADD MSTORE PUSH32 0x416464726573733A2064656C65676174652063616C6C20746F206E6F6E2D636F PUSH1 0x44 DUP3 ADD MSTORE PUSH6 0x1B9D1C9858DD PUSH1 0xD2 SHL PUSH1 0x64 DUP3 ADD MSTORE PUSH1 0x84 ADD PUSH2 0xB8A JUMP JUMPDEST PUSH0 DUP1 DUP5 PUSH1 0x1 PUSH1 0x1 PUSH1 0xA0 SHL SUB AND DUP5 PUSH1 0x40 MLOAD PUSH2 0x247A SWAP2 SWAP1 PUSH2 0x2A47 JUMP JUMPDEST PUSH0 PUSH1 0x40 MLOAD DUP1 DUP4 SUB DUP2 DUP6 GAS DELEGATECALL SWAP2 POP POP RETURNDATASIZE DUP1 PUSH0 DUP2 EQ PUSH2 0x24B2 JUMPI PUSH1 0x40 MLOAD SWAP2 POP PUSH1 0x1F NOT PUSH1 0x3F RETURNDATASIZE ADD AND DUP3 ADD PUSH1 0x40 MSTORE RETURNDATASIZE DUP3 MSTORE RETURNDATASIZE PUSH0 PUSH1 0x20 DUP5 ADD RETURNDATACOPY PUSH2 0x24B7 JUMP JUMPDEST PUSH1 0x60 SWAP2 POP JUMPDEST POP SWAP2 POP SWAP2 POP PUSH2 0x24DF DUP3 DUP3 PUSH1 0x40 MLOAD DUP1 PUSH1 0x60 ADD PUSH1 0x40 MSTORE DUP1 PUSH1 0x27 DUP2 MSTORE PUSH1 0x20 ADD PUSH2 0x2AD5 PUSH1 0x27 SWAP2 CODECOPY PUSH2 0x24E8 JUMP JUMPDEST SWAP6 SWAP5 POP POP POP POP POP JUMP JUMPDEST PUSH1 0x60 DUP4 ISZERO PUSH2 0x24F7 JUMPI POP DUP2 PUSH2 0x2501 JUMP JUMPDEST PUSH2 0x2501 DUP4 DUP4 PUSH2 0x2508 JUMP JUMPDEST SWAP4 SWAP3 POP POP POP JUMP JUMPDEST DUP2 MLOAD ISZERO PUSH2 0x2518 JUMPI DUP2 MLOAD DUP1 DUP4 PUSH1 0x20 ADD REVERT JUMPDEST DUP1 PUSH1 0x40 MLOAD PUSH3 0x461BCD PUSH1 0xE5 SHL DUP2 MSTORE PUSH1 0x4 ADD PUSH2 0xB8A SWAP2 SWAP1 PUSH2 0x2A62 JUMP JUMPDEST PUSH0 PUSH1 0x20 DUP3 DUP5 SUB SLT ISZERO PUSH2 0x2542 JUMPI PUSH0 DUP1 REVERT JUMPDEST POP CALLDATALOAD SWAP2 SWAP1 POP JUMP JUMPDEST DUP1 CALLDATALOAD PUSH1 0x1 PUSH1 0x1 PUSH1 0xA0 SHL SUB DUP2 AND DUP2 EQ PUSH2 0x255F JUMPI PUSH0 DUP1 REVERT JUMPDEST SWAP2 SWAP1 POP JUMP JUMPDEST PUSH0 PUSH1 0x20 DUP3 DUP5 SUB SLT ISZERO PUSH2 0x2574 JUMPI PUSH0 DUP1 REVERT JUMPDEST PUSH2 0x2501 DUP3 PUSH2 0x2549 JUMP JUMPDEST PUSH0 DUP2 MLOAD DUP1 DUP5 MSTORE PUSH1 0x20 DUP1 DUP6 ADD SWAP5 POP DUP1 DUP5 ADD PUSH0 JUMPDEST DUP4 DUP2 LT ISZERO PUSH2 0x25B4 JUMPI DUP2 MLOAD PUSH1 0x1 PUSH1 0x1 PUSH1 0xA0 SHL SUB AND DUP8 MSTORE SWAP6 DUP3 ADD SWAP6 SWAP1 DUP3 ADD SWAP1 PUSH1 0x1 ADD PUSH2 0x258F JUMP JUMPDEST POP SWAP5 SWAP6 SWAP5 POP POP POP POP POP JUMP JUMPDEST PUSH1 0x20 DUP2 MSTORE PUSH0 PUSH2 0x2501 PUSH1 0x20 DUP4 ADD DUP5 PUSH2 0x257D JUMP JUMPDEST PUSH0 DUP2 MLOAD DUP1 DUP5 MSTORE PUSH1 0x20 DUP1 DUP6 ADD SWAP5 POP DUP1 DUP5 ADD PUSH0 JUMPDEST DUP4 DUP2 LT ISZERO PUSH2 0x25B4 JUMPI DUP2 MLOAD DUP8 MSTORE SWAP6 DUP3 ADD SWAP6 SWAP1 DUP3 ADD SWAP1 PUSH1 0x1 ADD PUSH2 0x25E3 JUMP JUMPDEST PUSH1 0x20 DUP2 MSTORE PUSH0 PUSH2 0x2501 PUSH1 0x20 DUP4 ADD DUP5 PUSH2 0x25D1 JUMP JUMPDEST PUSH0 DUP1 PUSH1 0x40 DUP4 DUP6 SUB SLT ISZERO PUSH2 0x2622 JUMPI PUSH0 DUP1 REVERT JUMPDEST PUSH2 0x262B DUP4 PUSH2 0x2549 JUMP JUMPDEST SWAP5 PUSH1 0x20 SWAP4 SWAP1 SWAP4 ADD CALLDATALOAD SWAP4 POP POP POP JUMP JUMPDEST PUSH4 0x4E487B71 PUSH1 0xE0 SHL PUSH0 MSTORE PUSH1 0x41 PUSH1 0x4 MSTORE PUSH1 0x24 PUSH0 REVERT JUMPDEST PUSH1 0x40 MLOAD PUSH1 0x1F DUP3 ADD PUSH1 0x1F NOT AND DUP2 ADD PUSH1 0x1 PUSH1 0x1 PUSH1 0x40 SHL SUB DUP2 GT DUP3 DUP3 LT OR ISZERO PUSH2 0x2675 JUMPI PUSH2 0x2675 PUSH2 0x2639 JUMP JUMPDEST PUSH1 0x40 MSTORE SWAP2 SWAP1 POP JUMP JUMPDEST PUSH0 DUP3 PUSH1 0x1F DUP4 ADD SLT PUSH2 0x268C JUMPI PUSH0 DUP1 REVERT JUMPDEST DUP2 CALLDATALOAD PUSH1 0x20 PUSH1 0x1 PUSH1 0x1 PUSH1 0x40 SHL SUB DUP3 GT ISZERO PUSH2 0x26A7 JUMPI PUSH2 0x26A7 PUSH2 0x2639 JUMP JUMPDEST DUP2 PUSH1 0x5 SHL PUSH2 0x26B6 DUP3 DUP3 ADD PUSH2 0x264D JUMP JUMPDEST SWAP3 DUP4 MSTORE DUP5 DUP2 ADD DUP3 ADD SWAP3 DUP3 DUP2 ADD SWAP1 DUP8 DUP6 GT ISZERO PUSH2 0x26CF JUMPI PUSH0 DUP1 REVERT JUMPDEST DUP4 DUP8 ADD SWAP3 POP JUMPDEST DUP5 DUP4 LT ISZERO PUSH2 0x26EE JUMPI DUP3 CALLDATALOAD DUP3 MSTORE SWAP2 DUP4 ADD SWAP2 SWAP1 DUP4 ADD SWAP1 PUSH2 0x26D5 JUMP JUMPDEST SWAP8 SWAP7 POP POP POP POP POP POP POP JUMP JUMPDEST PUSH0 DUP1 PUSH1 0x40 DUP4 DUP6 SUB SLT ISZERO PUSH2 0x270A JUMPI PUSH0 DUP1 REVERT JUMPDEST DUP3 CALLDATALOAD PUSH1 0x1 PUSH1 0x1 PUSH1 0x40 SHL SUB DUP1 DUP3 GT ISZERO PUSH2 0x2720 JUMPI PUSH0 DUP1 REVERT JUMPDEST PUSH2 0x272C DUP7 DUP4 DUP8 ADD PUSH2 0x267D JUMP JUMPDEST SWAP4 POP PUSH1 0x20 DUP6 ADD CALLDATALOAD SWAP2 POP DUP1 DUP3 GT ISZERO PUSH2 0x2741 JUMPI PUSH0 DUP1 REVERT JUMPDEST POP PUSH2 0x274E DUP6 DUP3 DUP7 ADD PUSH2 0x267D JUMP JUMPDEST SWAP2 POP POP SWAP3 POP SWAP3 SWAP1 POP JUMP JUMPDEST PUSH0 DUP1 PUSH1 0x40 DUP4 DUP6 SUB SLT ISZERO PUSH2 0x2769 JUMPI PUSH0 DUP1 REVERT JUMPDEST PUSH2 0x2772 DUP4 PUSH2 0x2549 JUMP JUMPDEST SWAP2 POP PUSH1 0x20 DUP4 ADD CALLDATALOAD DUP1 ISZERO ISZERO DUP2 EQ PUSH2 0x2786 JUMPI PUSH0 DUP1 REVERT JUMPDEST DUP1 SWAP2 POP POP SWAP3 POP SWAP3 SWAP1 POP JUMP JUMPDEST PUSH0 DUP1 PUSH1 0x40 DUP4 DUP6 SUB SLT ISZERO PUSH2 0x27A2 JUMPI PUSH0 DUP1 REVERT JUMPDEST PUSH2 0x27AB DUP4 PUSH2 0x2549 JUMP JUMPDEST SWAP2 POP PUSH1 0x20 DUP4 DUP2 ADD CALLDATALOAD PUSH1 0x1 PUSH1 0x1 PUSH1 0x40 SHL SUB DUP1 DUP3 GT ISZERO PUSH2 0x27C7 JUMPI PUSH0 DUP1 REVERT JUMPDEST DUP2 DUP7 ADD SWAP2 POP DUP7 PUSH1 0x1F DUP4 ADD SLT PUSH2 0x27DA JUMPI PUSH0 DUP1 REVERT JUMPDEST DUP2 CALLDATALOAD DUP2 DUP2 GT ISZERO PUSH2 0x27EC JUMPI PUSH2 0x27EC PUSH2 0x2639 JUMP JUMPDEST PUSH2 0x27FE PUSH1 0x1F DUP3 ADD PUSH1 0x1F NOT AND DUP6 ADD PUSH2 0x264D JUMP JUMPDEST SWAP2 POP DUP1 DUP3 MSTORE DUP8 DUP5 DUP3 DUP6 ADD ADD GT ISZERO PUSH2 0x2813 JUMPI PUSH0 DUP1 REVERT JUMPDEST DUP1 DUP5 DUP5 ADD DUP6 DUP5 ADD CALLDATACOPY PUSH0 DUP5 DUP3 DUP5 ADD ADD MSTORE POP DUP1 SWAP4 POP POP POP POP SWAP3 POP SWAP3 SWAP1 POP JUMP JUMPDEST PUSH1 0x40 DUP2 MSTORE PUSH0 PUSH2 0x2842 PUSH1 0x40 DUP4 ADD DUP6 PUSH2 0x257D JUMP JUMPDEST DUP3 DUP2 SUB PUSH1 0x20 DUP5 ADD MSTORE PUSH2 0x24DF DUP2 DUP6 PUSH2 0x25D1 JUMP JUMPDEST PUSH0 DUP1 PUSH0 DUP1 PUSH0 DUP1 PUSH1 0xC0 DUP8 DUP10 SUB SLT ISZERO PUSH2 0x2869 JUMPI PUSH0 DUP1 REVERT JUMPDEST PUSH2 0x2872 DUP8 PUSH2 0x2549 JUMP JUMPDEST SWAP6 POP PUSH2 0x2880 PUSH1 0x20 DUP9 ADD PUSH2 0x2549 JUMP JUMPDEST SWAP5 POP PUSH2 0x288E PUSH1 0x40 DUP9 ADD PUSH2 0x2549 JUMP JUMPDEST SWAP4 POP PUSH2 0x289C PUSH1 0x60 DUP9 ADD PUSH2 0x2549 JUMP JUMPDEST SWAP3 POP PUSH2 0x28AA PUSH1 0x80 DUP9 ADD PUSH2 0x2549 JUMP JUMPDEST SWAP2 POP PUSH2 0x28B8 PUSH1 0xA0 DUP9 ADD PUSH2 0x2549 JUMP JUMPDEST SWAP1 POP SWAP3 SWAP6 POP SWAP3 SWAP6 POP SWAP3 SWAP6 JUMP JUMPDEST PUSH1 0x40 DUP2 MSTORE PUSH0 PUSH2 0x2842 PUSH1 0x40 DUP4 ADD DUP6 PUSH2 0x25D1 JUMP JUMPDEST PUSH0 DUP1 PUSH1 0x40 DUP4 DUP6 SUB SLT ISZERO PUSH2 0x28E7 JUMPI PUSH0 DUP1 REVERT JUMPDEST POP POP DUP1 CALLDATALOAD SWAP3 PUSH1 0x20 SWAP1 SWAP2 ADD CALLDATALOAD SWAP2 POP JUMP JUMPDEST PUSH1 0x20 DUP1 DUP3 MSTORE PUSH1 0x9 SWAP1 DUP3 ADD MSTORE PUSH9 0x3737BA1030B236B4B7 PUSH1 0xB9 SHL PUSH1 0x40 DUP3 ADD MSTORE PUSH1 0x60 ADD SWAP1 JUMP JUMPDEST PUSH4 0x4E487B71 PUSH1 0xE0 SHL PUSH0 MSTORE PUSH1 0x32 PUSH1 0x4 MSTORE PUSH1 0x24 PUSH0 REVERT JUMPDEST PUSH1 0x20 DUP1 DUP3 MSTORE PUSH1 0x2C SWAP1 DUP3 ADD MSTORE PUSH0 DUP1 MLOAD PUSH1 0x20 PUSH2 0x2A95 DUP4 CODECOPY DUP2 MLOAD SWAP2 MSTORE PUSH1 0x40 DUP3 ADD MSTORE PUSH12 0x19195B1959D85D1958D85B1B PUSH1 0xA2 SHL PUSH1 0x60 DUP3 ADD MSTORE PUSH1 0x80 ADD SWAP1 JUMP JUMPDEST PUSH1 0x20 DUP1 DUP3 MSTORE PUSH1 0x2C SWAP1 DUP3 ADD MSTORE PUSH0 DUP1 MLOAD PUSH1 0x20 PUSH2 0x2A95 DUP4 CODECOPY DUP2 MLOAD SWAP2 MSTORE PUSH1 0x40 DUP3 ADD MSTORE PUSH12 0x6163746976652070726F7879 PUSH1 0xA0 SHL PUSH1 0x60 DUP3 ADD MSTORE PUSH1 0x80 ADD SWAP1 JUMP JUMPDEST PUSH0 PUSH1 0x1 DUP3 ADD PUSH2 0x29BC JUMPI PUSH4 0x4E487B71 PUSH1 0xE0 SHL PUSH0 MSTORE PUSH1 0x11 PUSH1 0x4 MSTORE PUSH1 0x24 PUSH0 REVERT JUMPDEST POP PUSH1 0x1 ADD SWAP1 JUMP JUMPDEST PUSH0 PUSH1 0x20 DUP3 DUP5 SUB SLT ISZERO PUSH2 0x29D3 JUMPI PUSH0 DUP1 REVERT JUMPDEST POP MLOAD SWAP2 SWAP1 POP JUMP JUMPDEST PUSH1 0x20 DUP1 DUP3 MSTORE PUSH1 0x2B SWAP1 DUP3 ADD MSTORE PUSH32 0x496E697469616C697A61626C653A20636F6E7472616374206973206E6F742069 PUSH1 0x40 DUP3 ADD MSTORE PUSH11 0x6E697469616C697A696E67 PUSH1 0xA8 SHL PUSH1 0x60 DUP3 ADD MSTORE PUSH1 0x80 ADD SWAP1 JUMP JUMPDEST PUSH0 JUMPDEST DUP4 DUP2 LT ISZERO PUSH2 0x2A3F JUMPI DUP2 DUP2 ADD MLOAD DUP4 DUP3 ADD MSTORE PUSH1 0x20 ADD PUSH2 0x2A27 JUMP JUMPDEST POP POP PUSH0 SWAP2 ADD MSTORE JUMP JUMPDEST PUSH0 DUP3 MLOAD PUSH2 0x2A58 DUP2 DUP5 PUSH1 0x20 DUP8 ADD PUSH2 0x2A25 JUMP JUMPDEST SWAP2 SWAP1 SWAP2 ADD SWAP3 SWAP2 POP POP JUMP JUMPDEST PUSH1 0x20 DUP2 MSTORE PUSH0 DUP3 MLOAD DUP1 PUSH1 0x20 DUP5 ADD MSTORE PUSH2 0x2A80 DUP2 PUSH1 0x40 DUP6 ADD PUSH1 0x20 DUP8 ADD PUSH2 0x2A25 JUMP JUMPDEST PUSH1 0x1F ADD PUSH1 0x1F NOT AND SWAP2 SWAP1 SWAP2 ADD PUSH1 0x40 ADD SWAP3 SWAP2 POP POP JUMP INVALID CHAINID PUSH22 0x6E6374696F6E206D7573742062652063616C6C656420 PUSH21 0x68726F75676820360894A13BA1A3210667C828492D 0xB9 DUP14 0xCA RETURNDATACOPY KECCAK256 PUSH23 0xCC3735A920A3CA505D382BBC416464726573733A206C6F PUSH24 0x2D6C6576656C2064656C65676174652063616C6C20666169 PUSH13 0x65643EFDD7A884FF9E18C9E571 SHR XOR GAS 0xA6 0xC5 0xE4 SGT 0xB6 DUP16 0x23 NOT PUSH26 0x97DA5B1665CA978F99A2646970667358221220B11EB40ACE0E27 0x2B 0xF PUSH12 0xC76F49FEC165F3EA9109CA82 BYTE 0xC5 PUSH18 0xAB1E243916758364736F6C63430008140033 "
		},
		"gasEstimates": {
			"creation": {
				"codeDepositCost": "2217800",
				"executionCost": "infinite",
				"totalCost": "infinite"
			},
			"external": {
				"acb()": "3008",
				"acbPair()": "2920",
				"airdropMachine(address,uint256)": "infinite",
				"buylocked()": "2690",
				"changeBuylock(uint256)": "27138",
				"changeClaimInterval(uint256)": "26896",
				"changeMachineExpireTime(uint256)": "26852",
				"changeMarketAddress(address)": "29298",
				"changeMaxComputingPower(uint256)": "26874",
				"changeMinComputingPower(uint256)": "27007",
				"changeMonthDividenAddress(address)": "29605",
				"changeMvCollectionAddress(address)": "29627",
				"changeOperator(address)": "26801",
				"changePlatformAddress(address)": "29451",
				"changePlatformRate(uint256)": "26830",
				"changeRefRewardRate(uint256,uint256)": "49383",
				"changeRemainingAddress(address)": "29539",
				"changeSameLevelRewardRate(uint256)": "27205",
				"changeShareHolderMinLimit(uint256)": "26742",
				"changeShareHolderRewardRate(uint256)": "26831",
				"changeSwapRate(uint256)": "26765",
				"changeTeamLevel(uint256[],uint256[])": "infinite",
				"changeTeamRewardAddress(address)": "29693",
				"changeTeamRewardRate(uint256)": "26962",
				"changeTechAddress(address)": "28967",
				"claimInterval()": "2361",
				"getRateConfig()": "infinite",
				"getTeamAddress()": "infinite",
				"getTeamLevel()": "infinite",
				"getUserLevels()": "infinite",
				"initialize(address)": "infinite",
				"machineExpireTime()": "2537",
				"marketAddress()": "2677",
				"maxComputingPower()": "2735",
				"minComputingPower()": "2514",
				"minePool()": "3030",
				"mmStore()": "2876",
				"monthDividendAddress()": "2765",
				"mv()": "2655",
				"mvCollectionAddress()": "2875",
				"operator()": "2964",
				"owner()": "2620",
				"platformAddress()": "2831",
				"platformRate()": "2669",
				"proxiableUUID()": "infinite",
				"refRewardOneRate()": "2558",
				"refRewardTwoRate()": "2757",
				"remainingAddress()": "3007",
				"renounceOwnership()": "infinite",
				"sameLevelRewardRate()": "2888",
				"setAdmin(address,bool)": "27407",
				"setConfig(address,address,address,address,address,address)": "infinite",
				"setUserLevel(address,uint256)": "75733",
				"shareHolderMinLimit()": "2471",
				"shareHolderRewardRate()": "2691",
				"swapRate()": "2338",
				"teamLevel(uint256)": "4773",
				"teamRewardAddress()": "2854",
				"teamRewardRate()": "2602",
				"techAddress()": "2458",
				"top()": "908",
				"transferOwnership(address)": "28994",
				"upgradeTo(address)": "infinite",
				"upgradeToAndCall(address,bytes)": "infinite",
				"usdt()": "2590",
				"userArr(uint256)": "4601",
				"userLevel(address)": "2737"
			},
			"internal": {
				"_authorizeUpgrade(address)": "infinite"
			}
		},
		"methodIdentifiers": {
			"acb()": "5bff9787",
			"acbPair()": "5250c9b5",
			"airdropMachine(address,uint256)": "57629f82",
			"buylocked()": "a03cc2a6",
			"changeBuylock(uint256)": "a40b64d5",
			"changeClaimInterval(uint256)": "796f838e",
			"changeMachineExpireTime(uint256)": "7634b070",
			"changeMarketAddress(address)": "35aed778",
			"changeMaxComputingPower(uint256)": "767608e2",
			"changeMinComputingPower(uint256)": "3360364d",
			"changeMonthDividenAddress(address)": "f7656704",
			"changeMvCollectionAddress(address)": "f80183b2",
			"changeOperator(address)": "06394c9b",
			"changePlatformAddress(address)": "cde85744",
			"changePlatformRate(uint256)": "72765009",
			"changeRefRewardRate(uint256,uint256)": "e3d9aa05",
			"changeRemainingAddress(address)": "eb2266bc",
			"changeSameLevelRewardRate(uint256)": "498c1e3c",
			"changeShareHolderMinLimit(uint256)": "66bf8f83",
			"changeShareHolderRewardRate(uint256)": "19a2ef5f",
			"changeSwapRate(uint256)": "08f93bd8",
			"changeTeamLevel(uint256[],uint256[])": "3b2c2e55",
			"changeTeamRewardAddress(address)": "ff858079",
			"changeTeamRewardRate(uint256)": "863be1ab",
			"changeTechAddress(address)": "669934a9",
			"claimInterval()": "0b433a12",
			"getRateConfig()": "1e79aa0a",
			"getTeamAddress()": "182d326e",
			"getTeamLevel()": "9a3135a8",
			"getUserLevels()": "6b1a9c07",
			"initialize(address)": "c4d66de8",
			"machineExpireTime()": "2d8852ee",
			"marketAddress()": "95623641",
			"maxComputingPower()": "3d08e5b3",
			"minComputingPower()": "85adb294",
			"minePool()": "602e6623",
			"mmStore()": "4dd40234",
			"monthDividendAddress()": "b2cf085e",
			"mv()": "8f05cdf5",
			"mvCollectionAddress()": "e9d610e5",
			"operator()": "570ca735",
			"owner()": "8da5cb5b",
			"platformAddress()": "dbe55e56",
			"platformRate()": "36e0cac6",
			"proxiableUUID()": "52d1902d",
			"refRewardOneRate()": "8a5705d4",
			"refRewardTwoRate()": "434f9736",
			"remainingAddress()": "f97fe091",
			"renounceOwnership()": "715018a6",
			"sameLevelRewardRate()": "ee787b11",
			"setAdmin(address,bool)": "4b0bddd2",
			"setConfig(address,address,address,address,address,address)": "812df395",
			"setUserLevel(address,uint256)": "33f5780e",
			"shareHolderMinLimit()": "21596c25",
			"shareHolderRewardRate()": "39cbc405",
			"swapRate()": "698518e5",
			"teamLevel(uint256)": "254720b7",
			"teamRewardAddress()": "4b21ddec",
			"teamRewardRate()": "8e10ef0b",
			"techAddress()": "1e56cfab",
			"top()": "fe6dcdba",
			"transferOwnership(address)": "f2fde38b",
			"upgradeTo(address)": "3659cfe6",
			"upgradeToAndCall(address,bytes)": "4f1ef286",
			"usdt()": "2f48ab7d",
			"userArr(uint256)": "057d7781",
			"userLevel(address)": "280e31cc"
		}
	},
	"abi": [
		{
			"anonymous": false,
			"inputs": [
				{
					"indexed": false,
					"internalType": "address",
					"name": "previousAdmin",
					"type": "address"
				},
				{
					"indexed": false,
					"internalType": "address",
					"name": "newAdmin",
					"type": "address"
				}
			],
			"name": "AdminChanged",
			"type": "event"
		},
		{
			"anonymous": false,
			"inputs": [
				{
					"indexed": true,
					"internalType": "address",
					"name": "beacon",
					"type": "address"
				}
			],
			"name": "BeaconUpgraded",
			"type": "event"
		},
		{
			"anonymous": false,
			"inputs": [
				{
					"indexed": false,
					"internalType": "uint8",
					"name": "version",
					"type": "uint8"
				}
			],
			"name": "Initialized",
			"type": "event"
		},
		{
			"anonymous": false,
			"inputs": [
				{
					"indexed": true,
					"internalType": "address",
					"name": "previousOwner",
					"type": "address"
				},
				{
					"indexed": true,
					"internalType": "address",
					"name": "newOwner",
					"type": "address"
				}
			],
			"name": "OwnershipTransferred",
			"type": "event"
		},
		{
			"anonymous": false,
			"inputs": [
				{
					"indexed": true,
					"internalType": "address",
					"name": "implementation",
					"type": "address"
				}
			],
			"name": "Upgraded",
			"type": "event"
		},
		{
			"inputs": [],
			"name": "acb",
			"outputs": [
				{
					"internalType": "address",
					"name": "",
					"type": "address"
				}
			],
			"stateMutability": "view",
			"type": "function"
		},
		{
			"inputs": [],
			"name": "acbPair",
			"outputs": [
				{
					"internalType": "address",
					"name": "",
					"type": "address"
				}
			],
			"stateMutability": "view",
			"type": "function"
		},
		{
			"inputs": [
				{
					"internalType": "address",
					"name": "user",
					"type": "address"
				},
				{
					"internalType": "uint256",
					"name": "amount",
					"type": "uint256"
				}
			],
			"name": "airdropMachine",
			"outputs": [],
			"stateMutability": "nonpayable",
			"type": "function"
		},
		{
			"inputs": [],
			"name": "buylocked",
			"outputs": [
				{
					"internalType": "uint256",
					"name": "",
					"type": "uint256"
				}
			],
			"stateMutability": "view",
			"type": "function"
		},
		{
			"inputs": [
				{
					"internalType": "uint256",
					"name": "_buylocked",
					"type": "uint256"
				}
			],
			"name": "changeBuylock",
			"outputs": [],
			"stateMutability": "nonpayable",
			"type": "function"
		},
		{
			"inputs": [
				{
					"internalType": "uint256",
					"name": "_claimInterval",
					"type": "uint256"
				}
			],
			"name": "changeClaimInterval",
			"outputs": [],
			"stateMutability": "nonpayable",
			"type": "function"
		},
		{
			"inputs": [
				{
					"internalType": "uint256",
					"name": "_machineExpireTime",
					"type": "uint256"
				}
			],
			"name": "changeMachineExpireTime",
			"outputs": [],
			"stateMutability": "nonpayable",
			"type": "function"
		},
		{
			"inputs": [
				{
					"internalType": "address",
					"name": "_marketAddress",
					"type": "address"
				}
			],
			"name": "changeMarketAddress",
			"outputs": [],
			"stateMutability": "nonpayable",
			"type": "function"
		},
		{
			"inputs": [
				{
					"internalType": "uint256",
					"name": "_maxComputingPower",
					"type": "uint256"
				}
			],
			"name": "changeMaxComputingPower",
			"outputs": [],
			"stateMutability": "nonpayable",
			"type": "function"
		},
		{
			"inputs": [
				{
					"internalType": "uint256",
					"name": "_minComputingPower",
					"type": "uint256"
				}
			],
			"name": "changeMinComputingPower",
			"outputs": [],
			"stateMutability": "nonpayable",
			"type": "function"
		},
		{
			"inputs": [
				{
					"internalType": "address",
					"name": "_monthDividendAddress",
					"type": "address"
				}
			],
			"name": "changeMonthDividenAddress",
			"outputs": [],
			"stateMutability": "nonpayable",
			"type": "function"
		},
		{
			"inputs": [
				{
					"internalType": "address",
					"name": "_mvCollectionAddress",
					"type": "address"
				}
			],
			"name": "changeMvCollectionAddress",
			"outputs": [],
			"stateMutability": "nonpayable",
			"type": "function"
		},
		{
			"inputs": [
				{
					"internalType": "address",
					"name": "_operator",
					"type": "address"
				}
			],
			"name": "changeOperator",
			"outputs": [],
			"stateMutability": "nonpayable",
			"type": "function"
		},
		{
			"inputs": [
				{
					"internalType": "address",
					"name": "_platformAddress",
					"type": "address"
				}
			],
			"name": "changePlatformAddress",
			"outputs": [],
			"stateMutability": "nonpayable",
			"type": "function"
		},
		{
			"inputs": [
				{
					"internalType": "uint256",
					"name": "_platformRate",
					"type": "uint256"
				}
			],
			"name": "changePlatformRate",
			"outputs": [],
			"stateMutability": "nonpayable",
			"type": "function"
		},
		{
			"inputs": [
				{
					"internalType": "uint256",
					"name": "_oneRate",
					"type": "uint256"
				},
				{
					"internalType": "uint256",
					"name": "_twoRate",
					"type": "uint256"
				}
			],
			"name": "changeRefRewardRate",
			"outputs": [],
			"stateMutability": "nonpayable",
			"type": "function"
		},
		{
			"inputs": [
				{
					"internalType": "address",
					"name": "_remainingAddress",
					"type": "address"
				}
			],
			"name": "changeRemainingAddress",
			"outputs": [],
			"stateMutability": "nonpayable",
			"type": "function"
		},
		{
			"inputs": [
				{
					"internalType": "uint256",
					"name": "_sameLevelRewardRate",
					"type": "uint256"
				}
			],
			"name": "changeSameLevelRewardRate",
			"outputs": [],
			"stateMutability": "nonpayable",
			"type": "function"
		},
		{
			"inputs": [
				{
					"internalType": "uint256",
					"name": "_shareHolderMinLimit",
					"type": "uint256"
				}
			],
			"name": "changeShareHolderMinLimit",
			"outputs": [],
			"stateMutability": "nonpayable",
			"type": "function"
		},
		{
			"inputs": [
				{
					"internalType": "uint256",
					"name": "_shareHolderRewardRate",
					"type": "uint256"
				}
			],
			"name": "changeShareHolderRewardRate",
			"outputs": [],
			"stateMutability": "nonpayable",
			"type": "function"
		},
		{
			"inputs": [
				{
					"internalType": "uint256",
					"name": "_swapRate",
					"type": "uint256"
				}
			],
			"name": "changeSwapRate",
			"outputs": [],
			"stateMutability": "nonpayable",
			"type": "function"
		},
		{
			"inputs": [
				{
					"internalType": "uint256[]",
					"name": "_amount",
					"type": "uint256[]"
				},
				{
					"internalType": "uint256[]",
					"name": "_rate",
					"type": "uint256[]"
				}
			],
			"name": "changeTeamLevel",
			"outputs": [],
			"stateMutability": "nonpayable",
			"type": "function"
		},
		{
			"inputs": [
				{
					"internalType": "address",
					"name": "_teamRewardAddress",
					"type": "address"
				}
			],
			"name": "changeTeamRewardAddress",
			"outputs": [],
			"stateMutability": "nonpayable",
			"type": "function"
		},
		{
			"inputs": [
				{
					"internalType": "uint256",
					"name": "_teamRewardRate",
					"type": "uint256"
				}
			],
			"name": "changeTeamRewardRate",
			"outputs": [],
			"stateMutability": "nonpayable",
			"type": "function"
		},
		{
			"inputs": [
				{
					"internalType": "address",
					"name": "_techAddress",
					"type": "address"
				}
			],
			"name": "changeTechAddress",
			"outputs": [],
			"stateMutability": "nonpayable",
			"type": "function"
		},
		{
			"inputs": [],
			"name": "claimInterval",
			"outputs": [
				{
					"internalType": "uint256",
					"name": "",
					"type": "uint256"
				}
			],
			"stateMutability": "view",
			"type": "function"
		},
		{
			"inputs": [],
			"name": "getRateConfig",
			"outputs": [
				{
					"internalType": "uint256[]",
					"name": "rates",
					"type": "uint256[]"
				}
			],
			"stateMutability": "view",
			"type": "function"
		},
		{
			"inputs": [],
			"name": "getTeamAddress",
			"outputs": [
				{
					"internalType": "address[]",
					"name": "addressArr",
					"type": "address[]"
				}
			],
			"stateMutability": "view",
			"type": "function"
		},
		{
			"inputs": [],
			"name": "getTeamLevel",
			"outputs": [
				{
					"internalType": "uint256[]",
					"name": "amounts",
					"type": "uint256[]"
				},
				{
					"internalType": "uint256[]",
					"name": "rates",
					"type": "uint256[]"
				}
			],
			"stateMutability": "view",
			"type": "function"
		},
		{
			"inputs": [],
			"name": "getUserLevels",
			"outputs": [
				{
					"internalType": "address[]",
					"name": "users",
					"type": "address[]"
				},
				{
					"internalType": "uint256[]",
					"name": "levels",
					"type": "uint256[]"
				}
			],
			"stateMutability": "view",
			"type": "function"
		},
		{
			"inputs": [
				{
					"internalType": "address",
					"name": "_operator",
					"type": "address"
				}
			],
			"name": "initialize",
			"outputs": [],
			"stateMutability": "nonpayable",
			"type": "function"
		},
		{
			"inputs": [],
			"name": "machineExpireTime",
			"outputs": [
				{
					"internalType": "uint256",
					"name": "",
					"type": "uint256"
				}
			],
			"stateMutability": "view",
			"type": "function"
		},
		{
			"inputs": [],
			"name": "marketAddress",
			"outputs": [
				{
					"internalType": "address",
					"name": "",
					"type": "address"
				}
			],
			"stateMutability": "view",
			"type": "function"
		},
		{
			"inputs": [],
			"name": "maxComputingPower",
			"outputs": [
				{
					"internalType": "uint256",
					"name": "",
					"type": "uint256"
				}
			],
			"stateMutability": "view",
			"type": "function"
		},
		{
			"inputs": [],
			"name": "minComputingPower",
			"outputs": [
				{
					"internalType": "uint256",
					"name": "",
					"type": "uint256"
				}
			],
			"stateMutability": "view",
			"type": "function"
		},
		{
			"inputs": [],
			"name": "minePool",
			"outputs": [
				{
					"internalType": "address",
					"name": "",
					"type": "address"
				}
			],
			"stateMutability": "view",
			"type": "function"
		},
		{
			"inputs": [],
			"name": "mmStore",
			"outputs": [
				{
					"internalType": "address",
					"name": "",
					"type": "address"
				}
			],
			"stateMutability": "view",
			"type": "function"
		},
		{
			"inputs": [],
			"name": "monthDividendAddress",
			"outputs": [
				{
					"internalType": "address",
					"name": "",
					"type": "address"
				}
			],
			"stateMutability": "view",
			"type": "function"
		},
		{
			"inputs": [],
			"name": "mv",
			"outputs": [
				{
					"internalType": "address",
					"name": "",
					"type": "address"
				}
			],
			"stateMutability": "view",
			"type": "function"
		},
		{
			"inputs": [],
			"name": "mvCollectionAddress",
			"outputs": [
				{
					"internalType": "address",
					"name": "",
					"type": "address"
				}
			],
			"stateMutability": "view",
			"type": "function"
		},
		{
			"inputs": [],
			"name": "operator",
			"outputs": [
				{
					"internalType": "address",
					"name": "",
					"type": "address"
				}
			],
			"stateMutability": "view",
			"type": "function"
		},
		{
			"inputs": [],
			"name": "owner",
			"outputs": [
				{
					"internalType": "address",
					"name": "",
					"type": "address"
				}
			],
			"stateMutability": "view",
			"type": "function"
		},
		{
			"inputs": [],
			"name": "platformAddress",
			"outputs": [
				{
					"internalType": "address",
					"name": "",
					"type": "address"
				}
			],
			"stateMutability": "view",
			"type": "function"
		},
		{
			"inputs": [],
			"name": "platformRate",
			"outputs": [
				{
					"internalType": "uint256",
					"name": "",
					"type": "uint256"
				}
			],
			"stateMutability": "view",
			"type": "function"
		},
		{
			"inputs": [],
			"name": "proxiableUUID",
			"outputs": [
				{
					"internalType": "bytes32",
					"name": "",
					"type": "bytes32"
				}
			],
			"stateMutability": "view",
			"type": "function"
		},
		{
			"inputs": [],
			"name": "refRewardOneRate",
			"outputs": [
				{
					"internalType": "uint256",
					"name": "",
					"type": "uint256"
				}
			],
			"stateMutability": "view",
			"type": "function"
		},
		{
			"inputs": [],
			"name": "refRewardTwoRate",
			"outputs": [
				{
					"internalType": "uint256",
					"name": "",
					"type": "uint256"
				}
			],
			"stateMutability": "view",
			"type": "function"
		},
		{
			"inputs": [],
			"name": "remainingAddress",
			"outputs": [
				{
					"internalType": "address",
					"name": "",
					"type": "address"
				}
			],
			"stateMutability": "view",
			"type": "function"
		},
		{
			"inputs": [],
			"name": "renounceOwnership",
			"outputs": [],
			"stateMutability": "nonpayable",
			"type": "function"
		},
		{
			"inputs": [],
			"name": "sameLevelRewardRate",
			"outputs": [
				{
					"internalType": "uint256",
					"name": "",
					"type": "uint256"
				}
			],
			"stateMutability": "view",
			"type": "function"
		},
		{
			"inputs": [
				{
					"internalType": "address",
					"name": "user",
					"type": "address"
				},
				{
					"internalType": "bool",
					"name": "auth",
					"type": "bool"
				}
			],
			"name": "setAdmin",
			"outputs": [],
			"stateMutability": "nonpayable",
			"type": "function"
		},
		{
			"inputs": [
				{
					"internalType": "address",
					"name": "_usdt",
					"type": "address"
				},
				{
					"internalType": "address",
					"name": "_mv",
					"type": "address"
				},
				{
					"internalType": "address",
					"name": "_acb",
					"type": "address"
				},
				{
					"internalType": "address",
					"name": "_minePool",
					"type": "address"
				},
				{
					"internalType": "address",
					"name": "_mmStore",
					"type": "address"
				},
				{
					"internalType": "address",
					"name": "_acbPair",
					"type": "address"
				}
			],
			"name": "setConfig",
			"outputs": [],
			"stateMutability": "nonpayable",
			"type": "function"
		},
		{
			"inputs": [
				{
					"internalType": "address",
					"name": "_user",
					"type": "address"
				},
				{
					"internalType": "uint256",
					"name": "_level",
					"type": "uint256"
				}
			],
			"name": "setUserLevel",
			"outputs": [],
			"stateMutability": "nonpayable",
			"type": "function"
		},
		{
			"inputs": [],
			"name": "shareHolderMinLimit",
			"outputs": [
				{
					"internalType": "uint256",
					"name": "",
					"type": "uint256"
				}
			],
			"stateMutability": "view",
			"type": "function"
		},
		{
			"inputs": [],
			"name": "shareHolderRewardRate",
			"outputs": [
				{
					"internalType": "uint256",
					"name": "",
					"type": "uint256"
				}
			],
			"stateMutability": "view",
			"type": "function"
		},
		{
			"inputs": [],
			"name": "swapRate",
			"outputs": [
				{
					"internalType": "uint256",
					"name": "",
					"type": "uint256"
				}
			],
			"stateMutability": "view",
			"type": "function"
		},
		{
			"inputs": [
				{
					"internalType": "uint256",
					"name": "",
					"type": "uint256"
				}
			],
			"name": "teamLevel",
			"outputs": [
				{
					"internalType": "uint256",
					"name": "amount",
					"type": "uint256"
				},
				{
					"internalType": "uint256",
					"name": "rate",
					"type": "uint256"
				}
			],
			"stateMutability": "view",
			"type": "function"
		},
		{
			"inputs": [],
			"name": "teamRewardAddress",
			"outputs": [
				{
					"internalType": "address",
					"name": "",
					"type": "address"
				}
			],
			"stateMutability": "view",
			"type": "function"
		},
		{
			"inputs": [],
			"name": "teamRewardRate",
			"outputs": [
				{
					"internalType": "uint256",
					"name": "",
					"type": "uint256"
				}
			],
			"stateMutability": "view",
			"type": "function"
		},
		{
			"inputs": [],
			"name": "techAddress",
			"outputs": [
				{
					"internalType": "address",
					"name": "",
					"type": "address"
				}
			],
			"stateMutability": "view",
			"type": "function"
		},
		{
			"inputs": [],
			"name": "top",
			"outputs": [
				{
					"internalType": "address",
					"name": "",
					"type": "address"
				}
			],
			"stateMutability": "view",
			"type": "function"
		},
		{
			"inputs": [
				{
					"internalType": "address",
					"name": "newOwner",
					"type": "address"
				}
			],
			"name": "transferOwnership",
			"outputs": [],
			"stateMutability": "nonpayable",
			"type": "function"
		},
		{
			"inputs": [
				{
					"internalType": "address",
					"name": "newImplementation",
					"type": "address"
				}
			],
			"name": "upgradeTo",
			"outputs": [],
			"stateMutability": "nonpayable",
			"type": "function"
		},
		{
			"inputs": [
				{
					"internalType": "address",
					"name": "newImplementation",
					"type": "address"
				},
				{
					"internalType": "bytes",
					"name": "data",
					"type": "bytes"
				}
			],
			"name": "upgradeToAndCall",
			"outputs": [],
			"stateMutability": "payable",
			"type": "function"
		},
		{
			"inputs": [],
			"name": "usdt",
			"outputs": [
				{
					"internalType": "address",
					"name": "",
					"type": "address"
				}
			],
			"stateMutability": "view",
			"type": "function"
		},
		{
			"inputs": [
				{
					"internalType": "uint256",
					"name": "",
					"type": "uint256"
				}
			],
			"name": "userArr",
			"outputs": [
				{
					"internalType": "address",
					"name": "",
					"type": "address"
				}
			],
			"stateMutability": "view",
			"type": "function"
		},
		{
			"inputs": [
				{
					"internalType": "address",
					"name": "",
					"type": "address"
				}
			],
			"name": "userLevel",
			"outputs": [
				{
					"internalType": "uint256",
					"name": "",
					"type": "uint256"
				}
			],
			"stateMutability": "view",
			"type": "function"
		}
	]
}