{
	"data": {
		"bytecode": {
			"linkReferences": {},
			"object": "60a060405230608052348015610013575f80fd5b50608051612ab16100485f395f8181610e9801528181610ed8015281816110fc0152818161113c01526111b70152612ab15ff3fe6080604052600436106102ec575f3560e01c8063602e66231161018b578063602e6623146106d8578063669934a9146106f757806366bf8f8314610716578063698518e5146107355780636b1a9c071461074a578063715018a61461076c57806372765009146107805780637634b0701461079f578063767608e2146107be578063796f838e146107dd578063812df395146107fc57806385adb2941461081b578063863be1ab146108305780638a5705d41461084f5780638da5cb5b146108645780638e10ef0b146108785780638f05cdf51461088d57806395623641146108ac5780639a3135a8146108cb578063b2cf085e146108ed578063c4d66de81461090c578063cde857441461092b578063dbe55e561461094a578063e3d9aa0514610969578063e9d610e514610988578063eb2266bc146109a7578063ee787b11146109c6578063f2fde38b146109db578063f7656704146109fa578063f80183b214610a19578063f97fe09114610a38578063fe6dcdba14610a57578063ff85807914610a7e575f80fd5b8063057d7781146102f057806306394c9b1461032c57806308f93bd81461034d5780630b433a121461036c578063182d326e1461038f57806319a2ef5f146103b05780631e56cfab146103cf5780631e79aa0a146103ee57806321596c251461040f578063254720b714610424578063280e31cc1461046b5780632d8852ee146104965780632f48ab7d146104ab5780633360364d146104ca57806333f5780e146104e957806335aed778146105085780633659cfe61461052757806336e0cac61461054657806339cbc4051461055b5780633b2c2e55146105705780633d08e5b31461058f578063434f9736146105a4578063498c1e3c146105b95780634b0bddd2146105d85780634b21ddec146105f75780634dd40234146106165780634f1ef286146106355780635250c9b51461064857806352d1902d14610667578063570ca7351461067b57806357629f821461069a5780635bff9787146106b9575b5f80fd5b3480156102fb575f80fd5b5061030f61030a366004612492565b610a9d565b6040516001600160a01b0390911681526020015b60405180910390f35b348015610337575f80fd5b5061034b6103463660046124c4565b610ac5565b005b348015610358575f80fd5b5061034b610367366004612492565b610aef565b348015610377575f80fd5b5061038160e35481565b604051908152602001610323565b34801561039a575f80fd5b506103a3610b4e565b604051610323919061251f565b3480156103bb575f80fd5b5061034b6103ca366004612492565b610be1565b3480156103da575f80fd5b5060d45461030f906001600160a01b031681565b3480156103f9575f80fd5b50610402610c37565b604051610323919061255f565b34801561041a575f80fd5b5061038160de5481565b34801561042f575f80fd5b5061045661043e366004612492565b60df6020525f90815260409020805460019091015482565b60408051928352602083019190915201610323565b348015610476575f80fd5b506103816104853660046124c4565b60e06020525f908152604090205481565b3480156104a1575f80fd5b5061038160e25481565b3480156104b6575f80fd5b5060c95461030f906001600160a01b031681565b3480156104d5575f80fd5b5061034b6104e4366004612492565b610d28565b3480156104f4575f80fd5b5061034b610503366004612571565b610d7e565b348015610513575f80fd5b5061034b6105223660046124c4565b610e1b565b348015610532575f80fd5b5061034b6105413660046124c4565b610e8e565b348015610551575f80fd5b5061038160d15481565b348015610566575f80fd5b5061038160dd5481565b34801561057b575f80fd5b5061034b61058a366004612659565b610f55565b34801561059a575f80fd5b5061038160e65481565b3480156105af575f80fd5b5061038160d85481565b3480156105c4575f80fd5b5061034b6105d3366004612492565b61106a565b3480156105e3575f80fd5b5061034b6105f23660046126b8565b6110c0565b348015610602575f80fd5b5060db5461030f906001600160a01b031681565b348015610621575f80fd5b5060cc5461030f906001600160a01b031681565b61034b6106433660046126f1565b6110f2565b348015610653575f80fd5b5060ce5461030f906001600160a01b031681565b348015610672575f80fd5b506103816111ab565b348015610686575f80fd5b5060e45461030f906001600160a01b031681565b3480156106a5575f80fd5b5061034b6106b4366004612571565b611257565b3480156106c4575f80fd5b5060ca5461030f906001600160a01b031681565b3480156106e3575f80fd5b5060cd5461030f906001600160a01b031681565b348015610702575f80fd5b5061034b6107113660046124c4565b61130d565b348015610721575f80fd5b5061034b610730366004612492565b611380565b348015610740575f80fd5b5061038160d25481565b348015610755575f80fd5b5061075e6113d6565b604051610323929190612790565b348015610777575f80fd5b5061034b6114f5565b34801561078b575f80fd5b5061034b61079a366004612492565b611508565b3480156107aa575f80fd5b5061034b6107b9366004612492565b61155e565b3480156107c9575f80fd5b5061034b6107d8366004612492565b6115b4565b3480156107e8575f80fd5b5061034b6107f7366004612492565b61160a565b348015610807575f80fd5b5061034b6108163660046127b4565b611660565b348015610826575f80fd5b5061038160d65481565b34801561083b575f80fd5b5061034b61084a366004612492565b611720565b34801561085a575f80fd5b5061038160d75481565b34801561086f575f80fd5b5061030f611776565b348015610883575f80fd5b5061038160da5481565b348015610898575f80fd5b5060cb5461030f906001600160a01b031681565b3480156108b7575f80fd5b5060d55461030f906001600160a01b031681565b3480156108d6575f80fd5b506108df611785565b604051610323929190612824565b3480156108f8575f80fd5b5060d05461030f906001600160a01b031681565b348015610917575f80fd5b5061034b6109263660046124c4565b611849565b348015610936575f80fd5b5061034b6109453660046124c4565b611c9e565b348015610955575f80fd5b5060cf5461030f906001600160a01b031681565b348015610974575f80fd5b5061034b610983366004612836565b611d11565b348015610993575f80fd5b5060d35461030f906001600160a01b031681565b3480156109b2575f80fd5b5061034b6109c13660046124c4565b611d6d565b3480156109d1575f80fd5b5061038160d95481565b3480156109e6575f80fd5b5061034b6109f53660046124c4565b611de0565b348015610a05575f80fd5b5061034b610a143660046124c4565b611e56565b348015610a24575f80fd5b5061034b610a333660046124c4565b611ec9565b348015610a43575f80fd5b5060dc5461030f906001600160a01b031681565b348015610a62575f80fd5b5061030f73d220b3cf1e4660c5509418b42a86d7945e6e2e1881565b348015610a89575f80fd5b5061034b610a983660046124c4565b611f3c565b60e18181548110610aac575f80fd5b5f918252602090912001546001600160a01b0316905081565b610acd611faf565b60e480546001600160a01b0319166001600160a01b0392909216919091179055565b335f90815260e5602052604090205460ff1680610b245750610b0f611776565b6001600160a01b0316336001600160a01b0316145b610b495760405162461bcd60e51b8152600401610b4090612856565b60405180910390fd5b60d255565b6040805160028082526060808301845292602083019080368337505060db5482519293506001600160a01b0316918391505f90610b8d57610b8d612879565b6001600160a01b03928316602091820292909201015260dc54825191169082906001908110610bbe57610bbe612879565b60200260200101906001600160a01b031690816001600160a01b03168152505090565b335f90815260e5602052604090205460ff1680610c165750610c01611776565b6001600160a01b0316336001600160a01b0316145b610c325760405162461bcd60e51b8152600401610b4090612856565b60dd55565b60408051600680825260e082019092526060916020820160c08036833701905050905060d754815f81518110610c6f57610c6f612879565b60200260200101818152505060d85481600181518110610c9157610c91612879565b60200260200101818152505060d95481600281518110610cb357610cb3612879565b60200260200101818152505060da5481600381518110610cd557610cd5612879565b60200260200101818152505060dd5481600481518110610cf757610cf7612879565b60200260200101818152505060de5481600581518110610d1957610d19612879565b60200260200101818152505090565b335f90815260e5602052604090205460ff1680610d5d5750610d48611776565b6001600160a01b0316336001600160a01b0316145b610d795760405162461bcd60e51b8152600401610b4090612856565b60d655565b335f90815260e5602052604090205460ff1680610db35750610d9e611776565b6001600160a01b0316336001600160a01b0316145b610dcf5760405162461bcd60e51b8152600401610b4090612856565b6001600160a01b039091165f81815260e0602052604081209290925560e1805460018101825592525f80516020612a5c83398151915290910180546001600160a01b0319169091179055565b335f90815260e5602052604090205460ff1680610e505750610e3b611776565b6001600160a01b0316336001600160a01b0316145b610e6c5760405162461bcd60e51b8152600401610b4090612856565b60d580546001600160a01b0319166001600160a01b0392909216919091179055565b6001600160a01b037f0000000000000000000000000000000000000000000000000000000000000000163003610ed65760405162461bcd60e51b8152600401610b409061288d565b7f00000000000000000000000000000000000000000000000000000000000000006001600160a01b0316610f0861200e565b6001600160a01b031614610f2e5760405162461bcd60e51b8152600401610b40906128c6565b610f3781612029565b604080515f80825260208201909252610f5291839190612031565b50565b335f90815260e5602052604090205460ff1680610f8a5750610f75611776565b6001600160a01b0316336001600160a01b0316145b610fa65760405162461bcd60e51b8152600401610b4090612856565b8051825114610fe65760405162461bcd60e51b815260206004820152600c60248201526b3632b733ba341032b93937b960a11b6044820152606401610b40565b5f5b825181101561106557604051806040016040528084838151811061100e5761100e612879565b6020026020010151815260200183838151811061102d5761102d612879565b6020908102919091018101519091525f83815260df8252604090208251815591015160019091015561105e816128ff565b9050610fe8565b505050565b335f90815260e5602052604090205460ff168061109f575061108a611776565b6001600160a01b0316336001600160a01b0316145b6110bb5760405162461bcd60e51b8152600401610b4090612856565b60d955565b6110c8611faf565b6001600160a01b03919091165f90815260e560205260409020805460ff1916911515919091179055565b6001600160a01b037f000000000000000000000000000000000000000000000000000000000000000016300361113a5760405162461bcd60e51b8152600401610b409061288d565b7f00000000000000000000000000000000000000000000000000000000000000006001600160a01b031661116c61200e565b6001600160a01b0316146111925760405162461bcd60e51b8152600401610b40906128c6565b61119b82612029565b6111a782826001612031565b5050565b5f306001600160a01b037f000000000000000000000000000000000000000000000000000000000000000016146112455760405162461bcd60e51b815260206004820152603860248201527f555550535570677261646561626c653a206d757374206e6f742062652063616c6044820152771b1959081d1a1c9bdd59da0819195b1959d85d1958d85b1b60421b6064820152608401610b40565b505f80516020612a1583398151915290565b335f90815260e5602052604090205460ff168061128c5750611277611776565b6001600160a01b0316336001600160a01b0316145b6112a85760405162461bcd60e51b8152600401610b4090612856565b60cc54604051632bb14fc160e11b81526001600160a01b03848116600483015260248201849052909116906357629f82906044015f604051808303815f87803b1580156112f3575f80fd5b505af1158015611305573d5f803e3d5ffd5b505050505050565b335f90815260e5602052604090205460ff1680611342575061132d611776565b6001600160a01b0316336001600160a01b0316145b61135e5760405162461bcd60e51b8152600401610b4090612856565b60d480546001600160a01b0319166001600160a01b0392909216919091179055565b335f90815260e5602052604090205460ff16806113b557506113a0611776565b6001600160a01b0316336001600160a01b0316145b6113d15760405162461bcd60e51b8152600401610b4090612856565b60de55565b60608060e180548060200260200160405190810160405280929190818152602001828054801561142d57602002820191905f5260205f20905b81546001600160a01b0316815260019091019060200180831161140f575b5050505050915081516001600160401b0381111561144d5761144d612599565b604051908082528060200260200182016040528015611476578160200160208202803683370190505b5090505f5b82518110156114f05760e05f84838151811061149957611499612879565b60200260200101516001600160a01b03166001600160a01b031681526020019081526020015f20548282815181106114d3576114d3612879565b6020908102919091010152806114e8816128ff565b91505061147b565b509091565b6114fd611faf565b6115065f61219b565b565b335f90815260e5602052604090205460ff168061153d5750611528611776565b6001600160a01b0316336001600160a01b0316145b6115595760405162461bcd60e51b8152600401610b4090612856565b60d155565b335f90815260e5602052604090205460ff1680611593575061157e611776565b6001600160a01b0316336001600160a01b0316145b6115af5760405162461bcd60e51b8152600401610b4090612856565b60e255565b335f90815260e5602052604090205460ff16806115e957506115d4611776565b6001600160a01b0316336001600160a01b0316145b6116055760405162461bcd60e51b8152600401610b4090612856565b60e655565b335f90815260e5602052604090205460ff168061163f575061162a611776565b6001600160a01b0316336001600160a01b0316145b61165b5760405162461bcd60e51b8152600401610b4090612856565b60e355565b335f90815260e5602052604090205460ff16806116955750611680611776565b6001600160a01b0316336001600160a01b0316145b6116b15760405162461bcd60e51b8152600401610b4090612856565b60c980546001600160a01b03199081166001600160a01b039889161790915560cb805482169688169690961790955560ca805486169487169490941790935560cd805485169286169290921790915560cc8054841691851691909117905560ce80549092169216919091179055565b335f90815260e5602052604090205460ff16806117555750611740611776565b6001600160a01b0316336001600160a01b0316145b6117715760405162461bcd60e51b8152600401610b4090612856565b60da55565b6033546001600160a01b031690565b60408051600480825260a0820190925260609182919060208201608080368337505060408051600480825260a082019092529294509050602082016080803683370190505090505f5b60048110156114f0575f81815260df602052604090205483518490839081106117f9576117f9612879565b60200260200101818152505060df5f8281526020019081526020015f206001015482828151811061182c5761182c612879565b602090810291909101015280611841816128ff565b9150506117ce565b5f54610100900460ff161580801561186757505f54600160ff909116105b806118875750611876306121ec565b15801561188757505f5460ff166001145b6118ea5760405162461bcd60e51b815260206004820152602e60248201527f496e697469616c697a61626c653a20636f6e747261637420697320616c72656160448201526d191e481a5b9a5d1a585b1a5e995960921b6064820152608401610b40565b5f805460ff19166001179055801561190b575f805461ff0019166101001790555b6119136121fb565b60e480546001600160a01b0384166001600160a01b03199182161790915560cf8054821673df9228fc02f4554cd80af6d036dade242022e4f217905560d080548216734076af4556458cdd0ad25e86ed23b4dc8437dce417905561038460d1556103e860d25560d38054821673fae25f1ae4b758d7c96d7eb075b62af4f3398b8917905560d480548216737fba7858083836d9169eb3be21a48189e1798c8e17905560d580548216732737ac6359664096f22863088246d885f14e6ff29081179091556801158e460913d0000060d65569014542ba12a337c0000060e655609660d755606460d881905560d981905560da5560db80548316909117905560dc8054821673b36f6361dcf31d0d7956e9e826a9915a5ddec272179055603260dd5569043c33c193756480000060de556040805180820182525f808252602080830182815282805260df80835293517f4b917336ba36fefa23b90074e126fe5413f0e3fc800e7ab1da217d9a2807b71155517f4b917336ba36fefa23b90074e126fe5413f0e3fc800e7ab1da217d9a2807b712558351808501855269021e19e0c9bab2400000815260c8818301908152600180855285845291517f55c38c42e971eeb957b61422467f67fa3b212021ac50a6b2b3d5acd9d01cb97d55517f55c38c42e971eeb957b61422467f67fa3b212021ac50a6b2b3d5acd9d01cb97e558451808601865269065a4da25d3016c00000815261015e8184019081526002855285845290517f36d20378f308040d39a8a5e0299048c5eb6a3e2af0aad6fc5cbd63dba6084c7555517f36d20378f308040d39a8a5e0299048c5eb6a3e2af0aad6fc5cbd63dba6084c7655845180860190955269152d02c7e14af680000085526101f4858301908152600380855294835294517f780609eda5e52d7936e75ead8ec77fc018859646a90304d10fb581006956b09e5593517f780609eda5e52d7936e75ead8ec77fc018859646a90304d10fb581006956b09f5560e090527f29f40cf27a854b63617043f10b660b0f327b8234f55a91e6b6f6e8a2fa39678b9190915560e18054928301815590525f80516020612a5c83398151915201805490911673d220b3cf1e4660c5509418b42a86d7945e6e2e181790556301e1338060e255603c60e35580156111a7575f805461ff0019169055604051600181527f7f26b83ff96e1f2b6a682f133852f6798a09c465da95921460cefb38474024989060200160405180910390a15050565b335f90815260e5602052604090205460ff1680611cd35750611cbe611776565b6001600160a01b0316336001600160a01b0316145b611cef5760405162461bcd60e51b8152600401610b4090612856565b60cf80546001600160a01b0319166001600160a01b0392909216919091179055565b335f90815260e5602052604090205460ff1680611d465750611d31611776565b6001600160a01b0316336001600160a01b0316145b611d625760405162461bcd60e51b8152600401610b4090612856565b60d79190915560d855565b335f90815260e5602052604090205460ff1680611da25750611d8d611776565b6001600160a01b0316336001600160a01b0316145b611dbe5760405162461bcd60e51b8152600401610b4090612856565b60dc80546001600160a01b0319166001600160a01b0392909216919091179055565b611de8611faf565b6001600160a01b038116611e4d5760405162461bcd60e51b815260206004820152602660248201527f4f776e61626c653a206e6577206f776e657220697320746865207a65726f206160448201526564647265737360d01b6064820152608401610b40565b610f528161219b565b335f90815260e5602052604090205460ff1680611e8b5750611e76611776565b6001600160a01b0316336001600160a01b0316145b611ea75760405162461bcd60e51b8152600401610b4090612856565b60d080546001600160a01b0319166001600160a01b0392909216919091179055565b335f90815260e5602052604090205460ff1680611efe5750611ee9611776565b6001600160a01b0316336001600160a01b0316145b611f1a5760405162461bcd60e51b8152600401610b4090612856565b60d380546001600160a01b0319166001600160a01b0392909216919091179055565b335f90815260e5602052604090205460ff1680611f715750611f5c611776565b6001600160a01b0316336001600160a01b0316145b611f8d5760405162461bcd60e51b8152600401610b4090612856565b60db80546001600160a01b0319166001600160a01b0392909216919091179055565b33611fb8611776565b6001600160a01b0316146115065760405162461bcd60e51b815260206004820181905260248201527f4f776e61626c653a2063616c6c6572206973206e6f7420746865206f776e65726044820152606401610b40565b5f80516020612a15833981519152546001600160a01b031690565b610f52611faf565b7f4910fdfa16fed3260ed0e7147f7cc6da11a60208b5b9406d12a635614ffd91435460ff16156120645761106583612229565b826001600160a01b03166352d1902d6040518163ffffffff1660e01b8152600401602060405180830381865afa9250505080156120be575060408051601f3d908101601f191682019092526120bb91810190612923565b60015b6121215760405162461bcd60e51b815260206004820152602e60248201527f45524331393637557067726164653a206e657720696d706c656d656e7461746960448201526d6f6e206973206e6f74205555505360901b6064820152608401610b40565b5f80516020612a15833981519152811461218f5760405162461bcd60e51b815260206004820152602960248201527f45524331393637557067726164653a20756e737570706f727465642070726f786044820152681a58589b195555525160ba1b6064820152608401610b40565b506110658383836122c2565b603380546001600160a01b038381166001600160a01b0319831681179093556040519116919082907f8be0079c531659141344cd1fd0a4f28419497f9722a3daafe3b4186f6b6457e0905f90a35050565b6001600160a01b03163b151590565b5f54610100900460ff166122215760405162461bcd60e51b8152600401610b409061293a565b6115066122ec565b612232816121ec565b6122945760405162461bcd60e51b815260206004820152602d60248201527f455243313936373a206e657720696d706c656d656e746174696f6e206973206e60448201526c1bdd08184818dbdb9d1c9858dd609a1b6064820152608401610b40565b5f80516020612a1583398151915280546001600160a01b0319166001600160a01b0392909216919091179055565b6122cb8361231b565b5f825111806122d75750805b15611065576122e6838361235a565b50505050565b5f54610100900460ff166123125760405162461bcd60e51b8152600401610b409061293a565b6115063361219b565b61232481612229565b6040516001600160a01b038216907fbc7cd75a20ee27fd9adebab32041f755214dbc6bffa90cc0225b39da2e5c2d3b905f90a250565b6060612365836121ec565b6123c05760405162461bcd60e51b815260206004820152602660248201527f416464726573733a2064656c65676174652063616c6c20746f206e6f6e2d636f6044820152651b9d1c9858dd60d21b6064820152608401610b40565b5f80846001600160a01b0316846040516123da91906129a7565b5f60405180830381855af49150503d805f8114612412576040519150601f19603f3d011682016040523d82523d5f602084013e612417565b606091505b509150915061243f8282604051806060016040528060278152602001612a3560279139612448565b95945050505050565b60608315612457575081612461565b6124618383612468565b9392505050565b8151156124785781518083602001fd5b8060405162461bcd60e51b8152600401610b4091906129c2565b5f602082840312156124a2575f80fd5b5035919050565b80356001600160a01b03811681146124bf575f80fd5b919050565b5f602082840312156124d4575f80fd5b612461826124a9565b5f8151808452602080850194508084015f5b838110156125145781516001600160a01b0316875295820195908201906001016124ef565b509495945050505050565b602081525f61246160208301846124dd565b5f8151808452602080850194508084015f5b8381101561251457815187529582019590820190600101612543565b602081525f6124616020830184612531565b5f8060408385031215612582575f80fd5b61258b836124a9565b946020939093013593505050565b634e487b7160e01b5f52604160045260245ffd5b604051601f8201601f191681016001600160401b03811182821017156125d5576125d5612599565b604052919050565b5f82601f8301126125ec575f80fd5b813560206001600160401b0382111561260757612607612599565b8160051b6126168282016125ad565b928352848101820192828101908785111561262f575f80fd5b83870192505b8483101561264e57823582529183019190830190612635565b979650505050505050565b5f806040838503121561266a575f80fd5b82356001600160401b0380821115612680575f80fd5b61268c868387016125dd565b935060208501359150808211156126a1575f80fd5b506126ae858286016125dd565b9150509250929050565b5f80604083850312156126c9575f80fd5b6126d2836124a9565b9150602083013580151581146126e6575f80fd5b809150509250929050565b5f8060408385031215612702575f80fd5b61270b836124a9565b91506020838101356001600160401b0380821115612727575f80fd5b818601915086601f83011261273a575f80fd5b81358181111561274c5761274c612599565b61275e601f8201601f191685016125ad565b91508082528784828501011115612773575f80fd5b80848401858401375f848284010152508093505050509250929050565b604081525f6127a260408301856124dd565b828103602084015261243f8185612531565b5f805f805f8060c087890312156127c9575f80fd5b6127d2876124a9565b95506127e0602088016124a9565b94506127ee604088016124a9565b93506127fc606088016124a9565b925061280a608088016124a9565b915061281860a088016124a9565b90509295509295509295565b604081525f6127a26040830185612531565b5f8060408385031215612847575f80fd5b50508035926020909101359150565b6020808252600990820152683737ba1030b236b4b760b91b604082015260600190565b634e487b7160e01b5f52603260045260245ffd5b6020808252602c908201525f805160206129f583398151915260408201526b19195b1959d85d1958d85b1b60a21b606082015260800190565b6020808252602c908201525f805160206129f583398151915260408201526b6163746976652070726f787960a01b606082015260800190565b5f6001820161291c57634e487b7160e01b5f52601160045260245ffd5b5060010190565b5f60208284031215612933575f80fd5b5051919050565b6020808252602b908201527f496e697469616c697a61626c653a20636f6e7472616374206973206e6f74206960408201526a6e697469616c697a696e6760a81b606082015260800190565b5f5b8381101561299f578181015183820152602001612987565b50505f910152565b5f82516129b8818460208701612985565b9190910192915050565b602081525f82518060208401526129e0816040850160208701612985565b601f01601f1916919091016040019291505056fe46756e6374696f6e206d7573742062652063616c6c6564207468726f75676820360894a13ba1a3210667c828492db98dca3e2076cc3735a920a3ca505d382bbc416464726573733a206c6f772d6c6576656c2064656c65676174652063616c6c206661696c65643efdd7a884ff9e18c9e5711c185aa6c5e413b68f23197997da5b1665ca978f99a26469706673582212209fb3eef1a7e8dfd481c6fe090fec9d605b631080bf75fee713d3f374a9a0c71c64736f6c63430008140033",
			"opcodes": "PUSH1 0xA0 PUSH1 0x40 MSTORE ADDRESS PUSH1 0x80 MSTORE CALLVALUE DUP1 ISZERO PUSH2 0x13 JUMPI PUSH0 DUP1 REVERT JUMPDEST POP PUSH1 0x80 MLOAD PUSH2 0x2AB1 PUSH2 0x48 PUSH0 CODECOPY PUSH0 DUP2 DUP2 PUSH2 0xE98 ADD MSTORE DUP2 DUP2 PUSH2 0xED8 ADD MSTORE DUP2 DUP2 PUSH2 0x10FC ADD MSTORE DUP2 DUP2 PUSH2 0x113C ADD MSTORE PUSH2 0x11B7 ADD MSTORE PUSH2 0x2AB1 PUSH0 RETURN INVALID PUSH1 0x80 PUSH1 0x40 MSTORE PUSH1 0x4 CALLDATASIZE LT PUSH2 0x2EC JUMPI PUSH0 CALLDATALOAD PUSH1 0xE0 SHR DUP1 PUSH4 0x602E6623 GT PUSH2 0x18B JUMPI DUP1 PUSH4 0x602E6623 EQ PUSH2 0x6D8 JUMPI DUP1 PUSH4 0x669934A9 EQ PUSH2 0x6F7 JUMPI DUP1 PUSH4 0x66BF8F83 EQ PUSH2 0x716 JUMPI DUP1 PUSH4 0x698518E5 EQ PUSH2 0x735 JUMPI DUP1 PUSH4 0x6B1A9C07 EQ PUSH2 0x74A JUMPI DUP1 PUSH4 0x715018A6 EQ PUSH2 0x76C JUMPI DUP1 PUSH4 0x72765009 EQ PUSH2 0x780 JUMPI DUP1 PUSH4 0x7634B070 EQ PUSH2 0x79F JUMPI DUP1 PUSH4 0x767608E2 EQ PUSH2 0x7BE JUMPI DUP1 PUSH4 0x796F838E EQ PUSH2 0x7DD JUMPI DUP1 PUSH4 0x812DF395 EQ PUSH2 0x7FC JUMPI DUP1 PUSH4 0x85ADB294 EQ PUSH2 0x81B JUMPI DUP1 PUSH4 0x863BE1AB EQ PUSH2 0x830 JUMPI DUP1 PUSH4 0x8A5705D4 EQ PUSH2 0x84F JUMPI DUP1 PUSH4 0x8DA5CB5B EQ PUSH2 0x864 JUMPI DUP1 PUSH4 0x8E10EF0B EQ PUSH2 0x878 JUMPI DUP1 PUSH4 0x8F05CDF5 EQ PUSH2 0x88D JUMPI DUP1 PUSH4 0x95623641 EQ PUSH2 0x8AC JUMPI DUP1 PUSH4 0x9A3135A8 EQ PUSH2 0x8CB JUMPI DUP1 PUSH4 0xB2CF085E EQ PUSH2 0x8ED JUMPI DUP1 PUSH4 0xC4D66DE8 EQ PUSH2 0x90C JUMPI DUP1 PUSH4 0xCDE85744 EQ PUSH2 0x92B JUMPI DUP1 PUSH4 0xDBE55E56 EQ PUSH2 0x94A JUMPI DUP1 PUSH4 0xE3D9AA05 EQ PUSH2 0x969 JUMPI DUP1 PUSH4 0xE9D610E5 EQ PUSH2 0x988 JUMPI DUP1 PUSH4 0xEB2266BC EQ PUSH2 0x9A7 JUMPI DUP1 PUSH4 0xEE787B11 EQ PUSH2 0x9C6 JUMPI DUP1 PUSH4 0xF2FDE38B EQ PUSH2 0x9DB JUMPI DUP1 PUSH4 0xF7656704 EQ PUSH2 0x9FA JUMPI DUP1 PUSH4 0xF80183B2 EQ PUSH2 0xA19 JUMPI DUP1 PUSH4 0xF97FE091 EQ PUSH2 0xA38 JUMPI DUP1 PUSH4 0xFE6DCDBA EQ PUSH2 0xA57 JUMPI DUP1 PUSH4 0xFF858079 EQ PUSH2 0xA7E JUMPI PUSH0 DUP1 REVERT JUMPDEST DUP1 PUSH4 0x57D7781 EQ PUSH2 0x2F0 JUMPI DUP1 PUSH4 0x6394C9B EQ PUSH2 0x32C JUMPI DUP1 PUSH4 0x8F93BD8 EQ PUSH2 0x34D JUMPI DUP1 PUSH4 0xB433A12 EQ PUSH2 0x36C JUMPI DUP1 PUSH4 0x182D326E EQ PUSH2 0x38F JUMPI DUP1 PUSH4 0x19A2EF5F EQ PUSH2 0x3B0 JUMPI DUP1 PUSH4 0x1E56CFAB EQ PUSH2 0x3CF JUMPI DUP1 PUSH4 0x1E79AA0A EQ PUSH2 0x3EE JUMPI DUP1 PUSH4 0x21596C25 EQ PUSH2 0x40F JUMPI DUP1 PUSH4 0x254720B7 EQ PUSH2 0x424 JUMPI DUP1 PUSH4 0x280E31CC EQ PUSH2 0x46B JUMPI DUP1 PUSH4 0x2D8852EE EQ PUSH2 0x496 JUMPI DUP1 PUSH4 0x2F48AB7D EQ PUSH2 0x4AB JUMPI DUP1 PUSH4 0x3360364D EQ PUSH2 0x4CA JUMPI DUP1 PUSH4 0x33F5780E EQ PUSH2 0x4E9 JUMPI DUP1 PUSH4 0x35AED778 EQ PUSH2 0x508 JUMPI DUP1 PUSH4 0x3659CFE6 EQ PUSH2 0x527 JUMPI DUP1 PUSH4 0x36E0CAC6 EQ PUSH2 0x546 JUMPI DUP1 PUSH4 0x39CBC405 EQ PUSH2 0x55B JUMPI DUP1 PUSH4 0x3B2C2E55 EQ PUSH2 0x570 JUMPI DUP1 PUSH4 0x3D08E5B3 EQ PUSH2 0x58F JUMPI DUP1 PUSH4 0x434F9736 EQ PUSH2 0x5A4 JUMPI DUP1 PUSH4 0x498C1E3C EQ PUSH2 0x5B9 JUMPI DUP1 PUSH4 0x4B0BDDD2 EQ PUSH2 0x5D8 JUMPI DUP1 PUSH4 0x4B21DDEC EQ PUSH2 0x5F7 JUMPI DUP1 PUSH4 0x4DD40234 EQ PUSH2 0x616 JUMPI DUP1 PUSH4 0x4F1EF286 EQ PUSH2 0x635 JUMPI DUP1 PUSH4 0x5250C9B5 EQ PUSH2 0x648 JUMPI DUP1 PUSH4 0x52D1902D EQ PUSH2 0x667 JUMPI DUP1 PUSH4 0x570CA735 EQ PUSH2 0x67B JUMPI DUP1 PUSH4 0x57629F82 EQ PUSH2 0x69A JUMPI DUP1 PUSH4 0x5BFF9787 EQ PUSH2 0x6B9 JUMPI JUMPDEST PUSH0 DUP1 REVERT JUMPDEST CALLVALUE DUP1 ISZERO PUSH2 0x2FB JUMPI PUSH0 DUP1 REVERT JUMPDEST POP PUSH2 0x30F PUSH2 0x30A CALLDATASIZE PUSH1 0x4 PUSH2 0x2492 JUMP JUMPDEST PUSH2 0xA9D JUMP JUMPDEST PUSH1 0x40 MLOAD PUSH1 0x1 PUSH1 0x1 PUSH1 0xA0 SHL SUB SWAP1 SWAP2 AND DUP2 MSTORE PUSH1 0x20 ADD JUMPDEST PUSH1 0x40 MLOAD DUP1 SWAP2 SUB SWAP1 RETURN JUMPDEST CALLVALUE DUP1 ISZERO PUSH2 0x337 JUMPI PUSH0 DUP1 REVERT JUMPDEST POP PUSH2 0x34B PUSH2 0x346 CALLDATASIZE PUSH1 0x4 PUSH2 0x24C4 JUMP JUMPDEST PUSH2 0xAC5 JUMP JUMPDEST STOP JUMPDEST CALLVALUE DUP1 ISZERO PUSH2 0x358 JUMPI PUSH0 DUP1 REVERT JUMPDEST POP PUSH2 0x34B PUSH2 0x367 CALLDATASIZE PUSH1 0x4 PUSH2 0x2492 JUMP JUMPDEST PUSH2 0xAEF JUMP JUMPDEST CALLVALUE DUP1 ISZERO PUSH2 0x377 JUMPI PUSH0 DUP1 REVERT JUMPDEST POP PUSH2 0x381 PUSH1 0xE3 SLOAD DUP2 JUMP JUMPDEST PUSH1 0x40 MLOAD SWAP1 DUP2 MSTORE PUSH1 0x20 ADD PUSH2 0x323 JUMP JUMPDEST CALLVALUE DUP1 ISZERO PUSH2 0x39A JUMPI PUSH0 DUP1 REVERT JUMPDEST POP PUSH2 0x3A3 PUSH2 0xB4E JUMP JUMPDEST PUSH1 0x40 MLOAD PUSH2 0x323 SWAP2 SWAP1 PUSH2 0x251F JUMP JUMPDEST CALLVALUE DUP1 ISZERO PUSH2 0x3BB JUMPI PUSH0 DUP1 REVERT JUMPDEST POP PUSH2 0x34B PUSH2 0x3CA CALLDATASIZE PUSH1 0x4 PUSH2 0x2492 JUMP JUMPDEST PUSH2 0xBE1 JUMP JUMPDEST CALLVALUE DUP1 ISZERO PUSH2 0x3DA JUMPI PUSH0 DUP1 REVERT JUMPDEST POP PUSH1 0xD4 SLOAD PUSH2 0x30F SWAP1 PUSH1 0x1 PUSH1 0x1 PUSH1 0xA0 SHL SUB AND DUP2 JUMP JUMPDEST CALLVALUE DUP1 ISZERO PUSH2 0x3F9 JUMPI PUSH0 DUP1 REVERT JUMPDEST POP PUSH2 0x402 PUSH2 0xC37 JUMP JUMPDEST PUSH1 0x40 MLOAD PUSH2 0x323 SWAP2 SWAP1 PUSH2 0x255F JUMP JUMPDEST CALLVALUE DUP1 ISZERO PUSH2 0x41A JUMPI PUSH0 DUP1 REVERT JUMPDEST POP PUSH2 0x381 PUSH1 0xDE SLOAD DUP2 JUMP JUMPDEST CALLVALUE DUP1 ISZERO PUSH2 0x42F JUMPI PUSH0 DUP1 REVERT JUMPDEST POP PUSH2 0x456 PUSH2 0x43E CALLDATASIZE PUSH1 0x4 PUSH2 0x2492 JUMP JUMPDEST PUSH1 0xDF PUSH1 0x20 MSTORE PUSH0 SWAP1 DUP2 MSTORE PUSH1 0x40 SWAP1 KECCAK256 DUP1 SLOAD PUSH1 0x1 SWAP1 SWAP2 ADD SLOAD DUP3 JUMP JUMPDEST PUSH1 0x40 DUP1 MLOAD SWAP3 DUP4 MSTORE PUSH1 0x20 DUP4 ADD SWAP2 SWAP1 SWAP2 MSTORE ADD PUSH2 0x323 JUMP JUMPDEST CALLVALUE DUP1 ISZERO PUSH2 0x476 JUMPI PUSH0 DUP1 REVERT JUMPDEST POP PUSH2 0x381 PUSH2 0x485 CALLDATASIZE PUSH1 0x4 PUSH2 0x24C4 JUMP JUMPDEST PUSH1 0xE0 PUSH1 0x20 MSTORE PUSH0 SWAP1 DUP2 MSTORE PUSH1 0x40 SWAP1 KECCAK256 SLOAD DUP2 JUMP JUMPDEST CALLVALUE DUP1 ISZERO PUSH2 0x4A1 JUMPI PUSH0 DUP1 REVERT JUMPDEST POP PUSH2 0x381 PUSH1 0xE2 SLOAD DUP2 JUMP JUMPDEST CALLVALUE DUP1 ISZERO PUSH2 0x4B6 JUMPI PUSH0 DUP1 REVERT JUMPDEST POP PUSH1 0xC9 SLOAD PUSH2 0x30F SWAP1 PUSH1 0x1 PUSH1 0x1 PUSH1 0xA0 SHL SUB AND DUP2 JUMP JUMPDEST CALLVALUE DUP1 ISZERO PUSH2 0x4D5 JUMPI PUSH0 DUP1 REVERT JUMPDEST POP PUSH2 0x34B PUSH2 0x4E4 CALLDATASIZE PUSH1 0x4 PUSH2 0x2492 JUMP JUMPDEST PUSH2 0xD28 JUMP JUMPDEST CALLVALUE DUP1 ISZERO PUSH2 0x4F4 JUMPI PUSH0 DUP1 REVERT JUMPDEST POP PUSH2 0x34B PUSH2 0x503 CALLDATASIZE PUSH1 0x4 PUSH2 0x2571 JUMP JUMPDEST PUSH2 0xD7E JUMP JUMPDEST CALLVALUE DUP1 ISZERO PUSH2 0x513 JUMPI PUSH0 DUP1 REVERT JUMPDEST POP PUSH2 0x34B PUSH2 0x522 CALLDATASIZE PUSH1 0x4 PUSH2 0x24C4 JUMP JUMPDEST PUSH2 0xE1B JUMP JUMPDEST CALLVALUE DUP1 ISZERO PUSH2 0x532 JUMPI PUSH0 DUP1 REVERT JUMPDEST POP PUSH2 0x34B PUSH2 0x541 CALLDATASIZE PUSH1 0x4 PUSH2 0x24C4 JUMP JUMPDEST PUSH2 0xE8E JUMP JUMPDEST CALLVALUE DUP1 ISZERO PUSH2 0x551 JUMPI PUSH0 DUP1 REVERT JUMPDEST POP PUSH2 0x381 PUSH1 0xD1 SLOAD DUP2 JUMP JUMPDEST CALLVALUE DUP1 ISZERO PUSH2 0x566 JUMPI PUSH0 DUP1 REVERT JUMPDEST POP PUSH2 0x381 PUSH1 0xDD SLOAD DUP2 JUMP JUMPDEST CALLVALUE DUP1 ISZERO PUSH2 0x57B JUMPI PUSH0 DUP1 REVERT JUMPDEST POP PUSH2 0x34B PUSH2 0x58A CALLDATASIZE PUSH1 0x4 PUSH2 0x2659 JUMP JUMPDEST PUSH2 0xF55 JUMP JUMPDEST CALLVALUE DUP1 ISZERO PUSH2 0x59A JUMPI PUSH0 DUP1 REVERT JUMPDEST POP PUSH2 0x381 PUSH1 0xE6 SLOAD DUP2 JUMP JUMPDEST CALLVALUE DUP1 ISZERO PUSH2 0x5AF JUMPI PUSH0 DUP1 REVERT JUMPDEST POP PUSH2 0x381 PUSH1 0xD8 SLOAD DUP2 JUMP JUMPDEST CALLVALUE DUP1 ISZERO PUSH2 0x5C4 JUMPI PUSH0 DUP1 REVERT JUMPDEST POP PUSH2 0x34B PUSH2 0x5D3 CALLDATASIZE PUSH1 0x4 PUSH2 0x2492 JUMP JUMPDEST PUSH2 0x106A JUMP JUMPDEST CALLVALUE DUP1 ISZERO PUSH2 0x5E3 JUMPI PUSH0 DUP1 REVERT JUMPDEST POP PUSH2 0x34B PUSH2 0x5F2 CALLDATASIZE PUSH1 0x4 PUSH2 0x26B8 JUMP JUMPDEST PUSH2 0x10C0 JUMP JUMPDEST CALLVALUE DUP1 ISZERO PUSH2 0x602 JUMPI PUSH0 DUP1 REVERT JUMPDEST POP PUSH1 0xDB SLOAD PUSH2 0x30F SWAP1 PUSH1 0x1 PUSH1 0x1 PUSH1 0xA0 SHL SUB AND DUP2 JUMP JUMPDEST CALLVALUE DUP1 ISZERO PUSH2 0x621 JUMPI PUSH0 DUP1 REVERT JUMPDEST POP PUSH1 0xCC SLOAD PUSH2 0x30F SWAP1 PUSH1 0x1 PUSH1 0x1 PUSH1 0xA0 SHL SUB AND DUP2 JUMP JUMPDEST PUSH2 0x34B PUSH2 0x643 CALLDATASIZE PUSH1 0x4 PUSH2 0x26F1 JUMP JUMPDEST PUSH2 0x10F2 JUMP JUMPDEST CALLVALUE DUP1 ISZERO PUSH2 0x653 JUMPI PUSH0 DUP1 REVERT JUMPDEST POP PUSH1 0xCE SLOAD PUSH2 0x30F SWAP1 PUSH1 0x1 PUSH1 0x1 PUSH1 0xA0 SHL SUB AND DUP2 JUMP JUMPDEST CALLVALUE DUP1 ISZERO PUSH2 0x672 JUMPI PUSH0 DUP1 REVERT JUMPDEST POP PUSH2 0x381 PUSH2 0x11AB JUMP JUMPDEST CALLVALUE DUP1 ISZERO PUSH2 0x686 JUMPI PUSH0 DUP1 REVERT JUMPDEST POP PUSH1 0xE4 SLOAD PUSH2 0x30F SWAP1 PUSH1 0x1 PUSH1 0x1 PUSH1 0xA0 SHL SUB AND DUP2 JUMP JUMPDEST CALLVALUE DUP1 ISZERO PUSH2 0x6A5 JUMPI PUSH0 DUP1 REVERT JUMPDEST POP PUSH2 0x34B PUSH2 0x6B4 CALLDATASIZE PUSH1 0x4 PUSH2 0x2571 JUMP JUMPDEST PUSH2 0x1257 JUMP JUMPDEST CALLVALUE DUP1 ISZERO PUSH2 0x6C4 JUMPI PUSH0 DUP1 REVERT JUMPDEST POP PUSH1 0xCA SLOAD PUSH2 0x30F SWAP1 PUSH1 0x1 PUSH1 0x1 PUSH1 0xA0 SHL SUB AND DUP2 JUMP JUMPDEST CALLVALUE DUP1 ISZERO PUSH2 0x6E3 JUMPI PUSH0 DUP1 REVERT JUMPDEST POP PUSH1 0xCD SLOAD PUSH2 0x30F SWAP1 PUSH1 0x1 PUSH1 0x1 PUSH1 0xA0 SHL SUB AND DUP2 JUMP JUMPDEST CALLVALUE DUP1 ISZERO PUSH2 0x702 JUMPI PUSH0 DUP1 REVERT JUMPDEST POP PUSH2 0x34B PUSH2 0x711 CALLDATASIZE PUSH1 0x4 PUSH2 0x24C4 JUMP JUMPDEST PUSH2 0x130D JUMP JUMPDEST CALLVALUE DUP1 ISZERO PUSH2 0x721 JUMPI PUSH0 DUP1 REVERT JUMPDEST POP PUSH2 0x34B PUSH2 0x730 CALLDATASIZE PUSH1 0x4 PUSH2 0x2492 JUMP JUMPDEST PUSH2 0x1380 JUMP JUMPDEST CALLVALUE DUP1 ISZERO PUSH2 0x740 JUMPI PUSH0 DUP1 REVERT JUMPDEST POP PUSH2 0x381 PUSH1 0xD2 SLOAD DUP2 JUMP JUMPDEST CALLVALUE DUP1 ISZERO PUSH2 0x755 JUMPI PUSH0 DUP1 REVERT JUMPDEST POP PUSH2 0x75E PUSH2 0x13D6 JUMP JUMPDEST PUSH1 0x40 MLOAD PUSH2 0x323 SWAP3 SWAP2 SWAP1 PUSH2 0x2790 JUMP JUMPDEST CALLVALUE DUP1 ISZERO PUSH2 0x777 JUMPI PUSH0 DUP1 REVERT JUMPDEST POP PUSH2 0x34B PUSH2 0x14F5 JUMP JUMPDEST CALLVALUE DUP1 ISZERO PUSH2 0x78B JUMPI PUSH0 DUP1 REVERT JUMPDEST POP PUSH2 0x34B PUSH2 0x79A CALLDATASIZE PUSH1 0x4 PUSH2 0x2492 JUMP JUMPDEST PUSH2 0x1508 JUMP JUMPDEST CALLVALUE DUP1 ISZERO PUSH2 0x7AA JUMPI PUSH0 DUP1 REVERT JUMPDEST POP PUSH2 0x34B PUSH2 0x7B9 CALLDATASIZE PUSH1 0x4 PUSH2 0x2492 JUMP JUMPDEST PUSH2 0x155E JUMP JUMPDEST CALLVALUE DUP1 ISZERO PUSH2 0x7C9 JUMPI PUSH0 DUP1 REVERT JUMPDEST POP PUSH2 0x34B PUSH2 0x7D8 CALLDATASIZE PUSH1 0x4 PUSH2 0x2492 JUMP JUMPDEST PUSH2 0x15B4 JUMP JUMPDEST CALLVALUE DUP1 ISZERO PUSH2 0x7E8 JUMPI PUSH0 DUP1 REVERT JUMPDEST POP PUSH2 0x34B PUSH2 0x7F7 CALLDATASIZE PUSH1 0x4 PUSH2 0x2492 JUMP JUMPDEST PUSH2 0x160A JUMP JUMPDEST CALLVALUE DUP1 ISZERO PUSH2 0x807 JUMPI PUSH0 DUP1 REVERT JUMPDEST POP PUSH2 0x34B PUSH2 0x816 CALLDATASIZE PUSH1 0x4 PUSH2 0x27B4 JUMP JUMPDEST PUSH2 0x1660 JUMP JUMPDEST CALLVALUE DUP1 ISZERO PUSH2 0x826 JUMPI PUSH0 DUP1 REVERT JUMPDEST POP PUSH2 0x381 PUSH1 0xD6 SLOAD DUP2 JUMP JUMPDEST CALLVALUE DUP1 ISZERO PUSH2 0x83B JUMPI PUSH0 DUP1 REVERT JUMPDEST POP PUSH2 0x34B PUSH2 0x84A CALLDATASIZE PUSH1 0x4 PUSH2 0x2492 JUMP JUMPDEST PUSH2 0x1720 JUMP JUMPDEST CALLVALUE DUP1 ISZERO PUSH2 0x85A JUMPI PUSH0 DUP1 REVERT JUMPDEST POP PUSH2 0x381 PUSH1 0xD7 SLOAD DUP2 JUMP JUMPDEST CALLVALUE DUP1 ISZERO PUSH2 0x86F JUMPI PUSH0 DUP1 REVERT JUMPDEST POP PUSH2 0x30F PUSH2 0x1776 JUMP JUMPDEST CALLVALUE DUP1 ISZERO PUSH2 0x883 JUMPI PUSH0 DUP1 REVERT JUMPDEST POP PUSH2 0x381 PUSH1 0xDA SLOAD DUP2 JUMP JUMPDEST CALLVALUE DUP1 ISZERO PUSH2 0x898 JUMPI PUSH0 DUP1 REVERT JUMPDEST POP PUSH1 0xCB SLOAD PUSH2 0x30F SWAP1 PUSH1 0x1 PUSH1 0x1 PUSH1 0xA0 SHL SUB AND DUP2 JUMP JUMPDEST CALLVALUE DUP1 ISZERO PUSH2 0x8B7 JUMPI PUSH0 DUP1 REVERT JUMPDEST POP PUSH1 0xD5 SLOAD PUSH2 0x30F SWAP1 PUSH1 0x1 PUSH1 0x1 PUSH1 0xA0 SHL SUB AND DUP2 JUMP JUMPDEST CALLVALUE DUP1 ISZERO PUSH2 0x8D6 JUMPI PUSH0 DUP1 REVERT JUMPDEST POP PUSH2 0x8DF PUSH2 0x1785 JUMP JUMPDEST PUSH1 0x40 MLOAD PUSH2 0x323 SWAP3 SWAP2 SWAP1 PUSH2 0x2824 JUMP JUMPDEST CALLVALUE DUP1 ISZERO PUSH2 0x8F8 JUMPI PUSH0 DUP1 REVERT JUMPDEST POP PUSH1 0xD0 SLOAD PUSH2 0x30F SWAP1 PUSH1 0x1 PUSH1 0x1 PUSH1 0xA0 SHL SUB AND DUP2 JUMP JUMPDEST CALLVALUE DUP1 ISZERO PUSH2 0x917 JUMPI PUSH0 DUP1 REVERT JUMPDEST POP PUSH2 0x34B PUSH2 0x926 CALLDATASIZE PUSH1 0x4 PUSH2 0x24C4 JUMP JUMPDEST PUSH2 0x1849 JUMP JUMPDEST CALLVALUE DUP1 ISZERO PUSH2 0x936 JUMPI PUSH0 DUP1 REVERT JUMPDEST POP PUSH2 0x34B PUSH2 0x945 CALLDATASIZE PUSH1 0x4 PUSH2 0x24C4 JUMP JUMPDEST PUSH2 0x1C9E JUMP JUMPDEST CALLVALUE DUP1 ISZERO PUSH2 0x955 JUMPI PUSH0 DUP1 REVERT JUMPDEST POP PUSH1 0xCF SLOAD PUSH2 0x30F SWAP1 PUSH1 0x1 PUSH1 0x1 PUSH1 0xA0 SHL SUB AND DUP2 JUMP JUMPDEST CALLVALUE DUP1 ISZERO PUSH2 0x974 JUMPI PUSH0 DUP1 REVERT JUMPDEST POP PUSH2 0x34B PUSH2 0x983 CALLDATASIZE PUSH1 0x4 PUSH2 0x2836 JUMP JUMPDEST PUSH2 0x1D11 JUMP JUMPDEST CALLVALUE DUP1 ISZERO PUSH2 0x993 JUMPI PUSH0 DUP1 REVERT JUMPDEST POP PUSH1 0xD3 SLOAD PUSH2 0x30F SWAP1 PUSH1 0x1 PUSH1 0x1 PUSH1 0xA0 SHL SUB AND DUP2 JUMP JUMPDEST CALLVALUE DUP1 ISZERO PUSH2 0x9B2 JUMPI PUSH0 DUP1 REVERT JUMPDEST POP PUSH2 0x34B PUSH2 0x9C1 CALLDATASIZE PUSH1 0x4 PUSH2 0x24C4 JUMP JUMPDEST PUSH2 0x1D6D JUMP JUMPDEST CALLVALUE DUP1 ISZERO PUSH2 0x9D1 JUMPI PUSH0 DUP1 REVERT JUMPDEST POP PUSH2 0x381 PUSH1 0xD9 SLOAD DUP2 JUMP JUMPDEST CALLVALUE DUP1 ISZERO PUSH2 0x9E6 JUMPI PUSH0 DUP1 REVERT JUMPDEST POP PUSH2 0x34B PUSH2 0x9F5 CALLDATASIZE PUSH1 0x4 PUSH2 0x24C4 JUMP JUMPDEST PUSH2 0x1DE0 JUMP JUMPDEST CALLVALUE DUP1 ISZERO PUSH2 0xA05 JUMPI PUSH0 DUP1 REVERT JUMPDEST POP PUSH2 0x34B PUSH2 0xA14 CALLDATASIZE PUSH1 0x4 PUSH2 0x24C4 JUMP JUMPDEST PUSH2 0x1E56 JUMP JUMPDEST CALLVALUE DUP1 ISZERO PUSH2 0xA24 JUMPI PUSH0 DUP1 REVERT JUMPDEST POP PUSH2 0x34B PUSH2 0xA33 CALLDATASIZE PUSH1 0x4 PUSH2 0x24C4 JUMP JUMPDEST PUSH2 0x1EC9 JUMP JUMPDEST CALLVALUE DUP1 ISZERO PUSH2 0xA43 JUMPI PUSH0 DUP1 REVERT JUMPDEST POP PUSH1 0xDC SLOAD PUSH2 0x30F SWAP1 PUSH1 0x1 PUSH1 0x1 PUSH1 0xA0 SHL SUB AND DUP2 JUMP JUMPDEST CALLVALUE DUP1 ISZERO PUSH2 0xA62 JUMPI PUSH0 DUP1 REVERT JUMPDEST POP PUSH2 0x30F PUSH20 0xD220B3CF1E4660C5509418B42A86D7945E6E2E18 DUP2 JUMP JUMPDEST CALLVALUE DUP1 ISZERO PUSH2 0xA89 JUMPI PUSH0 DUP1 REVERT JUMPDEST POP PUSH2 0x34B PUSH2 0xA98 CALLDATASIZE PUSH1 0x4 PUSH2 0x24C4 JUMP JUMPDEST PUSH2 0x1F3C JUMP JUMPDEST PUSH1 0xE1 DUP2 DUP2 SLOAD DUP2 LT PUSH2 0xAAC JUMPI PUSH0 DUP1 REVERT JUMPDEST PUSH0 SWAP2 DUP3 MSTORE PUSH1 0x20 SWAP1 SWAP2 KECCAK256 ADD SLOAD PUSH1 0x1 PUSH1 0x1 PUSH1 0xA0 SHL SUB AND SWAP1 POP DUP2 JUMP JUMPDEST PUSH2 0xACD PUSH2 0x1FAF JUMP JUMPDEST PUSH1 0xE4 DUP1 SLOAD PUSH1 0x1 PUSH1 0x1 PUSH1 0xA0 SHL SUB NOT AND PUSH1 0x1 PUSH1 0x1 PUSH1 0xA0 SHL SUB SWAP3 SWAP1 SWAP3 AND SWAP2 SWAP1 SWAP2 OR SWAP1 SSTORE JUMP JUMPDEST CALLER PUSH0 SWAP1 DUP2 MSTORE PUSH1 0xE5 PUSH1 0x20 MSTORE PUSH1 0x40 SWAP1 KECCAK256 SLOAD PUSH1 0xFF AND DUP1 PUSH2 0xB24 JUMPI POP PUSH2 0xB0F PUSH2 0x1776 JUMP JUMPDEST PUSH1 0x1 PUSH1 0x1 PUSH1 0xA0 SHL SUB AND CALLER PUSH1 0x1 PUSH1 0x1 PUSH1 0xA0 SHL SUB AND EQ JUMPDEST PUSH2 0xB49 JUMPI PUSH1 0x40 MLOAD PUSH3 0x461BCD PUSH1 0xE5 SHL DUP2 MSTORE PUSH1 0x4 ADD PUSH2 0xB40 SWAP1 PUSH2 0x2856 JUMP JUMPDEST PUSH1 0x40 MLOAD DUP1 SWAP2 SUB SWAP1 REVERT JUMPDEST PUSH1 0xD2 SSTORE JUMP JUMPDEST PUSH1 0x40 DUP1 MLOAD PUSH1 0x2 DUP1 DUP3 MSTORE PUSH1 0x60 DUP1 DUP4 ADD DUP5 MSTORE SWAP3 PUSH1 0x20 DUP4 ADD SWAP1 DUP1 CALLDATASIZE DUP4 CALLDATACOPY POP POP PUSH1 0xDB SLOAD DUP3 MLOAD SWAP3 SWAP4 POP PUSH1 0x1 PUSH1 0x1 PUSH1 0xA0 SHL SUB AND SWAP2 DUP4 SWAP2 POP PUSH0 SWAP1 PUSH2 0xB8D JUMPI PUSH2 0xB8D PUSH2 0x2879 JUMP JUMPDEST PUSH1 0x1 PUSH1 0x1 PUSH1 0xA0 SHL SUB SWAP3 DUP4 AND PUSH1 0x20 SWAP2 DUP3 MUL SWAP3 SWAP1 SWAP3 ADD ADD MSTORE PUSH1 0xDC SLOAD DUP3 MLOAD SWAP2 AND SWAP1 DUP3 SWAP1 PUSH1 0x1 SWAP1 DUP2 LT PUSH2 0xBBE JUMPI PUSH2 0xBBE PUSH2 0x2879 JUMP JUMPDEST PUSH1 0x20 MUL PUSH1 0x20 ADD ADD SWAP1 PUSH1 0x1 PUSH1 0x1 PUSH1 0xA0 SHL SUB AND SWAP1 DUP2 PUSH1 0x1 PUSH1 0x1 PUSH1 0xA0 SHL SUB AND DUP2 MSTORE POP POP SWAP1 JUMP JUMPDEST CALLER PUSH0 SWAP1 DUP2 MSTORE PUSH1 0xE5 PUSH1 0x20 MSTORE PUSH1 0x40 SWAP1 KECCAK256 SLOAD PUSH1 0xFF AND DUP1 PUSH2 0xC16 JUMPI POP PUSH2 0xC01 PUSH2 0x1776 JUMP JUMPDEST PUSH1 0x1 PUSH1 0x1 PUSH1 0xA0 SHL SUB AND CALLER PUSH1 0x1 PUSH1 0x1 PUSH1 0xA0 SHL SUB AND EQ JUMPDEST PUSH2 0xC32 JUMPI PUSH1 0x40 MLOAD PUSH3 0x461BCD PUSH1 0xE5 SHL DUP2 MSTORE PUSH1 0x4 ADD PUSH2 0xB40 SWAP1 PUSH2 0x2856 JUMP JUMPDEST PUSH1 0xDD SSTORE JUMP JUMPDEST PUSH1 0x40 DUP1 MLOAD PUSH1 0x6 DUP1 DUP3 MSTORE PUSH1 0xE0 DUP3 ADD SWAP1 SWAP3 MSTORE PUSH1 0x60 SWAP2 PUSH1 0x20 DUP3 ADD PUSH1 0xC0 DUP1 CALLDATASIZE DUP4 CALLDATACOPY ADD SWAP1 POP POP SWAP1 POP PUSH1 0xD7 SLOAD DUP2 PUSH0 DUP2 MLOAD DUP2 LT PUSH2 0xC6F JUMPI PUSH2 0xC6F PUSH2 0x2879 JUMP JUMPDEST PUSH1 0x20 MUL PUSH1 0x20 ADD ADD DUP2 DUP2 MSTORE POP POP PUSH1 0xD8 SLOAD DUP2 PUSH1 0x1 DUP2 MLOAD DUP2 LT PUSH2 0xC91 JUMPI PUSH2 0xC91 PUSH2 0x2879 JUMP JUMPDEST PUSH1 0x20 MUL PUSH1 0x20 ADD ADD DUP2 DUP2 MSTORE POP POP PUSH1 0xD9 SLOAD DUP2 PUSH1 0x2 DUP2 MLOAD DUP2 LT PUSH2 0xCB3 JUMPI PUSH2 0xCB3 PUSH2 0x2879 JUMP JUMPDEST PUSH1 0x20 MUL PUSH1 0x20 ADD ADD DUP2 DUP2 MSTORE POP POP PUSH1 0xDA SLOAD DUP2 PUSH1 0x3 DUP2 MLOAD DUP2 LT PUSH2 0xCD5 JUMPI PUSH2 0xCD5 PUSH2 0x2879 JUMP JUMPDEST PUSH1 0x20 MUL PUSH1 0x20 ADD ADD DUP2 DUP2 MSTORE POP POP PUSH1 0xDD SLOAD DUP2 PUSH1 0x4 DUP2 MLOAD DUP2 LT PUSH2 0xCF7 JUMPI PUSH2 0xCF7 PUSH2 0x2879 JUMP JUMPDEST PUSH1 0x20 MUL PUSH1 0x20 ADD ADD DUP2 DUP2 MSTORE POP POP PUSH1 0xDE SLOAD DUP2 PUSH1 0x5 DUP2 MLOAD DUP2 LT PUSH2 0xD19 JUMPI PUSH2 0xD19 PUSH2 0x2879 JUMP JUMPDEST PUSH1 0x20 MUL PUSH1 0x20 ADD ADD DUP2 DUP2 MSTORE POP POP SWAP1 JUMP JUMPDEST CALLER PUSH0 SWAP1 DUP2 MSTORE PUSH1 0xE5 PUSH1 0x20 MSTORE PUSH1 0x40 SWAP1 KECCAK256 SLOAD PUSH1 0xFF AND DUP1 PUSH2 0xD5D JUMPI POP PUSH2 0xD48 PUSH2 0x1776 JUMP JUMPDEST PUSH1 0x1 PUSH1 0x1 PUSH1 0xA0 SHL SUB AND CALLER PUSH1 0x1 PUSH1 0x1 PUSH1 0xA0 SHL SUB AND EQ JUMPDEST PUSH2 0xD79 JUMPI PUSH1 0x40 MLOAD PUSH3 0x461BCD PUSH1 0xE5 SHL DUP2 MSTORE PUSH1 0x4 ADD PUSH2 0xB40 SWAP1 PUSH2 0x2856 JUMP JUMPDEST PUSH1 0xD6 SSTORE JUMP JUMPDEST CALLER PUSH0 SWAP1 DUP2 MSTORE PUSH1 0xE5 PUSH1 0x20 MSTORE PUSH1 0x40 SWAP1 KECCAK256 SLOAD PUSH1 0xFF AND DUP1 PUSH2 0xDB3 JUMPI POP PUSH2 0xD9E PUSH2 0x1776 JUMP JUMPDEST PUSH1 0x1 PUSH1 0x1 PUSH1 0xA0 SHL SUB AND CALLER PUSH1 0x1 PUSH1 0x1 PUSH1 0xA0 SHL SUB AND EQ JUMPDEST PUSH2 0xDCF JUMPI PUSH1 0x40 MLOAD PUSH3 0x461BCD PUSH1 0xE5 SHL DUP2 MSTORE PUSH1 0x4 ADD PUSH2 0xB40 SWAP1 PUSH2 0x2856 JUMP JUMPDEST PUSH1 0x1 PUSH1 0x1 PUSH1 0xA0 SHL SUB SWAP1 SWAP2 AND PUSH0 DUP2 DUP2 MSTORE PUSH1 0xE0 PUSH1 0x20 MSTORE PUSH1 0x40 DUP2 KECCAK256 SWAP3 SWAP1 SWAP3 SSTORE PUSH1 0xE1 DUP1 SLOAD PUSH1 0x1 DUP2 ADD DUP3 SSTORE SWAP3 MSTORE PUSH0 DUP1 MLOAD PUSH1 0x20 PUSH2 0x2A5C DUP4 CODECOPY DUP2 MLOAD SWAP2 MSTORE SWAP1 SWAP2 ADD DUP1 SLOAD PUSH1 0x1 PUSH1 0x1 PUSH1 0xA0 SHL SUB NOT AND SWAP1 SWAP2 OR SWAP1 SSTORE JUMP JUMPDEST CALLER PUSH0 SWAP1 DUP2 MSTORE PUSH1 0xE5 PUSH1 0x20 MSTORE PUSH1 0x40 SWAP1 KECCAK256 SLOAD PUSH1 0xFF AND DUP1 PUSH2 0xE50 JUMPI POP PUSH2 0xE3B PUSH2 0x1776 JUMP JUMPDEST PUSH1 0x1 PUSH1 0x1 PUSH1 0xA0 SHL SUB AND CALLER PUSH1 0x1 PUSH1 0x1 PUSH1 0xA0 SHL SUB AND EQ JUMPDEST PUSH2 0xE6C JUMPI PUSH1 0x40 MLOAD PUSH3 0x461BCD PUSH1 0xE5 SHL DUP2 MSTORE PUSH1 0x4 ADD PUSH2 0xB40 SWAP1 PUSH2 0x2856 JUMP JUMPDEST PUSH1 0xD5 DUP1 SLOAD PUSH1 0x1 PUSH1 0x1 PUSH1 0xA0 SHL SUB NOT AND PUSH1 0x1 PUSH1 0x1 PUSH1 0xA0 SHL SUB SWAP3 SWAP1 SWAP3 AND SWAP2 SWAP1 SWAP2 OR SWAP1 SSTORE JUMP JUMPDEST PUSH1 0x1 PUSH1 0x1 PUSH1 0xA0 SHL SUB PUSH32 0x0 AND ADDRESS SUB PUSH2 0xED6 JUMPI PUSH1 0x40 MLOAD PUSH3 0x461BCD PUSH1 0xE5 SHL DUP2 MSTORE PUSH1 0x4 ADD PUSH2 0xB40 SWAP1 PUSH2 0x288D JUMP JUMPDEST PUSH32 0x0 PUSH1 0x1 PUSH1 0x1 PUSH1 0xA0 SHL SUB AND PUSH2 0xF08 PUSH2 0x200E JUMP JUMPDEST PUSH1 0x1 PUSH1 0x1 PUSH1 0xA0 SHL SUB AND EQ PUSH2 0xF2E JUMPI PUSH1 0x40 MLOAD PUSH3 0x461BCD PUSH1 0xE5 SHL DUP2 MSTORE PUSH1 0x4 ADD PUSH2 0xB40 SWAP1 PUSH2 0x28C6 JUMP JUMPDEST PUSH2 0xF37 DUP2 PUSH2 0x2029 JUMP JUMPDEST PUSH1 0x40 DUP1 MLOAD PUSH0 DUP1 DUP3 MSTORE PUSH1 0x20 DUP3 ADD SWAP1 SWAP3 MSTORE PUSH2 0xF52 SWAP2 DUP4 SWAP2 SWAP1 PUSH2 0x2031 JUMP JUMPDEST POP JUMP JUMPDEST CALLER PUSH0 SWAP1 DUP2 MSTORE PUSH1 0xE5 PUSH1 0x20 MSTORE PUSH1 0x40 SWAP1 KECCAK256 SLOAD PUSH1 0xFF AND DUP1 PUSH2 0xF8A JUMPI POP PUSH2 0xF75 PUSH2 0x1776 JUMP JUMPDEST PUSH1 0x1 PUSH1 0x1 PUSH1 0xA0 SHL SUB AND CALLER PUSH1 0x1 PUSH1 0x1 PUSH1 0xA0 SHL SUB AND EQ JUMPDEST PUSH2 0xFA6 JUMPI PUSH1 0x40 MLOAD PUSH3 0x461BCD PUSH1 0xE5 SHL DUP2 MSTORE PUSH1 0x4 ADD PUSH2 0xB40 SWAP1 PUSH2 0x2856 JUMP JUMPDEST DUP1 MLOAD DUP3 MLOAD EQ PUSH2 0xFE6 JUMPI PUSH1 0x40 MLOAD PUSH3 0x461BCD PUSH1 0xE5 SHL DUP2 MSTORE PUSH1 0x20 PUSH1 0x4 DUP3 ADD MSTORE PUSH1 0xC PUSH1 0x24 DUP3 ADD MSTORE PUSH12 0x3632B733BA341032B93937B9 PUSH1 0xA1 SHL PUSH1 0x44 DUP3 ADD MSTORE PUSH1 0x64 ADD PUSH2 0xB40 JUMP JUMPDEST PUSH0 JUMPDEST DUP3 MLOAD DUP2 LT ISZERO PUSH2 0x1065 JUMPI PUSH1 0x40 MLOAD DUP1 PUSH1 0x40 ADD PUSH1 0x40 MSTORE DUP1 DUP5 DUP4 DUP2 MLOAD DUP2 LT PUSH2 0x100E JUMPI PUSH2 0x100E PUSH2 0x2879 JUMP JUMPDEST PUSH1 0x20 MUL PUSH1 0x20 ADD ADD MLOAD DUP2 MSTORE PUSH1 0x20 ADD DUP4 DUP4 DUP2 MLOAD DUP2 LT PUSH2 0x102D JUMPI PUSH2 0x102D PUSH2 0x2879 JUMP JUMPDEST PUSH1 0x20 SWAP1 DUP2 MUL SWAP2 SWAP1 SWAP2 ADD DUP2 ADD MLOAD SWAP1 SWAP2 MSTORE PUSH0 DUP4 DUP2 MSTORE PUSH1 0xDF DUP3 MSTORE PUSH1 0x40 SWAP1 KECCAK256 DUP3 MLOAD DUP2 SSTORE SWAP2 ADD MLOAD PUSH1 0x1 SWAP1 SWAP2 ADD SSTORE PUSH2 0x105E DUP2 PUSH2 0x28FF JUMP JUMPDEST SWAP1 POP PUSH2 0xFE8 JUMP JUMPDEST POP POP POP JUMP JUMPDEST CALLER PUSH0 SWAP1 DUP2 MSTORE PUSH1 0xE5 PUSH1 0x20 MSTORE PUSH1 0x40 SWAP1 KECCAK256 SLOAD PUSH1 0xFF AND DUP1 PUSH2 0x109F JUMPI POP PUSH2 0x108A PUSH2 0x1776 JUMP JUMPDEST PUSH1 0x1 PUSH1 0x1 PUSH1 0xA0 SHL SUB AND CALLER PUSH1 0x1 PUSH1 0x1 PUSH1 0xA0 SHL SUB AND EQ JUMPDEST PUSH2 0x10BB JUMPI PUSH1 0x40 MLOAD PUSH3 0x461BCD PUSH1 0xE5 SHL DUP2 MSTORE PUSH1 0x4 ADD PUSH2 0xB40 SWAP1 PUSH2 0x2856 JUMP JUMPDEST PUSH1 0xD9 SSTORE JUMP JUMPDEST PUSH2 0x10C8 PUSH2 0x1FAF JUMP JUMPDEST PUSH1 0x1 PUSH1 0x1 PUSH1 0xA0 SHL SUB SWAP2 SWAP1 SWAP2 AND PUSH0 SWAP1 DUP2 MSTORE PUSH1 0xE5 PUSH1 0x20 MSTORE PUSH1 0x40 SWAP1 KECCAK256 DUP1 SLOAD PUSH1 0xFF NOT AND SWAP2 ISZERO ISZERO SWAP2 SWAP1 SWAP2 OR SWAP1 SSTORE JUMP JUMPDEST PUSH1 0x1 PUSH1 0x1 PUSH1 0xA0 SHL SUB PUSH32 0x0 AND ADDRESS SUB PUSH2 0x113A JUMPI PUSH1 0x40 MLOAD PUSH3 0x461BCD PUSH1 0xE5 SHL DUP2 MSTORE PUSH1 0x4 ADD PUSH2 0xB40 SWAP1 PUSH2 0x288D JUMP JUMPDEST PUSH32 0x0 PUSH1 0x1 PUSH1 0x1 PUSH1 0xA0 SHL SUB AND PUSH2 0x116C PUSH2 0x200E JUMP JUMPDEST PUSH1 0x1 PUSH1 0x1 PUSH1 0xA0 SHL SUB AND EQ PUSH2 0x1192 JUMPI PUSH1 0x40 MLOAD PUSH3 0x461BCD PUSH1 0xE5 SHL DUP2 MSTORE PUSH1 0x4 ADD PUSH2 0xB40 SWAP1 PUSH2 0x28C6 JUMP JUMPDEST PUSH2 0x119B DUP3 PUSH2 0x2029 JUMP JUMPDEST PUSH2 0x11A7 DUP3 DUP3 PUSH1 0x1 PUSH2 0x2031 JUMP JUMPDEST POP POP JUMP JUMPDEST PUSH0 ADDRESS PUSH1 0x1 PUSH1 0x1 PUSH1 0xA0 SHL SUB PUSH32 0x0 AND EQ PUSH2 0x1245 JUMPI PUSH1 0x40 MLOAD PUSH3 0x461BCD PUSH1 0xE5 SHL DUP2 MSTORE PUSH1 0x20 PUSH1 0x4 DUP3 ADD MSTORE PUSH1 0x38 PUSH1 0x24 DUP3 ADD MSTORE PUSH32 0x555550535570677261646561626C653A206D757374206E6F742062652063616C PUSH1 0x44 DUP3 ADD MSTORE PUSH24 0x1B1959081D1A1C9BDD59DA0819195B1959D85D1958D85B1B PUSH1 0x42 SHL PUSH1 0x64 DUP3 ADD MSTORE PUSH1 0x84 ADD PUSH2 0xB40 JUMP JUMPDEST POP PUSH0 DUP1 MLOAD PUSH1 0x20 PUSH2 0x2A15 DUP4 CODECOPY DUP2 MLOAD SWAP2 MSTORE SWAP1 JUMP JUMPDEST CALLER PUSH0 SWAP1 DUP2 MSTORE PUSH1 0xE5 PUSH1 0x20 MSTORE PUSH1 0x40 SWAP1 KECCAK256 SLOAD PUSH1 0xFF AND DUP1 PUSH2 0x128C JUMPI POP PUSH2 0x1277 PUSH2 0x1776 JUMP JUMPDEST PUSH1 0x1 PUSH1 0x1 PUSH1 0xA0 SHL SUB AND CALLER PUSH1 0x1 PUSH1 0x1 PUSH1 0xA0 SHL SUB AND EQ JUMPDEST PUSH2 0x12A8 JUMPI PUSH1 0x40 MLOAD PUSH3 0x461BCD PUSH1 0xE5 SHL DUP2 MSTORE PUSH1 0x4 ADD PUSH2 0xB40 SWAP1 PUSH2 0x2856 JUMP JUMPDEST PUSH1 0xCC SLOAD PUSH1 0x40 MLOAD PUSH4 0x2BB14FC1 PUSH1 0xE1 SHL DUP2 MSTORE PUSH1 0x1 PUSH1 0x1 PUSH1 0xA0 SHL SUB DUP5 DUP2 AND PUSH1 0x4 DUP4 ADD MSTORE PUSH1 0x24 DUP3 ADD DUP5 SWAP1 MSTORE SWAP1 SWAP2 AND SWAP1 PUSH4 0x57629F82 SWAP1 PUSH1 0x44 ADD PUSH0 PUSH1 0x40 MLOAD DUP1 DUP4 SUB DUP2 PUSH0 DUP8 DUP1 EXTCODESIZE ISZERO DUP1 ISZERO PUSH2 0x12F3 JUMPI PUSH0 DUP1 REVERT JUMPDEST POP GAS CALL ISZERO DUP1 ISZERO PUSH2 0x1305 JUMPI RETURNDATASIZE PUSH0 DUP1 RETURNDATACOPY RETURNDATASIZE PUSH0 REVERT JUMPDEST POP POP POP POP POP POP JUMP JUMPDEST CALLER PUSH0 SWAP1 DUP2 MSTORE PUSH1 0xE5 PUSH1 0x20 MSTORE PUSH1 0x40 SWAP1 KECCAK256 SLOAD PUSH1 0xFF AND DUP1 PUSH2 0x1342 JUMPI POP PUSH2 0x132D PUSH2 0x1776 JUMP JUMPDEST PUSH1 0x1 PUSH1 0x1 PUSH1 0xA0 SHL SUB AND CALLER PUSH1 0x1 PUSH1 0x1 PUSH1 0xA0 SHL SUB AND EQ JUMPDEST PUSH2 0x135E JUMPI PUSH1 0x40 MLOAD PUSH3 0x461BCD PUSH1 0xE5 SHL DUP2 MSTORE PUSH1 0x4 ADD PUSH2 0xB40 SWAP1 PUSH2 0x2856 JUMP JUMPDEST PUSH1 0xD4 DUP1 SLOAD PUSH1 0x1 PUSH1 0x1 PUSH1 0xA0 SHL SUB NOT AND PUSH1 0x1 PUSH1 0x1 PUSH1 0xA0 SHL SUB SWAP3 SWAP1 SWAP3 AND SWAP2 SWAP1 SWAP2 OR SWAP1 SSTORE JUMP JUMPDEST CALLER PUSH0 SWAP1 DUP2 MSTORE PUSH1 0xE5 PUSH1 0x20 MSTORE PUSH1 0x40 SWAP1 KECCAK256 SLOAD PUSH1 0xFF AND DUP1 PUSH2 0x13B5 JUMPI POP PUSH2 0x13A0 PUSH2 0x1776 JUMP JUMPDEST PUSH1 0x1 PUSH1 0x1 PUSH1 0xA0 SHL SUB AND CALLER PUSH1 0x1 PUSH1 0x1 PUSH1 0xA0 SHL SUB AND EQ JUMPDEST PUSH2 0x13D1 JUMPI PUSH1 0x40 MLOAD PUSH3 0x461BCD PUSH1 0xE5 SHL DUP2 MSTORE PUSH1 0x4 ADD PUSH2 0xB40 SWAP1 PUSH2 0x2856 JUMP JUMPDEST PUSH1 0xDE SSTORE JUMP JUMPDEST PUSH1 0x60 DUP1 PUSH1 0xE1 DUP1 SLOAD DUP1 PUSH1 0x20 MUL PUSH1 0x20 ADD PUSH1 0x40 MLOAD SWAP1 DUP2 ADD PUSH1 0x40 MSTORE DUP1 SWAP3 SWAP2 SWAP1 DUP2 DUP2 MSTORE PUSH1 0x20 ADD DUP3 DUP1 SLOAD DUP1 ISZERO PUSH2 0x142D JUMPI PUSH1 0x20 MUL DUP3 ADD SWAP2 SWAP1 PUSH0 MSTORE PUSH1 0x20 PUSH0 KECCAK256 SWAP1 JUMPDEST DUP2 SLOAD PUSH1 0x1 PUSH1 0x1 PUSH1 0xA0 SHL SUB AND DUP2 MSTORE PUSH1 0x1 SWAP1 SWAP2 ADD SWAP1 PUSH1 0x20 ADD DUP1 DUP4 GT PUSH2 0x140F JUMPI JUMPDEST POP POP POP POP POP SWAP2 POP DUP2 MLOAD PUSH1 0x1 PUSH1 0x1 PUSH1 0x40 SHL SUB DUP2 GT ISZERO PUSH2 0x144D JUMPI PUSH2 0x144D PUSH2 0x2599 JUMP JUMPDEST PUSH1 0x40 MLOAD SWAP1 DUP1 DUP3 MSTORE DUP1 PUSH1 0x20 MUL PUSH1 0x20 ADD DUP3 ADD PUSH1 0x40 MSTORE DUP1 ISZERO PUSH2 0x1476 JUMPI DUP2 PUSH1 0x20 ADD PUSH1 0x20 DUP3 MUL DUP1 CALLDATASIZE DUP4 CALLDATACOPY ADD SWAP1 POP JUMPDEST POP SWAP1 POP PUSH0 JUMPDEST DUP3 MLOAD DUP2 LT ISZERO PUSH2 0x14F0 JUMPI PUSH1 0xE0 PUSH0 DUP5 DUP4 DUP2 MLOAD DUP2 LT PUSH2 0x1499 JUMPI PUSH2 0x1499 PUSH2 0x2879 JUMP JUMPDEST PUSH1 0x20 MUL PUSH1 0x20 ADD ADD MLOAD PUSH1 0x1 PUSH1 0x1 PUSH1 0xA0 SHL SUB AND PUSH1 0x1 PUSH1 0x1 PUSH1 0xA0 SHL SUB AND DUP2 MSTORE PUSH1 0x20 ADD SWAP1 DUP2 MSTORE PUSH1 0x20 ADD PUSH0 KECCAK256 SLOAD DUP3 DUP3 DUP2 MLOAD DUP2 LT PUSH2 0x14D3 JUMPI PUSH2 0x14D3 PUSH2 0x2879 JUMP JUMPDEST PUSH1 0x20 SWAP1 DUP2 MUL SWAP2 SWAP1 SWAP2 ADD ADD MSTORE DUP1 PUSH2 0x14E8 DUP2 PUSH2 0x28FF JUMP JUMPDEST SWAP2 POP POP PUSH2 0x147B JUMP JUMPDEST POP SWAP1 SWAP2 JUMP JUMPDEST PUSH2 0x14FD PUSH2 0x1FAF JUMP JUMPDEST PUSH2 0x1506 PUSH0 PUSH2 0x219B JUMP JUMPDEST JUMP JUMPDEST CALLER PUSH0 SWAP1 DUP2 MSTORE PUSH1 0xE5 PUSH1 0x20 MSTORE PUSH1 0x40 SWAP1 KECCAK256 SLOAD PUSH1 0xFF AND DUP1 PUSH2 0x153D JUMPI POP PUSH2 0x1528 PUSH2 0x1776 JUMP JUMPDEST PUSH1 0x1 PUSH1 0x1 PUSH1 0xA0 SHL SUB AND CALLER PUSH1 0x1 PUSH1 0x1 PUSH1 0xA0 SHL SUB AND EQ JUMPDEST PUSH2 0x1559 JUMPI PUSH1 0x40 MLOAD PUSH3 0x461BCD PUSH1 0xE5 SHL DUP2 MSTORE PUSH1 0x4 ADD PUSH2 0xB40 SWAP1 PUSH2 0x2856 JUMP JUMPDEST PUSH1 0xD1 SSTORE JUMP JUMPDEST CALLER PUSH0 SWAP1 DUP2 MSTORE PUSH1 0xE5 PUSH1 0x20 MSTORE PUSH1 0x40 SWAP1 KECCAK256 SLOAD PUSH1 0xFF AND DUP1 PUSH2 0x1593 JUMPI POP PUSH2 0x157E PUSH2 0x1776 JUMP JUMPDEST PUSH1 0x1 PUSH1 0x1 PUSH1 0xA0 SHL SUB AND CALLER PUSH1 0x1 PUSH1 0x1 PUSH1 0xA0 SHL SUB AND EQ JUMPDEST PUSH2 0x15AF JUMPI PUSH1 0x40 MLOAD PUSH3 0x461BCD PUSH1 0xE5 SHL DUP2 MSTORE PUSH1 0x4 ADD PUSH2 0xB40 SWAP1 PUSH2 0x2856 JUMP JUMPDEST PUSH1 0xE2 SSTORE JUMP JUMPDEST CALLER PUSH0 SWAP1 DUP2 MSTORE PUSH1 0xE5 PUSH1 0x20 MSTORE PUSH1 0x40 SWAP1 KECCAK256 SLOAD PUSH1 0xFF AND DUP1 PUSH2 0x15E9 JUMPI POP PUSH2 0x15D4 PUSH2 0x1776 JUMP JUMPDEST PUSH1 0x1 PUSH1 0x1 PUSH1 0xA0 SHL SUB AND CALLER PUSH1 0x1 PUSH1 0x1 PUSH1 0xA0 SHL SUB AND EQ JUMPDEST PUSH2 0x1605 JUMPI PUSH1 0x40 MLOAD PUSH3 0x461BCD PUSH1 0xE5 SHL DUP2 MSTORE PUSH1 0x4 ADD PUSH2 0xB40 SWAP1 PUSH2 0x2856 JUMP JUMPDEST PUSH1 0xE6 SSTORE JUMP JUMPDEST CALLER PUSH0 SWAP1 DUP2 MSTORE PUSH1 0xE5 PUSH1 0x20 MSTORE PUSH1 0x40 SWAP1 KECCAK256 SLOAD PUSH1 0xFF AND DUP1 PUSH2 0x163F JUMPI POP PUSH2 0x162A PUSH2 0x1776 JUMP JUMPDEST PUSH1 0x1 PUSH1 0x1 PUSH1 0xA0 SHL SUB AND CALLER PUSH1 0x1 PUSH1 0x1 PUSH1 0xA0 SHL SUB AND EQ JUMPDEST PUSH2 0x165B JUMPI PUSH1 0x40 MLOAD PUSH3 0x461BCD PUSH1 0xE5 SHL DUP2 MSTORE PUSH1 0x4 ADD PUSH2 0xB40 SWAP1 PUSH2 0x2856 JUMP JUMPDEST PUSH1 0xE3 SSTORE JUMP JUMPDEST CALLER PUSH0 SWAP1 DUP2 MSTORE PUSH1 0xE5 PUSH1 0x20 MSTORE PUSH1 0x40 SWAP1 KECCAK256 SLOAD PUSH1 0xFF AND DUP1 PUSH2 0x1695 JUMPI POP PUSH2 0x1680 PUSH2 0x1776 JUMP JUMPDEST PUSH1 0x1 PUSH1 0x1 PUSH1 0xA0 SHL SUB AND CALLER PUSH1 0x1 PUSH1 0x1 PUSH1 0xA0 SHL SUB AND EQ JUMPDEST PUSH2 0x16B1 JUMPI PUSH1 0x40 MLOAD PUSH3 0x461BCD PUSH1 0xE5 SHL DUP2 MSTORE PUSH1 0x4 ADD PUSH2 0xB40 SWAP1 PUSH2 0x2856 JUMP JUMPDEST PUSH1 0xC9 DUP1 SLOAD PUSH1 0x1 PUSH1 0x1 PUSH1 0xA0 SHL SUB NOT SWAP1 DUP2 AND PUSH1 0x1 PUSH1 0x1 PUSH1 0xA0 SHL SUB SWAP9 DUP10 AND OR SWAP1 SWAP2 SSTORE PUSH1 0xCB DUP1 SLOAD DUP3 AND SWAP7 DUP9 AND SWAP7 SWAP1 SWAP7 OR SWAP1 SWAP6 SSTORE PUSH1 0xCA DUP1 SLOAD DUP7 AND SWAP5 DUP8 AND SWAP5 SWAP1 SWAP5 OR SWAP1 SWAP4 SSTORE PUSH1 0xCD DUP1 SLOAD DUP6 AND SWAP3 DUP7 AND SWAP3 SWAP1 SWAP3 OR SWAP1 SWAP2 SSTORE PUSH1 0xCC DUP1 SLOAD DUP5 AND SWAP2 DUP6 AND SWAP2 SWAP1 SWAP2 OR SWAP1 SSTORE PUSH1 0xCE DUP1 SLOAD SWAP1 SWAP3 AND SWAP3 AND SWAP2 SWAP1 SWAP2 OR SWAP1 SSTORE JUMP JUMPDEST CALLER PUSH0 SWAP1 DUP2 MSTORE PUSH1 0xE5 PUSH1 0x20 MSTORE PUSH1 0x40 SWAP1 KECCAK256 SLOAD PUSH1 0xFF AND DUP1 PUSH2 0x1755 JUMPI POP PUSH2 0x1740 PUSH2 0x1776 JUMP JUMPDEST PUSH1 0x1 PUSH1 0x1 PUSH1 0xA0 SHL SUB AND CALLER PUSH1 0x1 PUSH1 0x1 PUSH1 0xA0 SHL SUB AND EQ JUMPDEST PUSH2 0x1771 JUMPI PUSH1 0x40 MLOAD PUSH3 0x461BCD PUSH1 0xE5 SHL DUP2 MSTORE PUSH1 0x4 ADD PUSH2 0xB40 SWAP1 PUSH2 0x2856 JUMP JUMPDEST PUSH1 0xDA SSTORE JUMP JUMPDEST PUSH1 0x33 SLOAD PUSH1 0x1 PUSH1 0x1 PUSH1 0xA0 SHL SUB AND SWAP1 JUMP JUMPDEST PUSH1 0x40 DUP1 MLOAD PUSH1 0x4 DUP1 DUP3 MSTORE PUSH1 0xA0 DUP3 ADD SWAP1 SWAP3 MSTORE PUSH1 0x60 SWAP2 DUP3 SWAP2 SWAP1 PUSH1 0x20 DUP3 ADD PUSH1 0x80 DUP1 CALLDATASIZE DUP4 CALLDATACOPY POP POP PUSH1 0x40 DUP1 MLOAD PUSH1 0x4 DUP1 DUP3 MSTORE PUSH1 0xA0 DUP3 ADD SWAP1 SWAP3 MSTORE SWAP3 SWAP5 POP SWAP1 POP PUSH1 0x20 DUP3 ADD PUSH1 0x80 DUP1 CALLDATASIZE DUP4 CALLDATACOPY ADD SWAP1 POP POP SWAP1 POP PUSH0 JUMPDEST PUSH1 0x4 DUP2 LT ISZERO PUSH2 0x14F0 JUMPI PUSH0 DUP2 DUP2 MSTORE PUSH1 0xDF PUSH1 0x20 MSTORE PUSH1 0x40 SWAP1 KECCAK256 SLOAD DUP4 MLOAD DUP5 SWAP1 DUP4 SWAP1 DUP2 LT PUSH2 0x17F9 JUMPI PUSH2 0x17F9 PUSH2 0x2879 JUMP JUMPDEST PUSH1 0x20 MUL PUSH1 0x20 ADD ADD DUP2 DUP2 MSTORE POP POP PUSH1 0xDF PUSH0 DUP3 DUP2 MSTORE PUSH1 0x20 ADD SWAP1 DUP2 MSTORE PUSH1 0x20 ADD PUSH0 KECCAK256 PUSH1 0x1 ADD SLOAD DUP3 DUP3 DUP2 MLOAD DUP2 LT PUSH2 0x182C JUMPI PUSH2 0x182C PUSH2 0x2879 JUMP JUMPDEST PUSH1 0x20 SWAP1 DUP2 MUL SWAP2 SWAP1 SWAP2 ADD ADD MSTORE DUP1 PUSH2 0x1841 DUP2 PUSH2 0x28FF JUMP JUMPDEST SWAP2 POP POP PUSH2 0x17CE JUMP JUMPDEST PUSH0 SLOAD PUSH2 0x100 SWAP1 DIV PUSH1 0xFF AND ISZERO DUP1 DUP1 ISZERO PUSH2 0x1867 JUMPI POP PUSH0 SLOAD PUSH1 0x1 PUSH1 0xFF SWAP1 SWAP2 AND LT JUMPDEST DUP1 PUSH2 0x1887 JUMPI POP PUSH2 0x1876 ADDRESS PUSH2 0x21EC JUMP JUMPDEST ISZERO DUP1 ISZERO PUSH2 0x1887 JUMPI POP PUSH0 SLOAD PUSH1 0xFF AND PUSH1 0x1 EQ JUMPDEST PUSH2 0x18EA JUMPI PUSH1 0x40 MLOAD PUSH3 0x461BCD PUSH1 0xE5 SHL DUP2 MSTORE PUSH1 0x20 PUSH1 0x4 DUP3 ADD MSTORE PUSH1 0x2E PUSH1 0x24 DUP3 ADD MSTORE PUSH32 0x496E697469616C697A61626C653A20636F6E747261637420697320616C726561 PUSH1 0x44 DUP3 ADD MSTORE PUSH14 0x191E481A5B9A5D1A585B1A5E9959 PUSH1 0x92 SHL PUSH1 0x64 DUP3 ADD MSTORE PUSH1 0x84 ADD PUSH2 0xB40 JUMP JUMPDEST PUSH0 DUP1 SLOAD PUSH1 0xFF NOT AND PUSH1 0x1 OR SWAP1 SSTORE DUP1 ISZERO PUSH2 0x190B JUMPI PUSH0 DUP1 SLOAD PUSH2 0xFF00 NOT AND PUSH2 0x100 OR SWAP1 SSTORE JUMPDEST PUSH2 0x1913 PUSH2 0x21FB JUMP JUMPDEST PUSH1 0xE4 DUP1 SLOAD PUSH1 0x1 PUSH1 0x1 PUSH1 0xA0 SHL SUB DUP5 AND PUSH1 0x1 PUSH1 0x1 PUSH1 0xA0 SHL SUB NOT SWAP2 DUP3 AND OR SWAP1 SWAP2 SSTORE PUSH1 0xCF DUP1 SLOAD DUP3 AND PUSH20 0xDF9228FC02F4554CD80AF6D036DADE242022E4F2 OR SWAP1 SSTORE PUSH1 0xD0 DUP1 SLOAD DUP3 AND PUSH20 0x4076AF4556458CDD0AD25E86ED23B4DC8437DCE4 OR SWAP1 SSTORE PUSH2 0x384 PUSH1 0xD1 SSTORE PUSH2 0x3E8 PUSH1 0xD2 SSTORE PUSH1 0xD3 DUP1 SLOAD DUP3 AND PUSH20 0xFAE25F1AE4B758D7C96D7EB075B62AF4F3398B89 OR SWAP1 SSTORE PUSH1 0xD4 DUP1 SLOAD DUP3 AND PUSH20 0x7FBA7858083836D9169EB3BE21A48189E1798C8E OR SWAP1 SSTORE PUSH1 0xD5 DUP1 SLOAD DUP3 AND PUSH20 0x2737AC6359664096F22863088246D885F14E6FF2 SWAP1 DUP2 OR SWAP1 SWAP2 SSTORE PUSH9 0x1158E460913D00000 PUSH1 0xD6 SSTORE PUSH10 0x14542BA12A337C00000 PUSH1 0xE6 SSTORE PUSH1 0x96 PUSH1 0xD7 SSTORE PUSH1 0x64 PUSH1 0xD8 DUP2 SWAP1 SSTORE PUSH1 0xD9 DUP2 SWAP1 SSTORE PUSH1 0xDA SSTORE PUSH1 0xDB DUP1 SLOAD DUP4 AND SWAP1 SWAP2 OR SWAP1 SSTORE PUSH1 0xDC DUP1 SLOAD DUP3 AND PUSH20 0xB36F6361DCF31D0D7956E9E826A9915A5DDEC272 OR SWAP1 SSTORE PUSH1 0x32 PUSH1 0xDD SSTORE PUSH10 0x43C33C1937564800000 PUSH1 0xDE SSTORE PUSH1 0x40 DUP1 MLOAD DUP1 DUP3 ADD DUP3 MSTORE PUSH0 DUP1 DUP3 MSTORE PUSH1 0x20 DUP1 DUP4 ADD DUP3 DUP2 MSTORE DUP3 DUP1 MSTORE PUSH1 0xDF DUP1 DUP4 MSTORE SWAP4 MLOAD PUSH32 0x4B917336BA36FEFA23B90074E126FE5413F0E3FC800E7AB1DA217D9A2807B711 SSTORE MLOAD PUSH32 0x4B917336BA36FEFA23B90074E126FE5413F0E3FC800E7AB1DA217D9A2807B712 SSTORE DUP4 MLOAD DUP1 DUP6 ADD DUP6 MSTORE PUSH10 0x21E19E0C9BAB2400000 DUP2 MSTORE PUSH1 0xC8 DUP2 DUP4 ADD SWAP1 DUP2 MSTORE PUSH1 0x1 DUP1 DUP6 MSTORE DUP6 DUP5 MSTORE SWAP2 MLOAD PUSH32 0x55C38C42E971EEB957B61422467F67FA3B212021AC50A6B2B3D5ACD9D01CB97D SSTORE MLOAD PUSH32 0x55C38C42E971EEB957B61422467F67FA3B212021AC50A6B2B3D5ACD9D01CB97E SSTORE DUP5 MLOAD DUP1 DUP7 ADD DUP7 MSTORE PUSH10 0x65A4DA25D3016C00000 DUP2 MSTORE PUSH2 0x15E DUP2 DUP5 ADD SWAP1 DUP2 MSTORE PUSH1 0x2 DUP6 MSTORE DUP6 DUP5 MSTORE SWAP1 MLOAD PUSH32 0x36D20378F308040D39A8A5E0299048C5EB6A3E2AF0AAD6FC5CBD63DBA6084C75 SSTORE MLOAD PUSH32 0x36D20378F308040D39A8A5E0299048C5EB6A3E2AF0AAD6FC5CBD63DBA6084C76 SSTORE DUP5 MLOAD DUP1 DUP7 ADD SWAP1 SWAP6 MSTORE PUSH10 0x152D02C7E14AF6800000 DUP6 MSTORE PUSH2 0x1F4 DUP6 DUP4 ADD SWAP1 DUP2 MSTORE PUSH1 0x3 DUP1 DUP6 MSTORE SWAP5 DUP4 MSTORE SWAP5 MLOAD PUSH32 0x780609EDA5E52D7936E75EAD8EC77FC018859646A90304D10FB581006956B09E SSTORE SWAP4 MLOAD PUSH32 0x780609EDA5E52D7936E75EAD8EC77FC018859646A90304D10FB581006956B09F SSTORE PUSH1 0xE0 SWAP1 MSTORE PUSH32 0x29F40CF27A854B63617043F10B660B0F327B8234F55A91E6B6F6E8A2FA39678B SWAP2 SWAP1 SWAP2 SSTORE PUSH1 0xE1 DUP1 SLOAD SWAP3 DUP4 ADD DUP2 SSTORE SWAP1 MSTORE PUSH0 DUP1 MLOAD PUSH1 0x20 PUSH2 0x2A5C DUP4 CODECOPY DUP2 MLOAD SWAP2 MSTORE ADD DUP1 SLOAD SWAP1 SWAP2 AND PUSH20 0xD220B3CF1E4660C5509418B42A86D7945E6E2E18 OR SWAP1 SSTORE PUSH4 0x1E13380 PUSH1 0xE2 SSTORE PUSH1 0x3C PUSH1 0xE3 SSTORE DUP1 ISZERO PUSH2 0x11A7 JUMPI PUSH0 DUP1 SLOAD PUSH2 0xFF00 NOT AND SWAP1 SSTORE PUSH1 0x40 MLOAD PUSH1 0x1 DUP2 MSTORE PUSH32 0x7F26B83FF96E1F2B6A682F133852F6798A09C465DA95921460CEFB3847402498 SWAP1 PUSH1 0x20 ADD PUSH1 0x40 MLOAD DUP1 SWAP2 SUB SWAP1 LOG1 POP POP JUMP JUMPDEST CALLER PUSH0 SWAP1 DUP2 MSTORE PUSH1 0xE5 PUSH1 0x20 MSTORE PUSH1 0x40 SWAP1 KECCAK256 SLOAD PUSH1 0xFF AND DUP1 PUSH2 0x1CD3 JUMPI POP PUSH2 0x1CBE PUSH2 0x1776 JUMP JUMPDEST PUSH1 0x1 PUSH1 0x1 PUSH1 0xA0 SHL SUB AND CALLER PUSH1 0x1 PUSH1 0x1 PUSH1 0xA0 SHL SUB AND EQ JUMPDEST PUSH2 0x1CEF JUMPI PUSH1 0x40 MLOAD PUSH3 0x461BCD PUSH1 0xE5 SHL DUP2 MSTORE PUSH1 0x4 ADD PUSH2 0xB40 SWAP1 PUSH2 0x2856 JUMP JUMPDEST PUSH1 0xCF DUP1 SLOAD PUSH1 0x1 PUSH1 0x1 PUSH1 0xA0 SHL SUB NOT AND PUSH1 0x1 PUSH1 0x1 PUSH1 0xA0 SHL SUB SWAP3 SWAP1 SWAP3 AND SWAP2 SWAP1 SWAP2 OR SWAP1 SSTORE JUMP JUMPDEST CALLER PUSH0 SWAP1 DUP2 MSTORE PUSH1 0xE5 PUSH1 0x20 MSTORE PUSH1 0x40 SWAP1 KECCAK256 SLOAD PUSH1 0xFF AND DUP1 PUSH2 0x1D46 JUMPI POP PUSH2 0x1D31 PUSH2 0x1776 JUMP JUMPDEST PUSH1 0x1 PUSH1 0x1 PUSH1 0xA0 SHL SUB AND CALLER PUSH1 0x1 PUSH1 0x1 PUSH1 0xA0 SHL SUB AND EQ JUMPDEST PUSH2 0x1D62 JUMPI PUSH1 0x40 MLOAD PUSH3 0x461BCD PUSH1 0xE5 SHL DUP2 MSTORE PUSH1 0x4 ADD PUSH2 0xB40 SWAP1 PUSH2 0x2856 JUMP JUMPDEST PUSH1 0xD7 SWAP2 SWAP1 SWAP2 SSTORE PUSH1 0xD8 SSTORE JUMP JUMPDEST CALLER PUSH0 SWAP1 DUP2 MSTORE PUSH1 0xE5 PUSH1 0x20 MSTORE PUSH1 0x40 SWAP1 KECCAK256 SLOAD PUSH1 0xFF AND DUP1 PUSH2 0x1DA2 JUMPI POP PUSH2 0x1D8D PUSH2 0x1776 JUMP JUMPDEST PUSH1 0x1 PUSH1 0x1 PUSH1 0xA0 SHL SUB AND CALLER PUSH1 0x1 PUSH1 0x1 PUSH1 0xA0 SHL SUB AND EQ JUMPDEST PUSH2 0x1DBE JUMPI PUSH1 0x40 MLOAD PUSH3 0x461BCD PUSH1 0xE5 SHL DUP2 MSTORE PUSH1 0x4 ADD PUSH2 0xB40 SWAP1 PUSH2 0x2856 JUMP JUMPDEST PUSH1 0xDC DUP1 SLOAD PUSH1 0x1 PUSH1 0x1 PUSH1 0xA0 SHL SUB NOT AND PUSH1 0x1 PUSH1 0x1 PUSH1 0xA0 SHL SUB SWAP3 SWAP1 SWAP3 AND SWAP2 SWAP1 SWAP2 OR SWAP1 SSTORE JUMP JUMPDEST PUSH2 0x1DE8 PUSH2 0x1FAF JUMP JUMPDEST PUSH1 0x1 PUSH1 0x1 PUSH1 0xA0 SHL SUB DUP2 AND PUSH2 0x1E4D JUMPI PUSH1 0x40 MLOAD PUSH3 0x461BCD PUSH1 0xE5 SHL DUP2 MSTORE PUSH1 0x20 PUSH1 0x4 DUP3 ADD MSTORE PUSH1 0x26 PUSH1 0x24 DUP3 ADD MSTORE PUSH32 0x4F776E61626C653A206E6577206F776E657220697320746865207A65726F2061 PUSH1 0x44 DUP3 ADD MSTORE PUSH6 0x646472657373 PUSH1 0xD0 SHL PUSH1 0x64 DUP3 ADD MSTORE PUSH1 0x84 ADD PUSH2 0xB40 JUMP JUMPDEST PUSH2 0xF52 DUP2 PUSH2 0x219B JUMP JUMPDEST CALLER PUSH0 SWAP1 DUP2 MSTORE PUSH1 0xE5 PUSH1 0x20 MSTORE PUSH1 0x40 SWAP1 KECCAK256 SLOAD PUSH1 0xFF AND DUP1 PUSH2 0x1E8B JUMPI POP PUSH2 0x1E76 PUSH2 0x1776 JUMP JUMPDEST PUSH1 0x1 PUSH1 0x1 PUSH1 0xA0 SHL SUB AND CALLER PUSH1 0x1 PUSH1 0x1 PUSH1 0xA0 SHL SUB AND EQ JUMPDEST PUSH2 0x1EA7 JUMPI PUSH1 0x40 MLOAD PUSH3 0x461BCD PUSH1 0xE5 SHL DUP2 MSTORE PUSH1 0x4 ADD PUSH2 0xB40 SWAP1 PUSH2 0x2856 JUMP JUMPDEST PUSH1 0xD0 DUP1 SLOAD PUSH1 0x1 PUSH1 0x1 PUSH1 0xA0 SHL SUB NOT AND PUSH1 0x1 PUSH1 0x1 PUSH1 0xA0 SHL SUB SWAP3 SWAP1 SWAP3 AND SWAP2 SWAP1 SWAP2 OR SWAP1 SSTORE JUMP JUMPDEST CALLER PUSH0 SWAP1 DUP2 MSTORE PUSH1 0xE5 PUSH1 0x20 MSTORE PUSH1 0x40 SWAP1 KECCAK256 SLOAD PUSH1 0xFF AND DUP1 PUSH2 0x1EFE JUMPI POP PUSH2 0x1EE9 PUSH2 0x1776 JUMP JUMPDEST PUSH1 0x1 PUSH1 0x1 PUSH1 0xA0 SHL SUB AND CALLER PUSH1 0x1 PUSH1 0x1 PUSH1 0xA0 SHL SUB AND EQ JUMPDEST PUSH2 0x1F1A JUMPI PUSH1 0x40 MLOAD PUSH3 0x461BCD PUSH1 0xE5 SHL DUP2 MSTORE PUSH1 0x4 ADD PUSH2 0xB40 SWAP1 PUSH2 0x2856 JUMP JUMPDEST PUSH1 0xD3 DUP1 SLOAD PUSH1 0x1 PUSH1 0x1 PUSH1 0xA0 SHL SUB NOT AND PUSH1 0x1 PUSH1 0x1 PUSH1 0xA0 SHL SUB SWAP3 SWAP1 SWAP3 AND SWAP2 SWAP1 SWAP2 OR SWAP1 SSTORE JUMP JUMPDEST CALLER PUSH0 SWAP1 DUP2 MSTORE PUSH1 0xE5 PUSH1 0x20 MSTORE PUSH1 0x40 SWAP1 KECCAK256 SLOAD PUSH1 0xFF AND DUP1 PUSH2 0x1F71 JUMPI POP PUSH2 0x1F5C PUSH2 0x1776 JUMP JUMPDEST PUSH1 0x1 PUSH1 0x1 PUSH1 0xA0 SHL SUB AND CALLER PUSH1 0x1 PUSH1 0x1 PUSH1 0xA0 SHL SUB AND EQ JUMPDEST PUSH2 0x1F8D JUMPI PUSH1 0x40 MLOAD PUSH3 0x461BCD PUSH1 0xE5 SHL DUP2 MSTORE PUSH1 0x4 ADD PUSH2 0xB40 SWAP1 PUSH2 0x2856 JUMP JUMPDEST PUSH1 0xDB DUP1 SLOAD PUSH1 0x1 PUSH1 0x1 PUSH1 0xA0 SHL SUB NOT AND PUSH1 0x1 PUSH1 0x1 PUSH1 0xA0 SHL SUB SWAP3 SWAP1 SWAP3 AND SWAP2 SWAP1 SWAP2 OR SWAP1 SSTORE JUMP JUMPDEST CALLER PUSH2 0x1FB8 PUSH2 0x1776 JUMP JUMPDEST PUSH1 0x1 PUSH1 0x1 PUSH1 0xA0 SHL SUB AND EQ PUSH2 0x1506 JUMPI PUSH1 0x40 MLOAD PUSH3 0x461BCD PUSH1 0xE5 SHL DUP2 MSTORE PUSH1 0x20 PUSH1 0x4 DUP3 ADD DUP2 SWAP1 MSTORE PUSH1 0x24 DUP3 ADD MSTORE PUSH32 0x4F776E61626C653A2063616C6C6572206973206E6F7420746865206F776E6572 PUSH1 0x44 DUP3 ADD MSTORE PUSH1 0x64 ADD PUSH2 0xB40 JUMP JUMPDEST PUSH0 DUP1 MLOAD PUSH1 0x20 PUSH2 0x2A15 DUP4 CODECOPY DUP2 MLOAD SWAP2 MSTORE SLOAD PUSH1 0x1 PUSH1 0x1 PUSH1 0xA0 SHL SUB AND SWAP1 JUMP JUMPDEST PUSH2 0xF52 PUSH2 0x1FAF JUMP JUMPDEST PUSH32 0x4910FDFA16FED3260ED0E7147F7CC6DA11A60208B5B9406D12A635614FFD9143 SLOAD PUSH1 0xFF AND ISZERO PUSH2 0x2064 JUMPI PUSH2 0x1065 DUP4 PUSH2 0x2229 JUMP JUMPDEST DUP3 PUSH1 0x1 PUSH1 0x1 PUSH1 0xA0 SHL SUB AND PUSH4 0x52D1902D PUSH1 0x40 MLOAD DUP2 PUSH4 0xFFFFFFFF AND PUSH1 0xE0 SHL DUP2 MSTORE PUSH1 0x4 ADD PUSH1 0x20 PUSH1 0x40 MLOAD DUP1 DUP4 SUB DUP2 DUP7 GAS STATICCALL SWAP3 POP POP POP DUP1 ISZERO PUSH2 0x20BE JUMPI POP PUSH1 0x40 DUP1 MLOAD PUSH1 0x1F RETURNDATASIZE SWAP1 DUP2 ADD PUSH1 0x1F NOT AND DUP3 ADD SWAP1 SWAP3 MSTORE PUSH2 0x20BB SWAP2 DUP2 ADD SWAP1 PUSH2 0x2923 JUMP JUMPDEST PUSH1 0x1 JUMPDEST PUSH2 0x2121 JUMPI PUSH1 0x40 MLOAD PUSH3 0x461BCD PUSH1 0xE5 SHL DUP2 MSTORE PUSH1 0x20 PUSH1 0x4 DUP3 ADD MSTORE PUSH1 0x2E PUSH1 0x24 DUP3 ADD MSTORE PUSH32 0x45524331393637557067726164653A206E657720696D706C656D656E74617469 PUSH1 0x44 DUP3 ADD MSTORE PUSH14 0x6F6E206973206E6F742055555053 PUSH1 0x90 SHL PUSH1 0x64 DUP3 ADD MSTORE PUSH1 0x84 ADD PUSH2 0xB40 JUMP JUMPDEST PUSH0 DUP1 MLOAD PUSH1 0x20 PUSH2 0x2A15 DUP4 CODECOPY DUP2 MLOAD SWAP2 MSTORE DUP2 EQ PUSH2 0x218F JUMPI PUSH1 0x40 MLOAD PUSH3 0x461BCD PUSH1 0xE5 SHL DUP2 MSTORE PUSH1 0x20 PUSH1 0x4 DUP3 ADD MSTORE PUSH1 0x29 PUSH1 0x24 DUP3 ADD MSTORE PUSH32 0x45524331393637557067726164653A20756E737570706F727465642070726F78 PUSH1 0x44 DUP3 ADD MSTORE PUSH9 0x1A58589B1955555251 PUSH1 0xBA SHL PUSH1 0x64 DUP3 ADD MSTORE PUSH1 0x84 ADD PUSH2 0xB40 JUMP JUMPDEST POP PUSH2 0x1065 DUP4 DUP4 DUP4 PUSH2 0x22C2 JUMP JUMPDEST PUSH1 0x33 DUP1 SLOAD PUSH1 0x1 PUSH1 0x1 PUSH1 0xA0 SHL SUB DUP4 DUP2 AND PUSH1 0x1 PUSH1 0x1 PUSH1 0xA0 SHL SUB NOT DUP4 AND DUP2 OR SWAP1 SWAP4 SSTORE PUSH1 0x40 MLOAD SWAP2 AND SWAP2 SWAP1 DUP3 SWAP1 PUSH32 0x8BE0079C531659141344CD1FD0A4F28419497F9722A3DAAFE3B4186F6B6457E0 SWAP1 PUSH0 SWAP1 LOG3 POP POP JUMP JUMPDEST PUSH1 0x1 PUSH1 0x1 PUSH1 0xA0 SHL SUB AND EXTCODESIZE ISZERO ISZERO SWAP1 JUMP JUMPDEST PUSH0 SLOAD PUSH2 0x100 SWAP1 DIV PUSH1 0xFF AND PUSH2 0x2221 JUMPI PUSH1 0x40 MLOAD PUSH3 0x461BCD PUSH1 0xE5 SHL DUP2 MSTORE PUSH1 0x4 ADD PUSH2 0xB40 SWAP1 PUSH2 0x293A JUMP JUMPDEST PUSH2 0x1506 PUSH2 0x22EC JUMP JUMPDEST PUSH2 0x2232 DUP2 PUSH2 0x21EC JUMP JUMPDEST PUSH2 0x2294 JUMPI PUSH1 0x40 MLOAD PUSH3 0x461BCD PUSH1 0xE5 SHL DUP2 MSTORE PUSH1 0x20 PUSH1 0x4 DUP3 ADD MSTORE PUSH1 0x2D PUSH1 0x24 DUP3 ADD MSTORE PUSH32 0x455243313936373A206E657720696D706C656D656E746174696F6E206973206E PUSH1 0x44 DUP3 ADD MSTORE PUSH13 0x1BDD08184818DBDB9D1C9858DD PUSH1 0x9A SHL PUSH1 0x64 DUP3 ADD MSTORE PUSH1 0x84 ADD PUSH2 0xB40 JUMP JUMPDEST PUSH0 DUP1 MLOAD PUSH1 0x20 PUSH2 0x2A15 DUP4 CODECOPY DUP2 MLOAD SWAP2 MSTORE DUP1 SLOAD PUSH1 0x1 PUSH1 0x1 PUSH1 0xA0 SHL SUB NOT AND PUSH1 0x1 PUSH1 0x1 PUSH1 0xA0 SHL SUB SWAP3 SWAP1 SWAP3 AND SWAP2 SWAP1 SWAP2 OR SWAP1 SSTORE JUMP JUMPDEST PUSH2 0x22CB DUP4 PUSH2 0x231B JUMP JUMPDEST PUSH0 DUP3 MLOAD GT DUP1 PUSH2 0x22D7 JUMPI POP DUP1 JUMPDEST ISZERO PUSH2 0x1065 JUMPI PUSH2 0x22E6 DUP4 DUP4 PUSH2 0x235A JUMP JUMPDEST POP POP POP POP JUMP JUMPDEST PUSH0 SLOAD PUSH2 0x100 SWAP1 DIV PUSH1 0xFF AND PUSH2 0x2312 JUMPI PUSH1 0x40 MLOAD PUSH3 0x461BCD PUSH1 0xE5 SHL DUP2 MSTORE PUSH1 0x4 ADD PUSH2 0xB40 SWAP1 PUSH2 0x293A JUMP JUMPDEST PUSH2 0x1506 CALLER PUSH2 0x219B JUMP JUMPDEST PUSH2 0x2324 DUP2 PUSH2 0x2229 JUMP JUMPDEST PUSH1 0x40 MLOAD PUSH1 0x1 PUSH1 0x1 PUSH1 0xA0 SHL SUB DUP3 AND SWAP1 PUSH32 0xBC7CD75A20EE27FD9ADEBAB32041F755214DBC6BFFA90CC0225B39DA2E5C2D3B SWAP1 PUSH0 SWAP1 LOG2 POP JUMP JUMPDEST PUSH1 0x60 PUSH2 0x2365 DUP4 PUSH2 0x21EC JUMP JUMPDEST PUSH2 0x23C0 JUMPI PUSH1 0x40 MLOAD PUSH3 0x461BCD PUSH1 0xE5 SHL DUP2 MSTORE PUSH1 0x20 PUSH1 0x4 DUP3 ADD MSTORE PUSH1 0x26 PUSH1 0x24 DUP3 ADD MSTORE PUSH32 0x416464726573733A2064656C65676174652063616C6C20746F206E6F6E2D636F PUSH1 0x44 DUP3 ADD MSTORE PUSH6 0x1B9D1C9858DD PUSH1 0xD2 SHL PUSH1 0x64 DUP3 ADD MSTORE PUSH1 0x84 ADD PUSH2 0xB40 JUMP JUMPDEST PUSH0 DUP1 DUP5 PUSH1 0x1 PUSH1 0x1 PUSH1 0xA0 SHL SUB AND DUP5 PUSH1 0x40 MLOAD PUSH2 0x23DA SWAP2 SWAP1 PUSH2 0x29A7 JUMP JUMPDEST PUSH0 PUSH1 0x40 MLOAD DUP1 DUP4 SUB DUP2 DUP6 GAS DELEGATECALL SWAP2 POP POP RETURNDATASIZE DUP1 PUSH0 DUP2 EQ PUSH2 0x2412 JUMPI PUSH1 0x40 MLOAD SWAP2 POP PUSH1 0x1F NOT PUSH1 0x3F RETURNDATASIZE ADD AND DUP3 ADD PUSH1 0x40 MSTORE RETURNDATASIZE DUP3 MSTORE RETURNDATASIZE PUSH0 PUSH1 0x20 DUP5 ADD RETURNDATACOPY PUSH2 0x2417 JUMP JUMPDEST PUSH1 0x60 SWAP2 POP JUMPDEST POP SWAP2 POP SWAP2 POP PUSH2 0x243F DUP3 DUP3 PUSH1 0x40 MLOAD DUP1 PUSH1 0x60 ADD PUSH1 0x40 MSTORE DUP1 PUSH1 0x27 DUP2 MSTORE PUSH1 0x20 ADD PUSH2 0x2A35 PUSH1 0x27 SWAP2 CODECOPY PUSH2 0x2448 JUMP JUMPDEST SWAP6 SWAP5 POP POP POP POP POP JUMP JUMPDEST PUSH1 0x60 DUP4 ISZERO PUSH2 0x2457 JUMPI POP DUP2 PUSH2 0x2461 JUMP JUMPDEST PUSH2 0x2461 DUP4 DUP4 PUSH2 0x2468 JUMP JUMPDEST SWAP4 SWAP3 POP POP POP JUMP JUMPDEST DUP2 MLOAD ISZERO PUSH2 0x2478 JUMPI DUP2 MLOAD DUP1 DUP4 PUSH1 0x20 ADD REVERT JUMPDEST DUP1 PUSH1 0x40 MLOAD PUSH3 0x461BCD PUSH1 0xE5 SHL DUP2 MSTORE PUSH1 0x4 ADD PUSH2 0xB40 SWAP2 SWAP1 PUSH2 0x29C2 JUMP JUMPDEST PUSH0 PUSH1 0x20 DUP3 DUP5 SUB SLT ISZERO PUSH2 0x24A2 JUMPI PUSH0 DUP1 REVERT JUMPDEST POP CALLDATALOAD SWAP2 SWAP1 POP JUMP JUMPDEST DUP1 CALLDATALOAD PUSH1 0x1 PUSH1 0x1 PUSH1 0xA0 SHL SUB DUP2 AND DUP2 EQ PUSH2 0x24BF JUMPI PUSH0 DUP1 REVERT JUMPDEST SWAP2 SWAP1 POP JUMP JUMPDEST PUSH0 PUSH1 0x20 DUP3 DUP5 SUB SLT ISZERO PUSH2 0x24D4 JUMPI PUSH0 DUP1 REVERT JUMPDEST PUSH2 0x2461 DUP3 PUSH2 0x24A9 JUMP JUMPDEST PUSH0 DUP2 MLOAD DUP1 DUP5 MSTORE PUSH1 0x20 DUP1 DUP6 ADD SWAP5 POP DUP1 DUP5 ADD PUSH0 JUMPDEST DUP4 DUP2 LT ISZERO PUSH2 0x2514 JUMPI DUP2 MLOAD PUSH1 0x1 PUSH1 0x1 PUSH1 0xA0 SHL SUB AND DUP8 MSTORE SWAP6 DUP3 ADD SWAP6 SWAP1 DUP3 ADD SWAP1 PUSH1 0x1 ADD PUSH2 0x24EF JUMP JUMPDEST POP SWAP5 SWAP6 SWAP5 POP POP POP POP POP JUMP JUMPDEST PUSH1 0x20 DUP2 MSTORE PUSH0 PUSH2 0x2461 PUSH1 0x20 DUP4 ADD DUP5 PUSH2 0x24DD JUMP JUMPDEST PUSH0 DUP2 MLOAD DUP1 DUP5 MSTORE PUSH1 0x20 DUP1 DUP6 ADD SWAP5 POP DUP1 DUP5 ADD PUSH0 JUMPDEST DUP4 DUP2 LT ISZERO PUSH2 0x2514 JUMPI DUP2 MLOAD DUP8 MSTORE SWAP6 DUP3 ADD SWAP6 SWAP1 DUP3 ADD SWAP1 PUSH1 0x1 ADD PUSH2 0x2543 JUMP JUMPDEST PUSH1 0x20 DUP2 MSTORE PUSH0 PUSH2 0x2461 PUSH1 0x20 DUP4 ADD DUP5 PUSH2 0x2531 JUMP JUMPDEST PUSH0 DUP1 PUSH1 0x40 DUP4 DUP6 SUB SLT ISZERO PUSH2 0x2582 JUMPI PUSH0 DUP1 REVERT JUMPDEST PUSH2 0x258B DUP4 PUSH2 0x24A9 JUMP JUMPDEST SWAP5 PUSH1 0x20 SWAP4 SWAP1 SWAP4 ADD CALLDATALOAD SWAP4 POP POP POP JUMP JUMPDEST PUSH4 0x4E487B71 PUSH1 0xE0 SHL PUSH0 MSTORE PUSH1 0x41 PUSH1 0x4 MSTORE PUSH1 0x24 PUSH0 REVERT JUMPDEST PUSH1 0x40 MLOAD PUSH1 0x1F DUP3 ADD PUSH1 0x1F NOT AND DUP2 ADD PUSH1 0x1 PUSH1 0x1 PUSH1 0x40 SHL SUB DUP2 GT DUP3 DUP3 LT OR ISZERO PUSH2 0x25D5 JUMPI PUSH2 0x25D5 PUSH2 0x2599 JUMP JUMPDEST PUSH1 0x40 MSTORE SWAP2 SWAP1 POP JUMP JUMPDEST PUSH0 DUP3 PUSH1 0x1F DUP4 ADD SLT PUSH2 0x25EC JUMPI PUSH0 DUP1 REVERT JUMPDEST DUP2 CALLDATALOAD PUSH1 0x20 PUSH1 0x1 PUSH1 0x1 PUSH1 0x40 SHL SUB DUP3 GT ISZERO PUSH2 0x2607 JUMPI PUSH2 0x2607 PUSH2 0x2599 JUMP JUMPDEST DUP2 PUSH1 0x5 SHL PUSH2 0x2616 DUP3 DUP3 ADD PUSH2 0x25AD JUMP JUMPDEST SWAP3 DUP4 MSTORE DUP5 DUP2 ADD DUP3 ADD SWAP3 DUP3 DUP2 ADD SWAP1 DUP8 DUP6 GT ISZERO PUSH2 0x262F JUMPI PUSH0 DUP1 REVERT JUMPDEST DUP4 DUP8 ADD SWAP3 POP JUMPDEST DUP5 DUP4 LT ISZERO PUSH2 0x264E JUMPI DUP3 CALLDATALOAD DUP3 MSTORE SWAP2 DUP4 ADD SWAP2 SWAP1 DUP4 ADD SWAP1 PUSH2 0x2635 JUMP JUMPDEST SWAP8 SWAP7 POP POP POP POP POP POP POP JUMP JUMPDEST PUSH0 DUP1 PUSH1 0x40 DUP4 DUP6 SUB SLT ISZERO PUSH2 0x266A JUMPI PUSH0 DUP1 REVERT JUMPDEST DUP3 CALLDATALOAD PUSH1 0x1 PUSH1 0x1 PUSH1 0x40 SHL SUB DUP1 DUP3 GT ISZERO PUSH2 0x2680 JUMPI PUSH0 DUP1 REVERT JUMPDEST PUSH2 0x268C DUP7 DUP4 DUP8 ADD PUSH2 0x25DD JUMP JUMPDEST SWAP4 POP PUSH1 0x20 DUP6 ADD CALLDATALOAD SWAP2 POP DUP1 DUP3 GT ISZERO PUSH2 0x26A1 JUMPI PUSH0 DUP1 REVERT JUMPDEST POP PUSH2 0x26AE DUP6 DUP3 DUP7 ADD PUSH2 0x25DD JUMP JUMPDEST SWAP2 POP POP SWAP3 POP SWAP3 SWAP1 POP JUMP JUMPDEST PUSH0 DUP1 PUSH1 0x40 DUP4 DUP6 SUB SLT ISZERO PUSH2 0x26C9 JUMPI PUSH0 DUP1 REVERT JUMPDEST PUSH2 0x26D2 DUP4 PUSH2 0x24A9 JUMP JUMPDEST SWAP2 POP PUSH1 0x20 DUP4 ADD CALLDATALOAD DUP1 ISZERO ISZERO DUP2 EQ PUSH2 0x26E6 JUMPI PUSH0 DUP1 REVERT JUMPDEST DUP1 SWAP2 POP POP SWAP3 POP SWAP3 SWAP1 POP JUMP JUMPDEST PUSH0 DUP1 PUSH1 0x40 DUP4 DUP6 SUB SLT ISZERO PUSH2 0x2702 JUMPI PUSH0 DUP1 REVERT JUMPDEST PUSH2 0x270B DUP4 PUSH2 0x24A9 JUMP JUMPDEST SWAP2 POP PUSH1 0x20 DUP4 DUP2 ADD CALLDATALOAD PUSH1 0x1 PUSH1 0x1 PUSH1 0x40 SHL SUB DUP1 DUP3 GT ISZERO PUSH2 0x2727 JUMPI PUSH0 DUP1 REVERT JUMPDEST DUP2 DUP7 ADD SWAP2 POP DUP7 PUSH1 0x1F DUP4 ADD SLT PUSH2 0x273A JUMPI PUSH0 DUP1 REVERT JUMPDEST DUP2 CALLDATALOAD DUP2 DUP2 GT ISZERO PUSH2 0x274C JUMPI PUSH2 0x274C PUSH2 0x2599 JUMP JUMPDEST PUSH2 0x275E PUSH1 0x1F DUP3 ADD PUSH1 0x1F NOT AND DUP6 ADD PUSH2 0x25AD JUMP JUMPDEST SWAP2 POP DUP1 DUP3 MSTORE DUP8 DUP5 DUP3 DUP6 ADD ADD GT ISZERO PUSH2 0x2773 JUMPI PUSH0 DUP1 REVERT JUMPDEST DUP1 DUP5 DUP5 ADD DUP6 DUP5 ADD CALLDATACOPY PUSH0 DUP5 DUP3 DUP5 ADD ADD MSTORE POP DUP1 SWAP4 POP POP POP POP SWAP3 POP SWAP3 SWAP1 POP JUMP JUMPDEST PUSH1 0x40 DUP2 MSTORE PUSH0 PUSH2 0x27A2 PUSH1 0x40 DUP4 ADD DUP6 PUSH2 0x24DD JUMP JUMPDEST DUP3 DUP2 SUB PUSH1 0x20 DUP5 ADD MSTORE PUSH2 0x243F DUP2 DUP6 PUSH2 0x2531 JUMP JUMPDEST PUSH0 DUP1 PUSH0 DUP1 PUSH0 DUP1 PUSH1 0xC0 DUP8 DUP10 SUB SLT ISZERO PUSH2 0x27C9 JUMPI PUSH0 DUP1 REVERT JUMPDEST PUSH2 0x27D2 DUP8 PUSH2 0x24A9 JUMP JUMPDEST SWAP6 POP PUSH2 0x27E0 PUSH1 0x20 DUP9 ADD PUSH2 0x24A9 JUMP JUMPDEST SWAP5 POP PUSH2 0x27EE PUSH1 0x40 DUP9 ADD PUSH2 0x24A9 JUMP JUMPDEST SWAP4 POP PUSH2 0x27FC PUSH1 0x60 DUP9 ADD PUSH2 0x24A9 JUMP JUMPDEST SWAP3 POP PUSH2 0x280A PUSH1 0x80 DUP9 ADD PUSH2 0x24A9 JUMP JUMPDEST SWAP2 POP PUSH2 0x2818 PUSH1 0xA0 DUP9 ADD PUSH2 0x24A9 JUMP JUMPDEST SWAP1 POP SWAP3 SWAP6 POP SWAP3 SWAP6 POP SWAP3 SWAP6 JUMP JUMPDEST PUSH1 0x40 DUP2 MSTORE PUSH0 PUSH2 0x27A2 PUSH1 0x40 DUP4 ADD DUP6 PUSH2 0x2531 JUMP JUMPDEST PUSH0 DUP1 PUSH1 0x40 DUP4 DUP6 SUB SLT ISZERO PUSH2 0x2847 JUMPI PUSH0 DUP1 REVERT JUMPDEST POP POP DUP1 CALLDATALOAD SWAP3 PUSH1 0x20 SWAP1 SWAP2 ADD CALLDATALOAD SWAP2 POP JUMP JUMPDEST PUSH1 0x20 DUP1 DUP3 MSTORE PUSH1 0x9 SWAP1 DUP3 ADD MSTORE PUSH9 0x3737BA1030B236B4B7 PUSH1 0xB9 SHL PUSH1 0x40 DUP3 ADD MSTORE PUSH1 0x60 ADD SWAP1 JUMP JUMPDEST PUSH4 0x4E487B71 PUSH1 0xE0 SHL PUSH0 MSTORE PUSH1 0x32 PUSH1 0x4 MSTORE PUSH1 0x24 PUSH0 REVERT JUMPDEST PUSH1 0x20 DUP1 DUP3 MSTORE PUSH1 0x2C SWAP1 DUP3 ADD MSTORE PUSH0 DUP1 MLOAD PUSH1 0x20 PUSH2 0x29F5 DUP4 CODECOPY DUP2 MLOAD SWAP2 MSTORE PUSH1 0x40 DUP3 ADD MSTORE PUSH12 0x19195B1959D85D1958D85B1B PUSH1 0xA2 SHL PUSH1 0x60 DUP3 ADD MSTORE PUSH1 0x80 ADD SWAP1 JUMP JUMPDEST PUSH1 0x20 DUP1 DUP3 MSTORE PUSH1 0x2C SWAP1 DUP3 ADD MSTORE PUSH0 DUP1 MLOAD PUSH1 0x20 PUSH2 0x29F5 DUP4 CODECOPY DUP2 MLOAD SWAP2 MSTORE PUSH1 0x40 DUP3 ADD MSTORE PUSH12 0x6163746976652070726F7879 PUSH1 0xA0 SHL PUSH1 0x60 DUP3 ADD MSTORE PUSH1 0x80 ADD SWAP1 JUMP JUMPDEST PUSH0 PUSH1 0x1 DUP3 ADD PUSH2 0x291C JUMPI PUSH4 0x4E487B71 PUSH1 0xE0 SHL PUSH0 MSTORE PUSH1 0x11 PUSH1 0x4 MSTORE PUSH1 0x24 PUSH0 REVERT JUMPDEST POP PUSH1 0x1 ADD SWAP1 JUMP JUMPDEST PUSH0 PUSH1 0x20 DUP3 DUP5 SUB SLT ISZERO PUSH2 0x2933 JUMPI PUSH0 DUP1 REVERT JUMPDEST POP MLOAD SWAP2 SWAP1 POP JUMP JUMPDEST PUSH1 0x20 DUP1 DUP3 MSTORE PUSH1 0x2B SWAP1 DUP3 ADD MSTORE PUSH32 0x496E697469616C697A61626C653A20636F6E7472616374206973206E6F742069 PUSH1 0x40 DUP3 ADD MSTORE PUSH11 0x6E697469616C697A696E67 PUSH1 0xA8 SHL PUSH1 0x60 DUP3 ADD MSTORE PUSH1 0x80 ADD SWAP1 JUMP JUMPDEST PUSH0 JUMPDEST DUP4 DUP2 LT ISZERO PUSH2 0x299F JUMPI DUP2 DUP2 ADD MLOAD DUP4 DUP3 ADD MSTORE PUSH1 0x20 ADD PUSH2 0x2987 JUMP JUMPDEST POP POP PUSH0 SWAP2 ADD MSTORE JUMP JUMPDEST PUSH0 DUP3 MLOAD PUSH2 0x29B8 DUP2 DUP5 PUSH1 0x20 DUP8 ADD PUSH2 0x2985 JUMP JUMPDEST SWAP2 SWAP1 SWAP2 ADD SWAP3 SWAP2 POP POP JUMP JUMPDEST PUSH1 0x20 DUP2 MSTORE PUSH0 DUP3 MLOAD DUP1 PUSH1 0x20 DUP5 ADD MSTORE PUSH2 0x29E0 DUP2 PUSH1 0x40 DUP6 ADD PUSH1 0x20 DUP8 ADD PUSH2 0x2985 JUMP JUMPDEST PUSH1 0x1F ADD PUSH1 0x1F NOT AND SWAP2 SWAP1 SWAP2 ADD PUSH1 0x40 ADD SWAP3 SWAP2 POP POP JUMP INVALID CHAINID PUSH22 0x6E6374696F6E206D7573742062652063616C6C656420 PUSH21 0x68726F75676820360894A13BA1A3210667C828492D 0xB9 DUP14 0xCA RETURNDATACOPY KECCAK256 PUSH23 0xCC3735A920A3CA505D382BBC416464726573733A206C6F PUSH24 0x2D6C6576656C2064656C65676174652063616C6C20666169 PUSH13 0x65643EFDD7A884FF9E18C9E571 SHR XOR GAS 0xA6 0xC5 0xE4 SGT 0xB6 DUP16 0x23 NOT PUSH26 0x97DA5B1665CA978F99A26469706673582212209FB3EEF1A7E8DF 0xD4 DUP2 0xC6 INVALID MULMOD 0xF 0xEC SWAP14 PUSH1 0x5B PUSH4 0x1080BF75 INVALID 0xE7 SGT 0xD3 RETURN PUSH21 0xA9A0C71C64736F6C63430008140033000000000000 "
		},
		"gasEstimates": {
			"creation": {
				"codeDepositCost": "2185800",
				"executionCost": "infinite",
				"totalCost": "infinite"
			},
			"external": {
				"acb()": "3008",
				"acbPair()": "2920",
				"airdropMachine(address,uint256)": "infinite",
				"changeClaimInterval(uint256)": "26918",
				"changeMachineExpireTime(uint256)": "26874",
				"changeMarketAddress(address)": "29298",
				"changeMaxComputingPower(uint256)": "26896",
				"changeMinComputingPower(uint256)": "27007",
				"changeMonthDividenAddress(address)": "29583",
				"changeMvCollectionAddress(address)": "29605",
				"changeOperator(address)": "26801",
				"changePlatformAddress(address)": "29429",
				"changePlatformRate(uint256)": "26852",
				"changeRefRewardRate(uint256,uint256)": "49361",
				"changeRemainingAddress(address)": "29517",
				"changeSameLevelRewardRate(uint256)": "27205",
				"changeShareHolderMinLimit(uint256)": "26764",
				"changeShareHolderRewardRate(uint256)": "26831",
				"changeSwapRate(uint256)": "26765",
				"changeTeamLevel(uint256[],uint256[])": "infinite",
				"changeTeamRewardAddress(address)": "29671",
				"changeTeamRewardRate(uint256)": "26984",
				"changeTechAddress(address)": "28989",
				"claimInterval()": "2361",
				"getRateConfig()": "infinite",
				"getTeamAddress()": "infinite",
				"getTeamLevel()": "infinite",
				"getUserLevels()": "infinite",
				"initialize(address)": "infinite",
				"machineExpireTime()": "2537",
				"marketAddress()": "2699",
				"maxComputingPower()": "2735",
				"minComputingPower()": "2536",
				"minePool()": "2325",
				"mmStore()": "2876",
				"monthDividendAddress()": "2743",
				"mv()": "2677",
				"mvCollectionAddress()": "2853",
				"operator()": "2964",
				"owner()": "2642",
				"platformAddress()": "2809",
				"platformRate()": "2669",
				"proxiableUUID()": "infinite",
				"refRewardOneRate()": "2580",
				"refRewardTwoRate()": "2757",
				"remainingAddress()": "2985",
				"renounceOwnership()": "infinite",
				"sameLevelRewardRate()": "2866",
				"setAdmin(address,bool)": "27407",
				"setConfig(address,address,address,address,address,address)": "infinite",
				"setUserLevel(address,uint256)": "75733",
				"shareHolderMinLimit()": "2471",
				"shareHolderRewardRate()": "2691",
				"swapRate()": "2360",
				"teamLevel(uint256)": "4773",
				"teamRewardAddress()": "2854",
				"teamRewardRate()": "2624",
				"techAddress()": "2458",
				"top()": "886",
				"transferOwnership(address)": "28972",
				"upgradeTo(address)": "infinite",
				"upgradeToAndCall(address,bytes)": "infinite",
				"usdt()": "2590",
				"userArr(uint256)": "4601",
				"userLevel(address)": "2737"
			},
			"internal": {
				"_authorizeUpgrade(address)": "infinite"
			}
		},
		"methodIdentifiers": {
			"acb()": "5bff9787",
			"acbPair()": "5250c9b5",
			"airdropMachine(address,uint256)": "57629f82",
			"changeClaimInterval(uint256)": "796f838e",
			"changeMachineExpireTime(uint256)": "7634b070",
			"changeMarketAddress(address)": "35aed778",
			"changeMaxComputingPower(uint256)": "767608e2",
			"changeMinComputingPower(uint256)": "3360364d",
			"changeMonthDividenAddress(address)": "f7656704",
			"changeMvCollectionAddress(address)": "f80183b2",
			"changeOperator(address)": "06394c9b",
			"changePlatformAddress(address)": "cde85744",
			"changePlatformRate(uint256)": "72765009",
			"changeRefRewardRate(uint256,uint256)": "e3d9aa05",
			"changeRemainingAddress(address)": "eb2266bc",
			"changeSameLevelRewardRate(uint256)": "498c1e3c",
			"changeShareHolderMinLimit(uint256)": "66bf8f83",
			"changeShareHolderRewardRate(uint256)": "19a2ef5f",
			"changeSwapRate(uint256)": "08f93bd8",
			"changeTeamLevel(uint256[],uint256[])": "3b2c2e55",
			"changeTeamRewardAddress(address)": "ff858079",
			"changeTeamRewardRate(uint256)": "863be1ab",
			"changeTechAddress(address)": "669934a9",
			"claimInterval()": "0b433a12",
			"getRateConfig()": "1e79aa0a",
			"getTeamAddress()": "182d326e",
			"getTeamLevel()": "9a3135a8",
			"getUserLevels()": "6b1a9c07",
			"initialize(address)": "c4d66de8",
			"machineExpireTime()": "2d8852ee",
			"marketAddress()": "95623641",
			"maxComputingPower()": "3d08e5b3",
			"minComputingPower()": "85adb294",
			"minePool()": "602e6623",
			"mmStore()": "4dd40234",
			"monthDividendAddress()": "b2cf085e",
			"mv()": "8f05cdf5",
			"mvCollectionAddress()": "e9d610e5",
			"operator()": "570ca735",
			"owner()": "8da5cb5b",
			"platformAddress()": "dbe55e56",
			"platformRate()": "36e0cac6",
			"proxiableUUID()": "52d1902d",
			"refRewardOneRate()": "8a5705d4",
			"refRewardTwoRate()": "434f9736",
			"remainingAddress()": "f97fe091",
			"renounceOwnership()": "715018a6",
			"sameLevelRewardRate()": "ee787b11",
			"setAdmin(address,bool)": "4b0bddd2",
			"setConfig(address,address,address,address,address,address)": "812df395",
			"setUserLevel(address,uint256)": "33f5780e",
			"shareHolderMinLimit()": "21596c25",
			"shareHolderRewardRate()": "39cbc405",
			"swapRate()": "698518e5",
			"teamLevel(uint256)": "254720b7",
			"teamRewardAddress()": "4b21ddec",
			"teamRewardRate()": "8e10ef0b",
			"techAddress()": "1e56cfab",
			"top()": "fe6dcdba",
			"transferOwnership(address)": "f2fde38b",
			"upgradeTo(address)": "3659cfe6",
			"upgradeToAndCall(address,bytes)": "4f1ef286",
			"usdt()": "2f48ab7d",
			"userArr(uint256)": "057d7781",
			"userLevel(address)": "280e31cc"
		}
	},
	"abi": [
		{
			"anonymous": false,
			"inputs": [
				{
					"indexed": false,
					"internalType": "address",
					"name": "previousAdmin",
					"type": "address"
				},
				{
					"indexed": false,
					"internalType": "address",
					"name": "newAdmin",
					"type": "address"
				}
			],
			"name": "AdminChanged",
			"type": "event"
		},
		{
			"anonymous": false,
			"inputs": [
				{
					"indexed": true,
					"internalType": "address",
					"name": "beacon",
					"type": "address"
				}
			],
			"name": "BeaconUpgraded",
			"type": "event"
		},
		{
			"anonymous": false,
			"inputs": [
				{
					"indexed": false,
					"internalType": "uint8",
					"name": "version",
					"type": "uint8"
				}
			],
			"name": "Initialized",
			"type": "event"
		},
		{
			"anonymous": false,
			"inputs": [
				{
					"indexed": true,
					"internalType": "address",
					"name": "previousOwner",
					"type": "address"
				},
				{
					"indexed": true,
					"internalType": "address",
					"name": "newOwner",
					"type": "address"
				}
			],
			"name": "OwnershipTransferred",
			"type": "event"
		},
		{
			"anonymous": false,
			"inputs": [
				{
					"indexed": true,
					"internalType": "address",
					"name": "implementation",
					"type": "address"
				}
			],
			"name": "Upgraded",
			"type": "event"
		},
		{
			"inputs": [],
			"name": "acb",
			"outputs": [
				{
					"internalType": "address",
					"name": "",
					"type": "address"
				}
			],
			"stateMutability": "view",
			"type": "function"
		},
		{
			"inputs": [],
			"name": "acbPair",
			"outputs": [
				{
					"internalType": "address",
					"name": "",
					"type": "address"
				}
			],
			"stateMutability": "view",
			"type": "function"
		},
		{
			"inputs": [
				{
					"internalType": "address",
					"name": "user",
					"type": "address"
				},
				{
					"internalType": "uint256",
					"name": "amount",
					"type": "uint256"
				}
			],
			"name": "airdropMachine",
			"outputs": [],
			"stateMutability": "nonpayable",
			"type": "function"
		},
		{
			"inputs": [
				{
					"internalType": "uint256",
					"name": "_claimInterval",
					"type": "uint256"
				}
			],
			"name": "changeClaimInterval",
			"outputs": [],
			"stateMutability": "nonpayable",
			"type": "function"
		},
		{
			"inputs": [
				{
					"internalType": "uint256",
					"name": "_machineExpireTime",
					"type": "uint256"
				}
			],
			"name": "changeMachineExpireTime",
			"outputs": [],
			"stateMutability": "nonpayable",
			"type": "function"
		},
		{
			"inputs": [
				{
					"internalType": "address",
					"name": "_marketAddress",
					"type": "address"
				}
			],
			"name": "changeMarketAddress",
			"outputs": [],
			"stateMutability": "nonpayable",
			"type": "function"
		},
		{
			"inputs": [
				{
					"internalType": "uint256",
					"name": "_maxComputingPower",
					"type": "uint256"
				}
			],
			"name": "changeMaxComputingPower",
			"outputs": [],
			"stateMutability": "nonpayable",
			"type": "function"
		},
		{
			"inputs": [
				{
					"internalType": "uint256",
					"name": "_minComputingPower",
					"type": "uint256"
				}
			],
			"name": "changeMinComputingPower",
			"outputs": [],
			"stateMutability": "nonpayable",
			"type": "function"
		},
		{
			"inputs": [
				{
					"internalType": "address",
					"name": "_monthDividendAddress",
					"type": "address"
				}
			],
			"name": "changeMonthDividenAddress",
			"outputs": [],
			"stateMutability": "nonpayable",
			"type": "function"
		},
		{
			"inputs": [
				{
					"internalType": "address",
					"name": "_mvCollectionAddress",
					"type": "address"
				}
			],
			"name": "changeMvCollectionAddress",
			"outputs": [],
			"stateMutability": "nonpayable",
			"type": "function"
		},
		{
			"inputs": [
				{
					"internalType": "address",
					"name": "_operator",
					"type": "address"
				}
			],
			"name": "changeOperator",
			"outputs": [],
			"stateMutability": "nonpayable",
			"type": "function"
		},
		{
			"inputs": [
				{
					"internalType": "address",
					"name": "_platformAddress",
					"type": "address"
				}
			],
			"name": "changePlatformAddress",
			"outputs": [],
			"stateMutability": "nonpayable",
			"type": "function"
		},
		{
			"inputs": [
				{
					"internalType": "uint256",
					"name": "_platformRate",
					"type": "uint256"
				}
			],
			"name": "changePlatformRate",
			"outputs": [],
			"stateMutability": "nonpayable",
			"type": "function"
		},
		{
			"inputs": [
				{
					"internalType": "uint256",
					"name": "_oneRate",
					"type": "uint256"
				},
				{
					"internalType": "uint256",
					"name": "_twoRate",
					"type": "uint256"
				}
			],
			"name": "changeRefRewardRate",
			"outputs": [],
			"stateMutability": "nonpayable",
			"type": "function"
		},
		{
			"inputs": [
				{
					"internalType": "address",
					"name": "_remainingAddress",
					"type": "address"
				}
			],
			"name": "changeRemainingAddress",
			"outputs": [],
			"stateMutability": "nonpayable",
			"type": "function"
		},
		{
			"inputs": [
				{
					"internalType": "uint256",
					"name": "_sameLevelRewardRate",
					"type": "uint256"
				}
			],
			"name": "changeSameLevelRewardRate",
			"outputs": [],
			"stateMutability": "nonpayable",
			"type": "function"
		},
		{
			"inputs": [
				{
					"internalType": "uint256",
					"name": "_shareHolderMinLimit",
					"type": "uint256"
				}
			],
			"name": "changeShareHolderMinLimit",
			"outputs": [],
			"stateMutability": "nonpayable",
			"type": "function"
		},
		{
			"inputs": [
				{
					"internalType": "uint256",
					"name": "_shareHolderRewardRate",
					"type": "uint256"
				}
			],
			"name": "changeShareHolderRewardRate",
			"outputs": [],
			"stateMutability": "nonpayable",
			"type": "function"
		},
		{
			"inputs": [
				{
					"internalType": "uint256",
					"name": "_swapRate",
					"type": "uint256"
				}
			],
			"name": "changeSwapRate",
			"outputs": [],
			"stateMutability": "nonpayable",
			"type": "function"
		},
		{
			"inputs": [
				{
					"internalType": "uint256[]",
					"name": "_amount",
					"type": "uint256[]"
				},
				{
					"internalType": "uint256[]",
					"name": "_rate",
					"type": "uint256[]"
				}
			],
			"name": "changeTeamLevel",
			"outputs": [],
			"stateMutability": "nonpayable",
			"type": "function"
		},
		{
			"inputs": [
				{
					"internalType": "address",
					"name": "_teamRewardAddress",
					"type": "address"
				}
			],
			"name": "changeTeamRewardAddress",
			"outputs": [],
			"stateMutability": "nonpayable",
			"type": "function"
		},
		{
			"inputs": [
				{
					"internalType": "uint256",
					"name": "_teamRewardRate",
					"type": "uint256"
				}
			],
			"name": "changeTeamRewardRate",
			"outputs": [],
			"stateMutability": "nonpayable",
			"type": "function"
		},
		{
			"inputs": [
				{
					"internalType": "address",
					"name": "_techAddress",
					"type": "address"
				}
			],
			"name": "changeTechAddress",
			"outputs": [],
			"stateMutability": "nonpayable",
			"type": "function"
		},
		{
			"inputs": [],
			"name": "claimInterval",
			"outputs": [
				{
					"internalType": "uint256",
					"name": "",
					"type": "uint256"
				}
			],
			"stateMutability": "view",
			"type": "function"
		},
		{
			"inputs": [],
			"name": "getRateConfig",
			"outputs": [
				{
					"internalType": "uint256[]",
					"name": "rates",
					"type": "uint256[]"
				}
			],
			"stateMutability": "view",
			"type": "function"
		},
		{
			"inputs": [],
			"name": "getTeamAddress",
			"outputs": [
				{
					"internalType": "address[]",
					"name": "addressArr",
					"type": "address[]"
				}
			],
			"stateMutability": "view",
			"type": "function"
		},
		{
			"inputs": [],
			"name": "getTeamLevel",
			"outputs": [
				{
					"internalType": "uint256[]",
					"name": "amounts",
					"type": "uint256[]"
				},
				{
					"internalType": "uint256[]",
					"name": "rates",
					"type": "uint256[]"
				}
			],
			"stateMutability": "view",
			"type": "function"
		},
		{
			"inputs": [],
			"name": "getUserLevels",
			"outputs": [
				{
					"internalType": "address[]",
					"name": "users",
					"type": "address[]"
				},
				{
					"internalType": "uint256[]",
					"name": "levels",
					"type": "uint256[]"
				}
			],
			"stateMutability": "view",
			"type": "function"
		},
		{
			"inputs": [
				{
					"internalType": "address",
					"name": "_operator",
					"type": "address"
				}
			],
			"name": "initialize",
			"outputs": [],
			"stateMutability": "nonpayable",
			"type": "function"
		},
		{
			"inputs": [],
			"name": "machineExpireTime",
			"outputs": [
				{
					"internalType": "uint256",
					"name": "",
					"type": "uint256"
				}
			],
			"stateMutability": "view",
			"type": "function"
		},
		{
			"inputs": [],
			"name": "marketAddress",
			"outputs": [
				{
					"internalType": "address",
					"name": "",
					"type": "address"
				}
			],
			"stateMutability": "view",
			"type": "function"
		},
		{
			"inputs": [],
			"name": "maxComputingPower",
			"outputs": [
				{
					"internalType": "uint256",
					"name": "",
					"type": "uint256"
				}
			],
			"stateMutability": "view",
			"type": "function"
		},
		{
			"inputs": [],
			"name": "minComputingPower",
			"outputs": [
				{
					"internalType": "uint256",
					"name": "",
					"type": "uint256"
				}
			],
			"stateMutability": "view",
			"type": "function"
		},
		{
			"inputs": [],
			"name": "minePool",
			"outputs": [
				{
					"internalType": "address",
					"name": "",
					"type": "address"
				}
			],
			"stateMutability": "view",
			"type": "function"
		},
		{
			"inputs": [],
			"name": "mmStore",
			"outputs": [
				{
					"internalType": "address",
					"name": "",
					"type": "address"
				}
			],
			"stateMutability": "view",
			"type": "function"
		},
		{
			"inputs": [],
			"name": "monthDividendAddress",
			"outputs": [
				{
					"internalType": "address",
					"name": "",
					"type": "address"
				}
			],
			"stateMutability": "view",
			"type": "function"
		},
		{
			"inputs": [],
			"name": "mv",
			"outputs": [
				{
					"internalType": "address",
					"name": "",
					"type": "address"
				}
			],
			"stateMutability": "view",
			"type": "function"
		},
		{
			"inputs": [],
			"name": "mvCollectionAddress",
			"outputs": [
				{
					"internalType": "address",
					"name": "",
					"type": "address"
				}
			],
			"stateMutability": "view",
			"type": "function"
		},
		{
			"inputs": [],
			"name": "operator",
			"outputs": [
				{
					"internalType": "address",
					"name": "",
					"type": "address"
				}
			],
			"stateMutability": "view",
			"type": "function"
		},
		{
			"inputs": [],
			"name": "owner",
			"outputs": [
				{
					"internalType": "address",
					"name": "",
					"type": "address"
				}
			],
			"stateMutability": "view",
			"type": "function"
		},
		{
			"inputs": [],
			"name": "platformAddress",
			"outputs": [
				{
					"internalType": "address",
					"name": "",
					"type": "address"
				}
			],
			"stateMutability": "view",
			"type": "function"
		},
		{
			"inputs": [],
			"name": "platformRate",
			"outputs": [
				{
					"internalType": "uint256",
					"name": "",
					"type": "uint256"
				}
			],
			"stateMutability": "view",
			"type": "function"
		},
		{
			"inputs": [],
			"name": "proxiableUUID",
			"outputs": [
				{
					"internalType": "bytes32",
					"name": "",
					"type": "bytes32"
				}
			],
			"stateMutability": "view",
			"type": "function"
		},
		{
			"inputs": [],
			"name": "refRewardOneRate",
			"outputs": [
				{
					"internalType": "uint256",
					"name": "",
					"type": "uint256"
				}
			],
			"stateMutability": "view",
			"type": "function"
		},
		{
			"inputs": [],
			"name": "refRewardTwoRate",
			"outputs": [
				{
					"internalType": "uint256",
					"name": "",
					"type": "uint256"
				}
			],
			"stateMutability": "view",
			"type": "function"
		},
		{
			"inputs": [],
			"name": "remainingAddress",
			"outputs": [
				{
					"internalType": "address",
					"name": "",
					"type": "address"
				}
			],
			"stateMutability": "view",
			"type": "function"
		},
		{
			"inputs": [],
			"name": "renounceOwnership",
			"outputs": [],
			"stateMutability": "nonpayable",
			"type": "function"
		},
		{
			"inputs": [],
			"name": "sameLevelRewardRate",
			"outputs": [
				{
					"internalType": "uint256",
					"name": "",
					"type": "uint256"
				}
			],
			"stateMutability": "view",
			"type": "function"
		},
		{
			"inputs": [
				{
					"internalType": "address",
					"name": "user",
					"type": "address"
				},
				{
					"internalType": "bool",
					"name": "auth",
					"type": "bool"
				}
			],
			"name": "setAdmin",
			"outputs": [],
			"stateMutability": "nonpayable",
			"type": "function"
		},
		{
			"inputs": [
				{
					"internalType": "address",
					"name": "_usdt",
					"type": "address"
				},
				{
					"internalType": "address",
					"name": "_mv",
					"type": "address"
				},
				{
					"internalType": "address",
					"name": "_acb",
					"type": "address"
				},
				{
					"internalType": "address",
					"name": "_minePool",
					"type": "address"
				},
				{
					"internalType": "address",
					"name": "_mmStore",
					"type": "address"
				},
				{
					"internalType": "address",
					"name": "_acbPair",
					"type": "address"
				}
			],
			"name": "setConfig",
			"outputs": [],
			"stateMutability": "nonpayable",
			"type": "function"
		},
		{
			"inputs": [
				{
					"internalType": "address",
					"name": "_user",
					"type": "address"
				},
				{
					"internalType": "uint256",
					"name": "_level",
					"type": "uint256"
				}
			],
			"name": "setUserLevel",
			"outputs": [],
			"stateMutability": "nonpayable",
			"type": "function"
		},
		{
			"inputs": [],
			"name": "shareHolderMinLimit",
			"outputs": [
				{
					"internalType": "uint256",
					"name": "",
					"type": "uint256"
				}
			],
			"stateMutability": "view",
			"type": "function"
		},
		{
			"inputs": [],
			"name": "shareHolderRewardRate",
			"outputs": [
				{
					"internalType": "uint256",
					"name": "",
					"type": "uint256"
				}
			],
			"stateMutability": "view",
			"type": "function"
		},
		{
			"inputs": [],
			"name": "swapRate",
			"outputs": [
				{
					"internalType": "uint256",
					"name": "",
					"type": "uint256"
				}
			],
			"stateMutability": "view",
			"type": "function"
		},
		{
			"inputs": [
				{
					"internalType": "uint256",
					"name": "",
					"type": "uint256"
				}
			],
			"name": "teamLevel",
			"outputs": [
				{
					"internalType": "uint256",
					"name": "amount",
					"type": "uint256"
				},
				{
					"internalType": "uint256",
					"name": "rate",
					"type": "uint256"
				}
			],
			"stateMutability": "view",
			"type": "function"
		},
		{
			"inputs": [],
			"name": "teamRewardAddress",
			"outputs": [
				{
					"internalType": "address",
					"name": "",
					"type": "address"
				}
			],
			"stateMutability": "view",
			"type": "function"
		},
		{
			"inputs": [],
			"name": "teamRewardRate",
			"outputs": [
				{
					"internalType": "uint256",
					"name": "",
					"type": "uint256"
				}
			],
			"stateMutability": "view",
			"type": "function"
		},
		{
			"inputs": [],
			"name": "techAddress",
			"outputs": [
				{
					"internalType": "address",
					"name": "",
					"type": "address"
				}
			],
			"stateMutability": "view",
			"type": "function"
		},
		{
			"inputs": [],
			"name": "top",
			"outputs": [
				{
					"internalType": "address",
					"name": "",
					"type": "address"
				}
			],
			"stateMutability": "view",
			"type": "function"
		},
		{
			"inputs": [
				{
					"internalType": "address",
					"name": "newOwner",
					"type": "address"
				}
			],
			"name": "transferOwnership",
			"outputs": [],
			"stateMutability": "nonpayable",
			"type": "function"
		},
		{
			"inputs": [
				{
					"internalType": "address",
					"name": "newImplementation",
					"type": "address"
				}
			],
			"name": "upgradeTo",
			"outputs": [],
			"stateMutability": "nonpayable",
			"type": "function"
		},
		{
			"inputs": [
				{
					"internalType": "address",
					"name": "newImplementation",
					"type": "address"
				},
				{
					"internalType": "bytes",
					"name": "data",
					"type": "bytes"
				}
			],
			"name": "upgradeToAndCall",
			"outputs": [],
			"stateMutability": "payable",
			"type": "function"
		},
		{
			"inputs": [],
			"name": "usdt",
			"outputs": [
				{
					"internalType": "address",
					"name": "",
					"type": "address"
				}
			],
			"stateMutability": "view",
			"type": "function"
		},
		{
			"inputs": [
				{
					"internalType": "uint256",
					"name": "",
					"type": "uint256"
				}
			],
			"name": "userArr",
			"outputs": [
				{
					"internalType": "address",
					"name": "",
					"type": "address"
				}
			],
			"stateMutability": "view",
			"type": "function"
		},
		{
			"inputs": [
				{
					"internalType": "address",
					"name": "",
					"type": "address"
				}
			],
			"name": "userLevel",
			"outputs": [
				{
					"internalType": "uint256",
					"name": "",
					"type": "uint256"
				}
			],
			"stateMutability": "view",
			"type": "function"
		}
	]
}