{
	"data": {
		"bytecode": {
			"linkReferences": {},
			"object": "60a060405230608052348015610013575f80fd5b50608051615db1620000495f395f8181610bbb01528181610c0401528181611fb501528181611ff501526121930152615db15ff3fe608060405260043610610238575f3560e01c806304e869031461023c5780630902f1ac1461027a5780631865e4d5146102ba578063210835ae146102f8578063233be799146103195780632562c39b14610345578063265eb5b8146103665780632d6d56b01461037a5780633659cfe6146103c3578063365b98b2146103e2578063382e227f146104105780633f22297e1461042f57806342ff7bcd1461044e5780634469ed131461046357806345b3e93e146104825780634e71d92d146104965780634f1ef286146104aa57806351ae6b1b146104bd57806352d1902d146104e957806357629f82146104fd578063624343e61461051c578063715018a6146105485780637456fed61461055c5780637bab1032146105705780638da5cb5b146105845780638e56d48c146105a557806394b918de146105ba5780639b5f0f22146105d9578063a3592158146105ee578063a7808f1a14610603578063ad7e01be14610617578063baf189d21461062b578063bf024cfa1461064a578063c4b6ebdf14610669578063c4d66de81461069d578063c6834bf6146106bc578063c8ee50731461071e578063cb82ab191461073d578063cbba3def1461075c578063d77f5ee714610788578063d7df42d31461079d578063dba64f8f146107bc578063e500845d146107db578063e8bb4c33146107fa578063e91e969c1461080e578063eed0ab5314610822578063f2782d6d1461084e578063f2fde38b1461086d578063f951d9451461088c578063fc76f17c146108c6575b5f80fd5b348015610247575f80fd5b506102676102563660046153dc565b60d36020525f908152604090205481565b6040519081526020015b60405180910390f35b348015610285575f80fd5b5061028e6108f2565b604080516001600160701b03948516815293909216602084015263ffffffff1690820152606001610271565b3480156102c5575f80fd5b506102e86102d43660046153dc565b60d16020525f908152604090205460ff1681565b6040519015158152602001610271565b348015610303575f80fd5b506103176103123660046153dc565b610977565b005b348015610324575f80fd5b506103386103333660046153dc565b6109a1565b604051610271919061541d565b348015610350575f80fd5b50610359610a26565b604051610271919061542b565b348015610371575f80fd5b5060cb54610267565b348015610385575f80fd5b50610399610394366004615469565b610b6f565b604080516001600160a01b0390951685526020850193909352918301526060820152608001610271565b3480156103ce575f80fd5b506103176103dd3660046153dc565b610bb1565b3480156103ed575f80fd5b506104016103fc366004615469565b610c81565b60405161027193929190615480565b34801561041b575f80fd5b5061031761042a3660046154a4565b610cbf565b34801561043a575f80fd5b50610267610449366004615469565b611912565b348015610459575f80fd5b5061026760d55481565b34801561046e575f80fd5b5061039961047d366004615469565b611a97565b34801561048d575f80fd5b50610359611aa6565b3480156104a1575f80fd5b50610317611bdd565b6103176104b8366004615568565b611fab565b3480156104c8575f80fd5b506104dc6104d73660046154a4565b612064565b60405161027191906155b4565b3480156104f4575f80fd5b50610267612187565b348015610508575f80fd5b50610317610517366004615618565b612233565b348015610527575f80fd5b5061053b610536366004615469565b612342565b604051610271919061566e565b348015610553575f80fd5b506103176123ac565b348015610567575f80fd5b5060ca54610267565b34801561057b575f80fd5b506102676123bf565b34801561058f575f80fd5b506105986123cd565b604051610271919061567c565b3480156105b0575f80fd5b5061026760d65481565b3480156105c5575f80fd5b506103176105d4366004615469565b6123dc565b3480156105e4575f80fd5b5061026760d75481565b3480156105f9575f80fd5b5061026760d85481565b34801561060e575f80fd5b5060cc54610267565b348015610622575f80fd5b5061031761280e565b348015610636575f80fd5b5061053b610645366004615469565b612c95565b348015610655575f80fd5b50610267610664366004615618565b612cb0565b348015610674575f80fd5b506105986106833660046153dc565b60cf6020525f90815260409020546001600160a01b031681565b3480156106a8575f80fd5b506103176106b73660046153dc565b612cdb565b3480156106c7575f80fd5b506106db6106d63660046153dc565b612e08565b60405161027191905f60a0820190508251825260208301516020830152604083015160408301526060830151606083015260808301511515608083015292915050565b348015610729575f80fd5b50610399610738366004615469565b6130cc565b348015610748575f80fd5b50610399610757366004615469565b6130db565b348015610767575f80fd5b5061077b6107763660046154a4565b6130ea565b6040516102719190615690565b348015610793575f80fd5b5061026760d45481565b3480156107a8575f80fd5b506103176107b73660046156dd565b613221565b3480156107c7575f80fd5b5060c954610598906001600160a01b031681565b3480156107e6575f80fd5b506102676107f53660046153dc565b6135cc565b348015610805575f80fd5b506105986136ff565b348015610819575f80fd5b5061031761376a565b34801561082d575f80fd5b5061084161083c3660046154a4565b613d6f565b604051610271919061573b565b348015610859575f80fd5b50610399610868366004615469565b613ea6565b348015610878575f80fd5b506103176108873660046153dc565b613eb5565b348015610897575f80fd5b506102e86108a636600461577c565b805160208183018101805160d28252928201919093012091525460ff1681565b3480156108d1575f80fd5b506108e56108e03660046153dc565b613f2b565b60405161027191906157c8565b5f805f6108fd6141e2565b6001600160a01b0316630902f1ac6040518163ffffffff1660e01b8152600401606060405180830381865afa158015610938573d5f803e3d5ffd5b505050506040513d601f19601f8201168201806040525081019061095c9190615824565b509093509150610970600160201b42615884565b9050909192565b61097f614229565b60c980546001600160a01b0319166001600160a01b0392909216919091179055565b6109c860405180608001604052805f81526020015f81526020015f81526020015f81525090565b50604080516080810182526001600160a01b039092165f90815260d960209081528282208280528082528383205485526001835280825283832054828601526002835280825283832054858501526003835290522054606082015290565b610a5c6040518060a001604052805f81526020015f81526020015f81526020015f81526020015f6001600160a01b031681525090565b5f60cb60d75481548110610a7257610a72615897565b905f5260205f2090600402016002015460d8541015610ab55760cb60d75481548110610aa057610aa0615897565b905f5260205f20906004020160020154610ab9565b60d8545b9050610ac862015180826158bf565b90506040518060a0016040528082421015610aec57610ae742846158d2565b610aee565b5f5b815260200160d5548152602001600260d554610b0a91906158e5565b815260200160cb60d75481548110610b2457610b24615897565b905f5260205f20906004020160010154815260200160cb60d75481548110610b4e57610b4e615897565b5f9182526020909120600490910201546001600160a01b0316905292915050565b60cd8181548110610b7e575f80fd5b5f91825260209091206004909102018054600182015460028301546003909301546001600160a01b039092169350919084565b6001600160a01b037f0000000000000000000000000000000000000000000000000000000000000000163003610c025760405162461bcd60e51b8152600401610bf9906158f8565b60405180910390fd5b7f00000000000000000000000000000000000000000000000000000000000000006001600160a01b0316610c34614288565b6001600160a01b031614610c5a5760405162461bcd60e51b8152600401610bf990615931565b610c63816142a3565b604080515f80825260208201909252610c7e918391906142ab565b50565b60ca8181548110610c90575f80fd5b5f9182526020909120600390910201805460018201546002909201546001600160a01b03918216935091169083565b60c95f9054906101000a90046001600160a01b03166001600160a01b031663a03cc2a66040518163ffffffff1660e01b8152600401602060405180830381865afa158015610d0f573d5f803e3d5ffd5b505050506040513d601f19601f82011682018060405250810190610d33919061596a565b600303610d525760405162d2d51960e11b815260040160405180910390fd5b610d5a614415565b6001600160a01b03166323b872dd3330610d756002876158e5565b6040518463ffffffff1660e01b8152600401610d9393929190615480565b6020604051808303815f875af1158015610daf573d5f803e3d5ffd5b505050506040513d601f19601f82011682018060405250810190610dd39190615981565b50805f036110555760c95f9054906101000a90046001600160a01b03166001600160a01b031663a03cc2a66040518163ffffffff1660e01b8152600401602060405180830381865afa158015610e2b573d5f803e3d5ffd5b505050506040513d601f19601f82011682018060405250810190610e4f919061596a565b600103610e6e5760405162d2d51960e11b815260040160405180910390fd5b60c95f9054906101000a90046001600160a01b03166001600160a01b0316638f05cdf56040518163ffffffff1660e01b8152600401602060405180830381865afa158015610ebe573d5f803e3d5ffd5b505050506040513d601f19601f82011682018060405250810190610ee291906159a0565b6001600160a01b03166323b872dd3360c95f9054906101000a90046001600160a01b03166001600160a01b031663e9d610e56040518163ffffffff1660e01b8152600401602060405180830381865afa158015610f41573d5f803e3d5ffd5b505050506040513d601f19601f82011682018060405250810190610f6591906159a0565b60c9546040805163698518e560e01b815290516103e8926001600160a01b03169163698518e59160048083019260209291908290030181865afa158015610fae573d5f803e3d5ffd5b505050506040513d601f19601f82011682018060405250810190610fd2919061596a565b610fdd6002896158e5565b610fe791906159bb565b610ff191906158e5565b6040518463ffffffff1660e01b815260040161100f93929190615480565b6020604051808303815f875af115801561102b573d5f803e3d5ffd5b505050506040513d601f19601f8201168201806040525081019061104f9190615981565b50611195565b60c95f9054906101000a90046001600160a01b03166001600160a01b031663a03cc2a66040518163ffffffff1660e01b8152600401602060405180830381865afa1580156110a5573d5f803e3d5ffd5b505050506040513d601f19601f820116820180604052508101906110c9919061596a565b6002036110e85760405162d2d51960e11b815260040160405180910390fd5b5f6110f161445c565b90506110fb6136ff565b6001600160a01b03166323b872dd336001846111186002896158e5565b61112291906158e5565b61113490670de0b6b3a76400006159bb565b6040518463ffffffff1660e01b815260040161115293929190615480565b6020604051808303815f875af115801561116e573d5f803e3d5ffd5b505050506040513d601f19601f820116820180604052508101906111929190615981565b50505b335f81815260d06020908152604080832060cb80548254600180820185559387528587200155825160808101845286815280850189815242828601818152606084019182528454808701865594895292515f80516020615cb5833981519152600490950294850180546001600160a01b0319166001600160a01b0390921691909117905590515f80516020615c9583398151915284015590515f80516020615cd5833981519152830155515f80516020615d5c8339815191529091015593835260d19091529020805460ff1916909117905561126f614415565b6001600160a01b031663a9059cbb60c95f9054906101000a90046001600160a01b03166001600160a01b0316631e56cfab6040518163ffffffff1660e01b8152600401602060405180830381865afa1580156112cd573d5f803e3d5ffd5b505050506040513d601f19601f820116820180604052508101906112f191906159a0565b6103e86112ff6002876158e5565b61130a9060146159bb565b61131491906158e5565b6040518363ffffffff1660e01b81526004016113319291906159d2565b6020604051808303815f875af115801561134d573d5f803e3d5ffd5b505050506040513d601f19601f820116820180604052508101906113719190615981565b5061137a614415565b6001600160a01b031663a9059cbb60c95f9054906101000a90046001600160a01b03166001600160a01b031663956236416040518163ffffffff1660e01b8152600401602060405180830381865afa1580156113d8573d5f803e3d5ffd5b505050506040513d601f19601f820116820180604052508101906113fc91906159a0565b6103e861140a6002876158e5565b6114159060146159bb565b61141f91906158e5565b6040518363ffffffff1660e01b815260040161143c9291906159d2565b6020604051808303815f875af1158015611458573d5f803e3d5ffd5b505050506040513d601f19601f8201168201806040525081019061147c9190615981565b50611485614415565b6001600160a01b031663095ea7b361149b6141e2565b6103e86114a96002876158e5565b6114b49060c86159bb565b6114be91906158e5565b6040518363ffffffff1660e01b81526004016114db9291906159d2565b6020604051808303815f875af11580156114f7573d5f803e3d5ffd5b505050506040513d601f19601f8201168201806040525081019061151b9190615981565b506115246141e2565b6001600160a01b031663a1e1541161153a614415565b6115426145e8565b6103e86115506002886158e5565b61155b9060c86159bb565b61156591906158e5565b6040518463ffffffff1660e01b815260040161158393929190615480565b6020604051808303815f875af115801561159f573d5f803e3d5ffd5b505050506040513d601f19601f820116820180604052508101906115c3919061596a565b505f6103e86115d36002856158e5565b6115df906102bc6159bb565b6115e991906158e5565b90505f806115f56141e2565b6001600160a01b0316630902f1ac6040518163ffffffff1660e01b8152600401606060405180830381865afa158015611630573d5f803e3d5ffd5b505050506040513d601f19601f820116820180604052508101906116549190615824565b50915091505f80611663614415565b6001600160a01b03166116746141e2565b6001600160a01b0316630dfe16816040518163ffffffff1660e01b8152600401602060405180830381865afa1580156116af573d5f803e3d5ffd5b505050506040513d601f19601f820116820180604052508101906116d391906159a0565b6001600160a01b0316146116e85782846116eb565b83835b915091505f826001600160701b031686836001600160701b031661170f91906159bb565b61171991906158e5565b9050611723614415565b6001600160a01b031663a9059cbb6117396141e2565b886040518363ffffffff1660e01b81526004016117579291906159d2565b6020604051808303815f875af1158015611773573d5f803e3d5ffd5b505050506040513d601f19601f820116820180604052508101906117979190615981565b506117a06145e8565b6001600160a01b031663f3fef3a36117b66141e2565b836040518363ffffffff1660e01b81526004016117d49291906159d2565b5f604051808303815f87803b1580156117eb575f80fd5b505af11580156117fd573d5f803e3d5ffd5b505050506118096141e2565b6001600160a01b0316636a62784260016040518263ffffffff1660e01b8152600401611835919061567c565b6020604051808303815f875af1158015611851573d5f803e3d5ffd5b505050506040513d601f19601f82011682018060405250810190611875919061596a565b5061187e61462f565b6118866147fd565b6103e861189460028a6158e5565b61189f9060236159bb565b6118a991906158e5565b60d45f8282546118b991906158bf565b909155506103e890506118cd60028a6158e5565b6118d89060196159bb565b6118e291906158e5565b60d55f8282546118f291906158bf565b90915550611900905061280e565b61190861376a565b5050505050505050565b5f805f61191d6141e2565b6001600160a01b0316630902f1ac6040518163ffffffff1660e01b8152600401606060405180830381865afa158015611958573d5f803e3d5ffd5b505050506040513d601f19601f8201168201806040525081019061197c9190615824565b50915091505f8061198b614415565b6001600160a01b031661199c6141e2565b6001600160a01b0316630dfe16816040518163ffffffff1660e01b8152600401602060405180830381865afa1580156119d7573d5f803e3d5ffd5b505050506040513d601f19601f820116820180604052508101906119fb91906159a0565b6001600160a01b031614611a10578284611a13565b83835b91509150611a1f6141e2565b6001600160a01b031663054d50d48783856040518463ffffffff1660e01b8152600401611a4e939291906159eb565b602060405180830381865afa158015611a69573d5f803e3d5ffd5b505050506040513d601f19601f82011682018060405250810190611a8d919061596a565b9695505050505050565b60ce8181548110610b7e575f80fd5b611adc6040518060a001604052805f81526020015f81526020015f81526020015f81526020015f6001600160a01b031681525090565b5f60d654610258611aed91906158bf565b90506040518060a0016040528082421015611b1157611b0c42846158d2565b611b13565b5f5b815260200160d45481526020016103e860d4546064611b3291906159bb565b611b3c91906158e5565b8152602001611b496136ff565b6001600160a01b03166370a0823160016040518263ffffffff1660e01b8152600401611b75919061567c565b602060405180830381865afa158015611b90573d5f803e3d5ffd5b505050506040513d601f19601f82011682018060405250810190611bb4919061596a565b815260200160cb600160cb80549050611bcd91906158d2565b81548110610b4e57610b4e615897565b335f90815260d06020908152604080832080548251818502810185019093528083529192909190830182828015611c3157602002820191905f5260205f20905b815481526020019060010190808311611c1d575b505050505090505f80611c4261445c565b90505f5b8351811015611df3575f60cb858381518110611c6457611c64615897565b602002602001015181548110611c7c57611c7c615897565b905f5260205f209060040201905060c95f9054906101000a90046001600160a01b03166001600160a01b0316630b433a126040518163ffffffff1660e01b8152600401602060405180830381865afa158015611cda573d5f803e3d5ffd5b505050506040513d601f19601f82011682018060405250810190611cfe919061596a565b6003820154611d0d90426158d2565b11611d2b57604051631ca0875f60e01b815260040160405180910390fd5b5f611d34614a97565b8260020154611d4391906158bf565b4210611d6557611d51614a97565b8260020154611d6091906158bf565b611d67565b425b905081600301548111611d7b575050611de3565b836201518060648460010154611d9191906158e5565b611d9b91906158e5565b6003840154611daa90846158d2565b611db491906159bb565b611dbe91906158e5565b611dd090670de0b6b3a76400006159bb565b611dda90866158bf565b60039092015592505b611dec81615a0a565b9050611c46565b508115611f9657611e026145e8565b6001600160a01b031663f3fef3a330846040518363ffffffff1660e01b8152600401611e2f9291906159d2565b5f604051808303815f87803b158015611e46575f80fd5b505af1158015611e58573d5f803e3d5ffd5b50505050611e646136ff565b6001600160a01b031663a9059cbb33611e7e6002866158e5565b6040518363ffffffff1660e01b8152600401611e9b9291906159d2565b6020604051808303815f875af1158015611eb7573d5f803e3d5ffd5b505050506040513d601f19601f82011682018060405250810190611edb9190615981565b50604080516080810190915233815260cc9060208101611efc6002866158e5565b81525f60208083018290524260409384015284546001808201875595835291819020845160049093020180546001600160a01b0319166001600160a01b0390931692909217825583015193810193909355810151600280840191909155606090910151600390920191909155611f7290836158e5565b335f90815260d3602052604081208054909190611f909084906158bf565b90915550505b611f9e61280e565b611fa661376a565b505050565b6001600160a01b037f0000000000000000000000000000000000000000000000000000000000000000163003611ff35760405162461bcd60e51b8152600401610bf9906158f8565b7f00000000000000000000000000000000000000000000000000000000000000006001600160a01b0316612025614288565b6001600160a01b03161461204b5760405162461bcd60e51b8152600401610bf990615931565b612054826142a3565b612060828260016142ab565b5050565b60605f61207184846158d2565b61207c9060016158bf565b9050806001600160401b03811115612096576120966154c4565b6040519080825280602002602001820160405280156120df57816020015b604080516060810182525f80825260208083018290529282015282525f199092019101816120b45790505b5091505f5b8181101561217f5760ca6120f882876158bf565b8154811061210857612108615897565b5f91825260209182902060408051606081018252600390930290910180546001600160a01b0390811684526001820154169383019390935260029092015491810191909152835184908390811061216157612161615897565b6020026020010181905250808061217790615a0a565b9150506120e4565b505092915050565b5f306001600160a01b037f000000000000000000000000000000000000000000000000000000000000000016146122215760405162461bcd60e51b815260206004820152603860248201527f555550535570677261646561626c653a206d757374206e6f742062652063616c6044820152771b1959081d1a1c9bdd59da0819195b1959d85d1958d85b1b60421b6064820152608401610bf9565b505f80516020615d1583398151915290565b60c9546001600160a01b0316331461225e5760405163037816cf60e01b815260040160405180910390fd5b6001600160a01b038281165f81815260d06020908152604080832060cb80548254600180820185559387528587200155825160808101845295865285840188815242878501818152606089019182528354808601855593885297515f80516020615cb5833981519152600490940293840180546001600160a01b03191691909a1617909855515f80516020615c9583398151915282015594515f80516020615cd583398151915286015594515f80516020615d5c8339815191529094019390935533825260d1905220805460ff1916909117905561233a61462f565b6120606147fd565b61234a61539b565b60ce828154811061235d5761235d615897565b5f91825260209182902060408051608081018252600490930290910180546001600160a01b03168352600181015493830193909352600283015490820152600390910154606082015292915050565b6123b4614229565b6123bd5f614b02565b565b5f6123c861445c565b905090565b6033546001600160a01b031690565b6123e46136ff565b6001600160a01b03166323b872dd336001846040518463ffffffff1660e01b815260040161241493929190615480565b6020604051808303815f875af1158015612430573d5f803e3d5ffd5b505050506040513d601f19601f820116820180604052508101906124549190615981565b505f8061245f6141e2565b6001600160a01b0316630902f1ac6040518163ffffffff1660e01b8152600401606060405180830381865afa15801561249a573d5f803e3d5ffd5b505050506040513d601f19601f820116820180604052508101906124be9190615824565b50915091505f806124cd614415565b6001600160a01b03166124de6141e2565b6001600160a01b0316630dfe16816040518163ffffffff1660e01b8152600401602060405180830381865afa158015612519573d5f803e3d5ffd5b505050506040513d601f19601f8201168201806040525081019061253d91906159a0565b6001600160a01b031614612552578284612555565b83835b915091505f6125626141e2565b6001600160a01b031663054d50d48784866040518463ffffffff1660e01b8152600401612591939291906159eb565b602060405180830381865afa1580156125ac573d5f803e3d5ffd5b505050506040513d601f19601f820116820180604052508101906125d0919061596a565b90505f836001600160701b031682846001600160701b03166125f291906159bb565b6125fc91906158e5565b90505f80612608614415565b6001600160a01b03166126196141e2565b6001600160a01b0316630dfe16816040518163ffffffff1660e01b8152600401602060405180830381865afa158015612654573d5f803e3d5ffd5b505050506040513d601f19601f8201168201806040525081019061267891906159a0565b6001600160a01b03161461268d578284612690565b83835b9150915061269c6141e2565b60405163e840427d60e01b815260048101849052602481018390523060448201526001600160a01b03919091169063e840427d906064015f604051808303815f87803b1580156126ea575f80fd5b505af11580156126fc573d5f803e3d5ffd5b50505050612708614415565b6001600160a01b031663a9059cbb33866040518363ffffffff1660e01b81526004016127359291906159d2565b6020604051808303815f875af1158015612751573d5f803e3d5ffd5b505050506040513d601f19601f820116820180604052508101906127759190615981565b5061277e6136ff565b6001600160a01b031663a9059cbb6127946145e8565b856040518363ffffffff1660e01b81526004016127b29291906159d2565b6020604051808303815f875af11580156127ce573d5f803e3d5ffd5b505050506040513d601f19601f820116820180604052508101906127f29190615981565b506127fb61280e565b61280361376a565b505050505050505050565b5f6128176136ff565b6001600160a01b03166370a0823161282d6145e8565b6040518263ffffffff1660e01b8152600401612849919061567c565b602060405180830381865afa158015612864573d5f803e3d5ffd5b505050506040513d601f19601f82011682018060405250810190612888919061596a565b90505f6128936136ff565b6001600160a01b03166370a082316128a96141e2565b6040518263ffffffff1660e01b81526004016128c5919061567c565b602060405180830381865afa1580156128e0573d5f803e3d5ffd5b505050506040513d601f19601f82011682018060405250810190612904919061596a565b90506103e86129148360326159bb565b61291e91906158e5565b61292890836158bf565b8111612932575050565b5f8061293c6141e2565b6001600160a01b0316630902f1ac6040518163ffffffff1660e01b8152600401606060405180830381865afa158015612977573d5f803e3d5ffd5b505050506040513d601f19601f8201168201806040525081019061299b9190615824565b50915091506129a86141e2565b6001600160a01b031663e840427d6103e86129c485600a615a22565b6129ce9190615a45565b6103e86129dc85600a615a22565b6129e69190615a45565b306040518463ffffffff1660e01b8152600401612a0593929190615a6a565b5f604051808303815f87803b158015612a1c575f80fd5b505af1158015612a2e573d5f803e3d5ffd5b505050505f80612a3c614415565b6001600160a01b0316612a4d6141e2565b6001600160a01b0316630dfe16816040518163ffffffff1660e01b8152600401602060405180830381865afa158015612a88573d5f803e3d5ffd5b505050506040513d601f19601f82011682018060405250810190612aac91906159a0565b6001600160a01b031614612ac1578284612ac4565b83835b91509150612ad06136ff565b6001600160a01b031663a9059cbb612ae66145e8565b6103e8612af485600a615a22565b612afe9190615a45565b6040518363ffffffff1660e01b8152600401612b1b929190615a96565b6020604051808303815f875af1158015612b37573d5f803e3d5ffd5b505050506040513d601f19601f82011682018060405250810190612b5b9190615981565b50612b64614415565b6001600160a01b031663095ea7b3612b7a6141e2565b6103e8612b8886600a615a22565b612b929190615a45565b6040518363ffffffff1660e01b8152600401612baf929190615a96565b6020604051808303815f875af1158015612bcb573d5f803e3d5ffd5b505050506040513d601f19601f82011682018060405250810190612bef9190615981565b50612bf86141e2565b6001600160a01b031663a1e15411612c0e614415565b612c166145e8565b6103e8612c2487600a615a22565b612c2e9190615a45565b6040518463ffffffff1660e01b8152600401612c4c93929190615ab8565b6020604051808303815f875af1158015612c68573d5f803e3d5ffd5b505050506040513d601f19601f82011682018060405250810190612c8c919061596a565b50505050505050565b612c9d61539b565b60cd828154811061235d5761235d615897565b60d0602052815f5260405f208181548110612cc9575f80fd5b905f5260205f20015f91509150505481565b5f54610100900460ff1615808015612cf957505f54600160ff909116105b80612d195750612d0830614b53565b158015612d1957505f5460ff166001145b612d7c5760405162461bcd60e51b815260206004820152602e60248201527f496e697469616c697a61626c653a20636f6e747261637420697320616c72656160448201526d191e481a5b9a5d1a585b1a5e995960921b6064820152608401610bf9565b5f805460ff191660011790558015612d9d575f805461ff0019166101001790555b612da5614b62565b60c980546001600160a01b0319166001600160a01b0384161790558015612060575f805461ff0019169055604051600181527f7f26b83ff96e1f2b6a682f133852f6798a09c465da95921460cefb38474024989060200160405180910390a15050565b612e376040518060a001604052805f81526020015f81526020015f81526020015f81526020015f151581525090565b6001600160a01b0382165f90815260d06020908152604080832080548251818502810185019093528083529192909190830182828015612e9457602002820191905f5260205f20905b815481526020019060010190808311612e80575b505050505090505f80612ea561445c565b905060015f5b8451811015613062575f60cb868381518110612ec957612ec9615897565b602002602001015181548110612ee157612ee1615897565b5f91825260209182902060408051608081018252600493840290920180546001600160a01b039081168452600182015484870152600282015484840152600390910154606084015260c95482516305a19d0960e11b815292519396501693630b433a12938281019391928290030181865afa158015612f62573d5f803e3d5ffd5b505050506040513d601f19601f82011682018060405250810190612f86919061596a565b6060820151612f9590426158d2565b11612f9e575f92505b5f612fa7614a97565b8260400151612fb691906158bf565b4210612fd857612fc4614a97565b8260400151612fd391906158bf565b612fda565b425b905081606001518111612fee575050613052565b84620151806064846020015161300491906158e5565b61300e91906158e5565b606084015161301d90846158d2565b61302791906159bb565b61303191906158e5565b61304390670de0b6b3a76400006159bb565b61304d90876158bf565b955050505b61305b81615a0a565b9050612eab565b506040518060a0016040528060028561307b91906158e5565b815260200161308b6002866158e5565b81526001600160a01b039097165f81815260d36020818152604080842054828d01819052949093525288015290151560609096019590955250929392505050565b60da8181548110610b7e575f80fd5b60cc8181548110610b7e575f80fd5b60605f6130f784846158d2565b6131029060016158bf565b9050806001600160401b0381111561311c5761311c6154c4565b60405190808252806020026020018201604052801561317d57816020015b61316a60405180608001604052805f6001600160a01b031681526020015f81526020015f81526020015f81525090565b81526020019060019003908161313a5790505b5091505f5b8181101561217f5760cc61319682876158bf565b815481106131a6576131a6615897565b5f91825260209182902060408051608081018252600490930290910180546001600160a01b031683526001810154938301939093526002830154908201526003909101546060820152835184908390811061320357613203615897565b6020026020010181905250808061321990615a0a565b915050613182565b6040805133606081901b6001600160601b03191660208084019190915260348301899052605483018890526074830187905260948084018790528451808503909101815260b4840185528051908201207b0ca2ba3432b932bab69029b4b3b732b21026b2b9b9b0b3b29d05199960211b60d485015260f08085019190915284518085039091018152610110909301909352815191909201205f6132c48285614b90565b9050806001600160a01b031660c95f9054906101000a90046001600160a01b03166001600160a01b031663570ca7356040518163ffffffff1660e01b8152600401602060405180830381865afa158015613320573d5f803e3d5ffd5b505050506040513d601f19601f8201168201806040525081019061334491906159a0565b6001600160a01b03161461336b5760405163e1a9613360e01b815260040160405180910390fd5b6001600160a01b0383165f90815260d96020908152604080832083805290915280822054600183528183205460028452828420546003855292842054919390929190848d11156133f1576133bf858e6158d2565b6133c990826158bf565b6001600160a01b0389165f90815260d96020908152604080832083805290915290208e905590505b838c111561343657613403848d6158d2565b61340d90826158bf565b6001600160a01b0389165f90815260d9602090815260408083206001845290915290208d905590505b828b111561347b57613448838c6158d2565b61345290826158bf565b6001600160a01b0389165f90815260d9602090815260408083206002845290915290208c905590505b818a11156134c05761348d828b6158d2565b61349790826158bf565b6001600160a01b0389165f90815260d9602090815260408083206003845290915290208b905590505b80156135bd57604080516080810190915233815260cc90602081016134e66002856158e5565b81526001602080830182905242604093840152845480830186555f95865294819020845160049096020180546001600160a01b0319166001600160a01b039096169590951785558301519084015581015160028301556060015160039091015561354e6136ff565b6001600160a01b031663a9059cbb89836040518363ffffffff1660e01b815260040161357b9291906159d2565b6020604051808303815f875af1158015613597573d5f803e3d5ffd5b505050506040513d601f19601f820116820180604052508101906135bb9190615981565b505b50505050505050505050505050565b6001600160a01b0381165f90815260d0602090815260408083208054825181850281018501909352808352849383018282801561362657602002820191905f5260205f20905b815481526020019060010190808311613612575b505050505090505f5b81518110156136f8575f60cb83838151811061364d5761364d615897565b60200260200101518154811061366557613665615897565b5f91825260209182902060408051608081018252600490930290910180546001600160a01b0316835260018101549383019390935260028301549082015260039091015460608201529050426136b9614a97565b82604001516136c891906158bf565b116136d357506136e6565b60208101516136e290856158bf565b9350505b806136f081615a0a565b91505061362f565b5050919050565b60c95460408051635bff978760e01b815290515f926001600160a01b031691635bff97879160048083019260209291908290030181865afa158015613746573d5f803e3d5ffd5b505050506040513d601f19601f820116820180604052508101906123c891906159a0565b5f805f8061377742614bb4565b5050935093509350935060088161378e91906158bf565b905060188111156137b4576137a46001836158bf565b91506137b16018826158d2565b90505b60088110156137c35750505050565b5f6137cd85614c26565b6137d685614c26565b6137df85614c26565b6040516020016137f193929190615b06565b604051602081830303815290604052905060d2816040516138129190615b48565b9081526040519081900360200190205460ff1615613831575050505050565b600160d2826040516138439190615b48565b908152604051908190036020019020805491151560ff199092169190911790555f8061386d6141e2565b6001600160a01b0316630902f1ac6040518163ffffffff1660e01b8152600401606060405180830381865afa1580156138a8573d5f803e3d5ffd5b505050506040513d601f19601f820116820180604052508101906138cc9190615824565b50915091506138d96141e2565b6001600160a01b031663e840427d6103e86138f585600a615a22565b6138ff9190615a45565b6103e861390d85600a615a22565b6139179190615a45565b306040518463ffffffff1660e01b815260040161393693929190615a6a565b5f604051808303815f87803b15801561394d575f80fd5b505af115801561395f573d5f803e3d5ffd5b505050505f8061396d614415565b6001600160a01b031661397e6141e2565b6001600160a01b0316630dfe16816040518163ffffffff1660e01b8152600401602060405180830381865afa1580156139b9573d5f803e3d5ffd5b505050506040513d601f19601f820116820180604052508101906139dd91906159a0565b6001600160a01b0316146139f25782846139f5565b83835b91509150613a016136ff565b6001600160a01b031663a9059cbb613a176145e8565b6103e8613a2585600a615a22565b613a2f9190615a45565b6040518363ffffffff1660e01b8152600401613a4c929190615a96565b6020604051808303815f875af1158015613a68573d5f803e3d5ffd5b505050506040513d601f19601f82011682018060405250810190613a8c9190615981565b50613a95614415565b6001600160a01b031663095ea7b3613aab6141e2565b60026103e8613abb87600a615a22565b613ac59190615a45565b613acf9190615a45565b6040518363ffffffff1660e01b8152600401613aec929190615a96565b6020604051808303815f875af1158015613b08573d5f803e3d5ffd5b505050506040513d601f19601f82011682018060405250810190613b2c9190615981565b505f613b366141e2565b6001600160a01b031663a1e15411613b4c614415565b3060026103e8613b5d89600a615a22565b613b679190615a45565b613b719190615a45565b6040518463ffffffff1660e01b8152600401613b8f93929190615ab8565b6020604051808303815f875af1158015613bab573d5f803e3d5ffd5b505050506040513d601f19601f82011682018060405250810190613bcf919061596a565b9050613bd96136ff565b6001600160a01b031663a9059cbb613bef6141e2565b836040518363ffffffff1660e01b8152600401613c0d9291906159d2565b6020604051808303815f875af1158015613c29573d5f803e3d5ffd5b505050506040513d601f19601f82011682018060405250810190613c4d9190615981565b50613c56614415565b6001600160a01b031663a9059cbb613c6c6141e2565b60026103e8613c7c88600a615a22565b613c869190615a45565b613c909190615a45565b6040518363ffffffff1660e01b8152600401613cad929190615a96565b6020604051808303815f875af1158015613cc9573d5f803e3d5ffd5b505050506040513d601f19601f82011682018060405250810190613ced9190615981565b50613cf66141e2565b6001600160a01b0316636a62784260016040518263ffffffff1660e01b8152600401613d22919061567c565b6020604051808303815f875af1158015613d3e573d5f803e3d5ffd5b505050506040513d601f19601f82011682018060405250810190613d62919061596a565b5050505050505050505050565b60605f613d7c84846158d2565b613d879060016158bf565b9050806001600160401b03811115613da157613da16154c4565b604051908082528060200260200182016040528015613e0257816020015b613def60405180608001604052805f6001600160a01b031681526020015f81526020015f81526020015f81525090565b815260200190600190039081613dbf5790505b5091505f5b8181101561217f5760cb613e1b82876158bf565b81548110613e2b57613e2b615897565b5f91825260209182902060408051608081018252600490930290910180546001600160a01b0316835260018101549383019390935260028301549082015260039091015460608201528351849083908110613e8857613e88615897565b60200260200101819052508080613e9e90615a0a565b915050613e07565b60cb8181548110610b7e575f80fd5b613ebd614229565b6001600160a01b038116613f225760405162461bcd60e51b815260206004820152602660248201527f4f776e61626c653a206e6577206f776e657220697320746865207a65726f206160448201526564647265737360d01b6064820152608401610bf9565b610c7e81614b02565b6001600160a01b0381165f90815260d060209081526040808320805482518185028101850190935280835260609493830182828015613f8757602002820191905f5260205f20905b815481526020019060010190808311613f73575b5050505050905080516001600160401b03811115613fa757613fa76154c4565b604051908082528060200260200182016040528015613fff57816020015b613fec60405180608001604052805f81526020015f81526020015f81526020015f81525090565b815260200190600190039081613fc55790505b5091505f5b81518110156136f8575f60cb83838151811061402257614022615897565b60200260200101518154811061403a5761403a615897565b5f918252602080832060408051608081018252600494850290920180546001600160a01b039081168452600182015484860152600282015484840152600390910154606084015260c95482516316c4297760e11b815292519397504295911693632d8852ee9383830193919290918290030181865afa1580156140bf573d5f803e3d5ffd5b505050506040513d601f19601f820116820180604052508101906140e3919061596a565b83604001516140f291906158bf565b116140fd575f614181565b60c954604080516316c4297760e11b8152905142926001600160a01b031691632d8852ee9160048083019260209291908290030181865afa158015614144573d5f803e3d5ffd5b505050506040513d601f19601f82011682018060405250810190614168919061596a565b836040015161417791906158bf565b61418191906158d2565b90506040518060800160405280836020015181526020018360400151815260200182815260200183606001518152508584815181106141c2576141c2615897565b6020026020010181905250505080806141da90615a0a565b915050614004565b60c95460408051635250c9b560e01b815290515f926001600160a01b031691635250c9b59160048083019260209291908290030181865afa158015613746573d5f803e3d5ffd5b336142326123cd565b6001600160a01b0316146123bd5760405162461bcd60e51b815260206004820181905260248201527f4f776e61626c653a2063616c6c6572206973206e6f7420746865206f776e65726044820152606401610bf9565b5f80516020615d15833981519152546001600160a01b031690565b610c7e614229565b7f4910fdfa16fed3260ed0e7147f7cc6da11a60208b5b9406d12a635614ffd91435460ff16156142de57611fa683614cb5565b826001600160a01b03166352d1902d6040518163ffffffff1660e01b8152600401602060405180830381865afa925050508015614338575060408051601f3d908101601f191682019092526143359181019061596a565b60015b61439b5760405162461bcd60e51b815260206004820152602e60248201527f45524331393637557067726164653a206e657720696d706c656d656e7461746960448201526d6f6e206973206e6f74205555505360901b6064820152608401610bf9565b5f80516020615d1583398151915281146144095760405162461bcd60e51b815260206004820152602960248201527f45524331393637557067726164653a20756e737570706f727465642070726f786044820152681a58589b195555525160ba1b6064820152608401610bf9565b50611fa6838383614d4e565b60c95460408051632f48ab7d60e01b815290515f926001600160a01b031691632f48ab7d9160048083019260209291908290030181865afa158015613746573d5f803e3d5ffd5b5f805f6144676141e2565b6001600160a01b0316630902f1ac6040518163ffffffff1660e01b8152600401606060405180830381865afa1580156144a2573d5f803e3d5ffd5b505050506040513d601f19601f820116820180604052508101906144c69190615824565b50915091505f806144d5614415565b6001600160a01b03166144e66141e2565b6001600160a01b0316630dfe16816040518163ffffffff1660e01b8152600401602060405180830381865afa158015614521573d5f803e3d5ffd5b505050506040513d601f19601f8201168201806040525081019061454591906159a0565b6001600160a01b03161461455a57828461455d565b83835b915091506145696141e2565b6001600160a01b031663054d50d4670de0b6b3a764000083856040518463ffffffff1660e01b81526004016145a0939291906159eb565b602060405180830381865afa1580156145bb573d5f803e3d5ffd5b505050506040513d601f19601f820116820180604052508101906145df919061596a565b94505050505090565b60c9546040805163602e662360e01b815290515f926001600160a01b03169163602e66239160048083019260209291908290030181865afa158015613746573d5f803e3d5ffd5b5f60d65411801561464e575061025860d6544261464c91906158d2565b115b156147f7575f6103e860d454606461466691906159bb565b61467091906158e5565b90508060d45f82825461468391906158d2565b909155505080156147f557614696614415565b6001600160a01b031663a9059cbb60cb600260cb805490506146b891906158d2565b815481106146c8576146c8615897565b5f9182526020909120600491820201546040516001600160e01b031960e085901b168152614704926001600160a01b03909216918691016159d2565b6020604051808303815f875af1158015614720573d5f803e3d5ffd5b505050506040513d601f19601f820116820180604052508101906147449190615981565b5060cd604051806080016040528060cb600260cb8054905061476691906158d2565b8154811061477657614776615897565b5f9182526020808320600492830201546001600160a01b0390811685528482018890524360408087019190915242606096870152875460018082018a559886529483902087519590940290930180546001600160a01b031916949091169390931783558401519482019490945592820151600284015501516003909101555b505b4260d655565b60cb5460010361480957565b5f60cb60d7548154811061481f5761481f615897565b5f91825260209182902060408051608081018252600490930290910180546001600160a01b03168352600181015493830193909352600283015490820181905260039092015460608201529150620151809061487b90426158d2565b11801561489757506201518060d8544261489591906158d2565b115b15614a47575f6103e860d5546101f46148b091906159bb565b6148ba91906158e5565b90508060d55f8282546148cd91906158d2565b90915550508015614a41576148e0614415565b825160405163a9059cbb60e01b81526001600160a01b03929092169163a9059cbb916149109185906004016159d2565b6020604051808303815f875af115801561492c573d5f803e3d5ffd5b505050506040513d601f19601f820116820180604052508101906149509190615981565b506040805160808101825283516001600160a01b0390811682526020820184815243938301938452426060840190815260ce80546001810182555f9190915293517fd36cd1c74ef8d7326d8021b776c18fb5a5724b7f7bc93c2f42e43e10ef27d12a600490950294850180546001600160a01b0319169190941617909255517fd36cd1c74ef8d7326d8021b776c18fb5a5724b7f7bc93c2f42e43e10ef27d12b83015591517fd36cd1c74ef8d7326d8021b776c18fb5a5724b7f7bc93c2f42e43e10ef27d12c82015590517fd36cd1c74ef8d7326d8021b776c18fb5a5724b7f7bc93c2f42e43e10ef27d12d909101555b504260d8555b602081015160cb8054614a5c906001906158d2565b81548110614a6c57614a6c615897565b905f5260205f209060040201600101541115610c7e5760cb54614a91906001906158d2565b60d75550565b60c954604080516316c4297760e11b815290515f926001600160a01b031691632d8852ee9160048083019260209291908290030181865afa158015614ade573d5f803e3d5ffd5b505050506040513d601f19601f820116820180604052508101906123c8919061596a565b603380546001600160a01b038381166001600160a01b0319831681179093556040519116919082907f8be0079c531659141344cd1fd0a4f28419497f9722a3daafe3b4186f6b6457e0905f90a35050565b6001600160a01b03163b151590565b5f54610100900460ff16614b885760405162461bcd60e51b8152600401610bf990615b63565b6123bd614d78565b5f805f614b9d8585614da7565b91509150614baa81614de9565b5090505b92915050565b5f8080808080614bcf614bca62015180896158e5565b614f2d565b919750955093505f614be46201518089615884565b9050614bf2610e10826158e5565b9350614c00610e1082615884565b9050614c0d603c826158e5565b9250614c1a603c82615884565b91505091939550919395565b60605f614c328361509c565b60010190505f816001600160401b03811115614c5057614c506154c4565b6040519080825280601f01601f191660200182016040528015614c7a576020820181803683370190505b5090508181016020015b5f19016f181899199a1a9b1b9c1cb0b131b232b360811b600a86061a8153600a8504945084614c8457509392505050565b614cbe81614b53565b614d205760405162461bcd60e51b815260206004820152602d60248201527f455243313936373a206e657720696d706c656d656e746174696f6e206973206e60448201526c1bdd08184818dbdb9d1c9858dd609a1b6064820152608401610bf9565b5f80516020615d1583398151915280546001600160a01b0319166001600160a01b0392909216919091179055565b614d5783615171565b5f82511180614d635750805b15611fa657614d7283836151b0565b50505050565b5f54610100900460ff16614d9e5760405162461bcd60e51b8152600401610bf990615b63565b6123bd33614b02565b5f808251604103614ddb576020830151604084015160608501515f1a614dcf8782858561529e565b94509450505050614de2565b505f905060025b9250929050565b5f816004811115614dfc57614dfc615bae565b03614e045750565b6001816004811115614e1857614e18615bae565b03614e605760405162461bcd60e51b815260206004820152601860248201527745434453413a20696e76616c6964207369676e617475726560401b6044820152606401610bf9565b6002816004811115614e7457614e74615bae565b03614ec15760405162461bcd60e51b815260206004820152601f60248201527f45434453413a20696e76616c6964207369676e6174757265206c656e677468006044820152606401610bf9565b6003816004811115614ed557614ed5615bae565b03610c7e5760405162461bcd60e51b815260206004820152602260248201527f45434453413a20696e76616c6964207369676e6174757265202773272076616c604482015261756560f01b6064820152608401610bf9565b5f8080838162253d8c614f438362010bd9615bc2565b614f4d9190615bc2565b90505f62023ab1614f5f836004615be1565b614f699190615c10565b90506004614f7a8262023ab1615be1565b614f85906003615bc2565b614f8f9190615c10565b614f999083615c3c565b91505f62164b09614fab846001615bc2565b614fb790610fa0615be1565b614fc19190615c10565b90506004614fd1826105b5615be1565b614fdb9190615c10565b614fe59084615c3c565b614ff090601f615bc2565b92505f61098f615001856050615be1565b61500b9190615c10565b90505f605061501c8361098f615be1565b6150269190615c10565b6150309086615c3c565b905061503d600b83615c10565b945061504a85600c615be1565b615055836002615bc2565b61505f9190615c3c565b9150848361506e603187615c3c565b615079906064615be1565b6150839190615bc2565b61508d9190615bc2565b9a919950975095505050505050565b5f8072184f03e93ff9f4daa797ed6e38ed64bf6a1f0160401b83106150da5772184f03e93ff9f4daa797ed6e38ed64bf6a1f0160401b830492506040015b6904ee2d6d415b85acef8160201b8310615104576904ee2d6d415b85acef8160201b830492506020015b662386f26fc10000831061512257662386f26fc10000830492506010015b6305f5e100831061513a576305f5e100830492506008015b612710831061514e57612710830492506004015b60648310615160576064830492506002015b600a8310614bae5760010192915050565b61517a81614cb5565b6040516001600160a01b038216907fbc7cd75a20ee27fd9adebab32041f755214dbc6bffa90cc0225b39da2e5c2d3b905f90a250565b60606151bb83614b53565b6152165760405162461bcd60e51b815260206004820152602660248201527f416464726573733a2064656c65676174652063616c6c20746f206e6f6e2d636f6044820152651b9d1c9858dd60d21b6064820152608401610bf9565b5f80846001600160a01b0316846040516152309190615b48565b5f60405180830381855af49150503d805f8114615268576040519150601f19603f3d011682016040523d82523d5f602084013e61526d565b606091505b50915091506152958282604051806060016040528060278152602001615d3560279139615351565b95945050505050565b5f806fa2a8918ca85bafe22016d0b997e4df60600160ff1b038311156152c957505f90506003615348565b604080515f8082526020820180845289905260ff881692820192909252606081018690526080810185905260019060a0016020604051602081039080840390855afa15801561531a573d5f803e3d5ffd5b5050604051601f1901519150506001600160a01b038116615342575f60019250925050615348565b91505f90505b94509492505050565b6060831561536057508161536a565b61536a8383615371565b9392505050565b8151156153815781518083602001fd5b8060405162461bcd60e51b8152600401610bf99190615c62565b60405180608001604052805f6001600160a01b031681526020015f81526020015f81526020015f81525090565b6001600160a01b0381168114610c7e575f80fd5b5f602082840312156153ec575f80fd5b813561536a816153c8565b805182526020810151602083015260408101516040830152606081015160608301525050565b60808101614bae82846153f7565b815181526020808301519082015260408083015190820152606080830151908201526080808301516001600160a01b03169082015260a08101614bae565b5f60208284031215615479575f80fd5b5035919050565b6001600160a01b039384168152919092166020820152604081019190915260600190565b5f80604083850312156154b5575f80fd5b50508035926020909101359150565b634e487b7160e01b5f52604160045260245ffd5b5f6001600160401b03808411156154f1576154f16154c4565b604051601f8501601f19908116603f01168101908282118183101715615519576155196154c4565b81604052809350858152868686011115615531575f80fd5b858560208301375f602087830101525050509392505050565b5f82601f830112615559575f80fd5b61536a838335602085016154d8565b5f8060408385031215615579575f80fd5b8235615584816153c8565b915060208301356001600160401b0381111561559e575f80fd5b6155aa8582860161554a565b9150509250929050565b602080825282518282018190525f919060409081850190868401855b8281101561560b57815180516001600160a01b03908116865287820151168786015285015185850152606090930192908501906001016155d0565b5091979650505050505050565b5f8060408385031215615629575f80fd5b8235615634816153c8565b946020939093013593505050565b80516001600160a01b031682526020808201519083015260408082015190830152606090810151910152565b60808101614bae8284615642565b6001600160a01b0391909116815260200190565b602080825282518282018190525f9190848201906040850190845b818110156156d1576156be838551615642565b92840192608092909201916001016156ab565b50909695505050505050565b5f805f805f60a086880312156156f1575f80fd5b8535945060208601359350604086013592506060860135915060808601356001600160401b03811115615722575f80fd5b61572e8882890161554a565b9150509295509295909350565b602080825282518282018190525f9190848201906040850190845b818110156156d157615769838551615642565b9284019260809290920191600101615756565b5f6020828403121561578c575f80fd5b81356001600160401b038111156157a1575f80fd5b8201601f810184136157b1575f80fd5b6157c0848235602084016154d8565b949350505050565b602080825282518282018190525f9190848201906040850190845b818110156156d1576157f68385516153f7565b92840192608092909201916001016157e3565b80516001600160701b038116811461581f575f80fd5b919050565b5f805f60608486031215615836575f80fd5b61583f84615809565b925061584d60208501615809565b9150604084015163ffffffff81168114615865575f80fd5b809150509250925092565b634e487b7160e01b5f52601260045260245ffd5b5f8261589257615892615870565b500690565b634e487b7160e01b5f52603260045260245ffd5b634e487b7160e01b5f52601160045260245ffd5b80820180821115614bae57614bae6158ab565b81810381811115614bae57614bae6158ab565b5f826158f3576158f3615870565b500490565b6020808252602c908201525f80516020615cf583398151915260408201526b19195b1959d85d1958d85b1b60a21b606082015260800190565b6020808252602c908201525f80516020615cf583398151915260408201526b6163746976652070726f787960a01b606082015260800190565b5f6020828403121561597a575f80fd5b5051919050565b5f60208284031215615991575f80fd5b8151801515811461536a575f80fd5b5f602082840312156159b0575f80fd5b815161536a816153c8565b8082028115828204841417614bae57614bae6158ab565b6001600160a01b03929092168252602082015260400190565b9283526001600160701b03918216602084015216604082015260600190565b5f60018201615a1b57615a1b6158ab565b5060010190565b6001600160701b0381811683821602808216919082811461217f5761217f6158ab565b5f6001600160701b0383811680615a5e57615a5e615870565b92169190910492915050565b6001600160701b0393841681529190921660208201526001600160a01b03909116604082015260600190565b6001600160a01b039290921682526001600160701b0316602082015260400190565b6001600160a01b0393841681529190921660208201526001600160701b03909116604082015260600190565b5f5b83811015615afe578181015183820152602001615ae6565b50505f910152565b5f8451615b17818460208901615ae4565b845190830190615b2b818360208901615ae4565b8451910190615b3e818360208801615ae4565b0195945050505050565b5f8251615b59818460208701615ae4565b9190910192915050565b6020808252602b908201527f496e697469616c697a61626c653a20636f6e7472616374206973206e6f74206960408201526a6e697469616c697a696e6760a81b606082015260800190565b634e487b7160e01b5f52602160045260245ffd5b8082018281125f83128015821682158216171561217f5761217f6158ab565b8082025f8212600160ff1b84141615615bfc57615bfc6158ab565b8181058314821517614bae57614bae6158ab565b5f82615c1e57615c1e615870565b600160ff1b82145f1984141615615c3757615c376158ab565b500590565b8181035f831280158383131683831282161715615c5b57615c5b6158ab565b5092915050565b602081525f8251806020840152615c80816040850160208701615ae4565b601f01601f1916919091016040019291505056fea7ce836d032b2bf62b7e2097a8e0a6d8aeb35405ad15271e96d3b0188a1d06fca7ce836d032b2bf62b7e2097a8e0a6d8aeb35405ad15271e96d3b0188a1d06fba7ce836d032b2bf62b7e2097a8e0a6d8aeb35405ad15271e96d3b0188a1d06fd46756e6374696f6e206d7573742062652063616c6c6564207468726f75676820360894a13ba1a3210667c828492db98dca3e2076cc3735a920a3ca505d382bbc416464726573733a206c6f772d6c6576656c2064656c65676174652063616c6c206661696c6564a7ce836d032b2bf62b7e2097a8e0a6d8aeb35405ad15271e96d3b0188a1d06fea2646970667358221220270bd6223afa964fb9d5be8387fd239694686aa04a2e54eb771e81cf640f7e3964736f6c63430008140033",
			"opcodes": "PUSH1 0xA0 PUSH1 0x40 MSTORE ADDRESS PUSH1 0x80 MSTORE CALLVALUE DUP1 ISZERO PUSH2 0x13 JUMPI PUSH0 DUP1 REVERT JUMPDEST POP PUSH1 0x80 MLOAD PUSH2 0x5DB1 PUSH3 0x49 PUSH0 CODECOPY PUSH0 DUP2 DUP2 PUSH2 0xBBB ADD MSTORE DUP2 DUP2 PUSH2 0xC04 ADD MSTORE DUP2 DUP2 PUSH2 0x1FB5 ADD MSTORE DUP2 DUP2 PUSH2 0x1FF5 ADD MSTORE PUSH2 0x2193 ADD MSTORE PUSH2 0x5DB1 PUSH0 RETURN INVALID PUSH1 0x80 PUSH1 0x40 MSTORE PUSH1 0x4 CALLDATASIZE LT PUSH2 0x238 JUMPI PUSH0 CALLDATALOAD PUSH1 0xE0 SHR DUP1 PUSH4 0x4E86903 EQ PUSH2 0x23C JUMPI DUP1 PUSH4 0x902F1AC EQ PUSH2 0x27A JUMPI DUP1 PUSH4 0x1865E4D5 EQ PUSH2 0x2BA JUMPI DUP1 PUSH4 0x210835AE EQ PUSH2 0x2F8 JUMPI DUP1 PUSH4 0x233BE799 EQ PUSH2 0x319 JUMPI DUP1 PUSH4 0x2562C39B EQ PUSH2 0x345 JUMPI DUP1 PUSH4 0x265EB5B8 EQ PUSH2 0x366 JUMPI DUP1 PUSH4 0x2D6D56B0 EQ PUSH2 0x37A JUMPI DUP1 PUSH4 0x3659CFE6 EQ PUSH2 0x3C3 JUMPI DUP1 PUSH4 0x365B98B2 EQ PUSH2 0x3E2 JUMPI DUP1 PUSH4 0x382E227F EQ PUSH2 0x410 JUMPI DUP1 PUSH4 0x3F22297E EQ PUSH2 0x42F JUMPI DUP1 PUSH4 0x42FF7BCD EQ PUSH2 0x44E JUMPI DUP1 PUSH4 0x4469ED13 EQ PUSH2 0x463 JUMPI DUP1 PUSH4 0x45B3E93E EQ PUSH2 0x482 JUMPI DUP1 PUSH4 0x4E71D92D EQ PUSH2 0x496 JUMPI DUP1 PUSH4 0x4F1EF286 EQ PUSH2 0x4AA JUMPI DUP1 PUSH4 0x51AE6B1B EQ PUSH2 0x4BD JUMPI DUP1 PUSH4 0x52D1902D EQ PUSH2 0x4E9 JUMPI DUP1 PUSH4 0x57629F82 EQ PUSH2 0x4FD JUMPI DUP1 PUSH4 0x624343E6 EQ PUSH2 0x51C JUMPI DUP1 PUSH4 0x715018A6 EQ PUSH2 0x548 JUMPI DUP1 PUSH4 0x7456FED6 EQ PUSH2 0x55C JUMPI DUP1 PUSH4 0x7BAB1032 EQ PUSH2 0x570 JUMPI DUP1 PUSH4 0x8DA5CB5B EQ PUSH2 0x584 JUMPI DUP1 PUSH4 0x8E56D48C EQ PUSH2 0x5A5 JUMPI DUP1 PUSH4 0x94B918DE EQ PUSH2 0x5BA JUMPI DUP1 PUSH4 0x9B5F0F22 EQ PUSH2 0x5D9 JUMPI DUP1 PUSH4 0xA3592158 EQ PUSH2 0x5EE JUMPI DUP1 PUSH4 0xA7808F1A EQ PUSH2 0x603 JUMPI DUP1 PUSH4 0xAD7E01BE EQ PUSH2 0x617 JUMPI DUP1 PUSH4 0xBAF189D2 EQ PUSH2 0x62B JUMPI DUP1 PUSH4 0xBF024CFA EQ PUSH2 0x64A JUMPI DUP1 PUSH4 0xC4B6EBDF EQ PUSH2 0x669 JUMPI DUP1 PUSH4 0xC4D66DE8 EQ PUSH2 0x69D JUMPI DUP1 PUSH4 0xC6834BF6 EQ PUSH2 0x6BC JUMPI DUP1 PUSH4 0xC8EE5073 EQ PUSH2 0x71E JUMPI DUP1 PUSH4 0xCB82AB19 EQ PUSH2 0x73D JUMPI DUP1 PUSH4 0xCBBA3DEF EQ PUSH2 0x75C JUMPI DUP1 PUSH4 0xD77F5EE7 EQ PUSH2 0x788 JUMPI DUP1 PUSH4 0xD7DF42D3 EQ PUSH2 0x79D JUMPI DUP1 PUSH4 0xDBA64F8F EQ PUSH2 0x7BC JUMPI DUP1 PUSH4 0xE500845D EQ PUSH2 0x7DB JUMPI DUP1 PUSH4 0xE8BB4C33 EQ PUSH2 0x7FA JUMPI DUP1 PUSH4 0xE91E969C EQ PUSH2 0x80E JUMPI DUP1 PUSH4 0xEED0AB53 EQ PUSH2 0x822 JUMPI DUP1 PUSH4 0xF2782D6D EQ PUSH2 0x84E JUMPI DUP1 PUSH4 0xF2FDE38B EQ PUSH2 0x86D JUMPI DUP1 PUSH4 0xF951D945 EQ PUSH2 0x88C JUMPI DUP1 PUSH4 0xFC76F17C EQ PUSH2 0x8C6 JUMPI JUMPDEST PUSH0 DUP1 REVERT JUMPDEST CALLVALUE DUP1 ISZERO PUSH2 0x247 JUMPI PUSH0 DUP1 REVERT JUMPDEST POP PUSH2 0x267 PUSH2 0x256 CALLDATASIZE PUSH1 0x4 PUSH2 0x53DC JUMP JUMPDEST PUSH1 0xD3 PUSH1 0x20 MSTORE PUSH0 SWAP1 DUP2 MSTORE PUSH1 0x40 SWAP1 KECCAK256 SLOAD DUP2 JUMP JUMPDEST PUSH1 0x40 MLOAD SWAP1 DUP2 MSTORE PUSH1 0x20 ADD JUMPDEST PUSH1 0x40 MLOAD DUP1 SWAP2 SUB SWAP1 RETURN JUMPDEST CALLVALUE DUP1 ISZERO PUSH2 0x285 JUMPI PUSH0 DUP1 REVERT JUMPDEST POP PUSH2 0x28E PUSH2 0x8F2 JUMP JUMPDEST PUSH1 0x40 DUP1 MLOAD PUSH1 0x1 PUSH1 0x1 PUSH1 0x70 SHL SUB SWAP5 DUP6 AND DUP2 MSTORE SWAP4 SWAP1 SWAP3 AND PUSH1 0x20 DUP5 ADD MSTORE PUSH4 0xFFFFFFFF AND SWAP1 DUP3 ADD MSTORE PUSH1 0x60 ADD PUSH2 0x271 JUMP JUMPDEST CALLVALUE DUP1 ISZERO PUSH2 0x2C5 JUMPI PUSH0 DUP1 REVERT JUMPDEST POP PUSH2 0x2E8 PUSH2 0x2D4 CALLDATASIZE PUSH1 0x4 PUSH2 0x53DC JUMP JUMPDEST PUSH1 0xD1 PUSH1 0x20 MSTORE PUSH0 SWAP1 DUP2 MSTORE PUSH1 0x40 SWAP1 KECCAK256 SLOAD PUSH1 0xFF AND DUP2 JUMP JUMPDEST PUSH1 0x40 MLOAD SWAP1 ISZERO ISZERO DUP2 MSTORE PUSH1 0x20 ADD PUSH2 0x271 JUMP JUMPDEST CALLVALUE DUP1 ISZERO PUSH2 0x303 JUMPI PUSH0 DUP1 REVERT JUMPDEST POP PUSH2 0x317 PUSH2 0x312 CALLDATASIZE PUSH1 0x4 PUSH2 0x53DC JUMP JUMPDEST PUSH2 0x977 JUMP JUMPDEST STOP JUMPDEST CALLVALUE DUP1 ISZERO PUSH2 0x324 JUMPI PUSH0 DUP1 REVERT JUMPDEST POP PUSH2 0x338 PUSH2 0x333 CALLDATASIZE PUSH1 0x4 PUSH2 0x53DC JUMP JUMPDEST PUSH2 0x9A1 JUMP JUMPDEST PUSH1 0x40 MLOAD PUSH2 0x271 SWAP2 SWAP1 PUSH2 0x541D JUMP JUMPDEST CALLVALUE DUP1 ISZERO PUSH2 0x350 JUMPI PUSH0 DUP1 REVERT JUMPDEST POP PUSH2 0x359 PUSH2 0xA26 JUMP JUMPDEST PUSH1 0x40 MLOAD PUSH2 0x271 SWAP2 SWAP1 PUSH2 0x542B JUMP JUMPDEST CALLVALUE DUP1 ISZERO PUSH2 0x371 JUMPI PUSH0 DUP1 REVERT JUMPDEST POP PUSH1 0xCB SLOAD PUSH2 0x267 JUMP JUMPDEST CALLVALUE DUP1 ISZERO PUSH2 0x385 JUMPI PUSH0 DUP1 REVERT JUMPDEST POP PUSH2 0x399 PUSH2 0x394 CALLDATASIZE PUSH1 0x4 PUSH2 0x5469 JUMP JUMPDEST PUSH2 0xB6F JUMP JUMPDEST PUSH1 0x40 DUP1 MLOAD PUSH1 0x1 PUSH1 0x1 PUSH1 0xA0 SHL SUB SWAP1 SWAP6 AND DUP6 MSTORE PUSH1 0x20 DUP6 ADD SWAP4 SWAP1 SWAP4 MSTORE SWAP2 DUP4 ADD MSTORE PUSH1 0x60 DUP3 ADD MSTORE PUSH1 0x80 ADD PUSH2 0x271 JUMP JUMPDEST CALLVALUE DUP1 ISZERO PUSH2 0x3CE JUMPI PUSH0 DUP1 REVERT JUMPDEST POP PUSH2 0x317 PUSH2 0x3DD CALLDATASIZE PUSH1 0x4 PUSH2 0x53DC JUMP JUMPDEST PUSH2 0xBB1 JUMP JUMPDEST CALLVALUE DUP1 ISZERO PUSH2 0x3ED JUMPI PUSH0 DUP1 REVERT JUMPDEST POP PUSH2 0x401 PUSH2 0x3FC CALLDATASIZE PUSH1 0x4 PUSH2 0x5469 JUMP JUMPDEST PUSH2 0xC81 JUMP JUMPDEST PUSH1 0x40 MLOAD PUSH2 0x271 SWAP4 SWAP3 SWAP2 SWAP1 PUSH2 0x5480 JUMP JUMPDEST CALLVALUE DUP1 ISZERO PUSH2 0x41B JUMPI PUSH0 DUP1 REVERT JUMPDEST POP PUSH2 0x317 PUSH2 0x42A CALLDATASIZE PUSH1 0x4 PUSH2 0x54A4 JUMP JUMPDEST PUSH2 0xCBF JUMP JUMPDEST CALLVALUE DUP1 ISZERO PUSH2 0x43A JUMPI PUSH0 DUP1 REVERT JUMPDEST POP PUSH2 0x267 PUSH2 0x449 CALLDATASIZE PUSH1 0x4 PUSH2 0x5469 JUMP JUMPDEST PUSH2 0x1912 JUMP JUMPDEST CALLVALUE DUP1 ISZERO PUSH2 0x459 JUMPI PUSH0 DUP1 REVERT JUMPDEST POP PUSH2 0x267 PUSH1 0xD5 SLOAD DUP2 JUMP JUMPDEST CALLVALUE DUP1 ISZERO PUSH2 0x46E JUMPI PUSH0 DUP1 REVERT JUMPDEST POP PUSH2 0x399 PUSH2 0x47D CALLDATASIZE PUSH1 0x4 PUSH2 0x5469 JUMP JUMPDEST PUSH2 0x1A97 JUMP JUMPDEST CALLVALUE DUP1 ISZERO PUSH2 0x48D JUMPI PUSH0 DUP1 REVERT JUMPDEST POP PUSH2 0x359 PUSH2 0x1AA6 JUMP JUMPDEST CALLVALUE DUP1 ISZERO PUSH2 0x4A1 JUMPI PUSH0 DUP1 REVERT JUMPDEST POP PUSH2 0x317 PUSH2 0x1BDD JUMP JUMPDEST PUSH2 0x317 PUSH2 0x4B8 CALLDATASIZE PUSH1 0x4 PUSH2 0x5568 JUMP JUMPDEST PUSH2 0x1FAB JUMP JUMPDEST CALLVALUE DUP1 ISZERO PUSH2 0x4C8 JUMPI PUSH0 DUP1 REVERT JUMPDEST POP PUSH2 0x4DC PUSH2 0x4D7 CALLDATASIZE PUSH1 0x4 PUSH2 0x54A4 JUMP JUMPDEST PUSH2 0x2064 JUMP JUMPDEST PUSH1 0x40 MLOAD PUSH2 0x271 SWAP2 SWAP1 PUSH2 0x55B4 JUMP JUMPDEST CALLVALUE DUP1 ISZERO PUSH2 0x4F4 JUMPI PUSH0 DUP1 REVERT JUMPDEST POP PUSH2 0x267 PUSH2 0x2187 JUMP JUMPDEST CALLVALUE DUP1 ISZERO PUSH2 0x508 JUMPI PUSH0 DUP1 REVERT JUMPDEST POP PUSH2 0x317 PUSH2 0x517 CALLDATASIZE PUSH1 0x4 PUSH2 0x5618 JUMP JUMPDEST PUSH2 0x2233 JUMP JUMPDEST CALLVALUE DUP1 ISZERO PUSH2 0x527 JUMPI PUSH0 DUP1 REVERT JUMPDEST POP PUSH2 0x53B PUSH2 0x536 CALLDATASIZE PUSH1 0x4 PUSH2 0x5469 JUMP JUMPDEST PUSH2 0x2342 JUMP JUMPDEST PUSH1 0x40 MLOAD PUSH2 0x271 SWAP2 SWAP1 PUSH2 0x566E JUMP JUMPDEST CALLVALUE DUP1 ISZERO PUSH2 0x553 JUMPI PUSH0 DUP1 REVERT JUMPDEST POP PUSH2 0x317 PUSH2 0x23AC JUMP JUMPDEST CALLVALUE DUP1 ISZERO PUSH2 0x567 JUMPI PUSH0 DUP1 REVERT JUMPDEST POP PUSH1 0xCA SLOAD PUSH2 0x267 JUMP JUMPDEST CALLVALUE DUP1 ISZERO PUSH2 0x57B JUMPI PUSH0 DUP1 REVERT JUMPDEST POP PUSH2 0x267 PUSH2 0x23BF JUMP JUMPDEST CALLVALUE DUP1 ISZERO PUSH2 0x58F JUMPI PUSH0 DUP1 REVERT JUMPDEST POP PUSH2 0x598 PUSH2 0x23CD JUMP JUMPDEST PUSH1 0x40 MLOAD PUSH2 0x271 SWAP2 SWAP1 PUSH2 0x567C JUMP JUMPDEST CALLVALUE DUP1 ISZERO PUSH2 0x5B0 JUMPI PUSH0 DUP1 REVERT JUMPDEST POP PUSH2 0x267 PUSH1 0xD6 SLOAD DUP2 JUMP JUMPDEST CALLVALUE DUP1 ISZERO PUSH2 0x5C5 JUMPI PUSH0 DUP1 REVERT JUMPDEST POP PUSH2 0x317 PUSH2 0x5D4 CALLDATASIZE PUSH1 0x4 PUSH2 0x5469 JUMP JUMPDEST PUSH2 0x23DC JUMP JUMPDEST CALLVALUE DUP1 ISZERO PUSH2 0x5E4 JUMPI PUSH0 DUP1 REVERT JUMPDEST POP PUSH2 0x267 PUSH1 0xD7 SLOAD DUP2 JUMP JUMPDEST CALLVALUE DUP1 ISZERO PUSH2 0x5F9 JUMPI PUSH0 DUP1 REVERT JUMPDEST POP PUSH2 0x267 PUSH1 0xD8 SLOAD DUP2 JUMP JUMPDEST CALLVALUE DUP1 ISZERO PUSH2 0x60E JUMPI PUSH0 DUP1 REVERT JUMPDEST POP PUSH1 0xCC SLOAD PUSH2 0x267 JUMP JUMPDEST CALLVALUE DUP1 ISZERO PUSH2 0x622 JUMPI PUSH0 DUP1 REVERT JUMPDEST POP PUSH2 0x317 PUSH2 0x280E JUMP JUMPDEST CALLVALUE DUP1 ISZERO PUSH2 0x636 JUMPI PUSH0 DUP1 REVERT JUMPDEST POP PUSH2 0x53B PUSH2 0x645 CALLDATASIZE PUSH1 0x4 PUSH2 0x5469 JUMP JUMPDEST PUSH2 0x2C95 JUMP JUMPDEST CALLVALUE DUP1 ISZERO PUSH2 0x655 JUMPI PUSH0 DUP1 REVERT JUMPDEST POP PUSH2 0x267 PUSH2 0x664 CALLDATASIZE PUSH1 0x4 PUSH2 0x5618 JUMP JUMPDEST PUSH2 0x2CB0 JUMP JUMPDEST CALLVALUE DUP1 ISZERO PUSH2 0x674 JUMPI PUSH0 DUP1 REVERT JUMPDEST POP PUSH2 0x598 PUSH2 0x683 CALLDATASIZE PUSH1 0x4 PUSH2 0x53DC JUMP JUMPDEST PUSH1 0xCF PUSH1 0x20 MSTORE PUSH0 SWAP1 DUP2 MSTORE PUSH1 0x40 SWAP1 KECCAK256 SLOAD PUSH1 0x1 PUSH1 0x1 PUSH1 0xA0 SHL SUB AND DUP2 JUMP JUMPDEST CALLVALUE DUP1 ISZERO PUSH2 0x6A8 JUMPI PUSH0 DUP1 REVERT JUMPDEST POP PUSH2 0x317 PUSH2 0x6B7 CALLDATASIZE PUSH1 0x4 PUSH2 0x53DC JUMP JUMPDEST PUSH2 0x2CDB JUMP JUMPDEST CALLVALUE DUP1 ISZERO PUSH2 0x6C7 JUMPI PUSH0 DUP1 REVERT JUMPDEST POP PUSH2 0x6DB PUSH2 0x6D6 CALLDATASIZE PUSH1 0x4 PUSH2 0x53DC JUMP JUMPDEST PUSH2 0x2E08 JUMP JUMPDEST PUSH1 0x40 MLOAD PUSH2 0x271 SWAP2 SWAP1 PUSH0 PUSH1 0xA0 DUP3 ADD SWAP1 POP DUP3 MLOAD DUP3 MSTORE PUSH1 0x20 DUP4 ADD MLOAD PUSH1 0x20 DUP4 ADD MSTORE PUSH1 0x40 DUP4 ADD MLOAD PUSH1 0x40 DUP4 ADD MSTORE PUSH1 0x60 DUP4 ADD MLOAD PUSH1 0x60 DUP4 ADD MSTORE PUSH1 0x80 DUP4 ADD MLOAD ISZERO ISZERO PUSH1 0x80 DUP4 ADD MSTORE SWAP3 SWAP2 POP POP JUMP JUMPDEST CALLVALUE DUP1 ISZERO PUSH2 0x729 JUMPI PUSH0 DUP1 REVERT JUMPDEST POP PUSH2 0x399 PUSH2 0x738 CALLDATASIZE PUSH1 0x4 PUSH2 0x5469 JUMP JUMPDEST PUSH2 0x30CC JUMP JUMPDEST CALLVALUE DUP1 ISZERO PUSH2 0x748 JUMPI PUSH0 DUP1 REVERT JUMPDEST POP PUSH2 0x399 PUSH2 0x757 CALLDATASIZE PUSH1 0x4 PUSH2 0x5469 JUMP JUMPDEST PUSH2 0x30DB JUMP JUMPDEST CALLVALUE DUP1 ISZERO PUSH2 0x767 JUMPI PUSH0 DUP1 REVERT JUMPDEST POP PUSH2 0x77B PUSH2 0x776 CALLDATASIZE PUSH1 0x4 PUSH2 0x54A4 JUMP JUMPDEST PUSH2 0x30EA JUMP JUMPDEST PUSH1 0x40 MLOAD PUSH2 0x271 SWAP2 SWAP1 PUSH2 0x5690 JUMP JUMPDEST CALLVALUE DUP1 ISZERO PUSH2 0x793 JUMPI PUSH0 DUP1 REVERT JUMPDEST POP PUSH2 0x267 PUSH1 0xD4 SLOAD DUP2 JUMP JUMPDEST CALLVALUE DUP1 ISZERO PUSH2 0x7A8 JUMPI PUSH0 DUP1 REVERT JUMPDEST POP PUSH2 0x317 PUSH2 0x7B7 CALLDATASIZE PUSH1 0x4 PUSH2 0x56DD JUMP JUMPDEST PUSH2 0x3221 JUMP JUMPDEST CALLVALUE DUP1 ISZERO PUSH2 0x7C7 JUMPI PUSH0 DUP1 REVERT JUMPDEST POP PUSH1 0xC9 SLOAD PUSH2 0x598 SWAP1 PUSH1 0x1 PUSH1 0x1 PUSH1 0xA0 SHL SUB AND DUP2 JUMP JUMPDEST CALLVALUE DUP1 ISZERO PUSH2 0x7E6 JUMPI PUSH0 DUP1 REVERT JUMPDEST POP PUSH2 0x267 PUSH2 0x7F5 CALLDATASIZE PUSH1 0x4 PUSH2 0x53DC JUMP JUMPDEST PUSH2 0x35CC JUMP JUMPDEST CALLVALUE DUP1 ISZERO PUSH2 0x805 JUMPI PUSH0 DUP1 REVERT JUMPDEST POP PUSH2 0x598 PUSH2 0x36FF JUMP JUMPDEST CALLVALUE DUP1 ISZERO PUSH2 0x819 JUMPI PUSH0 DUP1 REVERT JUMPDEST POP PUSH2 0x317 PUSH2 0x376A JUMP JUMPDEST CALLVALUE DUP1 ISZERO PUSH2 0x82D JUMPI PUSH0 DUP1 REVERT JUMPDEST POP PUSH2 0x841 PUSH2 0x83C CALLDATASIZE PUSH1 0x4 PUSH2 0x54A4 JUMP JUMPDEST PUSH2 0x3D6F JUMP JUMPDEST PUSH1 0x40 MLOAD PUSH2 0x271 SWAP2 SWAP1 PUSH2 0x573B JUMP JUMPDEST CALLVALUE DUP1 ISZERO PUSH2 0x859 JUMPI PUSH0 DUP1 REVERT JUMPDEST POP PUSH2 0x399 PUSH2 0x868 CALLDATASIZE PUSH1 0x4 PUSH2 0x5469 JUMP JUMPDEST PUSH2 0x3EA6 JUMP JUMPDEST CALLVALUE DUP1 ISZERO PUSH2 0x878 JUMPI PUSH0 DUP1 REVERT JUMPDEST POP PUSH2 0x317 PUSH2 0x887 CALLDATASIZE PUSH1 0x4 PUSH2 0x53DC JUMP JUMPDEST PUSH2 0x3EB5 JUMP JUMPDEST CALLVALUE DUP1 ISZERO PUSH2 0x897 JUMPI PUSH0 DUP1 REVERT JUMPDEST POP PUSH2 0x2E8 PUSH2 0x8A6 CALLDATASIZE PUSH1 0x4 PUSH2 0x577C JUMP JUMPDEST DUP1 MLOAD PUSH1 0x20 DUP2 DUP4 ADD DUP2 ADD DUP1 MLOAD PUSH1 0xD2 DUP3 MSTORE SWAP3 DUP3 ADD SWAP2 SWAP1 SWAP4 ADD KECCAK256 SWAP2 MSTORE SLOAD PUSH1 0xFF AND DUP2 JUMP JUMPDEST CALLVALUE DUP1 ISZERO PUSH2 0x8D1 JUMPI PUSH0 DUP1 REVERT JUMPDEST POP PUSH2 0x8E5 PUSH2 0x8E0 CALLDATASIZE PUSH1 0x4 PUSH2 0x53DC JUMP JUMPDEST PUSH2 0x3F2B JUMP JUMPDEST PUSH1 0x40 MLOAD PUSH2 0x271 SWAP2 SWAP1 PUSH2 0x57C8 JUMP JUMPDEST PUSH0 DUP1 PUSH0 PUSH2 0x8FD PUSH2 0x41E2 JUMP JUMPDEST PUSH1 0x1 PUSH1 0x1 PUSH1 0xA0 SHL SUB AND PUSH4 0x902F1AC PUSH1 0x40 MLOAD DUP2 PUSH4 0xFFFFFFFF AND PUSH1 0xE0 SHL DUP2 MSTORE PUSH1 0x4 ADD PUSH1 0x60 PUSH1 0x40 MLOAD DUP1 DUP4 SUB DUP2 DUP7 GAS STATICCALL ISZERO DUP1 ISZERO PUSH2 0x938 JUMPI RETURNDATASIZE PUSH0 DUP1 RETURNDATACOPY RETURNDATASIZE PUSH0 REVERT JUMPDEST POP POP POP POP PUSH1 0x40 MLOAD RETURNDATASIZE PUSH1 0x1F NOT PUSH1 0x1F DUP3 ADD AND DUP3 ADD DUP1 PUSH1 0x40 MSTORE POP DUP2 ADD SWAP1 PUSH2 0x95C SWAP2 SWAP1 PUSH2 0x5824 JUMP JUMPDEST POP SWAP1 SWAP4 POP SWAP2 POP PUSH2 0x970 PUSH1 0x1 PUSH1 0x20 SHL TIMESTAMP PUSH2 0x5884 JUMP JUMPDEST SWAP1 POP SWAP1 SWAP2 SWAP3 JUMP JUMPDEST PUSH2 0x97F PUSH2 0x4229 JUMP JUMPDEST PUSH1 0xC9 DUP1 SLOAD PUSH1 0x1 PUSH1 0x1 PUSH1 0xA0 SHL SUB NOT AND PUSH1 0x1 PUSH1 0x1 PUSH1 0xA0 SHL SUB SWAP3 SWAP1 SWAP3 AND SWAP2 SWAP1 SWAP2 OR SWAP1 SSTORE JUMP JUMPDEST PUSH2 0x9C8 PUSH1 0x40 MLOAD DUP1 PUSH1 0x80 ADD PUSH1 0x40 MSTORE DUP1 PUSH0 DUP2 MSTORE PUSH1 0x20 ADD PUSH0 DUP2 MSTORE PUSH1 0x20 ADD PUSH0 DUP2 MSTORE PUSH1 0x20 ADD PUSH0 DUP2 MSTORE POP SWAP1 JUMP JUMPDEST POP PUSH1 0x40 DUP1 MLOAD PUSH1 0x80 DUP2 ADD DUP3 MSTORE PUSH1 0x1 PUSH1 0x1 PUSH1 0xA0 SHL SUB SWAP1 SWAP3 AND PUSH0 SWAP1 DUP2 MSTORE PUSH1 0xD9 PUSH1 0x20 SWAP1 DUP2 MSTORE DUP3 DUP3 KECCAK256 DUP3 DUP1 MSTORE DUP1 DUP3 MSTORE DUP4 DUP4 KECCAK256 SLOAD DUP6 MSTORE PUSH1 0x1 DUP4 MSTORE DUP1 DUP3 MSTORE DUP4 DUP4 KECCAK256 SLOAD DUP3 DUP7 ADD MSTORE PUSH1 0x2 DUP4 MSTORE DUP1 DUP3 MSTORE DUP4 DUP4 KECCAK256 SLOAD DUP6 DUP6 ADD MSTORE PUSH1 0x3 DUP4 MSTORE SWAP1 MSTORE KECCAK256 SLOAD PUSH1 0x60 DUP3 ADD MSTORE SWAP1 JUMP JUMPDEST PUSH2 0xA5C PUSH1 0x40 MLOAD DUP1 PUSH1 0xA0 ADD PUSH1 0x40 MSTORE DUP1 PUSH0 DUP2 MSTORE PUSH1 0x20 ADD PUSH0 DUP2 MSTORE PUSH1 0x20 ADD PUSH0 DUP2 MSTORE PUSH1 0x20 ADD PUSH0 DUP2 MSTORE PUSH1 0x20 ADD PUSH0 PUSH1 0x1 PUSH1 0x1 PUSH1 0xA0 SHL SUB AND DUP2 MSTORE POP SWAP1 JUMP JUMPDEST PUSH0 PUSH1 0xCB PUSH1 0xD7 SLOAD DUP2 SLOAD DUP2 LT PUSH2 0xA72 JUMPI PUSH2 0xA72 PUSH2 0x5897 JUMP JUMPDEST SWAP1 PUSH0 MSTORE PUSH1 0x20 PUSH0 KECCAK256 SWAP1 PUSH1 0x4 MUL ADD PUSH1 0x2 ADD SLOAD PUSH1 0xD8 SLOAD LT ISZERO PUSH2 0xAB5 JUMPI PUSH1 0xCB PUSH1 0xD7 SLOAD DUP2 SLOAD DUP2 LT PUSH2 0xAA0 JUMPI PUSH2 0xAA0 PUSH2 0x5897 JUMP JUMPDEST SWAP1 PUSH0 MSTORE PUSH1 0x20 PUSH0 KECCAK256 SWAP1 PUSH1 0x4 MUL ADD PUSH1 0x2 ADD SLOAD PUSH2 0xAB9 JUMP JUMPDEST PUSH1 0xD8 SLOAD JUMPDEST SWAP1 POP PUSH2 0xAC8 PUSH3 0x15180 DUP3 PUSH2 0x58BF JUMP JUMPDEST SWAP1 POP PUSH1 0x40 MLOAD DUP1 PUSH1 0xA0 ADD PUSH1 0x40 MSTORE DUP1 DUP3 TIMESTAMP LT ISZERO PUSH2 0xAEC JUMPI PUSH2 0xAE7 TIMESTAMP DUP5 PUSH2 0x58D2 JUMP JUMPDEST PUSH2 0xAEE JUMP JUMPDEST PUSH0 JUMPDEST DUP2 MSTORE PUSH1 0x20 ADD PUSH1 0xD5 SLOAD DUP2 MSTORE PUSH1 0x20 ADD PUSH1 0x2 PUSH1 0xD5 SLOAD PUSH2 0xB0A SWAP2 SWAP1 PUSH2 0x58E5 JUMP JUMPDEST DUP2 MSTORE PUSH1 0x20 ADD PUSH1 0xCB PUSH1 0xD7 SLOAD DUP2 SLOAD DUP2 LT PUSH2 0xB24 JUMPI PUSH2 0xB24 PUSH2 0x5897 JUMP JUMPDEST SWAP1 PUSH0 MSTORE PUSH1 0x20 PUSH0 KECCAK256 SWAP1 PUSH1 0x4 MUL ADD PUSH1 0x1 ADD SLOAD DUP2 MSTORE PUSH1 0x20 ADD PUSH1 0xCB PUSH1 0xD7 SLOAD DUP2 SLOAD DUP2 LT PUSH2 0xB4E JUMPI PUSH2 0xB4E PUSH2 0x5897 JUMP JUMPDEST PUSH0 SWAP2 DUP3 MSTORE PUSH1 0x20 SWAP1 SWAP2 KECCAK256 PUSH1 0x4 SWAP1 SWAP2 MUL ADD SLOAD PUSH1 0x1 PUSH1 0x1 PUSH1 0xA0 SHL SUB AND SWAP1 MSTORE SWAP3 SWAP2 POP POP JUMP JUMPDEST PUSH1 0xCD DUP2 DUP2 SLOAD DUP2 LT PUSH2 0xB7E JUMPI PUSH0 DUP1 REVERT JUMPDEST PUSH0 SWAP2 DUP3 MSTORE PUSH1 0x20 SWAP1 SWAP2 KECCAK256 PUSH1 0x4 SWAP1 SWAP2 MUL ADD DUP1 SLOAD PUSH1 0x1 DUP3 ADD SLOAD PUSH1 0x2 DUP4 ADD SLOAD PUSH1 0x3 SWAP1 SWAP4 ADD SLOAD PUSH1 0x1 PUSH1 0x1 PUSH1 0xA0 SHL SUB SWAP1 SWAP3 AND SWAP4 POP SWAP2 SWAP1 DUP5 JUMP JUMPDEST PUSH1 0x1 PUSH1 0x1 PUSH1 0xA0 SHL SUB PUSH32 0x0 AND ADDRESS SUB PUSH2 0xC02 JUMPI PUSH1 0x40 MLOAD PUSH3 0x461BCD PUSH1 0xE5 SHL DUP2 MSTORE PUSH1 0x4 ADD PUSH2 0xBF9 SWAP1 PUSH2 0x58F8 JUMP JUMPDEST PUSH1 0x40 MLOAD DUP1 SWAP2 SUB SWAP1 REVERT JUMPDEST PUSH32 0x0 PUSH1 0x1 PUSH1 0x1 PUSH1 0xA0 SHL SUB AND PUSH2 0xC34 PUSH2 0x4288 JUMP JUMPDEST PUSH1 0x1 PUSH1 0x1 PUSH1 0xA0 SHL SUB AND EQ PUSH2 0xC5A JUMPI PUSH1 0x40 MLOAD PUSH3 0x461BCD PUSH1 0xE5 SHL DUP2 MSTORE PUSH1 0x4 ADD PUSH2 0xBF9 SWAP1 PUSH2 0x5931 JUMP JUMPDEST PUSH2 0xC63 DUP2 PUSH2 0x42A3 JUMP JUMPDEST PUSH1 0x40 DUP1 MLOAD PUSH0 DUP1 DUP3 MSTORE PUSH1 0x20 DUP3 ADD SWAP1 SWAP3 MSTORE PUSH2 0xC7E SWAP2 DUP4 SWAP2 SWAP1 PUSH2 0x42AB JUMP JUMPDEST POP JUMP JUMPDEST PUSH1 0xCA DUP2 DUP2 SLOAD DUP2 LT PUSH2 0xC90 JUMPI PUSH0 DUP1 REVERT JUMPDEST PUSH0 SWAP2 DUP3 MSTORE PUSH1 0x20 SWAP1 SWAP2 KECCAK256 PUSH1 0x3 SWAP1 SWAP2 MUL ADD DUP1 SLOAD PUSH1 0x1 DUP3 ADD SLOAD PUSH1 0x2 SWAP1 SWAP3 ADD SLOAD PUSH1 0x1 PUSH1 0x1 PUSH1 0xA0 SHL SUB SWAP2 DUP3 AND SWAP4 POP SWAP2 AND SWAP1 DUP4 JUMP JUMPDEST PUSH1 0xC9 PUSH0 SWAP1 SLOAD SWAP1 PUSH2 0x100 EXP SWAP1 DIV PUSH1 0x1 PUSH1 0x1 PUSH1 0xA0 SHL SUB AND PUSH1 0x1 PUSH1 0x1 PUSH1 0xA0 SHL SUB AND PUSH4 0xA03CC2A6 PUSH1 0x40 MLOAD DUP2 PUSH4 0xFFFFFFFF AND PUSH1 0xE0 SHL DUP2 MSTORE PUSH1 0x4 ADD PUSH1 0x20 PUSH1 0x40 MLOAD DUP1 DUP4 SUB DUP2 DUP7 GAS STATICCALL ISZERO DUP1 ISZERO PUSH2 0xD0F JUMPI RETURNDATASIZE PUSH0 DUP1 RETURNDATACOPY RETURNDATASIZE PUSH0 REVERT JUMPDEST POP POP POP POP PUSH1 0x40 MLOAD RETURNDATASIZE PUSH1 0x1F NOT PUSH1 0x1F DUP3 ADD AND DUP3 ADD DUP1 PUSH1 0x40 MSTORE POP DUP2 ADD SWAP1 PUSH2 0xD33 SWAP2 SWAP1 PUSH2 0x596A JUMP JUMPDEST PUSH1 0x3 SUB PUSH2 0xD52 JUMPI PUSH1 0x40 MLOAD PUSH3 0xD2D519 PUSH1 0xE1 SHL DUP2 MSTORE PUSH1 0x4 ADD PUSH1 0x40 MLOAD DUP1 SWAP2 SUB SWAP1 REVERT JUMPDEST PUSH2 0xD5A PUSH2 0x4415 JUMP JUMPDEST PUSH1 0x1 PUSH1 0x1 PUSH1 0xA0 SHL SUB AND PUSH4 0x23B872DD CALLER ADDRESS PUSH2 0xD75 PUSH1 0x2 DUP8 PUSH2 0x58E5 JUMP JUMPDEST PUSH1 0x40 MLOAD DUP5 PUSH4 0xFFFFFFFF AND PUSH1 0xE0 SHL DUP2 MSTORE PUSH1 0x4 ADD PUSH2 0xD93 SWAP4 SWAP3 SWAP2 SWAP1 PUSH2 0x5480 JUMP JUMPDEST PUSH1 0x20 PUSH1 0x40 MLOAD DUP1 DUP4 SUB DUP2 PUSH0 DUP8 GAS CALL ISZERO DUP1 ISZERO PUSH2 0xDAF JUMPI RETURNDATASIZE PUSH0 DUP1 RETURNDATACOPY RETURNDATASIZE PUSH0 REVERT JUMPDEST POP POP POP POP PUSH1 0x40 MLOAD RETURNDATASIZE PUSH1 0x1F NOT PUSH1 0x1F DUP3 ADD AND DUP3 ADD DUP1 PUSH1 0x40 MSTORE POP DUP2 ADD SWAP1 PUSH2 0xDD3 SWAP2 SWAP1 PUSH2 0x5981 JUMP JUMPDEST POP DUP1 PUSH0 SUB PUSH2 0x1055 JUMPI PUSH1 0xC9 PUSH0 SWAP1 SLOAD SWAP1 PUSH2 0x100 EXP SWAP1 DIV PUSH1 0x1 PUSH1 0x1 PUSH1 0xA0 SHL SUB AND PUSH1 0x1 PUSH1 0x1 PUSH1 0xA0 SHL SUB AND PUSH4 0xA03CC2A6 PUSH1 0x40 MLOAD DUP2 PUSH4 0xFFFFFFFF AND PUSH1 0xE0 SHL DUP2 MSTORE PUSH1 0x4 ADD PUSH1 0x20 PUSH1 0x40 MLOAD DUP1 DUP4 SUB DUP2 DUP7 GAS STATICCALL ISZERO DUP1 ISZERO PUSH2 0xE2B JUMPI RETURNDATASIZE PUSH0 DUP1 RETURNDATACOPY RETURNDATASIZE PUSH0 REVERT JUMPDEST POP POP POP POP PUSH1 0x40 MLOAD RETURNDATASIZE PUSH1 0x1F NOT PUSH1 0x1F DUP3 ADD AND DUP3 ADD DUP1 PUSH1 0x40 MSTORE POP DUP2 ADD SWAP1 PUSH2 0xE4F SWAP2 SWAP1 PUSH2 0x596A JUMP JUMPDEST PUSH1 0x1 SUB PUSH2 0xE6E JUMPI PUSH1 0x40 MLOAD PUSH3 0xD2D519 PUSH1 0xE1 SHL DUP2 MSTORE PUSH1 0x4 ADD PUSH1 0x40 MLOAD DUP1 SWAP2 SUB SWAP1 REVERT JUMPDEST PUSH1 0xC9 PUSH0 SWAP1 SLOAD SWAP1 PUSH2 0x100 EXP SWAP1 DIV PUSH1 0x1 PUSH1 0x1 PUSH1 0xA0 SHL SUB AND PUSH1 0x1 PUSH1 0x1 PUSH1 0xA0 SHL SUB AND PUSH4 0x8F05CDF5 PUSH1 0x40 MLOAD DUP2 PUSH4 0xFFFFFFFF AND PUSH1 0xE0 SHL DUP2 MSTORE PUSH1 0x4 ADD PUSH1 0x20 PUSH1 0x40 MLOAD DUP1 DUP4 SUB DUP2 DUP7 GAS STATICCALL ISZERO DUP1 ISZERO PUSH2 0xEBE JUMPI RETURNDATASIZE PUSH0 DUP1 RETURNDATACOPY RETURNDATASIZE PUSH0 REVERT JUMPDEST POP POP POP POP PUSH1 0x40 MLOAD RETURNDATASIZE PUSH1 0x1F NOT PUSH1 0x1F DUP3 ADD AND DUP3 ADD DUP1 PUSH1 0x40 MSTORE POP DUP2 ADD SWAP1 PUSH2 0xEE2 SWAP2 SWAP1 PUSH2 0x59A0 JUMP JUMPDEST PUSH1 0x1 PUSH1 0x1 PUSH1 0xA0 SHL SUB AND PUSH4 0x23B872DD CALLER PUSH1 0xC9 PUSH0 SWAP1 SLOAD SWAP1 PUSH2 0x100 EXP SWAP1 DIV PUSH1 0x1 PUSH1 0x1 PUSH1 0xA0 SHL SUB AND PUSH1 0x1 PUSH1 0x1 PUSH1 0xA0 SHL SUB AND PUSH4 0xE9D610E5 PUSH1 0x40 MLOAD DUP2 PUSH4 0xFFFFFFFF AND PUSH1 0xE0 SHL DUP2 MSTORE PUSH1 0x4 ADD PUSH1 0x20 PUSH1 0x40 MLOAD DUP1 DUP4 SUB DUP2 DUP7 GAS STATICCALL ISZERO DUP1 ISZERO PUSH2 0xF41 JUMPI RETURNDATASIZE PUSH0 DUP1 RETURNDATACOPY RETURNDATASIZE PUSH0 REVERT JUMPDEST POP POP POP POP PUSH1 0x40 MLOAD RETURNDATASIZE PUSH1 0x1F NOT PUSH1 0x1F DUP3 ADD AND DUP3 ADD DUP1 PUSH1 0x40 MSTORE POP DUP2 ADD SWAP1 PUSH2 0xF65 SWAP2 SWAP1 PUSH2 0x59A0 JUMP JUMPDEST PUSH1 0xC9 SLOAD PUSH1 0x40 DUP1 MLOAD PUSH4 0x698518E5 PUSH1 0xE0 SHL DUP2 MSTORE SWAP1 MLOAD PUSH2 0x3E8 SWAP3 PUSH1 0x1 PUSH1 0x1 PUSH1 0xA0 SHL SUB AND SWAP2 PUSH4 0x698518E5 SWAP2 PUSH1 0x4 DUP1 DUP4 ADD SWAP3 PUSH1 0x20 SWAP3 SWAP2 SWAP1 DUP3 SWAP1 SUB ADD DUP2 DUP7 GAS STATICCALL ISZERO DUP1 ISZERO PUSH2 0xFAE JUMPI RETURNDATASIZE PUSH0 DUP1 RETURNDATACOPY RETURNDATASIZE PUSH0 REVERT JUMPDEST POP POP POP POP PUSH1 0x40 MLOAD RETURNDATASIZE PUSH1 0x1F NOT PUSH1 0x1F DUP3 ADD AND DUP3 ADD DUP1 PUSH1 0x40 MSTORE POP DUP2 ADD SWAP1 PUSH2 0xFD2 SWAP2 SWAP1 PUSH2 0x596A JUMP JUMPDEST PUSH2 0xFDD PUSH1 0x2 DUP10 PUSH2 0x58E5 JUMP JUMPDEST PUSH2 0xFE7 SWAP2 SWAP1 PUSH2 0x59BB JUMP JUMPDEST PUSH2 0xFF1 SWAP2 SWAP1 PUSH2 0x58E5 JUMP JUMPDEST PUSH1 0x40 MLOAD DUP5 PUSH4 0xFFFFFFFF AND PUSH1 0xE0 SHL DUP2 MSTORE PUSH1 0x4 ADD PUSH2 0x100F SWAP4 SWAP3 SWAP2 SWAP1 PUSH2 0x5480 JUMP JUMPDEST PUSH1 0x20 PUSH1 0x40 MLOAD DUP1 DUP4 SUB DUP2 PUSH0 DUP8 GAS CALL ISZERO DUP1 ISZERO PUSH2 0x102B JUMPI RETURNDATASIZE PUSH0 DUP1 RETURNDATACOPY RETURNDATASIZE PUSH0 REVERT JUMPDEST POP POP POP POP PUSH1 0x40 MLOAD RETURNDATASIZE PUSH1 0x1F NOT PUSH1 0x1F DUP3 ADD AND DUP3 ADD DUP1 PUSH1 0x40 MSTORE POP DUP2 ADD SWAP1 PUSH2 0x104F SWAP2 SWAP1 PUSH2 0x5981 JUMP JUMPDEST POP PUSH2 0x1195 JUMP JUMPDEST PUSH1 0xC9 PUSH0 SWAP1 SLOAD SWAP1 PUSH2 0x100 EXP SWAP1 DIV PUSH1 0x1 PUSH1 0x1 PUSH1 0xA0 SHL SUB AND PUSH1 0x1 PUSH1 0x1 PUSH1 0xA0 SHL SUB AND PUSH4 0xA03CC2A6 PUSH1 0x40 MLOAD DUP2 PUSH4 0xFFFFFFFF AND PUSH1 0xE0 SHL DUP2 MSTORE PUSH1 0x4 ADD PUSH1 0x20 PUSH1 0x40 MLOAD DUP1 DUP4 SUB DUP2 DUP7 GAS STATICCALL ISZERO DUP1 ISZERO PUSH2 0x10A5 JUMPI RETURNDATASIZE PUSH0 DUP1 RETURNDATACOPY RETURNDATASIZE PUSH0 REVERT JUMPDEST POP POP POP POP PUSH1 0x40 MLOAD RETURNDATASIZE PUSH1 0x1F NOT PUSH1 0x1F DUP3 ADD AND DUP3 ADD DUP1 PUSH1 0x40 MSTORE POP DUP2 ADD SWAP1 PUSH2 0x10C9 SWAP2 SWAP1 PUSH2 0x596A JUMP JUMPDEST PUSH1 0x2 SUB PUSH2 0x10E8 JUMPI PUSH1 0x40 MLOAD PUSH3 0xD2D519 PUSH1 0xE1 SHL DUP2 MSTORE PUSH1 0x4 ADD PUSH1 0x40 MLOAD DUP1 SWAP2 SUB SWAP1 REVERT JUMPDEST PUSH0 PUSH2 0x10F1 PUSH2 0x445C JUMP JUMPDEST SWAP1 POP PUSH2 0x10FB PUSH2 0x36FF JUMP JUMPDEST PUSH1 0x1 PUSH1 0x1 PUSH1 0xA0 SHL SUB AND PUSH4 0x23B872DD CALLER PUSH1 0x1 DUP5 PUSH2 0x1118 PUSH1 0x2 DUP10 PUSH2 0x58E5 JUMP JUMPDEST PUSH2 0x1122 SWAP2 SWAP1 PUSH2 0x58E5 JUMP JUMPDEST PUSH2 0x1134 SWAP1 PUSH8 0xDE0B6B3A7640000 PUSH2 0x59BB JUMP JUMPDEST PUSH1 0x40 MLOAD DUP5 PUSH4 0xFFFFFFFF AND PUSH1 0xE0 SHL DUP2 MSTORE PUSH1 0x4 ADD PUSH2 0x1152 SWAP4 SWAP3 SWAP2 SWAP1 PUSH2 0x5480 JUMP JUMPDEST PUSH1 0x20 PUSH1 0x40 MLOAD DUP1 DUP4 SUB DUP2 PUSH0 DUP8 GAS CALL ISZERO DUP1 ISZERO PUSH2 0x116E JUMPI RETURNDATASIZE PUSH0 DUP1 RETURNDATACOPY RETURNDATASIZE PUSH0 REVERT JUMPDEST POP POP POP POP PUSH1 0x40 MLOAD RETURNDATASIZE PUSH1 0x1F NOT PUSH1 0x1F DUP3 ADD AND DUP3 ADD DUP1 PUSH1 0x40 MSTORE POP DUP2 ADD SWAP1 PUSH2 0x1192 SWAP2 SWAP1 PUSH2 0x5981 JUMP JUMPDEST POP POP JUMPDEST CALLER PUSH0 DUP2 DUP2 MSTORE PUSH1 0xD0 PUSH1 0x20 SWAP1 DUP2 MSTORE PUSH1 0x40 DUP1 DUP4 KECCAK256 PUSH1 0xCB DUP1 SLOAD DUP3 SLOAD PUSH1 0x1 DUP1 DUP3 ADD DUP6 SSTORE SWAP4 DUP8 MSTORE DUP6 DUP8 KECCAK256 ADD SSTORE DUP3 MLOAD PUSH1 0x80 DUP2 ADD DUP5 MSTORE DUP7 DUP2 MSTORE DUP1 DUP6 ADD DUP10 DUP2 MSTORE TIMESTAMP DUP3 DUP7 ADD DUP2 DUP2 MSTORE PUSH1 0x60 DUP5 ADD SWAP2 DUP3 MSTORE DUP5 SLOAD DUP1 DUP8 ADD DUP7 SSTORE SWAP5 DUP10 MSTORE SWAP3 MLOAD PUSH0 DUP1 MLOAD PUSH1 0x20 PUSH2 0x5CB5 DUP4 CODECOPY DUP2 MLOAD SWAP2 MSTORE PUSH1 0x4 SWAP1 SWAP6 MUL SWAP5 DUP6 ADD DUP1 SLOAD PUSH1 0x1 PUSH1 0x1 PUSH1 0xA0 SHL SUB NOT AND PUSH1 0x1 PUSH1 0x1 PUSH1 0xA0 SHL SUB SWAP1 SWAP3 AND SWAP2 SWAP1 SWAP2 OR SWAP1 SSTORE SWAP1 MLOAD PUSH0 DUP1 MLOAD PUSH1 0x20 PUSH2 0x5C95 DUP4 CODECOPY DUP2 MLOAD SWAP2 MSTORE DUP5 ADD SSTORE SWAP1 MLOAD PUSH0 DUP1 MLOAD PUSH1 0x20 PUSH2 0x5CD5 DUP4 CODECOPY DUP2 MLOAD SWAP2 MSTORE DUP4 ADD SSTORE MLOAD PUSH0 DUP1 MLOAD PUSH1 0x20 PUSH2 0x5D5C DUP4 CODECOPY DUP2 MLOAD SWAP2 MSTORE SWAP1 SWAP2 ADD SSTORE SWAP4 DUP4 MSTORE PUSH1 0xD1 SWAP1 SWAP2 MSTORE SWAP1 KECCAK256 DUP1 SLOAD PUSH1 0xFF NOT AND SWAP1 SWAP2 OR SWAP1 SSTORE PUSH2 0x126F PUSH2 0x4415 JUMP JUMPDEST PUSH1 0x1 PUSH1 0x1 PUSH1 0xA0 SHL SUB AND PUSH4 0xA9059CBB PUSH1 0xC9 PUSH0 SWAP1 SLOAD SWAP1 PUSH2 0x100 EXP SWAP1 DIV PUSH1 0x1 PUSH1 0x1 PUSH1 0xA0 SHL SUB AND PUSH1 0x1 PUSH1 0x1 PUSH1 0xA0 SHL SUB AND PUSH4 0x1E56CFAB PUSH1 0x40 MLOAD DUP2 PUSH4 0xFFFFFFFF AND PUSH1 0xE0 SHL DUP2 MSTORE PUSH1 0x4 ADD PUSH1 0x20 PUSH1 0x40 MLOAD DUP1 DUP4 SUB DUP2 DUP7 GAS STATICCALL ISZERO DUP1 ISZERO PUSH2 0x12CD JUMPI RETURNDATASIZE PUSH0 DUP1 RETURNDATACOPY RETURNDATASIZE PUSH0 REVERT JUMPDEST POP POP POP POP PUSH1 0x40 MLOAD RETURNDATASIZE PUSH1 0x1F NOT PUSH1 0x1F DUP3 ADD AND DUP3 ADD DUP1 PUSH1 0x40 MSTORE POP DUP2 ADD SWAP1 PUSH2 0x12F1 SWAP2 SWAP1 PUSH2 0x59A0 JUMP JUMPDEST PUSH2 0x3E8 PUSH2 0x12FF PUSH1 0x2 DUP8 PUSH2 0x58E5 JUMP JUMPDEST PUSH2 0x130A SWAP1 PUSH1 0x14 PUSH2 0x59BB JUMP JUMPDEST PUSH2 0x1314 SWAP2 SWAP1 PUSH2 0x58E5 JUMP JUMPDEST PUSH1 0x40 MLOAD DUP4 PUSH4 0xFFFFFFFF AND PUSH1 0xE0 SHL DUP2 MSTORE PUSH1 0x4 ADD PUSH2 0x1331 SWAP3 SWAP2 SWAP1 PUSH2 0x59D2 JUMP JUMPDEST PUSH1 0x20 PUSH1 0x40 MLOAD DUP1 DUP4 SUB DUP2 PUSH0 DUP8 GAS CALL ISZERO DUP1 ISZERO PUSH2 0x134D JUMPI RETURNDATASIZE PUSH0 DUP1 RETURNDATACOPY RETURNDATASIZE PUSH0 REVERT JUMPDEST POP POP POP POP PUSH1 0x40 MLOAD RETURNDATASIZE PUSH1 0x1F NOT PUSH1 0x1F DUP3 ADD AND DUP3 ADD DUP1 PUSH1 0x40 MSTORE POP DUP2 ADD SWAP1 PUSH2 0x1371 SWAP2 SWAP1 PUSH2 0x5981 JUMP JUMPDEST POP PUSH2 0x137A PUSH2 0x4415 JUMP JUMPDEST PUSH1 0x1 PUSH1 0x1 PUSH1 0xA0 SHL SUB AND PUSH4 0xA9059CBB PUSH1 0xC9 PUSH0 SWAP1 SLOAD SWAP1 PUSH2 0x100 EXP SWAP1 DIV PUSH1 0x1 PUSH1 0x1 PUSH1 0xA0 SHL SUB AND PUSH1 0x1 PUSH1 0x1 PUSH1 0xA0 SHL SUB AND PUSH4 0x95623641 PUSH1 0x40 MLOAD DUP2 PUSH4 0xFFFFFFFF AND PUSH1 0xE0 SHL DUP2 MSTORE PUSH1 0x4 ADD PUSH1 0x20 PUSH1 0x40 MLOAD DUP1 DUP4 SUB DUP2 DUP7 GAS STATICCALL ISZERO DUP1 ISZERO PUSH2 0x13D8 JUMPI RETURNDATASIZE PUSH0 DUP1 RETURNDATACOPY RETURNDATASIZE PUSH0 REVERT JUMPDEST POP POP POP POP PUSH1 0x40 MLOAD RETURNDATASIZE PUSH1 0x1F NOT PUSH1 0x1F DUP3 ADD AND DUP3 ADD DUP1 PUSH1 0x40 MSTORE POP DUP2 ADD SWAP1 PUSH2 0x13FC SWAP2 SWAP1 PUSH2 0x59A0 JUMP JUMPDEST PUSH2 0x3E8 PUSH2 0x140A PUSH1 0x2 DUP8 PUSH2 0x58E5 JUMP JUMPDEST PUSH2 0x1415 SWAP1 PUSH1 0x14 PUSH2 0x59BB JUMP JUMPDEST PUSH2 0x141F SWAP2 SWAP1 PUSH2 0x58E5 JUMP JUMPDEST PUSH1 0x40 MLOAD DUP4 PUSH4 0xFFFFFFFF AND PUSH1 0xE0 SHL DUP2 MSTORE PUSH1 0x4 ADD PUSH2 0x143C SWAP3 SWAP2 SWAP1 PUSH2 0x59D2 JUMP JUMPDEST PUSH1 0x20 PUSH1 0x40 MLOAD DUP1 DUP4 SUB DUP2 PUSH0 DUP8 GAS CALL ISZERO DUP1 ISZERO PUSH2 0x1458 JUMPI RETURNDATASIZE PUSH0 DUP1 RETURNDATACOPY RETURNDATASIZE PUSH0 REVERT JUMPDEST POP POP POP POP PUSH1 0x40 MLOAD RETURNDATASIZE PUSH1 0x1F NOT PUSH1 0x1F DUP3 ADD AND DUP3 ADD DUP1 PUSH1 0x40 MSTORE POP DUP2 ADD SWAP1 PUSH2 0x147C SWAP2 SWAP1 PUSH2 0x5981 JUMP JUMPDEST POP PUSH2 0x1485 PUSH2 0x4415 JUMP JUMPDEST PUSH1 0x1 PUSH1 0x1 PUSH1 0xA0 SHL SUB AND PUSH4 0x95EA7B3 PUSH2 0x149B PUSH2 0x41E2 JUMP JUMPDEST PUSH2 0x3E8 PUSH2 0x14A9 PUSH1 0x2 DUP8 PUSH2 0x58E5 JUMP JUMPDEST PUSH2 0x14B4 SWAP1 PUSH1 0xC8 PUSH2 0x59BB JUMP JUMPDEST PUSH2 0x14BE SWAP2 SWAP1 PUSH2 0x58E5 JUMP JUMPDEST PUSH1 0x40 MLOAD DUP4 PUSH4 0xFFFFFFFF AND PUSH1 0xE0 SHL DUP2 MSTORE PUSH1 0x4 ADD PUSH2 0x14DB SWAP3 SWAP2 SWAP1 PUSH2 0x59D2 JUMP JUMPDEST PUSH1 0x20 PUSH1 0x40 MLOAD DUP1 DUP4 SUB DUP2 PUSH0 DUP8 GAS CALL ISZERO DUP1 ISZERO PUSH2 0x14F7 JUMPI RETURNDATASIZE PUSH0 DUP1 RETURNDATACOPY RETURNDATASIZE PUSH0 REVERT JUMPDEST POP POP POP POP PUSH1 0x40 MLOAD RETURNDATASIZE PUSH1 0x1F NOT PUSH1 0x1F DUP3 ADD AND DUP3 ADD DUP1 PUSH1 0x40 MSTORE POP DUP2 ADD SWAP1 PUSH2 0x151B SWAP2 SWAP1 PUSH2 0x5981 JUMP JUMPDEST POP PUSH2 0x1524 PUSH2 0x41E2 JUMP JUMPDEST PUSH1 0x1 PUSH1 0x1 PUSH1 0xA0 SHL SUB AND PUSH4 0xA1E15411 PUSH2 0x153A PUSH2 0x4415 JUMP JUMPDEST PUSH2 0x1542 PUSH2 0x45E8 JUMP JUMPDEST PUSH2 0x3E8 PUSH2 0x1550 PUSH1 0x2 DUP9 PUSH2 0x58E5 JUMP JUMPDEST PUSH2 0x155B SWAP1 PUSH1 0xC8 PUSH2 0x59BB JUMP JUMPDEST PUSH2 0x1565 SWAP2 SWAP1 PUSH2 0x58E5 JUMP JUMPDEST PUSH1 0x40 MLOAD DUP5 PUSH4 0xFFFFFFFF AND PUSH1 0xE0 SHL DUP2 MSTORE PUSH1 0x4 ADD PUSH2 0x1583 SWAP4 SWAP3 SWAP2 SWAP1 PUSH2 0x5480 JUMP JUMPDEST PUSH1 0x20 PUSH1 0x40 MLOAD DUP1 DUP4 SUB DUP2 PUSH0 DUP8 GAS CALL ISZERO DUP1 ISZERO PUSH2 0x159F JUMPI RETURNDATASIZE PUSH0 DUP1 RETURNDATACOPY RETURNDATASIZE PUSH0 REVERT JUMPDEST POP POP POP POP PUSH1 0x40 MLOAD RETURNDATASIZE PUSH1 0x1F NOT PUSH1 0x1F DUP3 ADD AND DUP3 ADD DUP1 PUSH1 0x40 MSTORE POP DUP2 ADD SWAP1 PUSH2 0x15C3 SWAP2 SWAP1 PUSH2 0x596A JUMP JUMPDEST POP PUSH0 PUSH2 0x3E8 PUSH2 0x15D3 PUSH1 0x2 DUP6 PUSH2 0x58E5 JUMP JUMPDEST PUSH2 0x15DF SWAP1 PUSH2 0x2BC PUSH2 0x59BB JUMP JUMPDEST PUSH2 0x15E9 SWAP2 SWAP1 PUSH2 0x58E5 JUMP JUMPDEST SWAP1 POP PUSH0 DUP1 PUSH2 0x15F5 PUSH2 0x41E2 JUMP JUMPDEST PUSH1 0x1 PUSH1 0x1 PUSH1 0xA0 SHL SUB AND PUSH4 0x902F1AC PUSH1 0x40 MLOAD DUP2 PUSH4 0xFFFFFFFF AND PUSH1 0xE0 SHL DUP2 MSTORE PUSH1 0x4 ADD PUSH1 0x60 PUSH1 0x40 MLOAD DUP1 DUP4 SUB DUP2 DUP7 GAS STATICCALL ISZERO DUP1 ISZERO PUSH2 0x1630 JUMPI RETURNDATASIZE PUSH0 DUP1 RETURNDATACOPY RETURNDATASIZE PUSH0 REVERT JUMPDEST POP POP POP POP PUSH1 0x40 MLOAD RETURNDATASIZE PUSH1 0x1F NOT PUSH1 0x1F DUP3 ADD AND DUP3 ADD DUP1 PUSH1 0x40 MSTORE POP DUP2 ADD SWAP1 PUSH2 0x1654 SWAP2 SWAP1 PUSH2 0x5824 JUMP JUMPDEST POP SWAP2 POP SWAP2 POP PUSH0 DUP1 PUSH2 0x1663 PUSH2 0x4415 JUMP JUMPDEST PUSH1 0x1 PUSH1 0x1 PUSH1 0xA0 SHL SUB AND PUSH2 0x1674 PUSH2 0x41E2 JUMP JUMPDEST PUSH1 0x1 PUSH1 0x1 PUSH1 0xA0 SHL SUB AND PUSH4 0xDFE1681 PUSH1 0x40 MLOAD DUP2 PUSH4 0xFFFFFFFF AND PUSH1 0xE0 SHL DUP2 MSTORE PUSH1 0x4 ADD PUSH1 0x20 PUSH1 0x40 MLOAD DUP1 DUP4 SUB DUP2 DUP7 GAS STATICCALL ISZERO DUP1 ISZERO PUSH2 0x16AF JUMPI RETURNDATASIZE PUSH0 DUP1 RETURNDATACOPY RETURNDATASIZE PUSH0 REVERT JUMPDEST POP POP POP POP PUSH1 0x40 MLOAD RETURNDATASIZE PUSH1 0x1F NOT PUSH1 0x1F DUP3 ADD AND DUP3 ADD DUP1 PUSH1 0x40 MSTORE POP DUP2 ADD SWAP1 PUSH2 0x16D3 SWAP2 SWAP1 PUSH2 0x59A0 JUMP JUMPDEST PUSH1 0x1 PUSH1 0x1 PUSH1 0xA0 SHL SUB AND EQ PUSH2 0x16E8 JUMPI DUP3 DUP5 PUSH2 0x16EB JUMP JUMPDEST DUP4 DUP4 JUMPDEST SWAP2 POP SWAP2 POP PUSH0 DUP3 PUSH1 0x1 PUSH1 0x1 PUSH1 0x70 SHL SUB AND DUP7 DUP4 PUSH1 0x1 PUSH1 0x1 PUSH1 0x70 SHL SUB AND PUSH2 0x170F SWAP2 SWAP1 PUSH2 0x59BB JUMP JUMPDEST PUSH2 0x1719 SWAP2 SWAP1 PUSH2 0x58E5 JUMP JUMPDEST SWAP1 POP PUSH2 0x1723 PUSH2 0x4415 JUMP JUMPDEST PUSH1 0x1 PUSH1 0x1 PUSH1 0xA0 SHL SUB AND PUSH4 0xA9059CBB PUSH2 0x1739 PUSH2 0x41E2 JUMP JUMPDEST DUP9 PUSH1 0x40 MLOAD DUP4 PUSH4 0xFFFFFFFF AND PUSH1 0xE0 SHL DUP2 MSTORE PUSH1 0x4 ADD PUSH2 0x1757 SWAP3 SWAP2 SWAP1 PUSH2 0x59D2 JUMP JUMPDEST PUSH1 0x20 PUSH1 0x40 MLOAD DUP1 DUP4 SUB DUP2 PUSH0 DUP8 GAS CALL ISZERO DUP1 ISZERO PUSH2 0x1773 JUMPI RETURNDATASIZE PUSH0 DUP1 RETURNDATACOPY RETURNDATASIZE PUSH0 REVERT JUMPDEST POP POP POP POP PUSH1 0x40 MLOAD RETURNDATASIZE PUSH1 0x1F NOT PUSH1 0x1F DUP3 ADD AND DUP3 ADD DUP1 PUSH1 0x40 MSTORE POP DUP2 ADD SWAP1 PUSH2 0x1797 SWAP2 SWAP1 PUSH2 0x5981 JUMP JUMPDEST POP PUSH2 0x17A0 PUSH2 0x45E8 JUMP JUMPDEST PUSH1 0x1 PUSH1 0x1 PUSH1 0xA0 SHL SUB AND PUSH4 0xF3FEF3A3 PUSH2 0x17B6 PUSH2 0x41E2 JUMP JUMPDEST DUP4 PUSH1 0x40 MLOAD DUP4 PUSH4 0xFFFFFFFF AND PUSH1 0xE0 SHL DUP2 MSTORE PUSH1 0x4 ADD PUSH2 0x17D4 SWAP3 SWAP2 SWAP1 PUSH2 0x59D2 JUMP JUMPDEST PUSH0 PUSH1 0x40 MLOAD DUP1 DUP4 SUB DUP2 PUSH0 DUP8 DUP1 EXTCODESIZE ISZERO DUP1 ISZERO PUSH2 0x17EB JUMPI PUSH0 DUP1 REVERT JUMPDEST POP GAS CALL ISZERO DUP1 ISZERO PUSH2 0x17FD JUMPI RETURNDATASIZE PUSH0 DUP1 RETURNDATACOPY RETURNDATASIZE PUSH0 REVERT JUMPDEST POP POP POP POP PUSH2 0x1809 PUSH2 0x41E2 JUMP JUMPDEST PUSH1 0x1 PUSH1 0x1 PUSH1 0xA0 SHL SUB AND PUSH4 0x6A627842 PUSH1 0x1 PUSH1 0x40 MLOAD DUP3 PUSH4 0xFFFFFFFF AND PUSH1 0xE0 SHL DUP2 MSTORE PUSH1 0x4 ADD PUSH2 0x1835 SWAP2 SWAP1 PUSH2 0x567C JUMP JUMPDEST PUSH1 0x20 PUSH1 0x40 MLOAD DUP1 DUP4 SUB DUP2 PUSH0 DUP8 GAS CALL ISZERO DUP1 ISZERO PUSH2 0x1851 JUMPI RETURNDATASIZE PUSH0 DUP1 RETURNDATACOPY RETURNDATASIZE PUSH0 REVERT JUMPDEST POP POP POP POP PUSH1 0x40 MLOAD RETURNDATASIZE PUSH1 0x1F NOT PUSH1 0x1F DUP3 ADD AND DUP3 ADD DUP1 PUSH1 0x40 MSTORE POP DUP2 ADD SWAP1 PUSH2 0x1875 SWAP2 SWAP1 PUSH2 0x596A JUMP JUMPDEST POP PUSH2 0x187E PUSH2 0x462F JUMP JUMPDEST PUSH2 0x1886 PUSH2 0x47FD JUMP JUMPDEST PUSH2 0x3E8 PUSH2 0x1894 PUSH1 0x2 DUP11 PUSH2 0x58E5 JUMP JUMPDEST PUSH2 0x189F SWAP1 PUSH1 0x23 PUSH2 0x59BB JUMP JUMPDEST PUSH2 0x18A9 SWAP2 SWAP1 PUSH2 0x58E5 JUMP JUMPDEST PUSH1 0xD4 PUSH0 DUP3 DUP3 SLOAD PUSH2 0x18B9 SWAP2 SWAP1 PUSH2 0x58BF JUMP JUMPDEST SWAP1 SWAP2 SSTORE POP PUSH2 0x3E8 SWAP1 POP PUSH2 0x18CD PUSH1 0x2 DUP11 PUSH2 0x58E5 JUMP JUMPDEST PUSH2 0x18D8 SWAP1 PUSH1 0x19 PUSH2 0x59BB JUMP JUMPDEST PUSH2 0x18E2 SWAP2 SWAP1 PUSH2 0x58E5 JUMP JUMPDEST PUSH1 0xD5 PUSH0 DUP3 DUP3 SLOAD PUSH2 0x18F2 SWAP2 SWAP1 PUSH2 0x58BF JUMP JUMPDEST SWAP1 SWAP2 SSTORE POP PUSH2 0x1900 SWAP1 POP PUSH2 0x280E JUMP JUMPDEST PUSH2 0x1908 PUSH2 0x376A JUMP JUMPDEST POP POP POP POP POP POP POP POP JUMP JUMPDEST PUSH0 DUP1 PUSH0 PUSH2 0x191D PUSH2 0x41E2 JUMP JUMPDEST PUSH1 0x1 PUSH1 0x1 PUSH1 0xA0 SHL SUB AND PUSH4 0x902F1AC PUSH1 0x40 MLOAD DUP2 PUSH4 0xFFFFFFFF AND PUSH1 0xE0 SHL DUP2 MSTORE PUSH1 0x4 ADD PUSH1 0x60 PUSH1 0x40 MLOAD DUP1 DUP4 SUB DUP2 DUP7 GAS STATICCALL ISZERO DUP1 ISZERO PUSH2 0x1958 JUMPI RETURNDATASIZE PUSH0 DUP1 RETURNDATACOPY RETURNDATASIZE PUSH0 REVERT JUMPDEST POP POP POP POP PUSH1 0x40 MLOAD RETURNDATASIZE PUSH1 0x1F NOT PUSH1 0x1F DUP3 ADD AND DUP3 ADD DUP1 PUSH1 0x40 MSTORE POP DUP2 ADD SWAP1 PUSH2 0x197C SWAP2 SWAP1 PUSH2 0x5824 JUMP JUMPDEST POP SWAP2 POP SWAP2 POP PUSH0 DUP1 PUSH2 0x198B PUSH2 0x4415 JUMP JUMPDEST PUSH1 0x1 PUSH1 0x1 PUSH1 0xA0 SHL SUB AND PUSH2 0x199C PUSH2 0x41E2 JUMP JUMPDEST PUSH1 0x1 PUSH1 0x1 PUSH1 0xA0 SHL SUB AND PUSH4 0xDFE1681 PUSH1 0x40 MLOAD DUP2 PUSH4 0xFFFFFFFF AND PUSH1 0xE0 SHL DUP2 MSTORE PUSH1 0x4 ADD PUSH1 0x20 PUSH1 0x40 MLOAD DUP1 DUP4 SUB DUP2 DUP7 GAS STATICCALL ISZERO DUP1 ISZERO PUSH2 0x19D7 JUMPI RETURNDATASIZE PUSH0 DUP1 RETURNDATACOPY RETURNDATASIZE PUSH0 REVERT JUMPDEST POP POP POP POP PUSH1 0x40 MLOAD RETURNDATASIZE PUSH1 0x1F NOT PUSH1 0x1F DUP3 ADD AND DUP3 ADD DUP1 PUSH1 0x40 MSTORE POP DUP2 ADD SWAP1 PUSH2 0x19FB SWAP2 SWAP1 PUSH2 0x59A0 JUMP JUMPDEST PUSH1 0x1 PUSH1 0x1 PUSH1 0xA0 SHL SUB AND EQ PUSH2 0x1A10 JUMPI DUP3 DUP5 PUSH2 0x1A13 JUMP JUMPDEST DUP4 DUP4 JUMPDEST SWAP2 POP SWAP2 POP PUSH2 0x1A1F PUSH2 0x41E2 JUMP JUMPDEST PUSH1 0x1 PUSH1 0x1 PUSH1 0xA0 SHL SUB AND PUSH4 0x54D50D4 DUP8 DUP4 DUP6 PUSH1 0x40 MLOAD DUP5 PUSH4 0xFFFFFFFF AND PUSH1 0xE0 SHL DUP2 MSTORE PUSH1 0x4 ADD PUSH2 0x1A4E SWAP4 SWAP3 SWAP2 SWAP1 PUSH2 0x59EB JUMP JUMPDEST PUSH1 0x20 PUSH1 0x40 MLOAD DUP1 DUP4 SUB DUP2 DUP7 GAS STATICCALL ISZERO DUP1 ISZERO PUSH2 0x1A69 JUMPI RETURNDATASIZE PUSH0 DUP1 RETURNDATACOPY RETURNDATASIZE PUSH0 REVERT JUMPDEST POP POP POP POP PUSH1 0x40 MLOAD RETURNDATASIZE PUSH1 0x1F NOT PUSH1 0x1F DUP3 ADD AND DUP3 ADD DUP1 PUSH1 0x40 MSTORE POP DUP2 ADD SWAP1 PUSH2 0x1A8D SWAP2 SWAP1 PUSH2 0x596A JUMP JUMPDEST SWAP7 SWAP6 POP POP POP POP POP POP JUMP JUMPDEST PUSH1 0xCE DUP2 DUP2 SLOAD DUP2 LT PUSH2 0xB7E JUMPI PUSH0 DUP1 REVERT JUMPDEST PUSH2 0x1ADC PUSH1 0x40 MLOAD DUP1 PUSH1 0xA0 ADD PUSH1 0x40 MSTORE DUP1 PUSH0 DUP2 MSTORE PUSH1 0x20 ADD PUSH0 DUP2 MSTORE PUSH1 0x20 ADD PUSH0 DUP2 MSTORE PUSH1 0x20 ADD PUSH0 DUP2 MSTORE PUSH1 0x20 ADD PUSH0 PUSH1 0x1 PUSH1 0x1 PUSH1 0xA0 SHL SUB AND DUP2 MSTORE POP SWAP1 JUMP JUMPDEST PUSH0 PUSH1 0xD6 SLOAD PUSH2 0x258 PUSH2 0x1AED SWAP2 SWAP1 PUSH2 0x58BF JUMP JUMPDEST SWAP1 POP PUSH1 0x40 MLOAD DUP1 PUSH1 0xA0 ADD PUSH1 0x40 MSTORE DUP1 DUP3 TIMESTAMP LT ISZERO PUSH2 0x1B11 JUMPI PUSH2 0x1B0C TIMESTAMP DUP5 PUSH2 0x58D2 JUMP JUMPDEST PUSH2 0x1B13 JUMP JUMPDEST PUSH0 JUMPDEST DUP2 MSTORE PUSH1 0x20 ADD PUSH1 0xD4 SLOAD DUP2 MSTORE PUSH1 0x20 ADD PUSH2 0x3E8 PUSH1 0xD4 SLOAD PUSH1 0x64 PUSH2 0x1B32 SWAP2 SWAP1 PUSH2 0x59BB JUMP JUMPDEST PUSH2 0x1B3C SWAP2 SWAP1 PUSH2 0x58E5 JUMP JUMPDEST DUP2 MSTORE PUSH1 0x20 ADD PUSH2 0x1B49 PUSH2 0x36FF JUMP JUMPDEST PUSH1 0x1 PUSH1 0x1 PUSH1 0xA0 SHL SUB AND PUSH4 0x70A08231 PUSH1 0x1 PUSH1 0x40 MLOAD DUP3 PUSH4 0xFFFFFFFF AND PUSH1 0xE0 SHL DUP2 MSTORE PUSH1 0x4 ADD PUSH2 0x1B75 SWAP2 SWAP1 PUSH2 0x567C JUMP JUMPDEST PUSH1 0x20 PUSH1 0x40 MLOAD DUP1 DUP4 SUB DUP2 DUP7 GAS STATICCALL ISZERO DUP1 ISZERO PUSH2 0x1B90 JUMPI RETURNDATASIZE PUSH0 DUP1 RETURNDATACOPY RETURNDATASIZE PUSH0 REVERT JUMPDEST POP POP POP POP PUSH1 0x40 MLOAD RETURNDATASIZE PUSH1 0x1F NOT PUSH1 0x1F DUP3 ADD AND DUP3 ADD DUP1 PUSH1 0x40 MSTORE POP DUP2 ADD SWAP1 PUSH2 0x1BB4 SWAP2 SWAP1 PUSH2 0x596A JUMP JUMPDEST DUP2 MSTORE PUSH1 0x20 ADD PUSH1 0xCB PUSH1 0x1 PUSH1 0xCB DUP1 SLOAD SWAP1 POP PUSH2 0x1BCD SWAP2 SWAP1 PUSH2 0x58D2 JUMP JUMPDEST DUP2 SLOAD DUP2 LT PUSH2 0xB4E JUMPI PUSH2 0xB4E PUSH2 0x5897 JUMP JUMPDEST CALLER PUSH0 SWAP1 DUP2 MSTORE PUSH1 0xD0 PUSH1 0x20 SWAP1 DUP2 MSTORE PUSH1 0x40 DUP1 DUP4 KECCAK256 DUP1 SLOAD DUP3 MLOAD DUP2 DUP6 MUL DUP2 ADD DUP6 ADD SWAP1 SWAP4 MSTORE DUP1 DUP4 MSTORE SWAP2 SWAP3 SWAP1 SWAP2 SWAP1 DUP4 ADD DUP3 DUP3 DUP1 ISZERO PUSH2 0x1C31 JUMPI PUSH1 0x20 MUL DUP3 ADD SWAP2 SWAP1 PUSH0 MSTORE PUSH1 0x20 PUSH0 KECCAK256 SWAP1 JUMPDEST DUP2 SLOAD DUP2 MSTORE PUSH1 0x20 ADD SWAP1 PUSH1 0x1 ADD SWAP1 DUP1 DUP4 GT PUSH2 0x1C1D JUMPI JUMPDEST POP POP POP POP POP SWAP1 POP PUSH0 DUP1 PUSH2 0x1C42 PUSH2 0x445C JUMP JUMPDEST SWAP1 POP PUSH0 JUMPDEST DUP4 MLOAD DUP2 LT ISZERO PUSH2 0x1DF3 JUMPI PUSH0 PUSH1 0xCB DUP6 DUP4 DUP2 MLOAD DUP2 LT PUSH2 0x1C64 JUMPI PUSH2 0x1C64 PUSH2 0x5897 JUMP JUMPDEST PUSH1 0x20 MUL PUSH1 0x20 ADD ADD MLOAD DUP2 SLOAD DUP2 LT PUSH2 0x1C7C JUMPI PUSH2 0x1C7C PUSH2 0x5897 JUMP JUMPDEST SWAP1 PUSH0 MSTORE PUSH1 0x20 PUSH0 KECCAK256 SWAP1 PUSH1 0x4 MUL ADD SWAP1 POP PUSH1 0xC9 PUSH0 SWAP1 SLOAD SWAP1 PUSH2 0x100 EXP SWAP1 DIV PUSH1 0x1 PUSH1 0x1 PUSH1 0xA0 SHL SUB AND PUSH1 0x1 PUSH1 0x1 PUSH1 0xA0 SHL SUB AND PUSH4 0xB433A12 PUSH1 0x40 MLOAD DUP2 PUSH4 0xFFFFFFFF AND PUSH1 0xE0 SHL DUP2 MSTORE PUSH1 0x4 ADD PUSH1 0x20 PUSH1 0x40 MLOAD DUP1 DUP4 SUB DUP2 DUP7 GAS STATICCALL ISZERO DUP1 ISZERO PUSH2 0x1CDA JUMPI RETURNDATASIZE PUSH0 DUP1 RETURNDATACOPY RETURNDATASIZE PUSH0 REVERT JUMPDEST POP POP POP POP PUSH1 0x40 MLOAD RETURNDATASIZE PUSH1 0x1F NOT PUSH1 0x1F DUP3 ADD AND DUP3 ADD DUP1 PUSH1 0x40 MSTORE POP DUP2 ADD SWAP1 PUSH2 0x1CFE SWAP2 SWAP1 PUSH2 0x596A JUMP JUMPDEST PUSH1 0x3 DUP3 ADD SLOAD PUSH2 0x1D0D SWAP1 TIMESTAMP PUSH2 0x58D2 JUMP JUMPDEST GT PUSH2 0x1D2B JUMPI PUSH1 0x40 MLOAD PUSH4 0x1CA0875F PUSH1 0xE0 SHL DUP2 MSTORE PUSH1 0x4 ADD PUSH1 0x40 MLOAD DUP1 SWAP2 SUB SWAP1 REVERT JUMPDEST PUSH0 PUSH2 0x1D34 PUSH2 0x4A97 JUMP JUMPDEST DUP3 PUSH1 0x2 ADD SLOAD PUSH2 0x1D43 SWAP2 SWAP1 PUSH2 0x58BF JUMP JUMPDEST TIMESTAMP LT PUSH2 0x1D65 JUMPI PUSH2 0x1D51 PUSH2 0x4A97 JUMP JUMPDEST DUP3 PUSH1 0x2 ADD SLOAD PUSH2 0x1D60 SWAP2 SWAP1 PUSH2 0x58BF JUMP JUMPDEST PUSH2 0x1D67 JUMP JUMPDEST TIMESTAMP JUMPDEST SWAP1 POP DUP2 PUSH1 0x3 ADD SLOAD DUP2 GT PUSH2 0x1D7B JUMPI POP POP PUSH2 0x1DE3 JUMP JUMPDEST DUP4 PUSH3 0x15180 PUSH1 0x64 DUP5 PUSH1 0x1 ADD SLOAD PUSH2 0x1D91 SWAP2 SWAP1 PUSH2 0x58E5 JUMP JUMPDEST PUSH2 0x1D9B SWAP2 SWAP1 PUSH2 0x58E5 JUMP JUMPDEST PUSH1 0x3 DUP5 ADD SLOAD PUSH2 0x1DAA SWAP1 DUP5 PUSH2 0x58D2 JUMP JUMPDEST PUSH2 0x1DB4 SWAP2 SWAP1 PUSH2 0x59BB JUMP JUMPDEST PUSH2 0x1DBE SWAP2 SWAP1 PUSH2 0x58E5 JUMP JUMPDEST PUSH2 0x1DD0 SWAP1 PUSH8 0xDE0B6B3A7640000 PUSH2 0x59BB JUMP JUMPDEST PUSH2 0x1DDA SWAP1 DUP7 PUSH2 0x58BF JUMP JUMPDEST PUSH1 0x3 SWAP1 SWAP3 ADD SSTORE SWAP3 POP JUMPDEST PUSH2 0x1DEC DUP2 PUSH2 0x5A0A JUMP JUMPDEST SWAP1 POP PUSH2 0x1C46 JUMP JUMPDEST POP DUP2 ISZERO PUSH2 0x1F96 JUMPI PUSH2 0x1E02 PUSH2 0x45E8 JUMP JUMPDEST PUSH1 0x1 PUSH1 0x1 PUSH1 0xA0 SHL SUB AND PUSH4 0xF3FEF3A3 ADDRESS DUP5 PUSH1 0x40 MLOAD DUP4 PUSH4 0xFFFFFFFF AND PUSH1 0xE0 SHL DUP2 MSTORE PUSH1 0x4 ADD PUSH2 0x1E2F SWAP3 SWAP2 SWAP1 PUSH2 0x59D2 JUMP JUMPDEST PUSH0 PUSH1 0x40 MLOAD DUP1 DUP4 SUB DUP2 PUSH0 DUP8 DUP1 EXTCODESIZE ISZERO DUP1 ISZERO PUSH2 0x1E46 JUMPI PUSH0 DUP1 REVERT JUMPDEST POP GAS CALL ISZERO DUP1 ISZERO PUSH2 0x1E58 JUMPI RETURNDATASIZE PUSH0 DUP1 RETURNDATACOPY RETURNDATASIZE PUSH0 REVERT JUMPDEST POP POP POP POP PUSH2 0x1E64 PUSH2 0x36FF JUMP JUMPDEST PUSH1 0x1 PUSH1 0x1 PUSH1 0xA0 SHL SUB AND PUSH4 0xA9059CBB CALLER PUSH2 0x1E7E PUSH1 0x2 DUP7 PUSH2 0x58E5 JUMP JUMPDEST PUSH1 0x40 MLOAD DUP4 PUSH4 0xFFFFFFFF AND PUSH1 0xE0 SHL DUP2 MSTORE PUSH1 0x4 ADD PUSH2 0x1E9B SWAP3 SWAP2 SWAP1 PUSH2 0x59D2 JUMP JUMPDEST PUSH1 0x20 PUSH1 0x40 MLOAD DUP1 DUP4 SUB DUP2 PUSH0 DUP8 GAS CALL ISZERO DUP1 ISZERO PUSH2 0x1EB7 JUMPI RETURNDATASIZE PUSH0 DUP1 RETURNDATACOPY RETURNDATASIZE PUSH0 REVERT JUMPDEST POP POP POP POP PUSH1 0x40 MLOAD RETURNDATASIZE PUSH1 0x1F NOT PUSH1 0x1F DUP3 ADD AND DUP3 ADD DUP1 PUSH1 0x40 MSTORE POP DUP2 ADD SWAP1 PUSH2 0x1EDB SWAP2 SWAP1 PUSH2 0x5981 JUMP JUMPDEST POP PUSH1 0x40 DUP1 MLOAD PUSH1 0x80 DUP2 ADD SWAP1 SWAP2 MSTORE CALLER DUP2 MSTORE PUSH1 0xCC SWAP1 PUSH1 0x20 DUP2 ADD PUSH2 0x1EFC PUSH1 0x2 DUP7 PUSH2 0x58E5 JUMP JUMPDEST DUP2 MSTORE PUSH0 PUSH1 0x20 DUP1 DUP4 ADD DUP3 SWAP1 MSTORE TIMESTAMP PUSH1 0x40 SWAP4 DUP5 ADD MSTORE DUP5 SLOAD PUSH1 0x1 DUP1 DUP3 ADD DUP8 SSTORE SWAP6 DUP4 MSTORE SWAP2 DUP2 SWAP1 KECCAK256 DUP5 MLOAD PUSH1 0x4 SWAP1 SWAP4 MUL ADD DUP1 SLOAD PUSH1 0x1 PUSH1 0x1 PUSH1 0xA0 SHL SUB NOT AND PUSH1 0x1 PUSH1 0x1 PUSH1 0xA0 SHL SUB SWAP1 SWAP4 AND SWAP3 SWAP1 SWAP3 OR DUP3 SSTORE DUP4 ADD MLOAD SWAP4 DUP2 ADD SWAP4 SWAP1 SWAP4 SSTORE DUP2 ADD MLOAD PUSH1 0x2 DUP1 DUP5 ADD SWAP2 SWAP1 SWAP2 SSTORE PUSH1 0x60 SWAP1 SWAP2 ADD MLOAD PUSH1 0x3 SWAP1 SWAP3 ADD SWAP2 SWAP1 SWAP2 SSTORE PUSH2 0x1F72 SWAP1 DUP4 PUSH2 0x58E5 JUMP JUMPDEST CALLER PUSH0 SWAP1 DUP2 MSTORE PUSH1 0xD3 PUSH1 0x20 MSTORE PUSH1 0x40 DUP2 KECCAK256 DUP1 SLOAD SWAP1 SWAP2 SWAP1 PUSH2 0x1F90 SWAP1 DUP5 SWAP1 PUSH2 0x58BF JUMP JUMPDEST SWAP1 SWAP2 SSTORE POP POP JUMPDEST PUSH2 0x1F9E PUSH2 0x280E JUMP JUMPDEST PUSH2 0x1FA6 PUSH2 0x376A JUMP JUMPDEST POP POP POP JUMP JUMPDEST PUSH1 0x1 PUSH1 0x1 PUSH1 0xA0 SHL SUB PUSH32 0x0 AND ADDRESS SUB PUSH2 0x1FF3 JUMPI PUSH1 0x40 MLOAD PUSH3 0x461BCD PUSH1 0xE5 SHL DUP2 MSTORE PUSH1 0x4 ADD PUSH2 0xBF9 SWAP1 PUSH2 0x58F8 JUMP JUMPDEST PUSH32 0x0 PUSH1 0x1 PUSH1 0x1 PUSH1 0xA0 SHL SUB AND PUSH2 0x2025 PUSH2 0x4288 JUMP JUMPDEST PUSH1 0x1 PUSH1 0x1 PUSH1 0xA0 SHL SUB AND EQ PUSH2 0x204B JUMPI PUSH1 0x40 MLOAD PUSH3 0x461BCD PUSH1 0xE5 SHL DUP2 MSTORE PUSH1 0x4 ADD PUSH2 0xBF9 SWAP1 PUSH2 0x5931 JUMP JUMPDEST PUSH2 0x2054 DUP3 PUSH2 0x42A3 JUMP JUMPDEST PUSH2 0x2060 DUP3 DUP3 PUSH1 0x1 PUSH2 0x42AB JUMP JUMPDEST POP POP JUMP JUMPDEST PUSH1 0x60 PUSH0 PUSH2 0x2071 DUP5 DUP5 PUSH2 0x58D2 JUMP JUMPDEST PUSH2 0x207C SWAP1 PUSH1 0x1 PUSH2 0x58BF JUMP JUMPDEST SWAP1 POP DUP1 PUSH1 0x1 PUSH1 0x1 PUSH1 0x40 SHL SUB DUP2 GT ISZERO PUSH2 0x2096 JUMPI PUSH2 0x2096 PUSH2 0x54C4 JUMP JUMPDEST PUSH1 0x40 MLOAD SWAP1 DUP1 DUP3 MSTORE DUP1 PUSH1 0x20 MUL PUSH1 0x20 ADD DUP3 ADD PUSH1 0x40 MSTORE DUP1 ISZERO PUSH2 0x20DF JUMPI DUP2 PUSH1 0x20 ADD JUMPDEST PUSH1 0x40 DUP1 MLOAD PUSH1 0x60 DUP2 ADD DUP3 MSTORE PUSH0 DUP1 DUP3 MSTORE PUSH1 0x20 DUP1 DUP4 ADD DUP3 SWAP1 MSTORE SWAP3 DUP3 ADD MSTORE DUP3 MSTORE PUSH0 NOT SWAP1 SWAP3 ADD SWAP2 ADD DUP2 PUSH2 0x20B4 JUMPI SWAP1 POP JUMPDEST POP SWAP2 POP PUSH0 JUMPDEST DUP2 DUP2 LT ISZERO PUSH2 0x217F JUMPI PUSH1 0xCA PUSH2 0x20F8 DUP3 DUP8 PUSH2 0x58BF JUMP JUMPDEST DUP2 SLOAD DUP2 LT PUSH2 0x2108 JUMPI PUSH2 0x2108 PUSH2 0x5897 JUMP JUMPDEST PUSH0 SWAP2 DUP3 MSTORE PUSH1 0x20 SWAP2 DUP3 SWAP1 KECCAK256 PUSH1 0x40 DUP1 MLOAD PUSH1 0x60 DUP2 ADD DUP3 MSTORE PUSH1 0x3 SWAP1 SWAP4 MUL SWAP1 SWAP2 ADD DUP1 SLOAD PUSH1 0x1 PUSH1 0x1 PUSH1 0xA0 SHL SUB SWAP1 DUP2 AND DUP5 MSTORE PUSH1 0x1 DUP3 ADD SLOAD AND SWAP4 DUP4 ADD SWAP4 SWAP1 SWAP4 MSTORE PUSH1 0x2 SWAP1 SWAP3 ADD SLOAD SWAP2 DUP2 ADD SWAP2 SWAP1 SWAP2 MSTORE DUP4 MLOAD DUP5 SWAP1 DUP4 SWAP1 DUP2 LT PUSH2 0x2161 JUMPI PUSH2 0x2161 PUSH2 0x5897 JUMP JUMPDEST PUSH1 0x20 MUL PUSH1 0x20 ADD ADD DUP2 SWAP1 MSTORE POP DUP1 DUP1 PUSH2 0x2177 SWAP1 PUSH2 0x5A0A JUMP JUMPDEST SWAP2 POP POP PUSH2 0x20E4 JUMP JUMPDEST POP POP SWAP3 SWAP2 POP POP JUMP JUMPDEST PUSH0 ADDRESS PUSH1 0x1 PUSH1 0x1 PUSH1 0xA0 SHL SUB PUSH32 0x0 AND EQ PUSH2 0x2221 JUMPI PUSH1 0x40 MLOAD PUSH3 0x461BCD PUSH1 0xE5 SHL DUP2 MSTORE PUSH1 0x20 PUSH1 0x4 DUP3 ADD MSTORE PUSH1 0x38 PUSH1 0x24 DUP3 ADD MSTORE PUSH32 0x555550535570677261646561626C653A206D757374206E6F742062652063616C PUSH1 0x44 DUP3 ADD MSTORE PUSH24 0x1B1959081D1A1C9BDD59DA0819195B1959D85D1958D85B1B PUSH1 0x42 SHL PUSH1 0x64 DUP3 ADD MSTORE PUSH1 0x84 ADD PUSH2 0xBF9 JUMP JUMPDEST POP PUSH0 DUP1 MLOAD PUSH1 0x20 PUSH2 0x5D15 DUP4 CODECOPY DUP2 MLOAD SWAP2 MSTORE SWAP1 JUMP JUMPDEST PUSH1 0xC9 SLOAD PUSH1 0x1 PUSH1 0x1 PUSH1 0xA0 SHL SUB AND CALLER EQ PUSH2 0x225E JUMPI PUSH1 0x40 MLOAD PUSH4 0x37816CF PUSH1 0xE0 SHL DUP2 MSTORE PUSH1 0x4 ADD PUSH1 0x40 MLOAD DUP1 SWAP2 SUB SWAP1 REVERT JUMPDEST PUSH1 0x1 PUSH1 0x1 PUSH1 0xA0 SHL SUB DUP3 DUP2 AND PUSH0 DUP2 DUP2 MSTORE PUSH1 0xD0 PUSH1 0x20 SWAP1 DUP2 MSTORE PUSH1 0x40 DUP1 DUP4 KECCAK256 PUSH1 0xCB DUP1 SLOAD DUP3 SLOAD PUSH1 0x1 DUP1 DUP3 ADD DUP6 SSTORE SWAP4 DUP8 MSTORE DUP6 DUP8 KECCAK256 ADD SSTORE DUP3 MLOAD PUSH1 0x80 DUP2 ADD DUP5 MSTORE SWAP6 DUP7 MSTORE DUP6 DUP5 ADD DUP9 DUP2 MSTORE TIMESTAMP DUP8 DUP6 ADD DUP2 DUP2 MSTORE PUSH1 0x60 DUP10 ADD SWAP2 DUP3 MSTORE DUP4 SLOAD DUP1 DUP7 ADD DUP6 SSTORE SWAP4 DUP9 MSTORE SWAP8 MLOAD PUSH0 DUP1 MLOAD PUSH1 0x20 PUSH2 0x5CB5 DUP4 CODECOPY DUP2 MLOAD SWAP2 MSTORE PUSH1 0x4 SWAP1 SWAP5 MUL SWAP4 DUP5 ADD DUP1 SLOAD PUSH1 0x1 PUSH1 0x1 PUSH1 0xA0 SHL SUB NOT AND SWAP2 SWAP1 SWAP11 AND OR SWAP1 SWAP9 SSTORE MLOAD PUSH0 DUP1 MLOAD PUSH1 0x20 PUSH2 0x5C95 DUP4 CODECOPY DUP2 MLOAD SWAP2 MSTORE DUP3 ADD SSTORE SWAP5 MLOAD PUSH0 DUP1 MLOAD PUSH1 0x20 PUSH2 0x5CD5 DUP4 CODECOPY DUP2 MLOAD SWAP2 MSTORE DUP7 ADD SSTORE SWAP5 MLOAD PUSH0 DUP1 MLOAD PUSH1 0x20 PUSH2 0x5D5C DUP4 CODECOPY DUP2 MLOAD SWAP2 MSTORE SWAP1 SWAP5 ADD SWAP4 SWAP1 SWAP4 SSTORE CALLER DUP3 MSTORE PUSH1 0xD1 SWAP1 MSTORE KECCAK256 DUP1 SLOAD PUSH1 0xFF NOT AND SWAP1 SWAP2 OR SWAP1 SSTORE PUSH2 0x233A PUSH2 0x462F JUMP JUMPDEST PUSH2 0x2060 PUSH2 0x47FD JUMP JUMPDEST PUSH2 0x234A PUSH2 0x539B JUMP JUMPDEST PUSH1 0xCE DUP3 DUP2 SLOAD DUP2 LT PUSH2 0x235D JUMPI PUSH2 0x235D PUSH2 0x5897 JUMP JUMPDEST PUSH0 SWAP2 DUP3 MSTORE PUSH1 0x20 SWAP2 DUP3 SWAP1 KECCAK256 PUSH1 0x40 DUP1 MLOAD PUSH1 0x80 DUP2 ADD DUP3 MSTORE PUSH1 0x4 SWAP1 SWAP4 MUL SWAP1 SWAP2 ADD DUP1 SLOAD PUSH1 0x1 PUSH1 0x1 PUSH1 0xA0 SHL SUB AND DUP4 MSTORE PUSH1 0x1 DUP2 ADD SLOAD SWAP4 DUP4 ADD SWAP4 SWAP1 SWAP4 MSTORE PUSH1 0x2 DUP4 ADD SLOAD SWAP1 DUP3 ADD MSTORE PUSH1 0x3 SWAP1 SWAP2 ADD SLOAD PUSH1 0x60 DUP3 ADD MSTORE SWAP3 SWAP2 POP POP JUMP JUMPDEST PUSH2 0x23B4 PUSH2 0x4229 JUMP JUMPDEST PUSH2 0x23BD PUSH0 PUSH2 0x4B02 JUMP JUMPDEST JUMP JUMPDEST PUSH0 PUSH2 0x23C8 PUSH2 0x445C JUMP JUMPDEST SWAP1 POP SWAP1 JUMP JUMPDEST PUSH1 0x33 SLOAD PUSH1 0x1 PUSH1 0x1 PUSH1 0xA0 SHL SUB AND SWAP1 JUMP JUMPDEST PUSH2 0x23E4 PUSH2 0x36FF JUMP JUMPDEST PUSH1 0x1 PUSH1 0x1 PUSH1 0xA0 SHL SUB AND PUSH4 0x23B872DD CALLER PUSH1 0x1 DUP5 PUSH1 0x40 MLOAD DUP5 PUSH4 0xFFFFFFFF AND PUSH1 0xE0 SHL DUP2 MSTORE PUSH1 0x4 ADD PUSH2 0x2414 SWAP4 SWAP3 SWAP2 SWAP1 PUSH2 0x5480 JUMP JUMPDEST PUSH1 0x20 PUSH1 0x40 MLOAD DUP1 DUP4 SUB DUP2 PUSH0 DUP8 GAS CALL ISZERO DUP1 ISZERO PUSH2 0x2430 JUMPI RETURNDATASIZE PUSH0 DUP1 RETURNDATACOPY RETURNDATASIZE PUSH0 REVERT JUMPDEST POP POP POP POP PUSH1 0x40 MLOAD RETURNDATASIZE PUSH1 0x1F NOT PUSH1 0x1F DUP3 ADD AND DUP3 ADD DUP1 PUSH1 0x40 MSTORE POP DUP2 ADD SWAP1 PUSH2 0x2454 SWAP2 SWAP1 PUSH2 0x5981 JUMP JUMPDEST POP PUSH0 DUP1 PUSH2 0x245F PUSH2 0x41E2 JUMP JUMPDEST PUSH1 0x1 PUSH1 0x1 PUSH1 0xA0 SHL SUB AND PUSH4 0x902F1AC PUSH1 0x40 MLOAD DUP2 PUSH4 0xFFFFFFFF AND PUSH1 0xE0 SHL DUP2 MSTORE PUSH1 0x4 ADD PUSH1 0x60 PUSH1 0x40 MLOAD DUP1 DUP4 SUB DUP2 DUP7 GAS STATICCALL ISZERO DUP1 ISZERO PUSH2 0x249A JUMPI RETURNDATASIZE PUSH0 DUP1 RETURNDATACOPY RETURNDATASIZE PUSH0 REVERT JUMPDEST POP POP POP POP PUSH1 0x40 MLOAD RETURNDATASIZE PUSH1 0x1F NOT PUSH1 0x1F DUP3 ADD AND DUP3 ADD DUP1 PUSH1 0x40 MSTORE POP DUP2 ADD SWAP1 PUSH2 0x24BE SWAP2 SWAP1 PUSH2 0x5824 JUMP JUMPDEST POP SWAP2 POP SWAP2 POP PUSH0 DUP1 PUSH2 0x24CD PUSH2 0x4415 JUMP JUMPDEST PUSH1 0x1 PUSH1 0x1 PUSH1 0xA0 SHL SUB AND PUSH2 0x24DE PUSH2 0x41E2 JUMP JUMPDEST PUSH1 0x1 PUSH1 0x1 PUSH1 0xA0 SHL SUB AND PUSH4 0xDFE1681 PUSH1 0x40 MLOAD DUP2 PUSH4 0xFFFFFFFF AND PUSH1 0xE0 SHL DUP2 MSTORE PUSH1 0x4 ADD PUSH1 0x20 PUSH1 0x40 MLOAD DUP1 DUP4 SUB DUP2 DUP7 GAS STATICCALL ISZERO DUP1 ISZERO PUSH2 0x2519 JUMPI RETURNDATASIZE PUSH0 DUP1 RETURNDATACOPY RETURNDATASIZE PUSH0 REVERT JUMPDEST POP POP POP POP PUSH1 0x40 MLOAD RETURNDATASIZE PUSH1 0x1F NOT PUSH1 0x1F DUP3 ADD AND DUP3 ADD DUP1 PUSH1 0x40 MSTORE POP DUP2 ADD SWAP1 PUSH2 0x253D SWAP2 SWAP1 PUSH2 0x59A0 JUMP JUMPDEST PUSH1 0x1 PUSH1 0x1 PUSH1 0xA0 SHL SUB AND EQ PUSH2 0x2552 JUMPI DUP3 DUP5 PUSH2 0x2555 JUMP JUMPDEST DUP4 DUP4 JUMPDEST SWAP2 POP SWAP2 POP PUSH0 PUSH2 0x2562 PUSH2 0x41E2 JUMP JUMPDEST PUSH1 0x1 PUSH1 0x1 PUSH1 0xA0 SHL SUB AND PUSH4 0x54D50D4 DUP8 DUP5 DUP7 PUSH1 0x40 MLOAD DUP5 PUSH4 0xFFFFFFFF AND PUSH1 0xE0 SHL DUP2 MSTORE PUSH1 0x4 ADD PUSH2 0x2591 SWAP4 SWAP3 SWAP2 SWAP1 PUSH2 0x59EB JUMP JUMPDEST PUSH1 0x20 PUSH1 0x40 MLOAD DUP1 DUP4 SUB DUP2 DUP7 GAS STATICCALL ISZERO DUP1 ISZERO PUSH2 0x25AC JUMPI RETURNDATASIZE PUSH0 DUP1 RETURNDATACOPY RETURNDATASIZE PUSH0 REVERT JUMPDEST POP POP POP POP PUSH1 0x40 MLOAD RETURNDATASIZE PUSH1 0x1F NOT PUSH1 0x1F DUP3 ADD AND DUP3 ADD DUP1 PUSH1 0x40 MSTORE POP DUP2 ADD SWAP1 PUSH2 0x25D0 SWAP2 SWAP1 PUSH2 0x596A JUMP JUMPDEST SWAP1 POP PUSH0 DUP4 PUSH1 0x1 PUSH1 0x1 PUSH1 0x70 SHL SUB AND DUP3 DUP5 PUSH1 0x1 PUSH1 0x1 PUSH1 0x70 SHL SUB AND PUSH2 0x25F2 SWAP2 SWAP1 PUSH2 0x59BB JUMP JUMPDEST PUSH2 0x25FC SWAP2 SWAP1 PUSH2 0x58E5 JUMP JUMPDEST SWAP1 POP PUSH0 DUP1 PUSH2 0x2608 PUSH2 0x4415 JUMP JUMPDEST PUSH1 0x1 PUSH1 0x1 PUSH1 0xA0 SHL SUB AND PUSH2 0x2619 PUSH2 0x41E2 JUMP JUMPDEST PUSH1 0x1 PUSH1 0x1 PUSH1 0xA0 SHL SUB AND PUSH4 0xDFE1681 PUSH1 0x40 MLOAD DUP2 PUSH4 0xFFFFFFFF AND PUSH1 0xE0 SHL DUP2 MSTORE PUSH1 0x4 ADD PUSH1 0x20 PUSH1 0x40 MLOAD DUP1 DUP4 SUB DUP2 DUP7 GAS STATICCALL ISZERO DUP1 ISZERO PUSH2 0x2654 JUMPI RETURNDATASIZE PUSH0 DUP1 RETURNDATACOPY RETURNDATASIZE PUSH0 REVERT JUMPDEST POP POP POP POP PUSH1 0x40 MLOAD RETURNDATASIZE PUSH1 0x1F NOT PUSH1 0x1F DUP3 ADD AND DUP3 ADD DUP1 PUSH1 0x40 MSTORE POP DUP2 ADD SWAP1 PUSH2 0x2678 SWAP2 SWAP1 PUSH2 0x59A0 JUMP JUMPDEST PUSH1 0x1 PUSH1 0x1 PUSH1 0xA0 SHL SUB AND EQ PUSH2 0x268D JUMPI DUP3 DUP5 PUSH2 0x2690 JUMP JUMPDEST DUP4 DUP4 JUMPDEST SWAP2 POP SWAP2 POP PUSH2 0x269C PUSH2 0x41E2 JUMP JUMPDEST PUSH1 0x40 MLOAD PUSH4 0xE840427D PUSH1 0xE0 SHL DUP2 MSTORE PUSH1 0x4 DUP2 ADD DUP5 SWAP1 MSTORE PUSH1 0x24 DUP2 ADD DUP4 SWAP1 MSTORE ADDRESS PUSH1 0x44 DUP3 ADD MSTORE PUSH1 0x1 PUSH1 0x1 PUSH1 0xA0 SHL SUB SWAP2 SWAP1 SWAP2 AND SWAP1 PUSH4 0xE840427D SWAP1 PUSH1 0x64 ADD PUSH0 PUSH1 0x40 MLOAD DUP1 DUP4 SUB DUP2 PUSH0 DUP8 DUP1 EXTCODESIZE ISZERO DUP1 ISZERO PUSH2 0x26EA JUMPI PUSH0 DUP1 REVERT JUMPDEST POP GAS CALL ISZERO DUP1 ISZERO PUSH2 0x26FC JUMPI RETURNDATASIZE PUSH0 DUP1 RETURNDATACOPY RETURNDATASIZE PUSH0 REVERT JUMPDEST POP POP POP POP PUSH2 0x2708 PUSH2 0x4415 JUMP JUMPDEST PUSH1 0x1 PUSH1 0x1 PUSH1 0xA0 SHL SUB AND PUSH4 0xA9059CBB CALLER DUP7 PUSH1 0x40 MLOAD DUP4 PUSH4 0xFFFFFFFF AND PUSH1 0xE0 SHL DUP2 MSTORE PUSH1 0x4 ADD PUSH2 0x2735 SWAP3 SWAP2 SWAP1 PUSH2 0x59D2 JUMP JUMPDEST PUSH1 0x20 PUSH1 0x40 MLOAD DUP1 DUP4 SUB DUP2 PUSH0 DUP8 GAS CALL ISZERO DUP1 ISZERO PUSH2 0x2751 JUMPI RETURNDATASIZE PUSH0 DUP1 RETURNDATACOPY RETURNDATASIZE PUSH0 REVERT JUMPDEST POP POP POP POP PUSH1 0x40 MLOAD RETURNDATASIZE PUSH1 0x1F NOT PUSH1 0x1F DUP3 ADD AND DUP3 ADD DUP1 PUSH1 0x40 MSTORE POP DUP2 ADD SWAP1 PUSH2 0x2775 SWAP2 SWAP1 PUSH2 0x5981 JUMP JUMPDEST POP PUSH2 0x277E PUSH2 0x36FF JUMP JUMPDEST PUSH1 0x1 PUSH1 0x1 PUSH1 0xA0 SHL SUB AND PUSH4 0xA9059CBB PUSH2 0x2794 PUSH2 0x45E8 JUMP JUMPDEST DUP6 PUSH1 0x40 MLOAD DUP4 PUSH4 0xFFFFFFFF AND PUSH1 0xE0 SHL DUP2 MSTORE PUSH1 0x4 ADD PUSH2 0x27B2 SWAP3 SWAP2 SWAP1 PUSH2 0x59D2 JUMP JUMPDEST PUSH1 0x20 PUSH1 0x40 MLOAD DUP1 DUP4 SUB DUP2 PUSH0 DUP8 GAS CALL ISZERO DUP1 ISZERO PUSH2 0x27CE JUMPI RETURNDATASIZE PUSH0 DUP1 RETURNDATACOPY RETURNDATASIZE PUSH0 REVERT JUMPDEST POP POP POP POP PUSH1 0x40 MLOAD RETURNDATASIZE PUSH1 0x1F NOT PUSH1 0x1F DUP3 ADD AND DUP3 ADD DUP1 PUSH1 0x40 MSTORE POP DUP2 ADD SWAP1 PUSH2 0x27F2 SWAP2 SWAP1 PUSH2 0x5981 JUMP JUMPDEST POP PUSH2 0x27FB PUSH2 0x280E JUMP JUMPDEST PUSH2 0x2803 PUSH2 0x376A JUMP JUMPDEST POP POP POP POP POP POP POP POP POP JUMP JUMPDEST PUSH0 PUSH2 0x2817 PUSH2 0x36FF JUMP JUMPDEST PUSH1 0x1 PUSH1 0x1 PUSH1 0xA0 SHL SUB AND PUSH4 0x70A08231 PUSH2 0x282D PUSH2 0x45E8 JUMP JUMPDEST PUSH1 0x40 MLOAD DUP3 PUSH4 0xFFFFFFFF AND PUSH1 0xE0 SHL DUP2 MSTORE PUSH1 0x4 ADD PUSH2 0x2849 SWAP2 SWAP1 PUSH2 0x567C JUMP JUMPDEST PUSH1 0x20 PUSH1 0x40 MLOAD DUP1 DUP4 SUB DUP2 DUP7 GAS STATICCALL ISZERO DUP1 ISZERO PUSH2 0x2864 JUMPI RETURNDATASIZE PUSH0 DUP1 RETURNDATACOPY RETURNDATASIZE PUSH0 REVERT JUMPDEST POP POP POP POP PUSH1 0x40 MLOAD RETURNDATASIZE PUSH1 0x1F NOT PUSH1 0x1F DUP3 ADD AND DUP3 ADD DUP1 PUSH1 0x40 MSTORE POP DUP2 ADD SWAP1 PUSH2 0x2888 SWAP2 SWAP1 PUSH2 0x596A JUMP JUMPDEST SWAP1 POP PUSH0 PUSH2 0x2893 PUSH2 0x36FF JUMP JUMPDEST PUSH1 0x1 PUSH1 0x1 PUSH1 0xA0 SHL SUB AND PUSH4 0x70A08231 PUSH2 0x28A9 PUSH2 0x41E2 JUMP JUMPDEST PUSH1 0x40 MLOAD DUP3 PUSH4 0xFFFFFFFF AND PUSH1 0xE0 SHL DUP2 MSTORE PUSH1 0x4 ADD PUSH2 0x28C5 SWAP2 SWAP1 PUSH2 0x567C JUMP JUMPDEST PUSH1 0x20 PUSH1 0x40 MLOAD DUP1 DUP4 SUB DUP2 DUP7 GAS STATICCALL ISZERO DUP1 ISZERO PUSH2 0x28E0 JUMPI RETURNDATASIZE PUSH0 DUP1 RETURNDATACOPY RETURNDATASIZE PUSH0 REVERT JUMPDEST POP POP POP POP PUSH1 0x40 MLOAD RETURNDATASIZE PUSH1 0x1F NOT PUSH1 0x1F DUP3 ADD AND DUP3 ADD DUP1 PUSH1 0x40 MSTORE POP DUP2 ADD SWAP1 PUSH2 0x2904 SWAP2 SWAP1 PUSH2 0x596A JUMP JUMPDEST SWAP1 POP PUSH2 0x3E8 PUSH2 0x2914 DUP4 PUSH1 0x32 PUSH2 0x59BB JUMP JUMPDEST PUSH2 0x291E SWAP2 SWAP1 PUSH2 0x58E5 JUMP JUMPDEST PUSH2 0x2928 SWAP1 DUP4 PUSH2 0x58BF JUMP JUMPDEST DUP2 GT PUSH2 0x2932 JUMPI POP POP JUMP JUMPDEST PUSH0 DUP1 PUSH2 0x293C PUSH2 0x41E2 JUMP JUMPDEST PUSH1 0x1 PUSH1 0x1 PUSH1 0xA0 SHL SUB AND PUSH4 0x902F1AC PUSH1 0x40 MLOAD DUP2 PUSH4 0xFFFFFFFF AND PUSH1 0xE0 SHL DUP2 MSTORE PUSH1 0x4 ADD PUSH1 0x60 PUSH1 0x40 MLOAD DUP1 DUP4 SUB DUP2 DUP7 GAS STATICCALL ISZERO DUP1 ISZERO PUSH2 0x2977 JUMPI RETURNDATASIZE PUSH0 DUP1 RETURNDATACOPY RETURNDATASIZE PUSH0 REVERT JUMPDEST POP POP POP POP PUSH1 0x40 MLOAD RETURNDATASIZE PUSH1 0x1F NOT PUSH1 0x1F DUP3 ADD AND DUP3 ADD DUP1 PUSH1 0x40 MSTORE POP DUP2 ADD SWAP1 PUSH2 0x299B SWAP2 SWAP1 PUSH2 0x5824 JUMP JUMPDEST POP SWAP2 POP SWAP2 POP PUSH2 0x29A8 PUSH2 0x41E2 JUMP JUMPDEST PUSH1 0x1 PUSH1 0x1 PUSH1 0xA0 SHL SUB AND PUSH4 0xE840427D PUSH2 0x3E8 PUSH2 0x29C4 DUP6 PUSH1 0xA PUSH2 0x5A22 JUMP JUMPDEST PUSH2 0x29CE SWAP2 SWAP1 PUSH2 0x5A45 JUMP JUMPDEST PUSH2 0x3E8 PUSH2 0x29DC DUP6 PUSH1 0xA PUSH2 0x5A22 JUMP JUMPDEST PUSH2 0x29E6 SWAP2 SWAP1 PUSH2 0x5A45 JUMP JUMPDEST ADDRESS PUSH1 0x40 MLOAD DUP5 PUSH4 0xFFFFFFFF AND PUSH1 0xE0 SHL DUP2 MSTORE PUSH1 0x4 ADD PUSH2 0x2A05 SWAP4 SWAP3 SWAP2 SWAP1 PUSH2 0x5A6A JUMP JUMPDEST PUSH0 PUSH1 0x40 MLOAD DUP1 DUP4 SUB DUP2 PUSH0 DUP8 DUP1 EXTCODESIZE ISZERO DUP1 ISZERO PUSH2 0x2A1C JUMPI PUSH0 DUP1 REVERT JUMPDEST POP GAS CALL ISZERO DUP1 ISZERO PUSH2 0x2A2E JUMPI RETURNDATASIZE PUSH0 DUP1 RETURNDATACOPY RETURNDATASIZE PUSH0 REVERT JUMPDEST POP POP POP POP PUSH0 DUP1 PUSH2 0x2A3C PUSH2 0x4415 JUMP JUMPDEST PUSH1 0x1 PUSH1 0x1 PUSH1 0xA0 SHL SUB AND PUSH2 0x2A4D PUSH2 0x41E2 JUMP JUMPDEST PUSH1 0x1 PUSH1 0x1 PUSH1 0xA0 SHL SUB AND PUSH4 0xDFE1681 PUSH1 0x40 MLOAD DUP2 PUSH4 0xFFFFFFFF AND PUSH1 0xE0 SHL DUP2 MSTORE PUSH1 0x4 ADD PUSH1 0x20 PUSH1 0x40 MLOAD DUP1 DUP4 SUB DUP2 DUP7 GAS STATICCALL ISZERO DUP1 ISZERO PUSH2 0x2A88 JUMPI RETURNDATASIZE PUSH0 DUP1 RETURNDATACOPY RETURNDATASIZE PUSH0 REVERT JUMPDEST POP POP POP POP PUSH1 0x40 MLOAD RETURNDATASIZE PUSH1 0x1F NOT PUSH1 0x1F DUP3 ADD AND DUP3 ADD DUP1 PUSH1 0x40 MSTORE POP DUP2 ADD SWAP1 PUSH2 0x2AAC SWAP2 SWAP1 PUSH2 0x59A0 JUMP JUMPDEST PUSH1 0x1 PUSH1 0x1 PUSH1 0xA0 SHL SUB AND EQ PUSH2 0x2AC1 JUMPI DUP3 DUP5 PUSH2 0x2AC4 JUMP JUMPDEST DUP4 DUP4 JUMPDEST SWAP2 POP SWAP2 POP PUSH2 0x2AD0 PUSH2 0x36FF JUMP JUMPDEST PUSH1 0x1 PUSH1 0x1 PUSH1 0xA0 SHL SUB AND PUSH4 0xA9059CBB PUSH2 0x2AE6 PUSH2 0x45E8 JUMP JUMPDEST PUSH2 0x3E8 PUSH2 0x2AF4 DUP6 PUSH1 0xA PUSH2 0x5A22 JUMP JUMPDEST PUSH2 0x2AFE SWAP2 SWAP1 PUSH2 0x5A45 JUMP JUMPDEST PUSH1 0x40 MLOAD DUP4 PUSH4 0xFFFFFFFF AND PUSH1 0xE0 SHL DUP2 MSTORE PUSH1 0x4 ADD PUSH2 0x2B1B SWAP3 SWAP2 SWAP1 PUSH2 0x5A96 JUMP JUMPDEST PUSH1 0x20 PUSH1 0x40 MLOAD DUP1 DUP4 SUB DUP2 PUSH0 DUP8 GAS CALL ISZERO DUP1 ISZERO PUSH2 0x2B37 JUMPI RETURNDATASIZE PUSH0 DUP1 RETURNDATACOPY RETURNDATASIZE PUSH0 REVERT JUMPDEST POP POP POP POP PUSH1 0x40 MLOAD RETURNDATASIZE PUSH1 0x1F NOT PUSH1 0x1F DUP3 ADD AND DUP3 ADD DUP1 PUSH1 0x40 MSTORE POP DUP2 ADD SWAP1 PUSH2 0x2B5B SWAP2 SWAP1 PUSH2 0x5981 JUMP JUMPDEST POP PUSH2 0x2B64 PUSH2 0x4415 JUMP JUMPDEST PUSH1 0x1 PUSH1 0x1 PUSH1 0xA0 SHL SUB AND PUSH4 0x95EA7B3 PUSH2 0x2B7A PUSH2 0x41E2 JUMP JUMPDEST PUSH2 0x3E8 PUSH2 0x2B88 DUP7 PUSH1 0xA PUSH2 0x5A22 JUMP JUMPDEST PUSH2 0x2B92 SWAP2 SWAP1 PUSH2 0x5A45 JUMP JUMPDEST PUSH1 0x40 MLOAD DUP4 PUSH4 0xFFFFFFFF AND PUSH1 0xE0 SHL DUP2 MSTORE PUSH1 0x4 ADD PUSH2 0x2BAF SWAP3 SWAP2 SWAP1 PUSH2 0x5A96 JUMP JUMPDEST PUSH1 0x20 PUSH1 0x40 MLOAD DUP1 DUP4 SUB DUP2 PUSH0 DUP8 GAS CALL ISZERO DUP1 ISZERO PUSH2 0x2BCB JUMPI RETURNDATASIZE PUSH0 DUP1 RETURNDATACOPY RETURNDATASIZE PUSH0 REVERT JUMPDEST POP POP POP POP PUSH1 0x40 MLOAD RETURNDATASIZE PUSH1 0x1F NOT PUSH1 0x1F DUP3 ADD AND DUP3 ADD DUP1 PUSH1 0x40 MSTORE POP DUP2 ADD SWAP1 PUSH2 0x2BEF SWAP2 SWAP1 PUSH2 0x5981 JUMP JUMPDEST POP PUSH2 0x2BF8 PUSH2 0x41E2 JUMP JUMPDEST PUSH1 0x1 PUSH1 0x1 PUSH1 0xA0 SHL SUB AND PUSH4 0xA1E15411 PUSH2 0x2C0E PUSH2 0x4415 JUMP JUMPDEST PUSH2 0x2C16 PUSH2 0x45E8 JUMP JUMPDEST PUSH2 0x3E8 PUSH2 0x2C24 DUP8 PUSH1 0xA PUSH2 0x5A22 JUMP JUMPDEST PUSH2 0x2C2E SWAP2 SWAP1 PUSH2 0x5A45 JUMP JUMPDEST PUSH1 0x40 MLOAD DUP5 PUSH4 0xFFFFFFFF AND PUSH1 0xE0 SHL DUP2 MSTORE PUSH1 0x4 ADD PUSH2 0x2C4C SWAP4 SWAP3 SWAP2 SWAP1 PUSH2 0x5AB8 JUMP JUMPDEST PUSH1 0x20 PUSH1 0x40 MLOAD DUP1 DUP4 SUB DUP2 PUSH0 DUP8 GAS CALL ISZERO DUP1 ISZERO PUSH2 0x2C68 JUMPI RETURNDATASIZE PUSH0 DUP1 RETURNDATACOPY RETURNDATASIZE PUSH0 REVERT JUMPDEST POP POP POP POP PUSH1 0x40 MLOAD RETURNDATASIZE PUSH1 0x1F NOT PUSH1 0x1F DUP3 ADD AND DUP3 ADD DUP1 PUSH1 0x40 MSTORE POP DUP2 ADD SWAP1 PUSH2 0x2C8C SWAP2 SWAP1 PUSH2 0x596A JUMP JUMPDEST POP POP POP POP POP POP POP JUMP JUMPDEST PUSH2 0x2C9D PUSH2 0x539B JUMP JUMPDEST PUSH1 0xCD DUP3 DUP2 SLOAD DUP2 LT PUSH2 0x235D JUMPI PUSH2 0x235D PUSH2 0x5897 JUMP JUMPDEST PUSH1 0xD0 PUSH1 0x20 MSTORE DUP2 PUSH0 MSTORE PUSH1 0x40 PUSH0 KECCAK256 DUP2 DUP2 SLOAD DUP2 LT PUSH2 0x2CC9 JUMPI PUSH0 DUP1 REVERT JUMPDEST SWAP1 PUSH0 MSTORE PUSH1 0x20 PUSH0 KECCAK256 ADD PUSH0 SWAP2 POP SWAP2 POP POP SLOAD DUP2 JUMP JUMPDEST PUSH0 SLOAD PUSH2 0x100 SWAP1 DIV PUSH1 0xFF AND ISZERO DUP1 DUP1 ISZERO PUSH2 0x2CF9 JUMPI POP PUSH0 SLOAD PUSH1 0x1 PUSH1 0xFF SWAP1 SWAP2 AND LT JUMPDEST DUP1 PUSH2 0x2D19 JUMPI POP PUSH2 0x2D08 ADDRESS PUSH2 0x4B53 JUMP JUMPDEST ISZERO DUP1 ISZERO PUSH2 0x2D19 JUMPI POP PUSH0 SLOAD PUSH1 0xFF AND PUSH1 0x1 EQ JUMPDEST PUSH2 0x2D7C JUMPI PUSH1 0x40 MLOAD PUSH3 0x461BCD PUSH1 0xE5 SHL DUP2 MSTORE PUSH1 0x20 PUSH1 0x4 DUP3 ADD MSTORE PUSH1 0x2E PUSH1 0x24 DUP3 ADD MSTORE PUSH32 0x496E697469616C697A61626C653A20636F6E747261637420697320616C726561 PUSH1 0x44 DUP3 ADD MSTORE PUSH14 0x191E481A5B9A5D1A585B1A5E9959 PUSH1 0x92 SHL PUSH1 0x64 DUP3 ADD MSTORE PUSH1 0x84 ADD PUSH2 0xBF9 JUMP JUMPDEST PUSH0 DUP1 SLOAD PUSH1 0xFF NOT AND PUSH1 0x1 OR SWAP1 SSTORE DUP1 ISZERO PUSH2 0x2D9D JUMPI PUSH0 DUP1 SLOAD PUSH2 0xFF00 NOT AND PUSH2 0x100 OR SWAP1 SSTORE JUMPDEST PUSH2 0x2DA5 PUSH2 0x4B62 JUMP JUMPDEST PUSH1 0xC9 DUP1 SLOAD PUSH1 0x1 PUSH1 0x1 PUSH1 0xA0 SHL SUB NOT AND PUSH1 0x1 PUSH1 0x1 PUSH1 0xA0 SHL SUB DUP5 AND OR SWAP1 SSTORE DUP1 ISZERO PUSH2 0x2060 JUMPI PUSH0 DUP1 SLOAD PUSH2 0xFF00 NOT AND SWAP1 SSTORE PUSH1 0x40 MLOAD PUSH1 0x1 DUP2 MSTORE PUSH32 0x7F26B83FF96E1F2B6A682F133852F6798A09C465DA95921460CEFB3847402498 SWAP1 PUSH1 0x20 ADD PUSH1 0x40 MLOAD DUP1 SWAP2 SUB SWAP1 LOG1 POP POP JUMP JUMPDEST PUSH2 0x2E37 PUSH1 0x40 MLOAD DUP1 PUSH1 0xA0 ADD PUSH1 0x40 MSTORE DUP1 PUSH0 DUP2 MSTORE PUSH1 0x20 ADD PUSH0 DUP2 MSTORE PUSH1 0x20 ADD PUSH0 DUP2 MSTORE PUSH1 0x20 ADD PUSH0 DUP2 MSTORE PUSH1 0x20 ADD PUSH0 ISZERO ISZERO DUP2 MSTORE POP SWAP1 JUMP JUMPDEST PUSH1 0x1 PUSH1 0x1 PUSH1 0xA0 SHL SUB DUP3 AND PUSH0 SWAP1 DUP2 MSTORE PUSH1 0xD0 PUSH1 0x20 SWAP1 DUP2 MSTORE PUSH1 0x40 DUP1 DUP4 KECCAK256 DUP1 SLOAD DUP3 MLOAD DUP2 DUP6 MUL DUP2 ADD DUP6 ADD SWAP1 SWAP4 MSTORE DUP1 DUP4 MSTORE SWAP2 SWAP3 SWAP1 SWAP2 SWAP1 DUP4 ADD DUP3 DUP3 DUP1 ISZERO PUSH2 0x2E94 JUMPI PUSH1 0x20 MUL DUP3 ADD SWAP2 SWAP1 PUSH0 MSTORE PUSH1 0x20 PUSH0 KECCAK256 SWAP1 JUMPDEST DUP2 SLOAD DUP2 MSTORE PUSH1 0x20 ADD SWAP1 PUSH1 0x1 ADD SWAP1 DUP1 DUP4 GT PUSH2 0x2E80 JUMPI JUMPDEST POP POP POP POP POP SWAP1 POP PUSH0 DUP1 PUSH2 0x2EA5 PUSH2 0x445C JUMP JUMPDEST SWAP1 POP PUSH1 0x1 PUSH0 JUMPDEST DUP5 MLOAD DUP2 LT ISZERO PUSH2 0x3062 JUMPI PUSH0 PUSH1 0xCB DUP7 DUP4 DUP2 MLOAD DUP2 LT PUSH2 0x2EC9 JUMPI PUSH2 0x2EC9 PUSH2 0x5897 JUMP JUMPDEST PUSH1 0x20 MUL PUSH1 0x20 ADD ADD MLOAD DUP2 SLOAD DUP2 LT PUSH2 0x2EE1 JUMPI PUSH2 0x2EE1 PUSH2 0x5897 JUMP JUMPDEST PUSH0 SWAP2 DUP3 MSTORE PUSH1 0x20 SWAP2 DUP3 SWAP1 KECCAK256 PUSH1 0x40 DUP1 MLOAD PUSH1 0x80 DUP2 ADD DUP3 MSTORE PUSH1 0x4 SWAP4 DUP5 MUL SWAP1 SWAP3 ADD DUP1 SLOAD PUSH1 0x1 PUSH1 0x1 PUSH1 0xA0 SHL SUB SWAP1 DUP2 AND DUP5 MSTORE PUSH1 0x1 DUP3 ADD SLOAD DUP5 DUP8 ADD MSTORE PUSH1 0x2 DUP3 ADD SLOAD DUP5 DUP5 ADD MSTORE PUSH1 0x3 SWAP1 SWAP2 ADD SLOAD PUSH1 0x60 DUP5 ADD MSTORE PUSH1 0xC9 SLOAD DUP3 MLOAD PUSH4 0x5A19D09 PUSH1 0xE1 SHL DUP2 MSTORE SWAP3 MLOAD SWAP4 SWAP7 POP AND SWAP4 PUSH4 0xB433A12 SWAP4 DUP3 DUP2 ADD SWAP4 SWAP2 SWAP3 DUP3 SWAP1 SUB ADD DUP2 DUP7 GAS STATICCALL ISZERO DUP1 ISZERO PUSH2 0x2F62 JUMPI RETURNDATASIZE PUSH0 DUP1 RETURNDATACOPY RETURNDATASIZE PUSH0 REVERT JUMPDEST POP POP POP POP PUSH1 0x40 MLOAD RETURNDATASIZE PUSH1 0x1F NOT PUSH1 0x1F DUP3 ADD AND DUP3 ADD DUP1 PUSH1 0x40 MSTORE POP DUP2 ADD SWAP1 PUSH2 0x2F86 SWAP2 SWAP1 PUSH2 0x596A JUMP JUMPDEST PUSH1 0x60 DUP3 ADD MLOAD PUSH2 0x2F95 SWAP1 TIMESTAMP PUSH2 0x58D2 JUMP JUMPDEST GT PUSH2 0x2F9E JUMPI PUSH0 SWAP3 POP JUMPDEST PUSH0 PUSH2 0x2FA7 PUSH2 0x4A97 JUMP JUMPDEST DUP3 PUSH1 0x40 ADD MLOAD PUSH2 0x2FB6 SWAP2 SWAP1 PUSH2 0x58BF JUMP JUMPDEST TIMESTAMP LT PUSH2 0x2FD8 JUMPI PUSH2 0x2FC4 PUSH2 0x4A97 JUMP JUMPDEST DUP3 PUSH1 0x40 ADD MLOAD PUSH2 0x2FD3 SWAP2 SWAP1 PUSH2 0x58BF JUMP JUMPDEST PUSH2 0x2FDA JUMP JUMPDEST TIMESTAMP JUMPDEST SWAP1 POP DUP2 PUSH1 0x60 ADD MLOAD DUP2 GT PUSH2 0x2FEE JUMPI POP POP PUSH2 0x3052 JUMP JUMPDEST DUP5 PUSH3 0x15180 PUSH1 0x64 DUP5 PUSH1 0x20 ADD MLOAD PUSH2 0x3004 SWAP2 SWAP1 PUSH2 0x58E5 JUMP JUMPDEST PUSH2 0x300E SWAP2 SWAP1 PUSH2 0x58E5 JUMP JUMPDEST PUSH1 0x60 DUP5 ADD MLOAD PUSH2 0x301D SWAP1 DUP5 PUSH2 0x58D2 JUMP JUMPDEST PUSH2 0x3027 SWAP2 SWAP1 PUSH2 0x59BB JUMP JUMPDEST PUSH2 0x3031 SWAP2 SWAP1 PUSH2 0x58E5 JUMP JUMPDEST PUSH2 0x3043 SWAP1 PUSH8 0xDE0B6B3A7640000 PUSH2 0x59BB JUMP JUMPDEST PUSH2 0x304D SWAP1 DUP8 PUSH2 0x58BF JUMP JUMPDEST SWAP6 POP POP POP JUMPDEST PUSH2 0x305B DUP2 PUSH2 0x5A0A JUMP JUMPDEST SWAP1 POP PUSH2 0x2EAB JUMP JUMPDEST POP PUSH1 0x40 MLOAD DUP1 PUSH1 0xA0 ADD PUSH1 0x40 MSTORE DUP1 PUSH1 0x2 DUP6 PUSH2 0x307B SWAP2 SWAP1 PUSH2 0x58E5 JUMP JUMPDEST DUP2 MSTORE PUSH1 0x20 ADD PUSH2 0x308B PUSH1 0x2 DUP7 PUSH2 0x58E5 JUMP JUMPDEST DUP2 MSTORE PUSH1 0x1 PUSH1 0x1 PUSH1 0xA0 SHL SUB SWAP1 SWAP8 AND PUSH0 DUP2 DUP2 MSTORE PUSH1 0xD3 PUSH1 0x20 DUP2 DUP2 MSTORE PUSH1 0x40 DUP1 DUP5 KECCAK256 SLOAD DUP3 DUP14 ADD DUP2 SWAP1 MSTORE SWAP5 SWAP1 SWAP4 MSTORE MSTORE DUP9 ADD MSTORE SWAP1 ISZERO ISZERO PUSH1 0x60 SWAP1 SWAP7 ADD SWAP6 SWAP1 SWAP6 MSTORE POP SWAP3 SWAP4 SWAP3 POP POP POP JUMP JUMPDEST PUSH1 0xDA DUP2 DUP2 SLOAD DUP2 LT PUSH2 0xB7E JUMPI PUSH0 DUP1 REVERT JUMPDEST PUSH1 0xCC DUP2 DUP2 SLOAD DUP2 LT PUSH2 0xB7E JUMPI PUSH0 DUP1 REVERT JUMPDEST PUSH1 0x60 PUSH0 PUSH2 0x30F7 DUP5 DUP5 PUSH2 0x58D2 JUMP JUMPDEST PUSH2 0x3102 SWAP1 PUSH1 0x1 PUSH2 0x58BF JUMP JUMPDEST SWAP1 POP DUP1 PUSH1 0x1 PUSH1 0x1 PUSH1 0x40 SHL SUB DUP2 GT ISZERO PUSH2 0x311C JUMPI PUSH2 0x311C PUSH2 0x54C4 JUMP JUMPDEST PUSH1 0x40 MLOAD SWAP1 DUP1 DUP3 MSTORE DUP1 PUSH1 0x20 MUL PUSH1 0x20 ADD DUP3 ADD PUSH1 0x40 MSTORE DUP1 ISZERO PUSH2 0x317D JUMPI DUP2 PUSH1 0x20 ADD JUMPDEST PUSH2 0x316A PUSH1 0x40 MLOAD DUP1 PUSH1 0x80 ADD PUSH1 0x40 MSTORE DUP1 PUSH0 PUSH1 0x1 PUSH1 0x1 PUSH1 0xA0 SHL SUB AND DUP2 MSTORE PUSH1 0x20 ADD PUSH0 DUP2 MSTORE PUSH1 0x20 ADD PUSH0 DUP2 MSTORE PUSH1 0x20 ADD PUSH0 DUP2 MSTORE POP SWAP1 JUMP JUMPDEST DUP2 MSTORE PUSH1 0x20 ADD SWAP1 PUSH1 0x1 SWAP1 SUB SWAP1 DUP2 PUSH2 0x313A JUMPI SWAP1 POP JUMPDEST POP SWAP2 POP PUSH0 JUMPDEST DUP2 DUP2 LT ISZERO PUSH2 0x217F JUMPI PUSH1 0xCC PUSH2 0x3196 DUP3 DUP8 PUSH2 0x58BF JUMP JUMPDEST DUP2 SLOAD DUP2 LT PUSH2 0x31A6 JUMPI PUSH2 0x31A6 PUSH2 0x5897 JUMP JUMPDEST PUSH0 SWAP2 DUP3 MSTORE PUSH1 0x20 SWAP2 DUP3 SWAP1 KECCAK256 PUSH1 0x40 DUP1 MLOAD PUSH1 0x80 DUP2 ADD DUP3 MSTORE PUSH1 0x4 SWAP1 SWAP4 MUL SWAP1 SWAP2 ADD DUP1 SLOAD PUSH1 0x1 PUSH1 0x1 PUSH1 0xA0 SHL SUB AND DUP4 MSTORE PUSH1 0x1 DUP2 ADD SLOAD SWAP4 DUP4 ADD SWAP4 SWAP1 SWAP4 MSTORE PUSH1 0x2 DUP4 ADD SLOAD SWAP1 DUP3 ADD MSTORE PUSH1 0x3 SWAP1 SWAP2 ADD SLOAD PUSH1 0x60 DUP3 ADD MSTORE DUP4 MLOAD DUP5 SWAP1 DUP4 SWAP1 DUP2 LT PUSH2 0x3203 JUMPI PUSH2 0x3203 PUSH2 0x5897 JUMP JUMPDEST PUSH1 0x20 MUL PUSH1 0x20 ADD ADD DUP2 SWAP1 MSTORE POP DUP1 DUP1 PUSH2 0x3219 SWAP1 PUSH2 0x5A0A JUMP JUMPDEST SWAP2 POP POP PUSH2 0x3182 JUMP JUMPDEST PUSH1 0x40 DUP1 MLOAD CALLER PUSH1 0x60 DUP2 SWAP1 SHL PUSH1 0x1 PUSH1 0x1 PUSH1 0x60 SHL SUB NOT AND PUSH1 0x20 DUP1 DUP5 ADD SWAP2 SWAP1 SWAP2 MSTORE PUSH1 0x34 DUP4 ADD DUP10 SWAP1 MSTORE PUSH1 0x54 DUP4 ADD DUP9 SWAP1 MSTORE PUSH1 0x74 DUP4 ADD DUP8 SWAP1 MSTORE PUSH1 0x94 DUP1 DUP5 ADD DUP8 SWAP1 MSTORE DUP5 MLOAD DUP1 DUP6 SUB SWAP1 SWAP2 ADD DUP2 MSTORE PUSH1 0xB4 DUP5 ADD DUP6 MSTORE DUP1 MLOAD SWAP1 DUP3 ADD KECCAK256 PUSH28 0xCA2BA3432B932BAB69029B4B3B732B21026B2B9B9B0B3B29D051999 PUSH1 0x21 SHL PUSH1 0xD4 DUP6 ADD MSTORE PUSH1 0xF0 DUP1 DUP6 ADD SWAP2 SWAP1 SWAP2 MSTORE DUP5 MLOAD DUP1 DUP6 SUB SWAP1 SWAP2 ADD DUP2 MSTORE PUSH2 0x110 SWAP1 SWAP4 ADD SWAP1 SWAP4 MSTORE DUP2 MLOAD SWAP2 SWAP1 SWAP3 ADD KECCAK256 PUSH0 PUSH2 0x32C4 DUP3 DUP6 PUSH2 0x4B90 JUMP JUMPDEST SWAP1 POP DUP1 PUSH1 0x1 PUSH1 0x1 PUSH1 0xA0 SHL SUB AND PUSH1 0xC9 PUSH0 SWAP1 SLOAD SWAP1 PUSH2 0x100 EXP SWAP1 DIV PUSH1 0x1 PUSH1 0x1 PUSH1 0xA0 SHL SUB AND PUSH1 0x1 PUSH1 0x1 PUSH1 0xA0 SHL SUB AND PUSH4 0x570CA735 PUSH1 0x40 MLOAD DUP2 PUSH4 0xFFFFFFFF AND PUSH1 0xE0 SHL DUP2 MSTORE PUSH1 0x4 ADD PUSH1 0x20 PUSH1 0x40 MLOAD DUP1 DUP4 SUB DUP2 DUP7 GAS STATICCALL ISZERO DUP1 ISZERO PUSH2 0x3320 JUMPI RETURNDATASIZE PUSH0 DUP1 RETURNDATACOPY RETURNDATASIZE PUSH0 REVERT JUMPDEST POP POP POP POP PUSH1 0x40 MLOAD RETURNDATASIZE PUSH1 0x1F NOT PUSH1 0x1F DUP3 ADD AND DUP3 ADD DUP1 PUSH1 0x40 MSTORE POP DUP2 ADD SWAP1 PUSH2 0x3344 SWAP2 SWAP1 PUSH2 0x59A0 JUMP JUMPDEST PUSH1 0x1 PUSH1 0x1 PUSH1 0xA0 SHL SUB AND EQ PUSH2 0x336B JUMPI PUSH1 0x40 MLOAD PUSH4 0xE1A96133 PUSH1 0xE0 SHL DUP2 MSTORE PUSH1 0x4 ADD PUSH1 0x40 MLOAD DUP1 SWAP2 SUB SWAP1 REVERT JUMPDEST PUSH1 0x1 PUSH1 0x1 PUSH1 0xA0 SHL SUB DUP4 AND PUSH0 SWAP1 DUP2 MSTORE PUSH1 0xD9 PUSH1 0x20 SWAP1 DUP2 MSTORE PUSH1 0x40 DUP1 DUP4 KECCAK256 DUP4 DUP1 MSTORE SWAP1 SWAP2 MSTORE DUP1 DUP3 KECCAK256 SLOAD PUSH1 0x1 DUP4 MSTORE DUP2 DUP4 KECCAK256 SLOAD PUSH1 0x2 DUP5 MSTORE DUP3 DUP5 KECCAK256 SLOAD PUSH1 0x3 DUP6 MSTORE SWAP3 DUP5 KECCAK256 SLOAD SWAP2 SWAP4 SWAP1 SWAP3 SWAP2 SWAP1 DUP5 DUP14 GT ISZERO PUSH2 0x33F1 JUMPI PUSH2 0x33BF DUP6 DUP15 PUSH2 0x58D2 JUMP JUMPDEST PUSH2 0x33C9 SWAP1 DUP3 PUSH2 0x58BF JUMP JUMPDEST PUSH1 0x1 PUSH1 0x1 PUSH1 0xA0 SHL SUB DUP10 AND PUSH0 SWAP1 DUP2 MSTORE PUSH1 0xD9 PUSH1 0x20 SWAP1 DUP2 MSTORE PUSH1 0x40 DUP1 DUP4 KECCAK256 DUP4 DUP1 MSTORE SWAP1 SWAP2 MSTORE SWAP1 KECCAK256 DUP15 SWAP1 SSTORE SWAP1 POP JUMPDEST DUP4 DUP13 GT ISZERO PUSH2 0x3436 JUMPI PUSH2 0x3403 DUP5 DUP14 PUSH2 0x58D2 JUMP JUMPDEST PUSH2 0x340D SWAP1 DUP3 PUSH2 0x58BF JUMP JUMPDEST PUSH1 0x1 PUSH1 0x1 PUSH1 0xA0 SHL SUB DUP10 AND PUSH0 SWAP1 DUP2 MSTORE PUSH1 0xD9 PUSH1 0x20 SWAP1 DUP2 MSTORE PUSH1 0x40 DUP1 DUP4 KECCAK256 PUSH1 0x1 DUP5 MSTORE SWAP1 SWAP2 MSTORE SWAP1 KECCAK256 DUP14 SWAP1 SSTORE SWAP1 POP JUMPDEST DUP3 DUP12 GT ISZERO PUSH2 0x347B JUMPI PUSH2 0x3448 DUP4 DUP13 PUSH2 0x58D2 JUMP JUMPDEST PUSH2 0x3452 SWAP1 DUP3 PUSH2 0x58BF JUMP JUMPDEST PUSH1 0x1 PUSH1 0x1 PUSH1 0xA0 SHL SUB DUP10 AND PUSH0 SWAP1 DUP2 MSTORE PUSH1 0xD9 PUSH1 0x20 SWAP1 DUP2 MSTORE PUSH1 0x40 DUP1 DUP4 KECCAK256 PUSH1 0x2 DUP5 MSTORE SWAP1 SWAP2 MSTORE SWAP1 KECCAK256 DUP13 SWAP1 SSTORE SWAP1 POP JUMPDEST DUP2 DUP11 GT ISZERO PUSH2 0x34C0 JUMPI PUSH2 0x348D DUP3 DUP12 PUSH2 0x58D2 JUMP JUMPDEST PUSH2 0x3497 SWAP1 DUP3 PUSH2 0x58BF JUMP JUMPDEST PUSH1 0x1 PUSH1 0x1 PUSH1 0xA0 SHL SUB DUP10 AND PUSH0 SWAP1 DUP2 MSTORE PUSH1 0xD9 PUSH1 0x20 SWAP1 DUP2 MSTORE PUSH1 0x40 DUP1 DUP4 KECCAK256 PUSH1 0x3 DUP5 MSTORE SWAP1 SWAP2 MSTORE SWAP1 KECCAK256 DUP12 SWAP1 SSTORE SWAP1 POP JUMPDEST DUP1 ISZERO PUSH2 0x35BD JUMPI PUSH1 0x40 DUP1 MLOAD PUSH1 0x80 DUP2 ADD SWAP1 SWAP2 MSTORE CALLER DUP2 MSTORE PUSH1 0xCC SWAP1 PUSH1 0x20 DUP2 ADD PUSH2 0x34E6 PUSH1 0x2 DUP6 PUSH2 0x58E5 JUMP JUMPDEST DUP2 MSTORE PUSH1 0x1 PUSH1 0x20 DUP1 DUP4 ADD DUP3 SWAP1 MSTORE TIMESTAMP PUSH1 0x40 SWAP4 DUP5 ADD MSTORE DUP5 SLOAD DUP1 DUP4 ADD DUP7 SSTORE PUSH0 SWAP6 DUP7 MSTORE SWAP5 DUP2 SWAP1 KECCAK256 DUP5 MLOAD PUSH1 0x4 SWAP1 SWAP7 MUL ADD DUP1 SLOAD PUSH1 0x1 PUSH1 0x1 PUSH1 0xA0 SHL SUB NOT AND PUSH1 0x1 PUSH1 0x1 PUSH1 0xA0 SHL SUB SWAP1 SWAP7 AND SWAP6 SWAP1 SWAP6 OR DUP6 SSTORE DUP4 ADD MLOAD SWAP1 DUP5 ADD SSTORE DUP2 ADD MLOAD PUSH1 0x2 DUP4 ADD SSTORE PUSH1 0x60 ADD MLOAD PUSH1 0x3 SWAP1 SWAP2 ADD SSTORE PUSH2 0x354E PUSH2 0x36FF JUMP JUMPDEST PUSH1 0x1 PUSH1 0x1 PUSH1 0xA0 SHL SUB AND PUSH4 0xA9059CBB DUP10 DUP4 PUSH1 0x40 MLOAD DUP4 PUSH4 0xFFFFFFFF AND PUSH1 0xE0 SHL DUP2 MSTORE PUSH1 0x4 ADD PUSH2 0x357B SWAP3 SWAP2 SWAP1 PUSH2 0x59D2 JUMP JUMPDEST PUSH1 0x20 PUSH1 0x40 MLOAD DUP1 DUP4 SUB DUP2 PUSH0 DUP8 GAS CALL ISZERO DUP1 ISZERO PUSH2 0x3597 JUMPI RETURNDATASIZE PUSH0 DUP1 RETURNDATACOPY RETURNDATASIZE PUSH0 REVERT JUMPDEST POP POP POP POP PUSH1 0x40 MLOAD RETURNDATASIZE PUSH1 0x1F NOT PUSH1 0x1F DUP3 ADD AND DUP3 ADD DUP1 PUSH1 0x40 MSTORE POP DUP2 ADD SWAP1 PUSH2 0x35BB SWAP2 SWAP1 PUSH2 0x5981 JUMP JUMPDEST POP JUMPDEST POP POP POP POP POP POP POP POP POP POP POP POP POP JUMP JUMPDEST PUSH1 0x1 PUSH1 0x1 PUSH1 0xA0 SHL SUB DUP2 AND PUSH0 SWAP1 DUP2 MSTORE PUSH1 0xD0 PUSH1 0x20 SWAP1 DUP2 MSTORE PUSH1 0x40 DUP1 DUP4 KECCAK256 DUP1 SLOAD DUP3 MLOAD DUP2 DUP6 MUL DUP2 ADD DUP6 ADD SWAP1 SWAP4 MSTORE DUP1 DUP4 MSTORE DUP5 SWAP4 DUP4 ADD DUP3 DUP3 DUP1 ISZERO PUSH2 0x3626 JUMPI PUSH1 0x20 MUL DUP3 ADD SWAP2 SWAP1 PUSH0 MSTORE PUSH1 0x20 PUSH0 KECCAK256 SWAP1 JUMPDEST DUP2 SLOAD DUP2 MSTORE PUSH1 0x20 ADD SWAP1 PUSH1 0x1 ADD SWAP1 DUP1 DUP4 GT PUSH2 0x3612 JUMPI JUMPDEST POP POP POP POP POP SWAP1 POP PUSH0 JUMPDEST DUP2 MLOAD DUP2 LT ISZERO PUSH2 0x36F8 JUMPI PUSH0 PUSH1 0xCB DUP4 DUP4 DUP2 MLOAD DUP2 LT PUSH2 0x364D JUMPI PUSH2 0x364D PUSH2 0x5897 JUMP JUMPDEST PUSH1 0x20 MUL PUSH1 0x20 ADD ADD MLOAD DUP2 SLOAD DUP2 LT PUSH2 0x3665 JUMPI PUSH2 0x3665 PUSH2 0x5897 JUMP JUMPDEST PUSH0 SWAP2 DUP3 MSTORE PUSH1 0x20 SWAP2 DUP3 SWAP1 KECCAK256 PUSH1 0x40 DUP1 MLOAD PUSH1 0x80 DUP2 ADD DUP3 MSTORE PUSH1 0x4 SWAP1 SWAP4 MUL SWAP1 SWAP2 ADD DUP1 SLOAD PUSH1 0x1 PUSH1 0x1 PUSH1 0xA0 SHL SUB AND DUP4 MSTORE PUSH1 0x1 DUP2 ADD SLOAD SWAP4 DUP4 ADD SWAP4 SWAP1 SWAP4 MSTORE PUSH1 0x2 DUP4 ADD SLOAD SWAP1 DUP3 ADD MSTORE PUSH1 0x3 SWAP1 SWAP2 ADD SLOAD PUSH1 0x60 DUP3 ADD MSTORE SWAP1 POP TIMESTAMP PUSH2 0x36B9 PUSH2 0x4A97 JUMP JUMPDEST DUP3 PUSH1 0x40 ADD MLOAD PUSH2 0x36C8 SWAP2 SWAP1 PUSH2 0x58BF JUMP JUMPDEST GT PUSH2 0x36D3 JUMPI POP PUSH2 0x36E6 JUMP JUMPDEST PUSH1 0x20 DUP2 ADD MLOAD PUSH2 0x36E2 SWAP1 DUP6 PUSH2 0x58BF JUMP JUMPDEST SWAP4 POP POP JUMPDEST DUP1 PUSH2 0x36F0 DUP2 PUSH2 0x5A0A JUMP JUMPDEST SWAP2 POP POP PUSH2 0x362F JUMP JUMPDEST POP POP SWAP2 SWAP1 POP JUMP JUMPDEST PUSH1 0xC9 SLOAD PUSH1 0x40 DUP1 MLOAD PUSH4 0x5BFF9787 PUSH1 0xE0 SHL DUP2 MSTORE SWAP1 MLOAD PUSH0 SWAP3 PUSH1 0x1 PUSH1 0x1 PUSH1 0xA0 SHL SUB AND SWAP2 PUSH4 0x5BFF9787 SWAP2 PUSH1 0x4 DUP1 DUP4 ADD SWAP3 PUSH1 0x20 SWAP3 SWAP2 SWAP1 DUP3 SWAP1 SUB ADD DUP2 DUP7 GAS STATICCALL ISZERO DUP1 ISZERO PUSH2 0x3746 JUMPI RETURNDATASIZE PUSH0 DUP1 RETURNDATACOPY RETURNDATASIZE PUSH0 REVERT JUMPDEST POP POP POP POP PUSH1 0x40 MLOAD RETURNDATASIZE PUSH1 0x1F NOT PUSH1 0x1F DUP3 ADD AND DUP3 ADD DUP1 PUSH1 0x40 MSTORE POP DUP2 ADD SWAP1 PUSH2 0x23C8 SWAP2 SWAP1 PUSH2 0x59A0 JUMP JUMPDEST PUSH0 DUP1 PUSH0 DUP1 PUSH2 0x3777 TIMESTAMP PUSH2 0x4BB4 JUMP JUMPDEST POP POP SWAP4 POP SWAP4 POP SWAP4 POP SWAP4 POP PUSH1 0x8 DUP2 PUSH2 0x378E SWAP2 SWAP1 PUSH2 0x58BF JUMP JUMPDEST SWAP1 POP PUSH1 0x18 DUP2 GT ISZERO PUSH2 0x37B4 JUMPI PUSH2 0x37A4 PUSH1 0x1 DUP4 PUSH2 0x58BF JUMP JUMPDEST SWAP2 POP PUSH2 0x37B1 PUSH1 0x18 DUP3 PUSH2 0x58D2 JUMP JUMPDEST SWAP1 POP JUMPDEST PUSH1 0x8 DUP2 LT ISZERO PUSH2 0x37C3 JUMPI POP POP POP POP JUMP JUMPDEST PUSH0 PUSH2 0x37CD DUP6 PUSH2 0x4C26 JUMP JUMPDEST PUSH2 0x37D6 DUP6 PUSH2 0x4C26 JUMP JUMPDEST PUSH2 0x37DF DUP6 PUSH2 0x4C26 JUMP JUMPDEST PUSH1 0x40 MLOAD PUSH1 0x20 ADD PUSH2 0x37F1 SWAP4 SWAP3 SWAP2 SWAP1 PUSH2 0x5B06 JUMP JUMPDEST PUSH1 0x40 MLOAD PUSH1 0x20 DUP2 DUP4 SUB SUB DUP2 MSTORE SWAP1 PUSH1 0x40 MSTORE SWAP1 POP PUSH1 0xD2 DUP2 PUSH1 0x40 MLOAD PUSH2 0x3812 SWAP2 SWAP1 PUSH2 0x5B48 JUMP JUMPDEST SWAP1 DUP2 MSTORE PUSH1 0x40 MLOAD SWAP1 DUP2 SWAP1 SUB PUSH1 0x20 ADD SWAP1 KECCAK256 SLOAD PUSH1 0xFF AND ISZERO PUSH2 0x3831 JUMPI POP POP POP POP POP JUMP JUMPDEST PUSH1 0x1 PUSH1 0xD2 DUP3 PUSH1 0x40 MLOAD PUSH2 0x3843 SWAP2 SWAP1 PUSH2 0x5B48 JUMP JUMPDEST SWAP1 DUP2 MSTORE PUSH1 0x40 MLOAD SWAP1 DUP2 SWAP1 SUB PUSH1 0x20 ADD SWAP1 KECCAK256 DUP1 SLOAD SWAP2 ISZERO ISZERO PUSH1 0xFF NOT SWAP1 SWAP3 AND SWAP2 SWAP1 SWAP2 OR SWAP1 SSTORE PUSH0 DUP1 PUSH2 0x386D PUSH2 0x41E2 JUMP JUMPDEST PUSH1 0x1 PUSH1 0x1 PUSH1 0xA0 SHL SUB AND PUSH4 0x902F1AC PUSH1 0x40 MLOAD DUP2 PUSH4 0xFFFFFFFF AND PUSH1 0xE0 SHL DUP2 MSTORE PUSH1 0x4 ADD PUSH1 0x60 PUSH1 0x40 MLOAD DUP1 DUP4 SUB DUP2 DUP7 GAS STATICCALL ISZERO DUP1 ISZERO PUSH2 0x38A8 JUMPI RETURNDATASIZE PUSH0 DUP1 RETURNDATACOPY RETURNDATASIZE PUSH0 REVERT JUMPDEST POP POP POP POP PUSH1 0x40 MLOAD RETURNDATASIZE PUSH1 0x1F NOT PUSH1 0x1F DUP3 ADD AND DUP3 ADD DUP1 PUSH1 0x40 MSTORE POP DUP2 ADD SWAP1 PUSH2 0x38CC SWAP2 SWAP1 PUSH2 0x5824 JUMP JUMPDEST POP SWAP2 POP SWAP2 POP PUSH2 0x38D9 PUSH2 0x41E2 JUMP JUMPDEST PUSH1 0x1 PUSH1 0x1 PUSH1 0xA0 SHL SUB AND PUSH4 0xE840427D PUSH2 0x3E8 PUSH2 0x38F5 DUP6 PUSH1 0xA PUSH2 0x5A22 JUMP JUMPDEST PUSH2 0x38FF SWAP2 SWAP1 PUSH2 0x5A45 JUMP JUMPDEST PUSH2 0x3E8 PUSH2 0x390D DUP6 PUSH1 0xA PUSH2 0x5A22 JUMP JUMPDEST PUSH2 0x3917 SWAP2 SWAP1 PUSH2 0x5A45 JUMP JUMPDEST ADDRESS PUSH1 0x40 MLOAD DUP5 PUSH4 0xFFFFFFFF AND PUSH1 0xE0 SHL DUP2 MSTORE PUSH1 0x4 ADD PUSH2 0x3936 SWAP4 SWAP3 SWAP2 SWAP1 PUSH2 0x5A6A JUMP JUMPDEST PUSH0 PUSH1 0x40 MLOAD DUP1 DUP4 SUB DUP2 PUSH0 DUP8 DUP1 EXTCODESIZE ISZERO DUP1 ISZERO PUSH2 0x394D JUMPI PUSH0 DUP1 REVERT JUMPDEST POP GAS CALL ISZERO DUP1 ISZERO PUSH2 0x395F JUMPI RETURNDATASIZE PUSH0 DUP1 RETURNDATACOPY RETURNDATASIZE PUSH0 REVERT JUMPDEST POP POP POP POP PUSH0 DUP1 PUSH2 0x396D PUSH2 0x4415 JUMP JUMPDEST PUSH1 0x1 PUSH1 0x1 PUSH1 0xA0 SHL SUB AND PUSH2 0x397E PUSH2 0x41E2 JUMP JUMPDEST PUSH1 0x1 PUSH1 0x1 PUSH1 0xA0 SHL SUB AND PUSH4 0xDFE1681 PUSH1 0x40 MLOAD DUP2 PUSH4 0xFFFFFFFF AND PUSH1 0xE0 SHL DUP2 MSTORE PUSH1 0x4 ADD PUSH1 0x20 PUSH1 0x40 MLOAD DUP1 DUP4 SUB DUP2 DUP7 GAS STATICCALL ISZERO DUP1 ISZERO PUSH2 0x39B9 JUMPI RETURNDATASIZE PUSH0 DUP1 RETURNDATACOPY RETURNDATASIZE PUSH0 REVERT JUMPDEST POP POP POP POP PUSH1 0x40 MLOAD RETURNDATASIZE PUSH1 0x1F NOT PUSH1 0x1F DUP3 ADD AND DUP3 ADD DUP1 PUSH1 0x40 MSTORE POP DUP2 ADD SWAP1 PUSH2 0x39DD SWAP2 SWAP1 PUSH2 0x59A0 JUMP JUMPDEST PUSH1 0x1 PUSH1 0x1 PUSH1 0xA0 SHL SUB AND EQ PUSH2 0x39F2 JUMPI DUP3 DUP5 PUSH2 0x39F5 JUMP JUMPDEST DUP4 DUP4 JUMPDEST SWAP2 POP SWAP2 POP PUSH2 0x3A01 PUSH2 0x36FF JUMP JUMPDEST PUSH1 0x1 PUSH1 0x1 PUSH1 0xA0 SHL SUB AND PUSH4 0xA9059CBB PUSH2 0x3A17 PUSH2 0x45E8 JUMP JUMPDEST PUSH2 0x3E8 PUSH2 0x3A25 DUP6 PUSH1 0xA PUSH2 0x5A22 JUMP JUMPDEST PUSH2 0x3A2F SWAP2 SWAP1 PUSH2 0x5A45 JUMP JUMPDEST PUSH1 0x40 MLOAD DUP4 PUSH4 0xFFFFFFFF AND PUSH1 0xE0 SHL DUP2 MSTORE PUSH1 0x4 ADD PUSH2 0x3A4C SWAP3 SWAP2 SWAP1 PUSH2 0x5A96 JUMP JUMPDEST PUSH1 0x20 PUSH1 0x40 MLOAD DUP1 DUP4 SUB DUP2 PUSH0 DUP8 GAS CALL ISZERO DUP1 ISZERO PUSH2 0x3A68 JUMPI RETURNDATASIZE PUSH0 DUP1 RETURNDATACOPY RETURNDATASIZE PUSH0 REVERT JUMPDEST POP POP POP POP PUSH1 0x40 MLOAD RETURNDATASIZE PUSH1 0x1F NOT PUSH1 0x1F DUP3 ADD AND DUP3 ADD DUP1 PUSH1 0x40 MSTORE POP DUP2 ADD SWAP1 PUSH2 0x3A8C SWAP2 SWAP1 PUSH2 0x5981 JUMP JUMPDEST POP PUSH2 0x3A95 PUSH2 0x4415 JUMP JUMPDEST PUSH1 0x1 PUSH1 0x1 PUSH1 0xA0 SHL SUB AND PUSH4 0x95EA7B3 PUSH2 0x3AAB PUSH2 0x41E2 JUMP JUMPDEST PUSH1 0x2 PUSH2 0x3E8 PUSH2 0x3ABB DUP8 PUSH1 0xA PUSH2 0x5A22 JUMP JUMPDEST PUSH2 0x3AC5 SWAP2 SWAP1 PUSH2 0x5A45 JUMP JUMPDEST PUSH2 0x3ACF SWAP2 SWAP1 PUSH2 0x5A45 JUMP JUMPDEST PUSH1 0x40 MLOAD DUP4 PUSH4 0xFFFFFFFF AND PUSH1 0xE0 SHL DUP2 MSTORE PUSH1 0x4 ADD PUSH2 0x3AEC SWAP3 SWAP2 SWAP1 PUSH2 0x5A96 JUMP JUMPDEST PUSH1 0x20 PUSH1 0x40 MLOAD DUP1 DUP4 SUB DUP2 PUSH0 DUP8 GAS CALL ISZERO DUP1 ISZERO PUSH2 0x3B08 JUMPI RETURNDATASIZE PUSH0 DUP1 RETURNDATACOPY RETURNDATASIZE PUSH0 REVERT JUMPDEST POP POP POP POP PUSH1 0x40 MLOAD RETURNDATASIZE PUSH1 0x1F NOT PUSH1 0x1F DUP3 ADD AND DUP3 ADD DUP1 PUSH1 0x40 MSTORE POP DUP2 ADD SWAP1 PUSH2 0x3B2C SWAP2 SWAP1 PUSH2 0x5981 JUMP JUMPDEST POP PUSH0 PUSH2 0x3B36 PUSH2 0x41E2 JUMP JUMPDEST PUSH1 0x1 PUSH1 0x1 PUSH1 0xA0 SHL SUB AND PUSH4 0xA1E15411 PUSH2 0x3B4C PUSH2 0x4415 JUMP JUMPDEST ADDRESS PUSH1 0x2 PUSH2 0x3E8 PUSH2 0x3B5D DUP10 PUSH1 0xA PUSH2 0x5A22 JUMP JUMPDEST PUSH2 0x3B67 SWAP2 SWAP1 PUSH2 0x5A45 JUMP JUMPDEST PUSH2 0x3B71 SWAP2 SWAP1 PUSH2 0x5A45 JUMP JUMPDEST PUSH1 0x40 MLOAD DUP5 PUSH4 0xFFFFFFFF AND PUSH1 0xE0 SHL DUP2 MSTORE PUSH1 0x4 ADD PUSH2 0x3B8F SWAP4 SWAP3 SWAP2 SWAP1 PUSH2 0x5AB8 JUMP JUMPDEST PUSH1 0x20 PUSH1 0x40 MLOAD DUP1 DUP4 SUB DUP2 PUSH0 DUP8 GAS CALL ISZERO DUP1 ISZERO PUSH2 0x3BAB JUMPI RETURNDATASIZE PUSH0 DUP1 RETURNDATACOPY RETURNDATASIZE PUSH0 REVERT JUMPDEST POP POP POP POP PUSH1 0x40 MLOAD RETURNDATASIZE PUSH1 0x1F NOT PUSH1 0x1F DUP3 ADD AND DUP3 ADD DUP1 PUSH1 0x40 MSTORE POP DUP2 ADD SWAP1 PUSH2 0x3BCF SWAP2 SWAP1 PUSH2 0x596A JUMP JUMPDEST SWAP1 POP PUSH2 0x3BD9 PUSH2 0x36FF JUMP JUMPDEST PUSH1 0x1 PUSH1 0x1 PUSH1 0xA0 SHL SUB AND PUSH4 0xA9059CBB PUSH2 0x3BEF PUSH2 0x41E2 JUMP JUMPDEST DUP4 PUSH1 0x40 MLOAD DUP4 PUSH4 0xFFFFFFFF AND PUSH1 0xE0 SHL DUP2 MSTORE PUSH1 0x4 ADD PUSH2 0x3C0D SWAP3 SWAP2 SWAP1 PUSH2 0x59D2 JUMP JUMPDEST PUSH1 0x20 PUSH1 0x40 MLOAD DUP1 DUP4 SUB DUP2 PUSH0 DUP8 GAS CALL ISZERO DUP1 ISZERO PUSH2 0x3C29 JUMPI RETURNDATASIZE PUSH0 DUP1 RETURNDATACOPY RETURNDATASIZE PUSH0 REVERT JUMPDEST POP POP POP POP PUSH1 0x40 MLOAD RETURNDATASIZE PUSH1 0x1F NOT PUSH1 0x1F DUP3 ADD AND DUP3 ADD DUP1 PUSH1 0x40 MSTORE POP DUP2 ADD SWAP1 PUSH2 0x3C4D SWAP2 SWAP1 PUSH2 0x5981 JUMP JUMPDEST POP PUSH2 0x3C56 PUSH2 0x4415 JUMP JUMPDEST PUSH1 0x1 PUSH1 0x1 PUSH1 0xA0 SHL SUB AND PUSH4 0xA9059CBB PUSH2 0x3C6C PUSH2 0x41E2 JUMP JUMPDEST PUSH1 0x2 PUSH2 0x3E8 PUSH2 0x3C7C DUP9 PUSH1 0xA PUSH2 0x5A22 JUMP JUMPDEST PUSH2 0x3C86 SWAP2 SWAP1 PUSH2 0x5A45 JUMP JUMPDEST PUSH2 0x3C90 SWAP2 SWAP1 PUSH2 0x5A45 JUMP JUMPDEST PUSH1 0x40 MLOAD DUP4 PUSH4 0xFFFFFFFF AND PUSH1 0xE0 SHL DUP2 MSTORE PUSH1 0x4 ADD PUSH2 0x3CAD SWAP3 SWAP2 SWAP1 PUSH2 0x5A96 JUMP JUMPDEST PUSH1 0x20 PUSH1 0x40 MLOAD DUP1 DUP4 SUB DUP2 PUSH0 DUP8 GAS CALL ISZERO DUP1 ISZERO PUSH2 0x3CC9 JUMPI RETURNDATASIZE PUSH0 DUP1 RETURNDATACOPY RETURNDATASIZE PUSH0 REVERT JUMPDEST POP POP POP POP PUSH1 0x40 MLOAD RETURNDATASIZE PUSH1 0x1F NOT PUSH1 0x1F DUP3 ADD AND DUP3 ADD DUP1 PUSH1 0x40 MSTORE POP DUP2 ADD SWAP1 PUSH2 0x3CED SWAP2 SWAP1 PUSH2 0x5981 JUMP JUMPDEST POP PUSH2 0x3CF6 PUSH2 0x41E2 JUMP JUMPDEST PUSH1 0x1 PUSH1 0x1 PUSH1 0xA0 SHL SUB AND PUSH4 0x6A627842 PUSH1 0x1 PUSH1 0x40 MLOAD DUP3 PUSH4 0xFFFFFFFF AND PUSH1 0xE0 SHL DUP2 MSTORE PUSH1 0x4 ADD PUSH2 0x3D22 SWAP2 SWAP1 PUSH2 0x567C JUMP JUMPDEST PUSH1 0x20 PUSH1 0x40 MLOAD DUP1 DUP4 SUB DUP2 PUSH0 DUP8 GAS CALL ISZERO DUP1 ISZERO PUSH2 0x3D3E JUMPI RETURNDATASIZE PUSH0 DUP1 RETURNDATACOPY RETURNDATASIZE PUSH0 REVERT JUMPDEST POP POP POP POP PUSH1 0x40 MLOAD RETURNDATASIZE PUSH1 0x1F NOT PUSH1 0x1F DUP3 ADD AND DUP3 ADD DUP1 PUSH1 0x40 MSTORE POP DUP2 ADD SWAP1 PUSH2 0x3D62 SWAP2 SWAP1 PUSH2 0x596A JUMP JUMPDEST POP POP POP POP POP POP POP POP POP POP POP JUMP JUMPDEST PUSH1 0x60 PUSH0 PUSH2 0x3D7C DUP5 DUP5 PUSH2 0x58D2 JUMP JUMPDEST PUSH2 0x3D87 SWAP1 PUSH1 0x1 PUSH2 0x58BF JUMP JUMPDEST SWAP1 POP DUP1 PUSH1 0x1 PUSH1 0x1 PUSH1 0x40 SHL SUB DUP2 GT ISZERO PUSH2 0x3DA1 JUMPI PUSH2 0x3DA1 PUSH2 0x54C4 JUMP JUMPDEST PUSH1 0x40 MLOAD SWAP1 DUP1 DUP3 MSTORE DUP1 PUSH1 0x20 MUL PUSH1 0x20 ADD DUP3 ADD PUSH1 0x40 MSTORE DUP1 ISZERO PUSH2 0x3E02 JUMPI DUP2 PUSH1 0x20 ADD JUMPDEST PUSH2 0x3DEF PUSH1 0x40 MLOAD DUP1 PUSH1 0x80 ADD PUSH1 0x40 MSTORE DUP1 PUSH0 PUSH1 0x1 PUSH1 0x1 PUSH1 0xA0 SHL SUB AND DUP2 MSTORE PUSH1 0x20 ADD PUSH0 DUP2 MSTORE PUSH1 0x20 ADD PUSH0 DUP2 MSTORE PUSH1 0x20 ADD PUSH0 DUP2 MSTORE POP SWAP1 JUMP JUMPDEST DUP2 MSTORE PUSH1 0x20 ADD SWAP1 PUSH1 0x1 SWAP1 SUB SWAP1 DUP2 PUSH2 0x3DBF JUMPI SWAP1 POP JUMPDEST POP SWAP2 POP PUSH0 JUMPDEST DUP2 DUP2 LT ISZERO PUSH2 0x217F JUMPI PUSH1 0xCB PUSH2 0x3E1B DUP3 DUP8 PUSH2 0x58BF JUMP JUMPDEST DUP2 SLOAD DUP2 LT PUSH2 0x3E2B JUMPI PUSH2 0x3E2B PUSH2 0x5897 JUMP JUMPDEST PUSH0 SWAP2 DUP3 MSTORE PUSH1 0x20 SWAP2 DUP3 SWAP1 KECCAK256 PUSH1 0x40 DUP1 MLOAD PUSH1 0x80 DUP2 ADD DUP3 MSTORE PUSH1 0x4 SWAP1 SWAP4 MUL SWAP1 SWAP2 ADD DUP1 SLOAD PUSH1 0x1 PUSH1 0x1 PUSH1 0xA0 SHL SUB AND DUP4 MSTORE PUSH1 0x1 DUP2 ADD SLOAD SWAP4 DUP4 ADD SWAP4 SWAP1 SWAP4 MSTORE PUSH1 0x2 DUP4 ADD SLOAD SWAP1 DUP3 ADD MSTORE PUSH1 0x3 SWAP1 SWAP2 ADD SLOAD PUSH1 0x60 DUP3 ADD MSTORE DUP4 MLOAD DUP5 SWAP1 DUP4 SWAP1 DUP2 LT PUSH2 0x3E88 JUMPI PUSH2 0x3E88 PUSH2 0x5897 JUMP JUMPDEST PUSH1 0x20 MUL PUSH1 0x20 ADD ADD DUP2 SWAP1 MSTORE POP DUP1 DUP1 PUSH2 0x3E9E SWAP1 PUSH2 0x5A0A JUMP JUMPDEST SWAP2 POP POP PUSH2 0x3E07 JUMP JUMPDEST PUSH1 0xCB DUP2 DUP2 SLOAD DUP2 LT PUSH2 0xB7E JUMPI PUSH0 DUP1 REVERT JUMPDEST PUSH2 0x3EBD PUSH2 0x4229 JUMP JUMPDEST PUSH1 0x1 PUSH1 0x1 PUSH1 0xA0 SHL SUB DUP2 AND PUSH2 0x3F22 JUMPI PUSH1 0x40 MLOAD PUSH3 0x461BCD PUSH1 0xE5 SHL DUP2 MSTORE PUSH1 0x20 PUSH1 0x4 DUP3 ADD MSTORE PUSH1 0x26 PUSH1 0x24 DUP3 ADD MSTORE PUSH32 0x4F776E61626C653A206E6577206F776E657220697320746865207A65726F2061 PUSH1 0x44 DUP3 ADD MSTORE PUSH6 0x646472657373 PUSH1 0xD0 SHL PUSH1 0x64 DUP3 ADD MSTORE PUSH1 0x84 ADD PUSH2 0xBF9 JUMP JUMPDEST PUSH2 0xC7E DUP2 PUSH2 0x4B02 JUMP JUMPDEST PUSH1 0x1 PUSH1 0x1 PUSH1 0xA0 SHL SUB DUP2 AND PUSH0 SWAP1 DUP2 MSTORE PUSH1 0xD0 PUSH1 0x20 SWAP1 DUP2 MSTORE PUSH1 0x40 DUP1 DUP4 KECCAK256 DUP1 SLOAD DUP3 MLOAD DUP2 DUP6 MUL DUP2 ADD DUP6 ADD SWAP1 SWAP4 MSTORE DUP1 DUP4 MSTORE PUSH1 0x60 SWAP5 SWAP4 DUP4 ADD DUP3 DUP3 DUP1 ISZERO PUSH2 0x3F87 JUMPI PUSH1 0x20 MUL DUP3 ADD SWAP2 SWAP1 PUSH0 MSTORE PUSH1 0x20 PUSH0 KECCAK256 SWAP1 JUMPDEST DUP2 SLOAD DUP2 MSTORE PUSH1 0x20 ADD SWAP1 PUSH1 0x1 ADD SWAP1 DUP1 DUP4 GT PUSH2 0x3F73 JUMPI JUMPDEST POP POP POP POP POP SWAP1 POP DUP1 MLOAD PUSH1 0x1 PUSH1 0x1 PUSH1 0x40 SHL SUB DUP2 GT ISZERO PUSH2 0x3FA7 JUMPI PUSH2 0x3FA7 PUSH2 0x54C4 JUMP JUMPDEST PUSH1 0x40 MLOAD SWAP1 DUP1 DUP3 MSTORE DUP1 PUSH1 0x20 MUL PUSH1 0x20 ADD DUP3 ADD PUSH1 0x40 MSTORE DUP1 ISZERO PUSH2 0x3FFF JUMPI DUP2 PUSH1 0x20 ADD JUMPDEST PUSH2 0x3FEC PUSH1 0x40 MLOAD DUP1 PUSH1 0x80 ADD PUSH1 0x40 MSTORE DUP1 PUSH0 DUP2 MSTORE PUSH1 0x20 ADD PUSH0 DUP2 MSTORE PUSH1 0x20 ADD PUSH0 DUP2 MSTORE PUSH1 0x20 ADD PUSH0 DUP2 MSTORE POP SWAP1 JUMP JUMPDEST DUP2 MSTORE PUSH1 0x20 ADD SWAP1 PUSH1 0x1 SWAP1 SUB SWAP1 DUP2 PUSH2 0x3FC5 JUMPI SWAP1 POP JUMPDEST POP SWAP2 POP PUSH0 JUMPDEST DUP2 MLOAD DUP2 LT ISZERO PUSH2 0x36F8 JUMPI PUSH0 PUSH1 0xCB DUP4 DUP4 DUP2 MLOAD DUP2 LT PUSH2 0x4022 JUMPI PUSH2 0x4022 PUSH2 0x5897 JUMP JUMPDEST PUSH1 0x20 MUL PUSH1 0x20 ADD ADD MLOAD DUP2 SLOAD DUP2 LT PUSH2 0x403A JUMPI PUSH2 0x403A PUSH2 0x5897 JUMP JUMPDEST PUSH0 SWAP2 DUP3 MSTORE PUSH1 0x20 DUP1 DUP4 KECCAK256 PUSH1 0x40 DUP1 MLOAD PUSH1 0x80 DUP2 ADD DUP3 MSTORE PUSH1 0x4 SWAP5 DUP6 MUL SWAP1 SWAP3 ADD DUP1 SLOAD PUSH1 0x1 PUSH1 0x1 PUSH1 0xA0 SHL SUB SWAP1 DUP2 AND DUP5 MSTORE PUSH1 0x1 DUP3 ADD SLOAD DUP5 DUP7 ADD MSTORE PUSH1 0x2 DUP3 ADD SLOAD DUP5 DUP5 ADD MSTORE PUSH1 0x3 SWAP1 SWAP2 ADD SLOAD PUSH1 0x60 DUP5 ADD MSTORE PUSH1 0xC9 SLOAD DUP3 MLOAD PUSH4 0x16C42977 PUSH1 0xE1 SHL DUP2 MSTORE SWAP3 MLOAD SWAP4 SWAP8 POP TIMESTAMP SWAP6 SWAP2 AND SWAP4 PUSH4 0x2D8852EE SWAP4 DUP4 DUP4 ADD SWAP4 SWAP2 SWAP3 SWAP1 SWAP2 DUP3 SWAP1 SUB ADD DUP2 DUP7 GAS STATICCALL ISZERO DUP1 ISZERO PUSH2 0x40BF JUMPI RETURNDATASIZE PUSH0 DUP1 RETURNDATACOPY RETURNDATASIZE PUSH0 REVERT JUMPDEST POP POP POP POP PUSH1 0x40 MLOAD RETURNDATASIZE PUSH1 0x1F NOT PUSH1 0x1F DUP3 ADD AND DUP3 ADD DUP1 PUSH1 0x40 MSTORE POP DUP2 ADD SWAP1 PUSH2 0x40E3 SWAP2 SWAP1 PUSH2 0x596A JUMP JUMPDEST DUP4 PUSH1 0x40 ADD MLOAD PUSH2 0x40F2 SWAP2 SWAP1 PUSH2 0x58BF JUMP JUMPDEST GT PUSH2 0x40FD JUMPI PUSH0 PUSH2 0x4181 JUMP JUMPDEST PUSH1 0xC9 SLOAD PUSH1 0x40 DUP1 MLOAD PUSH4 0x16C42977 PUSH1 0xE1 SHL DUP2 MSTORE SWAP1 MLOAD TIMESTAMP SWAP3 PUSH1 0x1 PUSH1 0x1 PUSH1 0xA0 SHL SUB AND SWAP2 PUSH4 0x2D8852EE SWAP2 PUSH1 0x4 DUP1 DUP4 ADD SWAP3 PUSH1 0x20 SWAP3 SWAP2 SWAP1 DUP3 SWAP1 SUB ADD DUP2 DUP7 GAS STATICCALL ISZERO DUP1 ISZERO PUSH2 0x4144 JUMPI RETURNDATASIZE PUSH0 DUP1 RETURNDATACOPY RETURNDATASIZE PUSH0 REVERT JUMPDEST POP POP POP POP PUSH1 0x40 MLOAD RETURNDATASIZE PUSH1 0x1F NOT PUSH1 0x1F DUP3 ADD AND DUP3 ADD DUP1 PUSH1 0x40 MSTORE POP DUP2 ADD SWAP1 PUSH2 0x4168 SWAP2 SWAP1 PUSH2 0x596A JUMP JUMPDEST DUP4 PUSH1 0x40 ADD MLOAD PUSH2 0x4177 SWAP2 SWAP1 PUSH2 0x58BF JUMP JUMPDEST PUSH2 0x4181 SWAP2 SWAP1 PUSH2 0x58D2 JUMP JUMPDEST SWAP1 POP PUSH1 0x40 MLOAD DUP1 PUSH1 0x80 ADD PUSH1 0x40 MSTORE DUP1 DUP4 PUSH1 0x20 ADD MLOAD DUP2 MSTORE PUSH1 0x20 ADD DUP4 PUSH1 0x40 ADD MLOAD DUP2 MSTORE PUSH1 0x20 ADD DUP3 DUP2 MSTORE PUSH1 0x20 ADD DUP4 PUSH1 0x60 ADD MLOAD DUP2 MSTORE POP DUP6 DUP5 DUP2 MLOAD DUP2 LT PUSH2 0x41C2 JUMPI PUSH2 0x41C2 PUSH2 0x5897 JUMP JUMPDEST PUSH1 0x20 MUL PUSH1 0x20 ADD ADD DUP2 SWAP1 MSTORE POP POP POP DUP1 DUP1 PUSH2 0x41DA SWAP1 PUSH2 0x5A0A JUMP JUMPDEST SWAP2 POP POP PUSH2 0x4004 JUMP JUMPDEST PUSH1 0xC9 SLOAD PUSH1 0x40 DUP1 MLOAD PUSH4 0x5250C9B5 PUSH1 0xE0 SHL DUP2 MSTORE SWAP1 MLOAD PUSH0 SWAP3 PUSH1 0x1 PUSH1 0x1 PUSH1 0xA0 SHL SUB AND SWAP2 PUSH4 0x5250C9B5 SWAP2 PUSH1 0x4 DUP1 DUP4 ADD SWAP3 PUSH1 0x20 SWAP3 SWAP2 SWAP1 DUP3 SWAP1 SUB ADD DUP2 DUP7 GAS STATICCALL ISZERO DUP1 ISZERO PUSH2 0x3746 JUMPI RETURNDATASIZE PUSH0 DUP1 RETURNDATACOPY RETURNDATASIZE PUSH0 REVERT JUMPDEST CALLER PUSH2 0x4232 PUSH2 0x23CD JUMP JUMPDEST PUSH1 0x1 PUSH1 0x1 PUSH1 0xA0 SHL SUB AND EQ PUSH2 0x23BD JUMPI PUSH1 0x40 MLOAD PUSH3 0x461BCD PUSH1 0xE5 SHL DUP2 MSTORE PUSH1 0x20 PUSH1 0x4 DUP3 ADD DUP2 SWAP1 MSTORE PUSH1 0x24 DUP3 ADD MSTORE PUSH32 0x4F776E61626C653A2063616C6C6572206973206E6F7420746865206F776E6572 PUSH1 0x44 DUP3 ADD MSTORE PUSH1 0x64 ADD PUSH2 0xBF9 JUMP JUMPDEST PUSH0 DUP1 MLOAD PUSH1 0x20 PUSH2 0x5D15 DUP4 CODECOPY DUP2 MLOAD SWAP2 MSTORE SLOAD PUSH1 0x1 PUSH1 0x1 PUSH1 0xA0 SHL SUB AND SWAP1 JUMP JUMPDEST PUSH2 0xC7E PUSH2 0x4229 JUMP JUMPDEST PUSH32 0x4910FDFA16FED3260ED0E7147F7CC6DA11A60208B5B9406D12A635614FFD9143 SLOAD PUSH1 0xFF AND ISZERO PUSH2 0x42DE JUMPI PUSH2 0x1FA6 DUP4 PUSH2 0x4CB5 JUMP JUMPDEST DUP3 PUSH1 0x1 PUSH1 0x1 PUSH1 0xA0 SHL SUB AND PUSH4 0x52D1902D PUSH1 0x40 MLOAD DUP2 PUSH4 0xFFFFFFFF AND PUSH1 0xE0 SHL DUP2 MSTORE PUSH1 0x4 ADD PUSH1 0x20 PUSH1 0x40 MLOAD DUP1 DUP4 SUB DUP2 DUP7 GAS STATICCALL SWAP3 POP POP POP DUP1 ISZERO PUSH2 0x4338 JUMPI POP PUSH1 0x40 DUP1 MLOAD PUSH1 0x1F RETURNDATASIZE SWAP1 DUP2 ADD PUSH1 0x1F NOT AND DUP3 ADD SWAP1 SWAP3 MSTORE PUSH2 0x4335 SWAP2 DUP2 ADD SWAP1 PUSH2 0x596A JUMP JUMPDEST PUSH1 0x1 JUMPDEST PUSH2 0x439B JUMPI PUSH1 0x40 MLOAD PUSH3 0x461BCD PUSH1 0xE5 SHL DUP2 MSTORE PUSH1 0x20 PUSH1 0x4 DUP3 ADD MSTORE PUSH1 0x2E PUSH1 0x24 DUP3 ADD MSTORE PUSH32 0x45524331393637557067726164653A206E657720696D706C656D656E74617469 PUSH1 0x44 DUP3 ADD MSTORE PUSH14 0x6F6E206973206E6F742055555053 PUSH1 0x90 SHL PUSH1 0x64 DUP3 ADD MSTORE PUSH1 0x84 ADD PUSH2 0xBF9 JUMP JUMPDEST PUSH0 DUP1 MLOAD PUSH1 0x20 PUSH2 0x5D15 DUP4 CODECOPY DUP2 MLOAD SWAP2 MSTORE DUP2 EQ PUSH2 0x4409 JUMPI PUSH1 0x40 MLOAD PUSH3 0x461BCD PUSH1 0xE5 SHL DUP2 MSTORE PUSH1 0x20 PUSH1 0x4 DUP3 ADD MSTORE PUSH1 0x29 PUSH1 0x24 DUP3 ADD MSTORE PUSH32 0x45524331393637557067726164653A20756E737570706F727465642070726F78 PUSH1 0x44 DUP3 ADD MSTORE PUSH9 0x1A58589B1955555251 PUSH1 0xBA SHL PUSH1 0x64 DUP3 ADD MSTORE PUSH1 0x84 ADD PUSH2 0xBF9 JUMP JUMPDEST POP PUSH2 0x1FA6 DUP4 DUP4 DUP4 PUSH2 0x4D4E JUMP JUMPDEST PUSH1 0xC9 SLOAD PUSH1 0x40 DUP1 MLOAD PUSH4 0x2F48AB7D PUSH1 0xE0 SHL DUP2 MSTORE SWAP1 MLOAD PUSH0 SWAP3 PUSH1 0x1 PUSH1 0x1 PUSH1 0xA0 SHL SUB AND SWAP2 PUSH4 0x2F48AB7D SWAP2 PUSH1 0x4 DUP1 DUP4 ADD SWAP3 PUSH1 0x20 SWAP3 SWAP2 SWAP1 DUP3 SWAP1 SUB ADD DUP2 DUP7 GAS STATICCALL ISZERO DUP1 ISZERO PUSH2 0x3746 JUMPI RETURNDATASIZE PUSH0 DUP1 RETURNDATACOPY RETURNDATASIZE PUSH0 REVERT JUMPDEST PUSH0 DUP1 PUSH0 PUSH2 0x4467 PUSH2 0x41E2 JUMP JUMPDEST PUSH1 0x1 PUSH1 0x1 PUSH1 0xA0 SHL SUB AND PUSH4 0x902F1AC PUSH1 0x40 MLOAD DUP2 PUSH4 0xFFFFFFFF AND PUSH1 0xE0 SHL DUP2 MSTORE PUSH1 0x4 ADD PUSH1 0x60 PUSH1 0x40 MLOAD DUP1 DUP4 SUB DUP2 DUP7 GAS STATICCALL ISZERO DUP1 ISZERO PUSH2 0x44A2 JUMPI RETURNDATASIZE PUSH0 DUP1 RETURNDATACOPY RETURNDATASIZE PUSH0 REVERT JUMPDEST POP POP POP POP PUSH1 0x40 MLOAD RETURNDATASIZE PUSH1 0x1F NOT PUSH1 0x1F DUP3 ADD AND DUP3 ADD DUP1 PUSH1 0x40 MSTORE POP DUP2 ADD SWAP1 PUSH2 0x44C6 SWAP2 SWAP1 PUSH2 0x5824 JUMP JUMPDEST POP SWAP2 POP SWAP2 POP PUSH0 DUP1 PUSH2 0x44D5 PUSH2 0x4415 JUMP JUMPDEST PUSH1 0x1 PUSH1 0x1 PUSH1 0xA0 SHL SUB AND PUSH2 0x44E6 PUSH2 0x41E2 JUMP JUMPDEST PUSH1 0x1 PUSH1 0x1 PUSH1 0xA0 SHL SUB AND PUSH4 0xDFE1681 PUSH1 0x40 MLOAD DUP2 PUSH4 0xFFFFFFFF AND PUSH1 0xE0 SHL DUP2 MSTORE PUSH1 0x4 ADD PUSH1 0x20 PUSH1 0x40 MLOAD DUP1 DUP4 SUB DUP2 DUP7 GAS STATICCALL ISZERO DUP1 ISZERO PUSH2 0x4521 JUMPI RETURNDATASIZE PUSH0 DUP1 RETURNDATACOPY RETURNDATASIZE PUSH0 REVERT JUMPDEST POP POP POP POP PUSH1 0x40 MLOAD RETURNDATASIZE PUSH1 0x1F NOT PUSH1 0x1F DUP3 ADD AND DUP3 ADD DUP1 PUSH1 0x40 MSTORE POP DUP2 ADD SWAP1 PUSH2 0x4545 SWAP2 SWAP1 PUSH2 0x59A0 JUMP JUMPDEST PUSH1 0x1 PUSH1 0x1 PUSH1 0xA0 SHL SUB AND EQ PUSH2 0x455A JUMPI DUP3 DUP5 PUSH2 0x455D JUMP JUMPDEST DUP4 DUP4 JUMPDEST SWAP2 POP SWAP2 POP PUSH2 0x4569 PUSH2 0x41E2 JUMP JUMPDEST PUSH1 0x1 PUSH1 0x1 PUSH1 0xA0 SHL SUB AND PUSH4 0x54D50D4 PUSH8 0xDE0B6B3A7640000 DUP4 DUP6 PUSH1 0x40 MLOAD DUP5 PUSH4 0xFFFFFFFF AND PUSH1 0xE0 SHL DUP2 MSTORE PUSH1 0x4 ADD PUSH2 0x45A0 SWAP4 SWAP3 SWAP2 SWAP1 PUSH2 0x59EB JUMP JUMPDEST PUSH1 0x20 PUSH1 0x40 MLOAD DUP1 DUP4 SUB DUP2 DUP7 GAS STATICCALL ISZERO DUP1 ISZERO PUSH2 0x45BB JUMPI RETURNDATASIZE PUSH0 DUP1 RETURNDATACOPY RETURNDATASIZE PUSH0 REVERT JUMPDEST POP POP POP POP PUSH1 0x40 MLOAD RETURNDATASIZE PUSH1 0x1F NOT PUSH1 0x1F DUP3 ADD AND DUP3 ADD DUP1 PUSH1 0x40 MSTORE POP DUP2 ADD SWAP1 PUSH2 0x45DF SWAP2 SWAP1 PUSH2 0x596A JUMP JUMPDEST SWAP5 POP POP POP POP POP SWAP1 JUMP JUMPDEST PUSH1 0xC9 SLOAD PUSH1 0x40 DUP1 MLOAD PUSH4 0x602E6623 PUSH1 0xE0 SHL DUP2 MSTORE SWAP1 MLOAD PUSH0 SWAP3 PUSH1 0x1 PUSH1 0x1 PUSH1 0xA0 SHL SUB AND SWAP2 PUSH4 0x602E6623 SWAP2 PUSH1 0x4 DUP1 DUP4 ADD SWAP3 PUSH1 0x20 SWAP3 SWAP2 SWAP1 DUP3 SWAP1 SUB ADD DUP2 DUP7 GAS STATICCALL ISZERO DUP1 ISZERO PUSH2 0x3746 JUMPI RETURNDATASIZE PUSH0 DUP1 RETURNDATACOPY RETURNDATASIZE PUSH0 REVERT JUMPDEST PUSH0 PUSH1 0xD6 SLOAD GT DUP1 ISZERO PUSH2 0x464E JUMPI POP PUSH2 0x258 PUSH1 0xD6 SLOAD TIMESTAMP PUSH2 0x464C SWAP2 SWAP1 PUSH2 0x58D2 JUMP JUMPDEST GT JUMPDEST ISZERO PUSH2 0x47F7 JUMPI PUSH0 PUSH2 0x3E8 PUSH1 0xD4 SLOAD PUSH1 0x64 PUSH2 0x4666 SWAP2 SWAP1 PUSH2 0x59BB JUMP JUMPDEST PUSH2 0x4670 SWAP2 SWAP1 PUSH2 0x58E5 JUMP JUMPDEST SWAP1 POP DUP1 PUSH1 0xD4 PUSH0 DUP3 DUP3 SLOAD PUSH2 0x4683 SWAP2 SWAP1 PUSH2 0x58D2 JUMP JUMPDEST SWAP1 SWAP2 SSTORE POP POP DUP1 ISZERO PUSH2 0x47F5 JUMPI PUSH2 0x4696 PUSH2 0x4415 JUMP JUMPDEST PUSH1 0x1 PUSH1 0x1 PUSH1 0xA0 SHL SUB AND PUSH4 0xA9059CBB PUSH1 0xCB PUSH1 0x2 PUSH1 0xCB DUP1 SLOAD SWAP1 POP PUSH2 0x46B8 SWAP2 SWAP1 PUSH2 0x58D2 JUMP JUMPDEST DUP2 SLOAD DUP2 LT PUSH2 0x46C8 JUMPI PUSH2 0x46C8 PUSH2 0x5897 JUMP JUMPDEST PUSH0 SWAP2 DUP3 MSTORE PUSH1 0x20 SWAP1 SWAP2 KECCAK256 PUSH1 0x4 SWAP2 DUP3 MUL ADD SLOAD PUSH1 0x40 MLOAD PUSH1 0x1 PUSH1 0x1 PUSH1 0xE0 SHL SUB NOT PUSH1 0xE0 DUP6 SWAP1 SHL AND DUP2 MSTORE PUSH2 0x4704 SWAP3 PUSH1 0x1 PUSH1 0x1 PUSH1 0xA0 SHL SUB SWAP1 SWAP3 AND SWAP2 DUP7 SWAP2 ADD PUSH2 0x59D2 JUMP JUMPDEST PUSH1 0x20 PUSH1 0x40 MLOAD DUP1 DUP4 SUB DUP2 PUSH0 DUP8 GAS CALL ISZERO DUP1 ISZERO PUSH2 0x4720 JUMPI RETURNDATASIZE PUSH0 DUP1 RETURNDATACOPY RETURNDATASIZE PUSH0 REVERT JUMPDEST POP POP POP POP PUSH1 0x40 MLOAD RETURNDATASIZE PUSH1 0x1F NOT PUSH1 0x1F DUP3 ADD AND DUP3 ADD DUP1 PUSH1 0x40 MSTORE POP DUP2 ADD SWAP1 PUSH2 0x4744 SWAP2 SWAP1 PUSH2 0x5981 JUMP JUMPDEST POP PUSH1 0xCD PUSH1 0x40 MLOAD DUP1 PUSH1 0x80 ADD PUSH1 0x40 MSTORE DUP1 PUSH1 0xCB PUSH1 0x2 PUSH1 0xCB DUP1 SLOAD SWAP1 POP PUSH2 0x4766 SWAP2 SWAP1 PUSH2 0x58D2 JUMP JUMPDEST DUP2 SLOAD DUP2 LT PUSH2 0x4776 JUMPI PUSH2 0x4776 PUSH2 0x5897 JUMP JUMPDEST PUSH0 SWAP2 DUP3 MSTORE PUSH1 0x20 DUP1 DUP4 KECCAK256 PUSH1 0x4 SWAP3 DUP4 MUL ADD SLOAD PUSH1 0x1 PUSH1 0x1 PUSH1 0xA0 SHL SUB SWAP1 DUP2 AND DUP6 MSTORE DUP5 DUP3 ADD DUP9 SWAP1 MSTORE NUMBER PUSH1 0x40 DUP1 DUP8 ADD SWAP2 SWAP1 SWAP2 MSTORE TIMESTAMP PUSH1 0x60 SWAP7 DUP8 ADD MSTORE DUP8 SLOAD PUSH1 0x1 DUP1 DUP3 ADD DUP11 SSTORE SWAP9 DUP7 MSTORE SWAP5 DUP4 SWAP1 KECCAK256 DUP8 MLOAD SWAP6 SWAP1 SWAP5 MUL SWAP1 SWAP4 ADD DUP1 SLOAD PUSH1 0x1 PUSH1 0x1 PUSH1 0xA0 SHL SUB NOT AND SWAP5 SWAP1 SWAP2 AND SWAP4 SWAP1 SWAP4 OR DUP4 SSTORE DUP5 ADD MLOAD SWAP5 DUP3 ADD SWAP5 SWAP1 SWAP5 SSTORE SWAP3 DUP3 ADD MLOAD PUSH1 0x2 DUP5 ADD SSTORE ADD MLOAD PUSH1 0x3 SWAP1 SWAP2 ADD SSTORE JUMPDEST POP JUMPDEST TIMESTAMP PUSH1 0xD6 SSTORE JUMP JUMPDEST PUSH1 0xCB SLOAD PUSH1 0x1 SUB PUSH2 0x4809 JUMPI JUMP JUMPDEST PUSH0 PUSH1 0xCB PUSH1 0xD7 SLOAD DUP2 SLOAD DUP2 LT PUSH2 0x481F JUMPI PUSH2 0x481F PUSH2 0x5897 JUMP JUMPDEST PUSH0 SWAP2 DUP3 MSTORE PUSH1 0x20 SWAP2 DUP3 SWAP1 KECCAK256 PUSH1 0x40 DUP1 MLOAD PUSH1 0x80 DUP2 ADD DUP3 MSTORE PUSH1 0x4 SWAP1 SWAP4 MUL SWAP1 SWAP2 ADD DUP1 SLOAD PUSH1 0x1 PUSH1 0x1 PUSH1 0xA0 SHL SUB AND DUP4 MSTORE PUSH1 0x1 DUP2 ADD SLOAD SWAP4 DUP4 ADD SWAP4 SWAP1 SWAP4 MSTORE PUSH1 0x2 DUP4 ADD SLOAD SWAP1 DUP3 ADD DUP2 SWAP1 MSTORE PUSH1 0x3 SWAP1 SWAP3 ADD SLOAD PUSH1 0x60 DUP3 ADD MSTORE SWAP2 POP PUSH3 0x15180 SWAP1 PUSH2 0x487B SWAP1 TIMESTAMP PUSH2 0x58D2 JUMP JUMPDEST GT DUP1 ISZERO PUSH2 0x4897 JUMPI POP PUSH3 0x15180 PUSH1 0xD8 SLOAD TIMESTAMP PUSH2 0x4895 SWAP2 SWAP1 PUSH2 0x58D2 JUMP JUMPDEST GT JUMPDEST ISZERO PUSH2 0x4A47 JUMPI PUSH0 PUSH2 0x3E8 PUSH1 0xD5 SLOAD PUSH2 0x1F4 PUSH2 0x48B0 SWAP2 SWAP1 PUSH2 0x59BB JUMP JUMPDEST PUSH2 0x48BA SWAP2 SWAP1 PUSH2 0x58E5 JUMP JUMPDEST SWAP1 POP DUP1 PUSH1 0xD5 PUSH0 DUP3 DUP3 SLOAD PUSH2 0x48CD SWAP2 SWAP1 PUSH2 0x58D2 JUMP JUMPDEST SWAP1 SWAP2 SSTORE POP POP DUP1 ISZERO PUSH2 0x4A41 JUMPI PUSH2 0x48E0 PUSH2 0x4415 JUMP JUMPDEST DUP3 MLOAD PUSH1 0x40 MLOAD PUSH4 0xA9059CBB PUSH1 0xE0 SHL DUP2 MSTORE PUSH1 0x1 PUSH1 0x1 PUSH1 0xA0 SHL SUB SWAP3 SWAP1 SWAP3 AND SWAP2 PUSH4 0xA9059CBB SWAP2 PUSH2 0x4910 SWAP2 DUP6 SWAP1 PUSH1 0x4 ADD PUSH2 0x59D2 JUMP JUMPDEST PUSH1 0x20 PUSH1 0x40 MLOAD DUP1 DUP4 SUB DUP2 PUSH0 DUP8 GAS CALL ISZERO DUP1 ISZERO PUSH2 0x492C JUMPI RETURNDATASIZE PUSH0 DUP1 RETURNDATACOPY RETURNDATASIZE PUSH0 REVERT JUMPDEST POP POP POP POP PUSH1 0x40 MLOAD RETURNDATASIZE PUSH1 0x1F NOT PUSH1 0x1F DUP3 ADD AND DUP3 ADD DUP1 PUSH1 0x40 MSTORE POP DUP2 ADD SWAP1 PUSH2 0x4950 SWAP2 SWAP1 PUSH2 0x5981 JUMP JUMPDEST POP PUSH1 0x40 DUP1 MLOAD PUSH1 0x80 DUP2 ADD DUP3 MSTORE DUP4 MLOAD PUSH1 0x1 PUSH1 0x1 PUSH1 0xA0 SHL SUB SWAP1 DUP2 AND DUP3 MSTORE PUSH1 0x20 DUP3 ADD DUP5 DUP2 MSTORE NUMBER SWAP4 DUP4 ADD SWAP4 DUP5 MSTORE TIMESTAMP PUSH1 0x60 DUP5 ADD SWAP1 DUP2 MSTORE PUSH1 0xCE DUP1 SLOAD PUSH1 0x1 DUP2 ADD DUP3 SSTORE PUSH0 SWAP2 SWAP1 SWAP2 MSTORE SWAP4 MLOAD PUSH32 0xD36CD1C74EF8D7326D8021B776C18FB5A5724B7F7BC93C2F42E43E10EF27D12A PUSH1 0x4 SWAP1 SWAP6 MUL SWAP5 DUP6 ADD DUP1 SLOAD PUSH1 0x1 PUSH1 0x1 PUSH1 0xA0 SHL SUB NOT AND SWAP2 SWAP1 SWAP5 AND OR SWAP1 SWAP3 SSTORE MLOAD PUSH32 0xD36CD1C74EF8D7326D8021B776C18FB5A5724B7F7BC93C2F42E43E10EF27D12B DUP4 ADD SSTORE SWAP2 MLOAD PUSH32 0xD36CD1C74EF8D7326D8021B776C18FB5A5724B7F7BC93C2F42E43E10EF27D12C DUP3 ADD SSTORE SWAP1 MLOAD PUSH32 0xD36CD1C74EF8D7326D8021B776C18FB5A5724B7F7BC93C2F42E43E10EF27D12D SWAP1 SWAP2 ADD SSTORE JUMPDEST POP TIMESTAMP PUSH1 0xD8 SSTORE JUMPDEST PUSH1 0x20 DUP2 ADD MLOAD PUSH1 0xCB DUP1 SLOAD PUSH2 0x4A5C SWAP1 PUSH1 0x1 SWAP1 PUSH2 0x58D2 JUMP JUMPDEST DUP2 SLOAD DUP2 LT PUSH2 0x4A6C JUMPI PUSH2 0x4A6C PUSH2 0x5897 JUMP JUMPDEST SWAP1 PUSH0 MSTORE PUSH1 0x20 PUSH0 KECCAK256 SWAP1 PUSH1 0x4 MUL ADD PUSH1 0x1 ADD SLOAD GT ISZERO PUSH2 0xC7E JUMPI PUSH1 0xCB SLOAD PUSH2 0x4A91 SWAP1 PUSH1 0x1 SWAP1 PUSH2 0x58D2 JUMP JUMPDEST PUSH1 0xD7 SSTORE POP JUMP JUMPDEST PUSH1 0xC9 SLOAD PUSH1 0x40 DUP1 MLOAD PUSH4 0x16C42977 PUSH1 0xE1 SHL DUP2 MSTORE SWAP1 MLOAD PUSH0 SWAP3 PUSH1 0x1 PUSH1 0x1 PUSH1 0xA0 SHL SUB AND SWAP2 PUSH4 0x2D8852EE SWAP2 PUSH1 0x4 DUP1 DUP4 ADD SWAP3 PUSH1 0x20 SWAP3 SWAP2 SWAP1 DUP3 SWAP1 SUB ADD DUP2 DUP7 GAS STATICCALL ISZERO DUP1 ISZERO PUSH2 0x4ADE JUMPI RETURNDATASIZE PUSH0 DUP1 RETURNDATACOPY RETURNDATASIZE PUSH0 REVERT JUMPDEST POP POP POP POP PUSH1 0x40 MLOAD RETURNDATASIZE PUSH1 0x1F NOT PUSH1 0x1F DUP3 ADD AND DUP3 ADD DUP1 PUSH1 0x40 MSTORE POP DUP2 ADD SWAP1 PUSH2 0x23C8 SWAP2 SWAP1 PUSH2 0x596A JUMP JUMPDEST PUSH1 0x33 DUP1 SLOAD PUSH1 0x1 PUSH1 0x1 PUSH1 0xA0 SHL SUB DUP4 DUP2 AND PUSH1 0x1 PUSH1 0x1 PUSH1 0xA0 SHL SUB NOT DUP4 AND DUP2 OR SWAP1 SWAP4 SSTORE PUSH1 0x40 MLOAD SWAP2 AND SWAP2 SWAP1 DUP3 SWAP1 PUSH32 0x8BE0079C531659141344CD1FD0A4F28419497F9722A3DAAFE3B4186F6B6457E0 SWAP1 PUSH0 SWAP1 LOG3 POP POP JUMP JUMPDEST PUSH1 0x1 PUSH1 0x1 PUSH1 0xA0 SHL SUB AND EXTCODESIZE ISZERO ISZERO SWAP1 JUMP JUMPDEST PUSH0 SLOAD PUSH2 0x100 SWAP1 DIV PUSH1 0xFF AND PUSH2 0x4B88 JUMPI PUSH1 0x40 MLOAD PUSH3 0x461BCD PUSH1 0xE5 SHL DUP2 MSTORE PUSH1 0x4 ADD PUSH2 0xBF9 SWAP1 PUSH2 0x5B63 JUMP JUMPDEST PUSH2 0x23BD PUSH2 0x4D78 JUMP JUMPDEST PUSH0 DUP1 PUSH0 PUSH2 0x4B9D DUP6 DUP6 PUSH2 0x4DA7 JUMP JUMPDEST SWAP2 POP SWAP2 POP PUSH2 0x4BAA DUP2 PUSH2 0x4DE9 JUMP JUMPDEST POP SWAP1 POP JUMPDEST SWAP3 SWAP2 POP POP JUMP JUMPDEST PUSH0 DUP1 DUP1 DUP1 DUP1 DUP1 PUSH2 0x4BCF PUSH2 0x4BCA PUSH3 0x15180 DUP10 PUSH2 0x58E5 JUMP JUMPDEST PUSH2 0x4F2D JUMP JUMPDEST SWAP2 SWAP8 POP SWAP6 POP SWAP4 POP PUSH0 PUSH2 0x4BE4 PUSH3 0x15180 DUP10 PUSH2 0x5884 JUMP JUMPDEST SWAP1 POP PUSH2 0x4BF2 PUSH2 0xE10 DUP3 PUSH2 0x58E5 JUMP JUMPDEST SWAP4 POP PUSH2 0x4C00 PUSH2 0xE10 DUP3 PUSH2 0x5884 JUMP JUMPDEST SWAP1 POP PUSH2 0x4C0D PUSH1 0x3C DUP3 PUSH2 0x58E5 JUMP JUMPDEST SWAP3 POP PUSH2 0x4C1A PUSH1 0x3C DUP3 PUSH2 0x5884 JUMP JUMPDEST SWAP2 POP POP SWAP2 SWAP4 SWAP6 POP SWAP2 SWAP4 SWAP6 JUMP JUMPDEST PUSH1 0x60 PUSH0 PUSH2 0x4C32 DUP4 PUSH2 0x509C JUMP JUMPDEST PUSH1 0x1 ADD SWAP1 POP PUSH0 DUP2 PUSH1 0x1 PUSH1 0x1 PUSH1 0x40 SHL SUB DUP2 GT ISZERO PUSH2 0x4C50 JUMPI PUSH2 0x4C50 PUSH2 0x54C4 JUMP JUMPDEST PUSH1 0x40 MLOAD SWAP1 DUP1 DUP3 MSTORE DUP1 PUSH1 0x1F ADD PUSH1 0x1F NOT AND PUSH1 0x20 ADD DUP3 ADD PUSH1 0x40 MSTORE DUP1 ISZERO PUSH2 0x4C7A JUMPI PUSH1 0x20 DUP3 ADD DUP2 DUP1 CALLDATASIZE DUP4 CALLDATACOPY ADD SWAP1 POP JUMPDEST POP SWAP1 POP DUP2 DUP2 ADD PUSH1 0x20 ADD JUMPDEST PUSH0 NOT ADD PUSH16 0x181899199A1A9B1B9C1CB0B131B232B3 PUSH1 0x81 SHL PUSH1 0xA DUP7 MOD BYTE DUP2 MSTORE8 PUSH1 0xA DUP6 DIV SWAP5 POP DUP5 PUSH2 0x4C84 JUMPI POP SWAP4 SWAP3 POP POP POP JUMP JUMPDEST PUSH2 0x4CBE DUP2 PUSH2 0x4B53 JUMP JUMPDEST PUSH2 0x4D20 JUMPI PUSH1 0x40 MLOAD PUSH3 0x461BCD PUSH1 0xE5 SHL DUP2 MSTORE PUSH1 0x20 PUSH1 0x4 DUP3 ADD MSTORE PUSH1 0x2D PUSH1 0x24 DUP3 ADD MSTORE PUSH32 0x455243313936373A206E657720696D706C656D656E746174696F6E206973206E PUSH1 0x44 DUP3 ADD MSTORE PUSH13 0x1BDD08184818DBDB9D1C9858DD PUSH1 0x9A SHL PUSH1 0x64 DUP3 ADD MSTORE PUSH1 0x84 ADD PUSH2 0xBF9 JUMP JUMPDEST PUSH0 DUP1 MLOAD PUSH1 0x20 PUSH2 0x5D15 DUP4 CODECOPY DUP2 MLOAD SWAP2 MSTORE DUP1 SLOAD PUSH1 0x1 PUSH1 0x1 PUSH1 0xA0 SHL SUB NOT AND PUSH1 0x1 PUSH1 0x1 PUSH1 0xA0 SHL SUB SWAP3 SWAP1 SWAP3 AND SWAP2 SWAP1 SWAP2 OR SWAP1 SSTORE JUMP JUMPDEST PUSH2 0x4D57 DUP4 PUSH2 0x5171 JUMP JUMPDEST PUSH0 DUP3 MLOAD GT DUP1 PUSH2 0x4D63 JUMPI POP DUP1 JUMPDEST ISZERO PUSH2 0x1FA6 JUMPI PUSH2 0x4D72 DUP4 DUP4 PUSH2 0x51B0 JUMP JUMPDEST POP POP POP POP JUMP JUMPDEST PUSH0 SLOAD PUSH2 0x100 SWAP1 DIV PUSH1 0xFF AND PUSH2 0x4D9E JUMPI PUSH1 0x40 MLOAD PUSH3 0x461BCD PUSH1 0xE5 SHL DUP2 MSTORE PUSH1 0x4 ADD PUSH2 0xBF9 SWAP1 PUSH2 0x5B63 JUMP JUMPDEST PUSH2 0x23BD CALLER PUSH2 0x4B02 JUMP JUMPDEST PUSH0 DUP1 DUP3 MLOAD PUSH1 0x41 SUB PUSH2 0x4DDB JUMPI PUSH1 0x20 DUP4 ADD MLOAD PUSH1 0x40 DUP5 ADD MLOAD PUSH1 0x60 DUP6 ADD MLOAD PUSH0 BYTE PUSH2 0x4DCF DUP8 DUP3 DUP6 DUP6 PUSH2 0x529E JUMP JUMPDEST SWAP5 POP SWAP5 POP POP POP POP PUSH2 0x4DE2 JUMP JUMPDEST POP PUSH0 SWAP1 POP PUSH1 0x2 JUMPDEST SWAP3 POP SWAP3 SWAP1 POP JUMP JUMPDEST PUSH0 DUP2 PUSH1 0x4 DUP2 GT ISZERO PUSH2 0x4DFC JUMPI PUSH2 0x4DFC PUSH2 0x5BAE JUMP JUMPDEST SUB PUSH2 0x4E04 JUMPI POP JUMP JUMPDEST PUSH1 0x1 DUP2 PUSH1 0x4 DUP2 GT ISZERO PUSH2 0x4E18 JUMPI PUSH2 0x4E18 PUSH2 0x5BAE JUMP JUMPDEST SUB PUSH2 0x4E60 JUMPI PUSH1 0x40 MLOAD PUSH3 0x461BCD PUSH1 0xE5 SHL DUP2 MSTORE PUSH1 0x20 PUSH1 0x4 DUP3 ADD MSTORE PUSH1 0x18 PUSH1 0x24 DUP3 ADD MSTORE PUSH24 0x45434453413A20696E76616C6964207369676E6174757265 PUSH1 0x40 SHL PUSH1 0x44 DUP3 ADD MSTORE PUSH1 0x64 ADD PUSH2 0xBF9 JUMP JUMPDEST PUSH1 0x2 DUP2 PUSH1 0x4 DUP2 GT ISZERO PUSH2 0x4E74 JUMPI PUSH2 0x4E74 PUSH2 0x5BAE JUMP JUMPDEST SUB PUSH2 0x4EC1 JUMPI PUSH1 0x40 MLOAD PUSH3 0x461BCD PUSH1 0xE5 SHL DUP2 MSTORE PUSH1 0x20 PUSH1 0x4 DUP3 ADD MSTORE PUSH1 0x1F PUSH1 0x24 DUP3 ADD MSTORE PUSH32 0x45434453413A20696E76616C6964207369676E6174757265206C656E67746800 PUSH1 0x44 DUP3 ADD MSTORE PUSH1 0x64 ADD PUSH2 0xBF9 JUMP JUMPDEST PUSH1 0x3 DUP2 PUSH1 0x4 DUP2 GT ISZERO PUSH2 0x4ED5 JUMPI PUSH2 0x4ED5 PUSH2 0x5BAE JUMP JUMPDEST SUB PUSH2 0xC7E JUMPI PUSH1 0x40 MLOAD PUSH3 0x461BCD PUSH1 0xE5 SHL DUP2 MSTORE PUSH1 0x20 PUSH1 0x4 DUP3 ADD MSTORE PUSH1 0x22 PUSH1 0x24 DUP3 ADD MSTORE PUSH32 0x45434453413A20696E76616C6964207369676E6174757265202773272076616C PUSH1 0x44 DUP3 ADD MSTORE PUSH2 0x7565 PUSH1 0xF0 SHL PUSH1 0x64 DUP3 ADD MSTORE PUSH1 0x84 ADD PUSH2 0xBF9 JUMP JUMPDEST PUSH0 DUP1 DUP1 DUP4 DUP2 PUSH3 0x253D8C PUSH2 0x4F43 DUP4 PUSH3 0x10BD9 PUSH2 0x5BC2 JUMP JUMPDEST PUSH2 0x4F4D SWAP2 SWAP1 PUSH2 0x5BC2 JUMP JUMPDEST SWAP1 POP PUSH0 PUSH3 0x23AB1 PUSH2 0x4F5F DUP4 PUSH1 0x4 PUSH2 0x5BE1 JUMP JUMPDEST PUSH2 0x4F69 SWAP2 SWAP1 PUSH2 0x5C10 JUMP JUMPDEST SWAP1 POP PUSH1 0x4 PUSH2 0x4F7A DUP3 PUSH3 0x23AB1 PUSH2 0x5BE1 JUMP JUMPDEST PUSH2 0x4F85 SWAP1 PUSH1 0x3 PUSH2 0x5BC2 JUMP JUMPDEST PUSH2 0x4F8F SWAP2 SWAP1 PUSH2 0x5C10 JUMP JUMPDEST PUSH2 0x4F99 SWAP1 DUP4 PUSH2 0x5C3C JUMP JUMPDEST SWAP2 POP PUSH0 PUSH3 0x164B09 PUSH2 0x4FAB DUP5 PUSH1 0x1 PUSH2 0x5BC2 JUMP JUMPDEST PUSH2 0x4FB7 SWAP1 PUSH2 0xFA0 PUSH2 0x5BE1 JUMP JUMPDEST PUSH2 0x4FC1 SWAP2 SWAP1 PUSH2 0x5C10 JUMP JUMPDEST SWAP1 POP PUSH1 0x4 PUSH2 0x4FD1 DUP3 PUSH2 0x5B5 PUSH2 0x5BE1 JUMP JUMPDEST PUSH2 0x4FDB SWAP2 SWAP1 PUSH2 0x5C10 JUMP JUMPDEST PUSH2 0x4FE5 SWAP1 DUP5 PUSH2 0x5C3C JUMP JUMPDEST PUSH2 0x4FF0 SWAP1 PUSH1 0x1F PUSH2 0x5BC2 JUMP JUMPDEST SWAP3 POP PUSH0 PUSH2 0x98F PUSH2 0x5001 DUP6 PUSH1 0x50 PUSH2 0x5BE1 JUMP JUMPDEST PUSH2 0x500B SWAP2 SWAP1 PUSH2 0x5C10 JUMP JUMPDEST SWAP1 POP PUSH0 PUSH1 0x50 PUSH2 0x501C DUP4 PUSH2 0x98F PUSH2 0x5BE1 JUMP JUMPDEST PUSH2 0x5026 SWAP2 SWAP1 PUSH2 0x5C10 JUMP JUMPDEST PUSH2 0x5030 SWAP1 DUP7 PUSH2 0x5C3C JUMP JUMPDEST SWAP1 POP PUSH2 0x503D PUSH1 0xB DUP4 PUSH2 0x5C10 JUMP JUMPDEST SWAP5 POP PUSH2 0x504A DUP6 PUSH1 0xC PUSH2 0x5BE1 JUMP JUMPDEST PUSH2 0x5055 DUP4 PUSH1 0x2 PUSH2 0x5BC2 JUMP JUMPDEST PUSH2 0x505F SWAP2 SWAP1 PUSH2 0x5C3C JUMP JUMPDEST SWAP2 POP DUP5 DUP4 PUSH2 0x506E PUSH1 0x31 DUP8 PUSH2 0x5C3C JUMP JUMPDEST PUSH2 0x5079 SWAP1 PUSH1 0x64 PUSH2 0x5BE1 JUMP JUMPDEST PUSH2 0x5083 SWAP2 SWAP1 PUSH2 0x5BC2 JUMP JUMPDEST PUSH2 0x508D SWAP2 SWAP1 PUSH2 0x5BC2 JUMP JUMPDEST SWAP11 SWAP2 SWAP10 POP SWAP8 POP SWAP6 POP POP POP POP POP POP JUMP JUMPDEST PUSH0 DUP1 PUSH19 0x184F03E93FF9F4DAA797ED6E38ED64BF6A1F01 PUSH1 0x40 SHL DUP4 LT PUSH2 0x50DA JUMPI PUSH19 0x184F03E93FF9F4DAA797ED6E38ED64BF6A1F01 PUSH1 0x40 SHL DUP4 DIV SWAP3 POP PUSH1 0x40 ADD JUMPDEST PUSH10 0x4EE2D6D415B85ACEF81 PUSH1 0x20 SHL DUP4 LT PUSH2 0x5104 JUMPI PUSH10 0x4EE2D6D415B85ACEF81 PUSH1 0x20 SHL DUP4 DIV SWAP3 POP PUSH1 0x20 ADD JUMPDEST PUSH7 0x2386F26FC10000 DUP4 LT PUSH2 0x5122 JUMPI PUSH7 0x2386F26FC10000 DUP4 DIV SWAP3 POP PUSH1 0x10 ADD JUMPDEST PUSH4 0x5F5E100 DUP4 LT PUSH2 0x513A JUMPI PUSH4 0x5F5E100 DUP4 DIV SWAP3 POP PUSH1 0x8 ADD JUMPDEST PUSH2 0x2710 DUP4 LT PUSH2 0x514E JUMPI PUSH2 0x2710 DUP4 DIV SWAP3 POP PUSH1 0x4 ADD JUMPDEST PUSH1 0x64 DUP4 LT PUSH2 0x5160 JUMPI PUSH1 0x64 DUP4 DIV SWAP3 POP PUSH1 0x2 ADD JUMPDEST PUSH1 0xA DUP4 LT PUSH2 0x4BAE JUMPI PUSH1 0x1 ADD SWAP3 SWAP2 POP POP JUMP JUMPDEST PUSH2 0x517A DUP2 PUSH2 0x4CB5 JUMP JUMPDEST PUSH1 0x40 MLOAD PUSH1 0x1 PUSH1 0x1 PUSH1 0xA0 SHL SUB DUP3 AND SWAP1 PUSH32 0xBC7CD75A20EE27FD9ADEBAB32041F755214DBC6BFFA90CC0225B39DA2E5C2D3B SWAP1 PUSH0 SWAP1 LOG2 POP JUMP JUMPDEST PUSH1 0x60 PUSH2 0x51BB DUP4 PUSH2 0x4B53 JUMP JUMPDEST PUSH2 0x5216 JUMPI PUSH1 0x40 MLOAD PUSH3 0x461BCD PUSH1 0xE5 SHL DUP2 MSTORE PUSH1 0x20 PUSH1 0x4 DUP3 ADD MSTORE PUSH1 0x26 PUSH1 0x24 DUP3 ADD MSTORE PUSH32 0x416464726573733A2064656C65676174652063616C6C20746F206E6F6E2D636F PUSH1 0x44 DUP3 ADD MSTORE PUSH6 0x1B9D1C9858DD PUSH1 0xD2 SHL PUSH1 0x64 DUP3 ADD MSTORE PUSH1 0x84 ADD PUSH2 0xBF9 JUMP JUMPDEST PUSH0 DUP1 DUP5 PUSH1 0x1 PUSH1 0x1 PUSH1 0xA0 SHL SUB AND DUP5 PUSH1 0x40 MLOAD PUSH2 0x5230 SWAP2 SWAP1 PUSH2 0x5B48 JUMP JUMPDEST PUSH0 PUSH1 0x40 MLOAD DUP1 DUP4 SUB DUP2 DUP6 GAS DELEGATECALL SWAP2 POP POP RETURNDATASIZE DUP1 PUSH0 DUP2 EQ PUSH2 0x5268 JUMPI PUSH1 0x40 MLOAD SWAP2 POP PUSH1 0x1F NOT PUSH1 0x3F RETURNDATASIZE ADD AND DUP3 ADD PUSH1 0x40 MSTORE RETURNDATASIZE DUP3 MSTORE RETURNDATASIZE PUSH0 PUSH1 0x20 DUP5 ADD RETURNDATACOPY PUSH2 0x526D JUMP JUMPDEST PUSH1 0x60 SWAP2 POP JUMPDEST POP SWAP2 POP SWAP2 POP PUSH2 0x5295 DUP3 DUP3 PUSH1 0x40 MLOAD DUP1 PUSH1 0x60 ADD PUSH1 0x40 MSTORE DUP1 PUSH1 0x27 DUP2 MSTORE PUSH1 0x20 ADD PUSH2 0x5D35 PUSH1 0x27 SWAP2 CODECOPY PUSH2 0x5351 JUMP JUMPDEST SWAP6 SWAP5 POP POP POP POP POP JUMP JUMPDEST PUSH0 DUP1 PUSH16 0xA2A8918CA85BAFE22016D0B997E4DF60 PUSH1 0x1 PUSH1 0xFF SHL SUB DUP4 GT ISZERO PUSH2 0x52C9 JUMPI POP PUSH0 SWAP1 POP PUSH1 0x3 PUSH2 0x5348 JUMP JUMPDEST PUSH1 0x40 DUP1 MLOAD PUSH0 DUP1 DUP3 MSTORE PUSH1 0x20 DUP3 ADD DUP1 DUP5 MSTORE DUP10 SWAP1 MSTORE PUSH1 0xFF DUP9 AND SWAP3 DUP3 ADD SWAP3 SWAP1 SWAP3 MSTORE PUSH1 0x60 DUP2 ADD DUP7 SWAP1 MSTORE PUSH1 0x80 DUP2 ADD DUP6 SWAP1 MSTORE PUSH1 0x1 SWAP1 PUSH1 0xA0 ADD PUSH1 0x20 PUSH1 0x40 MLOAD PUSH1 0x20 DUP2 SUB SWAP1 DUP1 DUP5 SUB SWAP1 DUP6 GAS STATICCALL ISZERO DUP1 ISZERO PUSH2 0x531A JUMPI RETURNDATASIZE PUSH0 DUP1 RETURNDATACOPY RETURNDATASIZE PUSH0 REVERT JUMPDEST POP POP PUSH1 0x40 MLOAD PUSH1 0x1F NOT ADD MLOAD SWAP2 POP POP PUSH1 0x1 PUSH1 0x1 PUSH1 0xA0 SHL SUB DUP2 AND PUSH2 0x5342 JUMPI PUSH0 PUSH1 0x1 SWAP3 POP SWAP3 POP POP PUSH2 0x5348 JUMP JUMPDEST SWAP2 POP PUSH0 SWAP1 POP JUMPDEST SWAP5 POP SWAP5 SWAP3 POP POP POP JUMP JUMPDEST PUSH1 0x60 DUP4 ISZERO PUSH2 0x5360 JUMPI POP DUP2 PUSH2 0x536A JUMP JUMPDEST PUSH2 0x536A DUP4 DUP4 PUSH2 0x5371 JUMP JUMPDEST SWAP4 SWAP3 POP POP POP JUMP JUMPDEST DUP2 MLOAD ISZERO PUSH2 0x5381 JUMPI DUP2 MLOAD DUP1 DUP4 PUSH1 0x20 ADD REVERT JUMPDEST DUP1 PUSH1 0x40 MLOAD PUSH3 0x461BCD PUSH1 0xE5 SHL DUP2 MSTORE PUSH1 0x4 ADD PUSH2 0xBF9 SWAP2 SWAP1 PUSH2 0x5C62 JUMP JUMPDEST PUSH1 0x40 MLOAD DUP1 PUSH1 0x80 ADD PUSH1 0x40 MSTORE DUP1 PUSH0 PUSH1 0x1 PUSH1 0x1 PUSH1 0xA0 SHL SUB AND DUP2 MSTORE PUSH1 0x20 ADD PUSH0 DUP2 MSTORE PUSH1 0x20 ADD PUSH0 DUP2 MSTORE PUSH1 0x20 ADD PUSH0 DUP2 MSTORE POP SWAP1 JUMP JUMPDEST PUSH1 0x1 PUSH1 0x1 PUSH1 0xA0 SHL SUB DUP2 AND DUP2 EQ PUSH2 0xC7E JUMPI PUSH0 DUP1 REVERT JUMPDEST PUSH0 PUSH1 0x20 DUP3 DUP5 SUB SLT ISZERO PUSH2 0x53EC JUMPI PUSH0 DUP1 REVERT JUMPDEST DUP2 CALLDATALOAD PUSH2 0x536A DUP2 PUSH2 0x53C8 JUMP JUMPDEST DUP1 MLOAD DUP3 MSTORE PUSH1 0x20 DUP2 ADD MLOAD PUSH1 0x20 DUP4 ADD MSTORE PUSH1 0x40 DUP2 ADD MLOAD PUSH1 0x40 DUP4 ADD MSTORE PUSH1 0x60 DUP2 ADD MLOAD PUSH1 0x60 DUP4 ADD MSTORE POP POP JUMP JUMPDEST PUSH1 0x80 DUP2 ADD PUSH2 0x4BAE DUP3 DUP5 PUSH2 0x53F7 JUMP JUMPDEST DUP2 MLOAD DUP2 MSTORE PUSH1 0x20 DUP1 DUP4 ADD MLOAD SWAP1 DUP3 ADD MSTORE PUSH1 0x40 DUP1 DUP4 ADD MLOAD SWAP1 DUP3 ADD MSTORE PUSH1 0x60 DUP1 DUP4 ADD MLOAD SWAP1 DUP3 ADD MSTORE PUSH1 0x80 DUP1 DUP4 ADD MLOAD PUSH1 0x1 PUSH1 0x1 PUSH1 0xA0 SHL SUB AND SWAP1 DUP3 ADD MSTORE PUSH1 0xA0 DUP2 ADD PUSH2 0x4BAE JUMP JUMPDEST PUSH0 PUSH1 0x20 DUP3 DUP5 SUB SLT ISZERO PUSH2 0x5479 JUMPI PUSH0 DUP1 REVERT JUMPDEST POP CALLDATALOAD SWAP2 SWAP1 POP JUMP JUMPDEST PUSH1 0x1 PUSH1 0x1 PUSH1 0xA0 SHL SUB SWAP4 DUP5 AND DUP2 MSTORE SWAP2 SWAP1 SWAP3 AND PUSH1 0x20 DUP3 ADD MSTORE PUSH1 0x40 DUP2 ADD SWAP2 SWAP1 SWAP2 MSTORE PUSH1 0x60 ADD SWAP1 JUMP JUMPDEST PUSH0 DUP1 PUSH1 0x40 DUP4 DUP6 SUB SLT ISZERO PUSH2 0x54B5 JUMPI PUSH0 DUP1 REVERT JUMPDEST POP POP DUP1 CALLDATALOAD SWAP3 PUSH1 0x20 SWAP1 SWAP2 ADD CALLDATALOAD SWAP2 POP JUMP JUMPDEST PUSH4 0x4E487B71 PUSH1 0xE0 SHL PUSH0 MSTORE PUSH1 0x41 PUSH1 0x4 MSTORE PUSH1 0x24 PUSH0 REVERT JUMPDEST PUSH0 PUSH1 0x1 PUSH1 0x1 PUSH1 0x40 SHL SUB DUP1 DUP5 GT ISZERO PUSH2 0x54F1 JUMPI PUSH2 0x54F1 PUSH2 0x54C4 JUMP JUMPDEST PUSH1 0x40 MLOAD PUSH1 0x1F DUP6 ADD PUSH1 0x1F NOT SWAP1 DUP2 AND PUSH1 0x3F ADD AND DUP2 ADD SWAP1 DUP3 DUP3 GT DUP2 DUP4 LT OR ISZERO PUSH2 0x5519 JUMPI PUSH2 0x5519 PUSH2 0x54C4 JUMP JUMPDEST DUP2 PUSH1 0x40 MSTORE DUP1 SWAP4 POP DUP6 DUP2 MSTORE DUP7 DUP7 DUP7 ADD GT ISZERO PUSH2 0x5531 JUMPI PUSH0 DUP1 REVERT JUMPDEST DUP6 DUP6 PUSH1 0x20 DUP4 ADD CALLDATACOPY PUSH0 PUSH1 0x20 DUP8 DUP4 ADD ADD MSTORE POP POP POP SWAP4 SWAP3 POP POP POP JUMP JUMPDEST PUSH0 DUP3 PUSH1 0x1F DUP4 ADD SLT PUSH2 0x5559 JUMPI PUSH0 DUP1 REVERT JUMPDEST PUSH2 0x536A DUP4 DUP4 CALLDATALOAD PUSH1 0x20 DUP6 ADD PUSH2 0x54D8 JUMP JUMPDEST PUSH0 DUP1 PUSH1 0x40 DUP4 DUP6 SUB SLT ISZERO PUSH2 0x5579 JUMPI PUSH0 DUP1 REVERT JUMPDEST DUP3 CALLDATALOAD PUSH2 0x5584 DUP2 PUSH2 0x53C8 JUMP JUMPDEST SWAP2 POP PUSH1 0x20 DUP4 ADD CALLDATALOAD PUSH1 0x1 PUSH1 0x1 PUSH1 0x40 SHL SUB DUP2 GT ISZERO PUSH2 0x559E JUMPI PUSH0 DUP1 REVERT JUMPDEST PUSH2 0x55AA DUP6 DUP3 DUP7 ADD PUSH2 0x554A JUMP JUMPDEST SWAP2 POP POP SWAP3 POP SWAP3 SWAP1 POP JUMP JUMPDEST PUSH1 0x20 DUP1 DUP3 MSTORE DUP3 MLOAD DUP3 DUP3 ADD DUP2 SWAP1 MSTORE PUSH0 SWAP2 SWAP1 PUSH1 0x40 SWAP1 DUP2 DUP6 ADD SWAP1 DUP7 DUP5 ADD DUP6 JUMPDEST DUP3 DUP2 LT ISZERO PUSH2 0x560B JUMPI DUP2 MLOAD DUP1 MLOAD PUSH1 0x1 PUSH1 0x1 PUSH1 0xA0 SHL SUB SWAP1 DUP2 AND DUP7 MSTORE DUP8 DUP3 ADD MLOAD AND DUP8 DUP7 ADD MSTORE DUP6 ADD MLOAD DUP6 DUP6 ADD MSTORE PUSH1 0x60 SWAP1 SWAP4 ADD SWAP3 SWAP1 DUP6 ADD SWAP1 PUSH1 0x1 ADD PUSH2 0x55D0 JUMP JUMPDEST POP SWAP2 SWAP8 SWAP7 POP POP POP POP POP POP POP JUMP JUMPDEST PUSH0 DUP1 PUSH1 0x40 DUP4 DUP6 SUB SLT ISZERO PUSH2 0x5629 JUMPI PUSH0 DUP1 REVERT JUMPDEST DUP3 CALLDATALOAD PUSH2 0x5634 DUP2 PUSH2 0x53C8 JUMP JUMPDEST SWAP5 PUSH1 0x20 SWAP4 SWAP1 SWAP4 ADD CALLDATALOAD SWAP4 POP POP POP JUMP JUMPDEST DUP1 MLOAD PUSH1 0x1 PUSH1 0x1 PUSH1 0xA0 SHL SUB AND DUP3 MSTORE PUSH1 0x20 DUP1 DUP3 ADD MLOAD SWAP1 DUP4 ADD MSTORE PUSH1 0x40 DUP1 DUP3 ADD MLOAD SWAP1 DUP4 ADD MSTORE PUSH1 0x60 SWAP1 DUP2 ADD MLOAD SWAP2 ADD MSTORE JUMP JUMPDEST PUSH1 0x80 DUP2 ADD PUSH2 0x4BAE DUP3 DUP5 PUSH2 0x5642 JUMP JUMPDEST PUSH1 0x1 PUSH1 0x1 PUSH1 0xA0 SHL SUB SWAP2 SWAP1 SWAP2 AND DUP2 MSTORE PUSH1 0x20 ADD SWAP1 JUMP JUMPDEST PUSH1 0x20 DUP1 DUP3 MSTORE DUP3 MLOAD DUP3 DUP3 ADD DUP2 SWAP1 MSTORE PUSH0 SWAP2 SWAP1 DUP5 DUP3 ADD SWAP1 PUSH1 0x40 DUP6 ADD SWAP1 DUP5 JUMPDEST DUP2 DUP2 LT ISZERO PUSH2 0x56D1 JUMPI PUSH2 0x56BE DUP4 DUP6 MLOAD PUSH2 0x5642 JUMP JUMPDEST SWAP3 DUP5 ADD SWAP3 PUSH1 0x80 SWAP3 SWAP1 SWAP3 ADD SWAP2 PUSH1 0x1 ADD PUSH2 0x56AB JUMP JUMPDEST POP SWAP1 SWAP7 SWAP6 POP POP POP POP POP POP JUMP JUMPDEST PUSH0 DUP1 PUSH0 DUP1 PUSH0 PUSH1 0xA0 DUP7 DUP9 SUB SLT ISZERO PUSH2 0x56F1 JUMPI PUSH0 DUP1 REVERT JUMPDEST DUP6 CALLDATALOAD SWAP5 POP PUSH1 0x20 DUP7 ADD CALLDATALOAD SWAP4 POP PUSH1 0x40 DUP7 ADD CALLDATALOAD SWAP3 POP PUSH1 0x60 DUP7 ADD CALLDATALOAD SWAP2 POP PUSH1 0x80 DUP7 ADD CALLDATALOAD PUSH1 0x1 PUSH1 0x1 PUSH1 0x40 SHL SUB DUP2 GT ISZERO PUSH2 0x5722 JUMPI PUSH0 DUP1 REVERT JUMPDEST PUSH2 0x572E DUP9 DUP3 DUP10 ADD PUSH2 0x554A JUMP JUMPDEST SWAP2 POP POP SWAP3 SWAP6 POP SWAP3 SWAP6 SWAP1 SWAP4 POP JUMP JUMPDEST PUSH1 0x20 DUP1 DUP3 MSTORE DUP3 MLOAD DUP3 DUP3 ADD DUP2 SWAP1 MSTORE PUSH0 SWAP2 SWAP1 DUP5 DUP3 ADD SWAP1 PUSH1 0x40 DUP6 ADD SWAP1 DUP5 JUMPDEST DUP2 DUP2 LT ISZERO PUSH2 0x56D1 JUMPI PUSH2 0x5769 DUP4 DUP6 MLOAD PUSH2 0x5642 JUMP JUMPDEST SWAP3 DUP5 ADD SWAP3 PUSH1 0x80 SWAP3 SWAP1 SWAP3 ADD SWAP2 PUSH1 0x1 ADD PUSH2 0x5756 JUMP JUMPDEST PUSH0 PUSH1 0x20 DUP3 DUP5 SUB SLT ISZERO PUSH2 0x578C JUMPI PUSH0 DUP1 REVERT JUMPDEST DUP2 CALLDATALOAD PUSH1 0x1 PUSH1 0x1 PUSH1 0x40 SHL SUB DUP2 GT ISZERO PUSH2 0x57A1 JUMPI PUSH0 DUP1 REVERT JUMPDEST DUP3 ADD PUSH1 0x1F DUP2 ADD DUP5 SGT PUSH2 0x57B1 JUMPI PUSH0 DUP1 REVERT JUMPDEST PUSH2 0x57C0 DUP5 DUP3 CALLDATALOAD PUSH1 0x20 DUP5 ADD PUSH2 0x54D8 JUMP JUMPDEST SWAP5 SWAP4 POP POP POP POP JUMP JUMPDEST PUSH1 0x20 DUP1 DUP3 MSTORE DUP3 MLOAD DUP3 DUP3 ADD DUP2 SWAP1 MSTORE PUSH0 SWAP2 SWAP1 DUP5 DUP3 ADD SWAP1 PUSH1 0x40 DUP6 ADD SWAP1 DUP5 JUMPDEST DUP2 DUP2 LT ISZERO PUSH2 0x56D1 JUMPI PUSH2 0x57F6 DUP4 DUP6 MLOAD PUSH2 0x53F7 JUMP JUMPDEST SWAP3 DUP5 ADD SWAP3 PUSH1 0x80 SWAP3 SWAP1 SWAP3 ADD SWAP2 PUSH1 0x1 ADD PUSH2 0x57E3 JUMP JUMPDEST DUP1 MLOAD PUSH1 0x1 PUSH1 0x1 PUSH1 0x70 SHL SUB DUP2 AND DUP2 EQ PUSH2 0x581F JUMPI PUSH0 DUP1 REVERT JUMPDEST SWAP2 SWAP1 POP JUMP JUMPDEST PUSH0 DUP1 PUSH0 PUSH1 0x60 DUP5 DUP7 SUB SLT ISZERO PUSH2 0x5836 JUMPI PUSH0 DUP1 REVERT JUMPDEST PUSH2 0x583F DUP5 PUSH2 0x5809 JUMP JUMPDEST SWAP3 POP PUSH2 0x584D PUSH1 0x20 DUP6 ADD PUSH2 0x5809 JUMP JUMPDEST SWAP2 POP PUSH1 0x40 DUP5 ADD MLOAD PUSH4 0xFFFFFFFF DUP2 AND DUP2 EQ PUSH2 0x5865 JUMPI PUSH0 DUP1 REVERT JUMPDEST DUP1 SWAP2 POP POP SWAP3 POP SWAP3 POP SWAP3 JUMP JUMPDEST PUSH4 0x4E487B71 PUSH1 0xE0 SHL PUSH0 MSTORE PUSH1 0x12 PUSH1 0x4 MSTORE PUSH1 0x24 PUSH0 REVERT JUMPDEST PUSH0 DUP3 PUSH2 0x5892 JUMPI PUSH2 0x5892 PUSH2 0x5870 JUMP JUMPDEST POP MOD SWAP1 JUMP JUMPDEST PUSH4 0x4E487B71 PUSH1 0xE0 SHL PUSH0 MSTORE PUSH1 0x32 PUSH1 0x4 MSTORE PUSH1 0x24 PUSH0 REVERT JUMPDEST PUSH4 0x4E487B71 PUSH1 0xE0 SHL PUSH0 MSTORE PUSH1 0x11 PUSH1 0x4 MSTORE PUSH1 0x24 PUSH0 REVERT JUMPDEST DUP1 DUP3 ADD DUP1 DUP3 GT ISZERO PUSH2 0x4BAE JUMPI PUSH2 0x4BAE PUSH2 0x58AB JUMP JUMPDEST DUP2 DUP2 SUB DUP2 DUP2 GT ISZERO PUSH2 0x4BAE JUMPI PUSH2 0x4BAE PUSH2 0x58AB JUMP JUMPDEST PUSH0 DUP3 PUSH2 0x58F3 JUMPI PUSH2 0x58F3 PUSH2 0x5870 JUMP JUMPDEST POP DIV SWAP1 JUMP JUMPDEST PUSH1 0x20 DUP1 DUP3 MSTORE PUSH1 0x2C SWAP1 DUP3 ADD MSTORE PUSH0 DUP1 MLOAD PUSH1 0x20 PUSH2 0x5CF5 DUP4 CODECOPY DUP2 MLOAD SWAP2 MSTORE PUSH1 0x40 DUP3 ADD MSTORE PUSH12 0x19195B1959D85D1958D85B1B PUSH1 0xA2 SHL PUSH1 0x60 DUP3 ADD MSTORE PUSH1 0x80 ADD SWAP1 JUMP JUMPDEST PUSH1 0x20 DUP1 DUP3 MSTORE PUSH1 0x2C SWAP1 DUP3 ADD MSTORE PUSH0 DUP1 MLOAD PUSH1 0x20 PUSH2 0x5CF5 DUP4 CODECOPY DUP2 MLOAD SWAP2 MSTORE PUSH1 0x40 DUP3 ADD MSTORE PUSH12 0x6163746976652070726F7879 PUSH1 0xA0 SHL PUSH1 0x60 DUP3 ADD MSTORE PUSH1 0x80 ADD SWAP1 JUMP JUMPDEST PUSH0 PUSH1 0x20 DUP3 DUP5 SUB SLT ISZERO PUSH2 0x597A JUMPI PUSH0 DUP1 REVERT JUMPDEST POP MLOAD SWAP2 SWAP1 POP JUMP JUMPDEST PUSH0 PUSH1 0x20 DUP3 DUP5 SUB SLT ISZERO PUSH2 0x5991 JUMPI PUSH0 DUP1 REVERT JUMPDEST DUP2 MLOAD DUP1 ISZERO ISZERO DUP2 EQ PUSH2 0x536A JUMPI PUSH0 DUP1 REVERT JUMPDEST PUSH0 PUSH1 0x20 DUP3 DUP5 SUB SLT ISZERO PUSH2 0x59B0 JUMPI PUSH0 DUP1 REVERT JUMPDEST DUP2 MLOAD PUSH2 0x536A DUP2 PUSH2 0x53C8 JUMP JUMPDEST DUP1 DUP3 MUL DUP2 ISZERO DUP3 DUP3 DIV DUP5 EQ OR PUSH2 0x4BAE JUMPI PUSH2 0x4BAE PUSH2 0x58AB JUMP JUMPDEST PUSH1 0x1 PUSH1 0x1 PUSH1 0xA0 SHL SUB SWAP3 SWAP1 SWAP3 AND DUP3 MSTORE PUSH1 0x20 DUP3 ADD MSTORE PUSH1 0x40 ADD SWAP1 JUMP JUMPDEST SWAP3 DUP4 MSTORE PUSH1 0x1 PUSH1 0x1 PUSH1 0x70 SHL SUB SWAP2 DUP3 AND PUSH1 0x20 DUP5 ADD MSTORE AND PUSH1 0x40 DUP3 ADD MSTORE PUSH1 0x60 ADD SWAP1 JUMP JUMPDEST PUSH0 PUSH1 0x1 DUP3 ADD PUSH2 0x5A1B JUMPI PUSH2 0x5A1B PUSH2 0x58AB JUMP JUMPDEST POP PUSH1 0x1 ADD SWAP1 JUMP JUMPDEST PUSH1 0x1 PUSH1 0x1 PUSH1 0x70 SHL SUB DUP2 DUP2 AND DUP4 DUP3 AND MUL DUP1 DUP3 AND SWAP2 SWAP1 DUP3 DUP2 EQ PUSH2 0x217F JUMPI PUSH2 0x217F PUSH2 0x58AB JUMP JUMPDEST PUSH0 PUSH1 0x1 PUSH1 0x1 PUSH1 0x70 SHL SUB DUP4 DUP2 AND DUP1 PUSH2 0x5A5E JUMPI PUSH2 0x5A5E PUSH2 0x5870 JUMP JUMPDEST SWAP3 AND SWAP2 SWAP1 SWAP2 DIV SWAP3 SWAP2 POP POP JUMP JUMPDEST PUSH1 0x1 PUSH1 0x1 PUSH1 0x70 SHL SUB SWAP4 DUP5 AND DUP2 MSTORE SWAP2 SWAP1 SWAP3 AND PUSH1 0x20 DUP3 ADD MSTORE PUSH1 0x1 PUSH1 0x1 PUSH1 0xA0 SHL SUB SWAP1 SWAP2 AND PUSH1 0x40 DUP3 ADD MSTORE PUSH1 0x60 ADD SWAP1 JUMP JUMPDEST PUSH1 0x1 PUSH1 0x1 PUSH1 0xA0 SHL SUB SWAP3 SWAP1 SWAP3 AND DUP3 MSTORE PUSH1 0x1 PUSH1 0x1 PUSH1 0x70 SHL SUB AND PUSH1 0x20 DUP3 ADD MSTORE PUSH1 0x40 ADD SWAP1 JUMP JUMPDEST PUSH1 0x1 PUSH1 0x1 PUSH1 0xA0 SHL SUB SWAP4 DUP5 AND DUP2 MSTORE SWAP2 SWAP1 SWAP3 AND PUSH1 0x20 DUP3 ADD MSTORE PUSH1 0x1 PUSH1 0x1 PUSH1 0x70 SHL SUB SWAP1 SWAP2 AND PUSH1 0x40 DUP3 ADD MSTORE PUSH1 0x60 ADD SWAP1 JUMP JUMPDEST PUSH0 JUMPDEST DUP4 DUP2 LT ISZERO PUSH2 0x5AFE JUMPI DUP2 DUP2 ADD MLOAD DUP4 DUP3 ADD MSTORE PUSH1 0x20 ADD PUSH2 0x5AE6 JUMP JUMPDEST POP POP PUSH0 SWAP2 ADD MSTORE JUMP JUMPDEST PUSH0 DUP5 MLOAD PUSH2 0x5B17 DUP2 DUP5 PUSH1 0x20 DUP10 ADD PUSH2 0x5AE4 JUMP JUMPDEST DUP5 MLOAD SWAP1 DUP4 ADD SWAP1 PUSH2 0x5B2B DUP2 DUP4 PUSH1 0x20 DUP10 ADD PUSH2 0x5AE4 JUMP JUMPDEST DUP5 MLOAD SWAP2 ADD SWAP1 PUSH2 0x5B3E DUP2 DUP4 PUSH1 0x20 DUP9 ADD PUSH2 0x5AE4 JUMP JUMPDEST ADD SWAP6 SWAP5 POP POP POP POP POP JUMP JUMPDEST PUSH0 DUP3 MLOAD PUSH2 0x5B59 DUP2 DUP5 PUSH1 0x20 DUP8 ADD PUSH2 0x5AE4 JUMP JUMPDEST SWAP2 SWAP1 SWAP2 ADD SWAP3 SWAP2 POP POP JUMP JUMPDEST PUSH1 0x20 DUP1 DUP3 MSTORE PUSH1 0x2B SWAP1 DUP3 ADD MSTORE PUSH32 0x496E697469616C697A61626C653A20636F6E7472616374206973206E6F742069 PUSH1 0x40 DUP3 ADD MSTORE PUSH11 0x6E697469616C697A696E67 PUSH1 0xA8 SHL PUSH1 0x60 DUP3 ADD MSTORE PUSH1 0x80 ADD SWAP1 JUMP JUMPDEST PUSH4 0x4E487B71 PUSH1 0xE0 SHL PUSH0 MSTORE PUSH1 0x21 PUSH1 0x4 MSTORE PUSH1 0x24 PUSH0 REVERT JUMPDEST DUP1 DUP3 ADD DUP3 DUP2 SLT PUSH0 DUP4 SLT DUP1 ISZERO DUP3 AND DUP3 ISZERO DUP3 AND OR ISZERO PUSH2 0x217F JUMPI PUSH2 0x217F PUSH2 0x58AB JUMP JUMPDEST DUP1 DUP3 MUL PUSH0 DUP3 SLT PUSH1 0x1 PUSH1 0xFF SHL DUP5 EQ AND ISZERO PUSH2 0x5BFC JUMPI PUSH2 0x5BFC PUSH2 0x58AB JUMP JUMPDEST DUP2 DUP2 SDIV DUP4 EQ DUP3 ISZERO OR PUSH2 0x4BAE JUMPI PUSH2 0x4BAE PUSH2 0x58AB JUMP JUMPDEST PUSH0 DUP3 PUSH2 0x5C1E JUMPI PUSH2 0x5C1E PUSH2 0x5870 JUMP JUMPDEST PUSH1 0x1 PUSH1 0xFF SHL DUP3 EQ PUSH0 NOT DUP5 EQ AND ISZERO PUSH2 0x5C37 JUMPI PUSH2 0x5C37 PUSH2 0x58AB JUMP JUMPDEST POP SDIV SWAP1 JUMP JUMPDEST DUP2 DUP2 SUB PUSH0 DUP4 SLT DUP1 ISZERO DUP4 DUP4 SGT AND DUP4 DUP4 SLT DUP3 AND OR ISZERO PUSH2 0x5C5B JUMPI PUSH2 0x5C5B PUSH2 0x58AB JUMP JUMPDEST POP SWAP3 SWAP2 POP POP JUMP JUMPDEST PUSH1 0x20 DUP2 MSTORE PUSH0 DUP3 MLOAD DUP1 PUSH1 0x20 DUP5 ADD MSTORE PUSH2 0x5C80 DUP2 PUSH1 0x40 DUP6 ADD PUSH1 0x20 DUP8 ADD PUSH2 0x5AE4 JUMP JUMPDEST PUSH1 0x1F ADD PUSH1 0x1F NOT AND SWAP2 SWAP1 SWAP2 ADD PUSH1 0x40 ADD SWAP3 SWAP2 POP POP JUMP INVALID 0xA7 0xCE DUP4 PUSH14 0x32B2BF62B7E2097A8E0A6D8AEB3 SLOAD SDIV 0xAD ISZERO 0x27 0x1E SWAP7 0xD3 0xB0 XOR DUP11 SAR MOD 0xFC 0xA7 0xCE DUP4 PUSH14 0x32B2BF62B7E2097A8E0A6D8AEB3 SLOAD SDIV 0xAD ISZERO 0x27 0x1E SWAP7 0xD3 0xB0 XOR DUP11 SAR MOD 0xFB 0xA7 0xCE DUP4 PUSH14 0x32B2BF62B7E2097A8E0A6D8AEB3 SLOAD SDIV 0xAD ISZERO 0x27 0x1E SWAP7 0xD3 0xB0 XOR DUP11 SAR MOD REVERT CHAINID PUSH22 0x6E6374696F6E206D7573742062652063616C6C656420 PUSH21 0x68726F75676820360894A13BA1A3210667C828492D 0xB9 DUP14 0xCA RETURNDATACOPY KECCAK256 PUSH23 0xCC3735A920A3CA505D382BBC416464726573733A206C6F PUSH24 0x2D6C6576656C2064656C65676174652063616C6C20666169 PUSH13 0x6564A7CE836D032B2BF62B7E20 SWAP8 0xA8 0xE0 0xA6 0xD8 0xAE 0xB3 SLOAD SDIV 0xAD ISZERO 0x27 0x1E SWAP7 0xD3 0xB0 XOR DUP11 SAR MOD INVALID LOG2 PUSH5 0x6970667358 0x22 SLT KECCAK256 0x27 SIGNEXTEND 0xD6 0x22 GASPRICE STATICCALL SWAP7 0x4F 0xB9 0xD5 0xBE DUP4 DUP8 REVERT 0x23 SWAP7 SWAP5 PUSH9 0x6AA04A2E54EB771E81 0xCF PUSH5 0xF7E396473 PUSH16 0x6C634300081400330000000000000000 "
		},
		"gasEstimates": {
			"creation": {
				"codeDepositCost": "4797000",
				"executionCost": "infinite",
				"totalCost": "infinite"
			},
			"external": {
				"_btbtestup1()": "infinite",
				"acbConfig()": "3240",
				"acbPrice()": "infinite",
				"airdropMachine(address,uint256)": "infinite",
				"autoCancelLp()": "infinite",
				"buyMachine(uint256,uint256)": "infinite",
				"changeConfig(address)": "26816",
				"claim()": "infinite",
				"claimDynOrderArr(uint256)": "11797",
				"claimDynamic(uint256,uint256,uint256,uint256,bytes)": "infinite",
				"claimOrderArr(uint256)": "11819",
				"claimedAmount(address)": "2477",
				"claimedDynReward(address)": "9505",
				"computingPower(address)": "infinite",
				"getClaimOrderByIndex(uint256,uint256)": "infinite",
				"getClaimOrderLength()": "2896",
				"getMaxOrderReward(uint256)": "11755",
				"getMiningMachineByIndex(uint256,uint256)": "infinite",
				"getMiningMachineLength()": "2390",
				"getNoOrderReward(uint256)": "11997",
				"getReserves()": "infinite",
				"getUserByIndex(uint256,uint256)": "infinite",
				"getUserLength()": "2742",
				"initialize(address)": "infinite",
				"isAutoCancel(string)": "infinite",
				"isBuyMachine(address)": "2544",
				"lastMaxOrderSettleTime()": "2877",
				"lastOrderTime()": "2811",
				"machineArr(uint256)": "12017",
				"machineReward(address)": "infinite",
				"maxOrderIndex()": "2855",
				"maxOrderPool()": "2525",
				"maxOrderReward()": "infinite",
				"noOrderPool()": "3119",
				"owner()": "2875",
				"proxiableUUID()": "infinite",
				"ref(address)": "3277",
				"renounceOwnership()": "infinite",
				"superFomo()": "infinite",
				"swap(uint256)": "infinite",
				"swapOutAmount(uint256)": "infinite",
				"syncPool()": "infinite",
				"transferMaxOrder(uint256)": "11291",
				"transferNoOrder(uint256)": "11159",
				"transferOwnership(address)": "infinite",
				"upgradeTo(address)": "infinite",
				"upgradeToAndCall(address,bytes)": "infinite",
				"userMachine(address,uint256)": "5402",
				"userMachineArr(address)": "infinite",
				"users(uint256)": "9118"
			},
			"internal": {
				"_acb()": "infinite",
				"_acbPair()": "infinite",
				"_acbPrice()": "infinite",
				"_authorizeUpgrade(address)": "infinite",
				"_getMessageHash(address,uint256,uint256,uint256,uint256)": "infinite",
				"_machineExpireTime()": "infinite",
				"_minePool()": "infinite",
				"_settleMaxOrderReward()": "infinite",
				"_settleNoOrderReward()": "infinite",
				"_usdt()": "infinite"
			}
		},
		"methodIdentifiers": {
			"_btbtestup1()": "e8bb4c33",
			"acbConfig()": "dba64f8f",
			"acbPrice()": "7bab1032",
			"airdropMachine(address,uint256)": "57629f82",
			"autoCancelLp()": "e91e969c",
			"buyMachine(uint256,uint256)": "382e227f",
			"changeConfig(address)": "210835ae",
			"claim()": "4e71d92d",
			"claimDynOrderArr(uint256)": "c8ee5073",
			"claimDynamic(uint256,uint256,uint256,uint256,bytes)": "d7df42d3",
			"claimOrderArr(uint256)": "cb82ab19",
			"claimedAmount(address)": "04e86903",
			"claimedDynReward(address)": "233be799",
			"computingPower(address)": "e500845d",
			"getClaimOrderByIndex(uint256,uint256)": "cbba3def",
			"getClaimOrderLength()": "a7808f1a",
			"getMaxOrderReward(uint256)": "624343e6",
			"getMiningMachineByIndex(uint256,uint256)": "eed0ab53",
			"getMiningMachineLength()": "265eb5b8",
			"getNoOrderReward(uint256)": "baf189d2",
			"getReserves()": "0902f1ac",
			"getUserByIndex(uint256,uint256)": "51ae6b1b",
			"getUserLength()": "7456fed6",
			"initialize(address)": "c4d66de8",
			"isAutoCancel(string)": "f951d945",
			"isBuyMachine(address)": "1865e4d5",
			"lastMaxOrderSettleTime()": "a3592158",
			"lastOrderTime()": "8e56d48c",
			"machineArr(uint256)": "f2782d6d",
			"machineReward(address)": "c6834bf6",
			"maxOrderIndex()": "9b5f0f22",
			"maxOrderPool()": "42ff7bcd",
			"maxOrderReward()": "2562c39b",
			"noOrderPool()": "d77f5ee7",
			"owner()": "8da5cb5b",
			"proxiableUUID()": "52d1902d",
			"ref(address)": "c4b6ebdf",
			"renounceOwnership()": "715018a6",
			"superFomo()": "45b3e93e",
			"swap(uint256)": "94b918de",
			"swapOutAmount(uint256)": "3f22297e",
			"syncPool()": "ad7e01be",
			"transferMaxOrder(uint256)": "4469ed13",
			"transferNoOrder(uint256)": "2d6d56b0",
			"transferOwnership(address)": "f2fde38b",
			"upgradeTo(address)": "3659cfe6",
			"upgradeToAndCall(address,bytes)": "4f1ef286",
			"userMachine(address,uint256)": "bf024cfa",
			"userMachineArr(address)": "fc76f17c",
			"users(uint256)": "365b98b2"
		}
	},
	"abi": [
		{
			"inputs": [],
			"name": "Buylock",
			"type": "error"
		},
		{
			"inputs": [],
			"name": "NoBuyMachine",
			"type": "error"
		},
		{
			"inputs": [],
			"name": "NoRegistered",
			"type": "error"
		},
		{
			"inputs": [],
			"name": "NotConfig",
			"type": "error"
		},
		{
			"inputs": [],
			"name": "NotOp",
			"type": "error"
		},
		{
			"inputs": [],
			"name": "NotSelf",
			"type": "error"
		},
		{
			"inputs": [],
			"name": "Registered",
			"type": "error"
		},
		{
			"inputs": [],
			"name": "TimeNotYet",
			"type": "error"
		},
		{
			"anonymous": false,
			"inputs": [
				{
					"indexed": false,
					"internalType": "address",
					"name": "previousAdmin",
					"type": "address"
				},
				{
					"indexed": false,
					"internalType": "address",
					"name": "newAdmin",
					"type": "address"
				}
			],
			"name": "AdminChanged",
			"type": "event"
		},
		{
			"anonymous": false,
			"inputs": [
				{
					"indexed": true,
					"internalType": "address",
					"name": "beacon",
					"type": "address"
				}
			],
			"name": "BeaconUpgraded",
			"type": "event"
		},
		{
			"anonymous": false,
			"inputs": [
				{
					"indexed": false,
					"internalType": "uint8",
					"name": "version",
					"type": "uint8"
				}
			],
			"name": "Initialized",
			"type": "event"
		},
		{
			"anonymous": false,
			"inputs": [
				{
					"indexed": true,
					"internalType": "address",
					"name": "previousOwner",
					"type": "address"
				},
				{
					"indexed": true,
					"internalType": "address",
					"name": "newOwner",
					"type": "address"
				}
			],
			"name": "OwnershipTransferred",
			"type": "event"
		},
		{
			"anonymous": false,
			"inputs": [
				{
					"indexed": true,
					"internalType": "address",
					"name": "implementation",
					"type": "address"
				}
			],
			"name": "Upgraded",
			"type": "event"
		},
		{
			"inputs": [],
			"name": "_btbtestup1",
			"outputs": [
				{
					"internalType": "address",
					"name": "",
					"type": "address"
				}
			],
			"stateMutability": "view",
			"type": "function"
		},
		{
			"inputs": [],
			"name": "acbConfig",
			"outputs": [
				{
					"internalType": "address",
					"name": "",
					"type": "address"
				}
			],
			"stateMutability": "view",
			"type": "function"
		},
		{
			"inputs": [],
			"name": "acbPrice",
			"outputs": [
				{
					"internalType": "uint256",
					"name": "",
					"type": "uint256"
				}
			],
			"stateMutability": "view",
			"type": "function"
		},
		{
			"inputs": [
				{
					"internalType": "address",
					"name": "user",
					"type": "address"
				},
				{
					"internalType": "uint256",
					"name": "amount",
					"type": "uint256"
				}
			],
			"name": "airdropMachine",
			"outputs": [],
			"stateMutability": "nonpayable",
			"type": "function"
		},
		{
			"inputs": [],
			"name": "autoCancelLp",
			"outputs": [],
			"stateMutability": "nonpayable",
			"type": "function"
		},
		{
			"inputs": [
				{
					"internalType": "uint256",
					"name": "amount",
					"type": "uint256"
				},
				{
					"internalType": "uint256",
					"name": "bType",
					"type": "uint256"
				}
			],
			"name": "buyMachine",
			"outputs": [],
			"stateMutability": "nonpayable",
			"type": "function"
		},
		{
			"inputs": [
				{
					"internalType": "address",
					"name": "_acbConfig",
					"type": "address"
				}
			],
			"name": "changeConfig",
			"outputs": [],
			"stateMutability": "nonpayable",
			"type": "function"
		},
		{
			"inputs": [],
			"name": "claim",
			"outputs": [],
			"stateMutability": "nonpayable",
			"type": "function"
		},
		{
			"inputs": [
				{
					"internalType": "uint256",
					"name": "",
					"type": "uint256"
				}
			],
			"name": "claimDynOrderArr",
			"outputs": [
				{
					"internalType": "address",
					"name": "user",
					"type": "address"
				},
				{
					"internalType": "uint256",
					"name": "amount",
					"type": "uint256"
				},
				{
					"internalType": "uint256",
					"name": "orderType",
					"type": "uint256"
				},
				{
					"internalType": "uint256",
					"name": "createTime",
					"type": "uint256"
				}
			],
			"stateMutability": "view",
			"type": "function"
		},
		{
			"inputs": [
				{
					"internalType": "uint256",
					"name": "refAmount",
					"type": "uint256"
				},
				{
					"internalType": "uint256",
					"name": "team",
					"type": "uint256"
				},
				{
					"internalType": "uint256",
					"name": "sameLevel",
					"type": "uint256"
				},
				{
					"internalType": "uint256",
					"name": "share",
					"type": "uint256"
				},
				{
					"internalType": "bytes",
					"name": "signature",
					"type": "bytes"
				}
			],
			"name": "claimDynamic",
			"outputs": [],
			"stateMutability": "nonpayable",
			"type": "function"
		},
		{
			"inputs": [
				{
					"internalType": "uint256",
					"name": "",
					"type": "uint256"
				}
			],
			"name": "claimOrderArr",
			"outputs": [
				{
					"internalType": "address",
					"name": "user",
					"type": "address"
				},
				{
					"internalType": "uint256",
					"name": "amount",
					"type": "uint256"
				},
				{
					"internalType": "uint256",
					"name": "orderType",
					"type": "uint256"
				},
				{
					"internalType": "uint256",
					"name": "createTime",
					"type": "uint256"
				}
			],
			"stateMutability": "view",
			"type": "function"
		},
		{
			"inputs": [
				{
					"internalType": "address",
					"name": "",
					"type": "address"
				}
			],
			"name": "claimedAmount",
			"outputs": [
				{
					"internalType": "uint256",
					"name": "",
					"type": "uint256"
				}
			],
			"stateMutability": "view",
			"type": "function"
		},
		{
			"inputs": [
				{
					"internalType": "address",
					"name": "user",
					"type": "address"
				}
			],
			"name": "claimedDynReward",
			"outputs": [
				{
					"components": [
						{
							"internalType": "uint256",
							"name": "ref",
							"type": "uint256"
						},
						{
							"internalType": "uint256",
							"name": "team",
							"type": "uint256"
						},
						{
							"internalType": "uint256",
							"name": "sameLevel",
							"type": "uint256"
						},
						{
							"internalType": "uint256",
							"name": "share",
							"type": "uint256"
						}
					],
					"internalType": "struct IMMStore.ClaimedDynReward",
					"name": "dynReward",
					"type": "tuple"
				}
			],
			"stateMutability": "view",
			"type": "function"
		},
		{
			"inputs": [
				{
					"internalType": "address",
					"name": "user",
					"type": "address"
				}
			],
			"name": "computingPower",
			"outputs": [
				{
					"internalType": "uint256",
					"name": "amount",
					"type": "uint256"
				}
			],
			"stateMutability": "view",
			"type": "function"
		},
		{
			"inputs": [
				{
					"internalType": "uint256",
					"name": "start",
					"type": "uint256"
				},
				{
					"internalType": "uint256",
					"name": "end",
					"type": "uint256"
				}
			],
			"name": "getClaimOrderByIndex",
			"outputs": [
				{
					"components": [
						{
							"internalType": "address",
							"name": "user",
							"type": "address"
						},
						{
							"internalType": "uint256",
							"name": "amount",
							"type": "uint256"
						},
						{
							"internalType": "uint256",
							"name": "orderType",
							"type": "uint256"
						},
						{
							"internalType": "uint256",
							"name": "createTime",
							"type": "uint256"
						}
					],
					"internalType": "struct IMMStore.ClaimOrder[]",
					"name": "claimOrder",
					"type": "tuple[]"
				}
			],
			"stateMutability": "view",
			"type": "function"
		},
		{
			"inputs": [],
			"name": "getClaimOrderLength",
			"outputs": [
				{
					"internalType": "uint256",
					"name": "",
					"type": "uint256"
				}
			],
			"stateMutability": "view",
			"type": "function"
		},
		{
			"inputs": [
				{
					"internalType": "uint256",
					"name": "index",
					"type": "uint256"
				}
			],
			"name": "getMaxOrderReward",
			"outputs": [
				{
					"components": [
						{
							"internalType": "address",
							"name": "user",
							"type": "address"
						},
						{
							"internalType": "uint256",
							"name": "amount",
							"type": "uint256"
						},
						{
							"internalType": "uint256",
							"name": "number",
							"type": "uint256"
						},
						{
							"internalType": "uint256",
							"name": "timestamp",
							"type": "uint256"
						}
					],
					"internalType": "struct IMMStore.TransferOrder",
					"name": "",
					"type": "tuple"
				}
			],
			"stateMutability": "view",
			"type": "function"
		},
		{
			"inputs": [
				{
					"internalType": "uint256",
					"name": "start",
					"type": "uint256"
				},
				{
					"internalType": "uint256",
					"name": "end",
					"type": "uint256"
				}
			],
			"name": "getMiningMachineByIndex",
			"outputs": [
				{
					"components": [
						{
							"internalType": "address",
							"name": "user",
							"type": "address"
						},
						{
							"internalType": "uint256",
							"name": "computingPower",
							"type": "uint256"
						},
						{
							"internalType": "uint256",
							"name": "createTime",
							"type": "uint256"
						},
						{
							"internalType": "uint256",
							"name": "lastTime",
							"type": "uint256"
						}
					],
					"internalType": "struct IMMStore.MiningMachine[]",
					"name": "miningMachineArr",
					"type": "tuple[]"
				}
			],
			"stateMutability": "view",
			"type": "function"
		},
		{
			"inputs": [],
			"name": "getMiningMachineLength",
			"outputs": [
				{
					"internalType": "uint256",
					"name": "",
					"type": "uint256"
				}
			],
			"stateMutability": "view",
			"type": "function"
		},
		{
			"inputs": [
				{
					"internalType": "uint256",
					"name": "index",
					"type": "uint256"
				}
			],
			"name": "getNoOrderReward",
			"outputs": [
				{
					"components": [
						{
							"internalType": "address",
							"name": "user",
							"type": "address"
						},
						{
							"internalType": "uint256",
							"name": "amount",
							"type": "uint256"
						},
						{
							"internalType": "uint256",
							"name": "number",
							"type": "uint256"
						},
						{
							"internalType": "uint256",
							"name": "timestamp",
							"type": "uint256"
						}
					],
					"internalType": "struct IMMStore.TransferOrder",
					"name": "",
					"type": "tuple"
				}
			],
			"stateMutability": "view",
			"type": "function"
		},
		{
			"inputs": [],
			"name": "getReserves",
			"outputs": [
				{
					"internalType": "uint112",
					"name": "_reserve0",
					"type": "uint112"
				},
				{
					"internalType": "uint112",
					"name": "_reserve1",
					"type": "uint112"
				},
				{
					"internalType": "uint32",
					"name": "_blockTimestampLast",
					"type": "uint32"
				}
			],
			"stateMutability": "view",
			"type": "function"
		},
		{
			"inputs": [
				{
					"internalType": "uint256",
					"name": "start",
					"type": "uint256"
				},
				{
					"internalType": "uint256",
					"name": "end",
					"type": "uint256"
				}
			],
			"name": "getUserByIndex",
			"outputs": [
				{
					"components": [
						{
							"internalType": "address",
							"name": "user",
							"type": "address"
						},
						{
							"internalType": "address",
							"name": "ref",
							"type": "address"
						},
						{
							"internalType": "uint256",
							"name": "registerTime",
							"type": "uint256"
						}
					],
					"internalType": "struct IMMStore.User[]",
					"name": "userArr",
					"type": "tuple[]"
				}
			],
			"stateMutability": "view",
			"type": "function"
		},
		{
			"inputs": [],
			"name": "getUserLength",
			"outputs": [
				{
					"internalType": "uint256",
					"name": "",
					"type": "uint256"
				}
			],
			"stateMutability": "view",
			"type": "function"
		},
		{
			"inputs": [
				{
					"internalType": "address",
					"name": "_acbConfig",
					"type": "address"
				}
			],
			"name": "initialize",
			"outputs": [],
			"stateMutability": "nonpayable",
			"type": "function"
		},
		{
			"inputs": [
				{
					"internalType": "string",
					"name": "",
					"type": "string"
				}
			],
			"name": "isAutoCancel",
			"outputs": [
				{
					"internalType": "bool",
					"name": "",
					"type": "bool"
				}
			],
			"stateMutability": "view",
			"type": "function"
		},
		{
			"inputs": [
				{
					"internalType": "address",
					"name": "",
					"type": "address"
				}
			],
			"name": "isBuyMachine",
			"outputs": [
				{
					"internalType": "bool",
					"name": "",
					"type": "bool"
				}
			],
			"stateMutability": "view",
			"type": "function"
		},
		{
			"inputs": [],
			"name": "lastMaxOrderSettleTime",
			"outputs": [
				{
					"internalType": "uint256",
					"name": "",
					"type": "uint256"
				}
			],
			"stateMutability": "view",
			"type": "function"
		},
		{
			"inputs": [],
			"name": "lastOrderTime",
			"outputs": [
				{
					"internalType": "uint256",
					"name": "",
					"type": "uint256"
				}
			],
			"stateMutability": "view",
			"type": "function"
		},
		{
			"inputs": [
				{
					"internalType": "uint256",
					"name": "",
					"type": "uint256"
				}
			],
			"name": "machineArr",
			"outputs": [
				{
					"internalType": "address",
					"name": "user",
					"type": "address"
				},
				{
					"internalType": "uint256",
					"name": "computingPower",
					"type": "uint256"
				},
				{
					"internalType": "uint256",
					"name": "createTime",
					"type": "uint256"
				},
				{
					"internalType": "uint256",
					"name": "lastTime",
					"type": "uint256"
				}
			],
			"stateMutability": "view",
			"type": "function"
		},
		{
			"inputs": [
				{
					"internalType": "address",
					"name": "user",
					"type": "address"
				}
			],
			"name": "machineReward",
			"outputs": [
				{
					"components": [
						{
							"internalType": "uint256",
							"name": "pendingReward",
							"type": "uint256"
						},
						{
							"internalType": "uint256",
							"name": "pendingRebate",
							"type": "uint256"
						},
						{
							"internalType": "uint256",
							"name": "claimedReward",
							"type": "uint256"
						},
						{
							"internalType": "uint256",
							"name": "rebatedReward",
							"type": "uint256"
						},
						{
							"internalType": "bool",
							"name": "canClaim",
							"type": "bool"
						}
					],
					"internalType": "struct IMMStore.MachineReward",
					"name": "rewardInfo",
					"type": "tuple"
				}
			],
			"stateMutability": "view",
			"type": "function"
		},
		{
			"inputs": [],
			"name": "maxOrderIndex",
			"outputs": [
				{
					"internalType": "uint256",
					"name": "",
					"type": "uint256"
				}
			],
			"stateMutability": "view",
			"type": "function"
		},
		{
			"inputs": [],
			"name": "maxOrderPool",
			"outputs": [
				{
					"internalType": "uint256",
					"name": "",
					"type": "uint256"
				}
			],
			"stateMutability": "view",
			"type": "function"
		},
		{
			"inputs": [],
			"name": "maxOrderReward",
			"outputs": [
				{
					"components": [
						{
							"internalType": "uint256",
							"name": "countdown",
							"type": "uint256"
						},
						{
							"internalType": "uint256",
							"name": "poolAmount",
							"type": "uint256"
						},
						{
							"internalType": "uint256",
							"name": "rewardAmount",
							"type": "uint256"
						},
						{
							"internalType": "uint256",
							"name": "maxComputingPower",
							"type": "uint256"
						},
						{
							"internalType": "address",
							"name": "maxOrderUser",
							"type": "address"
						}
					],
					"internalType": "struct IMMStore.MaxOrderReward",
					"name": "order",
					"type": "tuple"
				}
			],
			"stateMutability": "view",
			"type": "function"
		},
		{
			"inputs": [],
			"name": "noOrderPool",
			"outputs": [
				{
					"internalType": "uint256",
					"name": "",
					"type": "uint256"
				}
			],
			"stateMutability": "view",
			"type": "function"
		},
		{
			"inputs": [],
			"name": "owner",
			"outputs": [
				{
					"internalType": "address",
					"name": "",
					"type": "address"
				}
			],
			"stateMutability": "view",
			"type": "function"
		},
		{
			"inputs": [],
			"name": "proxiableUUID",
			"outputs": [
				{
					"internalType": "bytes32",
					"name": "",
					"type": "bytes32"
				}
			],
			"stateMutability": "view",
			"type": "function"
		},
		{
			"inputs": [
				{
					"internalType": "address",
					"name": "",
					"type": "address"
				}
			],
			"name": "ref",
			"outputs": [
				{
					"internalType": "address",
					"name": "",
					"type": "address"
				}
			],
			"stateMutability": "view",
			"type": "function"
		},
		{
			"inputs": [],
			"name": "renounceOwnership",
			"outputs": [],
			"stateMutability": "nonpayable",
			"type": "function"
		},
		{
			"inputs": [],
			"name": "superFomo",
			"outputs": [
				{
					"components": [
						{
							"internalType": "uint256",
							"name": "countdown",
							"type": "uint256"
						},
						{
							"internalType": "uint256",
							"name": "poolAmount",
							"type": "uint256"
						},
						{
							"internalType": "uint256",
							"name": "rewardAmount",
							"type": "uint256"
						},
						{
							"internalType": "uint256",
							"name": "totalBurnAmount",
							"type": "uint256"
						},
						{
							"internalType": "address",
							"name": "lastUser",
							"type": "address"
						}
					],
					"internalType": "struct IMMStore.SuperFomo",
					"name": "fomo",
					"type": "tuple"
				}
			],
			"stateMutability": "view",
			"type": "function"
		},
		{
			"inputs": [
				{
					"internalType": "uint256",
					"name": "amount",
					"type": "uint256"
				}
			],
			"name": "swap",
			"outputs": [],
			"stateMutability": "nonpayable",
			"type": "function"
		},
		{
			"inputs": [
				{
					"internalType": "uint256",
					"name": "amount",
					"type": "uint256"
				}
			],
			"name": "swapOutAmount",
			"outputs": [
				{
					"internalType": "uint256",
					"name": "",
					"type": "uint256"
				}
			],
			"stateMutability": "view",
			"type": "function"
		},
		{
			"inputs": [],
			"name": "syncPool",
			"outputs": [],
			"stateMutability": "nonpayable",
			"type": "function"
		},
		{
			"inputs": [
				{
					"internalType": "uint256",
					"name": "",
					"type": "uint256"
				}
			],
			"name": "transferMaxOrder",
			"outputs": [
				{
					"internalType": "address",
					"name": "user",
					"type": "address"
				},
				{
					"internalType": "uint256",
					"name": "amount",
					"type": "uint256"
				},
				{
					"internalType": "uint256",
					"name": "number",
					"type": "uint256"
				},
				{
					"internalType": "uint256",
					"name": "timestamp",
					"type": "uint256"
				}
			],
			"stateMutability": "view",
			"type": "function"
		},
		{
			"inputs": [
				{
					"internalType": "uint256",
					"name": "",
					"type": "uint256"
				}
			],
			"name": "transferNoOrder",
			"outputs": [
				{
					"internalType": "address",
					"name": "user",
					"type": "address"
				},
				{
					"internalType": "uint256",
					"name": "amount",
					"type": "uint256"
				},
				{
					"internalType": "uint256",
					"name": "number",
					"type": "uint256"
				},
				{
					"internalType": "uint256",
					"name": "timestamp",
					"type": "uint256"
				}
			],
			"stateMutability": "view",
			"type": "function"
		},
		{
			"inputs": [
				{
					"internalType": "address",
					"name": "newOwner",
					"type": "address"
				}
			],
			"name": "transferOwnership",
			"outputs": [],
			"stateMutability": "nonpayable",
			"type": "function"
		},
		{
			"inputs": [
				{
					"internalType": "address",
					"name": "newImplementation",
					"type": "address"
				}
			],
			"name": "upgradeTo",
			"outputs": [],
			"stateMutability": "nonpayable",
			"type": "function"
		},
		{
			"inputs": [
				{
					"internalType": "address",
					"name": "newImplementation",
					"type": "address"
				},
				{
					"internalType": "bytes",
					"name": "data",
					"type": "bytes"
				}
			],
			"name": "upgradeToAndCall",
			"outputs": [],
			"stateMutability": "payable",
			"type": "function"
		},
		{
			"inputs": [
				{
					"internalType": "address",
					"name": "",
					"type": "address"
				},
				{
					"internalType": "uint256",
					"name": "",
					"type": "uint256"
				}
			],
			"name": "userMachine",
			"outputs": [
				{
					"internalType": "uint256",
					"name": "",
					"type": "uint256"
				}
			],
			"stateMutability": "view",
			"type": "function"
		},
		{
			"inputs": [
				{
					"internalType": "address",
					"name": "user",
					"type": "address"
				}
			],
			"name": "userMachineArr",
			"outputs": [
				{
					"components": [
						{
							"internalType": "uint256",
							"name": "computingPower",
							"type": "uint256"
						},
						{
							"internalType": "uint256",
							"name": "createTime",
							"type": "uint256"
						},
						{
							"internalType": "uint256",
							"name": "countdown",
							"type": "uint256"
						},
						{
							"internalType": "uint256",
							"name": "lastTime",
							"type": "uint256"
						}
					],
					"internalType": "struct IMMStore.MachineResponse[]",
					"name": "list",
					"type": "tuple[]"
				}
			],
			"stateMutability": "view",
			"type": "function"
		},
		{
			"inputs": [
				{
					"internalType": "uint256",
					"name": "",
					"type": "uint256"
				}
			],
			"name": "users",
			"outputs": [
				{
					"internalType": "address",
					"name": "user",
					"type": "address"
				},
				{
					"internalType": "address",
					"name": "ref",
					"type": "address"
				},
				{
					"internalType": "uint256",
					"name": "registerTime",
					"type": "uint256"
				}
			],
			"stateMutability": "view",
			"type": "function"
		}
	]
}