{
	"data": {
		"bytecode": {
			"linkReferences": {},
			"object": "60a060405230608052348015610013575f80fd5b50608051615c55620000495f395f8181610b1301528181610b5c01528181611d5101528181611d910152611f2f0152615c555ff3fe608060405260043610610238575f3560e01c806304e869031461023c5780631865e4d51461027a578063210835ae146102b8578063233be799146102d95780632562c39b14610305578063265eb5b8146103265780632d6d56b01461033a5780633659cfe614610383578063365b98b2146103a2578063382e227f146103d05780633f22297e146103ef57806342ff7bcd1461040e5780634420e486146104235780634469ed131461044057806345b3e93e1461045f5780634e71d92d146104735780634f1ef2861461048757806351ae6b1b1461049a57806352d1902d146104c657806357629f82146104da578063624343e6146104f9578063715018a6146105255780637456fed61461053957806379bd54da1461054d5780637bab10321461056e5780638da5cb5b146105825780638e56d48c1461059657806394b918de146105ab5780639b5f0f22146105ca578063a3592158146105df578063a7808f1a146105f4578063ad7e01be14610608578063b0cb1b0d1461061c578063baf189d21461063b578063bf024cfa1461065a578063c4b6ebdf14610679578063c4d66de8146106ad578063c6834bf6146106cc578063c8ee50731461072e578063cb82ab191461074d578063cbba3def1461076c578063d77f5ee714610798578063d7df42d3146107ad578063e500845d146107cc578063e91e969c146107eb578063eed0ab53146107ff578063f2782d6d1461082b578063f2fde38b1461084a578063f951d94514610869578063fc76f17c146108a3575b5f80fd5b348015610247575f80fd5b50610267610256366004615280565b60d36020525f908152604090205481565b6040519081526020015b60405180910390f35b348015610285575f80fd5b506102a8610294366004615280565b60d16020525f908152604090205460ff1681565b6040519015158152602001610271565b3480156102c3575f80fd5b506102d76102d2366004615280565b6108cf565b005b3480156102e4575f80fd5b506102f86102f3366004615280565b6108f9565b60405161027191906152c1565b348015610310575f80fd5b5061031961097e565b60405161027191906152cf565b348015610331575f80fd5b5060cb54610267565b348015610345575f80fd5b5061035961035436600461530d565b610ac7565b604080516001600160a01b0390951685526020850193909352918301526060820152608001610271565b34801561038e575f80fd5b506102d761039d366004615280565b610b09565b3480156103ad575f80fd5b506103c16103bc36600461530d565b610bd6565b60405161027193929190615324565b3480156103db575f80fd5b506102d76103ea366004615348565b610c14565b3480156103fa575f80fd5b5061026761040936600461530d565b6116ae565b348015610419575f80fd5b5061026760d55481565b34801561042e575f80fd5b506102d761043d366004615280565b50565b34801561044b575f80fd5b5061035961045a36600461530d565b611833565b34801561046a575f80fd5b50610319611842565b34801561047e575f80fd5b506102d7611979565b6102d761049536600461540c565b611d47565b3480156104a5575f80fd5b506104b96104b4366004615348565b611e00565b6040516102719190615458565b3480156104d1575f80fd5b50610267611f23565b3480156104e5575f80fd5b506102d76104f43660046154bc565b611fcf565b348015610504575f80fd5b5061051861051336600461530d565b612115565b6040516102719190615512565b348015610530575f80fd5b506102d761217f565b348015610544575f80fd5b5060ca54610267565b348015610558575f80fd5b50610561612192565b6040516102719190615520565b348015610579575f80fd5b50610267612202565b34801561058d575f80fd5b5061056161220b565b3480156105a1575f80fd5b5061026760d65481565b3480156105b6575f80fd5b506102d76105c536600461530d565b61221a565b3480156105d5575f80fd5b5061026760d75481565b3480156105ea575f80fd5b5061026760d85481565b3480156105ff575f80fd5b5060cc54610267565b348015610613575f80fd5b506102d761264c565b348015610627575f80fd5b5060c954610561906001600160a01b031681565b348015610646575f80fd5b5061051861065536600461530d565b612ad3565b348015610665575f80fd5b506102676106743660046154bc565b612aee565b348015610684575f80fd5b50610561610693366004615280565b60cf6020525f90815260409020546001600160a01b031681565b3480156106b8575f80fd5b506102d76106c7366004615280565b612b19565b3480156106d7575f80fd5b506106eb6106e6366004615280565b612d17565b60405161027191905f60a0820190508251825260208301516020830152604083015160408301526060830151606083015260808301511515608083015292915050565b348015610739575f80fd5b5061035961074836600461530d565b612fdb565b348015610758575f80fd5b5061035961076736600461530d565b612fea565b348015610777575f80fd5b5061078b610786366004615348565b612ff9565b6040516102719190615534565b3480156107a3575f80fd5b5061026760d45481565b3480156107b8575f80fd5b506102d76107c7366004615581565b613130565b3480156107d7575f80fd5b506102676107e6366004615280565b6134db565b3480156107f6575f80fd5b506102d761360e565b34801561080a575f80fd5b5061081e610819366004615348565b613c13565b60405161027191906155df565b348015610836575f80fd5b5061035961084536600461530d565b613d4a565b348015610855575f80fd5b506102d7610864366004615280565b613d59565b348015610874575f80fd5b506102a8610883366004615620565b805160208183018101805160d28252928201919093012091525460ff1681565b3480156108ae575f80fd5b506108c26108bd366004615280565b613dcf565b604051610271919061566c565b6108d7614086565b60c980546001600160a01b0319166001600160a01b0392909216919091179055565b61092060405180608001604052805f81526020015f81526020015f81526020015f81525090565b50604080516080810182526001600160a01b039092165f90815260d960209081528282208280528082528383205485526001835280825283832054828601526002835280825283832054858501526003835290522054606082015290565b6109b46040518060a001604052805f81526020015f81526020015f81526020015f81526020015f6001600160a01b031681525090565b5f60cb60d754815481106109ca576109ca6156ad565b905f5260205f2090600402016002015460d8541015610a0d5760cb60d754815481106109f8576109f86156ad565b905f5260205f20906004020160020154610a11565b60d8545b9050610a2062015180826156d5565b90506040518060a0016040528082421015610a4457610a3f42846156e8565b610a46565b5f5b815260200160d5548152602001600260d554610a62919061570f565b815260200160cb60d75481548110610a7c57610a7c6156ad565b905f5260205f20906004020160010154815260200160cb60d75481548110610aa657610aa66156ad565b5f9182526020909120600490910201546001600160a01b0316905292915050565b60cd8181548110610ad6575f80fd5b5f91825260209091206004909102018054600182015460028301546003909301546001600160a01b039092169350919084565b6001600160a01b037f0000000000000000000000000000000000000000000000000000000000000000163003610b5a5760405162461bcd60e51b8152600401610b5190615722565b60405180910390fd5b7f00000000000000000000000000000000000000000000000000000000000000006001600160a01b0316610b8c6140e5565b6001600160a01b031614610bb25760405162461bcd60e51b8152600401610b519061575b565b610bbb81614100565b604080515f8082526020820190925261043d91839190614108565b60ca8181548110610be5575f80fd5b5f9182526020909120600390910201805460018201546002909201546001600160a01b03918216935091169083565b610c1c614272565b6001600160a01b03166323b872dd3330610c3760028761570f565b6040518463ffffffff1660e01b8152600401610c5593929190615324565b6020604051808303815f875af1158015610c71573d5f803e3d5ffd5b505050506040513d601f19601f82011682018060405250810190610c959190615794565b50805f03610e845760c95f9054906101000a90046001600160a01b03166001600160a01b031663db5501ea6040518163ffffffff1660e01b8152600401602060405180830381865afa158015610ced573d5f803e3d5ffd5b505050506040513d601f19601f82011682018060405250810190610d1191906157b3565b6001600160a01b03166323b872dd3360c95f9054906101000a90046001600160a01b03166001600160a01b031663149a32c16040518163ffffffff1660e01b8152600401602060405180830381865afa158015610d70573d5f803e3d5ffd5b505050506040513d601f19601f82011682018060405250810190610d9491906157b3565b60c9546040805163698518e560e01b815290516103e8926001600160a01b03169163698518e59160048083019260209291908290030181865afa158015610ddd573d5f803e3d5ffd5b505050506040513d601f19601f82011682018060405250810190610e0191906157ce565b610e0c60028961570f565b610e1691906157e5565b610e20919061570f565b6040518463ffffffff1660e01b8152600401610e3e93929190615324565b6020604051808303815f875af1158015610e5a573d5f803e3d5ffd5b505050506040513d601f19601f82011682018060405250810190610e7e9190615794565b50610f31565b5f610e8d6142b9565b9050610e97612192565b6001600160a01b03166323b872dd33600184610eb460028961570f565b610ebe919061570f565b610ed090670de0b6b3a76400006157e5565b6040518463ffffffff1660e01b8152600401610eee93929190615324565b6020604051808303815f875af1158015610f0a573d5f803e3d5ffd5b505050506040513d601f19601f82011682018060405250810190610f2e9190615794565b50505b335f81815260d06020908152604080832060cb80548254600180820185559387528587200155825160808101845286815280850189815242828601818152606084019182528454808701865594895292515f80516020615b59833981519152600490950294850180546001600160a01b0319166001600160a01b0390921691909117905590515f80516020615b3983398151915284015590515f80516020615b79833981519152830155515f80516020615c008339815191529091015593835260d19091529020805460ff1916909117905561100b614272565b6001600160a01b031663a9059cbb60c95f9054906101000a90046001600160a01b03166001600160a01b0316631e56cfab6040518163ffffffff1660e01b8152600401602060405180830381865afa158015611069573d5f803e3d5ffd5b505050506040513d601f19601f8201168201806040525081019061108d91906157b3565b6103e861109b60028761570f565b6110a69060146157e5565b6110b0919061570f565b6040518363ffffffff1660e01b81526004016110cd9291906157fc565b6020604051808303815f875af11580156110e9573d5f803e3d5ffd5b505050506040513d601f19601f8201168201806040525081019061110d9190615794565b50611116614272565b6001600160a01b031663a9059cbb60c95f9054906101000a90046001600160a01b03166001600160a01b031663956236416040518163ffffffff1660e01b8152600401602060405180830381865afa158015611174573d5f803e3d5ffd5b505050506040513d601f19601f8201168201806040525081019061119891906157b3565b6103e86111a660028761570f565b6111b19060146157e5565b6111bb919061570f565b6040518363ffffffff1660e01b81526004016111d89291906157fc565b6020604051808303815f875af11580156111f4573d5f803e3d5ffd5b505050506040513d601f19601f820116820180604052508101906112189190615794565b50611221614272565b6001600160a01b031663095ea7b3611237614445565b6103e861124560028761570f565b6112509060c86157e5565b61125a919061570f565b6040518363ffffffff1660e01b81526004016112779291906157fc565b6020604051808303815f875af1158015611293573d5f803e3d5ffd5b505050506040513d601f19601f820116820180604052508101906112b79190615794565b506112c0614445565b6001600160a01b031663a1e154116112d6614272565b6112de61448c565b6103e86112ec60028861570f565b6112f79060c86157e5565b611301919061570f565b6040518463ffffffff1660e01b815260040161131f93929190615324565b6020604051808303815f875af115801561133b573d5f803e3d5ffd5b505050506040513d601f19601f8201168201806040525081019061135f91906157ce565b505f6103e861136f60028561570f565b61137b906102bc6157e5565b611385919061570f565b90505f80611391614445565b6001600160a01b0316630902f1ac6040518163ffffffff1660e01b8152600401606060405180830381865afa1580156113cc573d5f803e3d5ffd5b505050506040513d601f19601f820116820180604052508101906113f09190615830565b50915091505f806113ff614272565b6001600160a01b0316611410614445565b6001600160a01b0316630dfe16816040518163ffffffff1660e01b8152600401602060405180830381865afa15801561144b573d5f803e3d5ffd5b505050506040513d601f19601f8201168201806040525081019061146f91906157b3565b6001600160a01b031614611484578284611487565b83835b915091505f826001600160701b031686836001600160701b03166114ab91906157e5565b6114b5919061570f565b90506114bf614272565b6001600160a01b031663a9059cbb6114d5614445565b886040518363ffffffff1660e01b81526004016114f39291906157fc565b6020604051808303815f875af115801561150f573d5f803e3d5ffd5b505050506040513d601f19601f820116820180604052508101906115339190615794565b5061153c61448c565b6001600160a01b031663f3fef3a3611552614445565b836040518363ffffffff1660e01b81526004016115709291906157fc565b5f604051808303815f87803b158015611587575f80fd5b505af1158015611599573d5f803e3d5ffd5b505050506115a5614445565b6001600160a01b0316636a62784260016040518263ffffffff1660e01b81526004016115d19190615520565b6020604051808303815f875af11580156115ed573d5f803e3d5ffd5b505050506040513d601f19601f8201168201806040525081019061161191906157ce565b5061161a6144d3565b6116226146a1565b6103e861163060028a61570f565b61163b9060236157e5565b611645919061570f565b60d45f82825461165591906156d5565b909155506103e8905061166960028a61570f565b6116749060196157e5565b61167e919061570f565b60d55f82825461168e91906156d5565b9091555061169c905061264c565b6116a461360e565b5050505050505050565b5f805f6116b9614445565b6001600160a01b0316630902f1ac6040518163ffffffff1660e01b8152600401606060405180830381865afa1580156116f4573d5f803e3d5ffd5b505050506040513d601f19601f820116820180604052508101906117189190615830565b50915091505f80611727614272565b6001600160a01b0316611738614445565b6001600160a01b0316630dfe16816040518163ffffffff1660e01b8152600401602060405180830381865afa158015611773573d5f803e3d5ffd5b505050506040513d601f19601f8201168201806040525081019061179791906157b3565b6001600160a01b0316146117ac5782846117af565b83835b915091506117bb614445565b6001600160a01b031663054d50d48783856040518463ffffffff1660e01b81526004016117ea9392919061587c565b602060405180830381865afa158015611805573d5f803e3d5ffd5b505050506040513d601f19601f8201168201806040525081019061182991906157ce565b9695505050505050565b60ce8181548110610ad6575f80fd5b6118786040518060a001604052805f81526020015f81526020015f81526020015f81526020015f6001600160a01b031681525090565b5f60d65461025861188991906156d5565b90506040518060a00160405280824210156118ad576118a842846156e8565b6118af565b5f5b815260200160d45481526020016103e860d45460646118ce91906157e5565b6118d8919061570f565b81526020016118e5612192565b6001600160a01b03166370a0823160016040518263ffffffff1660e01b81526004016119119190615520565b602060405180830381865afa15801561192c573d5f803e3d5ffd5b505050506040513d601f19601f8201168201806040525081019061195091906157ce565b815260200160cb600160cb8054905061196991906156e8565b81548110610aa657610aa66156ad565b335f90815260d060209081526040808320805482518185028101850190935280835291929091908301828280156119cd57602002820191905f5260205f20905b8154815260200190600101908083116119b9575b505050505090505f806119de6142b9565b90505f5b8351811015611b8f575f60cb858381518110611a0057611a006156ad565b602002602001015181548110611a1857611a186156ad565b905f5260205f209060040201905060c95f9054906101000a90046001600160a01b03166001600160a01b0316630b433a126040518163ffffffff1660e01b8152600401602060405180830381865afa158015611a76573d5f803e3d5ffd5b505050506040513d601f19601f82011682018060405250810190611a9a91906157ce565b6003820154611aa990426156e8565b11611ac757604051631ca0875f60e01b815260040160405180910390fd5b5f611ad061493b565b8260020154611adf91906156d5565b4210611b0157611aed61493b565b8260020154611afc91906156d5565b611b03565b425b905081600301548111611b17575050611b7f565b836201518060648460010154611b2d919061570f565b611b37919061570f565b6003840154611b4690846156e8565b611b5091906157e5565b611b5a919061570f565b611b6c90670de0b6b3a76400006157e5565b611b7690866156d5565b60039092015592505b611b888161589b565b90506119e2565b508115611d3257611b9e61448c565b6001600160a01b031663f3fef3a330846040518363ffffffff1660e01b8152600401611bcb9291906157fc565b5f604051808303815f87803b158015611be2575f80fd5b505af1158015611bf4573d5f803e3d5ffd5b50505050611c00612192565b6001600160a01b031663a9059cbb33611c1a60028661570f565b6040518363ffffffff1660e01b8152600401611c379291906157fc565b6020604051808303815f875af1158015611c53573d5f803e3d5ffd5b505050506040513d601f19601f82011682018060405250810190611c779190615794565b50604080516080810190915233815260cc9060208101611c9860028661570f565b81525f60208083018290524260409384015284546001808201875595835291819020845160049093020180546001600160a01b0319166001600160a01b0390931692909217825583015193810193909355810151600280840191909155606090910151600390920191909155611d0e908361570f565b335f90815260d3602052604081208054909190611d2c9084906156d5565b90915550505b611d3a61264c565b611d4261360e565b505050565b6001600160a01b037f0000000000000000000000000000000000000000000000000000000000000000163003611d8f5760405162461bcd60e51b8152600401610b5190615722565b7f00000000000000000000000000000000000000000000000000000000000000006001600160a01b0316611dc16140e5565b6001600160a01b031614611de75760405162461bcd60e51b8152600401610b519061575b565b611df082614100565b611dfc82826001614108565b5050565b60605f611e0d84846156e8565b611e189060016156d5565b9050806001600160401b03811115611e3257611e32615368565b604051908082528060200260200182016040528015611e7b57816020015b604080516060810182525f80825260208083018290529282015282525f19909201910181611e505790505b5091505f5b81811015611f1b5760ca611e9482876156d5565b81548110611ea457611ea46156ad565b5f91825260209182902060408051606081018252600390930290910180546001600160a01b03908116845260018201541693830193909352600290920154918101919091528351849083908110611efd57611efd6156ad565b60200260200101819052508080611f139061589b565b915050611e80565b505092915050565b5f306001600160a01b037f00000000000000000000000000000000000000000000000000000000000000001614611fbd5760405162461bcd60e51b815260206004820152603860248201527f555550535570677261646561626c653a206d757374206e6f742062652063616c6044820152771b1959081d1a1c9bdd59da0819195b1959d85d1958d85b1b60421b6064820152608401610b51565b505f80516020615bb983398151915290565b60c9546001600160a01b03163314611ffa5760405163037816cf60e01b815260040160405180910390fd5b6001600160a01b038281165f90815260cf6020526040902054166120315760405163936e307360e01b815260040160405180910390fd5b6001600160a01b038281165f81815260d06020908152604080832060cb80548254600180820185559387528587200155825160808101845295865285840188815242878501818152606089019182528354808601855593885297515f80516020615b59833981519152600490940293840180546001600160a01b03191691909a1617909855515f80516020615b3983398151915282015594515f80516020615b7983398151915286015594515f80516020615c008339815191529094019390935533825260d1905220805460ff1916909117905561210d6144d3565b611dfc6146a1565b61211d61523f565b60ce8281548110612130576121306156ad565b5f91825260209182902060408051608081018252600490930290910180546001600160a01b03168352600181015493830193909352600283015490820152600390910154606082015292915050565b612187614086565b6121905f6149a6565b565b60c95460408051630634626760e51b815290515f926001600160a01b03169163c68c4ce09160048083019260209291908290030181865afa1580156121d9573d5f803e3d5ffd5b505050506040513d601f19601f820116820180604052508101906121fd91906157b3565b905090565b5f6121fd6142b9565b6033546001600160a01b031690565b612222612192565b6001600160a01b03166323b872dd336001846040518463ffffffff1660e01b815260040161225293929190615324565b6020604051808303815f875af115801561226e573d5f803e3d5ffd5b505050506040513d601f19601f820116820180604052508101906122929190615794565b505f8061229d614445565b6001600160a01b0316630902f1ac6040518163ffffffff1660e01b8152600401606060405180830381865afa1580156122d8573d5f803e3d5ffd5b505050506040513d601f19601f820116820180604052508101906122fc9190615830565b50915091505f8061230b614272565b6001600160a01b031661231c614445565b6001600160a01b0316630dfe16816040518163ffffffff1660e01b8152600401602060405180830381865afa158015612357573d5f803e3d5ffd5b505050506040513d601f19601f8201168201806040525081019061237b91906157b3565b6001600160a01b031614612390578284612393565b83835b915091505f6123a0614445565b6001600160a01b031663054d50d48784866040518463ffffffff1660e01b81526004016123cf9392919061587c565b602060405180830381865afa1580156123ea573d5f803e3d5ffd5b505050506040513d601f19601f8201168201806040525081019061240e91906157ce565b90505f836001600160701b031682846001600160701b031661243091906157e5565b61243a919061570f565b90505f80612446614272565b6001600160a01b0316612457614445565b6001600160a01b0316630dfe16816040518163ffffffff1660e01b8152600401602060405180830381865afa158015612492573d5f803e3d5ffd5b505050506040513d601f19601f820116820180604052508101906124b691906157b3565b6001600160a01b0316146124cb5782846124ce565b83835b915091506124da614445565b60405163e840427d60e01b815260048101849052602481018390523060448201526001600160a01b03919091169063e840427d906064015f604051808303815f87803b158015612528575f80fd5b505af115801561253a573d5f803e3d5ffd5b50505050612546614272565b6001600160a01b031663a9059cbb33866040518363ffffffff1660e01b81526004016125739291906157fc565b6020604051808303815f875af115801561258f573d5f803e3d5ffd5b505050506040513d601f19601f820116820180604052508101906125b39190615794565b506125bc612192565b6001600160a01b031663a9059cbb6125d261448c565b856040518363ffffffff1660e01b81526004016125f09291906157fc565b6020604051808303815f875af115801561260c573d5f803e3d5ffd5b505050506040513d601f19601f820116820180604052508101906126309190615794565b5061263961264c565b61264161360e565b505050505050505050565b5f612655612192565b6001600160a01b03166370a0823161266b61448c565b6040518263ffffffff1660e01b81526004016126879190615520565b602060405180830381865afa1580156126a2573d5f803e3d5ffd5b505050506040513d601f19601f820116820180604052508101906126c691906157ce565b90505f6126d1612192565b6001600160a01b03166370a082316126e7614445565b6040518263ffffffff1660e01b81526004016127039190615520565b602060405180830381865afa15801561271e573d5f803e3d5ffd5b505050506040513d601f19601f8201168201806040525081019061274291906157ce565b90506103e86127528360326157e5565b61275c919061570f565b61276690836156d5565b8111612770575050565b5f8061277a614445565b6001600160a01b0316630902f1ac6040518163ffffffff1660e01b8152600401606060405180830381865afa1580156127b5573d5f803e3d5ffd5b505050506040513d601f19601f820116820180604052508101906127d99190615830565b50915091506127e6614445565b6001600160a01b031663e840427d6103e861280285600a6158b3565b61280c91906158d6565b6103e861281a85600a6158b3565b61282491906158d6565b306040518463ffffffff1660e01b8152600401612843939291906158fb565b5f604051808303815f87803b15801561285a575f80fd5b505af115801561286c573d5f803e3d5ffd5b505050505f8061287a614272565b6001600160a01b031661288b614445565b6001600160a01b0316630dfe16816040518163ffffffff1660e01b8152600401602060405180830381865afa1580156128c6573d5f803e3d5ffd5b505050506040513d601f19601f820116820180604052508101906128ea91906157b3565b6001600160a01b0316146128ff578284612902565b83835b9150915061290e612192565b6001600160a01b031663a9059cbb61292461448c565b6103e861293285600a6158b3565b61293c91906158d6565b6040518363ffffffff1660e01b8152600401612959929190615927565b6020604051808303815f875af1158015612975573d5f803e3d5ffd5b505050506040513d601f19601f820116820180604052508101906129999190615794565b506129a2614272565b6001600160a01b031663095ea7b36129b8614445565b6103e86129c686600a6158b3565b6129d091906158d6565b6040518363ffffffff1660e01b81526004016129ed929190615927565b6020604051808303815f875af1158015612a09573d5f803e3d5ffd5b505050506040513d601f19601f82011682018060405250810190612a2d9190615794565b50612a36614445565b6001600160a01b031663a1e15411612a4c614272565b612a5461448c565b6103e8612a6287600a6158b3565b612a6c91906158d6565b6040518463ffffffff1660e01b8152600401612a8a93929190615949565b6020604051808303815f875af1158015612aa6573d5f803e3d5ffd5b505050506040513d601f19601f82011682018060405250810190612aca91906157ce565b50505050505050565b612adb61523f565b60cd8281548110612130576121306156ad565b60d0602052815f5260405f208181548110612b07575f80fd5b905f5260205f20015f91509150505481565b5f54610100900460ff1615808015612b3757505f54600160ff909116105b80612b575750612b46306149f7565b158015612b5757505f5460ff166001145b612bba5760405162461bcd60e51b815260206004820152602e60248201527f496e697469616c697a61626c653a20636f6e747261637420697320616c72656160448201526d191e481a5b9a5d1a585b1a5e995960921b6064820152608401610b51565b5f805460ff191660011790558015612bdb575f805461ff0019166101001790555b612be3614a06565b60c980546001600160a01b0319166001600160a01b0384169081179091556040805160608101808352637f36e6dd60e11b9052905160ca92829163fe6dcdba906064808501916020918187030181865afa158015612c43573d5f803e3d5ffd5b505050506040513d601f19601f82011682018060405250810190612c6791906157b3565b6001600160a01b0390811682525f60208084018290524260409485015285546001818101885596835291819020855160039093020180549284166001600160a01b0319938416178155908501519581018054969093169590911694909417905501516002909101558015611dfc575f805461ff0019169055604051600181527f7f26b83ff96e1f2b6a682f133852f6798a09c465da95921460cefb38474024989060200160405180910390a15050565b612d466040518060a001604052805f81526020015f81526020015f81526020015f81526020015f151581525090565b6001600160a01b0382165f90815260d06020908152604080832080548251818502810185019093528083529192909190830182828015612da357602002820191905f5260205f20905b815481526020019060010190808311612d8f575b505050505090505f80612db46142b9565b905060015f5b8451811015612f71575f60cb868381518110612dd857612dd86156ad565b602002602001015181548110612df057612df06156ad565b5f91825260209182902060408051608081018252600493840290920180546001600160a01b039081168452600182015484870152600282015484840152600390910154606084015260c95482516305a19d0960e11b815292519396501693630b433a12938281019391928290030181865afa158015612e71573d5f803e3d5ffd5b505050506040513d601f19601f82011682018060405250810190612e9591906157ce565b6060820151612ea490426156e8565b11612ead575f92505b5f612eb661493b565b8260400151612ec591906156d5565b4210612ee757612ed361493b565b8260400151612ee291906156d5565b612ee9565b425b905081606001518111612efd575050612f61565b846201518060648460200151612f13919061570f565b612f1d919061570f565b6060840151612f2c90846156e8565b612f3691906157e5565b612f40919061570f565b612f5290670de0b6b3a76400006157e5565b612f5c90876156d5565b955050505b612f6a8161589b565b9050612dba565b506040518060a00160405280600285612f8a919061570f565b8152602001612f9a60028661570f565b81526001600160a01b039097165f81815260d36020818152604080842054828d01819052949093525288015290151560609096019590955250929392505050565b60da8181548110610ad6575f80fd5b60cc8181548110610ad6575f80fd5b60605f61300684846156e8565b6130119060016156d5565b9050806001600160401b0381111561302b5761302b615368565b60405190808252806020026020018201604052801561308c57816020015b61307960405180608001604052805f6001600160a01b031681526020015f81526020015f81526020015f81525090565b8152602001906001900390816130495790505b5091505f5b81811015611f1b5760cc6130a582876156d5565b815481106130b5576130b56156ad565b5f91825260209182902060408051608081018252600490930290910180546001600160a01b0316835260018101549383019390935260028301549082015260039091015460608201528351849083908110613112576131126156ad565b602002602001018190525080806131289061589b565b915050613091565b6040805133606081901b6001600160601b03191660208084019190915260348301899052605483018890526074830187905260948084018790528451808503909101815260b4840185528051908201207b0ca2ba3432b932bab69029b4b3b732b21026b2b9b9b0b3b29d05199960211b60d485015260f08085019190915284518085039091018152610110909301909352815191909201205f6131d38285614a34565b9050806001600160a01b031660c95f9054906101000a90046001600160a01b03166001600160a01b031663570ca7356040518163ffffffff1660e01b8152600401602060405180830381865afa15801561322f573d5f803e3d5ffd5b505050506040513d601f19601f8201168201806040525081019061325391906157b3565b6001600160a01b03161461327a5760405163e1a9613360e01b815260040160405180910390fd5b6001600160a01b0383165f90815260d96020908152604080832083805290915280822054600183528183205460028452828420546003855292842054919390929190848d1115613300576132ce858e6156e8565b6132d890826156d5565b6001600160a01b0389165f90815260d96020908152604080832083805290915290208e905590505b838c111561334557613312848d6156e8565b61331c90826156d5565b6001600160a01b0389165f90815260d9602090815260408083206001845290915290208d905590505b828b111561338a57613357838c6156e8565b61336190826156d5565b6001600160a01b0389165f90815260d9602090815260408083206002845290915290208c905590505b818a11156133cf5761339c828b6156e8565b6133a690826156d5565b6001600160a01b0389165f90815260d9602090815260408083206003845290915290208b905590505b80156134cc57604080516080810190915233815260cc90602081016133f560028561570f565b81526001602080830182905242604093840152845480830186555f95865294819020845160049096020180546001600160a01b0319166001600160a01b039096169590951785558301519084015581015160028301556060015160039091015561345d612192565b6001600160a01b031663a9059cbb89836040518363ffffffff1660e01b815260040161348a9291906157fc565b6020604051808303815f875af11580156134a6573d5f803e3d5ffd5b505050506040513d601f19601f820116820180604052508101906134ca9190615794565b505b50505050505050505050505050565b6001600160a01b0381165f90815260d0602090815260408083208054825181850281018501909352808352849383018282801561353557602002820191905f5260205f20905b815481526020019060010190808311613521575b505050505090505f5b8151811015613607575f60cb83838151811061355c5761355c6156ad565b602002602001015181548110613574576135746156ad565b5f91825260209182902060408051608081018252600490930290910180546001600160a01b0316835260018101549383019390935260028301549082015260039091015460608201529050426135c861493b565b82604001516135d791906156d5565b116135e257506135f5565b60208101516135f190856156d5565b9350505b806135ff8161589b565b91505061353e565b5050919050565b5f805f8061361b42614a58565b5050935093509350935060088161363291906156d5565b90506018811115613658576136486001836156d5565b91506136556018826156e8565b90505b60088110156136675750505050565b5f61367185614aca565b61367a85614aca565b61368385614aca565b60405160200161369593929190615997565b604051602081830303815290604052905060d2816040516136b691906159d9565b9081526040519081900360200190205460ff16156136d5575050505050565b600160d2826040516136e791906159d9565b908152604051908190036020019020805491151560ff199092169190911790555f80613711614445565b6001600160a01b0316630902f1ac6040518163ffffffff1660e01b8152600401606060405180830381865afa15801561374c573d5f803e3d5ffd5b505050506040513d601f19601f820116820180604052508101906137709190615830565b509150915061377d614445565b6001600160a01b031663e840427d6103e861379985600a6158b3565b6137a391906158d6565b6103e86137b185600a6158b3565b6137bb91906158d6565b306040518463ffffffff1660e01b81526004016137da939291906158fb565b5f604051808303815f87803b1580156137f1575f80fd5b505af1158015613803573d5f803e3d5ffd5b505050505f80613811614272565b6001600160a01b0316613822614445565b6001600160a01b0316630dfe16816040518163ffffffff1660e01b8152600401602060405180830381865afa15801561385d573d5f803e3d5ffd5b505050506040513d601f19601f8201168201806040525081019061388191906157b3565b6001600160a01b031614613896578284613899565b83835b915091506138a5612192565b6001600160a01b031663a9059cbb6138bb61448c565b6103e86138c985600a6158b3565b6138d391906158d6565b6040518363ffffffff1660e01b81526004016138f0929190615927565b6020604051808303815f875af115801561390c573d5f803e3d5ffd5b505050506040513d601f19601f820116820180604052508101906139309190615794565b50613939614272565b6001600160a01b031663095ea7b361394f614445565b60026103e861395f87600a6158b3565b61396991906158d6565b61397391906158d6565b6040518363ffffffff1660e01b8152600401613990929190615927565b6020604051808303815f875af11580156139ac573d5f803e3d5ffd5b505050506040513d601f19601f820116820180604052508101906139d09190615794565b505f6139da614445565b6001600160a01b031663a1e154116139f0614272565b3060026103e8613a0189600a6158b3565b613a0b91906158d6565b613a1591906158d6565b6040518463ffffffff1660e01b8152600401613a3393929190615949565b6020604051808303815f875af1158015613a4f573d5f803e3d5ffd5b505050506040513d601f19601f82011682018060405250810190613a7391906157ce565b9050613a7d612192565b6001600160a01b031663a9059cbb613a93614445565b836040518363ffffffff1660e01b8152600401613ab19291906157fc565b6020604051808303815f875af1158015613acd573d5f803e3d5ffd5b505050506040513d601f19601f82011682018060405250810190613af19190615794565b50613afa614272565b6001600160a01b031663a9059cbb613b10614445565b60026103e8613b2088600a6158b3565b613b2a91906158d6565b613b3491906158d6565b6040518363ffffffff1660e01b8152600401613b51929190615927565b6020604051808303815f875af1158015613b6d573d5f803e3d5ffd5b505050506040513d601f19601f82011682018060405250810190613b919190615794565b50613b9a614445565b6001600160a01b0316636a62784260016040518263ffffffff1660e01b8152600401613bc69190615520565b6020604051808303815f875af1158015613be2573d5f803e3d5ffd5b505050506040513d601f19601f82011682018060405250810190613c0691906157ce565b5050505050505050505050565b60605f613c2084846156e8565b613c2b9060016156d5565b9050806001600160401b03811115613c4557613c45615368565b604051908082528060200260200182016040528015613ca657816020015b613c9360405180608001604052805f6001600160a01b031681526020015f81526020015f81526020015f81525090565b815260200190600190039081613c635790505b5091505f5b81811015611f1b5760cb613cbf82876156d5565b81548110613ccf57613ccf6156ad565b5f91825260209182902060408051608081018252600490930290910180546001600160a01b0316835260018101549383019390935260028301549082015260039091015460608201528351849083908110613d2c57613d2c6156ad565b60200260200101819052508080613d429061589b565b915050613cab565b60cb8181548110610ad6575f80fd5b613d61614086565b6001600160a01b038116613dc65760405162461bcd60e51b815260206004820152602660248201527f4f776e61626c653a206e6577206f776e657220697320746865207a65726f206160448201526564647265737360d01b6064820152608401610b51565b61043d816149a6565b6001600160a01b0381165f90815260d060209081526040808320805482518185028101850190935280835260609493830182828015613e2b57602002820191905f5260205f20905b815481526020019060010190808311613e17575b5050505050905080516001600160401b03811115613e4b57613e4b615368565b604051908082528060200260200182016040528015613ea357816020015b613e9060405180608001604052805f81526020015f81526020015f81526020015f81525090565b815260200190600190039081613e695790505b5091505f5b8151811015613607575f60cb838381518110613ec657613ec66156ad565b602002602001015181548110613ede57613ede6156ad565b5f918252602080832060408051608081018252600494850290920180546001600160a01b039081168452600182015484860152600282015484840152600390910154606084015260c95482516316c4297760e11b815292519397504295911693632d8852ee9383830193919290918290030181865afa158015613f63573d5f803e3d5ffd5b505050506040513d601f19601f82011682018060405250810190613f8791906157ce565b8360400151613f9691906156d5565b11613fa1575f614025565b60c954604080516316c4297760e11b8152905142926001600160a01b031691632d8852ee9160048083019260209291908290030181865afa158015613fe8573d5f803e3d5ffd5b505050506040513d601f19601f8201168201806040525081019061400c91906157ce565b836040015161401b91906156d5565b61402591906156e8565b9050604051806080016040528083602001518152602001836040015181526020018281526020018360600151815250858481518110614066576140666156ad565b60200260200101819052505050808061407e9061589b565b915050613ea8565b3361408f61220b565b6001600160a01b0316146121905760405162461bcd60e51b815260206004820181905260248201527f4f776e61626c653a2063616c6c6572206973206e6f7420746865206f776e65726044820152606401610b51565b5f80516020615bb9833981519152546001600160a01b031690565b61043d614086565b7f4910fdfa16fed3260ed0e7147f7cc6da11a60208b5b9406d12a635614ffd91435460ff161561413b57611d4283614b59565b826001600160a01b03166352d1902d6040518163ffffffff1660e01b8152600401602060405180830381865afa925050508015614195575060408051601f3d908101601f19168201909252614192918101906157ce565b60015b6141f85760405162461bcd60e51b815260206004820152602e60248201527f45524331393637557067726164653a206e657720696d706c656d656e7461746960448201526d6f6e206973206e6f74205555505360901b6064820152608401610b51565b5f80516020615bb983398151915281146142665760405162461bcd60e51b815260206004820152602960248201527f45524331393637557067726164653a20756e737570706f727465642070726f786044820152681a58589b195555525160ba1b6064820152608401610b51565b50611d42838383614bf2565b60c95460408051632f48ab7d60e01b815290515f926001600160a01b031691632f48ab7d9160048083019260209291908290030181865afa1580156121d9573d5f803e3d5ffd5b5f805f6142c4614445565b6001600160a01b0316630902f1ac6040518163ffffffff1660e01b8152600401606060405180830381865afa1580156142ff573d5f803e3d5ffd5b505050506040513d601f19601f820116820180604052508101906143239190615830565b50915091505f80614332614272565b6001600160a01b0316614343614445565b6001600160a01b0316630dfe16816040518163ffffffff1660e01b8152600401602060405180830381865afa15801561437e573d5f803e3d5ffd5b505050506040513d601f19601f820116820180604052508101906143a291906157b3565b6001600160a01b0316146143b75782846143ba565b83835b915091506143c6614445565b6001600160a01b031663054d50d4670de0b6b3a764000083856040518463ffffffff1660e01b81526004016143fd9392919061587c565b602060405180830381865afa158015614418573d5f803e3d5ffd5b505050506040513d601f19601f8201168201806040525081019061443c91906157ce565b94505050505090565b60c95460408051635b31db4960e01b815290515f926001600160a01b031691635b31db499160048083019260209291908290030181865afa1580156121d9573d5f803e3d5ffd5b60c9546040805163602e662360e01b815290515f926001600160a01b03169163602e66239160048083019260209291908290030181865afa1580156121d9573d5f803e3d5ffd5b5f60d6541180156144f2575061025860d654426144f091906156e8565b115b1561469b575f6103e860d454606461450a91906157e5565b614514919061570f565b90508060d45f82825461452791906156e8565b909155505080156146995761453a614272565b6001600160a01b031663a9059cbb60cb600260cb8054905061455c91906156e8565b8154811061456c5761456c6156ad565b5f9182526020909120600491820201546040516001600160e01b031960e085901b1681526145a8926001600160a01b03909216918691016157fc565b6020604051808303815f875af11580156145c4573d5f803e3d5ffd5b505050506040513d601f19601f820116820180604052508101906145e89190615794565b5060cd604051806080016040528060cb600260cb8054905061460a91906156e8565b8154811061461a5761461a6156ad565b5f9182526020808320600492830201546001600160a01b0390811685528482018890524360408087019190915242606096870152875460018082018a559886529483902087519590940290930180546001600160a01b031916949091169390931783558401519482019490945592820151600284015501516003909101555b505b4260d655565b60cb546001036146ad57565b5f60cb60d754815481106146c3576146c36156ad565b5f91825260209182902060408051608081018252600490930290910180546001600160a01b03168352600181015493830193909352600283015490820181905260039092015460608201529150620151809061471f90426156e8565b11801561473b57506201518060d8544261473991906156e8565b115b156148eb575f6103e860d5546101f461475491906157e5565b61475e919061570f565b90508060d55f82825461477191906156e8565b909155505080156148e557614784614272565b825160405163a9059cbb60e01b81526001600160a01b03929092169163a9059cbb916147b49185906004016157fc565b6020604051808303815f875af11580156147d0573d5f803e3d5ffd5b505050506040513d601f19601f820116820180604052508101906147f49190615794565b506040805160808101825283516001600160a01b0390811682526020820184815243938301938452426060840190815260ce80546001810182555f9190915293517fd36cd1c74ef8d7326d8021b776c18fb5a5724b7f7bc93c2f42e43e10ef27d12a600490950294850180546001600160a01b0319169190941617909255517fd36cd1c74ef8d7326d8021b776c18fb5a5724b7f7bc93c2f42e43e10ef27d12b83015591517fd36cd1c74ef8d7326d8021b776c18fb5a5724b7f7bc93c2f42e43e10ef27d12c82015590517fd36cd1c74ef8d7326d8021b776c18fb5a5724b7f7bc93c2f42e43e10ef27d12d909101555b504260d8555b602081015160cb8054614900906001906156e8565b81548110614910576149106156ad565b905f5260205f20906004020160010154111561043d5760cb54614935906001906156e8565b60d75550565b60c954604080516316c4297760e11b815290515f926001600160a01b031691632d8852ee9160048083019260209291908290030181865afa158015614982573d5f803e3d5ffd5b505050506040513d601f19601f820116820180604052508101906121fd91906157ce565b603380546001600160a01b038381166001600160a01b0319831681179093556040519116919082907f8be0079c531659141344cd1fd0a4f28419497f9722a3daafe3b4186f6b6457e0905f90a35050565b6001600160a01b03163b151590565b5f54610100900460ff16614a2c5760405162461bcd60e51b8152600401610b51906159f4565b612190614c1c565b5f805f614a418585614c4b565b91509150614a4e81614c8d565b5090505b92915050565b5f8080808080614a73614a6e620151808961570f565b614dd1565b919750955093505f614a886201518089615a3f565b9050614a96610e108261570f565b9350614aa4610e1082615a3f565b9050614ab1603c8261570f565b9250614abe603c82615a3f565b91505091939550919395565b60605f614ad683614f40565b60010190505f816001600160401b03811115614af457614af4615368565b6040519080825280601f01601f191660200182016040528015614b1e576020820181803683370190505b5090508181016020015b5f19016f181899199a1a9b1b9c1cb0b131b232b360811b600a86061a8153600a8504945084614b2857509392505050565b614b62816149f7565b614bc45760405162461bcd60e51b815260206004820152602d60248201527f455243313936373a206e657720696d706c656d656e746174696f6e206973206e60448201526c1bdd08184818dbdb9d1c9858dd609a1b6064820152608401610b51565b5f80516020615bb983398151915280546001600160a01b0319166001600160a01b0392909216919091179055565b614bfb83615015565b5f82511180614c075750805b15611d4257614c168383615054565b50505050565b5f54610100900460ff16614c425760405162461bcd60e51b8152600401610b51906159f4565b612190336149a6565b5f808251604103614c7f576020830151604084015160608501515f1a614c7387828585615142565b94509450505050614c86565b505f905060025b9250929050565b5f816004811115614ca057614ca0615a52565b03614ca85750565b6001816004811115614cbc57614cbc615a52565b03614d045760405162461bcd60e51b815260206004820152601860248201527745434453413a20696e76616c6964207369676e617475726560401b6044820152606401610b51565b6002816004811115614d1857614d18615a52565b03614d655760405162461bcd60e51b815260206004820152601f60248201527f45434453413a20696e76616c6964207369676e6174757265206c656e677468006044820152606401610b51565b6003816004811115614d7957614d79615a52565b0361043d5760405162461bcd60e51b815260206004820152602260248201527f45434453413a20696e76616c6964207369676e6174757265202773272076616c604482015261756560f01b6064820152608401610b51565b5f8080838162253d8c614de78362010bd9615a66565b614df19190615a66565b90505f62023ab1614e03836004615a85565b614e0d9190615ab4565b90506004614e1e8262023ab1615a85565b614e29906003615a66565b614e339190615ab4565b614e3d9083615ae0565b91505f62164b09614e4f846001615a66565b614e5b90610fa0615a85565b614e659190615ab4565b90506004614e75826105b5615a85565b614e7f9190615ab4565b614e899084615ae0565b614e9490601f615a66565b92505f61098f614ea5856050615a85565b614eaf9190615ab4565b90505f6050614ec08361098f615a85565b614eca9190615ab4565b614ed49086615ae0565b9050614ee1600b83615ab4565b9450614eee85600c615a85565b614ef9836002615a66565b614f039190615ae0565b91508483614f12603187615ae0565b614f1d906064615a85565b614f279190615a66565b614f319190615a66565b9a919950975095505050505050565b5f8072184f03e93ff9f4daa797ed6e38ed64bf6a1f0160401b8310614f7e5772184f03e93ff9f4daa797ed6e38ed64bf6a1f0160401b830492506040015b6904ee2d6d415b85acef8160201b8310614fa8576904ee2d6d415b85acef8160201b830492506020015b662386f26fc100008310614fc657662386f26fc10000830492506010015b6305f5e1008310614fde576305f5e100830492506008015b6127108310614ff257612710830492506004015b60648310615004576064830492506002015b600a8310614a525760010192915050565b61501e81614b59565b6040516001600160a01b038216907fbc7cd75a20ee27fd9adebab32041f755214dbc6bffa90cc0225b39da2e5c2d3b905f90a250565b606061505f836149f7565b6150ba5760405162461bcd60e51b815260206004820152602660248201527f416464726573733a2064656c65676174652063616c6c20746f206e6f6e2d636f6044820152651b9d1c9858dd60d21b6064820152608401610b51565b5f80846001600160a01b0316846040516150d491906159d9565b5f60405180830381855af49150503d805f811461510c576040519150601f19603f3d011682016040523d82523d5f602084013e615111565b606091505b50915091506151398282604051806060016040528060278152602001615bd9602791396151f5565b95945050505050565b5f806fa2a8918ca85bafe22016d0b997e4df60600160ff1b0383111561516d57505f905060036151ec565b604080515f8082526020820180845289905260ff881692820192909252606081018690526080810185905260019060a0016020604051602081039080840390855afa1580156151be573d5f803e3d5ffd5b5050604051601f1901519150506001600160a01b0381166151e6575f600192509250506151ec565b91505f90505b94509492505050565b6060831561520457508161520e565b61520e8383615215565b9392505050565b8151156152255781518083602001fd5b8060405162461bcd60e51b8152600401610b519190615b06565b60405180608001604052805f6001600160a01b031681526020015f81526020015f81526020015f81525090565b6001600160a01b038116811461043d575f80fd5b5f60208284031215615290575f80fd5b813561520e8161526c565b805182526020810151602083015260408101516040830152606081015160608301525050565b60808101614a52828461529b565b815181526020808301519082015260408083015190820152606080830151908201526080808301516001600160a01b03169082015260a08101614a52565b5f6020828403121561531d575f80fd5b5035919050565b6001600160a01b039384168152919092166020820152604081019190915260600190565b5f8060408385031215615359575f80fd5b50508035926020909101359150565b634e487b7160e01b5f52604160045260245ffd5b5f6001600160401b038084111561539557615395615368565b604051601f8501601f19908116603f011681019082821181831017156153bd576153bd615368565b816040528093508581528686860111156153d5575f80fd5b858560208301375f602087830101525050509392505050565b5f82601f8301126153fd575f80fd5b61520e8383356020850161537c565b5f806040838503121561541d575f80fd5b82356154288161526c565b915060208301356001600160401b03811115615442575f80fd5b61544e858286016153ee565b9150509250929050565b602080825282518282018190525f919060409081850190868401855b828110156154af57815180516001600160a01b0390811686528782015116878601528501518585015260609093019290850190600101615474565b5091979650505050505050565b5f80604083850312156154cd575f80fd5b82356154d88161526c565b946020939093013593505050565b80516001600160a01b031682526020808201519083015260408082015190830152606090810151910152565b60808101614a5282846154e6565b6001600160a01b0391909116815260200190565b602080825282518282018190525f9190848201906040850190845b81811015615575576155628385516154e6565b928401926080929092019160010161554f565b50909695505050505050565b5f805f805f60a08688031215615595575f80fd5b8535945060208601359350604086013592506060860135915060808601356001600160401b038111156155c6575f80fd5b6155d2888289016153ee565b9150509295509295909350565b602080825282518282018190525f9190848201906040850190845b818110156155755761560d8385516154e6565b92840192608092909201916001016155fa565b5f60208284031215615630575f80fd5b81356001600160401b03811115615645575f80fd5b8201601f81018413615655575f80fd5b6156648482356020840161537c565b949350505050565b602080825282518282018190525f9190848201906040850190845b818110156155755761569a83855161529b565b9284019260809290920191600101615687565b634e487b7160e01b5f52603260045260245ffd5b634e487b7160e01b5f52601160045260245ffd5b80820180821115614a5257614a526156c1565b81810381811115614a5257614a526156c1565b634e487b7160e01b5f52601260045260245ffd5b5f8261571d5761571d6156fb565b500490565b6020808252602c908201525f80516020615b9983398151915260408201526b19195b1959d85d1958d85b1b60a21b606082015260800190565b6020808252602c908201525f80516020615b9983398151915260408201526b6163746976652070726f787960a01b606082015260800190565b5f602082840312156157a4575f80fd5b8151801515811461520e575f80fd5b5f602082840312156157c3575f80fd5b815161520e8161526c565b5f602082840312156157de575f80fd5b5051919050565b8082028115828204841417614a5257614a526156c1565b6001600160a01b03929092168252602082015260400190565b80516001600160701b038116811461582b575f80fd5b919050565b5f805f60608486031215615842575f80fd5b61584b84615815565b925061585960208501615815565b9150604084015163ffffffff81168114615871575f80fd5b809150509250925092565b9283526001600160701b03918216602084015216604082015260600190565b5f600182016158ac576158ac6156c1565b5060010190565b6001600160701b03818116838216028082169190828114611f1b57611f1b6156c1565b5f6001600160701b03838116806158ef576158ef6156fb565b92169190910492915050565b6001600160701b0393841681529190921660208201526001600160a01b03909116604082015260600190565b6001600160a01b039290921682526001600160701b0316602082015260400190565b6001600160a01b0393841681529190921660208201526001600160701b03909116604082015260600190565b5f5b8381101561598f578181015183820152602001615977565b50505f910152565b5f84516159a8818460208901615975565b8451908301906159bc818360208901615975565b84519101906159cf818360208801615975565b0195945050505050565b5f82516159ea818460208701615975565b9190910192915050565b6020808252602b908201527f496e697469616c697a61626c653a20636f6e7472616374206973206e6f74206960408201526a6e697469616c697a696e6760a81b606082015260800190565b5f82615a4d57615a4d6156fb565b500690565b634e487b7160e01b5f52602160045260245ffd5b8082018281125f831280158216821582161715611f1b57611f1b6156c1565b8082025f8212600160ff1b84141615615aa057615aa06156c1565b8181058314821517614a5257614a526156c1565b5f82615ac257615ac26156fb565b600160ff1b82145f1984141615615adb57615adb6156c1565b500590565b8181035f831280158383131683831282161715615aff57615aff6156c1565b5092915050565b602081525f8251806020840152615b24816040850160208701615975565b601f01601f1916919091016040019291505056fea7ce836d032b2bf62b7e2097a8e0a6d8aeb35405ad15271e96d3b0188a1d06fca7ce836d032b2bf62b7e2097a8e0a6d8aeb35405ad15271e96d3b0188a1d06fba7ce836d032b2bf62b7e2097a8e0a6d8aeb35405ad15271e96d3b0188a1d06fd46756e6374696f6e206d7573742062652063616c6c6564207468726f75676820360894a13ba1a3210667c828492db98dca3e2076cc3735a920a3ca505d382bbc416464726573733a206c6f772d6c6576656c2064656c65676174652063616c6c206661696c6564a7ce836d032b2bf62b7e2097a8e0a6d8aeb35405ad15271e96d3b0188a1d06fea26469706673582212201af810853b67d03aa7c15d7b80bcb33d8efc420d9688757fc67960fdb99d439c64736f6c63430008140033",
			"opcodes": "PUSH1 0xA0 PUSH1 0x40 MSTORE ADDRESS PUSH1 0x80 MSTORE CALLVALUE DUP1 ISZERO PUSH2 0x13 JUMPI PUSH0 DUP1 REVERT JUMPDEST POP PUSH1 0x80 MLOAD PUSH2 0x5C55 PUSH3 0x49 PUSH0 CODECOPY PUSH0 DUP2 DUP2 PUSH2 0xB13 ADD MSTORE DUP2 DUP2 PUSH2 0xB5C ADD MSTORE DUP2 DUP2 PUSH2 0x1D51 ADD MSTORE DUP2 DUP2 PUSH2 0x1D91 ADD MSTORE PUSH2 0x1F2F ADD MSTORE PUSH2 0x5C55 PUSH0 RETURN INVALID PUSH1 0x80 PUSH1 0x40 MSTORE PUSH1 0x4 CALLDATASIZE LT PUSH2 0x238 JUMPI PUSH0 CALLDATALOAD PUSH1 0xE0 SHR DUP1 PUSH4 0x4E86903 EQ PUSH2 0x23C JUMPI DUP1 PUSH4 0x1865E4D5 EQ PUSH2 0x27A JUMPI DUP1 PUSH4 0x210835AE EQ PUSH2 0x2B8 JUMPI DUP1 PUSH4 0x233BE799 EQ PUSH2 0x2D9 JUMPI DUP1 PUSH4 0x2562C39B EQ PUSH2 0x305 JUMPI DUP1 PUSH4 0x265EB5B8 EQ PUSH2 0x326 JUMPI DUP1 PUSH4 0x2D6D56B0 EQ PUSH2 0x33A JUMPI DUP1 PUSH4 0x3659CFE6 EQ PUSH2 0x383 JUMPI DUP1 PUSH4 0x365B98B2 EQ PUSH2 0x3A2 JUMPI DUP1 PUSH4 0x382E227F EQ PUSH2 0x3D0 JUMPI DUP1 PUSH4 0x3F22297E EQ PUSH2 0x3EF JUMPI DUP1 PUSH4 0x42FF7BCD EQ PUSH2 0x40E JUMPI DUP1 PUSH4 0x4420E486 EQ PUSH2 0x423 JUMPI DUP1 PUSH4 0x4469ED13 EQ PUSH2 0x440 JUMPI DUP1 PUSH4 0x45B3E93E EQ PUSH2 0x45F JUMPI DUP1 PUSH4 0x4E71D92D EQ PUSH2 0x473 JUMPI DUP1 PUSH4 0x4F1EF286 EQ PUSH2 0x487 JUMPI DUP1 PUSH4 0x51AE6B1B EQ PUSH2 0x49A JUMPI DUP1 PUSH4 0x52D1902D EQ PUSH2 0x4C6 JUMPI DUP1 PUSH4 0x57629F82 EQ PUSH2 0x4DA JUMPI DUP1 PUSH4 0x624343E6 EQ PUSH2 0x4F9 JUMPI DUP1 PUSH4 0x715018A6 EQ PUSH2 0x525 JUMPI DUP1 PUSH4 0x7456FED6 EQ PUSH2 0x539 JUMPI DUP1 PUSH4 0x79BD54DA EQ PUSH2 0x54D JUMPI DUP1 PUSH4 0x7BAB1032 EQ PUSH2 0x56E JUMPI DUP1 PUSH4 0x8DA5CB5B EQ PUSH2 0x582 JUMPI DUP1 PUSH4 0x8E56D48C EQ PUSH2 0x596 JUMPI DUP1 PUSH4 0x94B918DE EQ PUSH2 0x5AB JUMPI DUP1 PUSH4 0x9B5F0F22 EQ PUSH2 0x5CA JUMPI DUP1 PUSH4 0xA3592158 EQ PUSH2 0x5DF JUMPI DUP1 PUSH4 0xA7808F1A EQ PUSH2 0x5F4 JUMPI DUP1 PUSH4 0xAD7E01BE EQ PUSH2 0x608 JUMPI DUP1 PUSH4 0xB0CB1B0D EQ PUSH2 0x61C JUMPI DUP1 PUSH4 0xBAF189D2 EQ PUSH2 0x63B JUMPI DUP1 PUSH4 0xBF024CFA EQ PUSH2 0x65A JUMPI DUP1 PUSH4 0xC4B6EBDF EQ PUSH2 0x679 JUMPI DUP1 PUSH4 0xC4D66DE8 EQ PUSH2 0x6AD JUMPI DUP1 PUSH4 0xC6834BF6 EQ PUSH2 0x6CC JUMPI DUP1 PUSH4 0xC8EE5073 EQ PUSH2 0x72E JUMPI DUP1 PUSH4 0xCB82AB19 EQ PUSH2 0x74D JUMPI DUP1 PUSH4 0xCBBA3DEF EQ PUSH2 0x76C JUMPI DUP1 PUSH4 0xD77F5EE7 EQ PUSH2 0x798 JUMPI DUP1 PUSH4 0xD7DF42D3 EQ PUSH2 0x7AD JUMPI DUP1 PUSH4 0xE500845D EQ PUSH2 0x7CC JUMPI DUP1 PUSH4 0xE91E969C EQ PUSH2 0x7EB JUMPI DUP1 PUSH4 0xEED0AB53 EQ PUSH2 0x7FF JUMPI DUP1 PUSH4 0xF2782D6D EQ PUSH2 0x82B JUMPI DUP1 PUSH4 0xF2FDE38B EQ PUSH2 0x84A JUMPI DUP1 PUSH4 0xF951D945 EQ PUSH2 0x869 JUMPI DUP1 PUSH4 0xFC76F17C EQ PUSH2 0x8A3 JUMPI JUMPDEST PUSH0 DUP1 REVERT JUMPDEST CALLVALUE DUP1 ISZERO PUSH2 0x247 JUMPI PUSH0 DUP1 REVERT JUMPDEST POP PUSH2 0x267 PUSH2 0x256 CALLDATASIZE PUSH1 0x4 PUSH2 0x5280 JUMP JUMPDEST PUSH1 0xD3 PUSH1 0x20 MSTORE PUSH0 SWAP1 DUP2 MSTORE PUSH1 0x40 SWAP1 KECCAK256 SLOAD DUP2 JUMP JUMPDEST PUSH1 0x40 MLOAD SWAP1 DUP2 MSTORE PUSH1 0x20 ADD JUMPDEST PUSH1 0x40 MLOAD DUP1 SWAP2 SUB SWAP1 RETURN JUMPDEST CALLVALUE DUP1 ISZERO PUSH2 0x285 JUMPI PUSH0 DUP1 REVERT JUMPDEST POP PUSH2 0x2A8 PUSH2 0x294 CALLDATASIZE PUSH1 0x4 PUSH2 0x5280 JUMP JUMPDEST PUSH1 0xD1 PUSH1 0x20 MSTORE PUSH0 SWAP1 DUP2 MSTORE PUSH1 0x40 SWAP1 KECCAK256 SLOAD PUSH1 0xFF AND DUP2 JUMP JUMPDEST PUSH1 0x40 MLOAD SWAP1 ISZERO ISZERO DUP2 MSTORE PUSH1 0x20 ADD PUSH2 0x271 JUMP JUMPDEST CALLVALUE DUP1 ISZERO PUSH2 0x2C3 JUMPI PUSH0 DUP1 REVERT JUMPDEST POP PUSH2 0x2D7 PUSH2 0x2D2 CALLDATASIZE PUSH1 0x4 PUSH2 0x5280 JUMP JUMPDEST PUSH2 0x8CF JUMP JUMPDEST STOP JUMPDEST CALLVALUE DUP1 ISZERO PUSH2 0x2E4 JUMPI PUSH0 DUP1 REVERT JUMPDEST POP PUSH2 0x2F8 PUSH2 0x2F3 CALLDATASIZE PUSH1 0x4 PUSH2 0x5280 JUMP JUMPDEST PUSH2 0x8F9 JUMP JUMPDEST PUSH1 0x40 MLOAD PUSH2 0x271 SWAP2 SWAP1 PUSH2 0x52C1 JUMP JUMPDEST CALLVALUE DUP1 ISZERO PUSH2 0x310 JUMPI PUSH0 DUP1 REVERT JUMPDEST POP PUSH2 0x319 PUSH2 0x97E JUMP JUMPDEST PUSH1 0x40 MLOAD PUSH2 0x271 SWAP2 SWAP1 PUSH2 0x52CF JUMP JUMPDEST CALLVALUE DUP1 ISZERO PUSH2 0x331 JUMPI PUSH0 DUP1 REVERT JUMPDEST POP PUSH1 0xCB SLOAD PUSH2 0x267 JUMP JUMPDEST CALLVALUE DUP1 ISZERO PUSH2 0x345 JUMPI PUSH0 DUP1 REVERT JUMPDEST POP PUSH2 0x359 PUSH2 0x354 CALLDATASIZE PUSH1 0x4 PUSH2 0x530D JUMP JUMPDEST PUSH2 0xAC7 JUMP JUMPDEST PUSH1 0x40 DUP1 MLOAD PUSH1 0x1 PUSH1 0x1 PUSH1 0xA0 SHL SUB SWAP1 SWAP6 AND DUP6 MSTORE PUSH1 0x20 DUP6 ADD SWAP4 SWAP1 SWAP4 MSTORE SWAP2 DUP4 ADD MSTORE PUSH1 0x60 DUP3 ADD MSTORE PUSH1 0x80 ADD PUSH2 0x271 JUMP JUMPDEST CALLVALUE DUP1 ISZERO PUSH2 0x38E JUMPI PUSH0 DUP1 REVERT JUMPDEST POP PUSH2 0x2D7 PUSH2 0x39D CALLDATASIZE PUSH1 0x4 PUSH2 0x5280 JUMP JUMPDEST PUSH2 0xB09 JUMP JUMPDEST CALLVALUE DUP1 ISZERO PUSH2 0x3AD JUMPI PUSH0 DUP1 REVERT JUMPDEST POP PUSH2 0x3C1 PUSH2 0x3BC CALLDATASIZE PUSH1 0x4 PUSH2 0x530D JUMP JUMPDEST PUSH2 0xBD6 JUMP JUMPDEST PUSH1 0x40 MLOAD PUSH2 0x271 SWAP4 SWAP3 SWAP2 SWAP1 PUSH2 0x5324 JUMP JUMPDEST CALLVALUE DUP1 ISZERO PUSH2 0x3DB JUMPI PUSH0 DUP1 REVERT JUMPDEST POP PUSH2 0x2D7 PUSH2 0x3EA CALLDATASIZE PUSH1 0x4 PUSH2 0x5348 JUMP JUMPDEST PUSH2 0xC14 JUMP JUMPDEST CALLVALUE DUP1 ISZERO PUSH2 0x3FA JUMPI PUSH0 DUP1 REVERT JUMPDEST POP PUSH2 0x267 PUSH2 0x409 CALLDATASIZE PUSH1 0x4 PUSH2 0x530D JUMP JUMPDEST PUSH2 0x16AE JUMP JUMPDEST CALLVALUE DUP1 ISZERO PUSH2 0x419 JUMPI PUSH0 DUP1 REVERT JUMPDEST POP PUSH2 0x267 PUSH1 0xD5 SLOAD DUP2 JUMP JUMPDEST CALLVALUE DUP1 ISZERO PUSH2 0x42E JUMPI PUSH0 DUP1 REVERT JUMPDEST POP PUSH2 0x2D7 PUSH2 0x43D CALLDATASIZE PUSH1 0x4 PUSH2 0x5280 JUMP JUMPDEST POP JUMP JUMPDEST CALLVALUE DUP1 ISZERO PUSH2 0x44B JUMPI PUSH0 DUP1 REVERT JUMPDEST POP PUSH2 0x359 PUSH2 0x45A CALLDATASIZE PUSH1 0x4 PUSH2 0x530D JUMP JUMPDEST PUSH2 0x1833 JUMP JUMPDEST CALLVALUE DUP1 ISZERO PUSH2 0x46A JUMPI PUSH0 DUP1 REVERT JUMPDEST POP PUSH2 0x319 PUSH2 0x1842 JUMP JUMPDEST CALLVALUE DUP1 ISZERO PUSH2 0x47E JUMPI PUSH0 DUP1 REVERT JUMPDEST POP PUSH2 0x2D7 PUSH2 0x1979 JUMP JUMPDEST PUSH2 0x2D7 PUSH2 0x495 CALLDATASIZE PUSH1 0x4 PUSH2 0x540C JUMP JUMPDEST PUSH2 0x1D47 JUMP JUMPDEST CALLVALUE DUP1 ISZERO PUSH2 0x4A5 JUMPI PUSH0 DUP1 REVERT JUMPDEST POP PUSH2 0x4B9 PUSH2 0x4B4 CALLDATASIZE PUSH1 0x4 PUSH2 0x5348 JUMP JUMPDEST PUSH2 0x1E00 JUMP JUMPDEST PUSH1 0x40 MLOAD PUSH2 0x271 SWAP2 SWAP1 PUSH2 0x5458 JUMP JUMPDEST CALLVALUE DUP1 ISZERO PUSH2 0x4D1 JUMPI PUSH0 DUP1 REVERT JUMPDEST POP PUSH2 0x267 PUSH2 0x1F23 JUMP JUMPDEST CALLVALUE DUP1 ISZERO PUSH2 0x4E5 JUMPI PUSH0 DUP1 REVERT JUMPDEST POP PUSH2 0x2D7 PUSH2 0x4F4 CALLDATASIZE PUSH1 0x4 PUSH2 0x54BC JUMP JUMPDEST PUSH2 0x1FCF JUMP JUMPDEST CALLVALUE DUP1 ISZERO PUSH2 0x504 JUMPI PUSH0 DUP1 REVERT JUMPDEST POP PUSH2 0x518 PUSH2 0x513 CALLDATASIZE PUSH1 0x4 PUSH2 0x530D JUMP JUMPDEST PUSH2 0x2115 JUMP JUMPDEST PUSH1 0x40 MLOAD PUSH2 0x271 SWAP2 SWAP1 PUSH2 0x5512 JUMP JUMPDEST CALLVALUE DUP1 ISZERO PUSH2 0x530 JUMPI PUSH0 DUP1 REVERT JUMPDEST POP PUSH2 0x2D7 PUSH2 0x217F JUMP JUMPDEST CALLVALUE DUP1 ISZERO PUSH2 0x544 JUMPI PUSH0 DUP1 REVERT JUMPDEST POP PUSH1 0xCA SLOAD PUSH2 0x267 JUMP JUMPDEST CALLVALUE DUP1 ISZERO PUSH2 0x558 JUMPI PUSH0 DUP1 REVERT JUMPDEST POP PUSH2 0x561 PUSH2 0x2192 JUMP JUMPDEST PUSH1 0x40 MLOAD PUSH2 0x271 SWAP2 SWAP1 PUSH2 0x5520 JUMP JUMPDEST CALLVALUE DUP1 ISZERO PUSH2 0x579 JUMPI PUSH0 DUP1 REVERT JUMPDEST POP PUSH2 0x267 PUSH2 0x2202 JUMP JUMPDEST CALLVALUE DUP1 ISZERO PUSH2 0x58D JUMPI PUSH0 DUP1 REVERT JUMPDEST POP PUSH2 0x561 PUSH2 0x220B JUMP JUMPDEST CALLVALUE DUP1 ISZERO PUSH2 0x5A1 JUMPI PUSH0 DUP1 REVERT JUMPDEST POP PUSH2 0x267 PUSH1 0xD6 SLOAD DUP2 JUMP JUMPDEST CALLVALUE DUP1 ISZERO PUSH2 0x5B6 JUMPI PUSH0 DUP1 REVERT JUMPDEST POP PUSH2 0x2D7 PUSH2 0x5C5 CALLDATASIZE PUSH1 0x4 PUSH2 0x530D JUMP JUMPDEST PUSH2 0x221A JUMP JUMPDEST CALLVALUE DUP1 ISZERO PUSH2 0x5D5 JUMPI PUSH0 DUP1 REVERT JUMPDEST POP PUSH2 0x267 PUSH1 0xD7 SLOAD DUP2 JUMP JUMPDEST CALLVALUE DUP1 ISZERO PUSH2 0x5EA JUMPI PUSH0 DUP1 REVERT JUMPDEST POP PUSH2 0x267 PUSH1 0xD8 SLOAD DUP2 JUMP JUMPDEST CALLVALUE DUP1 ISZERO PUSH2 0x5FF JUMPI PUSH0 DUP1 REVERT JUMPDEST POP PUSH1 0xCC SLOAD PUSH2 0x267 JUMP JUMPDEST CALLVALUE DUP1 ISZERO PUSH2 0x613 JUMPI PUSH0 DUP1 REVERT JUMPDEST POP PUSH2 0x2D7 PUSH2 0x264C JUMP JUMPDEST CALLVALUE DUP1 ISZERO PUSH2 0x627 JUMPI PUSH0 DUP1 REVERT JUMPDEST POP PUSH1 0xC9 SLOAD PUSH2 0x561 SWAP1 PUSH1 0x1 PUSH1 0x1 PUSH1 0xA0 SHL SUB AND DUP2 JUMP JUMPDEST CALLVALUE DUP1 ISZERO PUSH2 0x646 JUMPI PUSH0 DUP1 REVERT JUMPDEST POP PUSH2 0x518 PUSH2 0x655 CALLDATASIZE PUSH1 0x4 PUSH2 0x530D JUMP JUMPDEST PUSH2 0x2AD3 JUMP JUMPDEST CALLVALUE DUP1 ISZERO PUSH2 0x665 JUMPI PUSH0 DUP1 REVERT JUMPDEST POP PUSH2 0x267 PUSH2 0x674 CALLDATASIZE PUSH1 0x4 PUSH2 0x54BC JUMP JUMPDEST PUSH2 0x2AEE JUMP JUMPDEST CALLVALUE DUP1 ISZERO PUSH2 0x684 JUMPI PUSH0 DUP1 REVERT JUMPDEST POP PUSH2 0x561 PUSH2 0x693 CALLDATASIZE PUSH1 0x4 PUSH2 0x5280 JUMP JUMPDEST PUSH1 0xCF PUSH1 0x20 MSTORE PUSH0 SWAP1 DUP2 MSTORE PUSH1 0x40 SWAP1 KECCAK256 SLOAD PUSH1 0x1 PUSH1 0x1 PUSH1 0xA0 SHL SUB AND DUP2 JUMP JUMPDEST CALLVALUE DUP1 ISZERO PUSH2 0x6B8 JUMPI PUSH0 DUP1 REVERT JUMPDEST POP PUSH2 0x2D7 PUSH2 0x6C7 CALLDATASIZE PUSH1 0x4 PUSH2 0x5280 JUMP JUMPDEST PUSH2 0x2B19 JUMP JUMPDEST CALLVALUE DUP1 ISZERO PUSH2 0x6D7 JUMPI PUSH0 DUP1 REVERT JUMPDEST POP PUSH2 0x6EB PUSH2 0x6E6 CALLDATASIZE PUSH1 0x4 PUSH2 0x5280 JUMP JUMPDEST PUSH2 0x2D17 JUMP JUMPDEST PUSH1 0x40 MLOAD PUSH2 0x271 SWAP2 SWAP1 PUSH0 PUSH1 0xA0 DUP3 ADD SWAP1 POP DUP3 MLOAD DUP3 MSTORE PUSH1 0x20 DUP4 ADD MLOAD PUSH1 0x20 DUP4 ADD MSTORE PUSH1 0x40 DUP4 ADD MLOAD PUSH1 0x40 DUP4 ADD MSTORE PUSH1 0x60 DUP4 ADD MLOAD PUSH1 0x60 DUP4 ADD MSTORE PUSH1 0x80 DUP4 ADD MLOAD ISZERO ISZERO PUSH1 0x80 DUP4 ADD MSTORE SWAP3 SWAP2 POP POP JUMP JUMPDEST CALLVALUE DUP1 ISZERO PUSH2 0x739 JUMPI PUSH0 DUP1 REVERT JUMPDEST POP PUSH2 0x359 PUSH2 0x748 CALLDATASIZE PUSH1 0x4 PUSH2 0x530D JUMP JUMPDEST PUSH2 0x2FDB JUMP JUMPDEST CALLVALUE DUP1 ISZERO PUSH2 0x758 JUMPI PUSH0 DUP1 REVERT JUMPDEST POP PUSH2 0x359 PUSH2 0x767 CALLDATASIZE PUSH1 0x4 PUSH2 0x530D JUMP JUMPDEST PUSH2 0x2FEA JUMP JUMPDEST CALLVALUE DUP1 ISZERO PUSH2 0x777 JUMPI PUSH0 DUP1 REVERT JUMPDEST POP PUSH2 0x78B PUSH2 0x786 CALLDATASIZE PUSH1 0x4 PUSH2 0x5348 JUMP JUMPDEST PUSH2 0x2FF9 JUMP JUMPDEST PUSH1 0x40 MLOAD PUSH2 0x271 SWAP2 SWAP1 PUSH2 0x5534 JUMP JUMPDEST CALLVALUE DUP1 ISZERO PUSH2 0x7A3 JUMPI PUSH0 DUP1 REVERT JUMPDEST POP PUSH2 0x267 PUSH1 0xD4 SLOAD DUP2 JUMP JUMPDEST CALLVALUE DUP1 ISZERO PUSH2 0x7B8 JUMPI PUSH0 DUP1 REVERT JUMPDEST POP PUSH2 0x2D7 PUSH2 0x7C7 CALLDATASIZE PUSH1 0x4 PUSH2 0x5581 JUMP JUMPDEST PUSH2 0x3130 JUMP JUMPDEST CALLVALUE DUP1 ISZERO PUSH2 0x7D7 JUMPI PUSH0 DUP1 REVERT JUMPDEST POP PUSH2 0x267 PUSH2 0x7E6 CALLDATASIZE PUSH1 0x4 PUSH2 0x5280 JUMP JUMPDEST PUSH2 0x34DB JUMP JUMPDEST CALLVALUE DUP1 ISZERO PUSH2 0x7F6 JUMPI PUSH0 DUP1 REVERT JUMPDEST POP PUSH2 0x2D7 PUSH2 0x360E JUMP JUMPDEST CALLVALUE DUP1 ISZERO PUSH2 0x80A JUMPI PUSH0 DUP1 REVERT JUMPDEST POP PUSH2 0x81E PUSH2 0x819 CALLDATASIZE PUSH1 0x4 PUSH2 0x5348 JUMP JUMPDEST PUSH2 0x3C13 JUMP JUMPDEST PUSH1 0x40 MLOAD PUSH2 0x271 SWAP2 SWAP1 PUSH2 0x55DF JUMP JUMPDEST CALLVALUE DUP1 ISZERO PUSH2 0x836 JUMPI PUSH0 DUP1 REVERT JUMPDEST POP PUSH2 0x359 PUSH2 0x845 CALLDATASIZE PUSH1 0x4 PUSH2 0x530D JUMP JUMPDEST PUSH2 0x3D4A JUMP JUMPDEST CALLVALUE DUP1 ISZERO PUSH2 0x855 JUMPI PUSH0 DUP1 REVERT JUMPDEST POP PUSH2 0x2D7 PUSH2 0x864 CALLDATASIZE PUSH1 0x4 PUSH2 0x5280 JUMP JUMPDEST PUSH2 0x3D59 JUMP JUMPDEST CALLVALUE DUP1 ISZERO PUSH2 0x874 JUMPI PUSH0 DUP1 REVERT JUMPDEST POP PUSH2 0x2A8 PUSH2 0x883 CALLDATASIZE PUSH1 0x4 PUSH2 0x5620 JUMP JUMPDEST DUP1 MLOAD PUSH1 0x20 DUP2 DUP4 ADD DUP2 ADD DUP1 MLOAD PUSH1 0xD2 DUP3 MSTORE SWAP3 DUP3 ADD SWAP2 SWAP1 SWAP4 ADD KECCAK256 SWAP2 MSTORE SLOAD PUSH1 0xFF AND DUP2 JUMP JUMPDEST CALLVALUE DUP1 ISZERO PUSH2 0x8AE JUMPI PUSH0 DUP1 REVERT JUMPDEST POP PUSH2 0x8C2 PUSH2 0x8BD CALLDATASIZE PUSH1 0x4 PUSH2 0x5280 JUMP JUMPDEST PUSH2 0x3DCF JUMP JUMPDEST PUSH1 0x40 MLOAD PUSH2 0x271 SWAP2 SWAP1 PUSH2 0x566C JUMP JUMPDEST PUSH2 0x8D7 PUSH2 0x4086 JUMP JUMPDEST PUSH1 0xC9 DUP1 SLOAD PUSH1 0x1 PUSH1 0x1 PUSH1 0xA0 SHL SUB NOT AND PUSH1 0x1 PUSH1 0x1 PUSH1 0xA0 SHL SUB SWAP3 SWAP1 SWAP3 AND SWAP2 SWAP1 SWAP2 OR SWAP1 SSTORE JUMP JUMPDEST PUSH2 0x920 PUSH1 0x40 MLOAD DUP1 PUSH1 0x80 ADD PUSH1 0x40 MSTORE DUP1 PUSH0 DUP2 MSTORE PUSH1 0x20 ADD PUSH0 DUP2 MSTORE PUSH1 0x20 ADD PUSH0 DUP2 MSTORE PUSH1 0x20 ADD PUSH0 DUP2 MSTORE POP SWAP1 JUMP JUMPDEST POP PUSH1 0x40 DUP1 MLOAD PUSH1 0x80 DUP2 ADD DUP3 MSTORE PUSH1 0x1 PUSH1 0x1 PUSH1 0xA0 SHL SUB SWAP1 SWAP3 AND PUSH0 SWAP1 DUP2 MSTORE PUSH1 0xD9 PUSH1 0x20 SWAP1 DUP2 MSTORE DUP3 DUP3 KECCAK256 DUP3 DUP1 MSTORE DUP1 DUP3 MSTORE DUP4 DUP4 KECCAK256 SLOAD DUP6 MSTORE PUSH1 0x1 DUP4 MSTORE DUP1 DUP3 MSTORE DUP4 DUP4 KECCAK256 SLOAD DUP3 DUP7 ADD MSTORE PUSH1 0x2 DUP4 MSTORE DUP1 DUP3 MSTORE DUP4 DUP4 KECCAK256 SLOAD DUP6 DUP6 ADD MSTORE PUSH1 0x3 DUP4 MSTORE SWAP1 MSTORE KECCAK256 SLOAD PUSH1 0x60 DUP3 ADD MSTORE SWAP1 JUMP JUMPDEST PUSH2 0x9B4 PUSH1 0x40 MLOAD DUP1 PUSH1 0xA0 ADD PUSH1 0x40 MSTORE DUP1 PUSH0 DUP2 MSTORE PUSH1 0x20 ADD PUSH0 DUP2 MSTORE PUSH1 0x20 ADD PUSH0 DUP2 MSTORE PUSH1 0x20 ADD PUSH0 DUP2 MSTORE PUSH1 0x20 ADD PUSH0 PUSH1 0x1 PUSH1 0x1 PUSH1 0xA0 SHL SUB AND DUP2 MSTORE POP SWAP1 JUMP JUMPDEST PUSH0 PUSH1 0xCB PUSH1 0xD7 SLOAD DUP2 SLOAD DUP2 LT PUSH2 0x9CA JUMPI PUSH2 0x9CA PUSH2 0x56AD JUMP JUMPDEST SWAP1 PUSH0 MSTORE PUSH1 0x20 PUSH0 KECCAK256 SWAP1 PUSH1 0x4 MUL ADD PUSH1 0x2 ADD SLOAD PUSH1 0xD8 SLOAD LT ISZERO PUSH2 0xA0D JUMPI PUSH1 0xCB PUSH1 0xD7 SLOAD DUP2 SLOAD DUP2 LT PUSH2 0x9F8 JUMPI PUSH2 0x9F8 PUSH2 0x56AD JUMP JUMPDEST SWAP1 PUSH0 MSTORE PUSH1 0x20 PUSH0 KECCAK256 SWAP1 PUSH1 0x4 MUL ADD PUSH1 0x2 ADD SLOAD PUSH2 0xA11 JUMP JUMPDEST PUSH1 0xD8 SLOAD JUMPDEST SWAP1 POP PUSH2 0xA20 PUSH3 0x15180 DUP3 PUSH2 0x56D5 JUMP JUMPDEST SWAP1 POP PUSH1 0x40 MLOAD DUP1 PUSH1 0xA0 ADD PUSH1 0x40 MSTORE DUP1 DUP3 TIMESTAMP LT ISZERO PUSH2 0xA44 JUMPI PUSH2 0xA3F TIMESTAMP DUP5 PUSH2 0x56E8 JUMP JUMPDEST PUSH2 0xA46 JUMP JUMPDEST PUSH0 JUMPDEST DUP2 MSTORE PUSH1 0x20 ADD PUSH1 0xD5 SLOAD DUP2 MSTORE PUSH1 0x20 ADD PUSH1 0x2 PUSH1 0xD5 SLOAD PUSH2 0xA62 SWAP2 SWAP1 PUSH2 0x570F JUMP JUMPDEST DUP2 MSTORE PUSH1 0x20 ADD PUSH1 0xCB PUSH1 0xD7 SLOAD DUP2 SLOAD DUP2 LT PUSH2 0xA7C JUMPI PUSH2 0xA7C PUSH2 0x56AD JUMP JUMPDEST SWAP1 PUSH0 MSTORE PUSH1 0x20 PUSH0 KECCAK256 SWAP1 PUSH1 0x4 MUL ADD PUSH1 0x1 ADD SLOAD DUP2 MSTORE PUSH1 0x20 ADD PUSH1 0xCB PUSH1 0xD7 SLOAD DUP2 SLOAD DUP2 LT PUSH2 0xAA6 JUMPI PUSH2 0xAA6 PUSH2 0x56AD JUMP JUMPDEST PUSH0 SWAP2 DUP3 MSTORE PUSH1 0x20 SWAP1 SWAP2 KECCAK256 PUSH1 0x4 SWAP1 SWAP2 MUL ADD SLOAD PUSH1 0x1 PUSH1 0x1 PUSH1 0xA0 SHL SUB AND SWAP1 MSTORE SWAP3 SWAP2 POP POP JUMP JUMPDEST PUSH1 0xCD DUP2 DUP2 SLOAD DUP2 LT PUSH2 0xAD6 JUMPI PUSH0 DUP1 REVERT JUMPDEST PUSH0 SWAP2 DUP3 MSTORE PUSH1 0x20 SWAP1 SWAP2 KECCAK256 PUSH1 0x4 SWAP1 SWAP2 MUL ADD DUP1 SLOAD PUSH1 0x1 DUP3 ADD SLOAD PUSH1 0x2 DUP4 ADD SLOAD PUSH1 0x3 SWAP1 SWAP4 ADD SLOAD PUSH1 0x1 PUSH1 0x1 PUSH1 0xA0 SHL SUB SWAP1 SWAP3 AND SWAP4 POP SWAP2 SWAP1 DUP5 JUMP JUMPDEST PUSH1 0x1 PUSH1 0x1 PUSH1 0xA0 SHL SUB PUSH32 0x0 AND ADDRESS SUB PUSH2 0xB5A JUMPI PUSH1 0x40 MLOAD PUSH3 0x461BCD PUSH1 0xE5 SHL DUP2 MSTORE PUSH1 0x4 ADD PUSH2 0xB51 SWAP1 PUSH2 0x5722 JUMP JUMPDEST PUSH1 0x40 MLOAD DUP1 SWAP2 SUB SWAP1 REVERT JUMPDEST PUSH32 0x0 PUSH1 0x1 PUSH1 0x1 PUSH1 0xA0 SHL SUB AND PUSH2 0xB8C PUSH2 0x40E5 JUMP JUMPDEST PUSH1 0x1 PUSH1 0x1 PUSH1 0xA0 SHL SUB AND EQ PUSH2 0xBB2 JUMPI PUSH1 0x40 MLOAD PUSH3 0x461BCD PUSH1 0xE5 SHL DUP2 MSTORE PUSH1 0x4 ADD PUSH2 0xB51 SWAP1 PUSH2 0x575B JUMP JUMPDEST PUSH2 0xBBB DUP2 PUSH2 0x4100 JUMP JUMPDEST PUSH1 0x40 DUP1 MLOAD PUSH0 DUP1 DUP3 MSTORE PUSH1 0x20 DUP3 ADD SWAP1 SWAP3 MSTORE PUSH2 0x43D SWAP2 DUP4 SWAP2 SWAP1 PUSH2 0x4108 JUMP JUMPDEST PUSH1 0xCA DUP2 DUP2 SLOAD DUP2 LT PUSH2 0xBE5 JUMPI PUSH0 DUP1 REVERT JUMPDEST PUSH0 SWAP2 DUP3 MSTORE PUSH1 0x20 SWAP1 SWAP2 KECCAK256 PUSH1 0x3 SWAP1 SWAP2 MUL ADD DUP1 SLOAD PUSH1 0x1 DUP3 ADD SLOAD PUSH1 0x2 SWAP1 SWAP3 ADD SLOAD PUSH1 0x1 PUSH1 0x1 PUSH1 0xA0 SHL SUB SWAP2 DUP3 AND SWAP4 POP SWAP2 AND SWAP1 DUP4 JUMP JUMPDEST PUSH2 0xC1C PUSH2 0x4272 JUMP JUMPDEST PUSH1 0x1 PUSH1 0x1 PUSH1 0xA0 SHL SUB AND PUSH4 0x23B872DD CALLER ADDRESS PUSH2 0xC37 PUSH1 0x2 DUP8 PUSH2 0x570F JUMP JUMPDEST PUSH1 0x40 MLOAD DUP5 PUSH4 0xFFFFFFFF AND PUSH1 0xE0 SHL DUP2 MSTORE PUSH1 0x4 ADD PUSH2 0xC55 SWAP4 SWAP3 SWAP2 SWAP1 PUSH2 0x5324 JUMP JUMPDEST PUSH1 0x20 PUSH1 0x40 MLOAD DUP1 DUP4 SUB DUP2 PUSH0 DUP8 GAS CALL ISZERO DUP1 ISZERO PUSH2 0xC71 JUMPI RETURNDATASIZE PUSH0 DUP1 RETURNDATACOPY RETURNDATASIZE PUSH0 REVERT JUMPDEST POP POP POP POP PUSH1 0x40 MLOAD RETURNDATASIZE PUSH1 0x1F NOT PUSH1 0x1F DUP3 ADD AND DUP3 ADD DUP1 PUSH1 0x40 MSTORE POP DUP2 ADD SWAP1 PUSH2 0xC95 SWAP2 SWAP1 PUSH2 0x5794 JUMP JUMPDEST POP DUP1 PUSH0 SUB PUSH2 0xE84 JUMPI PUSH1 0xC9 PUSH0 SWAP1 SLOAD SWAP1 PUSH2 0x100 EXP SWAP1 DIV PUSH1 0x1 PUSH1 0x1 PUSH1 0xA0 SHL SUB AND PUSH1 0x1 PUSH1 0x1 PUSH1 0xA0 SHL SUB AND PUSH4 0xDB5501EA PUSH1 0x40 MLOAD DUP2 PUSH4 0xFFFFFFFF AND PUSH1 0xE0 SHL DUP2 MSTORE PUSH1 0x4 ADD PUSH1 0x20 PUSH1 0x40 MLOAD DUP1 DUP4 SUB DUP2 DUP7 GAS STATICCALL ISZERO DUP1 ISZERO PUSH2 0xCED JUMPI RETURNDATASIZE PUSH0 DUP1 RETURNDATACOPY RETURNDATASIZE PUSH0 REVERT JUMPDEST POP POP POP POP PUSH1 0x40 MLOAD RETURNDATASIZE PUSH1 0x1F NOT PUSH1 0x1F DUP3 ADD AND DUP3 ADD DUP1 PUSH1 0x40 MSTORE POP DUP2 ADD SWAP1 PUSH2 0xD11 SWAP2 SWAP1 PUSH2 0x57B3 JUMP JUMPDEST PUSH1 0x1 PUSH1 0x1 PUSH1 0xA0 SHL SUB AND PUSH4 0x23B872DD CALLER PUSH1 0xC9 PUSH0 SWAP1 SLOAD SWAP1 PUSH2 0x100 EXP SWAP1 DIV PUSH1 0x1 PUSH1 0x1 PUSH1 0xA0 SHL SUB AND PUSH1 0x1 PUSH1 0x1 PUSH1 0xA0 SHL SUB AND PUSH4 0x149A32C1 PUSH1 0x40 MLOAD DUP2 PUSH4 0xFFFFFFFF AND PUSH1 0xE0 SHL DUP2 MSTORE PUSH1 0x4 ADD PUSH1 0x20 PUSH1 0x40 MLOAD DUP1 DUP4 SUB DUP2 DUP7 GAS STATICCALL ISZERO DUP1 ISZERO PUSH2 0xD70 JUMPI RETURNDATASIZE PUSH0 DUP1 RETURNDATACOPY RETURNDATASIZE PUSH0 REVERT JUMPDEST POP POP POP POP PUSH1 0x40 MLOAD RETURNDATASIZE PUSH1 0x1F NOT PUSH1 0x1F DUP3 ADD AND DUP3 ADD DUP1 PUSH1 0x40 MSTORE POP DUP2 ADD SWAP1 PUSH2 0xD94 SWAP2 SWAP1 PUSH2 0x57B3 JUMP JUMPDEST PUSH1 0xC9 SLOAD PUSH1 0x40 DUP1 MLOAD PUSH4 0x698518E5 PUSH1 0xE0 SHL DUP2 MSTORE SWAP1 MLOAD PUSH2 0x3E8 SWAP3 PUSH1 0x1 PUSH1 0x1 PUSH1 0xA0 SHL SUB AND SWAP2 PUSH4 0x698518E5 SWAP2 PUSH1 0x4 DUP1 DUP4 ADD SWAP3 PUSH1 0x20 SWAP3 SWAP2 SWAP1 DUP3 SWAP1 SUB ADD DUP2 DUP7 GAS STATICCALL ISZERO DUP1 ISZERO PUSH2 0xDDD JUMPI RETURNDATASIZE PUSH0 DUP1 RETURNDATACOPY RETURNDATASIZE PUSH0 REVERT JUMPDEST POP POP POP POP PUSH1 0x40 MLOAD RETURNDATASIZE PUSH1 0x1F NOT PUSH1 0x1F DUP3 ADD AND DUP3 ADD DUP1 PUSH1 0x40 MSTORE POP DUP2 ADD SWAP1 PUSH2 0xE01 SWAP2 SWAP1 PUSH2 0x57CE JUMP JUMPDEST PUSH2 0xE0C PUSH1 0x2 DUP10 PUSH2 0x570F JUMP JUMPDEST PUSH2 0xE16 SWAP2 SWAP1 PUSH2 0x57E5 JUMP JUMPDEST PUSH2 0xE20 SWAP2 SWAP1 PUSH2 0x570F JUMP JUMPDEST PUSH1 0x40 MLOAD DUP5 PUSH4 0xFFFFFFFF AND PUSH1 0xE0 SHL DUP2 MSTORE PUSH1 0x4 ADD PUSH2 0xE3E SWAP4 SWAP3 SWAP2 SWAP1 PUSH2 0x5324 JUMP JUMPDEST PUSH1 0x20 PUSH1 0x40 MLOAD DUP1 DUP4 SUB DUP2 PUSH0 DUP8 GAS CALL ISZERO DUP1 ISZERO PUSH2 0xE5A JUMPI RETURNDATASIZE PUSH0 DUP1 RETURNDATACOPY RETURNDATASIZE PUSH0 REVERT JUMPDEST POP POP POP POP PUSH1 0x40 MLOAD RETURNDATASIZE PUSH1 0x1F NOT PUSH1 0x1F DUP3 ADD AND DUP3 ADD DUP1 PUSH1 0x40 MSTORE POP DUP2 ADD SWAP1 PUSH2 0xE7E SWAP2 SWAP1 PUSH2 0x5794 JUMP JUMPDEST POP PUSH2 0xF31 JUMP JUMPDEST PUSH0 PUSH2 0xE8D PUSH2 0x42B9 JUMP JUMPDEST SWAP1 POP PUSH2 0xE97 PUSH2 0x2192 JUMP JUMPDEST PUSH1 0x1 PUSH1 0x1 PUSH1 0xA0 SHL SUB AND PUSH4 0x23B872DD CALLER PUSH1 0x1 DUP5 PUSH2 0xEB4 PUSH1 0x2 DUP10 PUSH2 0x570F JUMP JUMPDEST PUSH2 0xEBE SWAP2 SWAP1 PUSH2 0x570F JUMP JUMPDEST PUSH2 0xED0 SWAP1 PUSH8 0xDE0B6B3A7640000 PUSH2 0x57E5 JUMP JUMPDEST PUSH1 0x40 MLOAD DUP5 PUSH4 0xFFFFFFFF AND PUSH1 0xE0 SHL DUP2 MSTORE PUSH1 0x4 ADD PUSH2 0xEEE SWAP4 SWAP3 SWAP2 SWAP1 PUSH2 0x5324 JUMP JUMPDEST PUSH1 0x20 PUSH1 0x40 MLOAD DUP1 DUP4 SUB DUP2 PUSH0 DUP8 GAS CALL ISZERO DUP1 ISZERO PUSH2 0xF0A JUMPI RETURNDATASIZE PUSH0 DUP1 RETURNDATACOPY RETURNDATASIZE PUSH0 REVERT JUMPDEST POP POP POP POP PUSH1 0x40 MLOAD RETURNDATASIZE PUSH1 0x1F NOT PUSH1 0x1F DUP3 ADD AND DUP3 ADD DUP1 PUSH1 0x40 MSTORE POP DUP2 ADD SWAP1 PUSH2 0xF2E SWAP2 SWAP1 PUSH2 0x5794 JUMP JUMPDEST POP POP JUMPDEST CALLER PUSH0 DUP2 DUP2 MSTORE PUSH1 0xD0 PUSH1 0x20 SWAP1 DUP2 MSTORE PUSH1 0x40 DUP1 DUP4 KECCAK256 PUSH1 0xCB DUP1 SLOAD DUP3 SLOAD PUSH1 0x1 DUP1 DUP3 ADD DUP6 SSTORE SWAP4 DUP8 MSTORE DUP6 DUP8 KECCAK256 ADD SSTORE DUP3 MLOAD PUSH1 0x80 DUP2 ADD DUP5 MSTORE DUP7 DUP2 MSTORE DUP1 DUP6 ADD DUP10 DUP2 MSTORE TIMESTAMP DUP3 DUP7 ADD DUP2 DUP2 MSTORE PUSH1 0x60 DUP5 ADD SWAP2 DUP3 MSTORE DUP5 SLOAD DUP1 DUP8 ADD DUP7 SSTORE SWAP5 DUP10 MSTORE SWAP3 MLOAD PUSH0 DUP1 MLOAD PUSH1 0x20 PUSH2 0x5B59 DUP4 CODECOPY DUP2 MLOAD SWAP2 MSTORE PUSH1 0x4 SWAP1 SWAP6 MUL SWAP5 DUP6 ADD DUP1 SLOAD PUSH1 0x1 PUSH1 0x1 PUSH1 0xA0 SHL SUB NOT AND PUSH1 0x1 PUSH1 0x1 PUSH1 0xA0 SHL SUB SWAP1 SWAP3 AND SWAP2 SWAP1 SWAP2 OR SWAP1 SSTORE SWAP1 MLOAD PUSH0 DUP1 MLOAD PUSH1 0x20 PUSH2 0x5B39 DUP4 CODECOPY DUP2 MLOAD SWAP2 MSTORE DUP5 ADD SSTORE SWAP1 MLOAD PUSH0 DUP1 MLOAD PUSH1 0x20 PUSH2 0x5B79 DUP4 CODECOPY DUP2 MLOAD SWAP2 MSTORE DUP4 ADD SSTORE MLOAD PUSH0 DUP1 MLOAD PUSH1 0x20 PUSH2 0x5C00 DUP4 CODECOPY DUP2 MLOAD SWAP2 MSTORE SWAP1 SWAP2 ADD SSTORE SWAP4 DUP4 MSTORE PUSH1 0xD1 SWAP1 SWAP2 MSTORE SWAP1 KECCAK256 DUP1 SLOAD PUSH1 0xFF NOT AND SWAP1 SWAP2 OR SWAP1 SSTORE PUSH2 0x100B PUSH2 0x4272 JUMP JUMPDEST PUSH1 0x1 PUSH1 0x1 PUSH1 0xA0 SHL SUB AND PUSH4 0xA9059CBB PUSH1 0xC9 PUSH0 SWAP1 SLOAD SWAP1 PUSH2 0x100 EXP SWAP1 DIV PUSH1 0x1 PUSH1 0x1 PUSH1 0xA0 SHL SUB AND PUSH1 0x1 PUSH1 0x1 PUSH1 0xA0 SHL SUB AND PUSH4 0x1E56CFAB PUSH1 0x40 MLOAD DUP2 PUSH4 0xFFFFFFFF AND PUSH1 0xE0 SHL DUP2 MSTORE PUSH1 0x4 ADD PUSH1 0x20 PUSH1 0x40 MLOAD DUP1 DUP4 SUB DUP2 DUP7 GAS STATICCALL ISZERO DUP1 ISZERO PUSH2 0x1069 JUMPI RETURNDATASIZE PUSH0 DUP1 RETURNDATACOPY RETURNDATASIZE PUSH0 REVERT JUMPDEST POP POP POP POP PUSH1 0x40 MLOAD RETURNDATASIZE PUSH1 0x1F NOT PUSH1 0x1F DUP3 ADD AND DUP3 ADD DUP1 PUSH1 0x40 MSTORE POP DUP2 ADD SWAP1 PUSH2 0x108D SWAP2 SWAP1 PUSH2 0x57B3 JUMP JUMPDEST PUSH2 0x3E8 PUSH2 0x109B PUSH1 0x2 DUP8 PUSH2 0x570F JUMP JUMPDEST PUSH2 0x10A6 SWAP1 PUSH1 0x14 PUSH2 0x57E5 JUMP JUMPDEST PUSH2 0x10B0 SWAP2 SWAP1 PUSH2 0x570F JUMP JUMPDEST PUSH1 0x40 MLOAD DUP4 PUSH4 0xFFFFFFFF AND PUSH1 0xE0 SHL DUP2 MSTORE PUSH1 0x4 ADD PUSH2 0x10CD SWAP3 SWAP2 SWAP1 PUSH2 0x57FC JUMP JUMPDEST PUSH1 0x20 PUSH1 0x40 MLOAD DUP1 DUP4 SUB DUP2 PUSH0 DUP8 GAS CALL ISZERO DUP1 ISZERO PUSH2 0x10E9 JUMPI RETURNDATASIZE PUSH0 DUP1 RETURNDATACOPY RETURNDATASIZE PUSH0 REVERT JUMPDEST POP POP POP POP PUSH1 0x40 MLOAD RETURNDATASIZE PUSH1 0x1F NOT PUSH1 0x1F DUP3 ADD AND DUP3 ADD DUP1 PUSH1 0x40 MSTORE POP DUP2 ADD SWAP1 PUSH2 0x110D SWAP2 SWAP1 PUSH2 0x5794 JUMP JUMPDEST POP PUSH2 0x1116 PUSH2 0x4272 JUMP JUMPDEST PUSH1 0x1 PUSH1 0x1 PUSH1 0xA0 SHL SUB AND PUSH4 0xA9059CBB PUSH1 0xC9 PUSH0 SWAP1 SLOAD SWAP1 PUSH2 0x100 EXP SWAP1 DIV PUSH1 0x1 PUSH1 0x1 PUSH1 0xA0 SHL SUB AND PUSH1 0x1 PUSH1 0x1 PUSH1 0xA0 SHL SUB AND PUSH4 0x95623641 PUSH1 0x40 MLOAD DUP2 PUSH4 0xFFFFFFFF AND PUSH1 0xE0 SHL DUP2 MSTORE PUSH1 0x4 ADD PUSH1 0x20 PUSH1 0x40 MLOAD DUP1 DUP4 SUB DUP2 DUP7 GAS STATICCALL ISZERO DUP1 ISZERO PUSH2 0x1174 JUMPI RETURNDATASIZE PUSH0 DUP1 RETURNDATACOPY RETURNDATASIZE PUSH0 REVERT JUMPDEST POP POP POP POP PUSH1 0x40 MLOAD RETURNDATASIZE PUSH1 0x1F NOT PUSH1 0x1F DUP3 ADD AND DUP3 ADD DUP1 PUSH1 0x40 MSTORE POP DUP2 ADD SWAP1 PUSH2 0x1198 SWAP2 SWAP1 PUSH2 0x57B3 JUMP JUMPDEST PUSH2 0x3E8 PUSH2 0x11A6 PUSH1 0x2 DUP8 PUSH2 0x570F JUMP JUMPDEST PUSH2 0x11B1 SWAP1 PUSH1 0x14 PUSH2 0x57E5 JUMP JUMPDEST PUSH2 0x11BB SWAP2 SWAP1 PUSH2 0x570F JUMP JUMPDEST PUSH1 0x40 MLOAD DUP4 PUSH4 0xFFFFFFFF AND PUSH1 0xE0 SHL DUP2 MSTORE PUSH1 0x4 ADD PUSH2 0x11D8 SWAP3 SWAP2 SWAP1 PUSH2 0x57FC JUMP JUMPDEST PUSH1 0x20 PUSH1 0x40 MLOAD DUP1 DUP4 SUB DUP2 PUSH0 DUP8 GAS CALL ISZERO DUP1 ISZERO PUSH2 0x11F4 JUMPI RETURNDATASIZE PUSH0 DUP1 RETURNDATACOPY RETURNDATASIZE PUSH0 REVERT JUMPDEST POP POP POP POP PUSH1 0x40 MLOAD RETURNDATASIZE PUSH1 0x1F NOT PUSH1 0x1F DUP3 ADD AND DUP3 ADD DUP1 PUSH1 0x40 MSTORE POP DUP2 ADD SWAP1 PUSH2 0x1218 SWAP2 SWAP1 PUSH2 0x5794 JUMP JUMPDEST POP PUSH2 0x1221 PUSH2 0x4272 JUMP JUMPDEST PUSH1 0x1 PUSH1 0x1 PUSH1 0xA0 SHL SUB AND PUSH4 0x95EA7B3 PUSH2 0x1237 PUSH2 0x4445 JUMP JUMPDEST PUSH2 0x3E8 PUSH2 0x1245 PUSH1 0x2 DUP8 PUSH2 0x570F JUMP JUMPDEST PUSH2 0x1250 SWAP1 PUSH1 0xC8 PUSH2 0x57E5 JUMP JUMPDEST PUSH2 0x125A SWAP2 SWAP1 PUSH2 0x570F JUMP JUMPDEST PUSH1 0x40 MLOAD DUP4 PUSH4 0xFFFFFFFF AND PUSH1 0xE0 SHL DUP2 MSTORE PUSH1 0x4 ADD PUSH2 0x1277 SWAP3 SWAP2 SWAP1 PUSH2 0x57FC JUMP JUMPDEST PUSH1 0x20 PUSH1 0x40 MLOAD DUP1 DUP4 SUB DUP2 PUSH0 DUP8 GAS CALL ISZERO DUP1 ISZERO PUSH2 0x1293 JUMPI RETURNDATASIZE PUSH0 DUP1 RETURNDATACOPY RETURNDATASIZE PUSH0 REVERT JUMPDEST POP POP POP POP PUSH1 0x40 MLOAD RETURNDATASIZE PUSH1 0x1F NOT PUSH1 0x1F DUP3 ADD AND DUP3 ADD DUP1 PUSH1 0x40 MSTORE POP DUP2 ADD SWAP1 PUSH2 0x12B7 SWAP2 SWAP1 PUSH2 0x5794 JUMP JUMPDEST POP PUSH2 0x12C0 PUSH2 0x4445 JUMP JUMPDEST PUSH1 0x1 PUSH1 0x1 PUSH1 0xA0 SHL SUB AND PUSH4 0xA1E15411 PUSH2 0x12D6 PUSH2 0x4272 JUMP JUMPDEST PUSH2 0x12DE PUSH2 0x448C JUMP JUMPDEST PUSH2 0x3E8 PUSH2 0x12EC PUSH1 0x2 DUP9 PUSH2 0x570F JUMP JUMPDEST PUSH2 0x12F7 SWAP1 PUSH1 0xC8 PUSH2 0x57E5 JUMP JUMPDEST PUSH2 0x1301 SWAP2 SWAP1 PUSH2 0x570F JUMP JUMPDEST PUSH1 0x40 MLOAD DUP5 PUSH4 0xFFFFFFFF AND PUSH1 0xE0 SHL DUP2 MSTORE PUSH1 0x4 ADD PUSH2 0x131F SWAP4 SWAP3 SWAP2 SWAP1 PUSH2 0x5324 JUMP JUMPDEST PUSH1 0x20 PUSH1 0x40 MLOAD DUP1 DUP4 SUB DUP2 PUSH0 DUP8 GAS CALL ISZERO DUP1 ISZERO PUSH2 0x133B JUMPI RETURNDATASIZE PUSH0 DUP1 RETURNDATACOPY RETURNDATASIZE PUSH0 REVERT JUMPDEST POP POP POP POP PUSH1 0x40 MLOAD RETURNDATASIZE PUSH1 0x1F NOT PUSH1 0x1F DUP3 ADD AND DUP3 ADD DUP1 PUSH1 0x40 MSTORE POP DUP2 ADD SWAP1 PUSH2 0x135F SWAP2 SWAP1 PUSH2 0x57CE JUMP JUMPDEST POP PUSH0 PUSH2 0x3E8 PUSH2 0x136F PUSH1 0x2 DUP6 PUSH2 0x570F JUMP JUMPDEST PUSH2 0x137B SWAP1 PUSH2 0x2BC PUSH2 0x57E5 JUMP JUMPDEST PUSH2 0x1385 SWAP2 SWAP1 PUSH2 0x570F JUMP JUMPDEST SWAP1 POP PUSH0 DUP1 PUSH2 0x1391 PUSH2 0x4445 JUMP JUMPDEST PUSH1 0x1 PUSH1 0x1 PUSH1 0xA0 SHL SUB AND PUSH4 0x902F1AC PUSH1 0x40 MLOAD DUP2 PUSH4 0xFFFFFFFF AND PUSH1 0xE0 SHL DUP2 MSTORE PUSH1 0x4 ADD PUSH1 0x60 PUSH1 0x40 MLOAD DUP1 DUP4 SUB DUP2 DUP7 GAS STATICCALL ISZERO DUP1 ISZERO PUSH2 0x13CC JUMPI RETURNDATASIZE PUSH0 DUP1 RETURNDATACOPY RETURNDATASIZE PUSH0 REVERT JUMPDEST POP POP POP POP PUSH1 0x40 MLOAD RETURNDATASIZE PUSH1 0x1F NOT PUSH1 0x1F DUP3 ADD AND DUP3 ADD DUP1 PUSH1 0x40 MSTORE POP DUP2 ADD SWAP1 PUSH2 0x13F0 SWAP2 SWAP1 PUSH2 0x5830 JUMP JUMPDEST POP SWAP2 POP SWAP2 POP PUSH0 DUP1 PUSH2 0x13FF PUSH2 0x4272 JUMP JUMPDEST PUSH1 0x1 PUSH1 0x1 PUSH1 0xA0 SHL SUB AND PUSH2 0x1410 PUSH2 0x4445 JUMP JUMPDEST PUSH1 0x1 PUSH1 0x1 PUSH1 0xA0 SHL SUB AND PUSH4 0xDFE1681 PUSH1 0x40 MLOAD DUP2 PUSH4 0xFFFFFFFF AND PUSH1 0xE0 SHL DUP2 MSTORE PUSH1 0x4 ADD PUSH1 0x20 PUSH1 0x40 MLOAD DUP1 DUP4 SUB DUP2 DUP7 GAS STATICCALL ISZERO DUP1 ISZERO PUSH2 0x144B JUMPI RETURNDATASIZE PUSH0 DUP1 RETURNDATACOPY RETURNDATASIZE PUSH0 REVERT JUMPDEST POP POP POP POP PUSH1 0x40 MLOAD RETURNDATASIZE PUSH1 0x1F NOT PUSH1 0x1F DUP3 ADD AND DUP3 ADD DUP1 PUSH1 0x40 MSTORE POP DUP2 ADD SWAP1 PUSH2 0x146F SWAP2 SWAP1 PUSH2 0x57B3 JUMP JUMPDEST PUSH1 0x1 PUSH1 0x1 PUSH1 0xA0 SHL SUB AND EQ PUSH2 0x1484 JUMPI DUP3 DUP5 PUSH2 0x1487 JUMP JUMPDEST DUP4 DUP4 JUMPDEST SWAP2 POP SWAP2 POP PUSH0 DUP3 PUSH1 0x1 PUSH1 0x1 PUSH1 0x70 SHL SUB AND DUP7 DUP4 PUSH1 0x1 PUSH1 0x1 PUSH1 0x70 SHL SUB AND PUSH2 0x14AB SWAP2 SWAP1 PUSH2 0x57E5 JUMP JUMPDEST PUSH2 0x14B5 SWAP2 SWAP1 PUSH2 0x570F JUMP JUMPDEST SWAP1 POP PUSH2 0x14BF PUSH2 0x4272 JUMP JUMPDEST PUSH1 0x1 PUSH1 0x1 PUSH1 0xA0 SHL SUB AND PUSH4 0xA9059CBB PUSH2 0x14D5 PUSH2 0x4445 JUMP JUMPDEST DUP9 PUSH1 0x40 MLOAD DUP4 PUSH4 0xFFFFFFFF AND PUSH1 0xE0 SHL DUP2 MSTORE PUSH1 0x4 ADD PUSH2 0x14F3 SWAP3 SWAP2 SWAP1 PUSH2 0x57FC JUMP JUMPDEST PUSH1 0x20 PUSH1 0x40 MLOAD DUP1 DUP4 SUB DUP2 PUSH0 DUP8 GAS CALL ISZERO DUP1 ISZERO PUSH2 0x150F JUMPI RETURNDATASIZE PUSH0 DUP1 RETURNDATACOPY RETURNDATASIZE PUSH0 REVERT JUMPDEST POP POP POP POP PUSH1 0x40 MLOAD RETURNDATASIZE PUSH1 0x1F NOT PUSH1 0x1F DUP3 ADD AND DUP3 ADD DUP1 PUSH1 0x40 MSTORE POP DUP2 ADD SWAP1 PUSH2 0x1533 SWAP2 SWAP1 PUSH2 0x5794 JUMP JUMPDEST POP PUSH2 0x153C PUSH2 0x448C JUMP JUMPDEST PUSH1 0x1 PUSH1 0x1 PUSH1 0xA0 SHL SUB AND PUSH4 0xF3FEF3A3 PUSH2 0x1552 PUSH2 0x4445 JUMP JUMPDEST DUP4 PUSH1 0x40 MLOAD DUP4 PUSH4 0xFFFFFFFF AND PUSH1 0xE0 SHL DUP2 MSTORE PUSH1 0x4 ADD PUSH2 0x1570 SWAP3 SWAP2 SWAP1 PUSH2 0x57FC JUMP JUMPDEST PUSH0 PUSH1 0x40 MLOAD DUP1 DUP4 SUB DUP2 PUSH0 DUP8 DUP1 EXTCODESIZE ISZERO DUP1 ISZERO PUSH2 0x1587 JUMPI PUSH0 DUP1 REVERT JUMPDEST POP GAS CALL ISZERO DUP1 ISZERO PUSH2 0x1599 JUMPI RETURNDATASIZE PUSH0 DUP1 RETURNDATACOPY RETURNDATASIZE PUSH0 REVERT JUMPDEST POP POP POP POP PUSH2 0x15A5 PUSH2 0x4445 JUMP JUMPDEST PUSH1 0x1 PUSH1 0x1 PUSH1 0xA0 SHL SUB AND PUSH4 0x6A627842 PUSH1 0x1 PUSH1 0x40 MLOAD DUP3 PUSH4 0xFFFFFFFF AND PUSH1 0xE0 SHL DUP2 MSTORE PUSH1 0x4 ADD PUSH2 0x15D1 SWAP2 SWAP1 PUSH2 0x5520 JUMP JUMPDEST PUSH1 0x20 PUSH1 0x40 MLOAD DUP1 DUP4 SUB DUP2 PUSH0 DUP8 GAS CALL ISZERO DUP1 ISZERO PUSH2 0x15ED JUMPI RETURNDATASIZE PUSH0 DUP1 RETURNDATACOPY RETURNDATASIZE PUSH0 REVERT JUMPDEST POP POP POP POP PUSH1 0x40 MLOAD RETURNDATASIZE PUSH1 0x1F NOT PUSH1 0x1F DUP3 ADD AND DUP3 ADD DUP1 PUSH1 0x40 MSTORE POP DUP2 ADD SWAP1 PUSH2 0x1611 SWAP2 SWAP1 PUSH2 0x57CE JUMP JUMPDEST POP PUSH2 0x161A PUSH2 0x44D3 JUMP JUMPDEST PUSH2 0x1622 PUSH2 0x46A1 JUMP JUMPDEST PUSH2 0x3E8 PUSH2 0x1630 PUSH1 0x2 DUP11 PUSH2 0x570F JUMP JUMPDEST PUSH2 0x163B SWAP1 PUSH1 0x23 PUSH2 0x57E5 JUMP JUMPDEST PUSH2 0x1645 SWAP2 SWAP1 PUSH2 0x570F JUMP JUMPDEST PUSH1 0xD4 PUSH0 DUP3 DUP3 SLOAD PUSH2 0x1655 SWAP2 SWAP1 PUSH2 0x56D5 JUMP JUMPDEST SWAP1 SWAP2 SSTORE POP PUSH2 0x3E8 SWAP1 POP PUSH2 0x1669 PUSH1 0x2 DUP11 PUSH2 0x570F JUMP JUMPDEST PUSH2 0x1674 SWAP1 PUSH1 0x19 PUSH2 0x57E5 JUMP JUMPDEST PUSH2 0x167E SWAP2 SWAP1 PUSH2 0x570F JUMP JUMPDEST PUSH1 0xD5 PUSH0 DUP3 DUP3 SLOAD PUSH2 0x168E SWAP2 SWAP1 PUSH2 0x56D5 JUMP JUMPDEST SWAP1 SWAP2 SSTORE POP PUSH2 0x169C SWAP1 POP PUSH2 0x264C JUMP JUMPDEST PUSH2 0x16A4 PUSH2 0x360E JUMP JUMPDEST POP POP POP POP POP POP POP POP JUMP JUMPDEST PUSH0 DUP1 PUSH0 PUSH2 0x16B9 PUSH2 0x4445 JUMP JUMPDEST PUSH1 0x1 PUSH1 0x1 PUSH1 0xA0 SHL SUB AND PUSH4 0x902F1AC PUSH1 0x40 MLOAD DUP2 PUSH4 0xFFFFFFFF AND PUSH1 0xE0 SHL DUP2 MSTORE PUSH1 0x4 ADD PUSH1 0x60 PUSH1 0x40 MLOAD DUP1 DUP4 SUB DUP2 DUP7 GAS STATICCALL ISZERO DUP1 ISZERO PUSH2 0x16F4 JUMPI RETURNDATASIZE PUSH0 DUP1 RETURNDATACOPY RETURNDATASIZE PUSH0 REVERT JUMPDEST POP POP POP POP PUSH1 0x40 MLOAD RETURNDATASIZE PUSH1 0x1F NOT PUSH1 0x1F DUP3 ADD AND DUP3 ADD DUP1 PUSH1 0x40 MSTORE POP DUP2 ADD SWAP1 PUSH2 0x1718 SWAP2 SWAP1 PUSH2 0x5830 JUMP JUMPDEST POP SWAP2 POP SWAP2 POP PUSH0 DUP1 PUSH2 0x1727 PUSH2 0x4272 JUMP JUMPDEST PUSH1 0x1 PUSH1 0x1 PUSH1 0xA0 SHL SUB AND PUSH2 0x1738 PUSH2 0x4445 JUMP JUMPDEST PUSH1 0x1 PUSH1 0x1 PUSH1 0xA0 SHL SUB AND PUSH4 0xDFE1681 PUSH1 0x40 MLOAD DUP2 PUSH4 0xFFFFFFFF AND PUSH1 0xE0 SHL DUP2 MSTORE PUSH1 0x4 ADD PUSH1 0x20 PUSH1 0x40 MLOAD DUP1 DUP4 SUB DUP2 DUP7 GAS STATICCALL ISZERO DUP1 ISZERO PUSH2 0x1773 JUMPI RETURNDATASIZE PUSH0 DUP1 RETURNDATACOPY RETURNDATASIZE PUSH0 REVERT JUMPDEST POP POP POP POP PUSH1 0x40 MLOAD RETURNDATASIZE PUSH1 0x1F NOT PUSH1 0x1F DUP3 ADD AND DUP3 ADD DUP1 PUSH1 0x40 MSTORE POP DUP2 ADD SWAP1 PUSH2 0x1797 SWAP2 SWAP1 PUSH2 0x57B3 JUMP JUMPDEST PUSH1 0x1 PUSH1 0x1 PUSH1 0xA0 SHL SUB AND EQ PUSH2 0x17AC JUMPI DUP3 DUP5 PUSH2 0x17AF JUMP JUMPDEST DUP4 DUP4 JUMPDEST SWAP2 POP SWAP2 POP PUSH2 0x17BB PUSH2 0x4445 JUMP JUMPDEST PUSH1 0x1 PUSH1 0x1 PUSH1 0xA0 SHL SUB AND PUSH4 0x54D50D4 DUP8 DUP4 DUP6 PUSH1 0x40 MLOAD DUP5 PUSH4 0xFFFFFFFF AND PUSH1 0xE0 SHL DUP2 MSTORE PUSH1 0x4 ADD PUSH2 0x17EA SWAP4 SWAP3 SWAP2 SWAP1 PUSH2 0x587C JUMP JUMPDEST PUSH1 0x20 PUSH1 0x40 MLOAD DUP1 DUP4 SUB DUP2 DUP7 GAS STATICCALL ISZERO DUP1 ISZERO PUSH2 0x1805 JUMPI RETURNDATASIZE PUSH0 DUP1 RETURNDATACOPY RETURNDATASIZE PUSH0 REVERT JUMPDEST POP POP POP POP PUSH1 0x40 MLOAD RETURNDATASIZE PUSH1 0x1F NOT PUSH1 0x1F DUP3 ADD AND DUP3 ADD DUP1 PUSH1 0x40 MSTORE POP DUP2 ADD SWAP1 PUSH2 0x1829 SWAP2 SWAP1 PUSH2 0x57CE JUMP JUMPDEST SWAP7 SWAP6 POP POP POP POP POP POP JUMP JUMPDEST PUSH1 0xCE DUP2 DUP2 SLOAD DUP2 LT PUSH2 0xAD6 JUMPI PUSH0 DUP1 REVERT JUMPDEST PUSH2 0x1878 PUSH1 0x40 MLOAD DUP1 PUSH1 0xA0 ADD PUSH1 0x40 MSTORE DUP1 PUSH0 DUP2 MSTORE PUSH1 0x20 ADD PUSH0 DUP2 MSTORE PUSH1 0x20 ADD PUSH0 DUP2 MSTORE PUSH1 0x20 ADD PUSH0 DUP2 MSTORE PUSH1 0x20 ADD PUSH0 PUSH1 0x1 PUSH1 0x1 PUSH1 0xA0 SHL SUB AND DUP2 MSTORE POP SWAP1 JUMP JUMPDEST PUSH0 PUSH1 0xD6 SLOAD PUSH2 0x258 PUSH2 0x1889 SWAP2 SWAP1 PUSH2 0x56D5 JUMP JUMPDEST SWAP1 POP PUSH1 0x40 MLOAD DUP1 PUSH1 0xA0 ADD PUSH1 0x40 MSTORE DUP1 DUP3 TIMESTAMP LT ISZERO PUSH2 0x18AD JUMPI PUSH2 0x18A8 TIMESTAMP DUP5 PUSH2 0x56E8 JUMP JUMPDEST PUSH2 0x18AF JUMP JUMPDEST PUSH0 JUMPDEST DUP2 MSTORE PUSH1 0x20 ADD PUSH1 0xD4 SLOAD DUP2 MSTORE PUSH1 0x20 ADD PUSH2 0x3E8 PUSH1 0xD4 SLOAD PUSH1 0x64 PUSH2 0x18CE SWAP2 SWAP1 PUSH2 0x57E5 JUMP JUMPDEST PUSH2 0x18D8 SWAP2 SWAP1 PUSH2 0x570F JUMP JUMPDEST DUP2 MSTORE PUSH1 0x20 ADD PUSH2 0x18E5 PUSH2 0x2192 JUMP JUMPDEST PUSH1 0x1 PUSH1 0x1 PUSH1 0xA0 SHL SUB AND PUSH4 0x70A08231 PUSH1 0x1 PUSH1 0x40 MLOAD DUP3 PUSH4 0xFFFFFFFF AND PUSH1 0xE0 SHL DUP2 MSTORE PUSH1 0x4 ADD PUSH2 0x1911 SWAP2 SWAP1 PUSH2 0x5520 JUMP JUMPDEST PUSH1 0x20 PUSH1 0x40 MLOAD DUP1 DUP4 SUB DUP2 DUP7 GAS STATICCALL ISZERO DUP1 ISZERO PUSH2 0x192C JUMPI RETURNDATASIZE PUSH0 DUP1 RETURNDATACOPY RETURNDATASIZE PUSH0 REVERT JUMPDEST POP POP POP POP PUSH1 0x40 MLOAD RETURNDATASIZE PUSH1 0x1F NOT PUSH1 0x1F DUP3 ADD AND DUP3 ADD DUP1 PUSH1 0x40 MSTORE POP DUP2 ADD SWAP1 PUSH2 0x1950 SWAP2 SWAP1 PUSH2 0x57CE JUMP JUMPDEST DUP2 MSTORE PUSH1 0x20 ADD PUSH1 0xCB PUSH1 0x1 PUSH1 0xCB DUP1 SLOAD SWAP1 POP PUSH2 0x1969 SWAP2 SWAP1 PUSH2 0x56E8 JUMP JUMPDEST DUP2 SLOAD DUP2 LT PUSH2 0xAA6 JUMPI PUSH2 0xAA6 PUSH2 0x56AD JUMP JUMPDEST CALLER PUSH0 SWAP1 DUP2 MSTORE PUSH1 0xD0 PUSH1 0x20 SWAP1 DUP2 MSTORE PUSH1 0x40 DUP1 DUP4 KECCAK256 DUP1 SLOAD DUP3 MLOAD DUP2 DUP6 MUL DUP2 ADD DUP6 ADD SWAP1 SWAP4 MSTORE DUP1 DUP4 MSTORE SWAP2 SWAP3 SWAP1 SWAP2 SWAP1 DUP4 ADD DUP3 DUP3 DUP1 ISZERO PUSH2 0x19CD JUMPI PUSH1 0x20 MUL DUP3 ADD SWAP2 SWAP1 PUSH0 MSTORE PUSH1 0x20 PUSH0 KECCAK256 SWAP1 JUMPDEST DUP2 SLOAD DUP2 MSTORE PUSH1 0x20 ADD SWAP1 PUSH1 0x1 ADD SWAP1 DUP1 DUP4 GT PUSH2 0x19B9 JUMPI JUMPDEST POP POP POP POP POP SWAP1 POP PUSH0 DUP1 PUSH2 0x19DE PUSH2 0x42B9 JUMP JUMPDEST SWAP1 POP PUSH0 JUMPDEST DUP4 MLOAD DUP2 LT ISZERO PUSH2 0x1B8F JUMPI PUSH0 PUSH1 0xCB DUP6 DUP4 DUP2 MLOAD DUP2 LT PUSH2 0x1A00 JUMPI PUSH2 0x1A00 PUSH2 0x56AD JUMP JUMPDEST PUSH1 0x20 MUL PUSH1 0x20 ADD ADD MLOAD DUP2 SLOAD DUP2 LT PUSH2 0x1A18 JUMPI PUSH2 0x1A18 PUSH2 0x56AD JUMP JUMPDEST SWAP1 PUSH0 MSTORE PUSH1 0x20 PUSH0 KECCAK256 SWAP1 PUSH1 0x4 MUL ADD SWAP1 POP PUSH1 0xC9 PUSH0 SWAP1 SLOAD SWAP1 PUSH2 0x100 EXP SWAP1 DIV PUSH1 0x1 PUSH1 0x1 PUSH1 0xA0 SHL SUB AND PUSH1 0x1 PUSH1 0x1 PUSH1 0xA0 SHL SUB AND PUSH4 0xB433A12 PUSH1 0x40 MLOAD DUP2 PUSH4 0xFFFFFFFF AND PUSH1 0xE0 SHL DUP2 MSTORE PUSH1 0x4 ADD PUSH1 0x20 PUSH1 0x40 MLOAD DUP1 DUP4 SUB DUP2 DUP7 GAS STATICCALL ISZERO DUP1 ISZERO PUSH2 0x1A76 JUMPI RETURNDATASIZE PUSH0 DUP1 RETURNDATACOPY RETURNDATASIZE PUSH0 REVERT JUMPDEST POP POP POP POP PUSH1 0x40 MLOAD RETURNDATASIZE PUSH1 0x1F NOT PUSH1 0x1F DUP3 ADD AND DUP3 ADD DUP1 PUSH1 0x40 MSTORE POP DUP2 ADD SWAP1 PUSH2 0x1A9A SWAP2 SWAP1 PUSH2 0x57CE JUMP JUMPDEST PUSH1 0x3 DUP3 ADD SLOAD PUSH2 0x1AA9 SWAP1 TIMESTAMP PUSH2 0x56E8 JUMP JUMPDEST GT PUSH2 0x1AC7 JUMPI PUSH1 0x40 MLOAD PUSH4 0x1CA0875F PUSH1 0xE0 SHL DUP2 MSTORE PUSH1 0x4 ADD PUSH1 0x40 MLOAD DUP1 SWAP2 SUB SWAP1 REVERT JUMPDEST PUSH0 PUSH2 0x1AD0 PUSH2 0x493B JUMP JUMPDEST DUP3 PUSH1 0x2 ADD SLOAD PUSH2 0x1ADF SWAP2 SWAP1 PUSH2 0x56D5 JUMP JUMPDEST TIMESTAMP LT PUSH2 0x1B01 JUMPI PUSH2 0x1AED PUSH2 0x493B JUMP JUMPDEST DUP3 PUSH1 0x2 ADD SLOAD PUSH2 0x1AFC SWAP2 SWAP1 PUSH2 0x56D5 JUMP JUMPDEST PUSH2 0x1B03 JUMP JUMPDEST TIMESTAMP JUMPDEST SWAP1 POP DUP2 PUSH1 0x3 ADD SLOAD DUP2 GT PUSH2 0x1B17 JUMPI POP POP PUSH2 0x1B7F JUMP JUMPDEST DUP4 PUSH3 0x15180 PUSH1 0x64 DUP5 PUSH1 0x1 ADD SLOAD PUSH2 0x1B2D SWAP2 SWAP1 PUSH2 0x570F JUMP JUMPDEST PUSH2 0x1B37 SWAP2 SWAP1 PUSH2 0x570F JUMP JUMPDEST PUSH1 0x3 DUP5 ADD SLOAD PUSH2 0x1B46 SWAP1 DUP5 PUSH2 0x56E8 JUMP JUMPDEST PUSH2 0x1B50 SWAP2 SWAP1 PUSH2 0x57E5 JUMP JUMPDEST PUSH2 0x1B5A SWAP2 SWAP1 PUSH2 0x570F JUMP JUMPDEST PUSH2 0x1B6C SWAP1 PUSH8 0xDE0B6B3A7640000 PUSH2 0x57E5 JUMP JUMPDEST PUSH2 0x1B76 SWAP1 DUP7 PUSH2 0x56D5 JUMP JUMPDEST PUSH1 0x3 SWAP1 SWAP3 ADD SSTORE SWAP3 POP JUMPDEST PUSH2 0x1B88 DUP2 PUSH2 0x589B JUMP JUMPDEST SWAP1 POP PUSH2 0x19E2 JUMP JUMPDEST POP DUP2 ISZERO PUSH2 0x1D32 JUMPI PUSH2 0x1B9E PUSH2 0x448C JUMP JUMPDEST PUSH1 0x1 PUSH1 0x1 PUSH1 0xA0 SHL SUB AND PUSH4 0xF3FEF3A3 ADDRESS DUP5 PUSH1 0x40 MLOAD DUP4 PUSH4 0xFFFFFFFF AND PUSH1 0xE0 SHL DUP2 MSTORE PUSH1 0x4 ADD PUSH2 0x1BCB SWAP3 SWAP2 SWAP1 PUSH2 0x57FC JUMP JUMPDEST PUSH0 PUSH1 0x40 MLOAD DUP1 DUP4 SUB DUP2 PUSH0 DUP8 DUP1 EXTCODESIZE ISZERO DUP1 ISZERO PUSH2 0x1BE2 JUMPI PUSH0 DUP1 REVERT JUMPDEST POP GAS CALL ISZERO DUP1 ISZERO PUSH2 0x1BF4 JUMPI RETURNDATASIZE PUSH0 DUP1 RETURNDATACOPY RETURNDATASIZE PUSH0 REVERT JUMPDEST POP POP POP POP PUSH2 0x1C00 PUSH2 0x2192 JUMP JUMPDEST PUSH1 0x1 PUSH1 0x1 PUSH1 0xA0 SHL SUB AND PUSH4 0xA9059CBB CALLER PUSH2 0x1C1A PUSH1 0x2 DUP7 PUSH2 0x570F JUMP JUMPDEST PUSH1 0x40 MLOAD DUP4 PUSH4 0xFFFFFFFF AND PUSH1 0xE0 SHL DUP2 MSTORE PUSH1 0x4 ADD PUSH2 0x1C37 SWAP3 SWAP2 SWAP1 PUSH2 0x57FC JUMP JUMPDEST PUSH1 0x20 PUSH1 0x40 MLOAD DUP1 DUP4 SUB DUP2 PUSH0 DUP8 GAS CALL ISZERO DUP1 ISZERO PUSH2 0x1C53 JUMPI RETURNDATASIZE PUSH0 DUP1 RETURNDATACOPY RETURNDATASIZE PUSH0 REVERT JUMPDEST POP POP POP POP PUSH1 0x40 MLOAD RETURNDATASIZE PUSH1 0x1F NOT PUSH1 0x1F DUP3 ADD AND DUP3 ADD DUP1 PUSH1 0x40 MSTORE POP DUP2 ADD SWAP1 PUSH2 0x1C77 SWAP2 SWAP1 PUSH2 0x5794 JUMP JUMPDEST POP PUSH1 0x40 DUP1 MLOAD PUSH1 0x80 DUP2 ADD SWAP1 SWAP2 MSTORE CALLER DUP2 MSTORE PUSH1 0xCC SWAP1 PUSH1 0x20 DUP2 ADD PUSH2 0x1C98 PUSH1 0x2 DUP7 PUSH2 0x570F JUMP JUMPDEST DUP2 MSTORE PUSH0 PUSH1 0x20 DUP1 DUP4 ADD DUP3 SWAP1 MSTORE TIMESTAMP PUSH1 0x40 SWAP4 DUP5 ADD MSTORE DUP5 SLOAD PUSH1 0x1 DUP1 DUP3 ADD DUP8 SSTORE SWAP6 DUP4 MSTORE SWAP2 DUP2 SWAP1 KECCAK256 DUP5 MLOAD PUSH1 0x4 SWAP1 SWAP4 MUL ADD DUP1 SLOAD PUSH1 0x1 PUSH1 0x1 PUSH1 0xA0 SHL SUB NOT AND PUSH1 0x1 PUSH1 0x1 PUSH1 0xA0 SHL SUB SWAP1 SWAP4 AND SWAP3 SWAP1 SWAP3 OR DUP3 SSTORE DUP4 ADD MLOAD SWAP4 DUP2 ADD SWAP4 SWAP1 SWAP4 SSTORE DUP2 ADD MLOAD PUSH1 0x2 DUP1 DUP5 ADD SWAP2 SWAP1 SWAP2 SSTORE PUSH1 0x60 SWAP1 SWAP2 ADD MLOAD PUSH1 0x3 SWAP1 SWAP3 ADD SWAP2 SWAP1 SWAP2 SSTORE PUSH2 0x1D0E SWAP1 DUP4 PUSH2 0x570F JUMP JUMPDEST CALLER PUSH0 SWAP1 DUP2 MSTORE PUSH1 0xD3 PUSH1 0x20 MSTORE PUSH1 0x40 DUP2 KECCAK256 DUP1 SLOAD SWAP1 SWAP2 SWAP1 PUSH2 0x1D2C SWAP1 DUP5 SWAP1 PUSH2 0x56D5 JUMP JUMPDEST SWAP1 SWAP2 SSTORE POP POP JUMPDEST PUSH2 0x1D3A PUSH2 0x264C JUMP JUMPDEST PUSH2 0x1D42 PUSH2 0x360E JUMP JUMPDEST POP POP POP JUMP JUMPDEST PUSH1 0x1 PUSH1 0x1 PUSH1 0xA0 SHL SUB PUSH32 0x0 AND ADDRESS SUB PUSH2 0x1D8F JUMPI PUSH1 0x40 MLOAD PUSH3 0x461BCD PUSH1 0xE5 SHL DUP2 MSTORE PUSH1 0x4 ADD PUSH2 0xB51 SWAP1 PUSH2 0x5722 JUMP JUMPDEST PUSH32 0x0 PUSH1 0x1 PUSH1 0x1 PUSH1 0xA0 SHL SUB AND PUSH2 0x1DC1 PUSH2 0x40E5 JUMP JUMPDEST PUSH1 0x1 PUSH1 0x1 PUSH1 0xA0 SHL SUB AND EQ PUSH2 0x1DE7 JUMPI PUSH1 0x40 MLOAD PUSH3 0x461BCD PUSH1 0xE5 SHL DUP2 MSTORE PUSH1 0x4 ADD PUSH2 0xB51 SWAP1 PUSH2 0x575B JUMP JUMPDEST PUSH2 0x1DF0 DUP3 PUSH2 0x4100 JUMP JUMPDEST PUSH2 0x1DFC DUP3 DUP3 PUSH1 0x1 PUSH2 0x4108 JUMP JUMPDEST POP POP JUMP JUMPDEST PUSH1 0x60 PUSH0 PUSH2 0x1E0D DUP5 DUP5 PUSH2 0x56E8 JUMP JUMPDEST PUSH2 0x1E18 SWAP1 PUSH1 0x1 PUSH2 0x56D5 JUMP JUMPDEST SWAP1 POP DUP1 PUSH1 0x1 PUSH1 0x1 PUSH1 0x40 SHL SUB DUP2 GT ISZERO PUSH2 0x1E32 JUMPI PUSH2 0x1E32 PUSH2 0x5368 JUMP JUMPDEST PUSH1 0x40 MLOAD SWAP1 DUP1 DUP3 MSTORE DUP1 PUSH1 0x20 MUL PUSH1 0x20 ADD DUP3 ADD PUSH1 0x40 MSTORE DUP1 ISZERO PUSH2 0x1E7B JUMPI DUP2 PUSH1 0x20 ADD JUMPDEST PUSH1 0x40 DUP1 MLOAD PUSH1 0x60 DUP2 ADD DUP3 MSTORE PUSH0 DUP1 DUP3 MSTORE PUSH1 0x20 DUP1 DUP4 ADD DUP3 SWAP1 MSTORE SWAP3 DUP3 ADD MSTORE DUP3 MSTORE PUSH0 NOT SWAP1 SWAP3 ADD SWAP2 ADD DUP2 PUSH2 0x1E50 JUMPI SWAP1 POP JUMPDEST POP SWAP2 POP PUSH0 JUMPDEST DUP2 DUP2 LT ISZERO PUSH2 0x1F1B JUMPI PUSH1 0xCA PUSH2 0x1E94 DUP3 DUP8 PUSH2 0x56D5 JUMP JUMPDEST DUP2 SLOAD DUP2 LT PUSH2 0x1EA4 JUMPI PUSH2 0x1EA4 PUSH2 0x56AD JUMP JUMPDEST PUSH0 SWAP2 DUP3 MSTORE PUSH1 0x20 SWAP2 DUP3 SWAP1 KECCAK256 PUSH1 0x40 DUP1 MLOAD PUSH1 0x60 DUP2 ADD DUP3 MSTORE PUSH1 0x3 SWAP1 SWAP4 MUL SWAP1 SWAP2 ADD DUP1 SLOAD PUSH1 0x1 PUSH1 0x1 PUSH1 0xA0 SHL SUB SWAP1 DUP2 AND DUP5 MSTORE PUSH1 0x1 DUP3 ADD SLOAD AND SWAP4 DUP4 ADD SWAP4 SWAP1 SWAP4 MSTORE PUSH1 0x2 SWAP1 SWAP3 ADD SLOAD SWAP2 DUP2 ADD SWAP2 SWAP1 SWAP2 MSTORE DUP4 MLOAD DUP5 SWAP1 DUP4 SWAP1 DUP2 LT PUSH2 0x1EFD JUMPI PUSH2 0x1EFD PUSH2 0x56AD JUMP JUMPDEST PUSH1 0x20 MUL PUSH1 0x20 ADD ADD DUP2 SWAP1 MSTORE POP DUP1 DUP1 PUSH2 0x1F13 SWAP1 PUSH2 0x589B JUMP JUMPDEST SWAP2 POP POP PUSH2 0x1E80 JUMP JUMPDEST POP POP SWAP3 SWAP2 POP POP JUMP JUMPDEST PUSH0 ADDRESS PUSH1 0x1 PUSH1 0x1 PUSH1 0xA0 SHL SUB PUSH32 0x0 AND EQ PUSH2 0x1FBD JUMPI PUSH1 0x40 MLOAD PUSH3 0x461BCD PUSH1 0xE5 SHL DUP2 MSTORE PUSH1 0x20 PUSH1 0x4 DUP3 ADD MSTORE PUSH1 0x38 PUSH1 0x24 DUP3 ADD MSTORE PUSH32 0x555550535570677261646561626C653A206D757374206E6F742062652063616C PUSH1 0x44 DUP3 ADD MSTORE PUSH24 0x1B1959081D1A1C9BDD59DA0819195B1959D85D1958D85B1B PUSH1 0x42 SHL PUSH1 0x64 DUP3 ADD MSTORE PUSH1 0x84 ADD PUSH2 0xB51 JUMP JUMPDEST POP PUSH0 DUP1 MLOAD PUSH1 0x20 PUSH2 0x5BB9 DUP4 CODECOPY DUP2 MLOAD SWAP2 MSTORE SWAP1 JUMP JUMPDEST PUSH1 0xC9 SLOAD PUSH1 0x1 PUSH1 0x1 PUSH1 0xA0 SHL SUB AND CALLER EQ PUSH2 0x1FFA JUMPI PUSH1 0x40 MLOAD PUSH4 0x37816CF PUSH1 0xE0 SHL DUP2 MSTORE PUSH1 0x4 ADD PUSH1 0x40 MLOAD DUP1 SWAP2 SUB SWAP1 REVERT JUMPDEST PUSH1 0x1 PUSH1 0x1 PUSH1 0xA0 SHL SUB DUP3 DUP2 AND PUSH0 SWAP1 DUP2 MSTORE PUSH1 0xCF PUSH1 0x20 MSTORE PUSH1 0x40 SWAP1 KECCAK256 SLOAD AND PUSH2 0x2031 JUMPI PUSH1 0x40 MLOAD PUSH4 0x936E3073 PUSH1 0xE0 SHL DUP2 MSTORE PUSH1 0x4 ADD PUSH1 0x40 MLOAD DUP1 SWAP2 SUB SWAP1 REVERT JUMPDEST PUSH1 0x1 PUSH1 0x1 PUSH1 0xA0 SHL SUB DUP3 DUP2 AND PUSH0 DUP2 DUP2 MSTORE PUSH1 0xD0 PUSH1 0x20 SWAP1 DUP2 MSTORE PUSH1 0x40 DUP1 DUP4 KECCAK256 PUSH1 0xCB DUP1 SLOAD DUP3 SLOAD PUSH1 0x1 DUP1 DUP3 ADD DUP6 SSTORE SWAP4 DUP8 MSTORE DUP6 DUP8 KECCAK256 ADD SSTORE DUP3 MLOAD PUSH1 0x80 DUP2 ADD DUP5 MSTORE SWAP6 DUP7 MSTORE DUP6 DUP5 ADD DUP9 DUP2 MSTORE TIMESTAMP DUP8 DUP6 ADD DUP2 DUP2 MSTORE PUSH1 0x60 DUP10 ADD SWAP2 DUP3 MSTORE DUP4 SLOAD DUP1 DUP7 ADD DUP6 SSTORE SWAP4 DUP9 MSTORE SWAP8 MLOAD PUSH0 DUP1 MLOAD PUSH1 0x20 PUSH2 0x5B59 DUP4 CODECOPY DUP2 MLOAD SWAP2 MSTORE PUSH1 0x4 SWAP1 SWAP5 MUL SWAP4 DUP5 ADD DUP1 SLOAD PUSH1 0x1 PUSH1 0x1 PUSH1 0xA0 SHL SUB NOT AND SWAP2 SWAP1 SWAP11 AND OR SWAP1 SWAP9 SSTORE MLOAD PUSH0 DUP1 MLOAD PUSH1 0x20 PUSH2 0x5B39 DUP4 CODECOPY DUP2 MLOAD SWAP2 MSTORE DUP3 ADD SSTORE SWAP5 MLOAD PUSH0 DUP1 MLOAD PUSH1 0x20 PUSH2 0x5B79 DUP4 CODECOPY DUP2 MLOAD SWAP2 MSTORE DUP7 ADD SSTORE SWAP5 MLOAD PUSH0 DUP1 MLOAD PUSH1 0x20 PUSH2 0x5C00 DUP4 CODECOPY DUP2 MLOAD SWAP2 MSTORE SWAP1 SWAP5 ADD SWAP4 SWAP1 SWAP4 SSTORE CALLER DUP3 MSTORE PUSH1 0xD1 SWAP1 MSTORE KECCAK256 DUP1 SLOAD PUSH1 0xFF NOT AND SWAP1 SWAP2 OR SWAP1 SSTORE PUSH2 0x210D PUSH2 0x44D3 JUMP JUMPDEST PUSH2 0x1DFC PUSH2 0x46A1 JUMP JUMPDEST PUSH2 0x211D PUSH2 0x523F JUMP JUMPDEST PUSH1 0xCE DUP3 DUP2 SLOAD DUP2 LT PUSH2 0x2130 JUMPI PUSH2 0x2130 PUSH2 0x56AD JUMP JUMPDEST PUSH0 SWAP2 DUP3 MSTORE PUSH1 0x20 SWAP2 DUP3 SWAP1 KECCAK256 PUSH1 0x40 DUP1 MLOAD PUSH1 0x80 DUP2 ADD DUP3 MSTORE PUSH1 0x4 SWAP1 SWAP4 MUL SWAP1 SWAP2 ADD DUP1 SLOAD PUSH1 0x1 PUSH1 0x1 PUSH1 0xA0 SHL SUB AND DUP4 MSTORE PUSH1 0x1 DUP2 ADD SLOAD SWAP4 DUP4 ADD SWAP4 SWAP1 SWAP4 MSTORE PUSH1 0x2 DUP4 ADD SLOAD SWAP1 DUP3 ADD MSTORE PUSH1 0x3 SWAP1 SWAP2 ADD SLOAD PUSH1 0x60 DUP3 ADD MSTORE SWAP3 SWAP2 POP POP JUMP JUMPDEST PUSH2 0x2187 PUSH2 0x4086 JUMP JUMPDEST PUSH2 0x2190 PUSH0 PUSH2 0x49A6 JUMP JUMPDEST JUMP JUMPDEST PUSH1 0xC9 SLOAD PUSH1 0x40 DUP1 MLOAD PUSH4 0x6346267 PUSH1 0xE5 SHL DUP2 MSTORE SWAP1 MLOAD PUSH0 SWAP3 PUSH1 0x1 PUSH1 0x1 PUSH1 0xA0 SHL SUB AND SWAP2 PUSH4 0xC68C4CE0 SWAP2 PUSH1 0x4 DUP1 DUP4 ADD SWAP3 PUSH1 0x20 SWAP3 SWAP2 SWAP1 DUP3 SWAP1 SUB ADD DUP2 DUP7 GAS STATICCALL ISZERO DUP1 ISZERO PUSH2 0x21D9 JUMPI RETURNDATASIZE PUSH0 DUP1 RETURNDATACOPY RETURNDATASIZE PUSH0 REVERT JUMPDEST POP POP POP POP PUSH1 0x40 MLOAD RETURNDATASIZE PUSH1 0x1F NOT PUSH1 0x1F DUP3 ADD AND DUP3 ADD DUP1 PUSH1 0x40 MSTORE POP DUP2 ADD SWAP1 PUSH2 0x21FD SWAP2 SWAP1 PUSH2 0x57B3 JUMP JUMPDEST SWAP1 POP SWAP1 JUMP JUMPDEST PUSH0 PUSH2 0x21FD PUSH2 0x42B9 JUMP JUMPDEST PUSH1 0x33 SLOAD PUSH1 0x1 PUSH1 0x1 PUSH1 0xA0 SHL SUB AND SWAP1 JUMP JUMPDEST PUSH2 0x2222 PUSH2 0x2192 JUMP JUMPDEST PUSH1 0x1 PUSH1 0x1 PUSH1 0xA0 SHL SUB AND PUSH4 0x23B872DD CALLER PUSH1 0x1 DUP5 PUSH1 0x40 MLOAD DUP5 PUSH4 0xFFFFFFFF AND PUSH1 0xE0 SHL DUP2 MSTORE PUSH1 0x4 ADD PUSH2 0x2252 SWAP4 SWAP3 SWAP2 SWAP1 PUSH2 0x5324 JUMP JUMPDEST PUSH1 0x20 PUSH1 0x40 MLOAD DUP1 DUP4 SUB DUP2 PUSH0 DUP8 GAS CALL ISZERO DUP1 ISZERO PUSH2 0x226E JUMPI RETURNDATASIZE PUSH0 DUP1 RETURNDATACOPY RETURNDATASIZE PUSH0 REVERT JUMPDEST POP POP POP POP PUSH1 0x40 MLOAD RETURNDATASIZE PUSH1 0x1F NOT PUSH1 0x1F DUP3 ADD AND DUP3 ADD DUP1 PUSH1 0x40 MSTORE POP DUP2 ADD SWAP1 PUSH2 0x2292 SWAP2 SWAP1 PUSH2 0x5794 JUMP JUMPDEST POP PUSH0 DUP1 PUSH2 0x229D PUSH2 0x4445 JUMP JUMPDEST PUSH1 0x1 PUSH1 0x1 PUSH1 0xA0 SHL SUB AND PUSH4 0x902F1AC PUSH1 0x40 MLOAD DUP2 PUSH4 0xFFFFFFFF AND PUSH1 0xE0 SHL DUP2 MSTORE PUSH1 0x4 ADD PUSH1 0x60 PUSH1 0x40 MLOAD DUP1 DUP4 SUB DUP2 DUP7 GAS STATICCALL ISZERO DUP1 ISZERO PUSH2 0x22D8 JUMPI RETURNDATASIZE PUSH0 DUP1 RETURNDATACOPY RETURNDATASIZE PUSH0 REVERT JUMPDEST POP POP POP POP PUSH1 0x40 MLOAD RETURNDATASIZE PUSH1 0x1F NOT PUSH1 0x1F DUP3 ADD AND DUP3 ADD DUP1 PUSH1 0x40 MSTORE POP DUP2 ADD SWAP1 PUSH2 0x22FC SWAP2 SWAP1 PUSH2 0x5830 JUMP JUMPDEST POP SWAP2 POP SWAP2 POP PUSH0 DUP1 PUSH2 0x230B PUSH2 0x4272 JUMP JUMPDEST PUSH1 0x1 PUSH1 0x1 PUSH1 0xA0 SHL SUB AND PUSH2 0x231C PUSH2 0x4445 JUMP JUMPDEST PUSH1 0x1 PUSH1 0x1 PUSH1 0xA0 SHL SUB AND PUSH4 0xDFE1681 PUSH1 0x40 MLOAD DUP2 PUSH4 0xFFFFFFFF AND PUSH1 0xE0 SHL DUP2 MSTORE PUSH1 0x4 ADD PUSH1 0x20 PUSH1 0x40 MLOAD DUP1 DUP4 SUB DUP2 DUP7 GAS STATICCALL ISZERO DUP1 ISZERO PUSH2 0x2357 JUMPI RETURNDATASIZE PUSH0 DUP1 RETURNDATACOPY RETURNDATASIZE PUSH0 REVERT JUMPDEST POP POP POP POP PUSH1 0x40 MLOAD RETURNDATASIZE PUSH1 0x1F NOT PUSH1 0x1F DUP3 ADD AND DUP3 ADD DUP1 PUSH1 0x40 MSTORE POP DUP2 ADD SWAP1 PUSH2 0x237B SWAP2 SWAP1 PUSH2 0x57B3 JUMP JUMPDEST PUSH1 0x1 PUSH1 0x1 PUSH1 0xA0 SHL SUB AND EQ PUSH2 0x2390 JUMPI DUP3 DUP5 PUSH2 0x2393 JUMP JUMPDEST DUP4 DUP4 JUMPDEST SWAP2 POP SWAP2 POP PUSH0 PUSH2 0x23A0 PUSH2 0x4445 JUMP JUMPDEST PUSH1 0x1 PUSH1 0x1 PUSH1 0xA0 SHL SUB AND PUSH4 0x54D50D4 DUP8 DUP5 DUP7 PUSH1 0x40 MLOAD DUP5 PUSH4 0xFFFFFFFF AND PUSH1 0xE0 SHL DUP2 MSTORE PUSH1 0x4 ADD PUSH2 0x23CF SWAP4 SWAP3 SWAP2 SWAP1 PUSH2 0x587C JUMP JUMPDEST PUSH1 0x20 PUSH1 0x40 MLOAD DUP1 DUP4 SUB DUP2 DUP7 GAS STATICCALL ISZERO DUP1 ISZERO PUSH2 0x23EA JUMPI RETURNDATASIZE PUSH0 DUP1 RETURNDATACOPY RETURNDATASIZE PUSH0 REVERT JUMPDEST POP POP POP POP PUSH1 0x40 MLOAD RETURNDATASIZE PUSH1 0x1F NOT PUSH1 0x1F DUP3 ADD AND DUP3 ADD DUP1 PUSH1 0x40 MSTORE POP DUP2 ADD SWAP1 PUSH2 0x240E SWAP2 SWAP1 PUSH2 0x57CE JUMP JUMPDEST SWAP1 POP PUSH0 DUP4 PUSH1 0x1 PUSH1 0x1 PUSH1 0x70 SHL SUB AND DUP3 DUP5 PUSH1 0x1 PUSH1 0x1 PUSH1 0x70 SHL SUB AND PUSH2 0x2430 SWAP2 SWAP1 PUSH2 0x57E5 JUMP JUMPDEST PUSH2 0x243A SWAP2 SWAP1 PUSH2 0x570F JUMP JUMPDEST SWAP1 POP PUSH0 DUP1 PUSH2 0x2446 PUSH2 0x4272 JUMP JUMPDEST PUSH1 0x1 PUSH1 0x1 PUSH1 0xA0 SHL SUB AND PUSH2 0x2457 PUSH2 0x4445 JUMP JUMPDEST PUSH1 0x1 PUSH1 0x1 PUSH1 0xA0 SHL SUB AND PUSH4 0xDFE1681 PUSH1 0x40 MLOAD DUP2 PUSH4 0xFFFFFFFF AND PUSH1 0xE0 SHL DUP2 MSTORE PUSH1 0x4 ADD PUSH1 0x20 PUSH1 0x40 MLOAD DUP1 DUP4 SUB DUP2 DUP7 GAS STATICCALL ISZERO DUP1 ISZERO PUSH2 0x2492 JUMPI RETURNDATASIZE PUSH0 DUP1 RETURNDATACOPY RETURNDATASIZE PUSH0 REVERT JUMPDEST POP POP POP POP PUSH1 0x40 MLOAD RETURNDATASIZE PUSH1 0x1F NOT PUSH1 0x1F DUP3 ADD AND DUP3 ADD DUP1 PUSH1 0x40 MSTORE POP DUP2 ADD SWAP1 PUSH2 0x24B6 SWAP2 SWAP1 PUSH2 0x57B3 JUMP JUMPDEST PUSH1 0x1 PUSH1 0x1 PUSH1 0xA0 SHL SUB AND EQ PUSH2 0x24CB JUMPI DUP3 DUP5 PUSH2 0x24CE JUMP JUMPDEST DUP4 DUP4 JUMPDEST SWAP2 POP SWAP2 POP PUSH2 0x24DA PUSH2 0x4445 JUMP JUMPDEST PUSH1 0x40 MLOAD PUSH4 0xE840427D PUSH1 0xE0 SHL DUP2 MSTORE PUSH1 0x4 DUP2 ADD DUP5 SWAP1 MSTORE PUSH1 0x24 DUP2 ADD DUP4 SWAP1 MSTORE ADDRESS PUSH1 0x44 DUP3 ADD MSTORE PUSH1 0x1 PUSH1 0x1 PUSH1 0xA0 SHL SUB SWAP2 SWAP1 SWAP2 AND SWAP1 PUSH4 0xE840427D SWAP1 PUSH1 0x64 ADD PUSH0 PUSH1 0x40 MLOAD DUP1 DUP4 SUB DUP2 PUSH0 DUP8 DUP1 EXTCODESIZE ISZERO DUP1 ISZERO PUSH2 0x2528 JUMPI PUSH0 DUP1 REVERT JUMPDEST POP GAS CALL ISZERO DUP1 ISZERO PUSH2 0x253A JUMPI RETURNDATASIZE PUSH0 DUP1 RETURNDATACOPY RETURNDATASIZE PUSH0 REVERT JUMPDEST POP POP POP POP PUSH2 0x2546 PUSH2 0x4272 JUMP JUMPDEST PUSH1 0x1 PUSH1 0x1 PUSH1 0xA0 SHL SUB AND PUSH4 0xA9059CBB CALLER DUP7 PUSH1 0x40 MLOAD DUP4 PUSH4 0xFFFFFFFF AND PUSH1 0xE0 SHL DUP2 MSTORE PUSH1 0x4 ADD PUSH2 0x2573 SWAP3 SWAP2 SWAP1 PUSH2 0x57FC JUMP JUMPDEST PUSH1 0x20 PUSH1 0x40 MLOAD DUP1 DUP4 SUB DUP2 PUSH0 DUP8 GAS CALL ISZERO DUP1 ISZERO PUSH2 0x258F JUMPI RETURNDATASIZE PUSH0 DUP1 RETURNDATACOPY RETURNDATASIZE PUSH0 REVERT JUMPDEST POP POP POP POP PUSH1 0x40 MLOAD RETURNDATASIZE PUSH1 0x1F NOT PUSH1 0x1F DUP3 ADD AND DUP3 ADD DUP1 PUSH1 0x40 MSTORE POP DUP2 ADD SWAP1 PUSH2 0x25B3 SWAP2 SWAP1 PUSH2 0x5794 JUMP JUMPDEST POP PUSH2 0x25BC PUSH2 0x2192 JUMP JUMPDEST PUSH1 0x1 PUSH1 0x1 PUSH1 0xA0 SHL SUB AND PUSH4 0xA9059CBB PUSH2 0x25D2 PUSH2 0x448C JUMP JUMPDEST DUP6 PUSH1 0x40 MLOAD DUP4 PUSH4 0xFFFFFFFF AND PUSH1 0xE0 SHL DUP2 MSTORE PUSH1 0x4 ADD PUSH2 0x25F0 SWAP3 SWAP2 SWAP1 PUSH2 0x57FC JUMP JUMPDEST PUSH1 0x20 PUSH1 0x40 MLOAD DUP1 DUP4 SUB DUP2 PUSH0 DUP8 GAS CALL ISZERO DUP1 ISZERO PUSH2 0x260C JUMPI RETURNDATASIZE PUSH0 DUP1 RETURNDATACOPY RETURNDATASIZE PUSH0 REVERT JUMPDEST POP POP POP POP PUSH1 0x40 MLOAD RETURNDATASIZE PUSH1 0x1F NOT PUSH1 0x1F DUP3 ADD AND DUP3 ADD DUP1 PUSH1 0x40 MSTORE POP DUP2 ADD SWAP1 PUSH2 0x2630 SWAP2 SWAP1 PUSH2 0x5794 JUMP JUMPDEST POP PUSH2 0x2639 PUSH2 0x264C JUMP JUMPDEST PUSH2 0x2641 PUSH2 0x360E JUMP JUMPDEST POP POP POP POP POP POP POP POP POP JUMP JUMPDEST PUSH0 PUSH2 0x2655 PUSH2 0x2192 JUMP JUMPDEST PUSH1 0x1 PUSH1 0x1 PUSH1 0xA0 SHL SUB AND PUSH4 0x70A08231 PUSH2 0x266B PUSH2 0x448C JUMP JUMPDEST PUSH1 0x40 MLOAD DUP3 PUSH4 0xFFFFFFFF AND PUSH1 0xE0 SHL DUP2 MSTORE PUSH1 0x4 ADD PUSH2 0x2687 SWAP2 SWAP1 PUSH2 0x5520 JUMP JUMPDEST PUSH1 0x20 PUSH1 0x40 MLOAD DUP1 DUP4 SUB DUP2 DUP7 GAS STATICCALL ISZERO DUP1 ISZERO PUSH2 0x26A2 JUMPI RETURNDATASIZE PUSH0 DUP1 RETURNDATACOPY RETURNDATASIZE PUSH0 REVERT JUMPDEST POP POP POP POP PUSH1 0x40 MLOAD RETURNDATASIZE PUSH1 0x1F NOT PUSH1 0x1F DUP3 ADD AND DUP3 ADD DUP1 PUSH1 0x40 MSTORE POP DUP2 ADD SWAP1 PUSH2 0x26C6 SWAP2 SWAP1 PUSH2 0x57CE JUMP JUMPDEST SWAP1 POP PUSH0 PUSH2 0x26D1 PUSH2 0x2192 JUMP JUMPDEST PUSH1 0x1 PUSH1 0x1 PUSH1 0xA0 SHL SUB AND PUSH4 0x70A08231 PUSH2 0x26E7 PUSH2 0x4445 JUMP JUMPDEST PUSH1 0x40 MLOAD DUP3 PUSH4 0xFFFFFFFF AND PUSH1 0xE0 SHL DUP2 MSTORE PUSH1 0x4 ADD PUSH2 0x2703 SWAP2 SWAP1 PUSH2 0x5520 JUMP JUMPDEST PUSH1 0x20 PUSH1 0x40 MLOAD DUP1 DUP4 SUB DUP2 DUP7 GAS STATICCALL ISZERO DUP1 ISZERO PUSH2 0x271E JUMPI RETURNDATASIZE PUSH0 DUP1 RETURNDATACOPY RETURNDATASIZE PUSH0 REVERT JUMPDEST POP POP POP POP PUSH1 0x40 MLOAD RETURNDATASIZE PUSH1 0x1F NOT PUSH1 0x1F DUP3 ADD AND DUP3 ADD DUP1 PUSH1 0x40 MSTORE POP DUP2 ADD SWAP1 PUSH2 0x2742 SWAP2 SWAP1 PUSH2 0x57CE JUMP JUMPDEST SWAP1 POP PUSH2 0x3E8 PUSH2 0x2752 DUP4 PUSH1 0x32 PUSH2 0x57E5 JUMP JUMPDEST PUSH2 0x275C SWAP2 SWAP1 PUSH2 0x570F JUMP JUMPDEST PUSH2 0x2766 SWAP1 DUP4 PUSH2 0x56D5 JUMP JUMPDEST DUP2 GT PUSH2 0x2770 JUMPI POP POP JUMP JUMPDEST PUSH0 DUP1 PUSH2 0x277A PUSH2 0x4445 JUMP JUMPDEST PUSH1 0x1 PUSH1 0x1 PUSH1 0xA0 SHL SUB AND PUSH4 0x902F1AC PUSH1 0x40 MLOAD DUP2 PUSH4 0xFFFFFFFF AND PUSH1 0xE0 SHL DUP2 MSTORE PUSH1 0x4 ADD PUSH1 0x60 PUSH1 0x40 MLOAD DUP1 DUP4 SUB DUP2 DUP7 GAS STATICCALL ISZERO DUP1 ISZERO PUSH2 0x27B5 JUMPI RETURNDATASIZE PUSH0 DUP1 RETURNDATACOPY RETURNDATASIZE PUSH0 REVERT JUMPDEST POP POP POP POP PUSH1 0x40 MLOAD RETURNDATASIZE PUSH1 0x1F NOT PUSH1 0x1F DUP3 ADD AND DUP3 ADD DUP1 PUSH1 0x40 MSTORE POP DUP2 ADD SWAP1 PUSH2 0x27D9 SWAP2 SWAP1 PUSH2 0x5830 JUMP JUMPDEST POP SWAP2 POP SWAP2 POP PUSH2 0x27E6 PUSH2 0x4445 JUMP JUMPDEST PUSH1 0x1 PUSH1 0x1 PUSH1 0xA0 SHL SUB AND PUSH4 0xE840427D PUSH2 0x3E8 PUSH2 0x2802 DUP6 PUSH1 0xA PUSH2 0x58B3 JUMP JUMPDEST PUSH2 0x280C SWAP2 SWAP1 PUSH2 0x58D6 JUMP JUMPDEST PUSH2 0x3E8 PUSH2 0x281A DUP6 PUSH1 0xA PUSH2 0x58B3 JUMP JUMPDEST PUSH2 0x2824 SWAP2 SWAP1 PUSH2 0x58D6 JUMP JUMPDEST ADDRESS PUSH1 0x40 MLOAD DUP5 PUSH4 0xFFFFFFFF AND PUSH1 0xE0 SHL DUP2 MSTORE PUSH1 0x4 ADD PUSH2 0x2843 SWAP4 SWAP3 SWAP2 SWAP1 PUSH2 0x58FB JUMP JUMPDEST PUSH0 PUSH1 0x40 MLOAD DUP1 DUP4 SUB DUP2 PUSH0 DUP8 DUP1 EXTCODESIZE ISZERO DUP1 ISZERO PUSH2 0x285A JUMPI PUSH0 DUP1 REVERT JUMPDEST POP GAS CALL ISZERO DUP1 ISZERO PUSH2 0x286C JUMPI RETURNDATASIZE PUSH0 DUP1 RETURNDATACOPY RETURNDATASIZE PUSH0 REVERT JUMPDEST POP POP POP POP PUSH0 DUP1 PUSH2 0x287A PUSH2 0x4272 JUMP JUMPDEST PUSH1 0x1 PUSH1 0x1 PUSH1 0xA0 SHL SUB AND PUSH2 0x288B PUSH2 0x4445 JUMP JUMPDEST PUSH1 0x1 PUSH1 0x1 PUSH1 0xA0 SHL SUB AND PUSH4 0xDFE1681 PUSH1 0x40 MLOAD DUP2 PUSH4 0xFFFFFFFF AND PUSH1 0xE0 SHL DUP2 MSTORE PUSH1 0x4 ADD PUSH1 0x20 PUSH1 0x40 MLOAD DUP1 DUP4 SUB DUP2 DUP7 GAS STATICCALL ISZERO DUP1 ISZERO PUSH2 0x28C6 JUMPI RETURNDATASIZE PUSH0 DUP1 RETURNDATACOPY RETURNDATASIZE PUSH0 REVERT JUMPDEST POP POP POP POP PUSH1 0x40 MLOAD RETURNDATASIZE PUSH1 0x1F NOT PUSH1 0x1F DUP3 ADD AND DUP3 ADD DUP1 PUSH1 0x40 MSTORE POP DUP2 ADD SWAP1 PUSH2 0x28EA SWAP2 SWAP1 PUSH2 0x57B3 JUMP JUMPDEST PUSH1 0x1 PUSH1 0x1 PUSH1 0xA0 SHL SUB AND EQ PUSH2 0x28FF JUMPI DUP3 DUP5 PUSH2 0x2902 JUMP JUMPDEST DUP4 DUP4 JUMPDEST SWAP2 POP SWAP2 POP PUSH2 0x290E PUSH2 0x2192 JUMP JUMPDEST PUSH1 0x1 PUSH1 0x1 PUSH1 0xA0 SHL SUB AND PUSH4 0xA9059CBB PUSH2 0x2924 PUSH2 0x448C JUMP JUMPDEST PUSH2 0x3E8 PUSH2 0x2932 DUP6 PUSH1 0xA PUSH2 0x58B3 JUMP JUMPDEST PUSH2 0x293C SWAP2 SWAP1 PUSH2 0x58D6 JUMP JUMPDEST PUSH1 0x40 MLOAD DUP4 PUSH4 0xFFFFFFFF AND PUSH1 0xE0 SHL DUP2 MSTORE PUSH1 0x4 ADD PUSH2 0x2959 SWAP3 SWAP2 SWAP1 PUSH2 0x5927 JUMP JUMPDEST PUSH1 0x20 PUSH1 0x40 MLOAD DUP1 DUP4 SUB DUP2 PUSH0 DUP8 GAS CALL ISZERO DUP1 ISZERO PUSH2 0x2975 JUMPI RETURNDATASIZE PUSH0 DUP1 RETURNDATACOPY RETURNDATASIZE PUSH0 REVERT JUMPDEST POP POP POP POP PUSH1 0x40 MLOAD RETURNDATASIZE PUSH1 0x1F NOT PUSH1 0x1F DUP3 ADD AND DUP3 ADD DUP1 PUSH1 0x40 MSTORE POP DUP2 ADD SWAP1 PUSH2 0x2999 SWAP2 SWAP1 PUSH2 0x5794 JUMP JUMPDEST POP PUSH2 0x29A2 PUSH2 0x4272 JUMP JUMPDEST PUSH1 0x1 PUSH1 0x1 PUSH1 0xA0 SHL SUB AND PUSH4 0x95EA7B3 PUSH2 0x29B8 PUSH2 0x4445 JUMP JUMPDEST PUSH2 0x3E8 PUSH2 0x29C6 DUP7 PUSH1 0xA PUSH2 0x58B3 JUMP JUMPDEST PUSH2 0x29D0 SWAP2 SWAP1 PUSH2 0x58D6 JUMP JUMPDEST PUSH1 0x40 MLOAD DUP4 PUSH4 0xFFFFFFFF AND PUSH1 0xE0 SHL DUP2 MSTORE PUSH1 0x4 ADD PUSH2 0x29ED SWAP3 SWAP2 SWAP1 PUSH2 0x5927 JUMP JUMPDEST PUSH1 0x20 PUSH1 0x40 MLOAD DUP1 DUP4 SUB DUP2 PUSH0 DUP8 GAS CALL ISZERO DUP1 ISZERO PUSH2 0x2A09 JUMPI RETURNDATASIZE PUSH0 DUP1 RETURNDATACOPY RETURNDATASIZE PUSH0 REVERT JUMPDEST POP POP POP POP PUSH1 0x40 MLOAD RETURNDATASIZE PUSH1 0x1F NOT PUSH1 0x1F DUP3 ADD AND DUP3 ADD DUP1 PUSH1 0x40 MSTORE POP DUP2 ADD SWAP1 PUSH2 0x2A2D SWAP2 SWAP1 PUSH2 0x5794 JUMP JUMPDEST POP PUSH2 0x2A36 PUSH2 0x4445 JUMP JUMPDEST PUSH1 0x1 PUSH1 0x1 PUSH1 0xA0 SHL SUB AND PUSH4 0xA1E15411 PUSH2 0x2A4C PUSH2 0x4272 JUMP JUMPDEST PUSH2 0x2A54 PUSH2 0x448C JUMP JUMPDEST PUSH2 0x3E8 PUSH2 0x2A62 DUP8 PUSH1 0xA PUSH2 0x58B3 JUMP JUMPDEST PUSH2 0x2A6C SWAP2 SWAP1 PUSH2 0x58D6 JUMP JUMPDEST PUSH1 0x40 MLOAD DUP5 PUSH4 0xFFFFFFFF AND PUSH1 0xE0 SHL DUP2 MSTORE PUSH1 0x4 ADD PUSH2 0x2A8A SWAP4 SWAP3 SWAP2 SWAP1 PUSH2 0x5949 JUMP JUMPDEST PUSH1 0x20 PUSH1 0x40 MLOAD DUP1 DUP4 SUB DUP2 PUSH0 DUP8 GAS CALL ISZERO DUP1 ISZERO PUSH2 0x2AA6 JUMPI RETURNDATASIZE PUSH0 DUP1 RETURNDATACOPY RETURNDATASIZE PUSH0 REVERT JUMPDEST POP POP POP POP PUSH1 0x40 MLOAD RETURNDATASIZE PUSH1 0x1F NOT PUSH1 0x1F DUP3 ADD AND DUP3 ADD DUP1 PUSH1 0x40 MSTORE POP DUP2 ADD SWAP1 PUSH2 0x2ACA SWAP2 SWAP1 PUSH2 0x57CE JUMP JUMPDEST POP POP POP POP POP POP POP JUMP JUMPDEST PUSH2 0x2ADB PUSH2 0x523F JUMP JUMPDEST PUSH1 0xCD DUP3 DUP2 SLOAD DUP2 LT PUSH2 0x2130 JUMPI PUSH2 0x2130 PUSH2 0x56AD JUMP JUMPDEST PUSH1 0xD0 PUSH1 0x20 MSTORE DUP2 PUSH0 MSTORE PUSH1 0x40 PUSH0 KECCAK256 DUP2 DUP2 SLOAD DUP2 LT PUSH2 0x2B07 JUMPI PUSH0 DUP1 REVERT JUMPDEST SWAP1 PUSH0 MSTORE PUSH1 0x20 PUSH0 KECCAK256 ADD PUSH0 SWAP2 POP SWAP2 POP POP SLOAD DUP2 JUMP JUMPDEST PUSH0 SLOAD PUSH2 0x100 SWAP1 DIV PUSH1 0xFF AND ISZERO DUP1 DUP1 ISZERO PUSH2 0x2B37 JUMPI POP PUSH0 SLOAD PUSH1 0x1 PUSH1 0xFF SWAP1 SWAP2 AND LT JUMPDEST DUP1 PUSH2 0x2B57 JUMPI POP PUSH2 0x2B46 ADDRESS PUSH2 0x49F7 JUMP JUMPDEST ISZERO DUP1 ISZERO PUSH2 0x2B57 JUMPI POP PUSH0 SLOAD PUSH1 0xFF AND PUSH1 0x1 EQ JUMPDEST PUSH2 0x2BBA JUMPI PUSH1 0x40 MLOAD PUSH3 0x461BCD PUSH1 0xE5 SHL DUP2 MSTORE PUSH1 0x20 PUSH1 0x4 DUP3 ADD MSTORE PUSH1 0x2E PUSH1 0x24 DUP3 ADD MSTORE PUSH32 0x496E697469616C697A61626C653A20636F6E747261637420697320616C726561 PUSH1 0x44 DUP3 ADD MSTORE PUSH14 0x191E481A5B9A5D1A585B1A5E9959 PUSH1 0x92 SHL PUSH1 0x64 DUP3 ADD MSTORE PUSH1 0x84 ADD PUSH2 0xB51 JUMP JUMPDEST PUSH0 DUP1 SLOAD PUSH1 0xFF NOT AND PUSH1 0x1 OR SWAP1 SSTORE DUP1 ISZERO PUSH2 0x2BDB JUMPI PUSH0 DUP1 SLOAD PUSH2 0xFF00 NOT AND PUSH2 0x100 OR SWAP1 SSTORE JUMPDEST PUSH2 0x2BE3 PUSH2 0x4A06 JUMP JUMPDEST PUSH1 0xC9 DUP1 SLOAD PUSH1 0x1 PUSH1 0x1 PUSH1 0xA0 SHL SUB NOT AND PUSH1 0x1 PUSH1 0x1 PUSH1 0xA0 SHL SUB DUP5 AND SWAP1 DUP2 OR SWAP1 SWAP2 SSTORE PUSH1 0x40 DUP1 MLOAD PUSH1 0x60 DUP2 ADD DUP1 DUP4 MSTORE PUSH4 0x7F36E6DD PUSH1 0xE1 SHL SWAP1 MSTORE SWAP1 MLOAD PUSH1 0xCA SWAP3 DUP3 SWAP2 PUSH4 0xFE6DCDBA SWAP1 PUSH1 0x64 DUP1 DUP6 ADD SWAP2 PUSH1 0x20 SWAP2 DUP2 DUP8 SUB ADD DUP2 DUP7 GAS STATICCALL ISZERO DUP1 ISZERO PUSH2 0x2C43 JUMPI RETURNDATASIZE PUSH0 DUP1 RETURNDATACOPY RETURNDATASIZE PUSH0 REVERT JUMPDEST POP POP POP POP PUSH1 0x40 MLOAD RETURNDATASIZE PUSH1 0x1F NOT PUSH1 0x1F DUP3 ADD AND DUP3 ADD DUP1 PUSH1 0x40 MSTORE POP DUP2 ADD SWAP1 PUSH2 0x2C67 SWAP2 SWAP1 PUSH2 0x57B3 JUMP JUMPDEST PUSH1 0x1 PUSH1 0x1 PUSH1 0xA0 SHL SUB SWAP1 DUP2 AND DUP3 MSTORE PUSH0 PUSH1 0x20 DUP1 DUP5 ADD DUP3 SWAP1 MSTORE TIMESTAMP PUSH1 0x40 SWAP5 DUP6 ADD MSTORE DUP6 SLOAD PUSH1 0x1 DUP2 DUP2 ADD DUP9 SSTORE SWAP7 DUP4 MSTORE SWAP2 DUP2 SWAP1 KECCAK256 DUP6 MLOAD PUSH1 0x3 SWAP1 SWAP4 MUL ADD DUP1 SLOAD SWAP3 DUP5 AND PUSH1 0x1 PUSH1 0x1 PUSH1 0xA0 SHL SUB NOT SWAP4 DUP5 AND OR DUP2 SSTORE SWAP1 DUP6 ADD MLOAD SWAP6 DUP2 ADD DUP1 SLOAD SWAP7 SWAP1 SWAP4 AND SWAP6 SWAP1 SWAP2 AND SWAP5 SWAP1 SWAP5 OR SWAP1 SSTORE ADD MLOAD PUSH1 0x2 SWAP1 SWAP2 ADD SSTORE DUP1 ISZERO PUSH2 0x1DFC JUMPI PUSH0 DUP1 SLOAD PUSH2 0xFF00 NOT AND SWAP1 SSTORE PUSH1 0x40 MLOAD PUSH1 0x1 DUP2 MSTORE PUSH32 0x7F26B83FF96E1F2B6A682F133852F6798A09C465DA95921460CEFB3847402498 SWAP1 PUSH1 0x20 ADD PUSH1 0x40 MLOAD DUP1 SWAP2 SUB SWAP1 LOG1 POP POP JUMP JUMPDEST PUSH2 0x2D46 PUSH1 0x40 MLOAD DUP1 PUSH1 0xA0 ADD PUSH1 0x40 MSTORE DUP1 PUSH0 DUP2 MSTORE PUSH1 0x20 ADD PUSH0 DUP2 MSTORE PUSH1 0x20 ADD PUSH0 DUP2 MSTORE PUSH1 0x20 ADD PUSH0 DUP2 MSTORE PUSH1 0x20 ADD PUSH0 ISZERO ISZERO DUP2 MSTORE POP SWAP1 JUMP JUMPDEST PUSH1 0x1 PUSH1 0x1 PUSH1 0xA0 SHL SUB DUP3 AND PUSH0 SWAP1 DUP2 MSTORE PUSH1 0xD0 PUSH1 0x20 SWAP1 DUP2 MSTORE PUSH1 0x40 DUP1 DUP4 KECCAK256 DUP1 SLOAD DUP3 MLOAD DUP2 DUP6 MUL DUP2 ADD DUP6 ADD SWAP1 SWAP4 MSTORE DUP1 DUP4 MSTORE SWAP2 SWAP3 SWAP1 SWAP2 SWAP1 DUP4 ADD DUP3 DUP3 DUP1 ISZERO PUSH2 0x2DA3 JUMPI PUSH1 0x20 MUL DUP3 ADD SWAP2 SWAP1 PUSH0 MSTORE PUSH1 0x20 PUSH0 KECCAK256 SWAP1 JUMPDEST DUP2 SLOAD DUP2 MSTORE PUSH1 0x20 ADD SWAP1 PUSH1 0x1 ADD SWAP1 DUP1 DUP4 GT PUSH2 0x2D8F JUMPI JUMPDEST POP POP POP POP POP SWAP1 POP PUSH0 DUP1 PUSH2 0x2DB4 PUSH2 0x42B9 JUMP JUMPDEST SWAP1 POP PUSH1 0x1 PUSH0 JUMPDEST DUP5 MLOAD DUP2 LT ISZERO PUSH2 0x2F71 JUMPI PUSH0 PUSH1 0xCB DUP7 DUP4 DUP2 MLOAD DUP2 LT PUSH2 0x2DD8 JUMPI PUSH2 0x2DD8 PUSH2 0x56AD JUMP JUMPDEST PUSH1 0x20 MUL PUSH1 0x20 ADD ADD MLOAD DUP2 SLOAD DUP2 LT PUSH2 0x2DF0 JUMPI PUSH2 0x2DF0 PUSH2 0x56AD JUMP JUMPDEST PUSH0 SWAP2 DUP3 MSTORE PUSH1 0x20 SWAP2 DUP3 SWAP1 KECCAK256 PUSH1 0x40 DUP1 MLOAD PUSH1 0x80 DUP2 ADD DUP3 MSTORE PUSH1 0x4 SWAP4 DUP5 MUL SWAP1 SWAP3 ADD DUP1 SLOAD PUSH1 0x1 PUSH1 0x1 PUSH1 0xA0 SHL SUB SWAP1 DUP2 AND DUP5 MSTORE PUSH1 0x1 DUP3 ADD SLOAD DUP5 DUP8 ADD MSTORE PUSH1 0x2 DUP3 ADD SLOAD DUP5 DUP5 ADD MSTORE PUSH1 0x3 SWAP1 SWAP2 ADD SLOAD PUSH1 0x60 DUP5 ADD MSTORE PUSH1 0xC9 SLOAD DUP3 MLOAD PUSH4 0x5A19D09 PUSH1 0xE1 SHL DUP2 MSTORE SWAP3 MLOAD SWAP4 SWAP7 POP AND SWAP4 PUSH4 0xB433A12 SWAP4 DUP3 DUP2 ADD SWAP4 SWAP2 SWAP3 DUP3 SWAP1 SUB ADD DUP2 DUP7 GAS STATICCALL ISZERO DUP1 ISZERO PUSH2 0x2E71 JUMPI RETURNDATASIZE PUSH0 DUP1 RETURNDATACOPY RETURNDATASIZE PUSH0 REVERT JUMPDEST POP POP POP POP PUSH1 0x40 MLOAD RETURNDATASIZE PUSH1 0x1F NOT PUSH1 0x1F DUP3 ADD AND DUP3 ADD DUP1 PUSH1 0x40 MSTORE POP DUP2 ADD SWAP1 PUSH2 0x2E95 SWAP2 SWAP1 PUSH2 0x57CE JUMP JUMPDEST PUSH1 0x60 DUP3 ADD MLOAD PUSH2 0x2EA4 SWAP1 TIMESTAMP PUSH2 0x56E8 JUMP JUMPDEST GT PUSH2 0x2EAD JUMPI PUSH0 SWAP3 POP JUMPDEST PUSH0 PUSH2 0x2EB6 PUSH2 0x493B JUMP JUMPDEST DUP3 PUSH1 0x40 ADD MLOAD PUSH2 0x2EC5 SWAP2 SWAP1 PUSH2 0x56D5 JUMP JUMPDEST TIMESTAMP LT PUSH2 0x2EE7 JUMPI PUSH2 0x2ED3 PUSH2 0x493B JUMP JUMPDEST DUP3 PUSH1 0x40 ADD MLOAD PUSH2 0x2EE2 SWAP2 SWAP1 PUSH2 0x56D5 JUMP JUMPDEST PUSH2 0x2EE9 JUMP JUMPDEST TIMESTAMP JUMPDEST SWAP1 POP DUP2 PUSH1 0x60 ADD MLOAD DUP2 GT PUSH2 0x2EFD JUMPI POP POP PUSH2 0x2F61 JUMP JUMPDEST DUP5 PUSH3 0x15180 PUSH1 0x64 DUP5 PUSH1 0x20 ADD MLOAD PUSH2 0x2F13 SWAP2 SWAP1 PUSH2 0x570F JUMP JUMPDEST PUSH2 0x2F1D SWAP2 SWAP1 PUSH2 0x570F JUMP JUMPDEST PUSH1 0x60 DUP5 ADD MLOAD PUSH2 0x2F2C SWAP1 DUP5 PUSH2 0x56E8 JUMP JUMPDEST PUSH2 0x2F36 SWAP2 SWAP1 PUSH2 0x57E5 JUMP JUMPDEST PUSH2 0x2F40 SWAP2 SWAP1 PUSH2 0x570F JUMP JUMPDEST PUSH2 0x2F52 SWAP1 PUSH8 0xDE0B6B3A7640000 PUSH2 0x57E5 JUMP JUMPDEST PUSH2 0x2F5C SWAP1 DUP8 PUSH2 0x56D5 JUMP JUMPDEST SWAP6 POP POP POP JUMPDEST PUSH2 0x2F6A DUP2 PUSH2 0x589B JUMP JUMPDEST SWAP1 POP PUSH2 0x2DBA JUMP JUMPDEST POP PUSH1 0x40 MLOAD DUP1 PUSH1 0xA0 ADD PUSH1 0x40 MSTORE DUP1 PUSH1 0x2 DUP6 PUSH2 0x2F8A SWAP2 SWAP1 PUSH2 0x570F JUMP JUMPDEST DUP2 MSTORE PUSH1 0x20 ADD PUSH2 0x2F9A PUSH1 0x2 DUP7 PUSH2 0x570F JUMP JUMPDEST DUP2 MSTORE PUSH1 0x1 PUSH1 0x1 PUSH1 0xA0 SHL SUB SWAP1 SWAP8 AND PUSH0 DUP2 DUP2 MSTORE PUSH1 0xD3 PUSH1 0x20 DUP2 DUP2 MSTORE PUSH1 0x40 DUP1 DUP5 KECCAK256 SLOAD DUP3 DUP14 ADD DUP2 SWAP1 MSTORE SWAP5 SWAP1 SWAP4 MSTORE MSTORE DUP9 ADD MSTORE SWAP1 ISZERO ISZERO PUSH1 0x60 SWAP1 SWAP7 ADD SWAP6 SWAP1 SWAP6 MSTORE POP SWAP3 SWAP4 SWAP3 POP POP POP JUMP JUMPDEST PUSH1 0xDA DUP2 DUP2 SLOAD DUP2 LT PUSH2 0xAD6 JUMPI PUSH0 DUP1 REVERT JUMPDEST PUSH1 0xCC DUP2 DUP2 SLOAD DUP2 LT PUSH2 0xAD6 JUMPI PUSH0 DUP1 REVERT JUMPDEST PUSH1 0x60 PUSH0 PUSH2 0x3006 DUP5 DUP5 PUSH2 0x56E8 JUMP JUMPDEST PUSH2 0x3011 SWAP1 PUSH1 0x1 PUSH2 0x56D5 JUMP JUMPDEST SWAP1 POP DUP1 PUSH1 0x1 PUSH1 0x1 PUSH1 0x40 SHL SUB DUP2 GT ISZERO PUSH2 0x302B JUMPI PUSH2 0x302B PUSH2 0x5368 JUMP JUMPDEST PUSH1 0x40 MLOAD SWAP1 DUP1 DUP3 MSTORE DUP1 PUSH1 0x20 MUL PUSH1 0x20 ADD DUP3 ADD PUSH1 0x40 MSTORE DUP1 ISZERO PUSH2 0x308C JUMPI DUP2 PUSH1 0x20 ADD JUMPDEST PUSH2 0x3079 PUSH1 0x40 MLOAD DUP1 PUSH1 0x80 ADD PUSH1 0x40 MSTORE DUP1 PUSH0 PUSH1 0x1 PUSH1 0x1 PUSH1 0xA0 SHL SUB AND DUP2 MSTORE PUSH1 0x20 ADD PUSH0 DUP2 MSTORE PUSH1 0x20 ADD PUSH0 DUP2 MSTORE PUSH1 0x20 ADD PUSH0 DUP2 MSTORE POP SWAP1 JUMP JUMPDEST DUP2 MSTORE PUSH1 0x20 ADD SWAP1 PUSH1 0x1 SWAP1 SUB SWAP1 DUP2 PUSH2 0x3049 JUMPI SWAP1 POP JUMPDEST POP SWAP2 POP PUSH0 JUMPDEST DUP2 DUP2 LT ISZERO PUSH2 0x1F1B JUMPI PUSH1 0xCC PUSH2 0x30A5 DUP3 DUP8 PUSH2 0x56D5 JUMP JUMPDEST DUP2 SLOAD DUP2 LT PUSH2 0x30B5 JUMPI PUSH2 0x30B5 PUSH2 0x56AD JUMP JUMPDEST PUSH0 SWAP2 DUP3 MSTORE PUSH1 0x20 SWAP2 DUP3 SWAP1 KECCAK256 PUSH1 0x40 DUP1 MLOAD PUSH1 0x80 DUP2 ADD DUP3 MSTORE PUSH1 0x4 SWAP1 SWAP4 MUL SWAP1 SWAP2 ADD DUP1 SLOAD PUSH1 0x1 PUSH1 0x1 PUSH1 0xA0 SHL SUB AND DUP4 MSTORE PUSH1 0x1 DUP2 ADD SLOAD SWAP4 DUP4 ADD SWAP4 SWAP1 SWAP4 MSTORE PUSH1 0x2 DUP4 ADD SLOAD SWAP1 DUP3 ADD MSTORE PUSH1 0x3 SWAP1 SWAP2 ADD SLOAD PUSH1 0x60 DUP3 ADD MSTORE DUP4 MLOAD DUP5 SWAP1 DUP4 SWAP1 DUP2 LT PUSH2 0x3112 JUMPI PUSH2 0x3112 PUSH2 0x56AD JUMP JUMPDEST PUSH1 0x20 MUL PUSH1 0x20 ADD ADD DUP2 SWAP1 MSTORE POP DUP1 DUP1 PUSH2 0x3128 SWAP1 PUSH2 0x589B JUMP JUMPDEST SWAP2 POP POP PUSH2 0x3091 JUMP JUMPDEST PUSH1 0x40 DUP1 MLOAD CALLER PUSH1 0x60 DUP2 SWAP1 SHL PUSH1 0x1 PUSH1 0x1 PUSH1 0x60 SHL SUB NOT AND PUSH1 0x20 DUP1 DUP5 ADD SWAP2 SWAP1 SWAP2 MSTORE PUSH1 0x34 DUP4 ADD DUP10 SWAP1 MSTORE PUSH1 0x54 DUP4 ADD DUP9 SWAP1 MSTORE PUSH1 0x74 DUP4 ADD DUP8 SWAP1 MSTORE PUSH1 0x94 DUP1 DUP5 ADD DUP8 SWAP1 MSTORE DUP5 MLOAD DUP1 DUP6 SUB SWAP1 SWAP2 ADD DUP2 MSTORE PUSH1 0xB4 DUP5 ADD DUP6 MSTORE DUP1 MLOAD SWAP1 DUP3 ADD KECCAK256 PUSH28 0xCA2BA3432B932BAB69029B4B3B732B21026B2B9B9B0B3B29D051999 PUSH1 0x21 SHL PUSH1 0xD4 DUP6 ADD MSTORE PUSH1 0xF0 DUP1 DUP6 ADD SWAP2 SWAP1 SWAP2 MSTORE DUP5 MLOAD DUP1 DUP6 SUB SWAP1 SWAP2 ADD DUP2 MSTORE PUSH2 0x110 SWAP1 SWAP4 ADD SWAP1 SWAP4 MSTORE DUP2 MLOAD SWAP2 SWAP1 SWAP3 ADD KECCAK256 PUSH0 PUSH2 0x31D3 DUP3 DUP6 PUSH2 0x4A34 JUMP JUMPDEST SWAP1 POP DUP1 PUSH1 0x1 PUSH1 0x1 PUSH1 0xA0 SHL SUB AND PUSH1 0xC9 PUSH0 SWAP1 SLOAD SWAP1 PUSH2 0x100 EXP SWAP1 DIV PUSH1 0x1 PUSH1 0x1 PUSH1 0xA0 SHL SUB AND PUSH1 0x1 PUSH1 0x1 PUSH1 0xA0 SHL SUB AND PUSH4 0x570CA735 PUSH1 0x40 MLOAD DUP2 PUSH4 0xFFFFFFFF AND PUSH1 0xE0 SHL DUP2 MSTORE PUSH1 0x4 ADD PUSH1 0x20 PUSH1 0x40 MLOAD DUP1 DUP4 SUB DUP2 DUP7 GAS STATICCALL ISZERO DUP1 ISZERO PUSH2 0x322F JUMPI RETURNDATASIZE PUSH0 DUP1 RETURNDATACOPY RETURNDATASIZE PUSH0 REVERT JUMPDEST POP POP POP POP PUSH1 0x40 MLOAD RETURNDATASIZE PUSH1 0x1F NOT PUSH1 0x1F DUP3 ADD AND DUP3 ADD DUP1 PUSH1 0x40 MSTORE POP DUP2 ADD SWAP1 PUSH2 0x3253 SWAP2 SWAP1 PUSH2 0x57B3 JUMP JUMPDEST PUSH1 0x1 PUSH1 0x1 PUSH1 0xA0 SHL SUB AND EQ PUSH2 0x327A JUMPI PUSH1 0x40 MLOAD PUSH4 0xE1A96133 PUSH1 0xE0 SHL DUP2 MSTORE PUSH1 0x4 ADD PUSH1 0x40 MLOAD DUP1 SWAP2 SUB SWAP1 REVERT JUMPDEST PUSH1 0x1 PUSH1 0x1 PUSH1 0xA0 SHL SUB DUP4 AND PUSH0 SWAP1 DUP2 MSTORE PUSH1 0xD9 PUSH1 0x20 SWAP1 DUP2 MSTORE PUSH1 0x40 DUP1 DUP4 KECCAK256 DUP4 DUP1 MSTORE SWAP1 SWAP2 MSTORE DUP1 DUP3 KECCAK256 SLOAD PUSH1 0x1 DUP4 MSTORE DUP2 DUP4 KECCAK256 SLOAD PUSH1 0x2 DUP5 MSTORE DUP3 DUP5 KECCAK256 SLOAD PUSH1 0x3 DUP6 MSTORE SWAP3 DUP5 KECCAK256 SLOAD SWAP2 SWAP4 SWAP1 SWAP3 SWAP2 SWAP1 DUP5 DUP14 GT ISZERO PUSH2 0x3300 JUMPI PUSH2 0x32CE DUP6 DUP15 PUSH2 0x56E8 JUMP JUMPDEST PUSH2 0x32D8 SWAP1 DUP3 PUSH2 0x56D5 JUMP JUMPDEST PUSH1 0x1 PUSH1 0x1 PUSH1 0xA0 SHL SUB DUP10 AND PUSH0 SWAP1 DUP2 MSTORE PUSH1 0xD9 PUSH1 0x20 SWAP1 DUP2 MSTORE PUSH1 0x40 DUP1 DUP4 KECCAK256 DUP4 DUP1 MSTORE SWAP1 SWAP2 MSTORE SWAP1 KECCAK256 DUP15 SWAP1 SSTORE SWAP1 POP JUMPDEST DUP4 DUP13 GT ISZERO PUSH2 0x3345 JUMPI PUSH2 0x3312 DUP5 DUP14 PUSH2 0x56E8 JUMP JUMPDEST PUSH2 0x331C SWAP1 DUP3 PUSH2 0x56D5 JUMP JUMPDEST PUSH1 0x1 PUSH1 0x1 PUSH1 0xA0 SHL SUB DUP10 AND PUSH0 SWAP1 DUP2 MSTORE PUSH1 0xD9 PUSH1 0x20 SWAP1 DUP2 MSTORE PUSH1 0x40 DUP1 DUP4 KECCAK256 PUSH1 0x1 DUP5 MSTORE SWAP1 SWAP2 MSTORE SWAP1 KECCAK256 DUP14 SWAP1 SSTORE SWAP1 POP JUMPDEST DUP3 DUP12 GT ISZERO PUSH2 0x338A JUMPI PUSH2 0x3357 DUP4 DUP13 PUSH2 0x56E8 JUMP JUMPDEST PUSH2 0x3361 SWAP1 DUP3 PUSH2 0x56D5 JUMP JUMPDEST PUSH1 0x1 PUSH1 0x1 PUSH1 0xA0 SHL SUB DUP10 AND PUSH0 SWAP1 DUP2 MSTORE PUSH1 0xD9 PUSH1 0x20 SWAP1 DUP2 MSTORE PUSH1 0x40 DUP1 DUP4 KECCAK256 PUSH1 0x2 DUP5 MSTORE SWAP1 SWAP2 MSTORE SWAP1 KECCAK256 DUP13 SWAP1 SSTORE SWAP1 POP JUMPDEST DUP2 DUP11 GT ISZERO PUSH2 0x33CF JUMPI PUSH2 0x339C DUP3 DUP12 PUSH2 0x56E8 JUMP JUMPDEST PUSH2 0x33A6 SWAP1 DUP3 PUSH2 0x56D5 JUMP JUMPDEST PUSH1 0x1 PUSH1 0x1 PUSH1 0xA0 SHL SUB DUP10 AND PUSH0 SWAP1 DUP2 MSTORE PUSH1 0xD9 PUSH1 0x20 SWAP1 DUP2 MSTORE PUSH1 0x40 DUP1 DUP4 KECCAK256 PUSH1 0x3 DUP5 MSTORE SWAP1 SWAP2 MSTORE SWAP1 KECCAK256 DUP12 SWAP1 SSTORE SWAP1 POP JUMPDEST DUP1 ISZERO PUSH2 0x34CC JUMPI PUSH1 0x40 DUP1 MLOAD PUSH1 0x80 DUP2 ADD SWAP1 SWAP2 MSTORE CALLER DUP2 MSTORE PUSH1 0xCC SWAP1 PUSH1 0x20 DUP2 ADD PUSH2 0x33F5 PUSH1 0x2 DUP6 PUSH2 0x570F JUMP JUMPDEST DUP2 MSTORE PUSH1 0x1 PUSH1 0x20 DUP1 DUP4 ADD DUP3 SWAP1 MSTORE TIMESTAMP PUSH1 0x40 SWAP4 DUP5 ADD MSTORE DUP5 SLOAD DUP1 DUP4 ADD DUP7 SSTORE PUSH0 SWAP6 DUP7 MSTORE SWAP5 DUP2 SWAP1 KECCAK256 DUP5 MLOAD PUSH1 0x4 SWAP1 SWAP7 MUL ADD DUP1 SLOAD PUSH1 0x1 PUSH1 0x1 PUSH1 0xA0 SHL SUB NOT AND PUSH1 0x1 PUSH1 0x1 PUSH1 0xA0 SHL SUB SWAP1 SWAP7 AND SWAP6 SWAP1 SWAP6 OR DUP6 SSTORE DUP4 ADD MLOAD SWAP1 DUP5 ADD SSTORE DUP2 ADD MLOAD PUSH1 0x2 DUP4 ADD SSTORE PUSH1 0x60 ADD MLOAD PUSH1 0x3 SWAP1 SWAP2 ADD SSTORE PUSH2 0x345D PUSH2 0x2192 JUMP JUMPDEST PUSH1 0x1 PUSH1 0x1 PUSH1 0xA0 SHL SUB AND PUSH4 0xA9059CBB DUP10 DUP4 PUSH1 0x40 MLOAD DUP4 PUSH4 0xFFFFFFFF AND PUSH1 0xE0 SHL DUP2 MSTORE PUSH1 0x4 ADD PUSH2 0x348A SWAP3 SWAP2 SWAP1 PUSH2 0x57FC JUMP JUMPDEST PUSH1 0x20 PUSH1 0x40 MLOAD DUP1 DUP4 SUB DUP2 PUSH0 DUP8 GAS CALL ISZERO DUP1 ISZERO PUSH2 0x34A6 JUMPI RETURNDATASIZE PUSH0 DUP1 RETURNDATACOPY RETURNDATASIZE PUSH0 REVERT JUMPDEST POP POP POP POP PUSH1 0x40 MLOAD RETURNDATASIZE PUSH1 0x1F NOT PUSH1 0x1F DUP3 ADD AND DUP3 ADD DUP1 PUSH1 0x40 MSTORE POP DUP2 ADD SWAP1 PUSH2 0x34CA SWAP2 SWAP1 PUSH2 0x5794 JUMP JUMPDEST POP JUMPDEST POP POP POP POP POP POP POP POP POP POP POP POP POP JUMP JUMPDEST PUSH1 0x1 PUSH1 0x1 PUSH1 0xA0 SHL SUB DUP2 AND PUSH0 SWAP1 DUP2 MSTORE PUSH1 0xD0 PUSH1 0x20 SWAP1 DUP2 MSTORE PUSH1 0x40 DUP1 DUP4 KECCAK256 DUP1 SLOAD DUP3 MLOAD DUP2 DUP6 MUL DUP2 ADD DUP6 ADD SWAP1 SWAP4 MSTORE DUP1 DUP4 MSTORE DUP5 SWAP4 DUP4 ADD DUP3 DUP3 DUP1 ISZERO PUSH2 0x3535 JUMPI PUSH1 0x20 MUL DUP3 ADD SWAP2 SWAP1 PUSH0 MSTORE PUSH1 0x20 PUSH0 KECCAK256 SWAP1 JUMPDEST DUP2 SLOAD DUP2 MSTORE PUSH1 0x20 ADD SWAP1 PUSH1 0x1 ADD SWAP1 DUP1 DUP4 GT PUSH2 0x3521 JUMPI JUMPDEST POP POP POP POP POP SWAP1 POP PUSH0 JUMPDEST DUP2 MLOAD DUP2 LT ISZERO PUSH2 0x3607 JUMPI PUSH0 PUSH1 0xCB DUP4 DUP4 DUP2 MLOAD DUP2 LT PUSH2 0x355C JUMPI PUSH2 0x355C PUSH2 0x56AD JUMP JUMPDEST PUSH1 0x20 MUL PUSH1 0x20 ADD ADD MLOAD DUP2 SLOAD DUP2 LT PUSH2 0x3574 JUMPI PUSH2 0x3574 PUSH2 0x56AD JUMP JUMPDEST PUSH0 SWAP2 DUP3 MSTORE PUSH1 0x20 SWAP2 DUP3 SWAP1 KECCAK256 PUSH1 0x40 DUP1 MLOAD PUSH1 0x80 DUP2 ADD DUP3 MSTORE PUSH1 0x4 SWAP1 SWAP4 MUL SWAP1 SWAP2 ADD DUP1 SLOAD PUSH1 0x1 PUSH1 0x1 PUSH1 0xA0 SHL SUB AND DUP4 MSTORE PUSH1 0x1 DUP2 ADD SLOAD SWAP4 DUP4 ADD SWAP4 SWAP1 SWAP4 MSTORE PUSH1 0x2 DUP4 ADD SLOAD SWAP1 DUP3 ADD MSTORE PUSH1 0x3 SWAP1 SWAP2 ADD SLOAD PUSH1 0x60 DUP3 ADD MSTORE SWAP1 POP TIMESTAMP PUSH2 0x35C8 PUSH2 0x493B JUMP JUMPDEST DUP3 PUSH1 0x40 ADD MLOAD PUSH2 0x35D7 SWAP2 SWAP1 PUSH2 0x56D5 JUMP JUMPDEST GT PUSH2 0x35E2 JUMPI POP PUSH2 0x35F5 JUMP JUMPDEST PUSH1 0x20 DUP2 ADD MLOAD PUSH2 0x35F1 SWAP1 DUP6 PUSH2 0x56D5 JUMP JUMPDEST SWAP4 POP POP JUMPDEST DUP1 PUSH2 0x35FF DUP2 PUSH2 0x589B JUMP JUMPDEST SWAP2 POP POP PUSH2 0x353E JUMP JUMPDEST POP POP SWAP2 SWAP1 POP JUMP JUMPDEST PUSH0 DUP1 PUSH0 DUP1 PUSH2 0x361B TIMESTAMP PUSH2 0x4A58 JUMP JUMPDEST POP POP SWAP4 POP SWAP4 POP SWAP4 POP SWAP4 POP PUSH1 0x8 DUP2 PUSH2 0x3632 SWAP2 SWAP1 PUSH2 0x56D5 JUMP JUMPDEST SWAP1 POP PUSH1 0x18 DUP2 GT ISZERO PUSH2 0x3658 JUMPI PUSH2 0x3648 PUSH1 0x1 DUP4 PUSH2 0x56D5 JUMP JUMPDEST SWAP2 POP PUSH2 0x3655 PUSH1 0x18 DUP3 PUSH2 0x56E8 JUMP JUMPDEST SWAP1 POP JUMPDEST PUSH1 0x8 DUP2 LT ISZERO PUSH2 0x3667 JUMPI POP POP POP POP JUMP JUMPDEST PUSH0 PUSH2 0x3671 DUP6 PUSH2 0x4ACA JUMP JUMPDEST PUSH2 0x367A DUP6 PUSH2 0x4ACA JUMP JUMPDEST PUSH2 0x3683 DUP6 PUSH2 0x4ACA JUMP JUMPDEST PUSH1 0x40 MLOAD PUSH1 0x20 ADD PUSH2 0x3695 SWAP4 SWAP3 SWAP2 SWAP1 PUSH2 0x5997 JUMP JUMPDEST PUSH1 0x40 MLOAD PUSH1 0x20 DUP2 DUP4 SUB SUB DUP2 MSTORE SWAP1 PUSH1 0x40 MSTORE SWAP1 POP PUSH1 0xD2 DUP2 PUSH1 0x40 MLOAD PUSH2 0x36B6 SWAP2 SWAP1 PUSH2 0x59D9 JUMP JUMPDEST SWAP1 DUP2 MSTORE PUSH1 0x40 MLOAD SWAP1 DUP2 SWAP1 SUB PUSH1 0x20 ADD SWAP1 KECCAK256 SLOAD PUSH1 0xFF AND ISZERO PUSH2 0x36D5 JUMPI POP POP POP POP POP JUMP JUMPDEST PUSH1 0x1 PUSH1 0xD2 DUP3 PUSH1 0x40 MLOAD PUSH2 0x36E7 SWAP2 SWAP1 PUSH2 0x59D9 JUMP JUMPDEST SWAP1 DUP2 MSTORE PUSH1 0x40 MLOAD SWAP1 DUP2 SWAP1 SUB PUSH1 0x20 ADD SWAP1 KECCAK256 DUP1 SLOAD SWAP2 ISZERO ISZERO PUSH1 0xFF NOT SWAP1 SWAP3 AND SWAP2 SWAP1 SWAP2 OR SWAP1 SSTORE PUSH0 DUP1 PUSH2 0x3711 PUSH2 0x4445 JUMP JUMPDEST PUSH1 0x1 PUSH1 0x1 PUSH1 0xA0 SHL SUB AND PUSH4 0x902F1AC PUSH1 0x40 MLOAD DUP2 PUSH4 0xFFFFFFFF AND PUSH1 0xE0 SHL DUP2 MSTORE PUSH1 0x4 ADD PUSH1 0x60 PUSH1 0x40 MLOAD DUP1 DUP4 SUB DUP2 DUP7 GAS STATICCALL ISZERO DUP1 ISZERO PUSH2 0x374C JUMPI RETURNDATASIZE PUSH0 DUP1 RETURNDATACOPY RETURNDATASIZE PUSH0 REVERT JUMPDEST POP POP POP POP PUSH1 0x40 MLOAD RETURNDATASIZE PUSH1 0x1F NOT PUSH1 0x1F DUP3 ADD AND DUP3 ADD DUP1 PUSH1 0x40 MSTORE POP DUP2 ADD SWAP1 PUSH2 0x3770 SWAP2 SWAP1 PUSH2 0x5830 JUMP JUMPDEST POP SWAP2 POP SWAP2 POP PUSH2 0x377D PUSH2 0x4445 JUMP JUMPDEST PUSH1 0x1 PUSH1 0x1 PUSH1 0xA0 SHL SUB AND PUSH4 0xE840427D PUSH2 0x3E8 PUSH2 0x3799 DUP6 PUSH1 0xA PUSH2 0x58B3 JUMP JUMPDEST PUSH2 0x37A3 SWAP2 SWAP1 PUSH2 0x58D6 JUMP JUMPDEST PUSH2 0x3E8 PUSH2 0x37B1 DUP6 PUSH1 0xA PUSH2 0x58B3 JUMP JUMPDEST PUSH2 0x37BB SWAP2 SWAP1 PUSH2 0x58D6 JUMP JUMPDEST ADDRESS PUSH1 0x40 MLOAD DUP5 PUSH4 0xFFFFFFFF AND PUSH1 0xE0 SHL DUP2 MSTORE PUSH1 0x4 ADD PUSH2 0x37DA SWAP4 SWAP3 SWAP2 SWAP1 PUSH2 0x58FB JUMP JUMPDEST PUSH0 PUSH1 0x40 MLOAD DUP1 DUP4 SUB DUP2 PUSH0 DUP8 DUP1 EXTCODESIZE ISZERO DUP1 ISZERO PUSH2 0x37F1 JUMPI PUSH0 DUP1 REVERT JUMPDEST POP GAS CALL ISZERO DUP1 ISZERO PUSH2 0x3803 JUMPI RETURNDATASIZE PUSH0 DUP1 RETURNDATACOPY RETURNDATASIZE PUSH0 REVERT JUMPDEST POP POP POP POP PUSH0 DUP1 PUSH2 0x3811 PUSH2 0x4272 JUMP JUMPDEST PUSH1 0x1 PUSH1 0x1 PUSH1 0xA0 SHL SUB AND PUSH2 0x3822 PUSH2 0x4445 JUMP JUMPDEST PUSH1 0x1 PUSH1 0x1 PUSH1 0xA0 SHL SUB AND PUSH4 0xDFE1681 PUSH1 0x40 MLOAD DUP2 PUSH4 0xFFFFFFFF AND PUSH1 0xE0 SHL DUP2 MSTORE PUSH1 0x4 ADD PUSH1 0x20 PUSH1 0x40 MLOAD DUP1 DUP4 SUB DUP2 DUP7 GAS STATICCALL ISZERO DUP1 ISZERO PUSH2 0x385D JUMPI RETURNDATASIZE PUSH0 DUP1 RETURNDATACOPY RETURNDATASIZE PUSH0 REVERT JUMPDEST POP POP POP POP PUSH1 0x40 MLOAD RETURNDATASIZE PUSH1 0x1F NOT PUSH1 0x1F DUP3 ADD AND DUP3 ADD DUP1 PUSH1 0x40 MSTORE POP DUP2 ADD SWAP1 PUSH2 0x3881 SWAP2 SWAP1 PUSH2 0x57B3 JUMP JUMPDEST PUSH1 0x1 PUSH1 0x1 PUSH1 0xA0 SHL SUB AND EQ PUSH2 0x3896 JUMPI DUP3 DUP5 PUSH2 0x3899 JUMP JUMPDEST DUP4 DUP4 JUMPDEST SWAP2 POP SWAP2 POP PUSH2 0x38A5 PUSH2 0x2192 JUMP JUMPDEST PUSH1 0x1 PUSH1 0x1 PUSH1 0xA0 SHL SUB AND PUSH4 0xA9059CBB PUSH2 0x38BB PUSH2 0x448C JUMP JUMPDEST PUSH2 0x3E8 PUSH2 0x38C9 DUP6 PUSH1 0xA PUSH2 0x58B3 JUMP JUMPDEST PUSH2 0x38D3 SWAP2 SWAP1 PUSH2 0x58D6 JUMP JUMPDEST PUSH1 0x40 MLOAD DUP4 PUSH4 0xFFFFFFFF AND PUSH1 0xE0 SHL DUP2 MSTORE PUSH1 0x4 ADD PUSH2 0x38F0 SWAP3 SWAP2 SWAP1 PUSH2 0x5927 JUMP JUMPDEST PUSH1 0x20 PUSH1 0x40 MLOAD DUP1 DUP4 SUB DUP2 PUSH0 DUP8 GAS CALL ISZERO DUP1 ISZERO PUSH2 0x390C JUMPI RETURNDATASIZE PUSH0 DUP1 RETURNDATACOPY RETURNDATASIZE PUSH0 REVERT JUMPDEST POP POP POP POP PUSH1 0x40 MLOAD RETURNDATASIZE PUSH1 0x1F NOT PUSH1 0x1F DUP3 ADD AND DUP3 ADD DUP1 PUSH1 0x40 MSTORE POP DUP2 ADD SWAP1 PUSH2 0x3930 SWAP2 SWAP1 PUSH2 0x5794 JUMP JUMPDEST POP PUSH2 0x3939 PUSH2 0x4272 JUMP JUMPDEST PUSH1 0x1 PUSH1 0x1 PUSH1 0xA0 SHL SUB AND PUSH4 0x95EA7B3 PUSH2 0x394F PUSH2 0x4445 JUMP JUMPDEST PUSH1 0x2 PUSH2 0x3E8 PUSH2 0x395F DUP8 PUSH1 0xA PUSH2 0x58B3 JUMP JUMPDEST PUSH2 0x3969 SWAP2 SWAP1 PUSH2 0x58D6 JUMP JUMPDEST PUSH2 0x3973 SWAP2 SWAP1 PUSH2 0x58D6 JUMP JUMPDEST PUSH1 0x40 MLOAD DUP4 PUSH4 0xFFFFFFFF AND PUSH1 0xE0 SHL DUP2 MSTORE PUSH1 0x4 ADD PUSH2 0x3990 SWAP3 SWAP2 SWAP1 PUSH2 0x5927 JUMP JUMPDEST PUSH1 0x20 PUSH1 0x40 MLOAD DUP1 DUP4 SUB DUP2 PUSH0 DUP8 GAS CALL ISZERO DUP1 ISZERO PUSH2 0x39AC JUMPI RETURNDATASIZE PUSH0 DUP1 RETURNDATACOPY RETURNDATASIZE PUSH0 REVERT JUMPDEST POP POP POP POP PUSH1 0x40 MLOAD RETURNDATASIZE PUSH1 0x1F NOT PUSH1 0x1F DUP3 ADD AND DUP3 ADD DUP1 PUSH1 0x40 MSTORE POP DUP2 ADD SWAP1 PUSH2 0x39D0 SWAP2 SWAP1 PUSH2 0x5794 JUMP JUMPDEST POP PUSH0 PUSH2 0x39DA PUSH2 0x4445 JUMP JUMPDEST PUSH1 0x1 PUSH1 0x1 PUSH1 0xA0 SHL SUB AND PUSH4 0xA1E15411 PUSH2 0x39F0 PUSH2 0x4272 JUMP JUMPDEST ADDRESS PUSH1 0x2 PUSH2 0x3E8 PUSH2 0x3A01 DUP10 PUSH1 0xA PUSH2 0x58B3 JUMP JUMPDEST PUSH2 0x3A0B SWAP2 SWAP1 PUSH2 0x58D6 JUMP JUMPDEST PUSH2 0x3A15 SWAP2 SWAP1 PUSH2 0x58D6 JUMP JUMPDEST PUSH1 0x40 MLOAD DUP5 PUSH4 0xFFFFFFFF AND PUSH1 0xE0 SHL DUP2 MSTORE PUSH1 0x4 ADD PUSH2 0x3A33 SWAP4 SWAP3 SWAP2 SWAP1 PUSH2 0x5949 JUMP JUMPDEST PUSH1 0x20 PUSH1 0x40 MLOAD DUP1 DUP4 SUB DUP2 PUSH0 DUP8 GAS CALL ISZERO DUP1 ISZERO PUSH2 0x3A4F JUMPI RETURNDATASIZE PUSH0 DUP1 RETURNDATACOPY RETURNDATASIZE PUSH0 REVERT JUMPDEST POP POP POP POP PUSH1 0x40 MLOAD RETURNDATASIZE PUSH1 0x1F NOT PUSH1 0x1F DUP3 ADD AND DUP3 ADD DUP1 PUSH1 0x40 MSTORE POP DUP2 ADD SWAP1 PUSH2 0x3A73 SWAP2 SWAP1 PUSH2 0x57CE JUMP JUMPDEST SWAP1 POP PUSH2 0x3A7D PUSH2 0x2192 JUMP JUMPDEST PUSH1 0x1 PUSH1 0x1 PUSH1 0xA0 SHL SUB AND PUSH4 0xA9059CBB PUSH2 0x3A93 PUSH2 0x4445 JUMP JUMPDEST DUP4 PUSH1 0x40 MLOAD DUP4 PUSH4 0xFFFFFFFF AND PUSH1 0xE0 SHL DUP2 MSTORE PUSH1 0x4 ADD PUSH2 0x3AB1 SWAP3 SWAP2 SWAP1 PUSH2 0x57FC JUMP JUMPDEST PUSH1 0x20 PUSH1 0x40 MLOAD DUP1 DUP4 SUB DUP2 PUSH0 DUP8 GAS CALL ISZERO DUP1 ISZERO PUSH2 0x3ACD JUMPI RETURNDATASIZE PUSH0 DUP1 RETURNDATACOPY RETURNDATASIZE PUSH0 REVERT JUMPDEST POP POP POP POP PUSH1 0x40 MLOAD RETURNDATASIZE PUSH1 0x1F NOT PUSH1 0x1F DUP3 ADD AND DUP3 ADD DUP1 PUSH1 0x40 MSTORE POP DUP2 ADD SWAP1 PUSH2 0x3AF1 SWAP2 SWAP1 PUSH2 0x5794 JUMP JUMPDEST POP PUSH2 0x3AFA PUSH2 0x4272 JUMP JUMPDEST PUSH1 0x1 PUSH1 0x1 PUSH1 0xA0 SHL SUB AND PUSH4 0xA9059CBB PUSH2 0x3B10 PUSH2 0x4445 JUMP JUMPDEST PUSH1 0x2 PUSH2 0x3E8 PUSH2 0x3B20 DUP9 PUSH1 0xA PUSH2 0x58B3 JUMP JUMPDEST PUSH2 0x3B2A SWAP2 SWAP1 PUSH2 0x58D6 JUMP JUMPDEST PUSH2 0x3B34 SWAP2 SWAP1 PUSH2 0x58D6 JUMP JUMPDEST PUSH1 0x40 MLOAD DUP4 PUSH4 0xFFFFFFFF AND PUSH1 0xE0 SHL DUP2 MSTORE PUSH1 0x4 ADD PUSH2 0x3B51 SWAP3 SWAP2 SWAP1 PUSH2 0x5927 JUMP JUMPDEST PUSH1 0x20 PUSH1 0x40 MLOAD DUP1 DUP4 SUB DUP2 PUSH0 DUP8 GAS CALL ISZERO DUP1 ISZERO PUSH2 0x3B6D JUMPI RETURNDATASIZE PUSH0 DUP1 RETURNDATACOPY RETURNDATASIZE PUSH0 REVERT JUMPDEST POP POP POP POP PUSH1 0x40 MLOAD RETURNDATASIZE PUSH1 0x1F NOT PUSH1 0x1F DUP3 ADD AND DUP3 ADD DUP1 PUSH1 0x40 MSTORE POP DUP2 ADD SWAP1 PUSH2 0x3B91 SWAP2 SWAP1 PUSH2 0x5794 JUMP JUMPDEST POP PUSH2 0x3B9A PUSH2 0x4445 JUMP JUMPDEST PUSH1 0x1 PUSH1 0x1 PUSH1 0xA0 SHL SUB AND PUSH4 0x6A627842 PUSH1 0x1 PUSH1 0x40 MLOAD DUP3 PUSH4 0xFFFFFFFF AND PUSH1 0xE0 SHL DUP2 MSTORE PUSH1 0x4 ADD PUSH2 0x3BC6 SWAP2 SWAP1 PUSH2 0x5520 JUMP JUMPDEST PUSH1 0x20 PUSH1 0x40 MLOAD DUP1 DUP4 SUB DUP2 PUSH0 DUP8 GAS CALL ISZERO DUP1 ISZERO PUSH2 0x3BE2 JUMPI RETURNDATASIZE PUSH0 DUP1 RETURNDATACOPY RETURNDATASIZE PUSH0 REVERT JUMPDEST POP POP POP POP PUSH1 0x40 MLOAD RETURNDATASIZE PUSH1 0x1F NOT PUSH1 0x1F DUP3 ADD AND DUP3 ADD DUP1 PUSH1 0x40 MSTORE POP DUP2 ADD SWAP1 PUSH2 0x3C06 SWAP2 SWAP1 PUSH2 0x57CE JUMP JUMPDEST POP POP POP POP POP POP POP POP POP POP POP JUMP JUMPDEST PUSH1 0x60 PUSH0 PUSH2 0x3C20 DUP5 DUP5 PUSH2 0x56E8 JUMP JUMPDEST PUSH2 0x3C2B SWAP1 PUSH1 0x1 PUSH2 0x56D5 JUMP JUMPDEST SWAP1 POP DUP1 PUSH1 0x1 PUSH1 0x1 PUSH1 0x40 SHL SUB DUP2 GT ISZERO PUSH2 0x3C45 JUMPI PUSH2 0x3C45 PUSH2 0x5368 JUMP JUMPDEST PUSH1 0x40 MLOAD SWAP1 DUP1 DUP3 MSTORE DUP1 PUSH1 0x20 MUL PUSH1 0x20 ADD DUP3 ADD PUSH1 0x40 MSTORE DUP1 ISZERO PUSH2 0x3CA6 JUMPI DUP2 PUSH1 0x20 ADD JUMPDEST PUSH2 0x3C93 PUSH1 0x40 MLOAD DUP1 PUSH1 0x80 ADD PUSH1 0x40 MSTORE DUP1 PUSH0 PUSH1 0x1 PUSH1 0x1 PUSH1 0xA0 SHL SUB AND DUP2 MSTORE PUSH1 0x20 ADD PUSH0 DUP2 MSTORE PUSH1 0x20 ADD PUSH0 DUP2 MSTORE PUSH1 0x20 ADD PUSH0 DUP2 MSTORE POP SWAP1 JUMP JUMPDEST DUP2 MSTORE PUSH1 0x20 ADD SWAP1 PUSH1 0x1 SWAP1 SUB SWAP1 DUP2 PUSH2 0x3C63 JUMPI SWAP1 POP JUMPDEST POP SWAP2 POP PUSH0 JUMPDEST DUP2 DUP2 LT ISZERO PUSH2 0x1F1B JUMPI PUSH1 0xCB PUSH2 0x3CBF DUP3 DUP8 PUSH2 0x56D5 JUMP JUMPDEST DUP2 SLOAD DUP2 LT PUSH2 0x3CCF JUMPI PUSH2 0x3CCF PUSH2 0x56AD JUMP JUMPDEST PUSH0 SWAP2 DUP3 MSTORE PUSH1 0x20 SWAP2 DUP3 SWAP1 KECCAK256 PUSH1 0x40 DUP1 MLOAD PUSH1 0x80 DUP2 ADD DUP3 MSTORE PUSH1 0x4 SWAP1 SWAP4 MUL SWAP1 SWAP2 ADD DUP1 SLOAD PUSH1 0x1 PUSH1 0x1 PUSH1 0xA0 SHL SUB AND DUP4 MSTORE PUSH1 0x1 DUP2 ADD SLOAD SWAP4 DUP4 ADD SWAP4 SWAP1 SWAP4 MSTORE PUSH1 0x2 DUP4 ADD SLOAD SWAP1 DUP3 ADD MSTORE PUSH1 0x3 SWAP1 SWAP2 ADD SLOAD PUSH1 0x60 DUP3 ADD MSTORE DUP4 MLOAD DUP5 SWAP1 DUP4 SWAP1 DUP2 LT PUSH2 0x3D2C JUMPI PUSH2 0x3D2C PUSH2 0x56AD JUMP JUMPDEST PUSH1 0x20 MUL PUSH1 0x20 ADD ADD DUP2 SWAP1 MSTORE POP DUP1 DUP1 PUSH2 0x3D42 SWAP1 PUSH2 0x589B JUMP JUMPDEST SWAP2 POP POP PUSH2 0x3CAB JUMP JUMPDEST PUSH1 0xCB DUP2 DUP2 SLOAD DUP2 LT PUSH2 0xAD6 JUMPI PUSH0 DUP1 REVERT JUMPDEST PUSH2 0x3D61 PUSH2 0x4086 JUMP JUMPDEST PUSH1 0x1 PUSH1 0x1 PUSH1 0xA0 SHL SUB DUP2 AND PUSH2 0x3DC6 JUMPI PUSH1 0x40 MLOAD PUSH3 0x461BCD PUSH1 0xE5 SHL DUP2 MSTORE PUSH1 0x20 PUSH1 0x4 DUP3 ADD MSTORE PUSH1 0x26 PUSH1 0x24 DUP3 ADD MSTORE PUSH32 0x4F776E61626C653A206E6577206F776E657220697320746865207A65726F2061 PUSH1 0x44 DUP3 ADD MSTORE PUSH6 0x646472657373 PUSH1 0xD0 SHL PUSH1 0x64 DUP3 ADD MSTORE PUSH1 0x84 ADD PUSH2 0xB51 JUMP JUMPDEST PUSH2 0x43D DUP2 PUSH2 0x49A6 JUMP JUMPDEST PUSH1 0x1 PUSH1 0x1 PUSH1 0xA0 SHL SUB DUP2 AND PUSH0 SWAP1 DUP2 MSTORE PUSH1 0xD0 PUSH1 0x20 SWAP1 DUP2 MSTORE PUSH1 0x40 DUP1 DUP4 KECCAK256 DUP1 SLOAD DUP3 MLOAD DUP2 DUP6 MUL DUP2 ADD DUP6 ADD SWAP1 SWAP4 MSTORE DUP1 DUP4 MSTORE PUSH1 0x60 SWAP5 SWAP4 DUP4 ADD DUP3 DUP3 DUP1 ISZERO PUSH2 0x3E2B JUMPI PUSH1 0x20 MUL DUP3 ADD SWAP2 SWAP1 PUSH0 MSTORE PUSH1 0x20 PUSH0 KECCAK256 SWAP1 JUMPDEST DUP2 SLOAD DUP2 MSTORE PUSH1 0x20 ADD SWAP1 PUSH1 0x1 ADD SWAP1 DUP1 DUP4 GT PUSH2 0x3E17 JUMPI JUMPDEST POP POP POP POP POP SWAP1 POP DUP1 MLOAD PUSH1 0x1 PUSH1 0x1 PUSH1 0x40 SHL SUB DUP2 GT ISZERO PUSH2 0x3E4B JUMPI PUSH2 0x3E4B PUSH2 0x5368 JUMP JUMPDEST PUSH1 0x40 MLOAD SWAP1 DUP1 DUP3 MSTORE DUP1 PUSH1 0x20 MUL PUSH1 0x20 ADD DUP3 ADD PUSH1 0x40 MSTORE DUP1 ISZERO PUSH2 0x3EA3 JUMPI DUP2 PUSH1 0x20 ADD JUMPDEST PUSH2 0x3E90 PUSH1 0x40 MLOAD DUP1 PUSH1 0x80 ADD PUSH1 0x40 MSTORE DUP1 PUSH0 DUP2 MSTORE PUSH1 0x20 ADD PUSH0 DUP2 MSTORE PUSH1 0x20 ADD PUSH0 DUP2 MSTORE PUSH1 0x20 ADD PUSH0 DUP2 MSTORE POP SWAP1 JUMP JUMPDEST DUP2 MSTORE PUSH1 0x20 ADD SWAP1 PUSH1 0x1 SWAP1 SUB SWAP1 DUP2 PUSH2 0x3E69 JUMPI SWAP1 POP JUMPDEST POP SWAP2 POP PUSH0 JUMPDEST DUP2 MLOAD DUP2 LT ISZERO PUSH2 0x3607 JUMPI PUSH0 PUSH1 0xCB DUP4 DUP4 DUP2 MLOAD DUP2 LT PUSH2 0x3EC6 JUMPI PUSH2 0x3EC6 PUSH2 0x56AD JUMP JUMPDEST PUSH1 0x20 MUL PUSH1 0x20 ADD ADD MLOAD DUP2 SLOAD DUP2 LT PUSH2 0x3EDE JUMPI PUSH2 0x3EDE PUSH2 0x56AD JUMP JUMPDEST PUSH0 SWAP2 DUP3 MSTORE PUSH1 0x20 DUP1 DUP4 KECCAK256 PUSH1 0x40 DUP1 MLOAD PUSH1 0x80 DUP2 ADD DUP3 MSTORE PUSH1 0x4 SWAP5 DUP6 MUL SWAP1 SWAP3 ADD DUP1 SLOAD PUSH1 0x1 PUSH1 0x1 PUSH1 0xA0 SHL SUB SWAP1 DUP2 AND DUP5 MSTORE PUSH1 0x1 DUP3 ADD SLOAD DUP5 DUP7 ADD MSTORE PUSH1 0x2 DUP3 ADD SLOAD DUP5 DUP5 ADD MSTORE PUSH1 0x3 SWAP1 SWAP2 ADD SLOAD PUSH1 0x60 DUP5 ADD MSTORE PUSH1 0xC9 SLOAD DUP3 MLOAD PUSH4 0x16C42977 PUSH1 0xE1 SHL DUP2 MSTORE SWAP3 MLOAD SWAP4 SWAP8 POP TIMESTAMP SWAP6 SWAP2 AND SWAP4 PUSH4 0x2D8852EE SWAP4 DUP4 DUP4 ADD SWAP4 SWAP2 SWAP3 SWAP1 SWAP2 DUP3 SWAP1 SUB ADD DUP2 DUP7 GAS STATICCALL ISZERO DUP1 ISZERO PUSH2 0x3F63 JUMPI RETURNDATASIZE PUSH0 DUP1 RETURNDATACOPY RETURNDATASIZE PUSH0 REVERT JUMPDEST POP POP POP POP PUSH1 0x40 MLOAD RETURNDATASIZE PUSH1 0x1F NOT PUSH1 0x1F DUP3 ADD AND DUP3 ADD DUP1 PUSH1 0x40 MSTORE POP DUP2 ADD SWAP1 PUSH2 0x3F87 SWAP2 SWAP1 PUSH2 0x57CE JUMP JUMPDEST DUP4 PUSH1 0x40 ADD MLOAD PUSH2 0x3F96 SWAP2 SWAP1 PUSH2 0x56D5 JUMP JUMPDEST GT PUSH2 0x3FA1 JUMPI PUSH0 PUSH2 0x4025 JUMP JUMPDEST PUSH1 0xC9 SLOAD PUSH1 0x40 DUP1 MLOAD PUSH4 0x16C42977 PUSH1 0xE1 SHL DUP2 MSTORE SWAP1 MLOAD TIMESTAMP SWAP3 PUSH1 0x1 PUSH1 0x1 PUSH1 0xA0 SHL SUB AND SWAP2 PUSH4 0x2D8852EE SWAP2 PUSH1 0x4 DUP1 DUP4 ADD SWAP3 PUSH1 0x20 SWAP3 SWAP2 SWAP1 DUP3 SWAP1 SUB ADD DUP2 DUP7 GAS STATICCALL ISZERO DUP1 ISZERO PUSH2 0x3FE8 JUMPI RETURNDATASIZE PUSH0 DUP1 RETURNDATACOPY RETURNDATASIZE PUSH0 REVERT JUMPDEST POP POP POP POP PUSH1 0x40 MLOAD RETURNDATASIZE PUSH1 0x1F NOT PUSH1 0x1F DUP3 ADD AND DUP3 ADD DUP1 PUSH1 0x40 MSTORE POP DUP2 ADD SWAP1 PUSH2 0x400C SWAP2 SWAP1 PUSH2 0x57CE JUMP JUMPDEST DUP4 PUSH1 0x40 ADD MLOAD PUSH2 0x401B SWAP2 SWAP1 PUSH2 0x56D5 JUMP JUMPDEST PUSH2 0x4025 SWAP2 SWAP1 PUSH2 0x56E8 JUMP JUMPDEST SWAP1 POP PUSH1 0x40 MLOAD DUP1 PUSH1 0x80 ADD PUSH1 0x40 MSTORE DUP1 DUP4 PUSH1 0x20 ADD MLOAD DUP2 MSTORE PUSH1 0x20 ADD DUP4 PUSH1 0x40 ADD MLOAD DUP2 MSTORE PUSH1 0x20 ADD DUP3 DUP2 MSTORE PUSH1 0x20 ADD DUP4 PUSH1 0x60 ADD MLOAD DUP2 MSTORE POP DUP6 DUP5 DUP2 MLOAD DUP2 LT PUSH2 0x4066 JUMPI PUSH2 0x4066 PUSH2 0x56AD JUMP JUMPDEST PUSH1 0x20 MUL PUSH1 0x20 ADD ADD DUP2 SWAP1 MSTORE POP POP POP DUP1 DUP1 PUSH2 0x407E SWAP1 PUSH2 0x589B JUMP JUMPDEST SWAP2 POP POP PUSH2 0x3EA8 JUMP JUMPDEST CALLER PUSH2 0x408F PUSH2 0x220B JUMP JUMPDEST PUSH1 0x1 PUSH1 0x1 PUSH1 0xA0 SHL SUB AND EQ PUSH2 0x2190 JUMPI PUSH1 0x40 MLOAD PUSH3 0x461BCD PUSH1 0xE5 SHL DUP2 MSTORE PUSH1 0x20 PUSH1 0x4 DUP3 ADD DUP2 SWAP1 MSTORE PUSH1 0x24 DUP3 ADD MSTORE PUSH32 0x4F776E61626C653A2063616C6C6572206973206E6F7420746865206F776E6572 PUSH1 0x44 DUP3 ADD MSTORE PUSH1 0x64 ADD PUSH2 0xB51 JUMP JUMPDEST PUSH0 DUP1 MLOAD PUSH1 0x20 PUSH2 0x5BB9 DUP4 CODECOPY DUP2 MLOAD SWAP2 MSTORE SLOAD PUSH1 0x1 PUSH1 0x1 PUSH1 0xA0 SHL SUB AND SWAP1 JUMP JUMPDEST PUSH2 0x43D PUSH2 0x4086 JUMP JUMPDEST PUSH32 0x4910FDFA16FED3260ED0E7147F7CC6DA11A60208B5B9406D12A635614FFD9143 SLOAD PUSH1 0xFF AND ISZERO PUSH2 0x413B JUMPI PUSH2 0x1D42 DUP4 PUSH2 0x4B59 JUMP JUMPDEST DUP3 PUSH1 0x1 PUSH1 0x1 PUSH1 0xA0 SHL SUB AND PUSH4 0x52D1902D PUSH1 0x40 MLOAD DUP2 PUSH4 0xFFFFFFFF AND PUSH1 0xE0 SHL DUP2 MSTORE PUSH1 0x4 ADD PUSH1 0x20 PUSH1 0x40 MLOAD DUP1 DUP4 SUB DUP2 DUP7 GAS STATICCALL SWAP3 POP POP POP DUP1 ISZERO PUSH2 0x4195 JUMPI POP PUSH1 0x40 DUP1 MLOAD PUSH1 0x1F RETURNDATASIZE SWAP1 DUP2 ADD PUSH1 0x1F NOT AND DUP3 ADD SWAP1 SWAP3 MSTORE PUSH2 0x4192 SWAP2 DUP2 ADD SWAP1 PUSH2 0x57CE JUMP JUMPDEST PUSH1 0x1 JUMPDEST PUSH2 0x41F8 JUMPI PUSH1 0x40 MLOAD PUSH3 0x461BCD PUSH1 0xE5 SHL DUP2 MSTORE PUSH1 0x20 PUSH1 0x4 DUP3 ADD MSTORE PUSH1 0x2E PUSH1 0x24 DUP3 ADD MSTORE PUSH32 0x45524331393637557067726164653A206E657720696D706C656D656E74617469 PUSH1 0x44 DUP3 ADD MSTORE PUSH14 0x6F6E206973206E6F742055555053 PUSH1 0x90 SHL PUSH1 0x64 DUP3 ADD MSTORE PUSH1 0x84 ADD PUSH2 0xB51 JUMP JUMPDEST PUSH0 DUP1 MLOAD PUSH1 0x20 PUSH2 0x5BB9 DUP4 CODECOPY DUP2 MLOAD SWAP2 MSTORE DUP2 EQ PUSH2 0x4266 JUMPI PUSH1 0x40 MLOAD PUSH3 0x461BCD PUSH1 0xE5 SHL DUP2 MSTORE PUSH1 0x20 PUSH1 0x4 DUP3 ADD MSTORE PUSH1 0x29 PUSH1 0x24 DUP3 ADD MSTORE PUSH32 0x45524331393637557067726164653A20756E737570706F727465642070726F78 PUSH1 0x44 DUP3 ADD MSTORE PUSH9 0x1A58589B1955555251 PUSH1 0xBA SHL PUSH1 0x64 DUP3 ADD MSTORE PUSH1 0x84 ADD PUSH2 0xB51 JUMP JUMPDEST POP PUSH2 0x1D42 DUP4 DUP4 DUP4 PUSH2 0x4BF2 JUMP JUMPDEST PUSH1 0xC9 SLOAD PUSH1 0x40 DUP1 MLOAD PUSH4 0x2F48AB7D PUSH1 0xE0 SHL DUP2 MSTORE SWAP1 MLOAD PUSH0 SWAP3 PUSH1 0x1 PUSH1 0x1 PUSH1 0xA0 SHL SUB AND SWAP2 PUSH4 0x2F48AB7D SWAP2 PUSH1 0x4 DUP1 DUP4 ADD SWAP3 PUSH1 0x20 SWAP3 SWAP2 SWAP1 DUP3 SWAP1 SUB ADD DUP2 DUP7 GAS STATICCALL ISZERO DUP1 ISZERO PUSH2 0x21D9 JUMPI RETURNDATASIZE PUSH0 DUP1 RETURNDATACOPY RETURNDATASIZE PUSH0 REVERT JUMPDEST PUSH0 DUP1 PUSH0 PUSH2 0x42C4 PUSH2 0x4445 JUMP JUMPDEST PUSH1 0x1 PUSH1 0x1 PUSH1 0xA0 SHL SUB AND PUSH4 0x902F1AC PUSH1 0x40 MLOAD DUP2 PUSH4 0xFFFFFFFF AND PUSH1 0xE0 SHL DUP2 MSTORE PUSH1 0x4 ADD PUSH1 0x60 PUSH1 0x40 MLOAD DUP1 DUP4 SUB DUP2 DUP7 GAS STATICCALL ISZERO DUP1 ISZERO PUSH2 0x42FF JUMPI RETURNDATASIZE PUSH0 DUP1 RETURNDATACOPY RETURNDATASIZE PUSH0 REVERT JUMPDEST POP POP POP POP PUSH1 0x40 MLOAD RETURNDATASIZE PUSH1 0x1F NOT PUSH1 0x1F DUP3 ADD AND DUP3 ADD DUP1 PUSH1 0x40 MSTORE POP DUP2 ADD SWAP1 PUSH2 0x4323 SWAP2 SWAP1 PUSH2 0x5830 JUMP JUMPDEST POP SWAP2 POP SWAP2 POP PUSH0 DUP1 PUSH2 0x4332 PUSH2 0x4272 JUMP JUMPDEST PUSH1 0x1 PUSH1 0x1 PUSH1 0xA0 SHL SUB AND PUSH2 0x4343 PUSH2 0x4445 JUMP JUMPDEST PUSH1 0x1 PUSH1 0x1 PUSH1 0xA0 SHL SUB AND PUSH4 0xDFE1681 PUSH1 0x40 MLOAD DUP2 PUSH4 0xFFFFFFFF AND PUSH1 0xE0 SHL DUP2 MSTORE PUSH1 0x4 ADD PUSH1 0x20 PUSH1 0x40 MLOAD DUP1 DUP4 SUB DUP2 DUP7 GAS STATICCALL ISZERO DUP1 ISZERO PUSH2 0x437E JUMPI RETURNDATASIZE PUSH0 DUP1 RETURNDATACOPY RETURNDATASIZE PUSH0 REVERT JUMPDEST POP POP POP POP PUSH1 0x40 MLOAD RETURNDATASIZE PUSH1 0x1F NOT PUSH1 0x1F DUP3 ADD AND DUP3 ADD DUP1 PUSH1 0x40 MSTORE POP DUP2 ADD SWAP1 PUSH2 0x43A2 SWAP2 SWAP1 PUSH2 0x57B3 JUMP JUMPDEST PUSH1 0x1 PUSH1 0x1 PUSH1 0xA0 SHL SUB AND EQ PUSH2 0x43B7 JUMPI DUP3 DUP5 PUSH2 0x43BA JUMP JUMPDEST DUP4 DUP4 JUMPDEST SWAP2 POP SWAP2 POP PUSH2 0x43C6 PUSH2 0x4445 JUMP JUMPDEST PUSH1 0x1 PUSH1 0x1 PUSH1 0xA0 SHL SUB AND PUSH4 0x54D50D4 PUSH8 0xDE0B6B3A7640000 DUP4 DUP6 PUSH1 0x40 MLOAD DUP5 PUSH4 0xFFFFFFFF AND PUSH1 0xE0 SHL DUP2 MSTORE PUSH1 0x4 ADD PUSH2 0x43FD SWAP4 SWAP3 SWAP2 SWAP1 PUSH2 0x587C JUMP JUMPDEST PUSH1 0x20 PUSH1 0x40 MLOAD DUP1 DUP4 SUB DUP2 DUP7 GAS STATICCALL ISZERO DUP1 ISZERO PUSH2 0x4418 JUMPI RETURNDATASIZE PUSH0 DUP1 RETURNDATACOPY RETURNDATASIZE PUSH0 REVERT JUMPDEST POP POP POP POP PUSH1 0x40 MLOAD RETURNDATASIZE PUSH1 0x1F NOT PUSH1 0x1F DUP3 ADD AND DUP3 ADD DUP1 PUSH1 0x40 MSTORE POP DUP2 ADD SWAP1 PUSH2 0x443C SWAP2 SWAP1 PUSH2 0x57CE JUMP JUMPDEST SWAP5 POP POP POP POP POP SWAP1 JUMP JUMPDEST PUSH1 0xC9 SLOAD PUSH1 0x40 DUP1 MLOAD PUSH4 0x5B31DB49 PUSH1 0xE0 SHL DUP2 MSTORE SWAP1 MLOAD PUSH0 SWAP3 PUSH1 0x1 PUSH1 0x1 PUSH1 0xA0 SHL SUB AND SWAP2 PUSH4 0x5B31DB49 SWAP2 PUSH1 0x4 DUP1 DUP4 ADD SWAP3 PUSH1 0x20 SWAP3 SWAP2 SWAP1 DUP3 SWAP1 SUB ADD DUP2 DUP7 GAS STATICCALL ISZERO DUP1 ISZERO PUSH2 0x21D9 JUMPI RETURNDATASIZE PUSH0 DUP1 RETURNDATACOPY RETURNDATASIZE PUSH0 REVERT JUMPDEST PUSH1 0xC9 SLOAD PUSH1 0x40 DUP1 MLOAD PUSH4 0x602E6623 PUSH1 0xE0 SHL DUP2 MSTORE SWAP1 MLOAD PUSH0 SWAP3 PUSH1 0x1 PUSH1 0x1 PUSH1 0xA0 SHL SUB AND SWAP2 PUSH4 0x602E6623 SWAP2 PUSH1 0x4 DUP1 DUP4 ADD SWAP3 PUSH1 0x20 SWAP3 SWAP2 SWAP1 DUP3 SWAP1 SUB ADD DUP2 DUP7 GAS STATICCALL ISZERO DUP1 ISZERO PUSH2 0x21D9 JUMPI RETURNDATASIZE PUSH0 DUP1 RETURNDATACOPY RETURNDATASIZE PUSH0 REVERT JUMPDEST PUSH0 PUSH1 0xD6 SLOAD GT DUP1 ISZERO PUSH2 0x44F2 JUMPI POP PUSH2 0x258 PUSH1 0xD6 SLOAD TIMESTAMP PUSH2 0x44F0 SWAP2 SWAP1 PUSH2 0x56E8 JUMP JUMPDEST GT JUMPDEST ISZERO PUSH2 0x469B JUMPI PUSH0 PUSH2 0x3E8 PUSH1 0xD4 SLOAD PUSH1 0x64 PUSH2 0x450A SWAP2 SWAP1 PUSH2 0x57E5 JUMP JUMPDEST PUSH2 0x4514 SWAP2 SWAP1 PUSH2 0x570F JUMP JUMPDEST SWAP1 POP DUP1 PUSH1 0xD4 PUSH0 DUP3 DUP3 SLOAD PUSH2 0x4527 SWAP2 SWAP1 PUSH2 0x56E8 JUMP JUMPDEST SWAP1 SWAP2 SSTORE POP POP DUP1 ISZERO PUSH2 0x4699 JUMPI PUSH2 0x453A PUSH2 0x4272 JUMP JUMPDEST PUSH1 0x1 PUSH1 0x1 PUSH1 0xA0 SHL SUB AND PUSH4 0xA9059CBB PUSH1 0xCB PUSH1 0x2 PUSH1 0xCB DUP1 SLOAD SWAP1 POP PUSH2 0x455C SWAP2 SWAP1 PUSH2 0x56E8 JUMP JUMPDEST DUP2 SLOAD DUP2 LT PUSH2 0x456C JUMPI PUSH2 0x456C PUSH2 0x56AD JUMP JUMPDEST PUSH0 SWAP2 DUP3 MSTORE PUSH1 0x20 SWAP1 SWAP2 KECCAK256 PUSH1 0x4 SWAP2 DUP3 MUL ADD SLOAD PUSH1 0x40 MLOAD PUSH1 0x1 PUSH1 0x1 PUSH1 0xE0 SHL SUB NOT PUSH1 0xE0 DUP6 SWAP1 SHL AND DUP2 MSTORE PUSH2 0x45A8 SWAP3 PUSH1 0x1 PUSH1 0x1 PUSH1 0xA0 SHL SUB SWAP1 SWAP3 AND SWAP2 DUP7 SWAP2 ADD PUSH2 0x57FC JUMP JUMPDEST PUSH1 0x20 PUSH1 0x40 MLOAD DUP1 DUP4 SUB DUP2 PUSH0 DUP8 GAS CALL ISZERO DUP1 ISZERO PUSH2 0x45C4 JUMPI RETURNDATASIZE PUSH0 DUP1 RETURNDATACOPY RETURNDATASIZE PUSH0 REVERT JUMPDEST POP POP POP POP PUSH1 0x40 MLOAD RETURNDATASIZE PUSH1 0x1F NOT PUSH1 0x1F DUP3 ADD AND DUP3 ADD DUP1 PUSH1 0x40 MSTORE POP DUP2 ADD SWAP1 PUSH2 0x45E8 SWAP2 SWAP1 PUSH2 0x5794 JUMP JUMPDEST POP PUSH1 0xCD PUSH1 0x40 MLOAD DUP1 PUSH1 0x80 ADD PUSH1 0x40 MSTORE DUP1 PUSH1 0xCB PUSH1 0x2 PUSH1 0xCB DUP1 SLOAD SWAP1 POP PUSH2 0x460A SWAP2 SWAP1 PUSH2 0x56E8 JUMP JUMPDEST DUP2 SLOAD DUP2 LT PUSH2 0x461A JUMPI PUSH2 0x461A PUSH2 0x56AD JUMP JUMPDEST PUSH0 SWAP2 DUP3 MSTORE PUSH1 0x20 DUP1 DUP4 KECCAK256 PUSH1 0x4 SWAP3 DUP4 MUL ADD SLOAD PUSH1 0x1 PUSH1 0x1 PUSH1 0xA0 SHL SUB SWAP1 DUP2 AND DUP6 MSTORE DUP5 DUP3 ADD DUP9 SWAP1 MSTORE NUMBER PUSH1 0x40 DUP1 DUP8 ADD SWAP2 SWAP1 SWAP2 MSTORE TIMESTAMP PUSH1 0x60 SWAP7 DUP8 ADD MSTORE DUP8 SLOAD PUSH1 0x1 DUP1 DUP3 ADD DUP11 SSTORE SWAP9 DUP7 MSTORE SWAP5 DUP4 SWAP1 KECCAK256 DUP8 MLOAD SWAP6 SWAP1 SWAP5 MUL SWAP1 SWAP4 ADD DUP1 SLOAD PUSH1 0x1 PUSH1 0x1 PUSH1 0xA0 SHL SUB NOT AND SWAP5 SWAP1 SWAP2 AND SWAP4 SWAP1 SWAP4 OR DUP4 SSTORE DUP5 ADD MLOAD SWAP5 DUP3 ADD SWAP5 SWAP1 SWAP5 SSTORE SWAP3 DUP3 ADD MLOAD PUSH1 0x2 DUP5 ADD SSTORE ADD MLOAD PUSH1 0x3 SWAP1 SWAP2 ADD SSTORE JUMPDEST POP JUMPDEST TIMESTAMP PUSH1 0xD6 SSTORE JUMP JUMPDEST PUSH1 0xCB SLOAD PUSH1 0x1 SUB PUSH2 0x46AD JUMPI JUMP JUMPDEST PUSH0 PUSH1 0xCB PUSH1 0xD7 SLOAD DUP2 SLOAD DUP2 LT PUSH2 0x46C3 JUMPI PUSH2 0x46C3 PUSH2 0x56AD JUMP JUMPDEST PUSH0 SWAP2 DUP3 MSTORE PUSH1 0x20 SWAP2 DUP3 SWAP1 KECCAK256 PUSH1 0x40 DUP1 MLOAD PUSH1 0x80 DUP2 ADD DUP3 MSTORE PUSH1 0x4 SWAP1 SWAP4 MUL SWAP1 SWAP2 ADD DUP1 SLOAD PUSH1 0x1 PUSH1 0x1 PUSH1 0xA0 SHL SUB AND DUP4 MSTORE PUSH1 0x1 DUP2 ADD SLOAD SWAP4 DUP4 ADD SWAP4 SWAP1 SWAP4 MSTORE PUSH1 0x2 DUP4 ADD SLOAD SWAP1 DUP3 ADD DUP2 SWAP1 MSTORE PUSH1 0x3 SWAP1 SWAP3 ADD SLOAD PUSH1 0x60 DUP3 ADD MSTORE SWAP2 POP PUSH3 0x15180 SWAP1 PUSH2 0x471F SWAP1 TIMESTAMP PUSH2 0x56E8 JUMP JUMPDEST GT DUP1 ISZERO PUSH2 0x473B JUMPI POP PUSH3 0x15180 PUSH1 0xD8 SLOAD TIMESTAMP PUSH2 0x4739 SWAP2 SWAP1 PUSH2 0x56E8 JUMP JUMPDEST GT JUMPDEST ISZERO PUSH2 0x48EB JUMPI PUSH0 PUSH2 0x3E8 PUSH1 0xD5 SLOAD PUSH2 0x1F4 PUSH2 0x4754 SWAP2 SWAP1 PUSH2 0x57E5 JUMP JUMPDEST PUSH2 0x475E SWAP2 SWAP1 PUSH2 0x570F JUMP JUMPDEST SWAP1 POP DUP1 PUSH1 0xD5 PUSH0 DUP3 DUP3 SLOAD PUSH2 0x4771 SWAP2 SWAP1 PUSH2 0x56E8 JUMP JUMPDEST SWAP1 SWAP2 SSTORE POP POP DUP1 ISZERO PUSH2 0x48E5 JUMPI PUSH2 0x4784 PUSH2 0x4272 JUMP JUMPDEST DUP3 MLOAD PUSH1 0x40 MLOAD PUSH4 0xA9059CBB PUSH1 0xE0 SHL DUP2 MSTORE PUSH1 0x1 PUSH1 0x1 PUSH1 0xA0 SHL SUB SWAP3 SWAP1 SWAP3 AND SWAP2 PUSH4 0xA9059CBB SWAP2 PUSH2 0x47B4 SWAP2 DUP6 SWAP1 PUSH1 0x4 ADD PUSH2 0x57FC JUMP JUMPDEST PUSH1 0x20 PUSH1 0x40 MLOAD DUP1 DUP4 SUB DUP2 PUSH0 DUP8 GAS CALL ISZERO DUP1 ISZERO PUSH2 0x47D0 JUMPI RETURNDATASIZE PUSH0 DUP1 RETURNDATACOPY RETURNDATASIZE PUSH0 REVERT JUMPDEST POP POP POP POP PUSH1 0x40 MLOAD RETURNDATASIZE PUSH1 0x1F NOT PUSH1 0x1F DUP3 ADD AND DUP3 ADD DUP1 PUSH1 0x40 MSTORE POP DUP2 ADD SWAP1 PUSH2 0x47F4 SWAP2 SWAP1 PUSH2 0x5794 JUMP JUMPDEST POP PUSH1 0x40 DUP1 MLOAD PUSH1 0x80 DUP2 ADD DUP3 MSTORE DUP4 MLOAD PUSH1 0x1 PUSH1 0x1 PUSH1 0xA0 SHL SUB SWAP1 DUP2 AND DUP3 MSTORE PUSH1 0x20 DUP3 ADD DUP5 DUP2 MSTORE NUMBER SWAP4 DUP4 ADD SWAP4 DUP5 MSTORE TIMESTAMP PUSH1 0x60 DUP5 ADD SWAP1 DUP2 MSTORE PUSH1 0xCE DUP1 SLOAD PUSH1 0x1 DUP2 ADD DUP3 SSTORE PUSH0 SWAP2 SWAP1 SWAP2 MSTORE SWAP4 MLOAD PUSH32 0xD36CD1C74EF8D7326D8021B776C18FB5A5724B7F7BC93C2F42E43E10EF27D12A PUSH1 0x4 SWAP1 SWAP6 MUL SWAP5 DUP6 ADD DUP1 SLOAD PUSH1 0x1 PUSH1 0x1 PUSH1 0xA0 SHL SUB NOT AND SWAP2 SWAP1 SWAP5 AND OR SWAP1 SWAP3 SSTORE MLOAD PUSH32 0xD36CD1C74EF8D7326D8021B776C18FB5A5724B7F7BC93C2F42E43E10EF27D12B DUP4 ADD SSTORE SWAP2 MLOAD PUSH32 0xD36CD1C74EF8D7326D8021B776C18FB5A5724B7F7BC93C2F42E43E10EF27D12C DUP3 ADD SSTORE SWAP1 MLOAD PUSH32 0xD36CD1C74EF8D7326D8021B776C18FB5A5724B7F7BC93C2F42E43E10EF27D12D SWAP1 SWAP2 ADD SSTORE JUMPDEST POP TIMESTAMP PUSH1 0xD8 SSTORE JUMPDEST PUSH1 0x20 DUP2 ADD MLOAD PUSH1 0xCB DUP1 SLOAD PUSH2 0x4900 SWAP1 PUSH1 0x1 SWAP1 PUSH2 0x56E8 JUMP JUMPDEST DUP2 SLOAD DUP2 LT PUSH2 0x4910 JUMPI PUSH2 0x4910 PUSH2 0x56AD JUMP JUMPDEST SWAP1 PUSH0 MSTORE PUSH1 0x20 PUSH0 KECCAK256 SWAP1 PUSH1 0x4 MUL ADD PUSH1 0x1 ADD SLOAD GT ISZERO PUSH2 0x43D JUMPI PUSH1 0xCB SLOAD PUSH2 0x4935 SWAP1 PUSH1 0x1 SWAP1 PUSH2 0x56E8 JUMP JUMPDEST PUSH1 0xD7 SSTORE POP JUMP JUMPDEST PUSH1 0xC9 SLOAD PUSH1 0x40 DUP1 MLOAD PUSH4 0x16C42977 PUSH1 0xE1 SHL DUP2 MSTORE SWAP1 MLOAD PUSH0 SWAP3 PUSH1 0x1 PUSH1 0x1 PUSH1 0xA0 SHL SUB AND SWAP2 PUSH4 0x2D8852EE SWAP2 PUSH1 0x4 DUP1 DUP4 ADD SWAP3 PUSH1 0x20 SWAP3 SWAP2 SWAP1 DUP3 SWAP1 SUB ADD DUP2 DUP7 GAS STATICCALL ISZERO DUP1 ISZERO PUSH2 0x4982 JUMPI RETURNDATASIZE PUSH0 DUP1 RETURNDATACOPY RETURNDATASIZE PUSH0 REVERT JUMPDEST POP POP POP POP PUSH1 0x40 MLOAD RETURNDATASIZE PUSH1 0x1F NOT PUSH1 0x1F DUP3 ADD AND DUP3 ADD DUP1 PUSH1 0x40 MSTORE POP DUP2 ADD SWAP1 PUSH2 0x21FD SWAP2 SWAP1 PUSH2 0x57CE JUMP JUMPDEST PUSH1 0x33 DUP1 SLOAD PUSH1 0x1 PUSH1 0x1 PUSH1 0xA0 SHL SUB DUP4 DUP2 AND PUSH1 0x1 PUSH1 0x1 PUSH1 0xA0 SHL SUB NOT DUP4 AND DUP2 OR SWAP1 SWAP4 SSTORE PUSH1 0x40 MLOAD SWAP2 AND SWAP2 SWAP1 DUP3 SWAP1 PUSH32 0x8BE0079C531659141344CD1FD0A4F28419497F9722A3DAAFE3B4186F6B6457E0 SWAP1 PUSH0 SWAP1 LOG3 POP POP JUMP JUMPDEST PUSH1 0x1 PUSH1 0x1 PUSH1 0xA0 SHL SUB AND EXTCODESIZE ISZERO ISZERO SWAP1 JUMP JUMPDEST PUSH0 SLOAD PUSH2 0x100 SWAP1 DIV PUSH1 0xFF AND PUSH2 0x4A2C JUMPI PUSH1 0x40 MLOAD PUSH3 0x461BCD PUSH1 0xE5 SHL DUP2 MSTORE PUSH1 0x4 ADD PUSH2 0xB51 SWAP1 PUSH2 0x59F4 JUMP JUMPDEST PUSH2 0x2190 PUSH2 0x4C1C JUMP JUMPDEST PUSH0 DUP1 PUSH0 PUSH2 0x4A41 DUP6 DUP6 PUSH2 0x4C4B JUMP JUMPDEST SWAP2 POP SWAP2 POP PUSH2 0x4A4E DUP2 PUSH2 0x4C8D JUMP JUMPDEST POP SWAP1 POP JUMPDEST SWAP3 SWAP2 POP POP JUMP JUMPDEST PUSH0 DUP1 DUP1 DUP1 DUP1 DUP1 PUSH2 0x4A73 PUSH2 0x4A6E PUSH3 0x15180 DUP10 PUSH2 0x570F JUMP JUMPDEST PUSH2 0x4DD1 JUMP JUMPDEST SWAP2 SWAP8 POP SWAP6 POP SWAP4 POP PUSH0 PUSH2 0x4A88 PUSH3 0x15180 DUP10 PUSH2 0x5A3F JUMP JUMPDEST SWAP1 POP PUSH2 0x4A96 PUSH2 0xE10 DUP3 PUSH2 0x570F JUMP JUMPDEST SWAP4 POP PUSH2 0x4AA4 PUSH2 0xE10 DUP3 PUSH2 0x5A3F JUMP JUMPDEST SWAP1 POP PUSH2 0x4AB1 PUSH1 0x3C DUP3 PUSH2 0x570F JUMP JUMPDEST SWAP3 POP PUSH2 0x4ABE PUSH1 0x3C DUP3 PUSH2 0x5A3F JUMP JUMPDEST SWAP2 POP POP SWAP2 SWAP4 SWAP6 POP SWAP2 SWAP4 SWAP6 JUMP JUMPDEST PUSH1 0x60 PUSH0 PUSH2 0x4AD6 DUP4 PUSH2 0x4F40 JUMP JUMPDEST PUSH1 0x1 ADD SWAP1 POP PUSH0 DUP2 PUSH1 0x1 PUSH1 0x1 PUSH1 0x40 SHL SUB DUP2 GT ISZERO PUSH2 0x4AF4 JUMPI PUSH2 0x4AF4 PUSH2 0x5368 JUMP JUMPDEST PUSH1 0x40 MLOAD SWAP1 DUP1 DUP3 MSTORE DUP1 PUSH1 0x1F ADD PUSH1 0x1F NOT AND PUSH1 0x20 ADD DUP3 ADD PUSH1 0x40 MSTORE DUP1 ISZERO PUSH2 0x4B1E JUMPI PUSH1 0x20 DUP3 ADD DUP2 DUP1 CALLDATASIZE DUP4 CALLDATACOPY ADD SWAP1 POP JUMPDEST POP SWAP1 POP DUP2 DUP2 ADD PUSH1 0x20 ADD JUMPDEST PUSH0 NOT ADD PUSH16 0x181899199A1A9B1B9C1CB0B131B232B3 PUSH1 0x81 SHL PUSH1 0xA DUP7 MOD BYTE DUP2 MSTORE8 PUSH1 0xA DUP6 DIV SWAP5 POP DUP5 PUSH2 0x4B28 JUMPI POP SWAP4 SWAP3 POP POP POP JUMP JUMPDEST PUSH2 0x4B62 DUP2 PUSH2 0x49F7 JUMP JUMPDEST PUSH2 0x4BC4 JUMPI PUSH1 0x40 MLOAD PUSH3 0x461BCD PUSH1 0xE5 SHL DUP2 MSTORE PUSH1 0x20 PUSH1 0x4 DUP3 ADD MSTORE PUSH1 0x2D PUSH1 0x24 DUP3 ADD MSTORE PUSH32 0x455243313936373A206E657720696D706C656D656E746174696F6E206973206E PUSH1 0x44 DUP3 ADD MSTORE PUSH13 0x1BDD08184818DBDB9D1C9858DD PUSH1 0x9A SHL PUSH1 0x64 DUP3 ADD MSTORE PUSH1 0x84 ADD PUSH2 0xB51 JUMP JUMPDEST PUSH0 DUP1 MLOAD PUSH1 0x20 PUSH2 0x5BB9 DUP4 CODECOPY DUP2 MLOAD SWAP2 MSTORE DUP1 SLOAD PUSH1 0x1 PUSH1 0x1 PUSH1 0xA0 SHL SUB NOT AND PUSH1 0x1 PUSH1 0x1 PUSH1 0xA0 SHL SUB SWAP3 SWAP1 SWAP3 AND SWAP2 SWAP1 SWAP2 OR SWAP1 SSTORE JUMP JUMPDEST PUSH2 0x4BFB DUP4 PUSH2 0x5015 JUMP JUMPDEST PUSH0 DUP3 MLOAD GT DUP1 PUSH2 0x4C07 JUMPI POP DUP1 JUMPDEST ISZERO PUSH2 0x1D42 JUMPI PUSH2 0x4C16 DUP4 DUP4 PUSH2 0x5054 JUMP JUMPDEST POP POP POP POP JUMP JUMPDEST PUSH0 SLOAD PUSH2 0x100 SWAP1 DIV PUSH1 0xFF AND PUSH2 0x4C42 JUMPI PUSH1 0x40 MLOAD PUSH3 0x461BCD PUSH1 0xE5 SHL DUP2 MSTORE PUSH1 0x4 ADD PUSH2 0xB51 SWAP1 PUSH2 0x59F4 JUMP JUMPDEST PUSH2 0x2190 CALLER PUSH2 0x49A6 JUMP JUMPDEST PUSH0 DUP1 DUP3 MLOAD PUSH1 0x41 SUB PUSH2 0x4C7F JUMPI PUSH1 0x20 DUP4 ADD MLOAD PUSH1 0x40 DUP5 ADD MLOAD PUSH1 0x60 DUP6 ADD MLOAD PUSH0 BYTE PUSH2 0x4C73 DUP8 DUP3 DUP6 DUP6 PUSH2 0x5142 JUMP JUMPDEST SWAP5 POP SWAP5 POP POP POP POP PUSH2 0x4C86 JUMP JUMPDEST POP PUSH0 SWAP1 POP PUSH1 0x2 JUMPDEST SWAP3 POP SWAP3 SWAP1 POP JUMP JUMPDEST PUSH0 DUP2 PUSH1 0x4 DUP2 GT ISZERO PUSH2 0x4CA0 JUMPI PUSH2 0x4CA0 PUSH2 0x5A52 JUMP JUMPDEST SUB PUSH2 0x4CA8 JUMPI POP JUMP JUMPDEST PUSH1 0x1 DUP2 PUSH1 0x4 DUP2 GT ISZERO PUSH2 0x4CBC JUMPI PUSH2 0x4CBC PUSH2 0x5A52 JUMP JUMPDEST SUB PUSH2 0x4D04 JUMPI PUSH1 0x40 MLOAD PUSH3 0x461BCD PUSH1 0xE5 SHL DUP2 MSTORE PUSH1 0x20 PUSH1 0x4 DUP3 ADD MSTORE PUSH1 0x18 PUSH1 0x24 DUP3 ADD MSTORE PUSH24 0x45434453413A20696E76616C6964207369676E6174757265 PUSH1 0x40 SHL PUSH1 0x44 DUP3 ADD MSTORE PUSH1 0x64 ADD PUSH2 0xB51 JUMP JUMPDEST PUSH1 0x2 DUP2 PUSH1 0x4 DUP2 GT ISZERO PUSH2 0x4D18 JUMPI PUSH2 0x4D18 PUSH2 0x5A52 JUMP JUMPDEST SUB PUSH2 0x4D65 JUMPI PUSH1 0x40 MLOAD PUSH3 0x461BCD PUSH1 0xE5 SHL DUP2 MSTORE PUSH1 0x20 PUSH1 0x4 DUP3 ADD MSTORE PUSH1 0x1F PUSH1 0x24 DUP3 ADD MSTORE PUSH32 0x45434453413A20696E76616C6964207369676E6174757265206C656E67746800 PUSH1 0x44 DUP3 ADD MSTORE PUSH1 0x64 ADD PUSH2 0xB51 JUMP JUMPDEST PUSH1 0x3 DUP2 PUSH1 0x4 DUP2 GT ISZERO PUSH2 0x4D79 JUMPI PUSH2 0x4D79 PUSH2 0x5A52 JUMP JUMPDEST SUB PUSH2 0x43D JUMPI PUSH1 0x40 MLOAD PUSH3 0x461BCD PUSH1 0xE5 SHL DUP2 MSTORE PUSH1 0x20 PUSH1 0x4 DUP3 ADD MSTORE PUSH1 0x22 PUSH1 0x24 DUP3 ADD MSTORE PUSH32 0x45434453413A20696E76616C6964207369676E6174757265202773272076616C PUSH1 0x44 DUP3 ADD MSTORE PUSH2 0x7565 PUSH1 0xF0 SHL PUSH1 0x64 DUP3 ADD MSTORE PUSH1 0x84 ADD PUSH2 0xB51 JUMP JUMPDEST PUSH0 DUP1 DUP1 DUP4 DUP2 PUSH3 0x253D8C PUSH2 0x4DE7 DUP4 PUSH3 0x10BD9 PUSH2 0x5A66 JUMP JUMPDEST PUSH2 0x4DF1 SWAP2 SWAP1 PUSH2 0x5A66 JUMP JUMPDEST SWAP1 POP PUSH0 PUSH3 0x23AB1 PUSH2 0x4E03 DUP4 PUSH1 0x4 PUSH2 0x5A85 JUMP JUMPDEST PUSH2 0x4E0D SWAP2 SWAP1 PUSH2 0x5AB4 JUMP JUMPDEST SWAP1 POP PUSH1 0x4 PUSH2 0x4E1E DUP3 PUSH3 0x23AB1 PUSH2 0x5A85 JUMP JUMPDEST PUSH2 0x4E29 SWAP1 PUSH1 0x3 PUSH2 0x5A66 JUMP JUMPDEST PUSH2 0x4E33 SWAP2 SWAP1 PUSH2 0x5AB4 JUMP JUMPDEST PUSH2 0x4E3D SWAP1 DUP4 PUSH2 0x5AE0 JUMP JUMPDEST SWAP2 POP PUSH0 PUSH3 0x164B09 PUSH2 0x4E4F DUP5 PUSH1 0x1 PUSH2 0x5A66 JUMP JUMPDEST PUSH2 0x4E5B SWAP1 PUSH2 0xFA0 PUSH2 0x5A85 JUMP JUMPDEST PUSH2 0x4E65 SWAP2 SWAP1 PUSH2 0x5AB4 JUMP JUMPDEST SWAP1 POP PUSH1 0x4 PUSH2 0x4E75 DUP3 PUSH2 0x5B5 PUSH2 0x5A85 JUMP JUMPDEST PUSH2 0x4E7F SWAP2 SWAP1 PUSH2 0x5AB4 JUMP JUMPDEST PUSH2 0x4E89 SWAP1 DUP5 PUSH2 0x5AE0 JUMP JUMPDEST PUSH2 0x4E94 SWAP1 PUSH1 0x1F PUSH2 0x5A66 JUMP JUMPDEST SWAP3 POP PUSH0 PUSH2 0x98F PUSH2 0x4EA5 DUP6 PUSH1 0x50 PUSH2 0x5A85 JUMP JUMPDEST PUSH2 0x4EAF SWAP2 SWAP1 PUSH2 0x5AB4 JUMP JUMPDEST SWAP1 POP PUSH0 PUSH1 0x50 PUSH2 0x4EC0 DUP4 PUSH2 0x98F PUSH2 0x5A85 JUMP JUMPDEST PUSH2 0x4ECA SWAP2 SWAP1 PUSH2 0x5AB4 JUMP JUMPDEST PUSH2 0x4ED4 SWAP1 DUP7 PUSH2 0x5AE0 JUMP JUMPDEST SWAP1 POP PUSH2 0x4EE1 PUSH1 0xB DUP4 PUSH2 0x5AB4 JUMP JUMPDEST SWAP5 POP PUSH2 0x4EEE DUP6 PUSH1 0xC PUSH2 0x5A85 JUMP JUMPDEST PUSH2 0x4EF9 DUP4 PUSH1 0x2 PUSH2 0x5A66 JUMP JUMPDEST PUSH2 0x4F03 SWAP2 SWAP1 PUSH2 0x5AE0 JUMP JUMPDEST SWAP2 POP DUP5 DUP4 PUSH2 0x4F12 PUSH1 0x31 DUP8 PUSH2 0x5AE0 JUMP JUMPDEST PUSH2 0x4F1D SWAP1 PUSH1 0x64 PUSH2 0x5A85 JUMP JUMPDEST PUSH2 0x4F27 SWAP2 SWAP1 PUSH2 0x5A66 JUMP JUMPDEST PUSH2 0x4F31 SWAP2 SWAP1 PUSH2 0x5A66 JUMP JUMPDEST SWAP11 SWAP2 SWAP10 POP SWAP8 POP SWAP6 POP POP POP POP POP POP JUMP JUMPDEST PUSH0 DUP1 PUSH19 0x184F03E93FF9F4DAA797ED6E38ED64BF6A1F01 PUSH1 0x40 SHL DUP4 LT PUSH2 0x4F7E JUMPI PUSH19 0x184F03E93FF9F4DAA797ED6E38ED64BF6A1F01 PUSH1 0x40 SHL DUP4 DIV SWAP3 POP PUSH1 0x40 ADD JUMPDEST PUSH10 0x4EE2D6D415B85ACEF81 PUSH1 0x20 SHL DUP4 LT PUSH2 0x4FA8 JUMPI PUSH10 0x4EE2D6D415B85ACEF81 PUSH1 0x20 SHL DUP4 DIV SWAP3 POP PUSH1 0x20 ADD JUMPDEST PUSH7 0x2386F26FC10000 DUP4 LT PUSH2 0x4FC6 JUMPI PUSH7 0x2386F26FC10000 DUP4 DIV SWAP3 POP PUSH1 0x10 ADD JUMPDEST PUSH4 0x5F5E100 DUP4 LT PUSH2 0x4FDE JUMPI PUSH4 0x5F5E100 DUP4 DIV SWAP3 POP PUSH1 0x8 ADD JUMPDEST PUSH2 0x2710 DUP4 LT PUSH2 0x4FF2 JUMPI PUSH2 0x2710 DUP4 DIV SWAP3 POP PUSH1 0x4 ADD JUMPDEST PUSH1 0x64 DUP4 LT PUSH2 0x5004 JUMPI PUSH1 0x64 DUP4 DIV SWAP3 POP PUSH1 0x2 ADD JUMPDEST PUSH1 0xA DUP4 LT PUSH2 0x4A52 JUMPI PUSH1 0x1 ADD SWAP3 SWAP2 POP POP JUMP JUMPDEST PUSH2 0x501E DUP2 PUSH2 0x4B59 JUMP JUMPDEST PUSH1 0x40 MLOAD PUSH1 0x1 PUSH1 0x1 PUSH1 0xA0 SHL SUB DUP3 AND SWAP1 PUSH32 0xBC7CD75A20EE27FD9ADEBAB32041F755214DBC6BFFA90CC0225B39DA2E5C2D3B SWAP1 PUSH0 SWAP1 LOG2 POP JUMP JUMPDEST PUSH1 0x60 PUSH2 0x505F DUP4 PUSH2 0x49F7 JUMP JUMPDEST PUSH2 0x50BA JUMPI PUSH1 0x40 MLOAD PUSH3 0x461BCD PUSH1 0xE5 SHL DUP2 MSTORE PUSH1 0x20 PUSH1 0x4 DUP3 ADD MSTORE PUSH1 0x26 PUSH1 0x24 DUP3 ADD MSTORE PUSH32 0x416464726573733A2064656C65676174652063616C6C20746F206E6F6E2D636F PUSH1 0x44 DUP3 ADD MSTORE PUSH6 0x1B9D1C9858DD PUSH1 0xD2 SHL PUSH1 0x64 DUP3 ADD MSTORE PUSH1 0x84 ADD PUSH2 0xB51 JUMP JUMPDEST PUSH0 DUP1 DUP5 PUSH1 0x1 PUSH1 0x1 PUSH1 0xA0 SHL SUB AND DUP5 PUSH1 0x40 MLOAD PUSH2 0x50D4 SWAP2 SWAP1 PUSH2 0x59D9 JUMP JUMPDEST PUSH0 PUSH1 0x40 MLOAD DUP1 DUP4 SUB DUP2 DUP6 GAS DELEGATECALL SWAP2 POP POP RETURNDATASIZE DUP1 PUSH0 DUP2 EQ PUSH2 0x510C JUMPI PUSH1 0x40 MLOAD SWAP2 POP PUSH1 0x1F NOT PUSH1 0x3F RETURNDATASIZE ADD AND DUP3 ADD PUSH1 0x40 MSTORE RETURNDATASIZE DUP3 MSTORE RETURNDATASIZE PUSH0 PUSH1 0x20 DUP5 ADD RETURNDATACOPY PUSH2 0x5111 JUMP JUMPDEST PUSH1 0x60 SWAP2 POP JUMPDEST POP SWAP2 POP SWAP2 POP PUSH2 0x5139 DUP3 DUP3 PUSH1 0x40 MLOAD DUP1 PUSH1 0x60 ADD PUSH1 0x40 MSTORE DUP1 PUSH1 0x27 DUP2 MSTORE PUSH1 0x20 ADD PUSH2 0x5BD9 PUSH1 0x27 SWAP2 CODECOPY PUSH2 0x51F5 JUMP JUMPDEST SWAP6 SWAP5 POP POP POP POP POP JUMP JUMPDEST PUSH0 DUP1 PUSH16 0xA2A8918CA85BAFE22016D0B997E4DF60 PUSH1 0x1 PUSH1 0xFF SHL SUB DUP4 GT ISZERO PUSH2 0x516D JUMPI POP PUSH0 SWAP1 POP PUSH1 0x3 PUSH2 0x51EC JUMP JUMPDEST PUSH1 0x40 DUP1 MLOAD PUSH0 DUP1 DUP3 MSTORE PUSH1 0x20 DUP3 ADD DUP1 DUP5 MSTORE DUP10 SWAP1 MSTORE PUSH1 0xFF DUP9 AND SWAP3 DUP3 ADD SWAP3 SWAP1 SWAP3 MSTORE PUSH1 0x60 DUP2 ADD DUP7 SWAP1 MSTORE PUSH1 0x80 DUP2 ADD DUP6 SWAP1 MSTORE PUSH1 0x1 SWAP1 PUSH1 0xA0 ADD PUSH1 0x20 PUSH1 0x40 MLOAD PUSH1 0x20 DUP2 SUB SWAP1 DUP1 DUP5 SUB SWAP1 DUP6 GAS STATICCALL ISZERO DUP1 ISZERO PUSH2 0x51BE JUMPI RETURNDATASIZE PUSH0 DUP1 RETURNDATACOPY RETURNDATASIZE PUSH0 REVERT JUMPDEST POP POP PUSH1 0x40 MLOAD PUSH1 0x1F NOT ADD MLOAD SWAP2 POP POP PUSH1 0x1 PUSH1 0x1 PUSH1 0xA0 SHL SUB DUP2 AND PUSH2 0x51E6 JUMPI PUSH0 PUSH1 0x1 SWAP3 POP SWAP3 POP POP PUSH2 0x51EC JUMP JUMPDEST SWAP2 POP PUSH0 SWAP1 POP JUMPDEST SWAP5 POP SWAP5 SWAP3 POP POP POP JUMP JUMPDEST PUSH1 0x60 DUP4 ISZERO PUSH2 0x5204 JUMPI POP DUP2 PUSH2 0x520E JUMP JUMPDEST PUSH2 0x520E DUP4 DUP4 PUSH2 0x5215 JUMP JUMPDEST SWAP4 SWAP3 POP POP POP JUMP JUMPDEST DUP2 MLOAD ISZERO PUSH2 0x5225 JUMPI DUP2 MLOAD DUP1 DUP4 PUSH1 0x20 ADD REVERT JUMPDEST DUP1 PUSH1 0x40 MLOAD PUSH3 0x461BCD PUSH1 0xE5 SHL DUP2 MSTORE PUSH1 0x4 ADD PUSH2 0xB51 SWAP2 SWAP1 PUSH2 0x5B06 JUMP JUMPDEST PUSH1 0x40 MLOAD DUP1 PUSH1 0x80 ADD PUSH1 0x40 MSTORE DUP1 PUSH0 PUSH1 0x1 PUSH1 0x1 PUSH1 0xA0 SHL SUB AND DUP2 MSTORE PUSH1 0x20 ADD PUSH0 DUP2 MSTORE PUSH1 0x20 ADD PUSH0 DUP2 MSTORE PUSH1 0x20 ADD PUSH0 DUP2 MSTORE POP SWAP1 JUMP JUMPDEST PUSH1 0x1 PUSH1 0x1 PUSH1 0xA0 SHL SUB DUP2 AND DUP2 EQ PUSH2 0x43D JUMPI PUSH0 DUP1 REVERT JUMPDEST PUSH0 PUSH1 0x20 DUP3 DUP5 SUB SLT ISZERO PUSH2 0x5290 JUMPI PUSH0 DUP1 REVERT JUMPDEST DUP2 CALLDATALOAD PUSH2 0x520E DUP2 PUSH2 0x526C JUMP JUMPDEST DUP1 MLOAD DUP3 MSTORE PUSH1 0x20 DUP2 ADD MLOAD PUSH1 0x20 DUP4 ADD MSTORE PUSH1 0x40 DUP2 ADD MLOAD PUSH1 0x40 DUP4 ADD MSTORE PUSH1 0x60 DUP2 ADD MLOAD PUSH1 0x60 DUP4 ADD MSTORE POP POP JUMP JUMPDEST PUSH1 0x80 DUP2 ADD PUSH2 0x4A52 DUP3 DUP5 PUSH2 0x529B JUMP JUMPDEST DUP2 MLOAD DUP2 MSTORE PUSH1 0x20 DUP1 DUP4 ADD MLOAD SWAP1 DUP3 ADD MSTORE PUSH1 0x40 DUP1 DUP4 ADD MLOAD SWAP1 DUP3 ADD MSTORE PUSH1 0x60 DUP1 DUP4 ADD MLOAD SWAP1 DUP3 ADD MSTORE PUSH1 0x80 DUP1 DUP4 ADD MLOAD PUSH1 0x1 PUSH1 0x1 PUSH1 0xA0 SHL SUB AND SWAP1 DUP3 ADD MSTORE PUSH1 0xA0 DUP2 ADD PUSH2 0x4A52 JUMP JUMPDEST PUSH0 PUSH1 0x20 DUP3 DUP5 SUB SLT ISZERO PUSH2 0x531D JUMPI PUSH0 DUP1 REVERT JUMPDEST POP CALLDATALOAD SWAP2 SWAP1 POP JUMP JUMPDEST PUSH1 0x1 PUSH1 0x1 PUSH1 0xA0 SHL SUB SWAP4 DUP5 AND DUP2 MSTORE SWAP2 SWAP1 SWAP3 AND PUSH1 0x20 DUP3 ADD MSTORE PUSH1 0x40 DUP2 ADD SWAP2 SWAP1 SWAP2 MSTORE PUSH1 0x60 ADD SWAP1 JUMP JUMPDEST PUSH0 DUP1 PUSH1 0x40 DUP4 DUP6 SUB SLT ISZERO PUSH2 0x5359 JUMPI PUSH0 DUP1 REVERT JUMPDEST POP POP DUP1 CALLDATALOAD SWAP3 PUSH1 0x20 SWAP1 SWAP2 ADD CALLDATALOAD SWAP2 POP JUMP JUMPDEST PUSH4 0x4E487B71 PUSH1 0xE0 SHL PUSH0 MSTORE PUSH1 0x41 PUSH1 0x4 MSTORE PUSH1 0x24 PUSH0 REVERT JUMPDEST PUSH0 PUSH1 0x1 PUSH1 0x1 PUSH1 0x40 SHL SUB DUP1 DUP5 GT ISZERO PUSH2 0x5395 JUMPI PUSH2 0x5395 PUSH2 0x5368 JUMP JUMPDEST PUSH1 0x40 MLOAD PUSH1 0x1F DUP6 ADD PUSH1 0x1F NOT SWAP1 DUP2 AND PUSH1 0x3F ADD AND DUP2 ADD SWAP1 DUP3 DUP3 GT DUP2 DUP4 LT OR ISZERO PUSH2 0x53BD JUMPI PUSH2 0x53BD PUSH2 0x5368 JUMP JUMPDEST DUP2 PUSH1 0x40 MSTORE DUP1 SWAP4 POP DUP6 DUP2 MSTORE DUP7 DUP7 DUP7 ADD GT ISZERO PUSH2 0x53D5 JUMPI PUSH0 DUP1 REVERT JUMPDEST DUP6 DUP6 PUSH1 0x20 DUP4 ADD CALLDATACOPY PUSH0 PUSH1 0x20 DUP8 DUP4 ADD ADD MSTORE POP POP POP SWAP4 SWAP3 POP POP POP JUMP JUMPDEST PUSH0 DUP3 PUSH1 0x1F DUP4 ADD SLT PUSH2 0x53FD JUMPI PUSH0 DUP1 REVERT JUMPDEST PUSH2 0x520E DUP4 DUP4 CALLDATALOAD PUSH1 0x20 DUP6 ADD PUSH2 0x537C JUMP JUMPDEST PUSH0 DUP1 PUSH1 0x40 DUP4 DUP6 SUB SLT ISZERO PUSH2 0x541D JUMPI PUSH0 DUP1 REVERT JUMPDEST DUP3 CALLDATALOAD PUSH2 0x5428 DUP2 PUSH2 0x526C JUMP JUMPDEST SWAP2 POP PUSH1 0x20 DUP4 ADD CALLDATALOAD PUSH1 0x1 PUSH1 0x1 PUSH1 0x40 SHL SUB DUP2 GT ISZERO PUSH2 0x5442 JUMPI PUSH0 DUP1 REVERT JUMPDEST PUSH2 0x544E DUP6 DUP3 DUP7 ADD PUSH2 0x53EE JUMP JUMPDEST SWAP2 POP POP SWAP3 POP SWAP3 SWAP1 POP JUMP JUMPDEST PUSH1 0x20 DUP1 DUP3 MSTORE DUP3 MLOAD DUP3 DUP3 ADD DUP2 SWAP1 MSTORE PUSH0 SWAP2 SWAP1 PUSH1 0x40 SWAP1 DUP2 DUP6 ADD SWAP1 DUP7 DUP5 ADD DUP6 JUMPDEST DUP3 DUP2 LT ISZERO PUSH2 0x54AF JUMPI DUP2 MLOAD DUP1 MLOAD PUSH1 0x1 PUSH1 0x1 PUSH1 0xA0 SHL SUB SWAP1 DUP2 AND DUP7 MSTORE DUP8 DUP3 ADD MLOAD AND DUP8 DUP7 ADD MSTORE DUP6 ADD MLOAD DUP6 DUP6 ADD MSTORE PUSH1 0x60 SWAP1 SWAP4 ADD SWAP3 SWAP1 DUP6 ADD SWAP1 PUSH1 0x1 ADD PUSH2 0x5474 JUMP JUMPDEST POP SWAP2 SWAP8 SWAP7 POP POP POP POP POP POP POP JUMP JUMPDEST PUSH0 DUP1 PUSH1 0x40 DUP4 DUP6 SUB SLT ISZERO PUSH2 0x54CD JUMPI PUSH0 DUP1 REVERT JUMPDEST DUP3 CALLDATALOAD PUSH2 0x54D8 DUP2 PUSH2 0x526C JUMP JUMPDEST SWAP5 PUSH1 0x20 SWAP4 SWAP1 SWAP4 ADD CALLDATALOAD SWAP4 POP POP POP JUMP JUMPDEST DUP1 MLOAD PUSH1 0x1 PUSH1 0x1 PUSH1 0xA0 SHL SUB AND DUP3 MSTORE PUSH1 0x20 DUP1 DUP3 ADD MLOAD SWAP1 DUP4 ADD MSTORE PUSH1 0x40 DUP1 DUP3 ADD MLOAD SWAP1 DUP4 ADD MSTORE PUSH1 0x60 SWAP1 DUP2 ADD MLOAD SWAP2 ADD MSTORE JUMP JUMPDEST PUSH1 0x80 DUP2 ADD PUSH2 0x4A52 DUP3 DUP5 PUSH2 0x54E6 JUMP JUMPDEST PUSH1 0x1 PUSH1 0x1 PUSH1 0xA0 SHL SUB SWAP2 SWAP1 SWAP2 AND DUP2 MSTORE PUSH1 0x20 ADD SWAP1 JUMP JUMPDEST PUSH1 0x20 DUP1 DUP3 MSTORE DUP3 MLOAD DUP3 DUP3 ADD DUP2 SWAP1 MSTORE PUSH0 SWAP2 SWAP1 DUP5 DUP3 ADD SWAP1 PUSH1 0x40 DUP6 ADD SWAP1 DUP5 JUMPDEST DUP2 DUP2 LT ISZERO PUSH2 0x5575 JUMPI PUSH2 0x5562 DUP4 DUP6 MLOAD PUSH2 0x54E6 JUMP JUMPDEST SWAP3 DUP5 ADD SWAP3 PUSH1 0x80 SWAP3 SWAP1 SWAP3 ADD SWAP2 PUSH1 0x1 ADD PUSH2 0x554F JUMP JUMPDEST POP SWAP1 SWAP7 SWAP6 POP POP POP POP POP POP JUMP JUMPDEST PUSH0 DUP1 PUSH0 DUP1 PUSH0 PUSH1 0xA0 DUP7 DUP9 SUB SLT ISZERO PUSH2 0x5595 JUMPI PUSH0 DUP1 REVERT JUMPDEST DUP6 CALLDATALOAD SWAP5 POP PUSH1 0x20 DUP7 ADD CALLDATALOAD SWAP4 POP PUSH1 0x40 DUP7 ADD CALLDATALOAD SWAP3 POP PUSH1 0x60 DUP7 ADD CALLDATALOAD SWAP2 POP PUSH1 0x80 DUP7 ADD CALLDATALOAD PUSH1 0x1 PUSH1 0x1 PUSH1 0x40 SHL SUB DUP2 GT ISZERO PUSH2 0x55C6 JUMPI PUSH0 DUP1 REVERT JUMPDEST PUSH2 0x55D2 DUP9 DUP3 DUP10 ADD PUSH2 0x53EE JUMP JUMPDEST SWAP2 POP POP SWAP3 SWAP6 POP SWAP3 SWAP6 SWAP1 SWAP4 POP JUMP JUMPDEST PUSH1 0x20 DUP1 DUP3 MSTORE DUP3 MLOAD DUP3 DUP3 ADD DUP2 SWAP1 MSTORE PUSH0 SWAP2 SWAP1 DUP5 DUP3 ADD SWAP1 PUSH1 0x40 DUP6 ADD SWAP1 DUP5 JUMPDEST DUP2 DUP2 LT ISZERO PUSH2 0x5575 JUMPI PUSH2 0x560D DUP4 DUP6 MLOAD PUSH2 0x54E6 JUMP JUMPDEST SWAP3 DUP5 ADD SWAP3 PUSH1 0x80 SWAP3 SWAP1 SWAP3 ADD SWAP2 PUSH1 0x1 ADD PUSH2 0x55FA JUMP JUMPDEST PUSH0 PUSH1 0x20 DUP3 DUP5 SUB SLT ISZERO PUSH2 0x5630 JUMPI PUSH0 DUP1 REVERT JUMPDEST DUP2 CALLDATALOAD PUSH1 0x1 PUSH1 0x1 PUSH1 0x40 SHL SUB DUP2 GT ISZERO PUSH2 0x5645 JUMPI PUSH0 DUP1 REVERT JUMPDEST DUP3 ADD PUSH1 0x1F DUP2 ADD DUP5 SGT PUSH2 0x5655 JUMPI PUSH0 DUP1 REVERT JUMPDEST PUSH2 0x5664 DUP5 DUP3 CALLDATALOAD PUSH1 0x20 DUP5 ADD PUSH2 0x537C JUMP JUMPDEST SWAP5 SWAP4 POP POP POP POP JUMP JUMPDEST PUSH1 0x20 DUP1 DUP3 MSTORE DUP3 MLOAD DUP3 DUP3 ADD DUP2 SWAP1 MSTORE PUSH0 SWAP2 SWAP1 DUP5 DUP3 ADD SWAP1 PUSH1 0x40 DUP6 ADD SWAP1 DUP5 JUMPDEST DUP2 DUP2 LT ISZERO PUSH2 0x5575 JUMPI PUSH2 0x569A DUP4 DUP6 MLOAD PUSH2 0x529B JUMP JUMPDEST SWAP3 DUP5 ADD SWAP3 PUSH1 0x80 SWAP3 SWAP1 SWAP3 ADD SWAP2 PUSH1 0x1 ADD PUSH2 0x5687 JUMP JUMPDEST PUSH4 0x4E487B71 PUSH1 0xE0 SHL PUSH0 MSTORE PUSH1 0x32 PUSH1 0x4 MSTORE PUSH1 0x24 PUSH0 REVERT JUMPDEST PUSH4 0x4E487B71 PUSH1 0xE0 SHL PUSH0 MSTORE PUSH1 0x11 PUSH1 0x4 MSTORE PUSH1 0x24 PUSH0 REVERT JUMPDEST DUP1 DUP3 ADD DUP1 DUP3 GT ISZERO PUSH2 0x4A52 JUMPI PUSH2 0x4A52 PUSH2 0x56C1 JUMP JUMPDEST DUP2 DUP2 SUB DUP2 DUP2 GT ISZERO PUSH2 0x4A52 JUMPI PUSH2 0x4A52 PUSH2 0x56C1 JUMP JUMPDEST PUSH4 0x4E487B71 PUSH1 0xE0 SHL PUSH0 MSTORE PUSH1 0x12 PUSH1 0x4 MSTORE PUSH1 0x24 PUSH0 REVERT JUMPDEST PUSH0 DUP3 PUSH2 0x571D JUMPI PUSH2 0x571D PUSH2 0x56FB JUMP JUMPDEST POP DIV SWAP1 JUMP JUMPDEST PUSH1 0x20 DUP1 DUP3 MSTORE PUSH1 0x2C SWAP1 DUP3 ADD MSTORE PUSH0 DUP1 MLOAD PUSH1 0x20 PUSH2 0x5B99 DUP4 CODECOPY DUP2 MLOAD SWAP2 MSTORE PUSH1 0x40 DUP3 ADD MSTORE PUSH12 0x19195B1959D85D1958D85B1B PUSH1 0xA2 SHL PUSH1 0x60 DUP3 ADD MSTORE PUSH1 0x80 ADD SWAP1 JUMP JUMPDEST PUSH1 0x20 DUP1 DUP3 MSTORE PUSH1 0x2C SWAP1 DUP3 ADD MSTORE PUSH0 DUP1 MLOAD PUSH1 0x20 PUSH2 0x5B99 DUP4 CODECOPY DUP2 MLOAD SWAP2 MSTORE PUSH1 0x40 DUP3 ADD MSTORE PUSH12 0x6163746976652070726F7879 PUSH1 0xA0 SHL PUSH1 0x60 DUP3 ADD MSTORE PUSH1 0x80 ADD SWAP1 JUMP JUMPDEST PUSH0 PUSH1 0x20 DUP3 DUP5 SUB SLT ISZERO PUSH2 0x57A4 JUMPI PUSH0 DUP1 REVERT JUMPDEST DUP2 MLOAD DUP1 ISZERO ISZERO DUP2 EQ PUSH2 0x520E JUMPI PUSH0 DUP1 REVERT JUMPDEST PUSH0 PUSH1 0x20 DUP3 DUP5 SUB SLT ISZERO PUSH2 0x57C3 JUMPI PUSH0 DUP1 REVERT JUMPDEST DUP2 MLOAD PUSH2 0x520E DUP2 PUSH2 0x526C JUMP JUMPDEST PUSH0 PUSH1 0x20 DUP3 DUP5 SUB SLT ISZERO PUSH2 0x57DE JUMPI PUSH0 DUP1 REVERT JUMPDEST POP MLOAD SWAP2 SWAP1 POP JUMP JUMPDEST DUP1 DUP3 MUL DUP2 ISZERO DUP3 DUP3 DIV DUP5 EQ OR PUSH2 0x4A52 JUMPI PUSH2 0x4A52 PUSH2 0x56C1 JUMP JUMPDEST PUSH1 0x1 PUSH1 0x1 PUSH1 0xA0 SHL SUB SWAP3 SWAP1 SWAP3 AND DUP3 MSTORE PUSH1 0x20 DUP3 ADD MSTORE PUSH1 0x40 ADD SWAP1 JUMP JUMPDEST DUP1 MLOAD PUSH1 0x1 PUSH1 0x1 PUSH1 0x70 SHL SUB DUP2 AND DUP2 EQ PUSH2 0x582B JUMPI PUSH0 DUP1 REVERT JUMPDEST SWAP2 SWAP1 POP JUMP JUMPDEST PUSH0 DUP1 PUSH0 PUSH1 0x60 DUP5 DUP7 SUB SLT ISZERO PUSH2 0x5842 JUMPI PUSH0 DUP1 REVERT JUMPDEST PUSH2 0x584B DUP5 PUSH2 0x5815 JUMP JUMPDEST SWAP3 POP PUSH2 0x5859 PUSH1 0x20 DUP6 ADD PUSH2 0x5815 JUMP JUMPDEST SWAP2 POP PUSH1 0x40 DUP5 ADD MLOAD PUSH4 0xFFFFFFFF DUP2 AND DUP2 EQ PUSH2 0x5871 JUMPI PUSH0 DUP1 REVERT JUMPDEST DUP1 SWAP2 POP POP SWAP3 POP SWAP3 POP SWAP3 JUMP JUMPDEST SWAP3 DUP4 MSTORE PUSH1 0x1 PUSH1 0x1 PUSH1 0x70 SHL SUB SWAP2 DUP3 AND PUSH1 0x20 DUP5 ADD MSTORE AND PUSH1 0x40 DUP3 ADD MSTORE PUSH1 0x60 ADD SWAP1 JUMP JUMPDEST PUSH0 PUSH1 0x1 DUP3 ADD PUSH2 0x58AC JUMPI PUSH2 0x58AC PUSH2 0x56C1 JUMP JUMPDEST POP PUSH1 0x1 ADD SWAP1 JUMP JUMPDEST PUSH1 0x1 PUSH1 0x1 PUSH1 0x70 SHL SUB DUP2 DUP2 AND DUP4 DUP3 AND MUL DUP1 DUP3 AND SWAP2 SWAP1 DUP3 DUP2 EQ PUSH2 0x1F1B JUMPI PUSH2 0x1F1B PUSH2 0x56C1 JUMP JUMPDEST PUSH0 PUSH1 0x1 PUSH1 0x1 PUSH1 0x70 SHL SUB DUP4 DUP2 AND DUP1 PUSH2 0x58EF JUMPI PUSH2 0x58EF PUSH2 0x56FB JUMP JUMPDEST SWAP3 AND SWAP2 SWAP1 SWAP2 DIV SWAP3 SWAP2 POP POP JUMP JUMPDEST PUSH1 0x1 PUSH1 0x1 PUSH1 0x70 SHL SUB SWAP4 DUP5 AND DUP2 MSTORE SWAP2 SWAP1 SWAP3 AND PUSH1 0x20 DUP3 ADD MSTORE PUSH1 0x1 PUSH1 0x1 PUSH1 0xA0 SHL SUB SWAP1 SWAP2 AND PUSH1 0x40 DUP3 ADD MSTORE PUSH1 0x60 ADD SWAP1 JUMP JUMPDEST PUSH1 0x1 PUSH1 0x1 PUSH1 0xA0 SHL SUB SWAP3 SWAP1 SWAP3 AND DUP3 MSTORE PUSH1 0x1 PUSH1 0x1 PUSH1 0x70 SHL SUB AND PUSH1 0x20 DUP3 ADD MSTORE PUSH1 0x40 ADD SWAP1 JUMP JUMPDEST PUSH1 0x1 PUSH1 0x1 PUSH1 0xA0 SHL SUB SWAP4 DUP5 AND DUP2 MSTORE SWAP2 SWAP1 SWAP3 AND PUSH1 0x20 DUP3 ADD MSTORE PUSH1 0x1 PUSH1 0x1 PUSH1 0x70 SHL SUB SWAP1 SWAP2 AND PUSH1 0x40 DUP3 ADD MSTORE PUSH1 0x60 ADD SWAP1 JUMP JUMPDEST PUSH0 JUMPDEST DUP4 DUP2 LT ISZERO PUSH2 0x598F JUMPI DUP2 DUP2 ADD MLOAD DUP4 DUP3 ADD MSTORE PUSH1 0x20 ADD PUSH2 0x5977 JUMP JUMPDEST POP POP PUSH0 SWAP2 ADD MSTORE JUMP JUMPDEST PUSH0 DUP5 MLOAD PUSH2 0x59A8 DUP2 DUP5 PUSH1 0x20 DUP10 ADD PUSH2 0x5975 JUMP JUMPDEST DUP5 MLOAD SWAP1 DUP4 ADD SWAP1 PUSH2 0x59BC DUP2 DUP4 PUSH1 0x20 DUP10 ADD PUSH2 0x5975 JUMP JUMPDEST DUP5 MLOAD SWAP2 ADD SWAP1 PUSH2 0x59CF DUP2 DUP4 PUSH1 0x20 DUP9 ADD PUSH2 0x5975 JUMP JUMPDEST ADD SWAP6 SWAP5 POP POP POP POP POP JUMP JUMPDEST PUSH0 DUP3 MLOAD PUSH2 0x59EA DUP2 DUP5 PUSH1 0x20 DUP8 ADD PUSH2 0x5975 JUMP JUMPDEST SWAP2 SWAP1 SWAP2 ADD SWAP3 SWAP2 POP POP JUMP JUMPDEST PUSH1 0x20 DUP1 DUP3 MSTORE PUSH1 0x2B SWAP1 DUP3 ADD MSTORE PUSH32 0x496E697469616C697A61626C653A20636F6E7472616374206973206E6F742069 PUSH1 0x40 DUP3 ADD MSTORE PUSH11 0x6E697469616C697A696E67 PUSH1 0xA8 SHL PUSH1 0x60 DUP3 ADD MSTORE PUSH1 0x80 ADD SWAP1 JUMP JUMPDEST PUSH0 DUP3 PUSH2 0x5A4D JUMPI PUSH2 0x5A4D PUSH2 0x56FB JUMP JUMPDEST POP MOD SWAP1 JUMP JUMPDEST PUSH4 0x4E487B71 PUSH1 0xE0 SHL PUSH0 MSTORE PUSH1 0x21 PUSH1 0x4 MSTORE PUSH1 0x24 PUSH0 REVERT JUMPDEST DUP1 DUP3 ADD DUP3 DUP2 SLT PUSH0 DUP4 SLT DUP1 ISZERO DUP3 AND DUP3 ISZERO DUP3 AND OR ISZERO PUSH2 0x1F1B JUMPI PUSH2 0x1F1B PUSH2 0x56C1 JUMP JUMPDEST DUP1 DUP3 MUL PUSH0 DUP3 SLT PUSH1 0x1 PUSH1 0xFF SHL DUP5 EQ AND ISZERO PUSH2 0x5AA0 JUMPI PUSH2 0x5AA0 PUSH2 0x56C1 JUMP JUMPDEST DUP2 DUP2 SDIV DUP4 EQ DUP3 ISZERO OR PUSH2 0x4A52 JUMPI PUSH2 0x4A52 PUSH2 0x56C1 JUMP JUMPDEST PUSH0 DUP3 PUSH2 0x5AC2 JUMPI PUSH2 0x5AC2 PUSH2 0x56FB JUMP JUMPDEST PUSH1 0x1 PUSH1 0xFF SHL DUP3 EQ PUSH0 NOT DUP5 EQ AND ISZERO PUSH2 0x5ADB JUMPI PUSH2 0x5ADB PUSH2 0x56C1 JUMP JUMPDEST POP SDIV SWAP1 JUMP JUMPDEST DUP2 DUP2 SUB PUSH0 DUP4 SLT DUP1 ISZERO DUP4 DUP4 SGT AND DUP4 DUP4 SLT DUP3 AND OR ISZERO PUSH2 0x5AFF JUMPI PUSH2 0x5AFF PUSH2 0x56C1 JUMP JUMPDEST POP SWAP3 SWAP2 POP POP JUMP JUMPDEST PUSH1 0x20 DUP2 MSTORE PUSH0 DUP3 MLOAD DUP1 PUSH1 0x20 DUP5 ADD MSTORE PUSH2 0x5B24 DUP2 PUSH1 0x40 DUP6 ADD PUSH1 0x20 DUP8 ADD PUSH2 0x5975 JUMP JUMPDEST PUSH1 0x1F ADD PUSH1 0x1F NOT AND SWAP2 SWAP1 SWAP2 ADD PUSH1 0x40 ADD SWAP3 SWAP2 POP POP JUMP INVALID 0xA7 0xCE DUP4 PUSH14 0x32B2BF62B7E2097A8E0A6D8AEB3 SLOAD SDIV 0xAD ISZERO 0x27 0x1E SWAP7 0xD3 0xB0 XOR DUP11 SAR MOD 0xFC 0xA7 0xCE DUP4 PUSH14 0x32B2BF62B7E2097A8E0A6D8AEB3 SLOAD SDIV 0xAD ISZERO 0x27 0x1E SWAP7 0xD3 0xB0 XOR DUP11 SAR MOD 0xFB 0xA7 0xCE DUP4 PUSH14 0x32B2BF62B7E2097A8E0A6D8AEB3 SLOAD SDIV 0xAD ISZERO 0x27 0x1E SWAP7 0xD3 0xB0 XOR DUP11 SAR MOD REVERT CHAINID PUSH22 0x6E6374696F6E206D7573742062652063616C6C656420 PUSH21 0x68726F75676820360894A13BA1A3210667C828492D 0xB9 DUP14 0xCA RETURNDATACOPY KECCAK256 PUSH23 0xCC3735A920A3CA505D382BBC416464726573733A206C6F PUSH24 0x2D6C6576656C2064656C65676174652063616C6C20666169 PUSH13 0x6564A7CE836D032B2BF62B7E20 SWAP8 0xA8 0xE0 0xA6 0xD8 0xAE 0xB3 SLOAD SDIV 0xAD ISZERO 0x27 0x1E SWAP7 0xD3 0xB0 XOR DUP11 SAR MOD INVALID LOG2 PUSH5 0x6970667358 0x22 SLT KECCAK256 BYTE 0xF8 LT DUP6 EXTCODESIZE PUSH8 0xD03AA7C15D7B80BC 0xB3 RETURNDATASIZE DUP15 0xFC TIMESTAMP 0xD SWAP7 DUP9 PUSH22 0x7FC67960FDB99D439C64736F6C634300081400330000 "
		},
		"gasEstimates": {
			"creation": {
				"codeDepositCost": "4727400",
				"executionCost": "infinite",
				"totalCost": "infinite"
			},
			"external": {
				"_btbtestup2()": "infinite",
				"acbPrice()": "infinite",
				"airdropMachine(address,uint256)": "infinite",
				"autoCancelLp()": "infinite",
				"btbConfig()": "3042",
				"buyMachine(uint256,uint256)": "infinite",
				"changeConfig(address)": "26794",
				"claim()": "infinite",
				"claimDynOrderArr(uint256)": "11841",
				"claimDynamic(uint256,uint256,uint256,uint256,bytes)": "infinite",
				"claimOrderArr(uint256)": "11863",
				"claimedAmount(address)": "2477",
				"claimedDynReward(address)": "9483",
				"computingPower(address)": "infinite",
				"getClaimOrderByIndex(uint256,uint256)": "infinite",
				"getClaimOrderLength()": "2918",
				"getMaxOrderReward(uint256)": "11755",
				"getMiningMachineByIndex(uint256,uint256)": "infinite",
				"getMiningMachineLength()": "2368",
				"getNoOrderReward(uint256)": "12041",
				"getUserByIndex(uint256,uint256)": "infinite",
				"getUserLength()": "2742",
				"initialize(address)": "infinite",
				"isAutoCancel(string)": "infinite",
				"isBuyMachine(address)": "2522",
				"lastMaxOrderSettleTime()": "2899",
				"lastOrderTime()": "2833",
				"machineArr(uint256)": "12017",
				"machineReward(address)": "infinite",
				"maxOrderIndex()": "2877",
				"maxOrderPool()": "2503",
				"maxOrderReward()": "infinite",
				"noOrderPool()": "3163",
				"owner()": "2897",
				"proxiableUUID()": "infinite",
				"ref(address)": "3321",
				"register(address)": "infinite",
				"renounceOwnership()": "infinite",
				"superFomo()": "infinite",
				"swap(uint256)": "infinite",
				"swapOutAmount(uint256)": "infinite",
				"syncPool()": "infinite",
				"transferMaxOrder(uint256)": "11291",
				"transferNoOrder(uint256)": "11137",
				"transferOwnership(address)": "infinite",
				"upgradeTo(address)": "infinite",
				"upgradeToAndCall(address,bytes)": "infinite",
				"userMachine(address,uint256)": "5446",
				"userMachineArr(address)": "infinite",
				"users(uint256)": "9096"
			},
			"internal": {
				"_acb()": "infinite",
				"_acbPrice()": "infinite",
				"_authorizeUpgrade(address)": "infinite",
				"_btbPair()": "infinite",
				"_getMessageHash(address,uint256,uint256,uint256,uint256)": "infinite",
				"_machineExpireTime()": "infinite",
				"_minePool()": "infinite",
				"_settleMaxOrderReward()": "infinite",
				"_settleNoOrderReward()": "infinite",
				"_usdt()": "infinite"
			}
		},
		"methodIdentifiers": {
			"_btbtestup2()": "79bd54da",
			"acbPrice()": "7bab1032",
			"airdropMachine(address,uint256)": "57629f82",
			"autoCancelLp()": "e91e969c",
			"btbConfig()": "b0cb1b0d",
			"buyMachine(uint256,uint256)": "382e227f",
			"changeConfig(address)": "210835ae",
			"claim()": "4e71d92d",
			"claimDynOrderArr(uint256)": "c8ee5073",
			"claimDynamic(uint256,uint256,uint256,uint256,bytes)": "d7df42d3",
			"claimOrderArr(uint256)": "cb82ab19",
			"claimedAmount(address)": "04e86903",
			"claimedDynReward(address)": "233be799",
			"computingPower(address)": "e500845d",
			"getClaimOrderByIndex(uint256,uint256)": "cbba3def",
			"getClaimOrderLength()": "a7808f1a",
			"getMaxOrderReward(uint256)": "624343e6",
			"getMiningMachineByIndex(uint256,uint256)": "eed0ab53",
			"getMiningMachineLength()": "265eb5b8",
			"getNoOrderReward(uint256)": "baf189d2",
			"getUserByIndex(uint256,uint256)": "51ae6b1b",
			"getUserLength()": "7456fed6",
			"initialize(address)": "c4d66de8",
			"isAutoCancel(string)": "f951d945",
			"isBuyMachine(address)": "1865e4d5",
			"lastMaxOrderSettleTime()": "a3592158",
			"lastOrderTime()": "8e56d48c",
			"machineArr(uint256)": "f2782d6d",
			"machineReward(address)": "c6834bf6",
			"maxOrderIndex()": "9b5f0f22",
			"maxOrderPool()": "42ff7bcd",
			"maxOrderReward()": "2562c39b",
			"noOrderPool()": "d77f5ee7",
			"owner()": "8da5cb5b",
			"proxiableUUID()": "52d1902d",
			"ref(address)": "c4b6ebdf",
			"register(address)": "4420e486",
			"renounceOwnership()": "715018a6",
			"superFomo()": "45b3e93e",
			"swap(uint256)": "94b918de",
			"swapOutAmount(uint256)": "3f22297e",
			"syncPool()": "ad7e01be",
			"transferMaxOrder(uint256)": "4469ed13",
			"transferNoOrder(uint256)": "2d6d56b0",
			"transferOwnership(address)": "f2fde38b",
			"upgradeTo(address)": "3659cfe6",
			"upgradeToAndCall(address,bytes)": "4f1ef286",
			"userMachine(address,uint256)": "bf024cfa",
			"userMachineArr(address)": "fc76f17c",
			"users(uint256)": "365b98b2"
		}
	},
	"abi": [
		{
			"inputs": [],
			"name": "NoBuyMachine",
			"type": "error"
		},
		{
			"inputs": [],
			"name": "NoRegistered",
			"type": "error"
		},
		{
			"inputs": [],
			"name": "NotConfig",
			"type": "error"
		},
		{
			"inputs": [],
			"name": "NotOp",
			"type": "error"
		},
		{
			"inputs": [],
			"name": "NotSelf",
			"type": "error"
		},
		{
			"inputs": [],
			"name": "Registered",
			"type": "error"
		},
		{
			"inputs": [],
			"name": "TimeNotYet",
			"type": "error"
		},
		{
			"anonymous": false,
			"inputs": [
				{
					"indexed": false,
					"internalType": "address",
					"name": "previousAdmin",
					"type": "address"
				},
				{
					"indexed": false,
					"internalType": "address",
					"name": "newAdmin",
					"type": "address"
				}
			],
			"name": "AdminChanged",
			"type": "event"
		},
		{
			"anonymous": false,
			"inputs": [
				{
					"indexed": true,
					"internalType": "address",
					"name": "beacon",
					"type": "address"
				}
			],
			"name": "BeaconUpgraded",
			"type": "event"
		},
		{
			"anonymous": false,
			"inputs": [
				{
					"indexed": false,
					"internalType": "uint8",
					"name": "version",
					"type": "uint8"
				}
			],
			"name": "Initialized",
			"type": "event"
		},
		{
			"anonymous": false,
			"inputs": [
				{
					"indexed": true,
					"internalType": "address",
					"name": "previousOwner",
					"type": "address"
				},
				{
					"indexed": true,
					"internalType": "address",
					"name": "newOwner",
					"type": "address"
				}
			],
			"name": "OwnershipTransferred",
			"type": "event"
		},
		{
			"anonymous": false,
			"inputs": [
				{
					"indexed": true,
					"internalType": "address",
					"name": "implementation",
					"type": "address"
				}
			],
			"name": "Upgraded",
			"type": "event"
		},
		{
			"inputs": [],
			"name": "_btbtestup2",
			"outputs": [
				{
					"internalType": "address",
					"name": "",
					"type": "address"
				}
			],
			"stateMutability": "view",
			"type": "function"
		},
		{
			"inputs": [],
			"name": "acbPrice",
			"outputs": [
				{
					"internalType": "uint256",
					"name": "",
					"type": "uint256"
				}
			],
			"stateMutability": "view",
			"type": "function"
		},
		{
			"inputs": [
				{
					"internalType": "address",
					"name": "user",
					"type": "address"
				},
				{
					"internalType": "uint256",
					"name": "amount",
					"type": "uint256"
				}
			],
			"name": "airdropMachine",
			"outputs": [],
			"stateMutability": "nonpayable",
			"type": "function"
		},
		{
			"inputs": [],
			"name": "autoCancelLp",
			"outputs": [],
			"stateMutability": "nonpayable",
			"type": "function"
		},
		{
			"inputs": [],
			"name": "btbConfig",
			"outputs": [
				{
					"internalType": "contract ACConfig",
					"name": "",
					"type": "address"
				}
			],
			"stateMutability": "view",
			"type": "function"
		},
		{
			"inputs": [
				{
					"internalType": "uint256",
					"name": "amount",
					"type": "uint256"
				},
				{
					"internalType": "uint256",
					"name": "bType",
					"type": "uint256"
				}
			],
			"name": "buyMachine",
			"outputs": [],
			"stateMutability": "nonpayable",
			"type": "function"
		},
		{
			"inputs": [
				{
					"internalType": "address",
					"name": "_acbConfig",
					"type": "address"
				}
			],
			"name": "changeConfig",
			"outputs": [],
			"stateMutability": "nonpayable",
			"type": "function"
		},
		{
			"inputs": [],
			"name": "claim",
			"outputs": [],
			"stateMutability": "nonpayable",
			"type": "function"
		},
		{
			"inputs": [
				{
					"internalType": "uint256",
					"name": "",
					"type": "uint256"
				}
			],
			"name": "claimDynOrderArr",
			"outputs": [
				{
					"internalType": "address",
					"name": "user",
					"type": "address"
				},
				{
					"internalType": "uint256",
					"name": "amount",
					"type": "uint256"
				},
				{
					"internalType": "uint256",
					"name": "orderType",
					"type": "uint256"
				},
				{
					"internalType": "uint256",
					"name": "createTime",
					"type": "uint256"
				}
			],
			"stateMutability": "view",
			"type": "function"
		},
		{
			"inputs": [
				{
					"internalType": "uint256",
					"name": "refAmount",
					"type": "uint256"
				},
				{
					"internalType": "uint256",
					"name": "team",
					"type": "uint256"
				},
				{
					"internalType": "uint256",
					"name": "sameLevel",
					"type": "uint256"
				},
				{
					"internalType": "uint256",
					"name": "share",
					"type": "uint256"
				},
				{
					"internalType": "bytes",
					"name": "signature",
					"type": "bytes"
				}
			],
			"name": "claimDynamic",
			"outputs": [],
			"stateMutability": "nonpayable",
			"type": "function"
		},
		{
			"inputs": [
				{
					"internalType": "uint256",
					"name": "",
					"type": "uint256"
				}
			],
			"name": "claimOrderArr",
			"outputs": [
				{
					"internalType": "address",
					"name": "user",
					"type": "address"
				},
				{
					"internalType": "uint256",
					"name": "amount",
					"type": "uint256"
				},
				{
					"internalType": "uint256",
					"name": "orderType",
					"type": "uint256"
				},
				{
					"internalType": "uint256",
					"name": "createTime",
					"type": "uint256"
				}
			],
			"stateMutability": "view",
			"type": "function"
		},
		{
			"inputs": [
				{
					"internalType": "address",
					"name": "",
					"type": "address"
				}
			],
			"name": "claimedAmount",
			"outputs": [
				{
					"internalType": "uint256",
					"name": "",
					"type": "uint256"
				}
			],
			"stateMutability": "view",
			"type": "function"
		},
		{
			"inputs": [
				{
					"internalType": "address",
					"name": "user",
					"type": "address"
				}
			],
			"name": "claimedDynReward",
			"outputs": [
				{
					"components": [
						{
							"internalType": "uint256",
							"name": "ref",
							"type": "uint256"
						},
						{
							"internalType": "uint256",
							"name": "team",
							"type": "uint256"
						},
						{
							"internalType": "uint256",
							"name": "sameLevel",
							"type": "uint256"
						},
						{
							"internalType": "uint256",
							"name": "share",
							"type": "uint256"
						}
					],
					"internalType": "struct IMMStore.ClaimedDynReward",
					"name": "dynReward",
					"type": "tuple"
				}
			],
			"stateMutability": "view",
			"type": "function"
		},
		{
			"inputs": [
				{
					"internalType": "address",
					"name": "user",
					"type": "address"
				}
			],
			"name": "computingPower",
			"outputs": [
				{
					"internalType": "uint256",
					"name": "amount",
					"type": "uint256"
				}
			],
			"stateMutability": "view",
			"type": "function"
		},
		{
			"inputs": [
				{
					"internalType": "uint256",
					"name": "start",
					"type": "uint256"
				},
				{
					"internalType": "uint256",
					"name": "end",
					"type": "uint256"
				}
			],
			"name": "getClaimOrderByIndex",
			"outputs": [
				{
					"components": [
						{
							"internalType": "address",
							"name": "user",
							"type": "address"
						},
						{
							"internalType": "uint256",
							"name": "amount",
							"type": "uint256"
						},
						{
							"internalType": "uint256",
							"name": "orderType",
							"type": "uint256"
						},
						{
							"internalType": "uint256",
							"name": "createTime",
							"type": "uint256"
						}
					],
					"internalType": "struct IMMStore.ClaimOrder[]",
					"name": "claimOrder",
					"type": "tuple[]"
				}
			],
			"stateMutability": "view",
			"type": "function"
		},
		{
			"inputs": [],
			"name": "getClaimOrderLength",
			"outputs": [
				{
					"internalType": "uint256",
					"name": "",
					"type": "uint256"
				}
			],
			"stateMutability": "view",
			"type": "function"
		},
		{
			"inputs": [
				{
					"internalType": "uint256",
					"name": "index",
					"type": "uint256"
				}
			],
			"name": "getMaxOrderReward",
			"outputs": [
				{
					"components": [
						{
							"internalType": "address",
							"name": "user",
							"type": "address"
						},
						{
							"internalType": "uint256",
							"name": "amount",
							"type": "uint256"
						},
						{
							"internalType": "uint256",
							"name": "number",
							"type": "uint256"
						},
						{
							"internalType": "uint256",
							"name": "timestamp",
							"type": "uint256"
						}
					],
					"internalType": "struct IMMStore.TransferOrder",
					"name": "",
					"type": "tuple"
				}
			],
			"stateMutability": "view",
			"type": "function"
		},
		{
			"inputs": [
				{
					"internalType": "uint256",
					"name": "start",
					"type": "uint256"
				},
				{
					"internalType": "uint256",
					"name": "end",
					"type": "uint256"
				}
			],
			"name": "getMiningMachineByIndex",
			"outputs": [
				{
					"components": [
						{
							"internalType": "address",
							"name": "user",
							"type": "address"
						},
						{
							"internalType": "uint256",
							"name": "computingPower",
							"type": "uint256"
						},
						{
							"internalType": "uint256",
							"name": "createTime",
							"type": "uint256"
						},
						{
							"internalType": "uint256",
							"name": "lastTime",
							"type": "uint256"
						}
					],
					"internalType": "struct IMMStore.MiningMachine[]",
					"name": "miningMachineArr",
					"type": "tuple[]"
				}
			],
			"stateMutability": "view",
			"type": "function"
		},
		{
			"inputs": [],
			"name": "getMiningMachineLength",
			"outputs": [
				{
					"internalType": "uint256",
					"name": "",
					"type": "uint256"
				}
			],
			"stateMutability": "view",
			"type": "function"
		},
		{
			"inputs": [
				{
					"internalType": "uint256",
					"name": "index",
					"type": "uint256"
				}
			],
			"name": "getNoOrderReward",
			"outputs": [
				{
					"components": [
						{
							"internalType": "address",
							"name": "user",
							"type": "address"
						},
						{
							"internalType": "uint256",
							"name": "amount",
							"type": "uint256"
						},
						{
							"internalType": "uint256",
							"name": "number",
							"type": "uint256"
						},
						{
							"internalType": "uint256",
							"name": "timestamp",
							"type": "uint256"
						}
					],
					"internalType": "struct IMMStore.TransferOrder",
					"name": "",
					"type": "tuple"
				}
			],
			"stateMutability": "view",
			"type": "function"
		},
		{
			"inputs": [
				{
					"internalType": "uint256",
					"name": "start",
					"type": "uint256"
				},
				{
					"internalType": "uint256",
					"name": "end",
					"type": "uint256"
				}
			],
			"name": "getUserByIndex",
			"outputs": [
				{
					"components": [
						{
							"internalType": "address",
							"name": "user",
							"type": "address"
						},
						{
							"internalType": "address",
							"name": "ref",
							"type": "address"
						},
						{
							"internalType": "uint256",
							"name": "registerTime",
							"type": "uint256"
						}
					],
					"internalType": "struct IMMStore.User[]",
					"name": "userArr",
					"type": "tuple[]"
				}
			],
			"stateMutability": "view",
			"type": "function"
		},
		{
			"inputs": [],
			"name": "getUserLength",
			"outputs": [
				{
					"internalType": "uint256",
					"name": "",
					"type": "uint256"
				}
			],
			"stateMutability": "view",
			"type": "function"
		},
		{
			"inputs": [
				{
					"internalType": "address",
					"name": "_acbConfig",
					"type": "address"
				}
			],
			"name": "initialize",
			"outputs": [],
			"stateMutability": "nonpayable",
			"type": "function"
		},
		{
			"inputs": [
				{
					"internalType": "string",
					"name": "",
					"type": "string"
				}
			],
			"name": "isAutoCancel",
			"outputs": [
				{
					"internalType": "bool",
					"name": "",
					"type": "bool"
				}
			],
			"stateMutability": "view",
			"type": "function"
		},
		{
			"inputs": [
				{
					"internalType": "address",
					"name": "",
					"type": "address"
				}
			],
			"name": "isBuyMachine",
			"outputs": [
				{
					"internalType": "bool",
					"name": "",
					"type": "bool"
				}
			],
			"stateMutability": "view",
			"type": "function"
		},
		{
			"inputs": [],
			"name": "lastMaxOrderSettleTime",
			"outputs": [
				{
					"internalType": "uint256",
					"name": "",
					"type": "uint256"
				}
			],
			"stateMutability": "view",
			"type": "function"
		},
		{
			"inputs": [],
			"name": "lastOrderTime",
			"outputs": [
				{
					"internalType": "uint256",
					"name": "",
					"type": "uint256"
				}
			],
			"stateMutability": "view",
			"type": "function"
		},
		{
			"inputs": [
				{
					"internalType": "uint256",
					"name": "",
					"type": "uint256"
				}
			],
			"name": "machineArr",
			"outputs": [
				{
					"internalType": "address",
					"name": "user",
					"type": "address"
				},
				{
					"internalType": "uint256",
					"name": "computingPower",
					"type": "uint256"
				},
				{
					"internalType": "uint256",
					"name": "createTime",
					"type": "uint256"
				},
				{
					"internalType": "uint256",
					"name": "lastTime",
					"type": "uint256"
				}
			],
			"stateMutability": "view",
			"type": "function"
		},
		{
			"inputs": [
				{
					"internalType": "address",
					"name": "user",
					"type": "address"
				}
			],
			"name": "machineReward",
			"outputs": [
				{
					"components": [
						{
							"internalType": "uint256",
							"name": "pendingReward",
							"type": "uint256"
						},
						{
							"internalType": "uint256",
							"name": "pendingRebate",
							"type": "uint256"
						},
						{
							"internalType": "uint256",
							"name": "claimedReward",
							"type": "uint256"
						},
						{
							"internalType": "uint256",
							"name": "rebatedReward",
							"type": "uint256"
						},
						{
							"internalType": "bool",
							"name": "canClaim",
							"type": "bool"
						}
					],
					"internalType": "struct IMMStore.MachineReward",
					"name": "rewardInfo",
					"type": "tuple"
				}
			],
			"stateMutability": "view",
			"type": "function"
		},
		{
			"inputs": [],
			"name": "maxOrderIndex",
			"outputs": [
				{
					"internalType": "uint256",
					"name": "",
					"type": "uint256"
				}
			],
			"stateMutability": "view",
			"type": "function"
		},
		{
			"inputs": [],
			"name": "maxOrderPool",
			"outputs": [
				{
					"internalType": "uint256",
					"name": "",
					"type": "uint256"
				}
			],
			"stateMutability": "view",
			"type": "function"
		},
		{
			"inputs": [],
			"name": "maxOrderReward",
			"outputs": [
				{
					"components": [
						{
							"internalType": "uint256",
							"name": "countdown",
							"type": "uint256"
						},
						{
							"internalType": "uint256",
							"name": "poolAmount",
							"type": "uint256"
						},
						{
							"internalType": "uint256",
							"name": "rewardAmount",
							"type": "uint256"
						},
						{
							"internalType": "uint256",
							"name": "maxComputingPower",
							"type": "uint256"
						},
						{
							"internalType": "address",
							"name": "maxOrderUser",
							"type": "address"
						}
					],
					"internalType": "struct IMMStore.MaxOrderReward",
					"name": "order",
					"type": "tuple"
				}
			],
			"stateMutability": "view",
			"type": "function"
		},
		{
			"inputs": [],
			"name": "noOrderPool",
			"outputs": [
				{
					"internalType": "uint256",
					"name": "",
					"type": "uint256"
				}
			],
			"stateMutability": "view",
			"type": "function"
		},
		{
			"inputs": [],
			"name": "owner",
			"outputs": [
				{
					"internalType": "address",
					"name": "",
					"type": "address"
				}
			],
			"stateMutability": "view",
			"type": "function"
		},
		{
			"inputs": [],
			"name": "proxiableUUID",
			"outputs": [
				{
					"internalType": "bytes32",
					"name": "",
					"type": "bytes32"
				}
			],
			"stateMutability": "view",
			"type": "function"
		},
		{
			"inputs": [
				{
					"internalType": "address",
					"name": "",
					"type": "address"
				}
			],
			"name": "ref",
			"outputs": [
				{
					"internalType": "address",
					"name": "",
					"type": "address"
				}
			],
			"stateMutability": "view",
			"type": "function"
		},
		{
			"inputs": [
				{
					"internalType": "address",
					"name": "_refAddress",
					"type": "address"
				}
			],
			"name": "register",
			"outputs": [],
			"stateMutability": "nonpayable",
			"type": "function"
		},
		{
			"inputs": [],
			"name": "renounceOwnership",
			"outputs": [],
			"stateMutability": "nonpayable",
			"type": "function"
		},
		{
			"inputs": [],
			"name": "superFomo",
			"outputs": [
				{
					"components": [
						{
							"internalType": "uint256",
							"name": "countdown",
							"type": "uint256"
						},
						{
							"internalType": "uint256",
							"name": "poolAmount",
							"type": "uint256"
						},
						{
							"internalType": "uint256",
							"name": "rewardAmount",
							"type": "uint256"
						},
						{
							"internalType": "uint256",
							"name": "totalBurnAmount",
							"type": "uint256"
						},
						{
							"internalType": "address",
							"name": "lastUser",
							"type": "address"
						}
					],
					"internalType": "struct IMMStore.SuperFomo",
					"name": "fomo",
					"type": "tuple"
				}
			],
			"stateMutability": "view",
			"type": "function"
		},
		{
			"inputs": [
				{
					"internalType": "uint256",
					"name": "amount",
					"type": "uint256"
				}
			],
			"name": "swap",
			"outputs": [],
			"stateMutability": "nonpayable",
			"type": "function"
		},
		{
			"inputs": [
				{
					"internalType": "uint256",
					"name": "amount",
					"type": "uint256"
				}
			],
			"name": "swapOutAmount",
			"outputs": [
				{
					"internalType": "uint256",
					"name": "",
					"type": "uint256"
				}
			],
			"stateMutability": "view",
			"type": "function"
		},
		{
			"inputs": [],
			"name": "syncPool",
			"outputs": [],
			"stateMutability": "nonpayable",
			"type": "function"
		},
		{
			"inputs": [
				{
					"internalType": "uint256",
					"name": "",
					"type": "uint256"
				}
			],
			"name": "transferMaxOrder",
			"outputs": [
				{
					"internalType": "address",
					"name": "user",
					"type": "address"
				},
				{
					"internalType": "uint256",
					"name": "amount",
					"type": "uint256"
				},
				{
					"internalType": "uint256",
					"name": "number",
					"type": "uint256"
				},
				{
					"internalType": "uint256",
					"name": "timestamp",
					"type": "uint256"
				}
			],
			"stateMutability": "view",
			"type": "function"
		},
		{
			"inputs": [
				{
					"internalType": "uint256",
					"name": "",
					"type": "uint256"
				}
			],
			"name": "transferNoOrder",
			"outputs": [
				{
					"internalType": "address",
					"name": "user",
					"type": "address"
				},
				{
					"internalType": "uint256",
					"name": "amount",
					"type": "uint256"
				},
				{
					"internalType": "uint256",
					"name": "number",
					"type": "uint256"
				},
				{
					"internalType": "uint256",
					"name": "timestamp",
					"type": "uint256"
				}
			],
			"stateMutability": "view",
			"type": "function"
		},
		{
			"inputs": [
				{
					"internalType": "address",
					"name": "newOwner",
					"type": "address"
				}
			],
			"name": "transferOwnership",
			"outputs": [],
			"stateMutability": "nonpayable",
			"type": "function"
		},
		{
			"inputs": [
				{
					"internalType": "address",
					"name": "newImplementation",
					"type": "address"
				}
			],
			"name": "upgradeTo",
			"outputs": [],
			"stateMutability": "nonpayable",
			"type": "function"
		},
		{
			"inputs": [
				{
					"internalType": "address",
					"name": "newImplementation",
					"type": "address"
				},
				{
					"internalType": "bytes",
					"name": "data",
					"type": "bytes"
				}
			],
			"name": "upgradeToAndCall",
			"outputs": [],
			"stateMutability": "payable",
			"type": "function"
		},
		{
			"inputs": [
				{
					"internalType": "address",
					"name": "",
					"type": "address"
				},
				{
					"internalType": "uint256",
					"name": "",
					"type": "uint256"
				}
			],
			"name": "userMachine",
			"outputs": [
				{
					"internalType": "uint256",
					"name": "",
					"type": "uint256"
				}
			],
			"stateMutability": "view",
			"type": "function"
		},
		{
			"inputs": [
				{
					"internalType": "address",
					"name": "user",
					"type": "address"
				}
			],
			"name": "userMachineArr",
			"outputs": [
				{
					"components": [
						{
							"internalType": "uint256",
							"name": "computingPower",
							"type": "uint256"
						},
						{
							"internalType": "uint256",
							"name": "createTime",
							"type": "uint256"
						},
						{
							"internalType": "uint256",
							"name": "countdown",
							"type": "uint256"
						},
						{
							"internalType": "uint256",
							"name": "lastTime",
							"type": "uint256"
						}
					],
					"internalType": "struct IMMStore.MachineResponse[]",
					"name": "list",
					"type": "tuple[]"
				}
			],
			"stateMutability": "view",
			"type": "function"
		},
		{
			"inputs": [
				{
					"internalType": "uint256",
					"name": "",
					"type": "uint256"
				}
			],
			"name": "users",
			"outputs": [
				{
					"internalType": "address",
					"name": "user",
					"type": "address"
				},
				{
					"internalType": "address",
					"name": "ref",
					"type": "address"
				},
				{
					"internalType": "uint256",
					"name": "registerTime",
					"type": "uint256"
				}
			],
			"stateMutability": "view",
			"type": "function"
		}
	]
}