{
	"data": {
		"bytecode": {
			"linkReferences": {},
			"object": "60a0604052306080525f60db55348015610017575f80fd5b50608051615c776200004d5f395f8181610b1301528181610b5c01528181611d7301528181611db30152611f510152615c775ff3fe608060405260043610610238575f3560e01c806304e869031461023c5780631865e4d51461027a578063210835ae146102b8578063233be799146102d95780632562c39b14610305578063265eb5b8146103265780632d6d56b01461033a5780633659cfe614610383578063365b98b2146103a2578063382e227f146103d05780633f22297e146103ef57806342ff7bcd1461040e5780634420e486146104235780634469ed131461044057806345b3e93e1461045f5780634e71d92d146104735780634f1ef2861461048757806351ae6b1b1461049a57806352d1902d146104c657806357629f82146104da578063624343e6146104f9578063715018a6146105255780637456fed6146105395780637bab10321461054d5780638da5cb5b146105615780638e56d48c1461058257806394b918de146105975780639b5f0f22146105b6578063a3592158146105cb578063a7808f1a146105e0578063ad7e01be146105f4578063baf189d214610608578063bf024cfa14610627578063c4b6ebdf14610646578063c4d66de81461067a578063c6834bf614610699578063c8ee5073146106fb578063cb82ab191461071a578063cbba3def14610739578063d77f5ee714610765578063d7df42d31461077a578063dba64f8f14610799578063e500845d146107b8578063e8bb4c33146107d7578063e91e969c146107eb578063eed0ab53146107ff578063f2782d6d1461082b578063f2fde38b1461084a578063f951d94514610869578063fc76f17c146108a3575b5f80fd5b348015610247575f80fd5b506102676102563660046152a2565b60d36020525f908152604090205481565b6040519081526020015b60405180910390f35b348015610285575f80fd5b506102a86102943660046152a2565b60d16020525f908152604090205460ff1681565b6040519015158152602001610271565b3480156102c3575f80fd5b506102d76102d23660046152a2565b6108cf565b005b3480156102e4575f80fd5b506102f86102f33660046152a2565b6108f9565b60405161027191906152e3565b348015610310575f80fd5b5061031961097e565b60405161027191906152f1565b348015610331575f80fd5b5060cb54610267565b348015610345575f80fd5b5061035961035436600461532f565b610ac7565b604080516001600160a01b0390951685526020850193909352918301526060820152608001610271565b34801561038e575f80fd5b506102d761039d3660046152a2565b610b09565b3480156103ad575f80fd5b506103c16103bc36600461532f565b610bd6565b60405161027193929190615346565b3480156103db575f80fd5b506102d76103ea36600461536a565b610c14565b3480156103fa575f80fd5b5061026761040936600461532f565b6116d0565b348015610419575f80fd5b5061026760d55481565b34801561042e575f80fd5b506102d761043d3660046152a2565b50565b34801561044b575f80fd5b5061035961045a36600461532f565b611855565b34801561046a575f80fd5b50610319611864565b34801561047e575f80fd5b506102d761199b565b6102d761049536600461542e565b611d69565b3480156104a5575f80fd5b506104b96104b436600461536a565b611e22565b604051610271919061547a565b3480156104d1575f80fd5b50610267611f45565b3480156104e5575f80fd5b506102d76104f43660046154de565b611ff1565b348015610504575f80fd5b5061051861051336600461532f565b612137565b6040516102719190615534565b348015610530575f80fd5b506102d76121a1565b348015610544575f80fd5b5060ca54610267565b348015610558575f80fd5b506102676121b4565b34801561056c575f80fd5b506105756121c2565b6040516102719190615542565b34801561058d575f80fd5b5061026760d65481565b3480156105a2575f80fd5b506102d76105b136600461532f565b6121d1565b3480156105c1575f80fd5b5061026760d75481565b3480156105d6575f80fd5b5061026760d85481565b3480156105eb575f80fd5b5060cc54610267565b3480156105ff575f80fd5b506102d7612603565b348015610613575f80fd5b5061051861062236600461532f565b612a8a565b348015610632575f80fd5b506102676106413660046154de565b612aa5565b348015610651575f80fd5b506105756106603660046152a2565b60cf6020525f90815260409020546001600160a01b031681565b348015610685575f80fd5b506102d76106943660046152a2565b612ad0565b3480156106a4575f80fd5b506106b86106b33660046152a2565b612cce565b60405161027191905f60a0820190508251825260208301516020830152604083015160408301526060830151606083015260808301511515608083015292915050565b348015610706575f80fd5b5061035961071536600461532f565b612f92565b348015610725575f80fd5b5061035961073436600461532f565b612fa1565b348015610744575f80fd5b5061075861075336600461536a565b612fb0565b6040516102719190615556565b348015610770575f80fd5b5061026760d45481565b348015610785575f80fd5b506102d76107943660046155a3565b6130e7565b3480156107a4575f80fd5b5060c954610575906001600160a01b031681565b3480156107c3575f80fd5b506102676107d23660046152a2565b613492565b3480156107e2575f80fd5b506105756135c5565b3480156107f6575f80fd5b506102d7613630565b34801561080a575f80fd5b5061081e61081936600461536a565b613c35565b6040516102719190615601565b348015610836575f80fd5b5061035961084536600461532f565b613d6c565b348015610855575f80fd5b506102d76108643660046152a2565b613d7b565b348015610874575f80fd5b506102a8610883366004615642565b805160208183018101805160d28252928201919093012091525460ff1681565b3480156108ae575f80fd5b506108c26108bd3660046152a2565b613df1565b604051610271919061568e565b6108d76140a8565b60c980546001600160a01b0319166001600160a01b0392909216919091179055565b61092060405180608001604052805f81526020015f81526020015f81526020015f81525090565b50604080516080810182526001600160a01b039092165f90815260d960209081528282208280528082528383205485526001835280825283832054828601526002835280825283832054858501526003835290522054606082015290565b6109b46040518060a001604052805f81526020015f81526020015f81526020015f81526020015f6001600160a01b031681525090565b5f60cb60d754815481106109ca576109ca6156cf565b905f5260205f2090600402016002015460d8541015610a0d5760cb60d754815481106109f8576109f86156cf565b905f5260205f20906004020160020154610a11565b60d8545b9050610a2062015180826156f7565b90506040518060a0016040528082421015610a4457610a3f428461570a565b610a46565b5f5b815260200160d5548152602001600260d554610a629190615731565b815260200160cb60d75481548110610a7c57610a7c6156cf565b905f5260205f20906004020160010154815260200160cb60d75481548110610aa657610aa66156cf565b5f9182526020909120600490910201546001600160a01b0316905292915050565b60cd8181548110610ad6575f80fd5b5f91825260209091206004909102018054600182015460028301546003909301546001600160a01b039092169350919084565b6001600160a01b037f0000000000000000000000000000000000000000000000000000000000000000163003610b5a5760405162461bcd60e51b8152600401610b5190615744565b60405180910390fd5b7f00000000000000000000000000000000000000000000000000000000000000006001600160a01b0316610b8c614107565b6001600160a01b031614610bb25760405162461bcd60e51b8152600401610b519061577d565b610bbb81614122565b604080515f8082526020820190925261043d9183919061412a565b60ca8181548110610be5575f80fd5b5f9182526020909120600390910201805460018201546002909201546001600160a01b03918216935091169083565b60db54600103610c365760405162d2d51960e11b815260040160405180910390fd5b610c3e614294565b6001600160a01b03166323b872dd3330610c59600287615731565b6040518463ffffffff1660e01b8152600401610c7793929190615346565b6020604051808303815f875af1158015610c93573d5f803e3d5ffd5b505050506040513d601f19601f82011682018060405250810190610cb791906157b6565b50805f03610ea65760c95f9054906101000a90046001600160a01b03166001600160a01b0316638f05cdf56040518163ffffffff1660e01b8152600401602060405180830381865afa158015610d0f573d5f803e3d5ffd5b505050506040513d601f19601f82011682018060405250810190610d3391906157d5565b6001600160a01b03166323b872dd3360c95f9054906101000a90046001600160a01b03166001600160a01b031663e9d610e56040518163ffffffff1660e01b8152600401602060405180830381865afa158015610d92573d5f803e3d5ffd5b505050506040513d601f19601f82011682018060405250810190610db691906157d5565b60c9546040805163698518e560e01b815290516103e8926001600160a01b03169163698518e59160048083019260209291908290030181865afa158015610dff573d5f803e3d5ffd5b505050506040513d601f19601f82011682018060405250810190610e2391906157f0565b610e2e600289615731565b610e389190615807565b610e429190615731565b6040518463ffffffff1660e01b8152600401610e6093929190615346565b6020604051808303815f875af1158015610e7c573d5f803e3d5ffd5b505050506040513d601f19601f82011682018060405250810190610ea091906157b6565b50610f53565b5f610eaf6142db565b9050610eb96135c5565b6001600160a01b03166323b872dd33600184610ed6600289615731565b610ee09190615731565b610ef290670de0b6b3a7640000615807565b6040518463ffffffff1660e01b8152600401610f1093929190615346565b6020604051808303815f875af1158015610f2c573d5f803e3d5ffd5b505050506040513d601f19601f82011682018060405250810190610f5091906157b6565b50505b335f81815260d06020908152604080832060cb80548254600180820185559387528587200155825160808101845286815280850189815242828601818152606084019182528454808701865594895292515f80516020615b7b833981519152600490950294850180546001600160a01b0319166001600160a01b0390921691909117905590515f80516020615b5b83398151915284015590515f80516020615b9b833981519152830155515f80516020615c228339815191529091015593835260d19091529020805460ff1916909117905561102d614294565b6001600160a01b031663a9059cbb60c95f9054906101000a90046001600160a01b03166001600160a01b0316631e56cfab6040518163ffffffff1660e01b8152600401602060405180830381865afa15801561108b573d5f803e3d5ffd5b505050506040513d601f19601f820116820180604052508101906110af91906157d5565b6103e86110bd600287615731565b6110c8906014615807565b6110d29190615731565b6040518363ffffffff1660e01b81526004016110ef92919061581e565b6020604051808303815f875af115801561110b573d5f803e3d5ffd5b505050506040513d601f19601f8201168201806040525081019061112f91906157b6565b50611138614294565b6001600160a01b031663a9059cbb60c95f9054906101000a90046001600160a01b03166001600160a01b031663956236416040518163ffffffff1660e01b8152600401602060405180830381865afa158015611196573d5f803e3d5ffd5b505050506040513d601f19601f820116820180604052508101906111ba91906157d5565b6103e86111c8600287615731565b6111d3906014615807565b6111dd9190615731565b6040518363ffffffff1660e01b81526004016111fa92919061581e565b6020604051808303815f875af1158015611216573d5f803e3d5ffd5b505050506040513d601f19601f8201168201806040525081019061123a91906157b6565b50611243614294565b6001600160a01b031663095ea7b3611259614467565b6103e8611267600287615731565b6112729060c8615807565b61127c9190615731565b6040518363ffffffff1660e01b815260040161129992919061581e565b6020604051808303815f875af11580156112b5573d5f803e3d5ffd5b505050506040513d601f19601f820116820180604052508101906112d991906157b6565b506112e2614467565b6001600160a01b031663a1e154116112f8614294565b6113006144ae565b6103e861130e600288615731565b6113199060c8615807565b6113239190615731565b6040518463ffffffff1660e01b815260040161134193929190615346565b6020604051808303815f875af115801561135d573d5f803e3d5ffd5b505050506040513d601f19601f8201168201806040525081019061138191906157f0565b505f6103e8611391600285615731565b61139d906102bc615807565b6113a79190615731565b90505f806113b3614467565b6001600160a01b0316630902f1ac6040518163ffffffff1660e01b8152600401606060405180830381865afa1580156113ee573d5f803e3d5ffd5b505050506040513d601f19601f820116820180604052508101906114129190615852565b50915091505f80611421614294565b6001600160a01b0316611432614467565b6001600160a01b0316630dfe16816040518163ffffffff1660e01b8152600401602060405180830381865afa15801561146d573d5f803e3d5ffd5b505050506040513d601f19601f8201168201806040525081019061149191906157d5565b6001600160a01b0316146114a65782846114a9565b83835b915091505f826001600160701b031686836001600160701b03166114cd9190615807565b6114d79190615731565b90506114e1614294565b6001600160a01b031663a9059cbb6114f7614467565b886040518363ffffffff1660e01b815260040161151592919061581e565b6020604051808303815f875af1158015611531573d5f803e3d5ffd5b505050506040513d601f19601f8201168201806040525081019061155591906157b6565b5061155e6144ae565b6001600160a01b031663f3fef3a3611574614467565b836040518363ffffffff1660e01b815260040161159292919061581e565b5f604051808303815f87803b1580156115a9575f80fd5b505af11580156115bb573d5f803e3d5ffd5b505050506115c7614467565b6001600160a01b0316636a62784260016040518263ffffffff1660e01b81526004016115f39190615542565b6020604051808303815f875af115801561160f573d5f803e3d5ffd5b505050506040513d601f19601f8201168201806040525081019061163391906157f0565b5061163c6144f5565b6116446146c3565b6103e861165260028a615731565b61165d906023615807565b6116679190615731565b60d45f82825461167791906156f7565b909155506103e8905061168b60028a615731565b611696906019615807565b6116a09190615731565b60d55f8282546116b091906156f7565b909155506116be9050612603565b6116c6613630565b5050505050505050565b5f805f6116db614467565b6001600160a01b0316630902f1ac6040518163ffffffff1660e01b8152600401606060405180830381865afa158015611716573d5f803e3d5ffd5b505050506040513d601f19601f8201168201806040525081019061173a9190615852565b50915091505f80611749614294565b6001600160a01b031661175a614467565b6001600160a01b0316630dfe16816040518163ffffffff1660e01b8152600401602060405180830381865afa158015611795573d5f803e3d5ffd5b505050506040513d601f19601f820116820180604052508101906117b991906157d5565b6001600160a01b0316146117ce5782846117d1565b83835b915091506117dd614467565b6001600160a01b031663054d50d48783856040518463ffffffff1660e01b815260040161180c9392919061589e565b602060405180830381865afa158015611827573d5f803e3d5ffd5b505050506040513d601f19601f8201168201806040525081019061184b91906157f0565b9695505050505050565b60ce8181548110610ad6575f80fd5b61189a6040518060a001604052805f81526020015f81526020015f81526020015f81526020015f6001600160a01b031681525090565b5f60d6546102586118ab91906156f7565b90506040518060a00160405280824210156118cf576118ca428461570a565b6118d1565b5f5b815260200160d45481526020016103e860d45460646118f09190615807565b6118fa9190615731565b81526020016119076135c5565b6001600160a01b03166370a0823160016040518263ffffffff1660e01b81526004016119339190615542565b602060405180830381865afa15801561194e573d5f803e3d5ffd5b505050506040513d601f19601f8201168201806040525081019061197291906157f0565b815260200160cb600160cb8054905061198b919061570a565b81548110610aa657610aa66156cf565b335f90815260d060209081526040808320805482518185028101850190935280835291929091908301828280156119ef57602002820191905f5260205f20905b8154815260200190600101908083116119db575b505050505090505f80611a006142db565b90505f5b8351811015611bb1575f60cb858381518110611a2257611a226156cf565b602002602001015181548110611a3a57611a3a6156cf565b905f5260205f209060040201905060c95f9054906101000a90046001600160a01b03166001600160a01b0316630b433a126040518163ffffffff1660e01b8152600401602060405180830381865afa158015611a98573d5f803e3d5ffd5b505050506040513d601f19601f82011682018060405250810190611abc91906157f0565b6003820154611acb904261570a565b11611ae957604051631ca0875f60e01b815260040160405180910390fd5b5f611af261495d565b8260020154611b0191906156f7565b4210611b2357611b0f61495d565b8260020154611b1e91906156f7565b611b25565b425b905081600301548111611b39575050611ba1565b836201518060648460010154611b4f9190615731565b611b599190615731565b6003840154611b68908461570a565b611b729190615807565b611b7c9190615731565b611b8e90670de0b6b3a7640000615807565b611b9890866156f7565b60039092015592505b611baa816158bd565b9050611a04565b508115611d5457611bc06144ae565b6001600160a01b031663f3fef3a330846040518363ffffffff1660e01b8152600401611bed92919061581e565b5f604051808303815f87803b158015611c04575f80fd5b505af1158015611c16573d5f803e3d5ffd5b50505050611c226135c5565b6001600160a01b031663a9059cbb33611c3c600286615731565b6040518363ffffffff1660e01b8152600401611c5992919061581e565b6020604051808303815f875af1158015611c75573d5f803e3d5ffd5b505050506040513d601f19601f82011682018060405250810190611c9991906157b6565b50604080516080810190915233815260cc9060208101611cba600286615731565b81525f60208083018290524260409384015284546001808201875595835291819020845160049093020180546001600160a01b0319166001600160a01b0390931692909217825583015193810193909355810151600280840191909155606090910151600390920191909155611d309083615731565b335f90815260d3602052604081208054909190611d4e9084906156f7565b90915550505b611d5c612603565b611d64613630565b505050565b6001600160a01b037f0000000000000000000000000000000000000000000000000000000000000000163003611db15760405162461bcd60e51b8152600401610b5190615744565b7f00000000000000000000000000000000000000000000000000000000000000006001600160a01b0316611de3614107565b6001600160a01b031614611e095760405162461bcd60e51b8152600401610b519061577d565b611e1282614122565b611e1e8282600161412a565b5050565b60605f611e2f848461570a565b611e3a9060016156f7565b9050806001600160401b03811115611e5457611e5461538a565b604051908082528060200260200182016040528015611e9d57816020015b604080516060810182525f80825260208083018290529282015282525f19909201910181611e725790505b5091505f5b81811015611f3d5760ca611eb682876156f7565b81548110611ec657611ec66156cf565b5f91825260209182902060408051606081018252600390930290910180546001600160a01b03908116845260018201541693830193909352600290920154918101919091528351849083908110611f1f57611f1f6156cf565b60200260200101819052508080611f35906158bd565b915050611ea2565b505092915050565b5f306001600160a01b037f00000000000000000000000000000000000000000000000000000000000000001614611fdf5760405162461bcd60e51b815260206004820152603860248201527f555550535570677261646561626c653a206d757374206e6f742062652063616c6044820152771b1959081d1a1c9bdd59da0819195b1959d85d1958d85b1b60421b6064820152608401610b51565b505f80516020615bdb83398151915290565b60c9546001600160a01b0316331461201c5760405163037816cf60e01b815260040160405180910390fd5b6001600160a01b038281165f90815260cf6020526040902054166120535760405163936e307360e01b815260040160405180910390fd5b6001600160a01b038281165f81815260d06020908152604080832060cb80548254600180820185559387528587200155825160808101845295865285840188815242878501818152606089019182528354808601855593885297515f80516020615b7b833981519152600490940293840180546001600160a01b03191691909a1617909855515f80516020615b5b83398151915282015594515f80516020615b9b83398151915286015594515f80516020615c228339815191529094019390935533825260d1905220805460ff1916909117905561212f6144f5565b611e1e6146c3565b61213f615261565b60ce8281548110612152576121526156cf565b5f91825260209182902060408051608081018252600490930290910180546001600160a01b03168352600181015493830193909352600283015490820152600390910154606082015292915050565b6121a96140a8565b6121b25f6149c8565b565b5f6121bd6142db565b905090565b6033546001600160a01b031690565b6121d96135c5565b6001600160a01b03166323b872dd336001846040518463ffffffff1660e01b815260040161220993929190615346565b6020604051808303815f875af1158015612225573d5f803e3d5ffd5b505050506040513d601f19601f8201168201806040525081019061224991906157b6565b505f80612254614467565b6001600160a01b0316630902f1ac6040518163ffffffff1660e01b8152600401606060405180830381865afa15801561228f573d5f803e3d5ffd5b505050506040513d601f19601f820116820180604052508101906122b39190615852565b50915091505f806122c2614294565b6001600160a01b03166122d3614467565b6001600160a01b0316630dfe16816040518163ffffffff1660e01b8152600401602060405180830381865afa15801561230e573d5f803e3d5ffd5b505050506040513d601f19601f8201168201806040525081019061233291906157d5565b6001600160a01b03161461234757828461234a565b83835b915091505f612357614467565b6001600160a01b031663054d50d48784866040518463ffffffff1660e01b81526004016123869392919061589e565b602060405180830381865afa1580156123a1573d5f803e3d5ffd5b505050506040513d601f19601f820116820180604052508101906123c591906157f0565b90505f836001600160701b031682846001600160701b03166123e79190615807565b6123f19190615731565b90505f806123fd614294565b6001600160a01b031661240e614467565b6001600160a01b0316630dfe16816040518163ffffffff1660e01b8152600401602060405180830381865afa158015612449573d5f803e3d5ffd5b505050506040513d601f19601f8201168201806040525081019061246d91906157d5565b6001600160a01b031614612482578284612485565b83835b91509150612491614467565b60405163e840427d60e01b815260048101849052602481018390523060448201526001600160a01b03919091169063e840427d906064015f604051808303815f87803b1580156124df575f80fd5b505af11580156124f1573d5f803e3d5ffd5b505050506124fd614294565b6001600160a01b031663a9059cbb33866040518363ffffffff1660e01b815260040161252a92919061581e565b6020604051808303815f875af1158015612546573d5f803e3d5ffd5b505050506040513d601f19601f8201168201806040525081019061256a91906157b6565b506125736135c5565b6001600160a01b031663a9059cbb6125896144ae565b856040518363ffffffff1660e01b81526004016125a792919061581e565b6020604051808303815f875af11580156125c3573d5f803e3d5ffd5b505050506040513d601f19601f820116820180604052508101906125e791906157b6565b506125f0612603565b6125f8613630565b505050505050505050565b5f61260c6135c5565b6001600160a01b03166370a082316126226144ae565b6040518263ffffffff1660e01b815260040161263e9190615542565b602060405180830381865afa158015612659573d5f803e3d5ffd5b505050506040513d601f19601f8201168201806040525081019061267d91906157f0565b90505f6126886135c5565b6001600160a01b03166370a0823161269e614467565b6040518263ffffffff1660e01b81526004016126ba9190615542565b602060405180830381865afa1580156126d5573d5f803e3d5ffd5b505050506040513d601f19601f820116820180604052508101906126f991906157f0565b90506103e8612709836032615807565b6127139190615731565b61271d90836156f7565b8111612727575050565b5f80612731614467565b6001600160a01b0316630902f1ac6040518163ffffffff1660e01b8152600401606060405180830381865afa15801561276c573d5f803e3d5ffd5b505050506040513d601f19601f820116820180604052508101906127909190615852565b509150915061279d614467565b6001600160a01b031663e840427d6103e86127b985600a6158d5565b6127c391906158f8565b6103e86127d185600a6158d5565b6127db91906158f8565b306040518463ffffffff1660e01b81526004016127fa9392919061591d565b5f604051808303815f87803b158015612811575f80fd5b505af1158015612823573d5f803e3d5ffd5b505050505f80612831614294565b6001600160a01b0316612842614467565b6001600160a01b0316630dfe16816040518163ffffffff1660e01b8152600401602060405180830381865afa15801561287d573d5f803e3d5ffd5b505050506040513d601f19601f820116820180604052508101906128a191906157d5565b6001600160a01b0316146128b65782846128b9565b83835b915091506128c56135c5565b6001600160a01b031663a9059cbb6128db6144ae565b6103e86128e985600a6158d5565b6128f391906158f8565b6040518363ffffffff1660e01b8152600401612910929190615949565b6020604051808303815f875af115801561292c573d5f803e3d5ffd5b505050506040513d601f19601f8201168201806040525081019061295091906157b6565b50612959614294565b6001600160a01b031663095ea7b361296f614467565b6103e861297d86600a6158d5565b61298791906158f8565b6040518363ffffffff1660e01b81526004016129a4929190615949565b6020604051808303815f875af11580156129c0573d5f803e3d5ffd5b505050506040513d601f19601f820116820180604052508101906129e491906157b6565b506129ed614467565b6001600160a01b031663a1e15411612a03614294565b612a0b6144ae565b6103e8612a1987600a6158d5565b612a2391906158f8565b6040518463ffffffff1660e01b8152600401612a419392919061596b565b6020604051808303815f875af1158015612a5d573d5f803e3d5ffd5b505050506040513d601f19601f82011682018060405250810190612a8191906157f0565b50505050505050565b612a92615261565b60cd8281548110612152576121526156cf565b60d0602052815f5260405f208181548110612abe575f80fd5b905f5260205f20015f91509150505481565b5f54610100900460ff1615808015612aee57505f54600160ff909116105b80612b0e5750612afd30614a19565b158015612b0e57505f5460ff166001145b612b715760405162461bcd60e51b815260206004820152602e60248201527f496e697469616c697a61626c653a20636f6e747261637420697320616c72656160448201526d191e481a5b9a5d1a585b1a5e995960921b6064820152608401610b51565b5f805460ff191660011790558015612b92575f805461ff0019166101001790555b612b9a614a28565b60c980546001600160a01b0319166001600160a01b0384169081179091556040805160608101808352637f36e6dd60e11b9052905160ca92829163fe6dcdba906064808501916020918187030181865afa158015612bfa573d5f803e3d5ffd5b505050506040513d601f19601f82011682018060405250810190612c1e91906157d5565b6001600160a01b0390811682525f60208084018290524260409485015285546001818101885596835291819020855160039093020180549284166001600160a01b0319938416178155908501519581018054969093169590911694909417905501516002909101558015611e1e575f805461ff0019169055604051600181527f7f26b83ff96e1f2b6a682f133852f6798a09c465da95921460cefb38474024989060200160405180910390a15050565b612cfd6040518060a001604052805f81526020015f81526020015f81526020015f81526020015f151581525090565b6001600160a01b0382165f90815260d06020908152604080832080548251818502810185019093528083529192909190830182828015612d5a57602002820191905f5260205f20905b815481526020019060010190808311612d46575b505050505090505f80612d6b6142db565b905060015f5b8451811015612f28575f60cb868381518110612d8f57612d8f6156cf565b602002602001015181548110612da757612da76156cf565b5f91825260209182902060408051608081018252600493840290920180546001600160a01b039081168452600182015484870152600282015484840152600390910154606084015260c95482516305a19d0960e11b815292519396501693630b433a12938281019391928290030181865afa158015612e28573d5f803e3d5ffd5b505050506040513d601f19601f82011682018060405250810190612e4c91906157f0565b6060820151612e5b904261570a565b11612e64575f92505b5f612e6d61495d565b8260400151612e7c91906156f7565b4210612e9e57612e8a61495d565b8260400151612e9991906156f7565b612ea0565b425b905081606001518111612eb4575050612f18565b846201518060648460200151612eca9190615731565b612ed49190615731565b6060840151612ee3908461570a565b612eed9190615807565b612ef79190615731565b612f0990670de0b6b3a7640000615807565b612f1390876156f7565b955050505b612f21816158bd565b9050612d71565b506040518060a00160405280600285612f419190615731565b8152602001612f51600286615731565b81526001600160a01b039097165f81815260d36020818152604080842054828d01819052949093525288015290151560609096019590955250929392505050565b60da8181548110610ad6575f80fd5b60cc8181548110610ad6575f80fd5b60605f612fbd848461570a565b612fc89060016156f7565b9050806001600160401b03811115612fe257612fe261538a565b60405190808252806020026020018201604052801561304357816020015b61303060405180608001604052805f6001600160a01b031681526020015f81526020015f81526020015f81525090565b8152602001906001900390816130005790505b5091505f5b81811015611f3d5760cc61305c82876156f7565b8154811061306c5761306c6156cf565b5f91825260209182902060408051608081018252600490930290910180546001600160a01b03168352600181015493830193909352600283015490820152600390910154606082015283518490839081106130c9576130c96156cf565b602002602001018190525080806130df906158bd565b915050613048565b6040805133606081901b6001600160601b03191660208084019190915260348301899052605483018890526074830187905260948084018790528451808503909101815260b4840185528051908201207b0ca2ba3432b932bab69029b4b3b732b21026b2b9b9b0b3b29d05199960211b60d485015260f08085019190915284518085039091018152610110909301909352815191909201205f61318a8285614a56565b9050806001600160a01b031660c95f9054906101000a90046001600160a01b03166001600160a01b031663570ca7356040518163ffffffff1660e01b8152600401602060405180830381865afa1580156131e6573d5f803e3d5ffd5b505050506040513d601f19601f8201168201806040525081019061320a91906157d5565b6001600160a01b0316146132315760405163e1a9613360e01b815260040160405180910390fd5b6001600160a01b0383165f90815260d96020908152604080832083805290915280822054600183528183205460028452828420546003855292842054919390929190848d11156132b757613285858e61570a565b61328f90826156f7565b6001600160a01b0389165f90815260d96020908152604080832083805290915290208e905590505b838c11156132fc576132c9848d61570a565b6132d390826156f7565b6001600160a01b0389165f90815260d9602090815260408083206001845290915290208d905590505b828b11156133415761330e838c61570a565b61331890826156f7565b6001600160a01b0389165f90815260d9602090815260408083206002845290915290208c905590505b818a111561338657613353828b61570a565b61335d90826156f7565b6001600160a01b0389165f90815260d9602090815260408083206003845290915290208b905590505b801561348357604080516080810190915233815260cc90602081016133ac600285615731565b81526001602080830182905242604093840152845480830186555f95865294819020845160049096020180546001600160a01b0319166001600160a01b03909616959095178555830151908401558101516002830155606001516003909101556134146135c5565b6001600160a01b031663a9059cbb89836040518363ffffffff1660e01b815260040161344192919061581e565b6020604051808303815f875af115801561345d573d5f803e3d5ffd5b505050506040513d601f19601f8201168201806040525081019061348191906157b6565b505b50505050505050505050505050565b6001600160a01b0381165f90815260d060209081526040808320805482518185028101850190935280835284938301828280156134ec57602002820191905f5260205f20905b8154815260200190600101908083116134d8575b505050505090505f5b81518110156135be575f60cb838381518110613513576135136156cf565b60200260200101518154811061352b5761352b6156cf565b5f91825260209182902060408051608081018252600490930290910180546001600160a01b03168352600181015493830193909352600283015490820152600390910154606082015290504261357f61495d565b826040015161358e91906156f7565b1161359957506135ac565b60208101516135a890856156f7565b9350505b806135b6816158bd565b9150506134f5565b5050919050565b60c95460408051635bff978760e01b815290515f926001600160a01b031691635bff97879160048083019260209291908290030181865afa15801561360c573d5f803e3d5ffd5b505050506040513d601f19601f820116820180604052508101906121bd91906157d5565b5f805f8061363d42614a7a565b5050935093509350935060088161365491906156f7565b9050601881111561367a5761366a6001836156f7565b915061367760188261570a565b90505b60088110156136895750505050565b5f61369385614aec565b61369c85614aec565b6136a585614aec565b6040516020016136b7939291906159b9565b604051602081830303815290604052905060d2816040516136d891906159fb565b9081526040519081900360200190205460ff16156136f7575050505050565b600160d28260405161370991906159fb565b908152604051908190036020019020805491151560ff199092169190911790555f80613733614467565b6001600160a01b0316630902f1ac6040518163ffffffff1660e01b8152600401606060405180830381865afa15801561376e573d5f803e3d5ffd5b505050506040513d601f19601f820116820180604052508101906137929190615852565b509150915061379f614467565b6001600160a01b031663e840427d6103e86137bb85600a6158d5565b6137c591906158f8565b6103e86137d385600a6158d5565b6137dd91906158f8565b306040518463ffffffff1660e01b81526004016137fc9392919061591d565b5f604051808303815f87803b158015613813575f80fd5b505af1158015613825573d5f803e3d5ffd5b505050505f80613833614294565b6001600160a01b0316613844614467565b6001600160a01b0316630dfe16816040518163ffffffff1660e01b8152600401602060405180830381865afa15801561387f573d5f803e3d5ffd5b505050506040513d601f19601f820116820180604052508101906138a391906157d5565b6001600160a01b0316146138b85782846138bb565b83835b915091506138c76135c5565b6001600160a01b031663a9059cbb6138dd6144ae565b6103e86138eb85600a6158d5565b6138f591906158f8565b6040518363ffffffff1660e01b8152600401613912929190615949565b6020604051808303815f875af115801561392e573d5f803e3d5ffd5b505050506040513d601f19601f8201168201806040525081019061395291906157b6565b5061395b614294565b6001600160a01b031663095ea7b3613971614467565b60026103e861398187600a6158d5565b61398b91906158f8565b61399591906158f8565b6040518363ffffffff1660e01b81526004016139b2929190615949565b6020604051808303815f875af11580156139ce573d5f803e3d5ffd5b505050506040513d601f19601f820116820180604052508101906139f291906157b6565b505f6139fc614467565b6001600160a01b031663a1e15411613a12614294565b3060026103e8613a2389600a6158d5565b613a2d91906158f8565b613a3791906158f8565b6040518463ffffffff1660e01b8152600401613a559392919061596b565b6020604051808303815f875af1158015613a71573d5f803e3d5ffd5b505050506040513d601f19601f82011682018060405250810190613a9591906157f0565b9050613a9f6135c5565b6001600160a01b031663a9059cbb613ab5614467565b836040518363ffffffff1660e01b8152600401613ad392919061581e565b6020604051808303815f875af1158015613aef573d5f803e3d5ffd5b505050506040513d601f19601f82011682018060405250810190613b1391906157b6565b50613b1c614294565b6001600160a01b031663a9059cbb613b32614467565b60026103e8613b4288600a6158d5565b613b4c91906158f8565b613b5691906158f8565b6040518363ffffffff1660e01b8152600401613b73929190615949565b6020604051808303815f875af1158015613b8f573d5f803e3d5ffd5b505050506040513d601f19601f82011682018060405250810190613bb391906157b6565b50613bbc614467565b6001600160a01b0316636a62784260016040518263ffffffff1660e01b8152600401613be89190615542565b6020604051808303815f875af1158015613c04573d5f803e3d5ffd5b505050506040513d601f19601f82011682018060405250810190613c2891906157f0565b5050505050505050505050565b60605f613c42848461570a565b613c4d9060016156f7565b9050806001600160401b03811115613c6757613c6761538a565b604051908082528060200260200182016040528015613cc857816020015b613cb560405180608001604052805f6001600160a01b031681526020015f81526020015f81526020015f81525090565b815260200190600190039081613c855790505b5091505f5b81811015611f3d5760cb613ce182876156f7565b81548110613cf157613cf16156cf565b5f91825260209182902060408051608081018252600490930290910180546001600160a01b0316835260018101549383019390935260028301549082015260039091015460608201528351849083908110613d4e57613d4e6156cf565b60200260200101819052508080613d64906158bd565b915050613ccd565b60cb8181548110610ad6575f80fd5b613d836140a8565b6001600160a01b038116613de85760405162461bcd60e51b815260206004820152602660248201527f4f776e61626c653a206e6577206f776e657220697320746865207a65726f206160448201526564647265737360d01b6064820152608401610b51565b61043d816149c8565b6001600160a01b0381165f90815260d060209081526040808320805482518185028101850190935280835260609493830182828015613e4d57602002820191905f5260205f20905b815481526020019060010190808311613e39575b5050505050905080516001600160401b03811115613e6d57613e6d61538a565b604051908082528060200260200182016040528015613ec557816020015b613eb260405180608001604052805f81526020015f81526020015f81526020015f81525090565b815260200190600190039081613e8b5790505b5091505f5b81518110156135be575f60cb838381518110613ee857613ee86156cf565b602002602001015181548110613f0057613f006156cf565b5f918252602080832060408051608081018252600494850290920180546001600160a01b039081168452600182015484860152600282015484840152600390910154606084015260c95482516316c4297760e11b815292519397504295911693632d8852ee9383830193919290918290030181865afa158015613f85573d5f803e3d5ffd5b505050506040513d601f19601f82011682018060405250810190613fa991906157f0565b8360400151613fb891906156f7565b11613fc3575f614047565b60c954604080516316c4297760e11b8152905142926001600160a01b031691632d8852ee9160048083019260209291908290030181865afa15801561400a573d5f803e3d5ffd5b505050506040513d601f19601f8201168201806040525081019061402e91906157f0565b836040015161403d91906156f7565b614047919061570a565b9050604051806080016040528083602001518152602001836040015181526020018281526020018360600151815250858481518110614088576140886156cf565b6020026020010181905250505080806140a0906158bd565b915050613eca565b336140b16121c2565b6001600160a01b0316146121b25760405162461bcd60e51b815260206004820181905260248201527f4f776e61626c653a2063616c6c6572206973206e6f7420746865206f776e65726044820152606401610b51565b5f80516020615bdb833981519152546001600160a01b031690565b61043d6140a8565b7f4910fdfa16fed3260ed0e7147f7cc6da11a60208b5b9406d12a635614ffd91435460ff161561415d57611d6483614b7b565b826001600160a01b03166352d1902d6040518163ffffffff1660e01b8152600401602060405180830381865afa9250505080156141b7575060408051601f3d908101601f191682019092526141b4918101906157f0565b60015b61421a5760405162461bcd60e51b815260206004820152602e60248201527f45524331393637557067726164653a206e657720696d706c656d656e7461746960448201526d6f6e206973206e6f74205555505360901b6064820152608401610b51565b5f80516020615bdb83398151915281146142885760405162461bcd60e51b815260206004820152602960248201527f45524331393637557067726164653a20756e737570706f727465642070726f786044820152681a58589b195555525160ba1b6064820152608401610b51565b50611d64838383614c14565b60c95460408051632f48ab7d60e01b815290515f926001600160a01b031691632f48ab7d9160048083019260209291908290030181865afa15801561360c573d5f803e3d5ffd5b5f805f6142e6614467565b6001600160a01b0316630902f1ac6040518163ffffffff1660e01b8152600401606060405180830381865afa158015614321573d5f803e3d5ffd5b505050506040513d601f19601f820116820180604052508101906143459190615852565b50915091505f80614354614294565b6001600160a01b0316614365614467565b6001600160a01b0316630dfe16816040518163ffffffff1660e01b8152600401602060405180830381865afa1580156143a0573d5f803e3d5ffd5b505050506040513d601f19601f820116820180604052508101906143c491906157d5565b6001600160a01b0316146143d95782846143dc565b83835b915091506143e8614467565b6001600160a01b031663054d50d4670de0b6b3a764000083856040518463ffffffff1660e01b815260040161441f9392919061589e565b602060405180830381865afa15801561443a573d5f803e3d5ffd5b505050506040513d601f19601f8201168201806040525081019061445e91906157f0565b94505050505090565b60c95460408051635250c9b560e01b815290515f926001600160a01b031691635250c9b59160048083019260209291908290030181865afa15801561360c573d5f803e3d5ffd5b60c9546040805163602e662360e01b815290515f926001600160a01b03169163602e66239160048083019260209291908290030181865afa15801561360c573d5f803e3d5ffd5b5f60d654118015614514575061025860d65442614512919061570a565b115b156146bd575f6103e860d454606461452c9190615807565b6145369190615731565b90508060d45f828254614549919061570a565b909155505080156146bb5761455c614294565b6001600160a01b031663a9059cbb60cb600260cb8054905061457e919061570a565b8154811061458e5761458e6156cf565b5f9182526020909120600491820201546040516001600160e01b031960e085901b1681526145ca926001600160a01b039092169186910161581e565b6020604051808303815f875af11580156145e6573d5f803e3d5ffd5b505050506040513d601f19601f8201168201806040525081019061460a91906157b6565b5060cd604051806080016040528060cb600260cb8054905061462c919061570a565b8154811061463c5761463c6156cf565b5f9182526020808320600492830201546001600160a01b0390811685528482018890524360408087019190915242606096870152875460018082018a559886529483902087519590940290930180546001600160a01b031916949091169390931783558401519482019490945592820151600284015501516003909101555b505b4260d655565b60cb546001036146cf57565b5f60cb60d754815481106146e5576146e56156cf565b5f91825260209182902060408051608081018252600490930290910180546001600160a01b031683526001810154938301939093526002830154908201819052600390920154606082015291506201518090614741904261570a565b11801561475d57506201518060d8544261475b919061570a565b115b1561490d575f6103e860d5546101f46147769190615807565b6147809190615731565b90508060d55f828254614793919061570a565b90915550508015614907576147a6614294565b825160405163a9059cbb60e01b81526001600160a01b03929092169163a9059cbb916147d691859060040161581e565b6020604051808303815f875af11580156147f2573d5f803e3d5ffd5b505050506040513d601f19601f8201168201806040525081019061481691906157b6565b506040805160808101825283516001600160a01b0390811682526020820184815243938301938452426060840190815260ce80546001810182555f9190915293517fd36cd1c74ef8d7326d8021b776c18fb5a5724b7f7bc93c2f42e43e10ef27d12a600490950294850180546001600160a01b0319169190941617909255517fd36cd1c74ef8d7326d8021b776c18fb5a5724b7f7bc93c2f42e43e10ef27d12b83015591517fd36cd1c74ef8d7326d8021b776c18fb5a5724b7f7bc93c2f42e43e10ef27d12c82015590517fd36cd1c74ef8d7326d8021b776c18fb5a5724b7f7bc93c2f42e43e10ef27d12d909101555b504260d8555b602081015160cb80546149229060019061570a565b81548110614932576149326156cf565b905f5260205f20906004020160010154111561043d5760cb546149579060019061570a565b60d75550565b60c954604080516316c4297760e11b815290515f926001600160a01b031691632d8852ee9160048083019260209291908290030181865afa1580156149a4573d5f803e3d5ffd5b505050506040513d601f19601f820116820180604052508101906121bd91906157f0565b603380546001600160a01b038381166001600160a01b0319831681179093556040519116919082907f8be0079c531659141344cd1fd0a4f28419497f9722a3daafe3b4186f6b6457e0905f90a35050565b6001600160a01b03163b151590565b5f54610100900460ff16614a4e5760405162461bcd60e51b8152600401610b5190615a16565b6121b2614c3e565b5f805f614a638585614c6d565b91509150614a7081614caf565b5090505b92915050565b5f8080808080614a95614a906201518089615731565b614df3565b919750955093505f614aaa6201518089615a61565b9050614ab8610e1082615731565b9350614ac6610e1082615a61565b9050614ad3603c82615731565b9250614ae0603c82615a61565b91505091939550919395565b60605f614af883614f62565b60010190505f816001600160401b03811115614b1657614b1661538a565b6040519080825280601f01601f191660200182016040528015614b40576020820181803683370190505b5090508181016020015b5f19016f181899199a1a9b1b9c1cb0b131b232b360811b600a86061a8153600a8504945084614b4a57509392505050565b614b8481614a19565b614be65760405162461bcd60e51b815260206004820152602d60248201527f455243313936373a206e657720696d706c656d656e746174696f6e206973206e60448201526c1bdd08184818dbdb9d1c9858dd609a1b6064820152608401610b51565b5f80516020615bdb83398151915280546001600160a01b0319166001600160a01b0392909216919091179055565b614c1d83615037565b5f82511180614c295750805b15611d6457614c388383615076565b50505050565b5f54610100900460ff16614c645760405162461bcd60e51b8152600401610b5190615a16565b6121b2336149c8565b5f808251604103614ca1576020830151604084015160608501515f1a614c9587828585615164565b94509450505050614ca8565b505f905060025b9250929050565b5f816004811115614cc257614cc2615a74565b03614cca5750565b6001816004811115614cde57614cde615a74565b03614d265760405162461bcd60e51b815260206004820152601860248201527745434453413a20696e76616c6964207369676e617475726560401b6044820152606401610b51565b6002816004811115614d3a57614d3a615a74565b03614d875760405162461bcd60e51b815260206004820152601f60248201527f45434453413a20696e76616c6964207369676e6174757265206c656e677468006044820152606401610b51565b6003816004811115614d9b57614d9b615a74565b0361043d5760405162461bcd60e51b815260206004820152602260248201527f45434453413a20696e76616c6964207369676e6174757265202773272076616c604482015261756560f01b6064820152608401610b51565b5f8080838162253d8c614e098362010bd9615a88565b614e139190615a88565b90505f62023ab1614e25836004615aa7565b614e2f9190615ad6565b90506004614e408262023ab1615aa7565b614e4b906003615a88565b614e559190615ad6565b614e5f9083615b02565b91505f62164b09614e71846001615a88565b614e7d90610fa0615aa7565b614e879190615ad6565b90506004614e97826105b5615aa7565b614ea19190615ad6565b614eab9084615b02565b614eb690601f615a88565b92505f61098f614ec7856050615aa7565b614ed19190615ad6565b90505f6050614ee28361098f615aa7565b614eec9190615ad6565b614ef69086615b02565b9050614f03600b83615ad6565b9450614f1085600c615aa7565b614f1b836002615a88565b614f259190615b02565b91508483614f34603187615b02565b614f3f906064615aa7565b614f499190615a88565b614f539190615a88565b9a919950975095505050505050565b5f8072184f03e93ff9f4daa797ed6e38ed64bf6a1f0160401b8310614fa05772184f03e93ff9f4daa797ed6e38ed64bf6a1f0160401b830492506040015b6904ee2d6d415b85acef8160201b8310614fca576904ee2d6d415b85acef8160201b830492506020015b662386f26fc100008310614fe857662386f26fc10000830492506010015b6305f5e1008310615000576305f5e100830492506008015b612710831061501457612710830492506004015b60648310615026576064830492506002015b600a8310614a745760010192915050565b61504081614b7b565b6040516001600160a01b038216907fbc7cd75a20ee27fd9adebab32041f755214dbc6bffa90cc0225b39da2e5c2d3b905f90a250565b606061508183614a19565b6150dc5760405162461bcd60e51b815260206004820152602660248201527f416464726573733a2064656c65676174652063616c6c20746f206e6f6e2d636f6044820152651b9d1c9858dd60d21b6064820152608401610b51565b5f80846001600160a01b0316846040516150f691906159fb565b5f60405180830381855af49150503d805f811461512e576040519150601f19603f3d011682016040523d82523d5f602084013e615133565b606091505b509150915061515b8282604051806060016040528060278152602001615bfb60279139615217565b95945050505050565b5f806fa2a8918ca85bafe22016d0b997e4df60600160ff1b0383111561518f57505f9050600361520e565b604080515f8082526020820180845289905260ff881692820192909252606081018690526080810185905260019060a0016020604051602081039080840390855afa1580156151e0573d5f803e3d5ffd5b5050604051601f1901519150506001600160a01b038116615208575f6001925092505061520e565b91505f90505b94509492505050565b60608315615226575081615230565b6152308383615237565b9392505050565b8151156152475781518083602001fd5b8060405162461bcd60e51b8152600401610b519190615b28565b60405180608001604052805f6001600160a01b031681526020015f81526020015f81526020015f81525090565b6001600160a01b038116811461043d575f80fd5b5f602082840312156152b2575f80fd5b81356152308161528e565b805182526020810151602083015260408101516040830152606081015160608301525050565b60808101614a7482846152bd565b815181526020808301519082015260408083015190820152606080830151908201526080808301516001600160a01b03169082015260a08101614a74565b5f6020828403121561533f575f80fd5b5035919050565b6001600160a01b039384168152919092166020820152604081019190915260600190565b5f806040838503121561537b575f80fd5b50508035926020909101359150565b634e487b7160e01b5f52604160045260245ffd5b5f6001600160401b03808411156153b7576153b761538a565b604051601f8501601f19908116603f011681019082821181831017156153df576153df61538a565b816040528093508581528686860111156153f7575f80fd5b858560208301375f602087830101525050509392505050565b5f82601f83011261541f575f80fd5b6152308383356020850161539e565b5f806040838503121561543f575f80fd5b823561544a8161528e565b915060208301356001600160401b03811115615464575f80fd5b61547085828601615410565b9150509250929050565b602080825282518282018190525f919060409081850190868401855b828110156154d157815180516001600160a01b0390811686528782015116878601528501518585015260609093019290850190600101615496565b5091979650505050505050565b5f80604083850312156154ef575f80fd5b82356154fa8161528e565b946020939093013593505050565b80516001600160a01b031682526020808201519083015260408082015190830152606090810151910152565b60808101614a748284615508565b6001600160a01b0391909116815260200190565b602080825282518282018190525f9190848201906040850190845b8181101561559757615584838551615508565b9284019260809290920191600101615571565b50909695505050505050565b5f805f805f60a086880312156155b7575f80fd5b8535945060208601359350604086013592506060860135915060808601356001600160401b038111156155e8575f80fd5b6155f488828901615410565b9150509295509295909350565b602080825282518282018190525f9190848201906040850190845b818110156155975761562f838551615508565b928401926080929092019160010161561c565b5f60208284031215615652575f80fd5b81356001600160401b03811115615667575f80fd5b8201601f81018413615677575f80fd5b6156868482356020840161539e565b949350505050565b602080825282518282018190525f9190848201906040850190845b81811015615597576156bc8385516152bd565b92840192608092909201916001016156a9565b634e487b7160e01b5f52603260045260245ffd5b634e487b7160e01b5f52601160045260245ffd5b80820180821115614a7457614a746156e3565b81810381811115614a7457614a746156e3565b634e487b7160e01b5f52601260045260245ffd5b5f8261573f5761573f61571d565b500490565b6020808252602c908201525f80516020615bbb83398151915260408201526b19195b1959d85d1958d85b1b60a21b606082015260800190565b6020808252602c908201525f80516020615bbb83398151915260408201526b6163746976652070726f787960a01b606082015260800190565b5f602082840312156157c6575f80fd5b81518015158114615230575f80fd5b5f602082840312156157e5575f80fd5b81516152308161528e565b5f60208284031215615800575f80fd5b5051919050565b8082028115828204841417614a7457614a746156e3565b6001600160a01b03929092168252602082015260400190565b80516001600160701b038116811461584d575f80fd5b919050565b5f805f60608486031215615864575f80fd5b61586d84615837565b925061587b60208501615837565b9150604084015163ffffffff81168114615893575f80fd5b809150509250925092565b9283526001600160701b03918216602084015216604082015260600190565b5f600182016158ce576158ce6156e3565b5060010190565b6001600160701b03818116838216028082169190828114611f3d57611f3d6156e3565b5f6001600160701b03838116806159115761591161571d565b92169190910492915050565b6001600160701b0393841681529190921660208201526001600160a01b03909116604082015260600190565b6001600160a01b039290921682526001600160701b0316602082015260400190565b6001600160a01b0393841681529190921660208201526001600160701b03909116604082015260600190565b5f5b838110156159b1578181015183820152602001615999565b50505f910152565b5f84516159ca818460208901615997565b8451908301906159de818360208901615997565b84519101906159f1818360208801615997565b0195945050505050565b5f8251615a0c818460208701615997565b9190910192915050565b6020808252602b908201527f496e697469616c697a61626c653a20636f6e7472616374206973206e6f74206960408201526a6e697469616c697a696e6760a81b606082015260800190565b5f82615a6f57615a6f61571d565b500690565b634e487b7160e01b5f52602160045260245ffd5b8082018281125f831280158216821582161715611f3d57611f3d6156e3565b8082025f8212600160ff1b84141615615ac257615ac26156e3565b8181058314821517614a7457614a746156e3565b5f82615ae457615ae461571d565b600160ff1b82145f1984141615615afd57615afd6156e3565b500590565b8181035f831280158383131683831282161715615b2157615b216156e3565b5092915050565b602081525f8251806020840152615b46816040850160208701615997565b601f01601f1916919091016040019291505056fea7ce836d032b2bf62b7e2097a8e0a6d8aeb35405ad15271e96d3b0188a1d06fca7ce836d032b2bf62b7e2097a8e0a6d8aeb35405ad15271e96d3b0188a1d06fba7ce836d032b2bf62b7e2097a8e0a6d8aeb35405ad15271e96d3b0188a1d06fd46756e6374696f6e206d7573742062652063616c6c6564207468726f75676820360894a13ba1a3210667c828492db98dca3e2076cc3735a920a3ca505d382bbc416464726573733a206c6f772d6c6576656c2064656c65676174652063616c6c206661696c6564a7ce836d032b2bf62b7e2097a8e0a6d8aeb35405ad15271e96d3b0188a1d06fea2646970667358221220f095ad40250a8fa0252377430f607992688f3db57f3c34468158946da9496a8f64736f6c63430008140033",
			"opcodes": "PUSH1 0xA0 PUSH1 0x40 MSTORE ADDRESS PUSH1 0x80 MSTORE PUSH0 PUSH1 0xDB SSTORE CALLVALUE DUP1 ISZERO PUSH2 0x17 JUMPI PUSH0 DUP1 REVERT JUMPDEST POP PUSH1 0x80 MLOAD PUSH2 0x5C77 PUSH3 0x4D PUSH0 CODECOPY PUSH0 DUP2 DUP2 PUSH2 0xB13 ADD MSTORE DUP2 DUP2 PUSH2 0xB5C ADD MSTORE DUP2 DUP2 PUSH2 0x1D73 ADD MSTORE DUP2 DUP2 PUSH2 0x1DB3 ADD MSTORE PUSH2 0x1F51 ADD MSTORE PUSH2 0x5C77 PUSH0 RETURN INVALID PUSH1 0x80 PUSH1 0x40 MSTORE PUSH1 0x4 CALLDATASIZE LT PUSH2 0x238 JUMPI PUSH0 CALLDATALOAD PUSH1 0xE0 SHR DUP1 PUSH4 0x4E86903 EQ PUSH2 0x23C JUMPI DUP1 PUSH4 0x1865E4D5 EQ PUSH2 0x27A JUMPI DUP1 PUSH4 0x210835AE EQ PUSH2 0x2B8 JUMPI DUP1 PUSH4 0x233BE799 EQ PUSH2 0x2D9 JUMPI DUP1 PUSH4 0x2562C39B EQ PUSH2 0x305 JUMPI DUP1 PUSH4 0x265EB5B8 EQ PUSH2 0x326 JUMPI DUP1 PUSH4 0x2D6D56B0 EQ PUSH2 0x33A JUMPI DUP1 PUSH4 0x3659CFE6 EQ PUSH2 0x383 JUMPI DUP1 PUSH4 0x365B98B2 EQ PUSH2 0x3A2 JUMPI DUP1 PUSH4 0x382E227F EQ PUSH2 0x3D0 JUMPI DUP1 PUSH4 0x3F22297E EQ PUSH2 0x3EF JUMPI DUP1 PUSH4 0x42FF7BCD EQ PUSH2 0x40E JUMPI DUP1 PUSH4 0x4420E486 EQ PUSH2 0x423 JUMPI DUP1 PUSH4 0x4469ED13 EQ PUSH2 0x440 JUMPI DUP1 PUSH4 0x45B3E93E EQ PUSH2 0x45F JUMPI DUP1 PUSH4 0x4E71D92D EQ PUSH2 0x473 JUMPI DUP1 PUSH4 0x4F1EF286 EQ PUSH2 0x487 JUMPI DUP1 PUSH4 0x51AE6B1B EQ PUSH2 0x49A JUMPI DUP1 PUSH4 0x52D1902D EQ PUSH2 0x4C6 JUMPI DUP1 PUSH4 0x57629F82 EQ PUSH2 0x4DA JUMPI DUP1 PUSH4 0x624343E6 EQ PUSH2 0x4F9 JUMPI DUP1 PUSH4 0x715018A6 EQ PUSH2 0x525 JUMPI DUP1 PUSH4 0x7456FED6 EQ PUSH2 0x539 JUMPI DUP1 PUSH4 0x7BAB1032 EQ PUSH2 0x54D JUMPI DUP1 PUSH4 0x8DA5CB5B EQ PUSH2 0x561 JUMPI DUP1 PUSH4 0x8E56D48C EQ PUSH2 0x582 JUMPI DUP1 PUSH4 0x94B918DE EQ PUSH2 0x597 JUMPI DUP1 PUSH4 0x9B5F0F22 EQ PUSH2 0x5B6 JUMPI DUP1 PUSH4 0xA3592158 EQ PUSH2 0x5CB JUMPI DUP1 PUSH4 0xA7808F1A EQ PUSH2 0x5E0 JUMPI DUP1 PUSH4 0xAD7E01BE EQ PUSH2 0x5F4 JUMPI DUP1 PUSH4 0xBAF189D2 EQ PUSH2 0x608 JUMPI DUP1 PUSH4 0xBF024CFA EQ PUSH2 0x627 JUMPI DUP1 PUSH4 0xC4B6EBDF EQ PUSH2 0x646 JUMPI DUP1 PUSH4 0xC4D66DE8 EQ PUSH2 0x67A JUMPI DUP1 PUSH4 0xC6834BF6 EQ PUSH2 0x699 JUMPI DUP1 PUSH4 0xC8EE5073 EQ PUSH2 0x6FB JUMPI DUP1 PUSH4 0xCB82AB19 EQ PUSH2 0x71A JUMPI DUP1 PUSH4 0xCBBA3DEF EQ PUSH2 0x739 JUMPI DUP1 PUSH4 0xD77F5EE7 EQ PUSH2 0x765 JUMPI DUP1 PUSH4 0xD7DF42D3 EQ PUSH2 0x77A JUMPI DUP1 PUSH4 0xDBA64F8F EQ PUSH2 0x799 JUMPI DUP1 PUSH4 0xE500845D EQ PUSH2 0x7B8 JUMPI DUP1 PUSH4 0xE8BB4C33 EQ PUSH2 0x7D7 JUMPI DUP1 PUSH4 0xE91E969C EQ PUSH2 0x7EB JUMPI DUP1 PUSH4 0xEED0AB53 EQ PUSH2 0x7FF JUMPI DUP1 PUSH4 0xF2782D6D EQ PUSH2 0x82B JUMPI DUP1 PUSH4 0xF2FDE38B EQ PUSH2 0x84A JUMPI DUP1 PUSH4 0xF951D945 EQ PUSH2 0x869 JUMPI DUP1 PUSH4 0xFC76F17C EQ PUSH2 0x8A3 JUMPI JUMPDEST PUSH0 DUP1 REVERT JUMPDEST CALLVALUE DUP1 ISZERO PUSH2 0x247 JUMPI PUSH0 DUP1 REVERT JUMPDEST POP PUSH2 0x267 PUSH2 0x256 CALLDATASIZE PUSH1 0x4 PUSH2 0x52A2 JUMP JUMPDEST PUSH1 0xD3 PUSH1 0x20 MSTORE PUSH0 SWAP1 DUP2 MSTORE PUSH1 0x40 SWAP1 KECCAK256 SLOAD DUP2 JUMP JUMPDEST PUSH1 0x40 MLOAD SWAP1 DUP2 MSTORE PUSH1 0x20 ADD JUMPDEST PUSH1 0x40 MLOAD DUP1 SWAP2 SUB SWAP1 RETURN JUMPDEST CALLVALUE DUP1 ISZERO PUSH2 0x285 JUMPI PUSH0 DUP1 REVERT JUMPDEST POP PUSH2 0x2A8 PUSH2 0x294 CALLDATASIZE PUSH1 0x4 PUSH2 0x52A2 JUMP JUMPDEST PUSH1 0xD1 PUSH1 0x20 MSTORE PUSH0 SWAP1 DUP2 MSTORE PUSH1 0x40 SWAP1 KECCAK256 SLOAD PUSH1 0xFF AND DUP2 JUMP JUMPDEST PUSH1 0x40 MLOAD SWAP1 ISZERO ISZERO DUP2 MSTORE PUSH1 0x20 ADD PUSH2 0x271 JUMP JUMPDEST CALLVALUE DUP1 ISZERO PUSH2 0x2C3 JUMPI PUSH0 DUP1 REVERT JUMPDEST POP PUSH2 0x2D7 PUSH2 0x2D2 CALLDATASIZE PUSH1 0x4 PUSH2 0x52A2 JUMP JUMPDEST PUSH2 0x8CF JUMP JUMPDEST STOP JUMPDEST CALLVALUE DUP1 ISZERO PUSH2 0x2E4 JUMPI PUSH0 DUP1 REVERT JUMPDEST POP PUSH2 0x2F8 PUSH2 0x2F3 CALLDATASIZE PUSH1 0x4 PUSH2 0x52A2 JUMP JUMPDEST PUSH2 0x8F9 JUMP JUMPDEST PUSH1 0x40 MLOAD PUSH2 0x271 SWAP2 SWAP1 PUSH2 0x52E3 JUMP JUMPDEST CALLVALUE DUP1 ISZERO PUSH2 0x310 JUMPI PUSH0 DUP1 REVERT JUMPDEST POP PUSH2 0x319 PUSH2 0x97E JUMP JUMPDEST PUSH1 0x40 MLOAD PUSH2 0x271 SWAP2 SWAP1 PUSH2 0x52F1 JUMP JUMPDEST CALLVALUE DUP1 ISZERO PUSH2 0x331 JUMPI PUSH0 DUP1 REVERT JUMPDEST POP PUSH1 0xCB SLOAD PUSH2 0x267 JUMP JUMPDEST CALLVALUE DUP1 ISZERO PUSH2 0x345 JUMPI PUSH0 DUP1 REVERT JUMPDEST POP PUSH2 0x359 PUSH2 0x354 CALLDATASIZE PUSH1 0x4 PUSH2 0x532F JUMP JUMPDEST PUSH2 0xAC7 JUMP JUMPDEST PUSH1 0x40 DUP1 MLOAD PUSH1 0x1 PUSH1 0x1 PUSH1 0xA0 SHL SUB SWAP1 SWAP6 AND DUP6 MSTORE PUSH1 0x20 DUP6 ADD SWAP4 SWAP1 SWAP4 MSTORE SWAP2 DUP4 ADD MSTORE PUSH1 0x60 DUP3 ADD MSTORE PUSH1 0x80 ADD PUSH2 0x271 JUMP JUMPDEST CALLVALUE DUP1 ISZERO PUSH2 0x38E JUMPI PUSH0 DUP1 REVERT JUMPDEST POP PUSH2 0x2D7 PUSH2 0x39D CALLDATASIZE PUSH1 0x4 PUSH2 0x52A2 JUMP JUMPDEST PUSH2 0xB09 JUMP JUMPDEST CALLVALUE DUP1 ISZERO PUSH2 0x3AD JUMPI PUSH0 DUP1 REVERT JUMPDEST POP PUSH2 0x3C1 PUSH2 0x3BC CALLDATASIZE PUSH1 0x4 PUSH2 0x532F JUMP JUMPDEST PUSH2 0xBD6 JUMP JUMPDEST PUSH1 0x40 MLOAD PUSH2 0x271 SWAP4 SWAP3 SWAP2 SWAP1 PUSH2 0x5346 JUMP JUMPDEST CALLVALUE DUP1 ISZERO PUSH2 0x3DB JUMPI PUSH0 DUP1 REVERT JUMPDEST POP PUSH2 0x2D7 PUSH2 0x3EA CALLDATASIZE PUSH1 0x4 PUSH2 0x536A JUMP JUMPDEST PUSH2 0xC14 JUMP JUMPDEST CALLVALUE DUP1 ISZERO PUSH2 0x3FA JUMPI PUSH0 DUP1 REVERT JUMPDEST POP PUSH2 0x267 PUSH2 0x409 CALLDATASIZE PUSH1 0x4 PUSH2 0x532F JUMP JUMPDEST PUSH2 0x16D0 JUMP JUMPDEST CALLVALUE DUP1 ISZERO PUSH2 0x419 JUMPI PUSH0 DUP1 REVERT JUMPDEST POP PUSH2 0x267 PUSH1 0xD5 SLOAD DUP2 JUMP JUMPDEST CALLVALUE DUP1 ISZERO PUSH2 0x42E JUMPI PUSH0 DUP1 REVERT JUMPDEST POP PUSH2 0x2D7 PUSH2 0x43D CALLDATASIZE PUSH1 0x4 PUSH2 0x52A2 JUMP JUMPDEST POP JUMP JUMPDEST CALLVALUE DUP1 ISZERO PUSH2 0x44B JUMPI PUSH0 DUP1 REVERT JUMPDEST POP PUSH2 0x359 PUSH2 0x45A CALLDATASIZE PUSH1 0x4 PUSH2 0x532F JUMP JUMPDEST PUSH2 0x1855 JUMP JUMPDEST CALLVALUE DUP1 ISZERO PUSH2 0x46A JUMPI PUSH0 DUP1 REVERT JUMPDEST POP PUSH2 0x319 PUSH2 0x1864 JUMP JUMPDEST CALLVALUE DUP1 ISZERO PUSH2 0x47E JUMPI PUSH0 DUP1 REVERT JUMPDEST POP PUSH2 0x2D7 PUSH2 0x199B JUMP JUMPDEST PUSH2 0x2D7 PUSH2 0x495 CALLDATASIZE PUSH1 0x4 PUSH2 0x542E JUMP JUMPDEST PUSH2 0x1D69 JUMP JUMPDEST CALLVALUE DUP1 ISZERO PUSH2 0x4A5 JUMPI PUSH0 DUP1 REVERT JUMPDEST POP PUSH2 0x4B9 PUSH2 0x4B4 CALLDATASIZE PUSH1 0x4 PUSH2 0x536A JUMP JUMPDEST PUSH2 0x1E22 JUMP JUMPDEST PUSH1 0x40 MLOAD PUSH2 0x271 SWAP2 SWAP1 PUSH2 0x547A JUMP JUMPDEST CALLVALUE DUP1 ISZERO PUSH2 0x4D1 JUMPI PUSH0 DUP1 REVERT JUMPDEST POP PUSH2 0x267 PUSH2 0x1F45 JUMP JUMPDEST CALLVALUE DUP1 ISZERO PUSH2 0x4E5 JUMPI PUSH0 DUP1 REVERT JUMPDEST POP PUSH2 0x2D7 PUSH2 0x4F4 CALLDATASIZE PUSH1 0x4 PUSH2 0x54DE JUMP JUMPDEST PUSH2 0x1FF1 JUMP JUMPDEST CALLVALUE DUP1 ISZERO PUSH2 0x504 JUMPI PUSH0 DUP1 REVERT JUMPDEST POP PUSH2 0x518 PUSH2 0x513 CALLDATASIZE PUSH1 0x4 PUSH2 0x532F JUMP JUMPDEST PUSH2 0x2137 JUMP JUMPDEST PUSH1 0x40 MLOAD PUSH2 0x271 SWAP2 SWAP1 PUSH2 0x5534 JUMP JUMPDEST CALLVALUE DUP1 ISZERO PUSH2 0x530 JUMPI PUSH0 DUP1 REVERT JUMPDEST POP PUSH2 0x2D7 PUSH2 0x21A1 JUMP JUMPDEST CALLVALUE DUP1 ISZERO PUSH2 0x544 JUMPI PUSH0 DUP1 REVERT JUMPDEST POP PUSH1 0xCA SLOAD PUSH2 0x267 JUMP JUMPDEST CALLVALUE DUP1 ISZERO PUSH2 0x558 JUMPI PUSH0 DUP1 REVERT JUMPDEST POP PUSH2 0x267 PUSH2 0x21B4 JUMP JUMPDEST CALLVALUE DUP1 ISZERO PUSH2 0x56C JUMPI PUSH0 DUP1 REVERT JUMPDEST POP PUSH2 0x575 PUSH2 0x21C2 JUMP JUMPDEST PUSH1 0x40 MLOAD PUSH2 0x271 SWAP2 SWAP1 PUSH2 0x5542 JUMP JUMPDEST CALLVALUE DUP1 ISZERO PUSH2 0x58D JUMPI PUSH0 DUP1 REVERT JUMPDEST POP PUSH2 0x267 PUSH1 0xD6 SLOAD DUP2 JUMP JUMPDEST CALLVALUE DUP1 ISZERO PUSH2 0x5A2 JUMPI PUSH0 DUP1 REVERT JUMPDEST POP PUSH2 0x2D7 PUSH2 0x5B1 CALLDATASIZE PUSH1 0x4 PUSH2 0x532F JUMP JUMPDEST PUSH2 0x21D1 JUMP JUMPDEST CALLVALUE DUP1 ISZERO PUSH2 0x5C1 JUMPI PUSH0 DUP1 REVERT JUMPDEST POP PUSH2 0x267 PUSH1 0xD7 SLOAD DUP2 JUMP JUMPDEST CALLVALUE DUP1 ISZERO PUSH2 0x5D6 JUMPI PUSH0 DUP1 REVERT JUMPDEST POP PUSH2 0x267 PUSH1 0xD8 SLOAD DUP2 JUMP JUMPDEST CALLVALUE DUP1 ISZERO PUSH2 0x5EB JUMPI PUSH0 DUP1 REVERT JUMPDEST POP PUSH1 0xCC SLOAD PUSH2 0x267 JUMP JUMPDEST CALLVALUE DUP1 ISZERO PUSH2 0x5FF JUMPI PUSH0 DUP1 REVERT JUMPDEST POP PUSH2 0x2D7 PUSH2 0x2603 JUMP JUMPDEST CALLVALUE DUP1 ISZERO PUSH2 0x613 JUMPI PUSH0 DUP1 REVERT JUMPDEST POP PUSH2 0x518 PUSH2 0x622 CALLDATASIZE PUSH1 0x4 PUSH2 0x532F JUMP JUMPDEST PUSH2 0x2A8A JUMP JUMPDEST CALLVALUE DUP1 ISZERO PUSH2 0x632 JUMPI PUSH0 DUP1 REVERT JUMPDEST POP PUSH2 0x267 PUSH2 0x641 CALLDATASIZE PUSH1 0x4 PUSH2 0x54DE JUMP JUMPDEST PUSH2 0x2AA5 JUMP JUMPDEST CALLVALUE DUP1 ISZERO PUSH2 0x651 JUMPI PUSH0 DUP1 REVERT JUMPDEST POP PUSH2 0x575 PUSH2 0x660 CALLDATASIZE PUSH1 0x4 PUSH2 0x52A2 JUMP JUMPDEST PUSH1 0xCF PUSH1 0x20 MSTORE PUSH0 SWAP1 DUP2 MSTORE PUSH1 0x40 SWAP1 KECCAK256 SLOAD PUSH1 0x1 PUSH1 0x1 PUSH1 0xA0 SHL SUB AND DUP2 JUMP JUMPDEST CALLVALUE DUP1 ISZERO PUSH2 0x685 JUMPI PUSH0 DUP1 REVERT JUMPDEST POP PUSH2 0x2D7 PUSH2 0x694 CALLDATASIZE PUSH1 0x4 PUSH2 0x52A2 JUMP JUMPDEST PUSH2 0x2AD0 JUMP JUMPDEST CALLVALUE DUP1 ISZERO PUSH2 0x6A4 JUMPI PUSH0 DUP1 REVERT JUMPDEST POP PUSH2 0x6B8 PUSH2 0x6B3 CALLDATASIZE PUSH1 0x4 PUSH2 0x52A2 JUMP JUMPDEST PUSH2 0x2CCE JUMP JUMPDEST PUSH1 0x40 MLOAD PUSH2 0x271 SWAP2 SWAP1 PUSH0 PUSH1 0xA0 DUP3 ADD SWAP1 POP DUP3 MLOAD DUP3 MSTORE PUSH1 0x20 DUP4 ADD MLOAD PUSH1 0x20 DUP4 ADD MSTORE PUSH1 0x40 DUP4 ADD MLOAD PUSH1 0x40 DUP4 ADD MSTORE PUSH1 0x60 DUP4 ADD MLOAD PUSH1 0x60 DUP4 ADD MSTORE PUSH1 0x80 DUP4 ADD MLOAD ISZERO ISZERO PUSH1 0x80 DUP4 ADD MSTORE SWAP3 SWAP2 POP POP JUMP JUMPDEST CALLVALUE DUP1 ISZERO PUSH2 0x706 JUMPI PUSH0 DUP1 REVERT JUMPDEST POP PUSH2 0x359 PUSH2 0x715 CALLDATASIZE PUSH1 0x4 PUSH2 0x532F JUMP JUMPDEST PUSH2 0x2F92 JUMP JUMPDEST CALLVALUE DUP1 ISZERO PUSH2 0x725 JUMPI PUSH0 DUP1 REVERT JUMPDEST POP PUSH2 0x359 PUSH2 0x734 CALLDATASIZE PUSH1 0x4 PUSH2 0x532F JUMP JUMPDEST PUSH2 0x2FA1 JUMP JUMPDEST CALLVALUE DUP1 ISZERO PUSH2 0x744 JUMPI PUSH0 DUP1 REVERT JUMPDEST POP PUSH2 0x758 PUSH2 0x753 CALLDATASIZE PUSH1 0x4 PUSH2 0x536A JUMP JUMPDEST PUSH2 0x2FB0 JUMP JUMPDEST PUSH1 0x40 MLOAD PUSH2 0x271 SWAP2 SWAP1 PUSH2 0x5556 JUMP JUMPDEST CALLVALUE DUP1 ISZERO PUSH2 0x770 JUMPI PUSH0 DUP1 REVERT JUMPDEST POP PUSH2 0x267 PUSH1 0xD4 SLOAD DUP2 JUMP JUMPDEST CALLVALUE DUP1 ISZERO PUSH2 0x785 JUMPI PUSH0 DUP1 REVERT JUMPDEST POP PUSH2 0x2D7 PUSH2 0x794 CALLDATASIZE PUSH1 0x4 PUSH2 0x55A3 JUMP JUMPDEST PUSH2 0x30E7 JUMP JUMPDEST CALLVALUE DUP1 ISZERO PUSH2 0x7A4 JUMPI PUSH0 DUP1 REVERT JUMPDEST POP PUSH1 0xC9 SLOAD PUSH2 0x575 SWAP1 PUSH1 0x1 PUSH1 0x1 PUSH1 0xA0 SHL SUB AND DUP2 JUMP JUMPDEST CALLVALUE DUP1 ISZERO PUSH2 0x7C3 JUMPI PUSH0 DUP1 REVERT JUMPDEST POP PUSH2 0x267 PUSH2 0x7D2 CALLDATASIZE PUSH1 0x4 PUSH2 0x52A2 JUMP JUMPDEST PUSH2 0x3492 JUMP JUMPDEST CALLVALUE DUP1 ISZERO PUSH2 0x7E2 JUMPI PUSH0 DUP1 REVERT JUMPDEST POP PUSH2 0x575 PUSH2 0x35C5 JUMP JUMPDEST CALLVALUE DUP1 ISZERO PUSH2 0x7F6 JUMPI PUSH0 DUP1 REVERT JUMPDEST POP PUSH2 0x2D7 PUSH2 0x3630 JUMP JUMPDEST CALLVALUE DUP1 ISZERO PUSH2 0x80A JUMPI PUSH0 DUP1 REVERT JUMPDEST POP PUSH2 0x81E PUSH2 0x819 CALLDATASIZE PUSH1 0x4 PUSH2 0x536A JUMP JUMPDEST PUSH2 0x3C35 JUMP JUMPDEST PUSH1 0x40 MLOAD PUSH2 0x271 SWAP2 SWAP1 PUSH2 0x5601 JUMP JUMPDEST CALLVALUE DUP1 ISZERO PUSH2 0x836 JUMPI PUSH0 DUP1 REVERT JUMPDEST POP PUSH2 0x359 PUSH2 0x845 CALLDATASIZE PUSH1 0x4 PUSH2 0x532F JUMP JUMPDEST PUSH2 0x3D6C JUMP JUMPDEST CALLVALUE DUP1 ISZERO PUSH2 0x855 JUMPI PUSH0 DUP1 REVERT JUMPDEST POP PUSH2 0x2D7 PUSH2 0x864 CALLDATASIZE PUSH1 0x4 PUSH2 0x52A2 JUMP JUMPDEST PUSH2 0x3D7B JUMP JUMPDEST CALLVALUE DUP1 ISZERO PUSH2 0x874 JUMPI PUSH0 DUP1 REVERT JUMPDEST POP PUSH2 0x2A8 PUSH2 0x883 CALLDATASIZE PUSH1 0x4 PUSH2 0x5642 JUMP JUMPDEST DUP1 MLOAD PUSH1 0x20 DUP2 DUP4 ADD DUP2 ADD DUP1 MLOAD PUSH1 0xD2 DUP3 MSTORE SWAP3 DUP3 ADD SWAP2 SWAP1 SWAP4 ADD KECCAK256 SWAP2 MSTORE SLOAD PUSH1 0xFF AND DUP2 JUMP JUMPDEST CALLVALUE DUP1 ISZERO PUSH2 0x8AE JUMPI PUSH0 DUP1 REVERT JUMPDEST POP PUSH2 0x8C2 PUSH2 0x8BD CALLDATASIZE PUSH1 0x4 PUSH2 0x52A2 JUMP JUMPDEST PUSH2 0x3DF1 JUMP JUMPDEST PUSH1 0x40 MLOAD PUSH2 0x271 SWAP2 SWAP1 PUSH2 0x568E JUMP JUMPDEST PUSH2 0x8D7 PUSH2 0x40A8 JUMP JUMPDEST PUSH1 0xC9 DUP1 SLOAD PUSH1 0x1 PUSH1 0x1 PUSH1 0xA0 SHL SUB NOT AND PUSH1 0x1 PUSH1 0x1 PUSH1 0xA0 SHL SUB SWAP3 SWAP1 SWAP3 AND SWAP2 SWAP1 SWAP2 OR SWAP1 SSTORE JUMP JUMPDEST PUSH2 0x920 PUSH1 0x40 MLOAD DUP1 PUSH1 0x80 ADD PUSH1 0x40 MSTORE DUP1 PUSH0 DUP2 MSTORE PUSH1 0x20 ADD PUSH0 DUP2 MSTORE PUSH1 0x20 ADD PUSH0 DUP2 MSTORE PUSH1 0x20 ADD PUSH0 DUP2 MSTORE POP SWAP1 JUMP JUMPDEST POP PUSH1 0x40 DUP1 MLOAD PUSH1 0x80 DUP2 ADD DUP3 MSTORE PUSH1 0x1 PUSH1 0x1 PUSH1 0xA0 SHL SUB SWAP1 SWAP3 AND PUSH0 SWAP1 DUP2 MSTORE PUSH1 0xD9 PUSH1 0x20 SWAP1 DUP2 MSTORE DUP3 DUP3 KECCAK256 DUP3 DUP1 MSTORE DUP1 DUP3 MSTORE DUP4 DUP4 KECCAK256 SLOAD DUP6 MSTORE PUSH1 0x1 DUP4 MSTORE DUP1 DUP3 MSTORE DUP4 DUP4 KECCAK256 SLOAD DUP3 DUP7 ADD MSTORE PUSH1 0x2 DUP4 MSTORE DUP1 DUP3 MSTORE DUP4 DUP4 KECCAK256 SLOAD DUP6 DUP6 ADD MSTORE PUSH1 0x3 DUP4 MSTORE SWAP1 MSTORE KECCAK256 SLOAD PUSH1 0x60 DUP3 ADD MSTORE SWAP1 JUMP JUMPDEST PUSH2 0x9B4 PUSH1 0x40 MLOAD DUP1 PUSH1 0xA0 ADD PUSH1 0x40 MSTORE DUP1 PUSH0 DUP2 MSTORE PUSH1 0x20 ADD PUSH0 DUP2 MSTORE PUSH1 0x20 ADD PUSH0 DUP2 MSTORE PUSH1 0x20 ADD PUSH0 DUP2 MSTORE PUSH1 0x20 ADD PUSH0 PUSH1 0x1 PUSH1 0x1 PUSH1 0xA0 SHL SUB AND DUP2 MSTORE POP SWAP1 JUMP JUMPDEST PUSH0 PUSH1 0xCB PUSH1 0xD7 SLOAD DUP2 SLOAD DUP2 LT PUSH2 0x9CA JUMPI PUSH2 0x9CA PUSH2 0x56CF JUMP JUMPDEST SWAP1 PUSH0 MSTORE PUSH1 0x20 PUSH0 KECCAK256 SWAP1 PUSH1 0x4 MUL ADD PUSH1 0x2 ADD SLOAD PUSH1 0xD8 SLOAD LT ISZERO PUSH2 0xA0D JUMPI PUSH1 0xCB PUSH1 0xD7 SLOAD DUP2 SLOAD DUP2 LT PUSH2 0x9F8 JUMPI PUSH2 0x9F8 PUSH2 0x56CF JUMP JUMPDEST SWAP1 PUSH0 MSTORE PUSH1 0x20 PUSH0 KECCAK256 SWAP1 PUSH1 0x4 MUL ADD PUSH1 0x2 ADD SLOAD PUSH2 0xA11 JUMP JUMPDEST PUSH1 0xD8 SLOAD JUMPDEST SWAP1 POP PUSH2 0xA20 PUSH3 0x15180 DUP3 PUSH2 0x56F7 JUMP JUMPDEST SWAP1 POP PUSH1 0x40 MLOAD DUP1 PUSH1 0xA0 ADD PUSH1 0x40 MSTORE DUP1 DUP3 TIMESTAMP LT ISZERO PUSH2 0xA44 JUMPI PUSH2 0xA3F TIMESTAMP DUP5 PUSH2 0x570A JUMP JUMPDEST PUSH2 0xA46 JUMP JUMPDEST PUSH0 JUMPDEST DUP2 MSTORE PUSH1 0x20 ADD PUSH1 0xD5 SLOAD DUP2 MSTORE PUSH1 0x20 ADD PUSH1 0x2 PUSH1 0xD5 SLOAD PUSH2 0xA62 SWAP2 SWAP1 PUSH2 0x5731 JUMP JUMPDEST DUP2 MSTORE PUSH1 0x20 ADD PUSH1 0xCB PUSH1 0xD7 SLOAD DUP2 SLOAD DUP2 LT PUSH2 0xA7C JUMPI PUSH2 0xA7C PUSH2 0x56CF JUMP JUMPDEST SWAP1 PUSH0 MSTORE PUSH1 0x20 PUSH0 KECCAK256 SWAP1 PUSH1 0x4 MUL ADD PUSH1 0x1 ADD SLOAD DUP2 MSTORE PUSH1 0x20 ADD PUSH1 0xCB PUSH1 0xD7 SLOAD DUP2 SLOAD DUP2 LT PUSH2 0xAA6 JUMPI PUSH2 0xAA6 PUSH2 0x56CF JUMP JUMPDEST PUSH0 SWAP2 DUP3 MSTORE PUSH1 0x20 SWAP1 SWAP2 KECCAK256 PUSH1 0x4 SWAP1 SWAP2 MUL ADD SLOAD PUSH1 0x1 PUSH1 0x1 PUSH1 0xA0 SHL SUB AND SWAP1 MSTORE SWAP3 SWAP2 POP POP JUMP JUMPDEST PUSH1 0xCD DUP2 DUP2 SLOAD DUP2 LT PUSH2 0xAD6 JUMPI PUSH0 DUP1 REVERT JUMPDEST PUSH0 SWAP2 DUP3 MSTORE PUSH1 0x20 SWAP1 SWAP2 KECCAK256 PUSH1 0x4 SWAP1 SWAP2 MUL ADD DUP1 SLOAD PUSH1 0x1 DUP3 ADD SLOAD PUSH1 0x2 DUP4 ADD SLOAD PUSH1 0x3 SWAP1 SWAP4 ADD SLOAD PUSH1 0x1 PUSH1 0x1 PUSH1 0xA0 SHL SUB SWAP1 SWAP3 AND SWAP4 POP SWAP2 SWAP1 DUP5 JUMP JUMPDEST PUSH1 0x1 PUSH1 0x1 PUSH1 0xA0 SHL SUB PUSH32 0x0 AND ADDRESS SUB PUSH2 0xB5A JUMPI PUSH1 0x40 MLOAD PUSH3 0x461BCD PUSH1 0xE5 SHL DUP2 MSTORE PUSH1 0x4 ADD PUSH2 0xB51 SWAP1 PUSH2 0x5744 JUMP JUMPDEST PUSH1 0x40 MLOAD DUP1 SWAP2 SUB SWAP1 REVERT JUMPDEST PUSH32 0x0 PUSH1 0x1 PUSH1 0x1 PUSH1 0xA0 SHL SUB AND PUSH2 0xB8C PUSH2 0x4107 JUMP JUMPDEST PUSH1 0x1 PUSH1 0x1 PUSH1 0xA0 SHL SUB AND EQ PUSH2 0xBB2 JUMPI PUSH1 0x40 MLOAD PUSH3 0x461BCD PUSH1 0xE5 SHL DUP2 MSTORE PUSH1 0x4 ADD PUSH2 0xB51 SWAP1 PUSH2 0x577D JUMP JUMPDEST PUSH2 0xBBB DUP2 PUSH2 0x4122 JUMP JUMPDEST PUSH1 0x40 DUP1 MLOAD PUSH0 DUP1 DUP3 MSTORE PUSH1 0x20 DUP3 ADD SWAP1 SWAP3 MSTORE PUSH2 0x43D SWAP2 DUP4 SWAP2 SWAP1 PUSH2 0x412A JUMP JUMPDEST PUSH1 0xCA DUP2 DUP2 SLOAD DUP2 LT PUSH2 0xBE5 JUMPI PUSH0 DUP1 REVERT JUMPDEST PUSH0 SWAP2 DUP3 MSTORE PUSH1 0x20 SWAP1 SWAP2 KECCAK256 PUSH1 0x3 SWAP1 SWAP2 MUL ADD DUP1 SLOAD PUSH1 0x1 DUP3 ADD SLOAD PUSH1 0x2 SWAP1 SWAP3 ADD SLOAD PUSH1 0x1 PUSH1 0x1 PUSH1 0xA0 SHL SUB SWAP2 DUP3 AND SWAP4 POP SWAP2 AND SWAP1 DUP4 JUMP JUMPDEST PUSH1 0xDB SLOAD PUSH1 0x1 SUB PUSH2 0xC36 JUMPI PUSH1 0x40 MLOAD PUSH3 0xD2D519 PUSH1 0xE1 SHL DUP2 MSTORE PUSH1 0x4 ADD PUSH1 0x40 MLOAD DUP1 SWAP2 SUB SWAP1 REVERT JUMPDEST PUSH2 0xC3E PUSH2 0x4294 JUMP JUMPDEST PUSH1 0x1 PUSH1 0x1 PUSH1 0xA0 SHL SUB AND PUSH4 0x23B872DD CALLER ADDRESS PUSH2 0xC59 PUSH1 0x2 DUP8 PUSH2 0x5731 JUMP JUMPDEST PUSH1 0x40 MLOAD DUP5 PUSH4 0xFFFFFFFF AND PUSH1 0xE0 SHL DUP2 MSTORE PUSH1 0x4 ADD PUSH2 0xC77 SWAP4 SWAP3 SWAP2 SWAP1 PUSH2 0x5346 JUMP JUMPDEST PUSH1 0x20 PUSH1 0x40 MLOAD DUP1 DUP4 SUB DUP2 PUSH0 DUP8 GAS CALL ISZERO DUP1 ISZERO PUSH2 0xC93 JUMPI RETURNDATASIZE PUSH0 DUP1 RETURNDATACOPY RETURNDATASIZE PUSH0 REVERT JUMPDEST POP POP POP POP PUSH1 0x40 MLOAD RETURNDATASIZE PUSH1 0x1F NOT PUSH1 0x1F DUP3 ADD AND DUP3 ADD DUP1 PUSH1 0x40 MSTORE POP DUP2 ADD SWAP1 PUSH2 0xCB7 SWAP2 SWAP1 PUSH2 0x57B6 JUMP JUMPDEST POP DUP1 PUSH0 SUB PUSH2 0xEA6 JUMPI PUSH1 0xC9 PUSH0 SWAP1 SLOAD SWAP1 PUSH2 0x100 EXP SWAP1 DIV PUSH1 0x1 PUSH1 0x1 PUSH1 0xA0 SHL SUB AND PUSH1 0x1 PUSH1 0x1 PUSH1 0xA0 SHL SUB AND PUSH4 0x8F05CDF5 PUSH1 0x40 MLOAD DUP2 PUSH4 0xFFFFFFFF AND PUSH1 0xE0 SHL DUP2 MSTORE PUSH1 0x4 ADD PUSH1 0x20 PUSH1 0x40 MLOAD DUP1 DUP4 SUB DUP2 DUP7 GAS STATICCALL ISZERO DUP1 ISZERO PUSH2 0xD0F JUMPI RETURNDATASIZE PUSH0 DUP1 RETURNDATACOPY RETURNDATASIZE PUSH0 REVERT JUMPDEST POP POP POP POP PUSH1 0x40 MLOAD RETURNDATASIZE PUSH1 0x1F NOT PUSH1 0x1F DUP3 ADD AND DUP3 ADD DUP1 PUSH1 0x40 MSTORE POP DUP2 ADD SWAP1 PUSH2 0xD33 SWAP2 SWAP1 PUSH2 0x57D5 JUMP JUMPDEST PUSH1 0x1 PUSH1 0x1 PUSH1 0xA0 SHL SUB AND PUSH4 0x23B872DD CALLER PUSH1 0xC9 PUSH0 SWAP1 SLOAD SWAP1 PUSH2 0x100 EXP SWAP1 DIV PUSH1 0x1 PUSH1 0x1 PUSH1 0xA0 SHL SUB AND PUSH1 0x1 PUSH1 0x1 PUSH1 0xA0 SHL SUB AND PUSH4 0xE9D610E5 PUSH1 0x40 MLOAD DUP2 PUSH4 0xFFFFFFFF AND PUSH1 0xE0 SHL DUP2 MSTORE PUSH1 0x4 ADD PUSH1 0x20 PUSH1 0x40 MLOAD DUP1 DUP4 SUB DUP2 DUP7 GAS STATICCALL ISZERO DUP1 ISZERO PUSH2 0xD92 JUMPI RETURNDATASIZE PUSH0 DUP1 RETURNDATACOPY RETURNDATASIZE PUSH0 REVERT JUMPDEST POP POP POP POP PUSH1 0x40 MLOAD RETURNDATASIZE PUSH1 0x1F NOT PUSH1 0x1F DUP3 ADD AND DUP3 ADD DUP1 PUSH1 0x40 MSTORE POP DUP2 ADD SWAP1 PUSH2 0xDB6 SWAP2 SWAP1 PUSH2 0x57D5 JUMP JUMPDEST PUSH1 0xC9 SLOAD PUSH1 0x40 DUP1 MLOAD PUSH4 0x698518E5 PUSH1 0xE0 SHL DUP2 MSTORE SWAP1 MLOAD PUSH2 0x3E8 SWAP3 PUSH1 0x1 PUSH1 0x1 PUSH1 0xA0 SHL SUB AND SWAP2 PUSH4 0x698518E5 SWAP2 PUSH1 0x4 DUP1 DUP4 ADD SWAP3 PUSH1 0x20 SWAP3 SWAP2 SWAP1 DUP3 SWAP1 SUB ADD DUP2 DUP7 GAS STATICCALL ISZERO DUP1 ISZERO PUSH2 0xDFF JUMPI RETURNDATASIZE PUSH0 DUP1 RETURNDATACOPY RETURNDATASIZE PUSH0 REVERT JUMPDEST POP POP POP POP PUSH1 0x40 MLOAD RETURNDATASIZE PUSH1 0x1F NOT PUSH1 0x1F DUP3 ADD AND DUP3 ADD DUP1 PUSH1 0x40 MSTORE POP DUP2 ADD SWAP1 PUSH2 0xE23 SWAP2 SWAP1 PUSH2 0x57F0 JUMP JUMPDEST PUSH2 0xE2E PUSH1 0x2 DUP10 PUSH2 0x5731 JUMP JUMPDEST PUSH2 0xE38 SWAP2 SWAP1 PUSH2 0x5807 JUMP JUMPDEST PUSH2 0xE42 SWAP2 SWAP1 PUSH2 0x5731 JUMP JUMPDEST PUSH1 0x40 MLOAD DUP5 PUSH4 0xFFFFFFFF AND PUSH1 0xE0 SHL DUP2 MSTORE PUSH1 0x4 ADD PUSH2 0xE60 SWAP4 SWAP3 SWAP2 SWAP1 PUSH2 0x5346 JUMP JUMPDEST PUSH1 0x20 PUSH1 0x40 MLOAD DUP1 DUP4 SUB DUP2 PUSH0 DUP8 GAS CALL ISZERO DUP1 ISZERO PUSH2 0xE7C JUMPI RETURNDATASIZE PUSH0 DUP1 RETURNDATACOPY RETURNDATASIZE PUSH0 REVERT JUMPDEST POP POP POP POP PUSH1 0x40 MLOAD RETURNDATASIZE PUSH1 0x1F NOT PUSH1 0x1F DUP3 ADD AND DUP3 ADD DUP1 PUSH1 0x40 MSTORE POP DUP2 ADD SWAP1 PUSH2 0xEA0 SWAP2 SWAP1 PUSH2 0x57B6 JUMP JUMPDEST POP PUSH2 0xF53 JUMP JUMPDEST PUSH0 PUSH2 0xEAF PUSH2 0x42DB JUMP JUMPDEST SWAP1 POP PUSH2 0xEB9 PUSH2 0x35C5 JUMP JUMPDEST PUSH1 0x1 PUSH1 0x1 PUSH1 0xA0 SHL SUB AND PUSH4 0x23B872DD CALLER PUSH1 0x1 DUP5 PUSH2 0xED6 PUSH1 0x2 DUP10 PUSH2 0x5731 JUMP JUMPDEST PUSH2 0xEE0 SWAP2 SWAP1 PUSH2 0x5731 JUMP JUMPDEST PUSH2 0xEF2 SWAP1 PUSH8 0xDE0B6B3A7640000 PUSH2 0x5807 JUMP JUMPDEST PUSH1 0x40 MLOAD DUP5 PUSH4 0xFFFFFFFF AND PUSH1 0xE0 SHL DUP2 MSTORE PUSH1 0x4 ADD PUSH2 0xF10 SWAP4 SWAP3 SWAP2 SWAP1 PUSH2 0x5346 JUMP JUMPDEST PUSH1 0x20 PUSH1 0x40 MLOAD DUP1 DUP4 SUB DUP2 PUSH0 DUP8 GAS CALL ISZERO DUP1 ISZERO PUSH2 0xF2C JUMPI RETURNDATASIZE PUSH0 DUP1 RETURNDATACOPY RETURNDATASIZE PUSH0 REVERT JUMPDEST POP POP POP POP PUSH1 0x40 MLOAD RETURNDATASIZE PUSH1 0x1F NOT PUSH1 0x1F DUP3 ADD AND DUP3 ADD DUP1 PUSH1 0x40 MSTORE POP DUP2 ADD SWAP1 PUSH2 0xF50 SWAP2 SWAP1 PUSH2 0x57B6 JUMP JUMPDEST POP POP JUMPDEST CALLER PUSH0 DUP2 DUP2 MSTORE PUSH1 0xD0 PUSH1 0x20 SWAP1 DUP2 MSTORE PUSH1 0x40 DUP1 DUP4 KECCAK256 PUSH1 0xCB DUP1 SLOAD DUP3 SLOAD PUSH1 0x1 DUP1 DUP3 ADD DUP6 SSTORE SWAP4 DUP8 MSTORE DUP6 DUP8 KECCAK256 ADD SSTORE DUP3 MLOAD PUSH1 0x80 DUP2 ADD DUP5 MSTORE DUP7 DUP2 MSTORE DUP1 DUP6 ADD DUP10 DUP2 MSTORE TIMESTAMP DUP3 DUP7 ADD DUP2 DUP2 MSTORE PUSH1 0x60 DUP5 ADD SWAP2 DUP3 MSTORE DUP5 SLOAD DUP1 DUP8 ADD DUP7 SSTORE SWAP5 DUP10 MSTORE SWAP3 MLOAD PUSH0 DUP1 MLOAD PUSH1 0x20 PUSH2 0x5B7B DUP4 CODECOPY DUP2 MLOAD SWAP2 MSTORE PUSH1 0x4 SWAP1 SWAP6 MUL SWAP5 DUP6 ADD DUP1 SLOAD PUSH1 0x1 PUSH1 0x1 PUSH1 0xA0 SHL SUB NOT AND PUSH1 0x1 PUSH1 0x1 PUSH1 0xA0 SHL SUB SWAP1 SWAP3 AND SWAP2 SWAP1 SWAP2 OR SWAP1 SSTORE SWAP1 MLOAD PUSH0 DUP1 MLOAD PUSH1 0x20 PUSH2 0x5B5B DUP4 CODECOPY DUP2 MLOAD SWAP2 MSTORE DUP5 ADD SSTORE SWAP1 MLOAD PUSH0 DUP1 MLOAD PUSH1 0x20 PUSH2 0x5B9B DUP4 CODECOPY DUP2 MLOAD SWAP2 MSTORE DUP4 ADD SSTORE MLOAD PUSH0 DUP1 MLOAD PUSH1 0x20 PUSH2 0x5C22 DUP4 CODECOPY DUP2 MLOAD SWAP2 MSTORE SWAP1 SWAP2 ADD SSTORE SWAP4 DUP4 MSTORE PUSH1 0xD1 SWAP1 SWAP2 MSTORE SWAP1 KECCAK256 DUP1 SLOAD PUSH1 0xFF NOT AND SWAP1 SWAP2 OR SWAP1 SSTORE PUSH2 0x102D PUSH2 0x4294 JUMP JUMPDEST PUSH1 0x1 PUSH1 0x1 PUSH1 0xA0 SHL SUB AND PUSH4 0xA9059CBB PUSH1 0xC9 PUSH0 SWAP1 SLOAD SWAP1 PUSH2 0x100 EXP SWAP1 DIV PUSH1 0x1 PUSH1 0x1 PUSH1 0xA0 SHL SUB AND PUSH1 0x1 PUSH1 0x1 PUSH1 0xA0 SHL SUB AND PUSH4 0x1E56CFAB PUSH1 0x40 MLOAD DUP2 PUSH4 0xFFFFFFFF AND PUSH1 0xE0 SHL DUP2 MSTORE PUSH1 0x4 ADD PUSH1 0x20 PUSH1 0x40 MLOAD DUP1 DUP4 SUB DUP2 DUP7 GAS STATICCALL ISZERO DUP1 ISZERO PUSH2 0x108B JUMPI RETURNDATASIZE PUSH0 DUP1 RETURNDATACOPY RETURNDATASIZE PUSH0 REVERT JUMPDEST POP POP POP POP PUSH1 0x40 MLOAD RETURNDATASIZE PUSH1 0x1F NOT PUSH1 0x1F DUP3 ADD AND DUP3 ADD DUP1 PUSH1 0x40 MSTORE POP DUP2 ADD SWAP1 PUSH2 0x10AF SWAP2 SWAP1 PUSH2 0x57D5 JUMP JUMPDEST PUSH2 0x3E8 PUSH2 0x10BD PUSH1 0x2 DUP8 PUSH2 0x5731 JUMP JUMPDEST PUSH2 0x10C8 SWAP1 PUSH1 0x14 PUSH2 0x5807 JUMP JUMPDEST PUSH2 0x10D2 SWAP2 SWAP1 PUSH2 0x5731 JUMP JUMPDEST PUSH1 0x40 MLOAD DUP4 PUSH4 0xFFFFFFFF AND PUSH1 0xE0 SHL DUP2 MSTORE PUSH1 0x4 ADD PUSH2 0x10EF SWAP3 SWAP2 SWAP1 PUSH2 0x581E JUMP JUMPDEST PUSH1 0x20 PUSH1 0x40 MLOAD DUP1 DUP4 SUB DUP2 PUSH0 DUP8 GAS CALL ISZERO DUP1 ISZERO PUSH2 0x110B JUMPI RETURNDATASIZE PUSH0 DUP1 RETURNDATACOPY RETURNDATASIZE PUSH0 REVERT JUMPDEST POP POP POP POP PUSH1 0x40 MLOAD RETURNDATASIZE PUSH1 0x1F NOT PUSH1 0x1F DUP3 ADD AND DUP3 ADD DUP1 PUSH1 0x40 MSTORE POP DUP2 ADD SWAP1 PUSH2 0x112F SWAP2 SWAP1 PUSH2 0x57B6 JUMP JUMPDEST POP PUSH2 0x1138 PUSH2 0x4294 JUMP JUMPDEST PUSH1 0x1 PUSH1 0x1 PUSH1 0xA0 SHL SUB AND PUSH4 0xA9059CBB PUSH1 0xC9 PUSH0 SWAP1 SLOAD SWAP1 PUSH2 0x100 EXP SWAP1 DIV PUSH1 0x1 PUSH1 0x1 PUSH1 0xA0 SHL SUB AND PUSH1 0x1 PUSH1 0x1 PUSH1 0xA0 SHL SUB AND PUSH4 0x95623641 PUSH1 0x40 MLOAD DUP2 PUSH4 0xFFFFFFFF AND PUSH1 0xE0 SHL DUP2 MSTORE PUSH1 0x4 ADD PUSH1 0x20 PUSH1 0x40 MLOAD DUP1 DUP4 SUB DUP2 DUP7 GAS STATICCALL ISZERO DUP1 ISZERO PUSH2 0x1196 JUMPI RETURNDATASIZE PUSH0 DUP1 RETURNDATACOPY RETURNDATASIZE PUSH0 REVERT JUMPDEST POP POP POP POP PUSH1 0x40 MLOAD RETURNDATASIZE PUSH1 0x1F NOT PUSH1 0x1F DUP3 ADD AND DUP3 ADD DUP1 PUSH1 0x40 MSTORE POP DUP2 ADD SWAP1 PUSH2 0x11BA SWAP2 SWAP1 PUSH2 0x57D5 JUMP JUMPDEST PUSH2 0x3E8 PUSH2 0x11C8 PUSH1 0x2 DUP8 PUSH2 0x5731 JUMP JUMPDEST PUSH2 0x11D3 SWAP1 PUSH1 0x14 PUSH2 0x5807 JUMP JUMPDEST PUSH2 0x11DD SWAP2 SWAP1 PUSH2 0x5731 JUMP JUMPDEST PUSH1 0x40 MLOAD DUP4 PUSH4 0xFFFFFFFF AND PUSH1 0xE0 SHL DUP2 MSTORE PUSH1 0x4 ADD PUSH2 0x11FA SWAP3 SWAP2 SWAP1 PUSH2 0x581E JUMP JUMPDEST PUSH1 0x20 PUSH1 0x40 MLOAD DUP1 DUP4 SUB DUP2 PUSH0 DUP8 GAS CALL ISZERO DUP1 ISZERO PUSH2 0x1216 JUMPI RETURNDATASIZE PUSH0 DUP1 RETURNDATACOPY RETURNDATASIZE PUSH0 REVERT JUMPDEST POP POP POP POP PUSH1 0x40 MLOAD RETURNDATASIZE PUSH1 0x1F NOT PUSH1 0x1F DUP3 ADD AND DUP3 ADD DUP1 PUSH1 0x40 MSTORE POP DUP2 ADD SWAP1 PUSH2 0x123A SWAP2 SWAP1 PUSH2 0x57B6 JUMP JUMPDEST POP PUSH2 0x1243 PUSH2 0x4294 JUMP JUMPDEST PUSH1 0x1 PUSH1 0x1 PUSH1 0xA0 SHL SUB AND PUSH4 0x95EA7B3 PUSH2 0x1259 PUSH2 0x4467 JUMP JUMPDEST PUSH2 0x3E8 PUSH2 0x1267 PUSH1 0x2 DUP8 PUSH2 0x5731 JUMP JUMPDEST PUSH2 0x1272 SWAP1 PUSH1 0xC8 PUSH2 0x5807 JUMP JUMPDEST PUSH2 0x127C SWAP2 SWAP1 PUSH2 0x5731 JUMP JUMPDEST PUSH1 0x40 MLOAD DUP4 PUSH4 0xFFFFFFFF AND PUSH1 0xE0 SHL DUP2 MSTORE PUSH1 0x4 ADD PUSH2 0x1299 SWAP3 SWAP2 SWAP1 PUSH2 0x581E JUMP JUMPDEST PUSH1 0x20 PUSH1 0x40 MLOAD DUP1 DUP4 SUB DUP2 PUSH0 DUP8 GAS CALL ISZERO DUP1 ISZERO PUSH2 0x12B5 JUMPI RETURNDATASIZE PUSH0 DUP1 RETURNDATACOPY RETURNDATASIZE PUSH0 REVERT JUMPDEST POP POP POP POP PUSH1 0x40 MLOAD RETURNDATASIZE PUSH1 0x1F NOT PUSH1 0x1F DUP3 ADD AND DUP3 ADD DUP1 PUSH1 0x40 MSTORE POP DUP2 ADD SWAP1 PUSH2 0x12D9 SWAP2 SWAP1 PUSH2 0x57B6 JUMP JUMPDEST POP PUSH2 0x12E2 PUSH2 0x4467 JUMP JUMPDEST PUSH1 0x1 PUSH1 0x1 PUSH1 0xA0 SHL SUB AND PUSH4 0xA1E15411 PUSH2 0x12F8 PUSH2 0x4294 JUMP JUMPDEST PUSH2 0x1300 PUSH2 0x44AE JUMP JUMPDEST PUSH2 0x3E8 PUSH2 0x130E PUSH1 0x2 DUP9 PUSH2 0x5731 JUMP JUMPDEST PUSH2 0x1319 SWAP1 PUSH1 0xC8 PUSH2 0x5807 JUMP JUMPDEST PUSH2 0x1323 SWAP2 SWAP1 PUSH2 0x5731 JUMP JUMPDEST PUSH1 0x40 MLOAD DUP5 PUSH4 0xFFFFFFFF AND PUSH1 0xE0 SHL DUP2 MSTORE PUSH1 0x4 ADD PUSH2 0x1341 SWAP4 SWAP3 SWAP2 SWAP1 PUSH2 0x5346 JUMP JUMPDEST PUSH1 0x20 PUSH1 0x40 MLOAD DUP1 DUP4 SUB DUP2 PUSH0 DUP8 GAS CALL ISZERO DUP1 ISZERO PUSH2 0x135D JUMPI RETURNDATASIZE PUSH0 DUP1 RETURNDATACOPY RETURNDATASIZE PUSH0 REVERT JUMPDEST POP POP POP POP PUSH1 0x40 MLOAD RETURNDATASIZE PUSH1 0x1F NOT PUSH1 0x1F DUP3 ADD AND DUP3 ADD DUP1 PUSH1 0x40 MSTORE POP DUP2 ADD SWAP1 PUSH2 0x1381 SWAP2 SWAP1 PUSH2 0x57F0 JUMP JUMPDEST POP PUSH0 PUSH2 0x3E8 PUSH2 0x1391 PUSH1 0x2 DUP6 PUSH2 0x5731 JUMP JUMPDEST PUSH2 0x139D SWAP1 PUSH2 0x2BC PUSH2 0x5807 JUMP JUMPDEST PUSH2 0x13A7 SWAP2 SWAP1 PUSH2 0x5731 JUMP JUMPDEST SWAP1 POP PUSH0 DUP1 PUSH2 0x13B3 PUSH2 0x4467 JUMP JUMPDEST PUSH1 0x1 PUSH1 0x1 PUSH1 0xA0 SHL SUB AND PUSH4 0x902F1AC PUSH1 0x40 MLOAD DUP2 PUSH4 0xFFFFFFFF AND PUSH1 0xE0 SHL DUP2 MSTORE PUSH1 0x4 ADD PUSH1 0x60 PUSH1 0x40 MLOAD DUP1 DUP4 SUB DUP2 DUP7 GAS STATICCALL ISZERO DUP1 ISZERO PUSH2 0x13EE JUMPI RETURNDATASIZE PUSH0 DUP1 RETURNDATACOPY RETURNDATASIZE PUSH0 REVERT JUMPDEST POP POP POP POP PUSH1 0x40 MLOAD RETURNDATASIZE PUSH1 0x1F NOT PUSH1 0x1F DUP3 ADD AND DUP3 ADD DUP1 PUSH1 0x40 MSTORE POP DUP2 ADD SWAP1 PUSH2 0x1412 SWAP2 SWAP1 PUSH2 0x5852 JUMP JUMPDEST POP SWAP2 POP SWAP2 POP PUSH0 DUP1 PUSH2 0x1421 PUSH2 0x4294 JUMP JUMPDEST PUSH1 0x1 PUSH1 0x1 PUSH1 0xA0 SHL SUB AND PUSH2 0x1432 PUSH2 0x4467 JUMP JUMPDEST PUSH1 0x1 PUSH1 0x1 PUSH1 0xA0 SHL SUB AND PUSH4 0xDFE1681 PUSH1 0x40 MLOAD DUP2 PUSH4 0xFFFFFFFF AND PUSH1 0xE0 SHL DUP2 MSTORE PUSH1 0x4 ADD PUSH1 0x20 PUSH1 0x40 MLOAD DUP1 DUP4 SUB DUP2 DUP7 GAS STATICCALL ISZERO DUP1 ISZERO PUSH2 0x146D JUMPI RETURNDATASIZE PUSH0 DUP1 RETURNDATACOPY RETURNDATASIZE PUSH0 REVERT JUMPDEST POP POP POP POP PUSH1 0x40 MLOAD RETURNDATASIZE PUSH1 0x1F NOT PUSH1 0x1F DUP3 ADD AND DUP3 ADD DUP1 PUSH1 0x40 MSTORE POP DUP2 ADD SWAP1 PUSH2 0x1491 SWAP2 SWAP1 PUSH2 0x57D5 JUMP JUMPDEST PUSH1 0x1 PUSH1 0x1 PUSH1 0xA0 SHL SUB AND EQ PUSH2 0x14A6 JUMPI DUP3 DUP5 PUSH2 0x14A9 JUMP JUMPDEST DUP4 DUP4 JUMPDEST SWAP2 POP SWAP2 POP PUSH0 DUP3 PUSH1 0x1 PUSH1 0x1 PUSH1 0x70 SHL SUB AND DUP7 DUP4 PUSH1 0x1 PUSH1 0x1 PUSH1 0x70 SHL SUB AND PUSH2 0x14CD SWAP2 SWAP1 PUSH2 0x5807 JUMP JUMPDEST PUSH2 0x14D7 SWAP2 SWAP1 PUSH2 0x5731 JUMP JUMPDEST SWAP1 POP PUSH2 0x14E1 PUSH2 0x4294 JUMP JUMPDEST PUSH1 0x1 PUSH1 0x1 PUSH1 0xA0 SHL SUB AND PUSH4 0xA9059CBB PUSH2 0x14F7 PUSH2 0x4467 JUMP JUMPDEST DUP9 PUSH1 0x40 MLOAD DUP4 PUSH4 0xFFFFFFFF AND PUSH1 0xE0 SHL DUP2 MSTORE PUSH1 0x4 ADD PUSH2 0x1515 SWAP3 SWAP2 SWAP1 PUSH2 0x581E JUMP JUMPDEST PUSH1 0x20 PUSH1 0x40 MLOAD DUP1 DUP4 SUB DUP2 PUSH0 DUP8 GAS CALL ISZERO DUP1 ISZERO PUSH2 0x1531 JUMPI RETURNDATASIZE PUSH0 DUP1 RETURNDATACOPY RETURNDATASIZE PUSH0 REVERT JUMPDEST POP POP POP POP PUSH1 0x40 MLOAD RETURNDATASIZE PUSH1 0x1F NOT PUSH1 0x1F DUP3 ADD AND DUP3 ADD DUP1 PUSH1 0x40 MSTORE POP DUP2 ADD SWAP1 PUSH2 0x1555 SWAP2 SWAP1 PUSH2 0x57B6 JUMP JUMPDEST POP PUSH2 0x155E PUSH2 0x44AE JUMP JUMPDEST PUSH1 0x1 PUSH1 0x1 PUSH1 0xA0 SHL SUB AND PUSH4 0xF3FEF3A3 PUSH2 0x1574 PUSH2 0x4467 JUMP JUMPDEST DUP4 PUSH1 0x40 MLOAD DUP4 PUSH4 0xFFFFFFFF AND PUSH1 0xE0 SHL DUP2 MSTORE PUSH1 0x4 ADD PUSH2 0x1592 SWAP3 SWAP2 SWAP1 PUSH2 0x581E JUMP JUMPDEST PUSH0 PUSH1 0x40 MLOAD DUP1 DUP4 SUB DUP2 PUSH0 DUP8 DUP1 EXTCODESIZE ISZERO DUP1 ISZERO PUSH2 0x15A9 JUMPI PUSH0 DUP1 REVERT JUMPDEST POP GAS CALL ISZERO DUP1 ISZERO PUSH2 0x15BB JUMPI RETURNDATASIZE PUSH0 DUP1 RETURNDATACOPY RETURNDATASIZE PUSH0 REVERT JUMPDEST POP POP POP POP PUSH2 0x15C7 PUSH2 0x4467 JUMP JUMPDEST PUSH1 0x1 PUSH1 0x1 PUSH1 0xA0 SHL SUB AND PUSH4 0x6A627842 PUSH1 0x1 PUSH1 0x40 MLOAD DUP3 PUSH4 0xFFFFFFFF AND PUSH1 0xE0 SHL DUP2 MSTORE PUSH1 0x4 ADD PUSH2 0x15F3 SWAP2 SWAP1 PUSH2 0x5542 JUMP JUMPDEST PUSH1 0x20 PUSH1 0x40 MLOAD DUP1 DUP4 SUB DUP2 PUSH0 DUP8 GAS CALL ISZERO DUP1 ISZERO PUSH2 0x160F JUMPI RETURNDATASIZE PUSH0 DUP1 RETURNDATACOPY RETURNDATASIZE PUSH0 REVERT JUMPDEST POP POP POP POP PUSH1 0x40 MLOAD RETURNDATASIZE PUSH1 0x1F NOT PUSH1 0x1F DUP3 ADD AND DUP3 ADD DUP1 PUSH1 0x40 MSTORE POP DUP2 ADD SWAP1 PUSH2 0x1633 SWAP2 SWAP1 PUSH2 0x57F0 JUMP JUMPDEST POP PUSH2 0x163C PUSH2 0x44F5 JUMP JUMPDEST PUSH2 0x1644 PUSH2 0x46C3 JUMP JUMPDEST PUSH2 0x3E8 PUSH2 0x1652 PUSH1 0x2 DUP11 PUSH2 0x5731 JUMP JUMPDEST PUSH2 0x165D SWAP1 PUSH1 0x23 PUSH2 0x5807 JUMP JUMPDEST PUSH2 0x1667 SWAP2 SWAP1 PUSH2 0x5731 JUMP JUMPDEST PUSH1 0xD4 PUSH0 DUP3 DUP3 SLOAD PUSH2 0x1677 SWAP2 SWAP1 PUSH2 0x56F7 JUMP JUMPDEST SWAP1 SWAP2 SSTORE POP PUSH2 0x3E8 SWAP1 POP PUSH2 0x168B PUSH1 0x2 DUP11 PUSH2 0x5731 JUMP JUMPDEST PUSH2 0x1696 SWAP1 PUSH1 0x19 PUSH2 0x5807 JUMP JUMPDEST PUSH2 0x16A0 SWAP2 SWAP1 PUSH2 0x5731 JUMP JUMPDEST PUSH1 0xD5 PUSH0 DUP3 DUP3 SLOAD PUSH2 0x16B0 SWAP2 SWAP1 PUSH2 0x56F7 JUMP JUMPDEST SWAP1 SWAP2 SSTORE POP PUSH2 0x16BE SWAP1 POP PUSH2 0x2603 JUMP JUMPDEST PUSH2 0x16C6 PUSH2 0x3630 JUMP JUMPDEST POP POP POP POP POP POP POP POP JUMP JUMPDEST PUSH0 DUP1 PUSH0 PUSH2 0x16DB PUSH2 0x4467 JUMP JUMPDEST PUSH1 0x1 PUSH1 0x1 PUSH1 0xA0 SHL SUB AND PUSH4 0x902F1AC PUSH1 0x40 MLOAD DUP2 PUSH4 0xFFFFFFFF AND PUSH1 0xE0 SHL DUP2 MSTORE PUSH1 0x4 ADD PUSH1 0x60 PUSH1 0x40 MLOAD DUP1 DUP4 SUB DUP2 DUP7 GAS STATICCALL ISZERO DUP1 ISZERO PUSH2 0x1716 JUMPI RETURNDATASIZE PUSH0 DUP1 RETURNDATACOPY RETURNDATASIZE PUSH0 REVERT JUMPDEST POP POP POP POP PUSH1 0x40 MLOAD RETURNDATASIZE PUSH1 0x1F NOT PUSH1 0x1F DUP3 ADD AND DUP3 ADD DUP1 PUSH1 0x40 MSTORE POP DUP2 ADD SWAP1 PUSH2 0x173A SWAP2 SWAP1 PUSH2 0x5852 JUMP JUMPDEST POP SWAP2 POP SWAP2 POP PUSH0 DUP1 PUSH2 0x1749 PUSH2 0x4294 JUMP JUMPDEST PUSH1 0x1 PUSH1 0x1 PUSH1 0xA0 SHL SUB AND PUSH2 0x175A PUSH2 0x4467 JUMP JUMPDEST PUSH1 0x1 PUSH1 0x1 PUSH1 0xA0 SHL SUB AND PUSH4 0xDFE1681 PUSH1 0x40 MLOAD DUP2 PUSH4 0xFFFFFFFF AND PUSH1 0xE0 SHL DUP2 MSTORE PUSH1 0x4 ADD PUSH1 0x20 PUSH1 0x40 MLOAD DUP1 DUP4 SUB DUP2 DUP7 GAS STATICCALL ISZERO DUP1 ISZERO PUSH2 0x1795 JUMPI RETURNDATASIZE PUSH0 DUP1 RETURNDATACOPY RETURNDATASIZE PUSH0 REVERT JUMPDEST POP POP POP POP PUSH1 0x40 MLOAD RETURNDATASIZE PUSH1 0x1F NOT PUSH1 0x1F DUP3 ADD AND DUP3 ADD DUP1 PUSH1 0x40 MSTORE POP DUP2 ADD SWAP1 PUSH2 0x17B9 SWAP2 SWAP1 PUSH2 0x57D5 JUMP JUMPDEST PUSH1 0x1 PUSH1 0x1 PUSH1 0xA0 SHL SUB AND EQ PUSH2 0x17CE JUMPI DUP3 DUP5 PUSH2 0x17D1 JUMP JUMPDEST DUP4 DUP4 JUMPDEST SWAP2 POP SWAP2 POP PUSH2 0x17DD PUSH2 0x4467 JUMP JUMPDEST PUSH1 0x1 PUSH1 0x1 PUSH1 0xA0 SHL SUB AND PUSH4 0x54D50D4 DUP8 DUP4 DUP6 PUSH1 0x40 MLOAD DUP5 PUSH4 0xFFFFFFFF AND PUSH1 0xE0 SHL DUP2 MSTORE PUSH1 0x4 ADD PUSH2 0x180C SWAP4 SWAP3 SWAP2 SWAP1 PUSH2 0x589E JUMP JUMPDEST PUSH1 0x20 PUSH1 0x40 MLOAD DUP1 DUP4 SUB DUP2 DUP7 GAS STATICCALL ISZERO DUP1 ISZERO PUSH2 0x1827 JUMPI RETURNDATASIZE PUSH0 DUP1 RETURNDATACOPY RETURNDATASIZE PUSH0 REVERT JUMPDEST POP POP POP POP PUSH1 0x40 MLOAD RETURNDATASIZE PUSH1 0x1F NOT PUSH1 0x1F DUP3 ADD AND DUP3 ADD DUP1 PUSH1 0x40 MSTORE POP DUP2 ADD SWAP1 PUSH2 0x184B SWAP2 SWAP1 PUSH2 0x57F0 JUMP JUMPDEST SWAP7 SWAP6 POP POP POP POP POP POP JUMP JUMPDEST PUSH1 0xCE DUP2 DUP2 SLOAD DUP2 LT PUSH2 0xAD6 JUMPI PUSH0 DUP1 REVERT JUMPDEST PUSH2 0x189A PUSH1 0x40 MLOAD DUP1 PUSH1 0xA0 ADD PUSH1 0x40 MSTORE DUP1 PUSH0 DUP2 MSTORE PUSH1 0x20 ADD PUSH0 DUP2 MSTORE PUSH1 0x20 ADD PUSH0 DUP2 MSTORE PUSH1 0x20 ADD PUSH0 DUP2 MSTORE PUSH1 0x20 ADD PUSH0 PUSH1 0x1 PUSH1 0x1 PUSH1 0xA0 SHL SUB AND DUP2 MSTORE POP SWAP1 JUMP JUMPDEST PUSH0 PUSH1 0xD6 SLOAD PUSH2 0x258 PUSH2 0x18AB SWAP2 SWAP1 PUSH2 0x56F7 JUMP JUMPDEST SWAP1 POP PUSH1 0x40 MLOAD DUP1 PUSH1 0xA0 ADD PUSH1 0x40 MSTORE DUP1 DUP3 TIMESTAMP LT ISZERO PUSH2 0x18CF JUMPI PUSH2 0x18CA TIMESTAMP DUP5 PUSH2 0x570A JUMP JUMPDEST PUSH2 0x18D1 JUMP JUMPDEST PUSH0 JUMPDEST DUP2 MSTORE PUSH1 0x20 ADD PUSH1 0xD4 SLOAD DUP2 MSTORE PUSH1 0x20 ADD PUSH2 0x3E8 PUSH1 0xD4 SLOAD PUSH1 0x64 PUSH2 0x18F0 SWAP2 SWAP1 PUSH2 0x5807 JUMP JUMPDEST PUSH2 0x18FA SWAP2 SWAP1 PUSH2 0x5731 JUMP JUMPDEST DUP2 MSTORE PUSH1 0x20 ADD PUSH2 0x1907 PUSH2 0x35C5 JUMP JUMPDEST PUSH1 0x1 PUSH1 0x1 PUSH1 0xA0 SHL SUB AND PUSH4 0x70A08231 PUSH1 0x1 PUSH1 0x40 MLOAD DUP3 PUSH4 0xFFFFFFFF AND PUSH1 0xE0 SHL DUP2 MSTORE PUSH1 0x4 ADD PUSH2 0x1933 SWAP2 SWAP1 PUSH2 0x5542 JUMP JUMPDEST PUSH1 0x20 PUSH1 0x40 MLOAD DUP1 DUP4 SUB DUP2 DUP7 GAS STATICCALL ISZERO DUP1 ISZERO PUSH2 0x194E JUMPI RETURNDATASIZE PUSH0 DUP1 RETURNDATACOPY RETURNDATASIZE PUSH0 REVERT JUMPDEST POP POP POP POP PUSH1 0x40 MLOAD RETURNDATASIZE PUSH1 0x1F NOT PUSH1 0x1F DUP3 ADD AND DUP3 ADD DUP1 PUSH1 0x40 MSTORE POP DUP2 ADD SWAP1 PUSH2 0x1972 SWAP2 SWAP1 PUSH2 0x57F0 JUMP JUMPDEST DUP2 MSTORE PUSH1 0x20 ADD PUSH1 0xCB PUSH1 0x1 PUSH1 0xCB DUP1 SLOAD SWAP1 POP PUSH2 0x198B SWAP2 SWAP1 PUSH2 0x570A JUMP JUMPDEST DUP2 SLOAD DUP2 LT PUSH2 0xAA6 JUMPI PUSH2 0xAA6 PUSH2 0x56CF JUMP JUMPDEST CALLER PUSH0 SWAP1 DUP2 MSTORE PUSH1 0xD0 PUSH1 0x20 SWAP1 DUP2 MSTORE PUSH1 0x40 DUP1 DUP4 KECCAK256 DUP1 SLOAD DUP3 MLOAD DUP2 DUP6 MUL DUP2 ADD DUP6 ADD SWAP1 SWAP4 MSTORE DUP1 DUP4 MSTORE SWAP2 SWAP3 SWAP1 SWAP2 SWAP1 DUP4 ADD DUP3 DUP3 DUP1 ISZERO PUSH2 0x19EF JUMPI PUSH1 0x20 MUL DUP3 ADD SWAP2 SWAP1 PUSH0 MSTORE PUSH1 0x20 PUSH0 KECCAK256 SWAP1 JUMPDEST DUP2 SLOAD DUP2 MSTORE PUSH1 0x20 ADD SWAP1 PUSH1 0x1 ADD SWAP1 DUP1 DUP4 GT PUSH2 0x19DB JUMPI JUMPDEST POP POP POP POP POP SWAP1 POP PUSH0 DUP1 PUSH2 0x1A00 PUSH2 0x42DB JUMP JUMPDEST SWAP1 POP PUSH0 JUMPDEST DUP4 MLOAD DUP2 LT ISZERO PUSH2 0x1BB1 JUMPI PUSH0 PUSH1 0xCB DUP6 DUP4 DUP2 MLOAD DUP2 LT PUSH2 0x1A22 JUMPI PUSH2 0x1A22 PUSH2 0x56CF JUMP JUMPDEST PUSH1 0x20 MUL PUSH1 0x20 ADD ADD MLOAD DUP2 SLOAD DUP2 LT PUSH2 0x1A3A JUMPI PUSH2 0x1A3A PUSH2 0x56CF JUMP JUMPDEST SWAP1 PUSH0 MSTORE PUSH1 0x20 PUSH0 KECCAK256 SWAP1 PUSH1 0x4 MUL ADD SWAP1 POP PUSH1 0xC9 PUSH0 SWAP1 SLOAD SWAP1 PUSH2 0x100 EXP SWAP1 DIV PUSH1 0x1 PUSH1 0x1 PUSH1 0xA0 SHL SUB AND PUSH1 0x1 PUSH1 0x1 PUSH1 0xA0 SHL SUB AND PUSH4 0xB433A12 PUSH1 0x40 MLOAD DUP2 PUSH4 0xFFFFFFFF AND PUSH1 0xE0 SHL DUP2 MSTORE PUSH1 0x4 ADD PUSH1 0x20 PUSH1 0x40 MLOAD DUP1 DUP4 SUB DUP2 DUP7 GAS STATICCALL ISZERO DUP1 ISZERO PUSH2 0x1A98 JUMPI RETURNDATASIZE PUSH0 DUP1 RETURNDATACOPY RETURNDATASIZE PUSH0 REVERT JUMPDEST POP POP POP POP PUSH1 0x40 MLOAD RETURNDATASIZE PUSH1 0x1F NOT PUSH1 0x1F DUP3 ADD AND DUP3 ADD DUP1 PUSH1 0x40 MSTORE POP DUP2 ADD SWAP1 PUSH2 0x1ABC SWAP2 SWAP1 PUSH2 0x57F0 JUMP JUMPDEST PUSH1 0x3 DUP3 ADD SLOAD PUSH2 0x1ACB SWAP1 TIMESTAMP PUSH2 0x570A JUMP JUMPDEST GT PUSH2 0x1AE9 JUMPI PUSH1 0x40 MLOAD PUSH4 0x1CA0875F PUSH1 0xE0 SHL DUP2 MSTORE PUSH1 0x4 ADD PUSH1 0x40 MLOAD DUP1 SWAP2 SUB SWAP1 REVERT JUMPDEST PUSH0 PUSH2 0x1AF2 PUSH2 0x495D JUMP JUMPDEST DUP3 PUSH1 0x2 ADD SLOAD PUSH2 0x1B01 SWAP2 SWAP1 PUSH2 0x56F7 JUMP JUMPDEST TIMESTAMP LT PUSH2 0x1B23 JUMPI PUSH2 0x1B0F PUSH2 0x495D JUMP JUMPDEST DUP3 PUSH1 0x2 ADD SLOAD PUSH2 0x1B1E SWAP2 SWAP1 PUSH2 0x56F7 JUMP JUMPDEST PUSH2 0x1B25 JUMP JUMPDEST TIMESTAMP JUMPDEST SWAP1 POP DUP2 PUSH1 0x3 ADD SLOAD DUP2 GT PUSH2 0x1B39 JUMPI POP POP PUSH2 0x1BA1 JUMP JUMPDEST DUP4 PUSH3 0x15180 PUSH1 0x64 DUP5 PUSH1 0x1 ADD SLOAD PUSH2 0x1B4F SWAP2 SWAP1 PUSH2 0x5731 JUMP JUMPDEST PUSH2 0x1B59 SWAP2 SWAP1 PUSH2 0x5731 JUMP JUMPDEST PUSH1 0x3 DUP5 ADD SLOAD PUSH2 0x1B68 SWAP1 DUP5 PUSH2 0x570A JUMP JUMPDEST PUSH2 0x1B72 SWAP2 SWAP1 PUSH2 0x5807 JUMP JUMPDEST PUSH2 0x1B7C SWAP2 SWAP1 PUSH2 0x5731 JUMP JUMPDEST PUSH2 0x1B8E SWAP1 PUSH8 0xDE0B6B3A7640000 PUSH2 0x5807 JUMP JUMPDEST PUSH2 0x1B98 SWAP1 DUP7 PUSH2 0x56F7 JUMP JUMPDEST PUSH1 0x3 SWAP1 SWAP3 ADD SSTORE SWAP3 POP JUMPDEST PUSH2 0x1BAA DUP2 PUSH2 0x58BD JUMP JUMPDEST SWAP1 POP PUSH2 0x1A04 JUMP JUMPDEST POP DUP2 ISZERO PUSH2 0x1D54 JUMPI PUSH2 0x1BC0 PUSH2 0x44AE JUMP JUMPDEST PUSH1 0x1 PUSH1 0x1 PUSH1 0xA0 SHL SUB AND PUSH4 0xF3FEF3A3 ADDRESS DUP5 PUSH1 0x40 MLOAD DUP4 PUSH4 0xFFFFFFFF AND PUSH1 0xE0 SHL DUP2 MSTORE PUSH1 0x4 ADD PUSH2 0x1BED SWAP3 SWAP2 SWAP1 PUSH2 0x581E JUMP JUMPDEST PUSH0 PUSH1 0x40 MLOAD DUP1 DUP4 SUB DUP2 PUSH0 DUP8 DUP1 EXTCODESIZE ISZERO DUP1 ISZERO PUSH2 0x1C04 JUMPI PUSH0 DUP1 REVERT JUMPDEST POP GAS CALL ISZERO DUP1 ISZERO PUSH2 0x1C16 JUMPI RETURNDATASIZE PUSH0 DUP1 RETURNDATACOPY RETURNDATASIZE PUSH0 REVERT JUMPDEST POP POP POP POP PUSH2 0x1C22 PUSH2 0x35C5 JUMP JUMPDEST PUSH1 0x1 PUSH1 0x1 PUSH1 0xA0 SHL SUB AND PUSH4 0xA9059CBB CALLER PUSH2 0x1C3C PUSH1 0x2 DUP7 PUSH2 0x5731 JUMP JUMPDEST PUSH1 0x40 MLOAD DUP4 PUSH4 0xFFFFFFFF AND PUSH1 0xE0 SHL DUP2 MSTORE PUSH1 0x4 ADD PUSH2 0x1C59 SWAP3 SWAP2 SWAP1 PUSH2 0x581E JUMP JUMPDEST PUSH1 0x20 PUSH1 0x40 MLOAD DUP1 DUP4 SUB DUP2 PUSH0 DUP8 GAS CALL ISZERO DUP1 ISZERO PUSH2 0x1C75 JUMPI RETURNDATASIZE PUSH0 DUP1 RETURNDATACOPY RETURNDATASIZE PUSH0 REVERT JUMPDEST POP POP POP POP PUSH1 0x40 MLOAD RETURNDATASIZE PUSH1 0x1F NOT PUSH1 0x1F DUP3 ADD AND DUP3 ADD DUP1 PUSH1 0x40 MSTORE POP DUP2 ADD SWAP1 PUSH2 0x1C99 SWAP2 SWAP1 PUSH2 0x57B6 JUMP JUMPDEST POP PUSH1 0x40 DUP1 MLOAD PUSH1 0x80 DUP2 ADD SWAP1 SWAP2 MSTORE CALLER DUP2 MSTORE PUSH1 0xCC SWAP1 PUSH1 0x20 DUP2 ADD PUSH2 0x1CBA PUSH1 0x2 DUP7 PUSH2 0x5731 JUMP JUMPDEST DUP2 MSTORE PUSH0 PUSH1 0x20 DUP1 DUP4 ADD DUP3 SWAP1 MSTORE TIMESTAMP PUSH1 0x40 SWAP4 DUP5 ADD MSTORE DUP5 SLOAD PUSH1 0x1 DUP1 DUP3 ADD DUP8 SSTORE SWAP6 DUP4 MSTORE SWAP2 DUP2 SWAP1 KECCAK256 DUP5 MLOAD PUSH1 0x4 SWAP1 SWAP4 MUL ADD DUP1 SLOAD PUSH1 0x1 PUSH1 0x1 PUSH1 0xA0 SHL SUB NOT AND PUSH1 0x1 PUSH1 0x1 PUSH1 0xA0 SHL SUB SWAP1 SWAP4 AND SWAP3 SWAP1 SWAP3 OR DUP3 SSTORE DUP4 ADD MLOAD SWAP4 DUP2 ADD SWAP4 SWAP1 SWAP4 SSTORE DUP2 ADD MLOAD PUSH1 0x2 DUP1 DUP5 ADD SWAP2 SWAP1 SWAP2 SSTORE PUSH1 0x60 SWAP1 SWAP2 ADD MLOAD PUSH1 0x3 SWAP1 SWAP3 ADD SWAP2 SWAP1 SWAP2 SSTORE PUSH2 0x1D30 SWAP1 DUP4 PUSH2 0x5731 JUMP JUMPDEST CALLER PUSH0 SWAP1 DUP2 MSTORE PUSH1 0xD3 PUSH1 0x20 MSTORE PUSH1 0x40 DUP2 KECCAK256 DUP1 SLOAD SWAP1 SWAP2 SWAP1 PUSH2 0x1D4E SWAP1 DUP5 SWAP1 PUSH2 0x56F7 JUMP JUMPDEST SWAP1 SWAP2 SSTORE POP POP JUMPDEST PUSH2 0x1D5C PUSH2 0x2603 JUMP JUMPDEST PUSH2 0x1D64 PUSH2 0x3630 JUMP JUMPDEST POP POP POP JUMP JUMPDEST PUSH1 0x1 PUSH1 0x1 PUSH1 0xA0 SHL SUB PUSH32 0x0 AND ADDRESS SUB PUSH2 0x1DB1 JUMPI PUSH1 0x40 MLOAD PUSH3 0x461BCD PUSH1 0xE5 SHL DUP2 MSTORE PUSH1 0x4 ADD PUSH2 0xB51 SWAP1 PUSH2 0x5744 JUMP JUMPDEST PUSH32 0x0 PUSH1 0x1 PUSH1 0x1 PUSH1 0xA0 SHL SUB AND PUSH2 0x1DE3 PUSH2 0x4107 JUMP JUMPDEST PUSH1 0x1 PUSH1 0x1 PUSH1 0xA0 SHL SUB AND EQ PUSH2 0x1E09 JUMPI PUSH1 0x40 MLOAD PUSH3 0x461BCD PUSH1 0xE5 SHL DUP2 MSTORE PUSH1 0x4 ADD PUSH2 0xB51 SWAP1 PUSH2 0x577D JUMP JUMPDEST PUSH2 0x1E12 DUP3 PUSH2 0x4122 JUMP JUMPDEST PUSH2 0x1E1E DUP3 DUP3 PUSH1 0x1 PUSH2 0x412A JUMP JUMPDEST POP POP JUMP JUMPDEST PUSH1 0x60 PUSH0 PUSH2 0x1E2F DUP5 DUP5 PUSH2 0x570A JUMP JUMPDEST PUSH2 0x1E3A SWAP1 PUSH1 0x1 PUSH2 0x56F7 JUMP JUMPDEST SWAP1 POP DUP1 PUSH1 0x1 PUSH1 0x1 PUSH1 0x40 SHL SUB DUP2 GT ISZERO PUSH2 0x1E54 JUMPI PUSH2 0x1E54 PUSH2 0x538A JUMP JUMPDEST PUSH1 0x40 MLOAD SWAP1 DUP1 DUP3 MSTORE DUP1 PUSH1 0x20 MUL PUSH1 0x20 ADD DUP3 ADD PUSH1 0x40 MSTORE DUP1 ISZERO PUSH2 0x1E9D JUMPI DUP2 PUSH1 0x20 ADD JUMPDEST PUSH1 0x40 DUP1 MLOAD PUSH1 0x60 DUP2 ADD DUP3 MSTORE PUSH0 DUP1 DUP3 MSTORE PUSH1 0x20 DUP1 DUP4 ADD DUP3 SWAP1 MSTORE SWAP3 DUP3 ADD MSTORE DUP3 MSTORE PUSH0 NOT SWAP1 SWAP3 ADD SWAP2 ADD DUP2 PUSH2 0x1E72 JUMPI SWAP1 POP JUMPDEST POP SWAP2 POP PUSH0 JUMPDEST DUP2 DUP2 LT ISZERO PUSH2 0x1F3D JUMPI PUSH1 0xCA PUSH2 0x1EB6 DUP3 DUP8 PUSH2 0x56F7 JUMP JUMPDEST DUP2 SLOAD DUP2 LT PUSH2 0x1EC6 JUMPI PUSH2 0x1EC6 PUSH2 0x56CF JUMP JUMPDEST PUSH0 SWAP2 DUP3 MSTORE PUSH1 0x20 SWAP2 DUP3 SWAP1 KECCAK256 PUSH1 0x40 DUP1 MLOAD PUSH1 0x60 DUP2 ADD DUP3 MSTORE PUSH1 0x3 SWAP1 SWAP4 MUL SWAP1 SWAP2 ADD DUP1 SLOAD PUSH1 0x1 PUSH1 0x1 PUSH1 0xA0 SHL SUB SWAP1 DUP2 AND DUP5 MSTORE PUSH1 0x1 DUP3 ADD SLOAD AND SWAP4 DUP4 ADD SWAP4 SWAP1 SWAP4 MSTORE PUSH1 0x2 SWAP1 SWAP3 ADD SLOAD SWAP2 DUP2 ADD SWAP2 SWAP1 SWAP2 MSTORE DUP4 MLOAD DUP5 SWAP1 DUP4 SWAP1 DUP2 LT PUSH2 0x1F1F JUMPI PUSH2 0x1F1F PUSH2 0x56CF JUMP JUMPDEST PUSH1 0x20 MUL PUSH1 0x20 ADD ADD DUP2 SWAP1 MSTORE POP DUP1 DUP1 PUSH2 0x1F35 SWAP1 PUSH2 0x58BD JUMP JUMPDEST SWAP2 POP POP PUSH2 0x1EA2 JUMP JUMPDEST POP POP SWAP3 SWAP2 POP POP JUMP JUMPDEST PUSH0 ADDRESS PUSH1 0x1 PUSH1 0x1 PUSH1 0xA0 SHL SUB PUSH32 0x0 AND EQ PUSH2 0x1FDF JUMPI PUSH1 0x40 MLOAD PUSH3 0x461BCD PUSH1 0xE5 SHL DUP2 MSTORE PUSH1 0x20 PUSH1 0x4 DUP3 ADD MSTORE PUSH1 0x38 PUSH1 0x24 DUP3 ADD MSTORE PUSH32 0x555550535570677261646561626C653A206D757374206E6F742062652063616C PUSH1 0x44 DUP3 ADD MSTORE PUSH24 0x1B1959081D1A1C9BDD59DA0819195B1959D85D1958D85B1B PUSH1 0x42 SHL PUSH1 0x64 DUP3 ADD MSTORE PUSH1 0x84 ADD PUSH2 0xB51 JUMP JUMPDEST POP PUSH0 DUP1 MLOAD PUSH1 0x20 PUSH2 0x5BDB DUP4 CODECOPY DUP2 MLOAD SWAP2 MSTORE SWAP1 JUMP JUMPDEST PUSH1 0xC9 SLOAD PUSH1 0x1 PUSH1 0x1 PUSH1 0xA0 SHL SUB AND CALLER EQ PUSH2 0x201C JUMPI PUSH1 0x40 MLOAD PUSH4 0x37816CF PUSH1 0xE0 SHL DUP2 MSTORE PUSH1 0x4 ADD PUSH1 0x40 MLOAD DUP1 SWAP2 SUB SWAP1 REVERT JUMPDEST PUSH1 0x1 PUSH1 0x1 PUSH1 0xA0 SHL SUB DUP3 DUP2 AND PUSH0 SWAP1 DUP2 MSTORE PUSH1 0xCF PUSH1 0x20 MSTORE PUSH1 0x40 SWAP1 KECCAK256 SLOAD AND PUSH2 0x2053 JUMPI PUSH1 0x40 MLOAD PUSH4 0x936E3073 PUSH1 0xE0 SHL DUP2 MSTORE PUSH1 0x4 ADD PUSH1 0x40 MLOAD DUP1 SWAP2 SUB SWAP1 REVERT JUMPDEST PUSH1 0x1 PUSH1 0x1 PUSH1 0xA0 SHL SUB DUP3 DUP2 AND PUSH0 DUP2 DUP2 MSTORE PUSH1 0xD0 PUSH1 0x20 SWAP1 DUP2 MSTORE PUSH1 0x40 DUP1 DUP4 KECCAK256 PUSH1 0xCB DUP1 SLOAD DUP3 SLOAD PUSH1 0x1 DUP1 DUP3 ADD DUP6 SSTORE SWAP4 DUP8 MSTORE DUP6 DUP8 KECCAK256 ADD SSTORE DUP3 MLOAD PUSH1 0x80 DUP2 ADD DUP5 MSTORE SWAP6 DUP7 MSTORE DUP6 DUP5 ADD DUP9 DUP2 MSTORE TIMESTAMP DUP8 DUP6 ADD DUP2 DUP2 MSTORE PUSH1 0x60 DUP10 ADD SWAP2 DUP3 MSTORE DUP4 SLOAD DUP1 DUP7 ADD DUP6 SSTORE SWAP4 DUP9 MSTORE SWAP8 MLOAD PUSH0 DUP1 MLOAD PUSH1 0x20 PUSH2 0x5B7B DUP4 CODECOPY DUP2 MLOAD SWAP2 MSTORE PUSH1 0x4 SWAP1 SWAP5 MUL SWAP4 DUP5 ADD DUP1 SLOAD PUSH1 0x1 PUSH1 0x1 PUSH1 0xA0 SHL SUB NOT AND SWAP2 SWAP1 SWAP11 AND OR SWAP1 SWAP9 SSTORE MLOAD PUSH0 DUP1 MLOAD PUSH1 0x20 PUSH2 0x5B5B DUP4 CODECOPY DUP2 MLOAD SWAP2 MSTORE DUP3 ADD SSTORE SWAP5 MLOAD PUSH0 DUP1 MLOAD PUSH1 0x20 PUSH2 0x5B9B DUP4 CODECOPY DUP2 MLOAD SWAP2 MSTORE DUP7 ADD SSTORE SWAP5 MLOAD PUSH0 DUP1 MLOAD PUSH1 0x20 PUSH2 0x5C22 DUP4 CODECOPY DUP2 MLOAD SWAP2 MSTORE SWAP1 SWAP5 ADD SWAP4 SWAP1 SWAP4 SSTORE CALLER DUP3 MSTORE PUSH1 0xD1 SWAP1 MSTORE KECCAK256 DUP1 SLOAD PUSH1 0xFF NOT AND SWAP1 SWAP2 OR SWAP1 SSTORE PUSH2 0x212F PUSH2 0x44F5 JUMP JUMPDEST PUSH2 0x1E1E PUSH2 0x46C3 JUMP JUMPDEST PUSH2 0x213F PUSH2 0x5261 JUMP JUMPDEST PUSH1 0xCE DUP3 DUP2 SLOAD DUP2 LT PUSH2 0x2152 JUMPI PUSH2 0x2152 PUSH2 0x56CF JUMP JUMPDEST PUSH0 SWAP2 DUP3 MSTORE PUSH1 0x20 SWAP2 DUP3 SWAP1 KECCAK256 PUSH1 0x40 DUP1 MLOAD PUSH1 0x80 DUP2 ADD DUP3 MSTORE PUSH1 0x4 SWAP1 SWAP4 MUL SWAP1 SWAP2 ADD DUP1 SLOAD PUSH1 0x1 PUSH1 0x1 PUSH1 0xA0 SHL SUB AND DUP4 MSTORE PUSH1 0x1 DUP2 ADD SLOAD SWAP4 DUP4 ADD SWAP4 SWAP1 SWAP4 MSTORE PUSH1 0x2 DUP4 ADD SLOAD SWAP1 DUP3 ADD MSTORE PUSH1 0x3 SWAP1 SWAP2 ADD SLOAD PUSH1 0x60 DUP3 ADD MSTORE SWAP3 SWAP2 POP POP JUMP JUMPDEST PUSH2 0x21A9 PUSH2 0x40A8 JUMP JUMPDEST PUSH2 0x21B2 PUSH0 PUSH2 0x49C8 JUMP JUMPDEST JUMP JUMPDEST PUSH0 PUSH2 0x21BD PUSH2 0x42DB JUMP JUMPDEST SWAP1 POP SWAP1 JUMP JUMPDEST PUSH1 0x33 SLOAD PUSH1 0x1 PUSH1 0x1 PUSH1 0xA0 SHL SUB AND SWAP1 JUMP JUMPDEST PUSH2 0x21D9 PUSH2 0x35C5 JUMP JUMPDEST PUSH1 0x1 PUSH1 0x1 PUSH1 0xA0 SHL SUB AND PUSH4 0x23B872DD CALLER PUSH1 0x1 DUP5 PUSH1 0x40 MLOAD DUP5 PUSH4 0xFFFFFFFF AND PUSH1 0xE0 SHL DUP2 MSTORE PUSH1 0x4 ADD PUSH2 0x2209 SWAP4 SWAP3 SWAP2 SWAP1 PUSH2 0x5346 JUMP JUMPDEST PUSH1 0x20 PUSH1 0x40 MLOAD DUP1 DUP4 SUB DUP2 PUSH0 DUP8 GAS CALL ISZERO DUP1 ISZERO PUSH2 0x2225 JUMPI RETURNDATASIZE PUSH0 DUP1 RETURNDATACOPY RETURNDATASIZE PUSH0 REVERT JUMPDEST POP POP POP POP PUSH1 0x40 MLOAD RETURNDATASIZE PUSH1 0x1F NOT PUSH1 0x1F DUP3 ADD AND DUP3 ADD DUP1 PUSH1 0x40 MSTORE POP DUP2 ADD SWAP1 PUSH2 0x2249 SWAP2 SWAP1 PUSH2 0x57B6 JUMP JUMPDEST POP PUSH0 DUP1 PUSH2 0x2254 PUSH2 0x4467 JUMP JUMPDEST PUSH1 0x1 PUSH1 0x1 PUSH1 0xA0 SHL SUB AND PUSH4 0x902F1AC PUSH1 0x40 MLOAD DUP2 PUSH4 0xFFFFFFFF AND PUSH1 0xE0 SHL DUP2 MSTORE PUSH1 0x4 ADD PUSH1 0x60 PUSH1 0x40 MLOAD DUP1 DUP4 SUB DUP2 DUP7 GAS STATICCALL ISZERO DUP1 ISZERO PUSH2 0x228F JUMPI RETURNDATASIZE PUSH0 DUP1 RETURNDATACOPY RETURNDATASIZE PUSH0 REVERT JUMPDEST POP POP POP POP PUSH1 0x40 MLOAD RETURNDATASIZE PUSH1 0x1F NOT PUSH1 0x1F DUP3 ADD AND DUP3 ADD DUP1 PUSH1 0x40 MSTORE POP DUP2 ADD SWAP1 PUSH2 0x22B3 SWAP2 SWAP1 PUSH2 0x5852 JUMP JUMPDEST POP SWAP2 POP SWAP2 POP PUSH0 DUP1 PUSH2 0x22C2 PUSH2 0x4294 JUMP JUMPDEST PUSH1 0x1 PUSH1 0x1 PUSH1 0xA0 SHL SUB AND PUSH2 0x22D3 PUSH2 0x4467 JUMP JUMPDEST PUSH1 0x1 PUSH1 0x1 PUSH1 0xA0 SHL SUB AND PUSH4 0xDFE1681 PUSH1 0x40 MLOAD DUP2 PUSH4 0xFFFFFFFF AND PUSH1 0xE0 SHL DUP2 MSTORE PUSH1 0x4 ADD PUSH1 0x20 PUSH1 0x40 MLOAD DUP1 DUP4 SUB DUP2 DUP7 GAS STATICCALL ISZERO DUP1 ISZERO PUSH2 0x230E JUMPI RETURNDATASIZE PUSH0 DUP1 RETURNDATACOPY RETURNDATASIZE PUSH0 REVERT JUMPDEST POP POP POP POP PUSH1 0x40 MLOAD RETURNDATASIZE PUSH1 0x1F NOT PUSH1 0x1F DUP3 ADD AND DUP3 ADD DUP1 PUSH1 0x40 MSTORE POP DUP2 ADD SWAP1 PUSH2 0x2332 SWAP2 SWAP1 PUSH2 0x57D5 JUMP JUMPDEST PUSH1 0x1 PUSH1 0x1 PUSH1 0xA0 SHL SUB AND EQ PUSH2 0x2347 JUMPI DUP3 DUP5 PUSH2 0x234A JUMP JUMPDEST DUP4 DUP4 JUMPDEST SWAP2 POP SWAP2 POP PUSH0 PUSH2 0x2357 PUSH2 0x4467 JUMP JUMPDEST PUSH1 0x1 PUSH1 0x1 PUSH1 0xA0 SHL SUB AND PUSH4 0x54D50D4 DUP8 DUP5 DUP7 PUSH1 0x40 MLOAD DUP5 PUSH4 0xFFFFFFFF AND PUSH1 0xE0 SHL DUP2 MSTORE PUSH1 0x4 ADD PUSH2 0x2386 SWAP4 SWAP3 SWAP2 SWAP1 PUSH2 0x589E JUMP JUMPDEST PUSH1 0x20 PUSH1 0x40 MLOAD DUP1 DUP4 SUB DUP2 DUP7 GAS STATICCALL ISZERO DUP1 ISZERO PUSH2 0x23A1 JUMPI RETURNDATASIZE PUSH0 DUP1 RETURNDATACOPY RETURNDATASIZE PUSH0 REVERT JUMPDEST POP POP POP POP PUSH1 0x40 MLOAD RETURNDATASIZE PUSH1 0x1F NOT PUSH1 0x1F DUP3 ADD AND DUP3 ADD DUP1 PUSH1 0x40 MSTORE POP DUP2 ADD SWAP1 PUSH2 0x23C5 SWAP2 SWAP1 PUSH2 0x57F0 JUMP JUMPDEST SWAP1 POP PUSH0 DUP4 PUSH1 0x1 PUSH1 0x1 PUSH1 0x70 SHL SUB AND DUP3 DUP5 PUSH1 0x1 PUSH1 0x1 PUSH1 0x70 SHL SUB AND PUSH2 0x23E7 SWAP2 SWAP1 PUSH2 0x5807 JUMP JUMPDEST PUSH2 0x23F1 SWAP2 SWAP1 PUSH2 0x5731 JUMP JUMPDEST SWAP1 POP PUSH0 DUP1 PUSH2 0x23FD PUSH2 0x4294 JUMP JUMPDEST PUSH1 0x1 PUSH1 0x1 PUSH1 0xA0 SHL SUB AND PUSH2 0x240E PUSH2 0x4467 JUMP JUMPDEST PUSH1 0x1 PUSH1 0x1 PUSH1 0xA0 SHL SUB AND PUSH4 0xDFE1681 PUSH1 0x40 MLOAD DUP2 PUSH4 0xFFFFFFFF AND PUSH1 0xE0 SHL DUP2 MSTORE PUSH1 0x4 ADD PUSH1 0x20 PUSH1 0x40 MLOAD DUP1 DUP4 SUB DUP2 DUP7 GAS STATICCALL ISZERO DUP1 ISZERO PUSH2 0x2449 JUMPI RETURNDATASIZE PUSH0 DUP1 RETURNDATACOPY RETURNDATASIZE PUSH0 REVERT JUMPDEST POP POP POP POP PUSH1 0x40 MLOAD RETURNDATASIZE PUSH1 0x1F NOT PUSH1 0x1F DUP3 ADD AND DUP3 ADD DUP1 PUSH1 0x40 MSTORE POP DUP2 ADD SWAP1 PUSH2 0x246D SWAP2 SWAP1 PUSH2 0x57D5 JUMP JUMPDEST PUSH1 0x1 PUSH1 0x1 PUSH1 0xA0 SHL SUB AND EQ PUSH2 0x2482 JUMPI DUP3 DUP5 PUSH2 0x2485 JUMP JUMPDEST DUP4 DUP4 JUMPDEST SWAP2 POP SWAP2 POP PUSH2 0x2491 PUSH2 0x4467 JUMP JUMPDEST PUSH1 0x40 MLOAD PUSH4 0xE840427D PUSH1 0xE0 SHL DUP2 MSTORE PUSH1 0x4 DUP2 ADD DUP5 SWAP1 MSTORE PUSH1 0x24 DUP2 ADD DUP4 SWAP1 MSTORE ADDRESS PUSH1 0x44 DUP3 ADD MSTORE PUSH1 0x1 PUSH1 0x1 PUSH1 0xA0 SHL SUB SWAP2 SWAP1 SWAP2 AND SWAP1 PUSH4 0xE840427D SWAP1 PUSH1 0x64 ADD PUSH0 PUSH1 0x40 MLOAD DUP1 DUP4 SUB DUP2 PUSH0 DUP8 DUP1 EXTCODESIZE ISZERO DUP1 ISZERO PUSH2 0x24DF JUMPI PUSH0 DUP1 REVERT JUMPDEST POP GAS CALL ISZERO DUP1 ISZERO PUSH2 0x24F1 JUMPI RETURNDATASIZE PUSH0 DUP1 RETURNDATACOPY RETURNDATASIZE PUSH0 REVERT JUMPDEST POP POP POP POP PUSH2 0x24FD PUSH2 0x4294 JUMP JUMPDEST PUSH1 0x1 PUSH1 0x1 PUSH1 0xA0 SHL SUB AND PUSH4 0xA9059CBB CALLER DUP7 PUSH1 0x40 MLOAD DUP4 PUSH4 0xFFFFFFFF AND PUSH1 0xE0 SHL DUP2 MSTORE PUSH1 0x4 ADD PUSH2 0x252A SWAP3 SWAP2 SWAP1 PUSH2 0x581E JUMP JUMPDEST PUSH1 0x20 PUSH1 0x40 MLOAD DUP1 DUP4 SUB DUP2 PUSH0 DUP8 GAS CALL ISZERO DUP1 ISZERO PUSH2 0x2546 JUMPI RETURNDATASIZE PUSH0 DUP1 RETURNDATACOPY RETURNDATASIZE PUSH0 REVERT JUMPDEST POP POP POP POP PUSH1 0x40 MLOAD RETURNDATASIZE PUSH1 0x1F NOT PUSH1 0x1F DUP3 ADD AND DUP3 ADD DUP1 PUSH1 0x40 MSTORE POP DUP2 ADD SWAP1 PUSH2 0x256A SWAP2 SWAP1 PUSH2 0x57B6 JUMP JUMPDEST POP PUSH2 0x2573 PUSH2 0x35C5 JUMP JUMPDEST PUSH1 0x1 PUSH1 0x1 PUSH1 0xA0 SHL SUB AND PUSH4 0xA9059CBB PUSH2 0x2589 PUSH2 0x44AE JUMP JUMPDEST DUP6 PUSH1 0x40 MLOAD DUP4 PUSH4 0xFFFFFFFF AND PUSH1 0xE0 SHL DUP2 MSTORE PUSH1 0x4 ADD PUSH2 0x25A7 SWAP3 SWAP2 SWAP1 PUSH2 0x581E JUMP JUMPDEST PUSH1 0x20 PUSH1 0x40 MLOAD DUP1 DUP4 SUB DUP2 PUSH0 DUP8 GAS CALL ISZERO DUP1 ISZERO PUSH2 0x25C3 JUMPI RETURNDATASIZE PUSH0 DUP1 RETURNDATACOPY RETURNDATASIZE PUSH0 REVERT JUMPDEST POP POP POP POP PUSH1 0x40 MLOAD RETURNDATASIZE PUSH1 0x1F NOT PUSH1 0x1F DUP3 ADD AND DUP3 ADD DUP1 PUSH1 0x40 MSTORE POP DUP2 ADD SWAP1 PUSH2 0x25E7 SWAP2 SWAP1 PUSH2 0x57B6 JUMP JUMPDEST POP PUSH2 0x25F0 PUSH2 0x2603 JUMP JUMPDEST PUSH2 0x25F8 PUSH2 0x3630 JUMP JUMPDEST POP POP POP POP POP POP POP POP POP JUMP JUMPDEST PUSH0 PUSH2 0x260C PUSH2 0x35C5 JUMP JUMPDEST PUSH1 0x1 PUSH1 0x1 PUSH1 0xA0 SHL SUB AND PUSH4 0x70A08231 PUSH2 0x2622 PUSH2 0x44AE JUMP JUMPDEST PUSH1 0x40 MLOAD DUP3 PUSH4 0xFFFFFFFF AND PUSH1 0xE0 SHL DUP2 MSTORE PUSH1 0x4 ADD PUSH2 0x263E SWAP2 SWAP1 PUSH2 0x5542 JUMP JUMPDEST PUSH1 0x20 PUSH1 0x40 MLOAD DUP1 DUP4 SUB DUP2 DUP7 GAS STATICCALL ISZERO DUP1 ISZERO PUSH2 0x2659 JUMPI RETURNDATASIZE PUSH0 DUP1 RETURNDATACOPY RETURNDATASIZE PUSH0 REVERT JUMPDEST POP POP POP POP PUSH1 0x40 MLOAD RETURNDATASIZE PUSH1 0x1F NOT PUSH1 0x1F DUP3 ADD AND DUP3 ADD DUP1 PUSH1 0x40 MSTORE POP DUP2 ADD SWAP1 PUSH2 0x267D SWAP2 SWAP1 PUSH2 0x57F0 JUMP JUMPDEST SWAP1 POP PUSH0 PUSH2 0x2688 PUSH2 0x35C5 JUMP JUMPDEST PUSH1 0x1 PUSH1 0x1 PUSH1 0xA0 SHL SUB AND PUSH4 0x70A08231 PUSH2 0x269E PUSH2 0x4467 JUMP JUMPDEST PUSH1 0x40 MLOAD DUP3 PUSH4 0xFFFFFFFF AND PUSH1 0xE0 SHL DUP2 MSTORE PUSH1 0x4 ADD PUSH2 0x26BA SWAP2 SWAP1 PUSH2 0x5542 JUMP JUMPDEST PUSH1 0x20 PUSH1 0x40 MLOAD DUP1 DUP4 SUB DUP2 DUP7 GAS STATICCALL ISZERO DUP1 ISZERO PUSH2 0x26D5 JUMPI RETURNDATASIZE PUSH0 DUP1 RETURNDATACOPY RETURNDATASIZE PUSH0 REVERT JUMPDEST POP POP POP POP PUSH1 0x40 MLOAD RETURNDATASIZE PUSH1 0x1F NOT PUSH1 0x1F DUP3 ADD AND DUP3 ADD DUP1 PUSH1 0x40 MSTORE POP DUP2 ADD SWAP1 PUSH2 0x26F9 SWAP2 SWAP1 PUSH2 0x57F0 JUMP JUMPDEST SWAP1 POP PUSH2 0x3E8 PUSH2 0x2709 DUP4 PUSH1 0x32 PUSH2 0x5807 JUMP JUMPDEST PUSH2 0x2713 SWAP2 SWAP1 PUSH2 0x5731 JUMP JUMPDEST PUSH2 0x271D SWAP1 DUP4 PUSH2 0x56F7 JUMP JUMPDEST DUP2 GT PUSH2 0x2727 JUMPI POP POP JUMP JUMPDEST PUSH0 DUP1 PUSH2 0x2731 PUSH2 0x4467 JUMP JUMPDEST PUSH1 0x1 PUSH1 0x1 PUSH1 0xA0 SHL SUB AND PUSH4 0x902F1AC PUSH1 0x40 MLOAD DUP2 PUSH4 0xFFFFFFFF AND PUSH1 0xE0 SHL DUP2 MSTORE PUSH1 0x4 ADD PUSH1 0x60 PUSH1 0x40 MLOAD DUP1 DUP4 SUB DUP2 DUP7 GAS STATICCALL ISZERO DUP1 ISZERO PUSH2 0x276C JUMPI RETURNDATASIZE PUSH0 DUP1 RETURNDATACOPY RETURNDATASIZE PUSH0 REVERT JUMPDEST POP POP POP POP PUSH1 0x40 MLOAD RETURNDATASIZE PUSH1 0x1F NOT PUSH1 0x1F DUP3 ADD AND DUP3 ADD DUP1 PUSH1 0x40 MSTORE POP DUP2 ADD SWAP1 PUSH2 0x2790 SWAP2 SWAP1 PUSH2 0x5852 JUMP JUMPDEST POP SWAP2 POP SWAP2 POP PUSH2 0x279D PUSH2 0x4467 JUMP JUMPDEST PUSH1 0x1 PUSH1 0x1 PUSH1 0xA0 SHL SUB AND PUSH4 0xE840427D PUSH2 0x3E8 PUSH2 0x27B9 DUP6 PUSH1 0xA PUSH2 0x58D5 JUMP JUMPDEST PUSH2 0x27C3 SWAP2 SWAP1 PUSH2 0x58F8 JUMP JUMPDEST PUSH2 0x3E8 PUSH2 0x27D1 DUP6 PUSH1 0xA PUSH2 0x58D5 JUMP JUMPDEST PUSH2 0x27DB SWAP2 SWAP1 PUSH2 0x58F8 JUMP JUMPDEST ADDRESS PUSH1 0x40 MLOAD DUP5 PUSH4 0xFFFFFFFF AND PUSH1 0xE0 SHL DUP2 MSTORE PUSH1 0x4 ADD PUSH2 0x27FA SWAP4 SWAP3 SWAP2 SWAP1 PUSH2 0x591D JUMP JUMPDEST PUSH0 PUSH1 0x40 MLOAD DUP1 DUP4 SUB DUP2 PUSH0 DUP8 DUP1 EXTCODESIZE ISZERO DUP1 ISZERO PUSH2 0x2811 JUMPI PUSH0 DUP1 REVERT JUMPDEST POP GAS CALL ISZERO DUP1 ISZERO PUSH2 0x2823 JUMPI RETURNDATASIZE PUSH0 DUP1 RETURNDATACOPY RETURNDATASIZE PUSH0 REVERT JUMPDEST POP POP POP POP PUSH0 DUP1 PUSH2 0x2831 PUSH2 0x4294 JUMP JUMPDEST PUSH1 0x1 PUSH1 0x1 PUSH1 0xA0 SHL SUB AND PUSH2 0x2842 PUSH2 0x4467 JUMP JUMPDEST PUSH1 0x1 PUSH1 0x1 PUSH1 0xA0 SHL SUB AND PUSH4 0xDFE1681 PUSH1 0x40 MLOAD DUP2 PUSH4 0xFFFFFFFF AND PUSH1 0xE0 SHL DUP2 MSTORE PUSH1 0x4 ADD PUSH1 0x20 PUSH1 0x40 MLOAD DUP1 DUP4 SUB DUP2 DUP7 GAS STATICCALL ISZERO DUP1 ISZERO PUSH2 0x287D JUMPI RETURNDATASIZE PUSH0 DUP1 RETURNDATACOPY RETURNDATASIZE PUSH0 REVERT JUMPDEST POP POP POP POP PUSH1 0x40 MLOAD RETURNDATASIZE PUSH1 0x1F NOT PUSH1 0x1F DUP3 ADD AND DUP3 ADD DUP1 PUSH1 0x40 MSTORE POP DUP2 ADD SWAP1 PUSH2 0x28A1 SWAP2 SWAP1 PUSH2 0x57D5 JUMP JUMPDEST PUSH1 0x1 PUSH1 0x1 PUSH1 0xA0 SHL SUB AND EQ PUSH2 0x28B6 JUMPI DUP3 DUP5 PUSH2 0x28B9 JUMP JUMPDEST DUP4 DUP4 JUMPDEST SWAP2 POP SWAP2 POP PUSH2 0x28C5 PUSH2 0x35C5 JUMP JUMPDEST PUSH1 0x1 PUSH1 0x1 PUSH1 0xA0 SHL SUB AND PUSH4 0xA9059CBB PUSH2 0x28DB PUSH2 0x44AE JUMP JUMPDEST PUSH2 0x3E8 PUSH2 0x28E9 DUP6 PUSH1 0xA PUSH2 0x58D5 JUMP JUMPDEST PUSH2 0x28F3 SWAP2 SWAP1 PUSH2 0x58F8 JUMP JUMPDEST PUSH1 0x40 MLOAD DUP4 PUSH4 0xFFFFFFFF AND PUSH1 0xE0 SHL DUP2 MSTORE PUSH1 0x4 ADD PUSH2 0x2910 SWAP3 SWAP2 SWAP1 PUSH2 0x5949 JUMP JUMPDEST PUSH1 0x20 PUSH1 0x40 MLOAD DUP1 DUP4 SUB DUP2 PUSH0 DUP8 GAS CALL ISZERO DUP1 ISZERO PUSH2 0x292C JUMPI RETURNDATASIZE PUSH0 DUP1 RETURNDATACOPY RETURNDATASIZE PUSH0 REVERT JUMPDEST POP POP POP POP PUSH1 0x40 MLOAD RETURNDATASIZE PUSH1 0x1F NOT PUSH1 0x1F DUP3 ADD AND DUP3 ADD DUP1 PUSH1 0x40 MSTORE POP DUP2 ADD SWAP1 PUSH2 0x2950 SWAP2 SWAP1 PUSH2 0x57B6 JUMP JUMPDEST POP PUSH2 0x2959 PUSH2 0x4294 JUMP JUMPDEST PUSH1 0x1 PUSH1 0x1 PUSH1 0xA0 SHL SUB AND PUSH4 0x95EA7B3 PUSH2 0x296F PUSH2 0x4467 JUMP JUMPDEST PUSH2 0x3E8 PUSH2 0x297D DUP7 PUSH1 0xA PUSH2 0x58D5 JUMP JUMPDEST PUSH2 0x2987 SWAP2 SWAP1 PUSH2 0x58F8 JUMP JUMPDEST PUSH1 0x40 MLOAD DUP4 PUSH4 0xFFFFFFFF AND PUSH1 0xE0 SHL DUP2 MSTORE PUSH1 0x4 ADD PUSH2 0x29A4 SWAP3 SWAP2 SWAP1 PUSH2 0x5949 JUMP JUMPDEST PUSH1 0x20 PUSH1 0x40 MLOAD DUP1 DUP4 SUB DUP2 PUSH0 DUP8 GAS CALL ISZERO DUP1 ISZERO PUSH2 0x29C0 JUMPI RETURNDATASIZE PUSH0 DUP1 RETURNDATACOPY RETURNDATASIZE PUSH0 REVERT JUMPDEST POP POP POP POP PUSH1 0x40 MLOAD RETURNDATASIZE PUSH1 0x1F NOT PUSH1 0x1F DUP3 ADD AND DUP3 ADD DUP1 PUSH1 0x40 MSTORE POP DUP2 ADD SWAP1 PUSH2 0x29E4 SWAP2 SWAP1 PUSH2 0x57B6 JUMP JUMPDEST POP PUSH2 0x29ED PUSH2 0x4467 JUMP JUMPDEST PUSH1 0x1 PUSH1 0x1 PUSH1 0xA0 SHL SUB AND PUSH4 0xA1E15411 PUSH2 0x2A03 PUSH2 0x4294 JUMP JUMPDEST PUSH2 0x2A0B PUSH2 0x44AE JUMP JUMPDEST PUSH2 0x3E8 PUSH2 0x2A19 DUP8 PUSH1 0xA PUSH2 0x58D5 JUMP JUMPDEST PUSH2 0x2A23 SWAP2 SWAP1 PUSH2 0x58F8 JUMP JUMPDEST PUSH1 0x40 MLOAD DUP5 PUSH4 0xFFFFFFFF AND PUSH1 0xE0 SHL DUP2 MSTORE PUSH1 0x4 ADD PUSH2 0x2A41 SWAP4 SWAP3 SWAP2 SWAP1 PUSH2 0x596B JUMP JUMPDEST PUSH1 0x20 PUSH1 0x40 MLOAD DUP1 DUP4 SUB DUP2 PUSH0 DUP8 GAS CALL ISZERO DUP1 ISZERO PUSH2 0x2A5D JUMPI RETURNDATASIZE PUSH0 DUP1 RETURNDATACOPY RETURNDATASIZE PUSH0 REVERT JUMPDEST POP POP POP POP PUSH1 0x40 MLOAD RETURNDATASIZE PUSH1 0x1F NOT PUSH1 0x1F DUP3 ADD AND DUP3 ADD DUP1 PUSH1 0x40 MSTORE POP DUP2 ADD SWAP1 PUSH2 0x2A81 SWAP2 SWAP1 PUSH2 0x57F0 JUMP JUMPDEST POP POP POP POP POP POP POP JUMP JUMPDEST PUSH2 0x2A92 PUSH2 0x5261 JUMP JUMPDEST PUSH1 0xCD DUP3 DUP2 SLOAD DUP2 LT PUSH2 0x2152 JUMPI PUSH2 0x2152 PUSH2 0x56CF JUMP JUMPDEST PUSH1 0xD0 PUSH1 0x20 MSTORE DUP2 PUSH0 MSTORE PUSH1 0x40 PUSH0 KECCAK256 DUP2 DUP2 SLOAD DUP2 LT PUSH2 0x2ABE JUMPI PUSH0 DUP1 REVERT JUMPDEST SWAP1 PUSH0 MSTORE PUSH1 0x20 PUSH0 KECCAK256 ADD PUSH0 SWAP2 POP SWAP2 POP POP SLOAD DUP2 JUMP JUMPDEST PUSH0 SLOAD PUSH2 0x100 SWAP1 DIV PUSH1 0xFF AND ISZERO DUP1 DUP1 ISZERO PUSH2 0x2AEE JUMPI POP PUSH0 SLOAD PUSH1 0x1 PUSH1 0xFF SWAP1 SWAP2 AND LT JUMPDEST DUP1 PUSH2 0x2B0E JUMPI POP PUSH2 0x2AFD ADDRESS PUSH2 0x4A19 JUMP JUMPDEST ISZERO DUP1 ISZERO PUSH2 0x2B0E JUMPI POP PUSH0 SLOAD PUSH1 0xFF AND PUSH1 0x1 EQ JUMPDEST PUSH2 0x2B71 JUMPI PUSH1 0x40 MLOAD PUSH3 0x461BCD PUSH1 0xE5 SHL DUP2 MSTORE PUSH1 0x20 PUSH1 0x4 DUP3 ADD MSTORE PUSH1 0x2E PUSH1 0x24 DUP3 ADD MSTORE PUSH32 0x496E697469616C697A61626C653A20636F6E747261637420697320616C726561 PUSH1 0x44 DUP3 ADD MSTORE PUSH14 0x191E481A5B9A5D1A585B1A5E9959 PUSH1 0x92 SHL PUSH1 0x64 DUP3 ADD MSTORE PUSH1 0x84 ADD PUSH2 0xB51 JUMP JUMPDEST PUSH0 DUP1 SLOAD PUSH1 0xFF NOT AND PUSH1 0x1 OR SWAP1 SSTORE DUP1 ISZERO PUSH2 0x2B92 JUMPI PUSH0 DUP1 SLOAD PUSH2 0xFF00 NOT AND PUSH2 0x100 OR SWAP1 SSTORE JUMPDEST PUSH2 0x2B9A PUSH2 0x4A28 JUMP JUMPDEST PUSH1 0xC9 DUP1 SLOAD PUSH1 0x1 PUSH1 0x1 PUSH1 0xA0 SHL SUB NOT AND PUSH1 0x1 PUSH1 0x1 PUSH1 0xA0 SHL SUB DUP5 AND SWAP1 DUP2 OR SWAP1 SWAP2 SSTORE PUSH1 0x40 DUP1 MLOAD PUSH1 0x60 DUP2 ADD DUP1 DUP4 MSTORE PUSH4 0x7F36E6DD PUSH1 0xE1 SHL SWAP1 MSTORE SWAP1 MLOAD PUSH1 0xCA SWAP3 DUP3 SWAP2 PUSH4 0xFE6DCDBA SWAP1 PUSH1 0x64 DUP1 DUP6 ADD SWAP2 PUSH1 0x20 SWAP2 DUP2 DUP8 SUB ADD DUP2 DUP7 GAS STATICCALL ISZERO DUP1 ISZERO PUSH2 0x2BFA JUMPI RETURNDATASIZE PUSH0 DUP1 RETURNDATACOPY RETURNDATASIZE PUSH0 REVERT JUMPDEST POP POP POP POP PUSH1 0x40 MLOAD RETURNDATASIZE PUSH1 0x1F NOT PUSH1 0x1F DUP3 ADD AND DUP3 ADD DUP1 PUSH1 0x40 MSTORE POP DUP2 ADD SWAP1 PUSH2 0x2C1E SWAP2 SWAP1 PUSH2 0x57D5 JUMP JUMPDEST PUSH1 0x1 PUSH1 0x1 PUSH1 0xA0 SHL SUB SWAP1 DUP2 AND DUP3 MSTORE PUSH0 PUSH1 0x20 DUP1 DUP5 ADD DUP3 SWAP1 MSTORE TIMESTAMP PUSH1 0x40 SWAP5 DUP6 ADD MSTORE DUP6 SLOAD PUSH1 0x1 DUP2 DUP2 ADD DUP9 SSTORE SWAP7 DUP4 MSTORE SWAP2 DUP2 SWAP1 KECCAK256 DUP6 MLOAD PUSH1 0x3 SWAP1 SWAP4 MUL ADD DUP1 SLOAD SWAP3 DUP5 AND PUSH1 0x1 PUSH1 0x1 PUSH1 0xA0 SHL SUB NOT SWAP4 DUP5 AND OR DUP2 SSTORE SWAP1 DUP6 ADD MLOAD SWAP6 DUP2 ADD DUP1 SLOAD SWAP7 SWAP1 SWAP4 AND SWAP6 SWAP1 SWAP2 AND SWAP5 SWAP1 SWAP5 OR SWAP1 SSTORE ADD MLOAD PUSH1 0x2 SWAP1 SWAP2 ADD SSTORE DUP1 ISZERO PUSH2 0x1E1E JUMPI PUSH0 DUP1 SLOAD PUSH2 0xFF00 NOT AND SWAP1 SSTORE PUSH1 0x40 MLOAD PUSH1 0x1 DUP2 MSTORE PUSH32 0x7F26B83FF96E1F2B6A682F133852F6798A09C465DA95921460CEFB3847402498 SWAP1 PUSH1 0x20 ADD PUSH1 0x40 MLOAD DUP1 SWAP2 SUB SWAP1 LOG1 POP POP JUMP JUMPDEST PUSH2 0x2CFD PUSH1 0x40 MLOAD DUP1 PUSH1 0xA0 ADD PUSH1 0x40 MSTORE DUP1 PUSH0 DUP2 MSTORE PUSH1 0x20 ADD PUSH0 DUP2 MSTORE PUSH1 0x20 ADD PUSH0 DUP2 MSTORE PUSH1 0x20 ADD PUSH0 DUP2 MSTORE PUSH1 0x20 ADD PUSH0 ISZERO ISZERO DUP2 MSTORE POP SWAP1 JUMP JUMPDEST PUSH1 0x1 PUSH1 0x1 PUSH1 0xA0 SHL SUB DUP3 AND PUSH0 SWAP1 DUP2 MSTORE PUSH1 0xD0 PUSH1 0x20 SWAP1 DUP2 MSTORE PUSH1 0x40 DUP1 DUP4 KECCAK256 DUP1 SLOAD DUP3 MLOAD DUP2 DUP6 MUL DUP2 ADD DUP6 ADD SWAP1 SWAP4 MSTORE DUP1 DUP4 MSTORE SWAP2 SWAP3 SWAP1 SWAP2 SWAP1 DUP4 ADD DUP3 DUP3 DUP1 ISZERO PUSH2 0x2D5A JUMPI PUSH1 0x20 MUL DUP3 ADD SWAP2 SWAP1 PUSH0 MSTORE PUSH1 0x20 PUSH0 KECCAK256 SWAP1 JUMPDEST DUP2 SLOAD DUP2 MSTORE PUSH1 0x20 ADD SWAP1 PUSH1 0x1 ADD SWAP1 DUP1 DUP4 GT PUSH2 0x2D46 JUMPI JUMPDEST POP POP POP POP POP SWAP1 POP PUSH0 DUP1 PUSH2 0x2D6B PUSH2 0x42DB JUMP JUMPDEST SWAP1 POP PUSH1 0x1 PUSH0 JUMPDEST DUP5 MLOAD DUP2 LT ISZERO PUSH2 0x2F28 JUMPI PUSH0 PUSH1 0xCB DUP7 DUP4 DUP2 MLOAD DUP2 LT PUSH2 0x2D8F JUMPI PUSH2 0x2D8F PUSH2 0x56CF JUMP JUMPDEST PUSH1 0x20 MUL PUSH1 0x20 ADD ADD MLOAD DUP2 SLOAD DUP2 LT PUSH2 0x2DA7 JUMPI PUSH2 0x2DA7 PUSH2 0x56CF JUMP JUMPDEST PUSH0 SWAP2 DUP3 MSTORE PUSH1 0x20 SWAP2 DUP3 SWAP1 KECCAK256 PUSH1 0x40 DUP1 MLOAD PUSH1 0x80 DUP2 ADD DUP3 MSTORE PUSH1 0x4 SWAP4 DUP5 MUL SWAP1 SWAP3 ADD DUP1 SLOAD PUSH1 0x1 PUSH1 0x1 PUSH1 0xA0 SHL SUB SWAP1 DUP2 AND DUP5 MSTORE PUSH1 0x1 DUP3 ADD SLOAD DUP5 DUP8 ADD MSTORE PUSH1 0x2 DUP3 ADD SLOAD DUP5 DUP5 ADD MSTORE PUSH1 0x3 SWAP1 SWAP2 ADD SLOAD PUSH1 0x60 DUP5 ADD MSTORE PUSH1 0xC9 SLOAD DUP3 MLOAD PUSH4 0x5A19D09 PUSH1 0xE1 SHL DUP2 MSTORE SWAP3 MLOAD SWAP4 SWAP7 POP AND SWAP4 PUSH4 0xB433A12 SWAP4 DUP3 DUP2 ADD SWAP4 SWAP2 SWAP3 DUP3 SWAP1 SUB ADD DUP2 DUP7 GAS STATICCALL ISZERO DUP1 ISZERO PUSH2 0x2E28 JUMPI RETURNDATASIZE PUSH0 DUP1 RETURNDATACOPY RETURNDATASIZE PUSH0 REVERT JUMPDEST POP POP POP POP PUSH1 0x40 MLOAD RETURNDATASIZE PUSH1 0x1F NOT PUSH1 0x1F DUP3 ADD AND DUP3 ADD DUP1 PUSH1 0x40 MSTORE POP DUP2 ADD SWAP1 PUSH2 0x2E4C SWAP2 SWAP1 PUSH2 0x57F0 JUMP JUMPDEST PUSH1 0x60 DUP3 ADD MLOAD PUSH2 0x2E5B SWAP1 TIMESTAMP PUSH2 0x570A JUMP JUMPDEST GT PUSH2 0x2E64 JUMPI PUSH0 SWAP3 POP JUMPDEST PUSH0 PUSH2 0x2E6D PUSH2 0x495D JUMP JUMPDEST DUP3 PUSH1 0x40 ADD MLOAD PUSH2 0x2E7C SWAP2 SWAP1 PUSH2 0x56F7 JUMP JUMPDEST TIMESTAMP LT PUSH2 0x2E9E JUMPI PUSH2 0x2E8A PUSH2 0x495D JUMP JUMPDEST DUP3 PUSH1 0x40 ADD MLOAD PUSH2 0x2E99 SWAP2 SWAP1 PUSH2 0x56F7 JUMP JUMPDEST PUSH2 0x2EA0 JUMP JUMPDEST TIMESTAMP JUMPDEST SWAP1 POP DUP2 PUSH1 0x60 ADD MLOAD DUP2 GT PUSH2 0x2EB4 JUMPI POP POP PUSH2 0x2F18 JUMP JUMPDEST DUP5 PUSH3 0x15180 PUSH1 0x64 DUP5 PUSH1 0x20 ADD MLOAD PUSH2 0x2ECA SWAP2 SWAP1 PUSH2 0x5731 JUMP JUMPDEST PUSH2 0x2ED4 SWAP2 SWAP1 PUSH2 0x5731 JUMP JUMPDEST PUSH1 0x60 DUP5 ADD MLOAD PUSH2 0x2EE3 SWAP1 DUP5 PUSH2 0x570A JUMP JUMPDEST PUSH2 0x2EED SWAP2 SWAP1 PUSH2 0x5807 JUMP JUMPDEST PUSH2 0x2EF7 SWAP2 SWAP1 PUSH2 0x5731 JUMP JUMPDEST PUSH2 0x2F09 SWAP1 PUSH8 0xDE0B6B3A7640000 PUSH2 0x5807 JUMP JUMPDEST PUSH2 0x2F13 SWAP1 DUP8 PUSH2 0x56F7 JUMP JUMPDEST SWAP6 POP POP POP JUMPDEST PUSH2 0x2F21 DUP2 PUSH2 0x58BD JUMP JUMPDEST SWAP1 POP PUSH2 0x2D71 JUMP JUMPDEST POP PUSH1 0x40 MLOAD DUP1 PUSH1 0xA0 ADD PUSH1 0x40 MSTORE DUP1 PUSH1 0x2 DUP6 PUSH2 0x2F41 SWAP2 SWAP1 PUSH2 0x5731 JUMP JUMPDEST DUP2 MSTORE PUSH1 0x20 ADD PUSH2 0x2F51 PUSH1 0x2 DUP7 PUSH2 0x5731 JUMP JUMPDEST DUP2 MSTORE PUSH1 0x1 PUSH1 0x1 PUSH1 0xA0 SHL SUB SWAP1 SWAP8 AND PUSH0 DUP2 DUP2 MSTORE PUSH1 0xD3 PUSH1 0x20 DUP2 DUP2 MSTORE PUSH1 0x40 DUP1 DUP5 KECCAK256 SLOAD DUP3 DUP14 ADD DUP2 SWAP1 MSTORE SWAP5 SWAP1 SWAP4 MSTORE MSTORE DUP9 ADD MSTORE SWAP1 ISZERO ISZERO PUSH1 0x60 SWAP1 SWAP7 ADD SWAP6 SWAP1 SWAP6 MSTORE POP SWAP3 SWAP4 SWAP3 POP POP POP JUMP JUMPDEST PUSH1 0xDA DUP2 DUP2 SLOAD DUP2 LT PUSH2 0xAD6 JUMPI PUSH0 DUP1 REVERT JUMPDEST PUSH1 0xCC DUP2 DUP2 SLOAD DUP2 LT PUSH2 0xAD6 JUMPI PUSH0 DUP1 REVERT JUMPDEST PUSH1 0x60 PUSH0 PUSH2 0x2FBD DUP5 DUP5 PUSH2 0x570A JUMP JUMPDEST PUSH2 0x2FC8 SWAP1 PUSH1 0x1 PUSH2 0x56F7 JUMP JUMPDEST SWAP1 POP DUP1 PUSH1 0x1 PUSH1 0x1 PUSH1 0x40 SHL SUB DUP2 GT ISZERO PUSH2 0x2FE2 JUMPI PUSH2 0x2FE2 PUSH2 0x538A JUMP JUMPDEST PUSH1 0x40 MLOAD SWAP1 DUP1 DUP3 MSTORE DUP1 PUSH1 0x20 MUL PUSH1 0x20 ADD DUP3 ADD PUSH1 0x40 MSTORE DUP1 ISZERO PUSH2 0x3043 JUMPI DUP2 PUSH1 0x20 ADD JUMPDEST PUSH2 0x3030 PUSH1 0x40 MLOAD DUP1 PUSH1 0x80 ADD PUSH1 0x40 MSTORE DUP1 PUSH0 PUSH1 0x1 PUSH1 0x1 PUSH1 0xA0 SHL SUB AND DUP2 MSTORE PUSH1 0x20 ADD PUSH0 DUP2 MSTORE PUSH1 0x20 ADD PUSH0 DUP2 MSTORE PUSH1 0x20 ADD PUSH0 DUP2 MSTORE POP SWAP1 JUMP JUMPDEST DUP2 MSTORE PUSH1 0x20 ADD SWAP1 PUSH1 0x1 SWAP1 SUB SWAP1 DUP2 PUSH2 0x3000 JUMPI SWAP1 POP JUMPDEST POP SWAP2 POP PUSH0 JUMPDEST DUP2 DUP2 LT ISZERO PUSH2 0x1F3D JUMPI PUSH1 0xCC PUSH2 0x305C DUP3 DUP8 PUSH2 0x56F7 JUMP JUMPDEST DUP2 SLOAD DUP2 LT PUSH2 0x306C JUMPI PUSH2 0x306C PUSH2 0x56CF JUMP JUMPDEST PUSH0 SWAP2 DUP3 MSTORE PUSH1 0x20 SWAP2 DUP3 SWAP1 KECCAK256 PUSH1 0x40 DUP1 MLOAD PUSH1 0x80 DUP2 ADD DUP3 MSTORE PUSH1 0x4 SWAP1 SWAP4 MUL SWAP1 SWAP2 ADD DUP1 SLOAD PUSH1 0x1 PUSH1 0x1 PUSH1 0xA0 SHL SUB AND DUP4 MSTORE PUSH1 0x1 DUP2 ADD SLOAD SWAP4 DUP4 ADD SWAP4 SWAP1 SWAP4 MSTORE PUSH1 0x2 DUP4 ADD SLOAD SWAP1 DUP3 ADD MSTORE PUSH1 0x3 SWAP1 SWAP2 ADD SLOAD PUSH1 0x60 DUP3 ADD MSTORE DUP4 MLOAD DUP5 SWAP1 DUP4 SWAP1 DUP2 LT PUSH2 0x30C9 JUMPI PUSH2 0x30C9 PUSH2 0x56CF JUMP JUMPDEST PUSH1 0x20 MUL PUSH1 0x20 ADD ADD DUP2 SWAP1 MSTORE POP DUP1 DUP1 PUSH2 0x30DF SWAP1 PUSH2 0x58BD JUMP JUMPDEST SWAP2 POP POP PUSH2 0x3048 JUMP JUMPDEST PUSH1 0x40 DUP1 MLOAD CALLER PUSH1 0x60 DUP2 SWAP1 SHL PUSH1 0x1 PUSH1 0x1 PUSH1 0x60 SHL SUB NOT AND PUSH1 0x20 DUP1 DUP5 ADD SWAP2 SWAP1 SWAP2 MSTORE PUSH1 0x34 DUP4 ADD DUP10 SWAP1 MSTORE PUSH1 0x54 DUP4 ADD DUP9 SWAP1 MSTORE PUSH1 0x74 DUP4 ADD DUP8 SWAP1 MSTORE PUSH1 0x94 DUP1 DUP5 ADD DUP8 SWAP1 MSTORE DUP5 MLOAD DUP1 DUP6 SUB SWAP1 SWAP2 ADD DUP2 MSTORE PUSH1 0xB4 DUP5 ADD DUP6 MSTORE DUP1 MLOAD SWAP1 DUP3 ADD KECCAK256 PUSH28 0xCA2BA3432B932BAB69029B4B3B732B21026B2B9B9B0B3B29D051999 PUSH1 0x21 SHL PUSH1 0xD4 DUP6 ADD MSTORE PUSH1 0xF0 DUP1 DUP6 ADD SWAP2 SWAP1 SWAP2 MSTORE DUP5 MLOAD DUP1 DUP6 SUB SWAP1 SWAP2 ADD DUP2 MSTORE PUSH2 0x110 SWAP1 SWAP4 ADD SWAP1 SWAP4 MSTORE DUP2 MLOAD SWAP2 SWAP1 SWAP3 ADD KECCAK256 PUSH0 PUSH2 0x318A DUP3 DUP6 PUSH2 0x4A56 JUMP JUMPDEST SWAP1 POP DUP1 PUSH1 0x1 PUSH1 0x1 PUSH1 0xA0 SHL SUB AND PUSH1 0xC9 PUSH0 SWAP1 SLOAD SWAP1 PUSH2 0x100 EXP SWAP1 DIV PUSH1 0x1 PUSH1 0x1 PUSH1 0xA0 SHL SUB AND PUSH1 0x1 PUSH1 0x1 PUSH1 0xA0 SHL SUB AND PUSH4 0x570CA735 PUSH1 0x40 MLOAD DUP2 PUSH4 0xFFFFFFFF AND PUSH1 0xE0 SHL DUP2 MSTORE PUSH1 0x4 ADD PUSH1 0x20 PUSH1 0x40 MLOAD DUP1 DUP4 SUB DUP2 DUP7 GAS STATICCALL ISZERO DUP1 ISZERO PUSH2 0x31E6 JUMPI RETURNDATASIZE PUSH0 DUP1 RETURNDATACOPY RETURNDATASIZE PUSH0 REVERT JUMPDEST POP POP POP POP PUSH1 0x40 MLOAD RETURNDATASIZE PUSH1 0x1F NOT PUSH1 0x1F DUP3 ADD AND DUP3 ADD DUP1 PUSH1 0x40 MSTORE POP DUP2 ADD SWAP1 PUSH2 0x320A SWAP2 SWAP1 PUSH2 0x57D5 JUMP JUMPDEST PUSH1 0x1 PUSH1 0x1 PUSH1 0xA0 SHL SUB AND EQ PUSH2 0x3231 JUMPI PUSH1 0x40 MLOAD PUSH4 0xE1A96133 PUSH1 0xE0 SHL DUP2 MSTORE PUSH1 0x4 ADD PUSH1 0x40 MLOAD DUP1 SWAP2 SUB SWAP1 REVERT JUMPDEST PUSH1 0x1 PUSH1 0x1 PUSH1 0xA0 SHL SUB DUP4 AND PUSH0 SWAP1 DUP2 MSTORE PUSH1 0xD9 PUSH1 0x20 SWAP1 DUP2 MSTORE PUSH1 0x40 DUP1 DUP4 KECCAK256 DUP4 DUP1 MSTORE SWAP1 SWAP2 MSTORE DUP1 DUP3 KECCAK256 SLOAD PUSH1 0x1 DUP4 MSTORE DUP2 DUP4 KECCAK256 SLOAD PUSH1 0x2 DUP5 MSTORE DUP3 DUP5 KECCAK256 SLOAD PUSH1 0x3 DUP6 MSTORE SWAP3 DUP5 KECCAK256 SLOAD SWAP2 SWAP4 SWAP1 SWAP3 SWAP2 SWAP1 DUP5 DUP14 GT ISZERO PUSH2 0x32B7 JUMPI PUSH2 0x3285 DUP6 DUP15 PUSH2 0x570A JUMP JUMPDEST PUSH2 0x328F SWAP1 DUP3 PUSH2 0x56F7 JUMP JUMPDEST PUSH1 0x1 PUSH1 0x1 PUSH1 0xA0 SHL SUB DUP10 AND PUSH0 SWAP1 DUP2 MSTORE PUSH1 0xD9 PUSH1 0x20 SWAP1 DUP2 MSTORE PUSH1 0x40 DUP1 DUP4 KECCAK256 DUP4 DUP1 MSTORE SWAP1 SWAP2 MSTORE SWAP1 KECCAK256 DUP15 SWAP1 SSTORE SWAP1 POP JUMPDEST DUP4 DUP13 GT ISZERO PUSH2 0x32FC JUMPI PUSH2 0x32C9 DUP5 DUP14 PUSH2 0x570A JUMP JUMPDEST PUSH2 0x32D3 SWAP1 DUP3 PUSH2 0x56F7 JUMP JUMPDEST PUSH1 0x1 PUSH1 0x1 PUSH1 0xA0 SHL SUB DUP10 AND PUSH0 SWAP1 DUP2 MSTORE PUSH1 0xD9 PUSH1 0x20 SWAP1 DUP2 MSTORE PUSH1 0x40 DUP1 DUP4 KECCAK256 PUSH1 0x1 DUP5 MSTORE SWAP1 SWAP2 MSTORE SWAP1 KECCAK256 DUP14 SWAP1 SSTORE SWAP1 POP JUMPDEST DUP3 DUP12 GT ISZERO PUSH2 0x3341 JUMPI PUSH2 0x330E DUP4 DUP13 PUSH2 0x570A JUMP JUMPDEST PUSH2 0x3318 SWAP1 DUP3 PUSH2 0x56F7 JUMP JUMPDEST PUSH1 0x1 PUSH1 0x1 PUSH1 0xA0 SHL SUB DUP10 AND PUSH0 SWAP1 DUP2 MSTORE PUSH1 0xD9 PUSH1 0x20 SWAP1 DUP2 MSTORE PUSH1 0x40 DUP1 DUP4 KECCAK256 PUSH1 0x2 DUP5 MSTORE SWAP1 SWAP2 MSTORE SWAP1 KECCAK256 DUP13 SWAP1 SSTORE SWAP1 POP JUMPDEST DUP2 DUP11 GT ISZERO PUSH2 0x3386 JUMPI PUSH2 0x3353 DUP3 DUP12 PUSH2 0x570A JUMP JUMPDEST PUSH2 0x335D SWAP1 DUP3 PUSH2 0x56F7 JUMP JUMPDEST PUSH1 0x1 PUSH1 0x1 PUSH1 0xA0 SHL SUB DUP10 AND PUSH0 SWAP1 DUP2 MSTORE PUSH1 0xD9 PUSH1 0x20 SWAP1 DUP2 MSTORE PUSH1 0x40 DUP1 DUP4 KECCAK256 PUSH1 0x3 DUP5 MSTORE SWAP1 SWAP2 MSTORE SWAP1 KECCAK256 DUP12 SWAP1 SSTORE SWAP1 POP JUMPDEST DUP1 ISZERO PUSH2 0x3483 JUMPI PUSH1 0x40 DUP1 MLOAD PUSH1 0x80 DUP2 ADD SWAP1 SWAP2 MSTORE CALLER DUP2 MSTORE PUSH1 0xCC SWAP1 PUSH1 0x20 DUP2 ADD PUSH2 0x33AC PUSH1 0x2 DUP6 PUSH2 0x5731 JUMP JUMPDEST DUP2 MSTORE PUSH1 0x1 PUSH1 0x20 DUP1 DUP4 ADD DUP3 SWAP1 MSTORE TIMESTAMP PUSH1 0x40 SWAP4 DUP5 ADD MSTORE DUP5 SLOAD DUP1 DUP4 ADD DUP7 SSTORE PUSH0 SWAP6 DUP7 MSTORE SWAP5 DUP2 SWAP1 KECCAK256 DUP5 MLOAD PUSH1 0x4 SWAP1 SWAP7 MUL ADD DUP1 SLOAD PUSH1 0x1 PUSH1 0x1 PUSH1 0xA0 SHL SUB NOT AND PUSH1 0x1 PUSH1 0x1 PUSH1 0xA0 SHL SUB SWAP1 SWAP7 AND SWAP6 SWAP1 SWAP6 OR DUP6 SSTORE DUP4 ADD MLOAD SWAP1 DUP5 ADD SSTORE DUP2 ADD MLOAD PUSH1 0x2 DUP4 ADD SSTORE PUSH1 0x60 ADD MLOAD PUSH1 0x3 SWAP1 SWAP2 ADD SSTORE PUSH2 0x3414 PUSH2 0x35C5 JUMP JUMPDEST PUSH1 0x1 PUSH1 0x1 PUSH1 0xA0 SHL SUB AND PUSH4 0xA9059CBB DUP10 DUP4 PUSH1 0x40 MLOAD DUP4 PUSH4 0xFFFFFFFF AND PUSH1 0xE0 SHL DUP2 MSTORE PUSH1 0x4 ADD PUSH2 0x3441 SWAP3 SWAP2 SWAP1 PUSH2 0x581E JUMP JUMPDEST PUSH1 0x20 PUSH1 0x40 MLOAD DUP1 DUP4 SUB DUP2 PUSH0 DUP8 GAS CALL ISZERO DUP1 ISZERO PUSH2 0x345D JUMPI RETURNDATASIZE PUSH0 DUP1 RETURNDATACOPY RETURNDATASIZE PUSH0 REVERT JUMPDEST POP POP POP POP PUSH1 0x40 MLOAD RETURNDATASIZE PUSH1 0x1F NOT PUSH1 0x1F DUP3 ADD AND DUP3 ADD DUP1 PUSH1 0x40 MSTORE POP DUP2 ADD SWAP1 PUSH2 0x3481 SWAP2 SWAP1 PUSH2 0x57B6 JUMP JUMPDEST POP JUMPDEST POP POP POP POP POP POP POP POP POP POP POP POP POP JUMP JUMPDEST PUSH1 0x1 PUSH1 0x1 PUSH1 0xA0 SHL SUB DUP2 AND PUSH0 SWAP1 DUP2 MSTORE PUSH1 0xD0 PUSH1 0x20 SWAP1 DUP2 MSTORE PUSH1 0x40 DUP1 DUP4 KECCAK256 DUP1 SLOAD DUP3 MLOAD DUP2 DUP6 MUL DUP2 ADD DUP6 ADD SWAP1 SWAP4 MSTORE DUP1 DUP4 MSTORE DUP5 SWAP4 DUP4 ADD DUP3 DUP3 DUP1 ISZERO PUSH2 0x34EC JUMPI PUSH1 0x20 MUL DUP3 ADD SWAP2 SWAP1 PUSH0 MSTORE PUSH1 0x20 PUSH0 KECCAK256 SWAP1 JUMPDEST DUP2 SLOAD DUP2 MSTORE PUSH1 0x20 ADD SWAP1 PUSH1 0x1 ADD SWAP1 DUP1 DUP4 GT PUSH2 0x34D8 JUMPI JUMPDEST POP POP POP POP POP SWAP1 POP PUSH0 JUMPDEST DUP2 MLOAD DUP2 LT ISZERO PUSH2 0x35BE JUMPI PUSH0 PUSH1 0xCB DUP4 DUP4 DUP2 MLOAD DUP2 LT PUSH2 0x3513 JUMPI PUSH2 0x3513 PUSH2 0x56CF JUMP JUMPDEST PUSH1 0x20 MUL PUSH1 0x20 ADD ADD MLOAD DUP2 SLOAD DUP2 LT PUSH2 0x352B JUMPI PUSH2 0x352B PUSH2 0x56CF JUMP JUMPDEST PUSH0 SWAP2 DUP3 MSTORE PUSH1 0x20 SWAP2 DUP3 SWAP1 KECCAK256 PUSH1 0x40 DUP1 MLOAD PUSH1 0x80 DUP2 ADD DUP3 MSTORE PUSH1 0x4 SWAP1 SWAP4 MUL SWAP1 SWAP2 ADD DUP1 SLOAD PUSH1 0x1 PUSH1 0x1 PUSH1 0xA0 SHL SUB AND DUP4 MSTORE PUSH1 0x1 DUP2 ADD SLOAD SWAP4 DUP4 ADD SWAP4 SWAP1 SWAP4 MSTORE PUSH1 0x2 DUP4 ADD SLOAD SWAP1 DUP3 ADD MSTORE PUSH1 0x3 SWAP1 SWAP2 ADD SLOAD PUSH1 0x60 DUP3 ADD MSTORE SWAP1 POP TIMESTAMP PUSH2 0x357F PUSH2 0x495D JUMP JUMPDEST DUP3 PUSH1 0x40 ADD MLOAD PUSH2 0x358E SWAP2 SWAP1 PUSH2 0x56F7 JUMP JUMPDEST GT PUSH2 0x3599 JUMPI POP PUSH2 0x35AC JUMP JUMPDEST PUSH1 0x20 DUP2 ADD MLOAD PUSH2 0x35A8 SWAP1 DUP6 PUSH2 0x56F7 JUMP JUMPDEST SWAP4 POP POP JUMPDEST DUP1 PUSH2 0x35B6 DUP2 PUSH2 0x58BD JUMP JUMPDEST SWAP2 POP POP PUSH2 0x34F5 JUMP JUMPDEST POP POP SWAP2 SWAP1 POP JUMP JUMPDEST PUSH1 0xC9 SLOAD PUSH1 0x40 DUP1 MLOAD PUSH4 0x5BFF9787 PUSH1 0xE0 SHL DUP2 MSTORE SWAP1 MLOAD PUSH0 SWAP3 PUSH1 0x1 PUSH1 0x1 PUSH1 0xA0 SHL SUB AND SWAP2 PUSH4 0x5BFF9787 SWAP2 PUSH1 0x4 DUP1 DUP4 ADD SWAP3 PUSH1 0x20 SWAP3 SWAP2 SWAP1 DUP3 SWAP1 SUB ADD DUP2 DUP7 GAS STATICCALL ISZERO DUP1 ISZERO PUSH2 0x360C JUMPI RETURNDATASIZE PUSH0 DUP1 RETURNDATACOPY RETURNDATASIZE PUSH0 REVERT JUMPDEST POP POP POP POP PUSH1 0x40 MLOAD RETURNDATASIZE PUSH1 0x1F NOT PUSH1 0x1F DUP3 ADD AND DUP3 ADD DUP1 PUSH1 0x40 MSTORE POP DUP2 ADD SWAP1 PUSH2 0x21BD SWAP2 SWAP1 PUSH2 0x57D5 JUMP JUMPDEST PUSH0 DUP1 PUSH0 DUP1 PUSH2 0x363D TIMESTAMP PUSH2 0x4A7A JUMP JUMPDEST POP POP SWAP4 POP SWAP4 POP SWAP4 POP SWAP4 POP PUSH1 0x8 DUP2 PUSH2 0x3654 SWAP2 SWAP1 PUSH2 0x56F7 JUMP JUMPDEST SWAP1 POP PUSH1 0x18 DUP2 GT ISZERO PUSH2 0x367A JUMPI PUSH2 0x366A PUSH1 0x1 DUP4 PUSH2 0x56F7 JUMP JUMPDEST SWAP2 POP PUSH2 0x3677 PUSH1 0x18 DUP3 PUSH2 0x570A JUMP JUMPDEST SWAP1 POP JUMPDEST PUSH1 0x8 DUP2 LT ISZERO PUSH2 0x3689 JUMPI POP POP POP POP JUMP JUMPDEST PUSH0 PUSH2 0x3693 DUP6 PUSH2 0x4AEC JUMP JUMPDEST PUSH2 0x369C DUP6 PUSH2 0x4AEC JUMP JUMPDEST PUSH2 0x36A5 DUP6 PUSH2 0x4AEC JUMP JUMPDEST PUSH1 0x40 MLOAD PUSH1 0x20 ADD PUSH2 0x36B7 SWAP4 SWAP3 SWAP2 SWAP1 PUSH2 0x59B9 JUMP JUMPDEST PUSH1 0x40 MLOAD PUSH1 0x20 DUP2 DUP4 SUB SUB DUP2 MSTORE SWAP1 PUSH1 0x40 MSTORE SWAP1 POP PUSH1 0xD2 DUP2 PUSH1 0x40 MLOAD PUSH2 0x36D8 SWAP2 SWAP1 PUSH2 0x59FB JUMP JUMPDEST SWAP1 DUP2 MSTORE PUSH1 0x40 MLOAD SWAP1 DUP2 SWAP1 SUB PUSH1 0x20 ADD SWAP1 KECCAK256 SLOAD PUSH1 0xFF AND ISZERO PUSH2 0x36F7 JUMPI POP POP POP POP POP JUMP JUMPDEST PUSH1 0x1 PUSH1 0xD2 DUP3 PUSH1 0x40 MLOAD PUSH2 0x3709 SWAP2 SWAP1 PUSH2 0x59FB JUMP JUMPDEST SWAP1 DUP2 MSTORE PUSH1 0x40 MLOAD SWAP1 DUP2 SWAP1 SUB PUSH1 0x20 ADD SWAP1 KECCAK256 DUP1 SLOAD SWAP2 ISZERO ISZERO PUSH1 0xFF NOT SWAP1 SWAP3 AND SWAP2 SWAP1 SWAP2 OR SWAP1 SSTORE PUSH0 DUP1 PUSH2 0x3733 PUSH2 0x4467 JUMP JUMPDEST PUSH1 0x1 PUSH1 0x1 PUSH1 0xA0 SHL SUB AND PUSH4 0x902F1AC PUSH1 0x40 MLOAD DUP2 PUSH4 0xFFFFFFFF AND PUSH1 0xE0 SHL DUP2 MSTORE PUSH1 0x4 ADD PUSH1 0x60 PUSH1 0x40 MLOAD DUP1 DUP4 SUB DUP2 DUP7 GAS STATICCALL ISZERO DUP1 ISZERO PUSH2 0x376E JUMPI RETURNDATASIZE PUSH0 DUP1 RETURNDATACOPY RETURNDATASIZE PUSH0 REVERT JUMPDEST POP POP POP POP PUSH1 0x40 MLOAD RETURNDATASIZE PUSH1 0x1F NOT PUSH1 0x1F DUP3 ADD AND DUP3 ADD DUP1 PUSH1 0x40 MSTORE POP DUP2 ADD SWAP1 PUSH2 0x3792 SWAP2 SWAP1 PUSH2 0x5852 JUMP JUMPDEST POP SWAP2 POP SWAP2 POP PUSH2 0x379F PUSH2 0x4467 JUMP JUMPDEST PUSH1 0x1 PUSH1 0x1 PUSH1 0xA0 SHL SUB AND PUSH4 0xE840427D PUSH2 0x3E8 PUSH2 0x37BB DUP6 PUSH1 0xA PUSH2 0x58D5 JUMP JUMPDEST PUSH2 0x37C5 SWAP2 SWAP1 PUSH2 0x58F8 JUMP JUMPDEST PUSH2 0x3E8 PUSH2 0x37D3 DUP6 PUSH1 0xA PUSH2 0x58D5 JUMP JUMPDEST PUSH2 0x37DD SWAP2 SWAP1 PUSH2 0x58F8 JUMP JUMPDEST ADDRESS PUSH1 0x40 MLOAD DUP5 PUSH4 0xFFFFFFFF AND PUSH1 0xE0 SHL DUP2 MSTORE PUSH1 0x4 ADD PUSH2 0x37FC SWAP4 SWAP3 SWAP2 SWAP1 PUSH2 0x591D JUMP JUMPDEST PUSH0 PUSH1 0x40 MLOAD DUP1 DUP4 SUB DUP2 PUSH0 DUP8 DUP1 EXTCODESIZE ISZERO DUP1 ISZERO PUSH2 0x3813 JUMPI PUSH0 DUP1 REVERT JUMPDEST POP GAS CALL ISZERO DUP1 ISZERO PUSH2 0x3825 JUMPI RETURNDATASIZE PUSH0 DUP1 RETURNDATACOPY RETURNDATASIZE PUSH0 REVERT JUMPDEST POP POP POP POP PUSH0 DUP1 PUSH2 0x3833 PUSH2 0x4294 JUMP JUMPDEST PUSH1 0x1 PUSH1 0x1 PUSH1 0xA0 SHL SUB AND PUSH2 0x3844 PUSH2 0x4467 JUMP JUMPDEST PUSH1 0x1 PUSH1 0x1 PUSH1 0xA0 SHL SUB AND PUSH4 0xDFE1681 PUSH1 0x40 MLOAD DUP2 PUSH4 0xFFFFFFFF AND PUSH1 0xE0 SHL DUP2 MSTORE PUSH1 0x4 ADD PUSH1 0x20 PUSH1 0x40 MLOAD DUP1 DUP4 SUB DUP2 DUP7 GAS STATICCALL ISZERO DUP1 ISZERO PUSH2 0x387F JUMPI RETURNDATASIZE PUSH0 DUP1 RETURNDATACOPY RETURNDATASIZE PUSH0 REVERT JUMPDEST POP POP POP POP PUSH1 0x40 MLOAD RETURNDATASIZE PUSH1 0x1F NOT PUSH1 0x1F DUP3 ADD AND DUP3 ADD DUP1 PUSH1 0x40 MSTORE POP DUP2 ADD SWAP1 PUSH2 0x38A3 SWAP2 SWAP1 PUSH2 0x57D5 JUMP JUMPDEST PUSH1 0x1 PUSH1 0x1 PUSH1 0xA0 SHL SUB AND EQ PUSH2 0x38B8 JUMPI DUP3 DUP5 PUSH2 0x38BB JUMP JUMPDEST DUP4 DUP4 JUMPDEST SWAP2 POP SWAP2 POP PUSH2 0x38C7 PUSH2 0x35C5 JUMP JUMPDEST PUSH1 0x1 PUSH1 0x1 PUSH1 0xA0 SHL SUB AND PUSH4 0xA9059CBB PUSH2 0x38DD PUSH2 0x44AE JUMP JUMPDEST PUSH2 0x3E8 PUSH2 0x38EB DUP6 PUSH1 0xA PUSH2 0x58D5 JUMP JUMPDEST PUSH2 0x38F5 SWAP2 SWAP1 PUSH2 0x58F8 JUMP JUMPDEST PUSH1 0x40 MLOAD DUP4 PUSH4 0xFFFFFFFF AND PUSH1 0xE0 SHL DUP2 MSTORE PUSH1 0x4 ADD PUSH2 0x3912 SWAP3 SWAP2 SWAP1 PUSH2 0x5949 JUMP JUMPDEST PUSH1 0x20 PUSH1 0x40 MLOAD DUP1 DUP4 SUB DUP2 PUSH0 DUP8 GAS CALL ISZERO DUP1 ISZERO PUSH2 0x392E JUMPI RETURNDATASIZE PUSH0 DUP1 RETURNDATACOPY RETURNDATASIZE PUSH0 REVERT JUMPDEST POP POP POP POP PUSH1 0x40 MLOAD RETURNDATASIZE PUSH1 0x1F NOT PUSH1 0x1F DUP3 ADD AND DUP3 ADD DUP1 PUSH1 0x40 MSTORE POP DUP2 ADD SWAP1 PUSH2 0x3952 SWAP2 SWAP1 PUSH2 0x57B6 JUMP JUMPDEST POP PUSH2 0x395B PUSH2 0x4294 JUMP JUMPDEST PUSH1 0x1 PUSH1 0x1 PUSH1 0xA0 SHL SUB AND PUSH4 0x95EA7B3 PUSH2 0x3971 PUSH2 0x4467 JUMP JUMPDEST PUSH1 0x2 PUSH2 0x3E8 PUSH2 0x3981 DUP8 PUSH1 0xA PUSH2 0x58D5 JUMP JUMPDEST PUSH2 0x398B SWAP2 SWAP1 PUSH2 0x58F8 JUMP JUMPDEST PUSH2 0x3995 SWAP2 SWAP1 PUSH2 0x58F8 JUMP JUMPDEST PUSH1 0x40 MLOAD DUP4 PUSH4 0xFFFFFFFF AND PUSH1 0xE0 SHL DUP2 MSTORE PUSH1 0x4 ADD PUSH2 0x39B2 SWAP3 SWAP2 SWAP1 PUSH2 0x5949 JUMP JUMPDEST PUSH1 0x20 PUSH1 0x40 MLOAD DUP1 DUP4 SUB DUP2 PUSH0 DUP8 GAS CALL ISZERO DUP1 ISZERO PUSH2 0x39CE JUMPI RETURNDATASIZE PUSH0 DUP1 RETURNDATACOPY RETURNDATASIZE PUSH0 REVERT JUMPDEST POP POP POP POP PUSH1 0x40 MLOAD RETURNDATASIZE PUSH1 0x1F NOT PUSH1 0x1F DUP3 ADD AND DUP3 ADD DUP1 PUSH1 0x40 MSTORE POP DUP2 ADD SWAP1 PUSH2 0x39F2 SWAP2 SWAP1 PUSH2 0x57B6 JUMP JUMPDEST POP PUSH0 PUSH2 0x39FC PUSH2 0x4467 JUMP JUMPDEST PUSH1 0x1 PUSH1 0x1 PUSH1 0xA0 SHL SUB AND PUSH4 0xA1E15411 PUSH2 0x3A12 PUSH2 0x4294 JUMP JUMPDEST ADDRESS PUSH1 0x2 PUSH2 0x3E8 PUSH2 0x3A23 DUP10 PUSH1 0xA PUSH2 0x58D5 JUMP JUMPDEST PUSH2 0x3A2D SWAP2 SWAP1 PUSH2 0x58F8 JUMP JUMPDEST PUSH2 0x3A37 SWAP2 SWAP1 PUSH2 0x58F8 JUMP JUMPDEST PUSH1 0x40 MLOAD DUP5 PUSH4 0xFFFFFFFF AND PUSH1 0xE0 SHL DUP2 MSTORE PUSH1 0x4 ADD PUSH2 0x3A55 SWAP4 SWAP3 SWAP2 SWAP1 PUSH2 0x596B JUMP JUMPDEST PUSH1 0x20 PUSH1 0x40 MLOAD DUP1 DUP4 SUB DUP2 PUSH0 DUP8 GAS CALL ISZERO DUP1 ISZERO PUSH2 0x3A71 JUMPI RETURNDATASIZE PUSH0 DUP1 RETURNDATACOPY RETURNDATASIZE PUSH0 REVERT JUMPDEST POP POP POP POP PUSH1 0x40 MLOAD RETURNDATASIZE PUSH1 0x1F NOT PUSH1 0x1F DUP3 ADD AND DUP3 ADD DUP1 PUSH1 0x40 MSTORE POP DUP2 ADD SWAP1 PUSH2 0x3A95 SWAP2 SWAP1 PUSH2 0x57F0 JUMP JUMPDEST SWAP1 POP PUSH2 0x3A9F PUSH2 0x35C5 JUMP JUMPDEST PUSH1 0x1 PUSH1 0x1 PUSH1 0xA0 SHL SUB AND PUSH4 0xA9059CBB PUSH2 0x3AB5 PUSH2 0x4467 JUMP JUMPDEST DUP4 PUSH1 0x40 MLOAD DUP4 PUSH4 0xFFFFFFFF AND PUSH1 0xE0 SHL DUP2 MSTORE PUSH1 0x4 ADD PUSH2 0x3AD3 SWAP3 SWAP2 SWAP1 PUSH2 0x581E JUMP JUMPDEST PUSH1 0x20 PUSH1 0x40 MLOAD DUP1 DUP4 SUB DUP2 PUSH0 DUP8 GAS CALL ISZERO DUP1 ISZERO PUSH2 0x3AEF JUMPI RETURNDATASIZE PUSH0 DUP1 RETURNDATACOPY RETURNDATASIZE PUSH0 REVERT JUMPDEST POP POP POP POP PUSH1 0x40 MLOAD RETURNDATASIZE PUSH1 0x1F NOT PUSH1 0x1F DUP3 ADD AND DUP3 ADD DUP1 PUSH1 0x40 MSTORE POP DUP2 ADD SWAP1 PUSH2 0x3B13 SWAP2 SWAP1 PUSH2 0x57B6 JUMP JUMPDEST POP PUSH2 0x3B1C PUSH2 0x4294 JUMP JUMPDEST PUSH1 0x1 PUSH1 0x1 PUSH1 0xA0 SHL SUB AND PUSH4 0xA9059CBB PUSH2 0x3B32 PUSH2 0x4467 JUMP JUMPDEST PUSH1 0x2 PUSH2 0x3E8 PUSH2 0x3B42 DUP9 PUSH1 0xA PUSH2 0x58D5 JUMP JUMPDEST PUSH2 0x3B4C SWAP2 SWAP1 PUSH2 0x58F8 JUMP JUMPDEST PUSH2 0x3B56 SWAP2 SWAP1 PUSH2 0x58F8 JUMP JUMPDEST PUSH1 0x40 MLOAD DUP4 PUSH4 0xFFFFFFFF AND PUSH1 0xE0 SHL DUP2 MSTORE PUSH1 0x4 ADD PUSH2 0x3B73 SWAP3 SWAP2 SWAP1 PUSH2 0x5949 JUMP JUMPDEST PUSH1 0x20 PUSH1 0x40 MLOAD DUP1 DUP4 SUB DUP2 PUSH0 DUP8 GAS CALL ISZERO DUP1 ISZERO PUSH2 0x3B8F JUMPI RETURNDATASIZE PUSH0 DUP1 RETURNDATACOPY RETURNDATASIZE PUSH0 REVERT JUMPDEST POP POP POP POP PUSH1 0x40 MLOAD RETURNDATASIZE PUSH1 0x1F NOT PUSH1 0x1F DUP3 ADD AND DUP3 ADD DUP1 PUSH1 0x40 MSTORE POP DUP2 ADD SWAP1 PUSH2 0x3BB3 SWAP2 SWAP1 PUSH2 0x57B6 JUMP JUMPDEST POP PUSH2 0x3BBC PUSH2 0x4467 JUMP JUMPDEST PUSH1 0x1 PUSH1 0x1 PUSH1 0xA0 SHL SUB AND PUSH4 0x6A627842 PUSH1 0x1 PUSH1 0x40 MLOAD DUP3 PUSH4 0xFFFFFFFF AND PUSH1 0xE0 SHL DUP2 MSTORE PUSH1 0x4 ADD PUSH2 0x3BE8 SWAP2 SWAP1 PUSH2 0x5542 JUMP JUMPDEST PUSH1 0x20 PUSH1 0x40 MLOAD DUP1 DUP4 SUB DUP2 PUSH0 DUP8 GAS CALL ISZERO DUP1 ISZERO PUSH2 0x3C04 JUMPI RETURNDATASIZE PUSH0 DUP1 RETURNDATACOPY RETURNDATASIZE PUSH0 REVERT JUMPDEST POP POP POP POP PUSH1 0x40 MLOAD RETURNDATASIZE PUSH1 0x1F NOT PUSH1 0x1F DUP3 ADD AND DUP3 ADD DUP1 PUSH1 0x40 MSTORE POP DUP2 ADD SWAP1 PUSH2 0x3C28 SWAP2 SWAP1 PUSH2 0x57F0 JUMP JUMPDEST POP POP POP POP POP POP POP POP POP POP POP JUMP JUMPDEST PUSH1 0x60 PUSH0 PUSH2 0x3C42 DUP5 DUP5 PUSH2 0x570A JUMP JUMPDEST PUSH2 0x3C4D SWAP1 PUSH1 0x1 PUSH2 0x56F7 JUMP JUMPDEST SWAP1 POP DUP1 PUSH1 0x1 PUSH1 0x1 PUSH1 0x40 SHL SUB DUP2 GT ISZERO PUSH2 0x3C67 JUMPI PUSH2 0x3C67 PUSH2 0x538A JUMP JUMPDEST PUSH1 0x40 MLOAD SWAP1 DUP1 DUP3 MSTORE DUP1 PUSH1 0x20 MUL PUSH1 0x20 ADD DUP3 ADD PUSH1 0x40 MSTORE DUP1 ISZERO PUSH2 0x3CC8 JUMPI DUP2 PUSH1 0x20 ADD JUMPDEST PUSH2 0x3CB5 PUSH1 0x40 MLOAD DUP1 PUSH1 0x80 ADD PUSH1 0x40 MSTORE DUP1 PUSH0 PUSH1 0x1 PUSH1 0x1 PUSH1 0xA0 SHL SUB AND DUP2 MSTORE PUSH1 0x20 ADD PUSH0 DUP2 MSTORE PUSH1 0x20 ADD PUSH0 DUP2 MSTORE PUSH1 0x20 ADD PUSH0 DUP2 MSTORE POP SWAP1 JUMP JUMPDEST DUP2 MSTORE PUSH1 0x20 ADD SWAP1 PUSH1 0x1 SWAP1 SUB SWAP1 DUP2 PUSH2 0x3C85 JUMPI SWAP1 POP JUMPDEST POP SWAP2 POP PUSH0 JUMPDEST DUP2 DUP2 LT ISZERO PUSH2 0x1F3D JUMPI PUSH1 0xCB PUSH2 0x3CE1 DUP3 DUP8 PUSH2 0x56F7 JUMP JUMPDEST DUP2 SLOAD DUP2 LT PUSH2 0x3CF1 JUMPI PUSH2 0x3CF1 PUSH2 0x56CF JUMP JUMPDEST PUSH0 SWAP2 DUP3 MSTORE PUSH1 0x20 SWAP2 DUP3 SWAP1 KECCAK256 PUSH1 0x40 DUP1 MLOAD PUSH1 0x80 DUP2 ADD DUP3 MSTORE PUSH1 0x4 SWAP1 SWAP4 MUL SWAP1 SWAP2 ADD DUP1 SLOAD PUSH1 0x1 PUSH1 0x1 PUSH1 0xA0 SHL SUB AND DUP4 MSTORE PUSH1 0x1 DUP2 ADD SLOAD SWAP4 DUP4 ADD SWAP4 SWAP1 SWAP4 MSTORE PUSH1 0x2 DUP4 ADD SLOAD SWAP1 DUP3 ADD MSTORE PUSH1 0x3 SWAP1 SWAP2 ADD SLOAD PUSH1 0x60 DUP3 ADD MSTORE DUP4 MLOAD DUP5 SWAP1 DUP4 SWAP1 DUP2 LT PUSH2 0x3D4E JUMPI PUSH2 0x3D4E PUSH2 0x56CF JUMP JUMPDEST PUSH1 0x20 MUL PUSH1 0x20 ADD ADD DUP2 SWAP1 MSTORE POP DUP1 DUP1 PUSH2 0x3D64 SWAP1 PUSH2 0x58BD JUMP JUMPDEST SWAP2 POP POP PUSH2 0x3CCD JUMP JUMPDEST PUSH1 0xCB DUP2 DUP2 SLOAD DUP2 LT PUSH2 0xAD6 JUMPI PUSH0 DUP1 REVERT JUMPDEST PUSH2 0x3D83 PUSH2 0x40A8 JUMP JUMPDEST PUSH1 0x1 PUSH1 0x1 PUSH1 0xA0 SHL SUB DUP2 AND PUSH2 0x3DE8 JUMPI PUSH1 0x40 MLOAD PUSH3 0x461BCD PUSH1 0xE5 SHL DUP2 MSTORE PUSH1 0x20 PUSH1 0x4 DUP3 ADD MSTORE PUSH1 0x26 PUSH1 0x24 DUP3 ADD MSTORE PUSH32 0x4F776E61626C653A206E6577206F776E657220697320746865207A65726F2061 PUSH1 0x44 DUP3 ADD MSTORE PUSH6 0x646472657373 PUSH1 0xD0 SHL PUSH1 0x64 DUP3 ADD MSTORE PUSH1 0x84 ADD PUSH2 0xB51 JUMP JUMPDEST PUSH2 0x43D DUP2 PUSH2 0x49C8 JUMP JUMPDEST PUSH1 0x1 PUSH1 0x1 PUSH1 0xA0 SHL SUB DUP2 AND PUSH0 SWAP1 DUP2 MSTORE PUSH1 0xD0 PUSH1 0x20 SWAP1 DUP2 MSTORE PUSH1 0x40 DUP1 DUP4 KECCAK256 DUP1 SLOAD DUP3 MLOAD DUP2 DUP6 MUL DUP2 ADD DUP6 ADD SWAP1 SWAP4 MSTORE DUP1 DUP4 MSTORE PUSH1 0x60 SWAP5 SWAP4 DUP4 ADD DUP3 DUP3 DUP1 ISZERO PUSH2 0x3E4D JUMPI PUSH1 0x20 MUL DUP3 ADD SWAP2 SWAP1 PUSH0 MSTORE PUSH1 0x20 PUSH0 KECCAK256 SWAP1 JUMPDEST DUP2 SLOAD DUP2 MSTORE PUSH1 0x20 ADD SWAP1 PUSH1 0x1 ADD SWAP1 DUP1 DUP4 GT PUSH2 0x3E39 JUMPI JUMPDEST POP POP POP POP POP SWAP1 POP DUP1 MLOAD PUSH1 0x1 PUSH1 0x1 PUSH1 0x40 SHL SUB DUP2 GT ISZERO PUSH2 0x3E6D JUMPI PUSH2 0x3E6D PUSH2 0x538A JUMP JUMPDEST PUSH1 0x40 MLOAD SWAP1 DUP1 DUP3 MSTORE DUP1 PUSH1 0x20 MUL PUSH1 0x20 ADD DUP3 ADD PUSH1 0x40 MSTORE DUP1 ISZERO PUSH2 0x3EC5 JUMPI DUP2 PUSH1 0x20 ADD JUMPDEST PUSH2 0x3EB2 PUSH1 0x40 MLOAD DUP1 PUSH1 0x80 ADD PUSH1 0x40 MSTORE DUP1 PUSH0 DUP2 MSTORE PUSH1 0x20 ADD PUSH0 DUP2 MSTORE PUSH1 0x20 ADD PUSH0 DUP2 MSTORE PUSH1 0x20 ADD PUSH0 DUP2 MSTORE POP SWAP1 JUMP JUMPDEST DUP2 MSTORE PUSH1 0x20 ADD SWAP1 PUSH1 0x1 SWAP1 SUB SWAP1 DUP2 PUSH2 0x3E8B JUMPI SWAP1 POP JUMPDEST POP SWAP2 POP PUSH0 JUMPDEST DUP2 MLOAD DUP2 LT ISZERO PUSH2 0x35BE JUMPI PUSH0 PUSH1 0xCB DUP4 DUP4 DUP2 MLOAD DUP2 LT PUSH2 0x3EE8 JUMPI PUSH2 0x3EE8 PUSH2 0x56CF JUMP JUMPDEST PUSH1 0x20 MUL PUSH1 0x20 ADD ADD MLOAD DUP2 SLOAD DUP2 LT PUSH2 0x3F00 JUMPI PUSH2 0x3F00 PUSH2 0x56CF JUMP JUMPDEST PUSH0 SWAP2 DUP3 MSTORE PUSH1 0x20 DUP1 DUP4 KECCAK256 PUSH1 0x40 DUP1 MLOAD PUSH1 0x80 DUP2 ADD DUP3 MSTORE PUSH1 0x4 SWAP5 DUP6 MUL SWAP1 SWAP3 ADD DUP1 SLOAD PUSH1 0x1 PUSH1 0x1 PUSH1 0xA0 SHL SUB SWAP1 DUP2 AND DUP5 MSTORE PUSH1 0x1 DUP3 ADD SLOAD DUP5 DUP7 ADD MSTORE PUSH1 0x2 DUP3 ADD SLOAD DUP5 DUP5 ADD MSTORE PUSH1 0x3 SWAP1 SWAP2 ADD SLOAD PUSH1 0x60 DUP5 ADD MSTORE PUSH1 0xC9 SLOAD DUP3 MLOAD PUSH4 0x16C42977 PUSH1 0xE1 SHL DUP2 MSTORE SWAP3 MLOAD SWAP4 SWAP8 POP TIMESTAMP SWAP6 SWAP2 AND SWAP4 PUSH4 0x2D8852EE SWAP4 DUP4 DUP4 ADD SWAP4 SWAP2 SWAP3 SWAP1 SWAP2 DUP3 SWAP1 SUB ADD DUP2 DUP7 GAS STATICCALL ISZERO DUP1 ISZERO PUSH2 0x3F85 JUMPI RETURNDATASIZE PUSH0 DUP1 RETURNDATACOPY RETURNDATASIZE PUSH0 REVERT JUMPDEST POP POP POP POP PUSH1 0x40 MLOAD RETURNDATASIZE PUSH1 0x1F NOT PUSH1 0x1F DUP3 ADD AND DUP3 ADD DUP1 PUSH1 0x40 MSTORE POP DUP2 ADD SWAP1 PUSH2 0x3FA9 SWAP2 SWAP1 PUSH2 0x57F0 JUMP JUMPDEST DUP4 PUSH1 0x40 ADD MLOAD PUSH2 0x3FB8 SWAP2 SWAP1 PUSH2 0x56F7 JUMP JUMPDEST GT PUSH2 0x3FC3 JUMPI PUSH0 PUSH2 0x4047 JUMP JUMPDEST PUSH1 0xC9 SLOAD PUSH1 0x40 DUP1 MLOAD PUSH4 0x16C42977 PUSH1 0xE1 SHL DUP2 MSTORE SWAP1 MLOAD TIMESTAMP SWAP3 PUSH1 0x1 PUSH1 0x1 PUSH1 0xA0 SHL SUB AND SWAP2 PUSH4 0x2D8852EE SWAP2 PUSH1 0x4 DUP1 DUP4 ADD SWAP3 PUSH1 0x20 SWAP3 SWAP2 SWAP1 DUP3 SWAP1 SUB ADD DUP2 DUP7 GAS STATICCALL ISZERO DUP1 ISZERO PUSH2 0x400A JUMPI RETURNDATASIZE PUSH0 DUP1 RETURNDATACOPY RETURNDATASIZE PUSH0 REVERT JUMPDEST POP POP POP POP PUSH1 0x40 MLOAD RETURNDATASIZE PUSH1 0x1F NOT PUSH1 0x1F DUP3 ADD AND DUP3 ADD DUP1 PUSH1 0x40 MSTORE POP DUP2 ADD SWAP1 PUSH2 0x402E SWAP2 SWAP1 PUSH2 0x57F0 JUMP JUMPDEST DUP4 PUSH1 0x40 ADD MLOAD PUSH2 0x403D SWAP2 SWAP1 PUSH2 0x56F7 JUMP JUMPDEST PUSH2 0x4047 SWAP2 SWAP1 PUSH2 0x570A JUMP JUMPDEST SWAP1 POP PUSH1 0x40 MLOAD DUP1 PUSH1 0x80 ADD PUSH1 0x40 MSTORE DUP1 DUP4 PUSH1 0x20 ADD MLOAD DUP2 MSTORE PUSH1 0x20 ADD DUP4 PUSH1 0x40 ADD MLOAD DUP2 MSTORE PUSH1 0x20 ADD DUP3 DUP2 MSTORE PUSH1 0x20 ADD DUP4 PUSH1 0x60 ADD MLOAD DUP2 MSTORE POP DUP6 DUP5 DUP2 MLOAD DUP2 LT PUSH2 0x4088 JUMPI PUSH2 0x4088 PUSH2 0x56CF JUMP JUMPDEST PUSH1 0x20 MUL PUSH1 0x20 ADD ADD DUP2 SWAP1 MSTORE POP POP POP DUP1 DUP1 PUSH2 0x40A0 SWAP1 PUSH2 0x58BD JUMP JUMPDEST SWAP2 POP POP PUSH2 0x3ECA JUMP JUMPDEST CALLER PUSH2 0x40B1 PUSH2 0x21C2 JUMP JUMPDEST PUSH1 0x1 PUSH1 0x1 PUSH1 0xA0 SHL SUB AND EQ PUSH2 0x21B2 JUMPI PUSH1 0x40 MLOAD PUSH3 0x461BCD PUSH1 0xE5 SHL DUP2 MSTORE PUSH1 0x20 PUSH1 0x4 DUP3 ADD DUP2 SWAP1 MSTORE PUSH1 0x24 DUP3 ADD MSTORE PUSH32 0x4F776E61626C653A2063616C6C6572206973206E6F7420746865206F776E6572 PUSH1 0x44 DUP3 ADD MSTORE PUSH1 0x64 ADD PUSH2 0xB51 JUMP JUMPDEST PUSH0 DUP1 MLOAD PUSH1 0x20 PUSH2 0x5BDB DUP4 CODECOPY DUP2 MLOAD SWAP2 MSTORE SLOAD PUSH1 0x1 PUSH1 0x1 PUSH1 0xA0 SHL SUB AND SWAP1 JUMP JUMPDEST PUSH2 0x43D PUSH2 0x40A8 JUMP JUMPDEST PUSH32 0x4910FDFA16FED3260ED0E7147F7CC6DA11A60208B5B9406D12A635614FFD9143 SLOAD PUSH1 0xFF AND ISZERO PUSH2 0x415D JUMPI PUSH2 0x1D64 DUP4 PUSH2 0x4B7B JUMP JUMPDEST DUP3 PUSH1 0x1 PUSH1 0x1 PUSH1 0xA0 SHL SUB AND PUSH4 0x52D1902D PUSH1 0x40 MLOAD DUP2 PUSH4 0xFFFFFFFF AND PUSH1 0xE0 SHL DUP2 MSTORE PUSH1 0x4 ADD PUSH1 0x20 PUSH1 0x40 MLOAD DUP1 DUP4 SUB DUP2 DUP7 GAS STATICCALL SWAP3 POP POP POP DUP1 ISZERO PUSH2 0x41B7 JUMPI POP PUSH1 0x40 DUP1 MLOAD PUSH1 0x1F RETURNDATASIZE SWAP1 DUP2 ADD PUSH1 0x1F NOT AND DUP3 ADD SWAP1 SWAP3 MSTORE PUSH2 0x41B4 SWAP2 DUP2 ADD SWAP1 PUSH2 0x57F0 JUMP JUMPDEST PUSH1 0x1 JUMPDEST PUSH2 0x421A JUMPI PUSH1 0x40 MLOAD PUSH3 0x461BCD PUSH1 0xE5 SHL DUP2 MSTORE PUSH1 0x20 PUSH1 0x4 DUP3 ADD MSTORE PUSH1 0x2E PUSH1 0x24 DUP3 ADD MSTORE PUSH32 0x45524331393637557067726164653A206E657720696D706C656D656E74617469 PUSH1 0x44 DUP3 ADD MSTORE PUSH14 0x6F6E206973206E6F742055555053 PUSH1 0x90 SHL PUSH1 0x64 DUP3 ADD MSTORE PUSH1 0x84 ADD PUSH2 0xB51 JUMP JUMPDEST PUSH0 DUP1 MLOAD PUSH1 0x20 PUSH2 0x5BDB DUP4 CODECOPY DUP2 MLOAD SWAP2 MSTORE DUP2 EQ PUSH2 0x4288 JUMPI PUSH1 0x40 MLOAD PUSH3 0x461BCD PUSH1 0xE5 SHL DUP2 MSTORE PUSH1 0x20 PUSH1 0x4 DUP3 ADD MSTORE PUSH1 0x29 PUSH1 0x24 DUP3 ADD MSTORE PUSH32 0x45524331393637557067726164653A20756E737570706F727465642070726F78 PUSH1 0x44 DUP3 ADD MSTORE PUSH9 0x1A58589B1955555251 PUSH1 0xBA SHL PUSH1 0x64 DUP3 ADD MSTORE PUSH1 0x84 ADD PUSH2 0xB51 JUMP JUMPDEST POP PUSH2 0x1D64 DUP4 DUP4 DUP4 PUSH2 0x4C14 JUMP JUMPDEST PUSH1 0xC9 SLOAD PUSH1 0x40 DUP1 MLOAD PUSH4 0x2F48AB7D PUSH1 0xE0 SHL DUP2 MSTORE SWAP1 MLOAD PUSH0 SWAP3 PUSH1 0x1 PUSH1 0x1 PUSH1 0xA0 SHL SUB AND SWAP2 PUSH4 0x2F48AB7D SWAP2 PUSH1 0x4 DUP1 DUP4 ADD SWAP3 PUSH1 0x20 SWAP3 SWAP2 SWAP1 DUP3 SWAP1 SUB ADD DUP2 DUP7 GAS STATICCALL ISZERO DUP1 ISZERO PUSH2 0x360C JUMPI RETURNDATASIZE PUSH0 DUP1 RETURNDATACOPY RETURNDATASIZE PUSH0 REVERT JUMPDEST PUSH0 DUP1 PUSH0 PUSH2 0x42E6 PUSH2 0x4467 JUMP JUMPDEST PUSH1 0x1 PUSH1 0x1 PUSH1 0xA0 SHL SUB AND PUSH4 0x902F1AC PUSH1 0x40 MLOAD DUP2 PUSH4 0xFFFFFFFF AND PUSH1 0xE0 SHL DUP2 MSTORE PUSH1 0x4 ADD PUSH1 0x60 PUSH1 0x40 MLOAD DUP1 DUP4 SUB DUP2 DUP7 GAS STATICCALL ISZERO DUP1 ISZERO PUSH2 0x4321 JUMPI RETURNDATASIZE PUSH0 DUP1 RETURNDATACOPY RETURNDATASIZE PUSH0 REVERT JUMPDEST POP POP POP POP PUSH1 0x40 MLOAD RETURNDATASIZE PUSH1 0x1F NOT PUSH1 0x1F DUP3 ADD AND DUP3 ADD DUP1 PUSH1 0x40 MSTORE POP DUP2 ADD SWAP1 PUSH2 0x4345 SWAP2 SWAP1 PUSH2 0x5852 JUMP JUMPDEST POP SWAP2 POP SWAP2 POP PUSH0 DUP1 PUSH2 0x4354 PUSH2 0x4294 JUMP JUMPDEST PUSH1 0x1 PUSH1 0x1 PUSH1 0xA0 SHL SUB AND PUSH2 0x4365 PUSH2 0x4467 JUMP JUMPDEST PUSH1 0x1 PUSH1 0x1 PUSH1 0xA0 SHL SUB AND PUSH4 0xDFE1681 PUSH1 0x40 MLOAD DUP2 PUSH4 0xFFFFFFFF AND PUSH1 0xE0 SHL DUP2 MSTORE PUSH1 0x4 ADD PUSH1 0x20 PUSH1 0x40 MLOAD DUP1 DUP4 SUB DUP2 DUP7 GAS STATICCALL ISZERO DUP1 ISZERO PUSH2 0x43A0 JUMPI RETURNDATASIZE PUSH0 DUP1 RETURNDATACOPY RETURNDATASIZE PUSH0 REVERT JUMPDEST POP POP POP POP PUSH1 0x40 MLOAD RETURNDATASIZE PUSH1 0x1F NOT PUSH1 0x1F DUP3 ADD AND DUP3 ADD DUP1 PUSH1 0x40 MSTORE POP DUP2 ADD SWAP1 PUSH2 0x43C4 SWAP2 SWAP1 PUSH2 0x57D5 JUMP JUMPDEST PUSH1 0x1 PUSH1 0x1 PUSH1 0xA0 SHL SUB AND EQ PUSH2 0x43D9 JUMPI DUP3 DUP5 PUSH2 0x43DC JUMP JUMPDEST DUP4 DUP4 JUMPDEST SWAP2 POP SWAP2 POP PUSH2 0x43E8 PUSH2 0x4467 JUMP JUMPDEST PUSH1 0x1 PUSH1 0x1 PUSH1 0xA0 SHL SUB AND PUSH4 0x54D50D4 PUSH8 0xDE0B6B3A7640000 DUP4 DUP6 PUSH1 0x40 MLOAD DUP5 PUSH4 0xFFFFFFFF AND PUSH1 0xE0 SHL DUP2 MSTORE PUSH1 0x4 ADD PUSH2 0x441F SWAP4 SWAP3 SWAP2 SWAP1 PUSH2 0x589E JUMP JUMPDEST PUSH1 0x20 PUSH1 0x40 MLOAD DUP1 DUP4 SUB DUP2 DUP7 GAS STATICCALL ISZERO DUP1 ISZERO PUSH2 0x443A JUMPI RETURNDATASIZE PUSH0 DUP1 RETURNDATACOPY RETURNDATASIZE PUSH0 REVERT JUMPDEST POP POP POP POP PUSH1 0x40 MLOAD RETURNDATASIZE PUSH1 0x1F NOT PUSH1 0x1F DUP3 ADD AND DUP3 ADD DUP1 PUSH1 0x40 MSTORE POP DUP2 ADD SWAP1 PUSH2 0x445E SWAP2 SWAP1 PUSH2 0x57F0 JUMP JUMPDEST SWAP5 POP POP POP POP POP SWAP1 JUMP JUMPDEST PUSH1 0xC9 SLOAD PUSH1 0x40 DUP1 MLOAD PUSH4 0x5250C9B5 PUSH1 0xE0 SHL DUP2 MSTORE SWAP1 MLOAD PUSH0 SWAP3 PUSH1 0x1 PUSH1 0x1 PUSH1 0xA0 SHL SUB AND SWAP2 PUSH4 0x5250C9B5 SWAP2 PUSH1 0x4 DUP1 DUP4 ADD SWAP3 PUSH1 0x20 SWAP3 SWAP2 SWAP1 DUP3 SWAP1 SUB ADD DUP2 DUP7 GAS STATICCALL ISZERO DUP1 ISZERO PUSH2 0x360C JUMPI RETURNDATASIZE PUSH0 DUP1 RETURNDATACOPY RETURNDATASIZE PUSH0 REVERT JUMPDEST PUSH1 0xC9 SLOAD PUSH1 0x40 DUP1 MLOAD PUSH4 0x602E6623 PUSH1 0xE0 SHL DUP2 MSTORE SWAP1 MLOAD PUSH0 SWAP3 PUSH1 0x1 PUSH1 0x1 PUSH1 0xA0 SHL SUB AND SWAP2 PUSH4 0x602E6623 SWAP2 PUSH1 0x4 DUP1 DUP4 ADD SWAP3 PUSH1 0x20 SWAP3 SWAP2 SWAP1 DUP3 SWAP1 SUB ADD DUP2 DUP7 GAS STATICCALL ISZERO DUP1 ISZERO PUSH2 0x360C JUMPI RETURNDATASIZE PUSH0 DUP1 RETURNDATACOPY RETURNDATASIZE PUSH0 REVERT JUMPDEST PUSH0 PUSH1 0xD6 SLOAD GT DUP1 ISZERO PUSH2 0x4514 JUMPI POP PUSH2 0x258 PUSH1 0xD6 SLOAD TIMESTAMP PUSH2 0x4512 SWAP2 SWAP1 PUSH2 0x570A JUMP JUMPDEST GT JUMPDEST ISZERO PUSH2 0x46BD JUMPI PUSH0 PUSH2 0x3E8 PUSH1 0xD4 SLOAD PUSH1 0x64 PUSH2 0x452C SWAP2 SWAP1 PUSH2 0x5807 JUMP JUMPDEST PUSH2 0x4536 SWAP2 SWAP1 PUSH2 0x5731 JUMP JUMPDEST SWAP1 POP DUP1 PUSH1 0xD4 PUSH0 DUP3 DUP3 SLOAD PUSH2 0x4549 SWAP2 SWAP1 PUSH2 0x570A JUMP JUMPDEST SWAP1 SWAP2 SSTORE POP POP DUP1 ISZERO PUSH2 0x46BB JUMPI PUSH2 0x455C PUSH2 0x4294 JUMP JUMPDEST PUSH1 0x1 PUSH1 0x1 PUSH1 0xA0 SHL SUB AND PUSH4 0xA9059CBB PUSH1 0xCB PUSH1 0x2 PUSH1 0xCB DUP1 SLOAD SWAP1 POP PUSH2 0x457E SWAP2 SWAP1 PUSH2 0x570A JUMP JUMPDEST DUP2 SLOAD DUP2 LT PUSH2 0x458E JUMPI PUSH2 0x458E PUSH2 0x56CF JUMP JUMPDEST PUSH0 SWAP2 DUP3 MSTORE PUSH1 0x20 SWAP1 SWAP2 KECCAK256 PUSH1 0x4 SWAP2 DUP3 MUL ADD SLOAD PUSH1 0x40 MLOAD PUSH1 0x1 PUSH1 0x1 PUSH1 0xE0 SHL SUB NOT PUSH1 0xE0 DUP6 SWAP1 SHL AND DUP2 MSTORE PUSH2 0x45CA SWAP3 PUSH1 0x1 PUSH1 0x1 PUSH1 0xA0 SHL SUB SWAP1 SWAP3 AND SWAP2 DUP7 SWAP2 ADD PUSH2 0x581E JUMP JUMPDEST PUSH1 0x20 PUSH1 0x40 MLOAD DUP1 DUP4 SUB DUP2 PUSH0 DUP8 GAS CALL ISZERO DUP1 ISZERO PUSH2 0x45E6 JUMPI RETURNDATASIZE PUSH0 DUP1 RETURNDATACOPY RETURNDATASIZE PUSH0 REVERT JUMPDEST POP POP POP POP PUSH1 0x40 MLOAD RETURNDATASIZE PUSH1 0x1F NOT PUSH1 0x1F DUP3 ADD AND DUP3 ADD DUP1 PUSH1 0x40 MSTORE POP DUP2 ADD SWAP1 PUSH2 0x460A SWAP2 SWAP1 PUSH2 0x57B6 JUMP JUMPDEST POP PUSH1 0xCD PUSH1 0x40 MLOAD DUP1 PUSH1 0x80 ADD PUSH1 0x40 MSTORE DUP1 PUSH1 0xCB PUSH1 0x2 PUSH1 0xCB DUP1 SLOAD SWAP1 POP PUSH2 0x462C SWAP2 SWAP1 PUSH2 0x570A JUMP JUMPDEST DUP2 SLOAD DUP2 LT PUSH2 0x463C JUMPI PUSH2 0x463C PUSH2 0x56CF JUMP JUMPDEST PUSH0 SWAP2 DUP3 MSTORE PUSH1 0x20 DUP1 DUP4 KECCAK256 PUSH1 0x4 SWAP3 DUP4 MUL ADD SLOAD PUSH1 0x1 PUSH1 0x1 PUSH1 0xA0 SHL SUB SWAP1 DUP2 AND DUP6 MSTORE DUP5 DUP3 ADD DUP9 SWAP1 MSTORE NUMBER PUSH1 0x40 DUP1 DUP8 ADD SWAP2 SWAP1 SWAP2 MSTORE TIMESTAMP PUSH1 0x60 SWAP7 DUP8 ADD MSTORE DUP8 SLOAD PUSH1 0x1 DUP1 DUP3 ADD DUP11 SSTORE SWAP9 DUP7 MSTORE SWAP5 DUP4 SWAP1 KECCAK256 DUP8 MLOAD SWAP6 SWAP1 SWAP5 MUL SWAP1 SWAP4 ADD DUP1 SLOAD PUSH1 0x1 PUSH1 0x1 PUSH1 0xA0 SHL SUB NOT AND SWAP5 SWAP1 SWAP2 AND SWAP4 SWAP1 SWAP4 OR DUP4 SSTORE DUP5 ADD MLOAD SWAP5 DUP3 ADD SWAP5 SWAP1 SWAP5 SSTORE SWAP3 DUP3 ADD MLOAD PUSH1 0x2 DUP5 ADD SSTORE ADD MLOAD PUSH1 0x3 SWAP1 SWAP2 ADD SSTORE JUMPDEST POP JUMPDEST TIMESTAMP PUSH1 0xD6 SSTORE JUMP JUMPDEST PUSH1 0xCB SLOAD PUSH1 0x1 SUB PUSH2 0x46CF JUMPI JUMP JUMPDEST PUSH0 PUSH1 0xCB PUSH1 0xD7 SLOAD DUP2 SLOAD DUP2 LT PUSH2 0x46E5 JUMPI PUSH2 0x46E5 PUSH2 0x56CF JUMP JUMPDEST PUSH0 SWAP2 DUP3 MSTORE PUSH1 0x20 SWAP2 DUP3 SWAP1 KECCAK256 PUSH1 0x40 DUP1 MLOAD PUSH1 0x80 DUP2 ADD DUP3 MSTORE PUSH1 0x4 SWAP1 SWAP4 MUL SWAP1 SWAP2 ADD DUP1 SLOAD PUSH1 0x1 PUSH1 0x1 PUSH1 0xA0 SHL SUB AND DUP4 MSTORE PUSH1 0x1 DUP2 ADD SLOAD SWAP4 DUP4 ADD SWAP4 SWAP1 SWAP4 MSTORE PUSH1 0x2 DUP4 ADD SLOAD SWAP1 DUP3 ADD DUP2 SWAP1 MSTORE PUSH1 0x3 SWAP1 SWAP3 ADD SLOAD PUSH1 0x60 DUP3 ADD MSTORE SWAP2 POP PUSH3 0x15180 SWAP1 PUSH2 0x4741 SWAP1 TIMESTAMP PUSH2 0x570A JUMP JUMPDEST GT DUP1 ISZERO PUSH2 0x475D JUMPI POP PUSH3 0x15180 PUSH1 0xD8 SLOAD TIMESTAMP PUSH2 0x475B SWAP2 SWAP1 PUSH2 0x570A JUMP JUMPDEST GT JUMPDEST ISZERO PUSH2 0x490D JUMPI PUSH0 PUSH2 0x3E8 PUSH1 0xD5 SLOAD PUSH2 0x1F4 PUSH2 0x4776 SWAP2 SWAP1 PUSH2 0x5807 JUMP JUMPDEST PUSH2 0x4780 SWAP2 SWAP1 PUSH2 0x5731 JUMP JUMPDEST SWAP1 POP DUP1 PUSH1 0xD5 PUSH0 DUP3 DUP3 SLOAD PUSH2 0x4793 SWAP2 SWAP1 PUSH2 0x570A JUMP JUMPDEST SWAP1 SWAP2 SSTORE POP POP DUP1 ISZERO PUSH2 0x4907 JUMPI PUSH2 0x47A6 PUSH2 0x4294 JUMP JUMPDEST DUP3 MLOAD PUSH1 0x40 MLOAD PUSH4 0xA9059CBB PUSH1 0xE0 SHL DUP2 MSTORE PUSH1 0x1 PUSH1 0x1 PUSH1 0xA0 SHL SUB SWAP3 SWAP1 SWAP3 AND SWAP2 PUSH4 0xA9059CBB SWAP2 PUSH2 0x47D6 SWAP2 DUP6 SWAP1 PUSH1 0x4 ADD PUSH2 0x581E JUMP JUMPDEST PUSH1 0x20 PUSH1 0x40 MLOAD DUP1 DUP4 SUB DUP2 PUSH0 DUP8 GAS CALL ISZERO DUP1 ISZERO PUSH2 0x47F2 JUMPI RETURNDATASIZE PUSH0 DUP1 RETURNDATACOPY RETURNDATASIZE PUSH0 REVERT JUMPDEST POP POP POP POP PUSH1 0x40 MLOAD RETURNDATASIZE PUSH1 0x1F NOT PUSH1 0x1F DUP3 ADD AND DUP3 ADD DUP1 PUSH1 0x40 MSTORE POP DUP2 ADD SWAP1 PUSH2 0x4816 SWAP2 SWAP1 PUSH2 0x57B6 JUMP JUMPDEST POP PUSH1 0x40 DUP1 MLOAD PUSH1 0x80 DUP2 ADD DUP3 MSTORE DUP4 MLOAD PUSH1 0x1 PUSH1 0x1 PUSH1 0xA0 SHL SUB SWAP1 DUP2 AND DUP3 MSTORE PUSH1 0x20 DUP3 ADD DUP5 DUP2 MSTORE NUMBER SWAP4 DUP4 ADD SWAP4 DUP5 MSTORE TIMESTAMP PUSH1 0x60 DUP5 ADD SWAP1 DUP2 MSTORE PUSH1 0xCE DUP1 SLOAD PUSH1 0x1 DUP2 ADD DUP3 SSTORE PUSH0 SWAP2 SWAP1 SWAP2 MSTORE SWAP4 MLOAD PUSH32 0xD36CD1C74EF8D7326D8021B776C18FB5A5724B7F7BC93C2F42E43E10EF27D12A PUSH1 0x4 SWAP1 SWAP6 MUL SWAP5 DUP6 ADD DUP1 SLOAD PUSH1 0x1 PUSH1 0x1 PUSH1 0xA0 SHL SUB NOT AND SWAP2 SWAP1 SWAP5 AND OR SWAP1 SWAP3 SSTORE MLOAD PUSH32 0xD36CD1C74EF8D7326D8021B776C18FB5A5724B7F7BC93C2F42E43E10EF27D12B DUP4 ADD SSTORE SWAP2 MLOAD PUSH32 0xD36CD1C74EF8D7326D8021B776C18FB5A5724B7F7BC93C2F42E43E10EF27D12C DUP3 ADD SSTORE SWAP1 MLOAD PUSH32 0xD36CD1C74EF8D7326D8021B776C18FB5A5724B7F7BC93C2F42E43E10EF27D12D SWAP1 SWAP2 ADD SSTORE JUMPDEST POP TIMESTAMP PUSH1 0xD8 SSTORE JUMPDEST PUSH1 0x20 DUP2 ADD MLOAD PUSH1 0xCB DUP1 SLOAD PUSH2 0x4922 SWAP1 PUSH1 0x1 SWAP1 PUSH2 0x570A JUMP JUMPDEST DUP2 SLOAD DUP2 LT PUSH2 0x4932 JUMPI PUSH2 0x4932 PUSH2 0x56CF JUMP JUMPDEST SWAP1 PUSH0 MSTORE PUSH1 0x20 PUSH0 KECCAK256 SWAP1 PUSH1 0x4 MUL ADD PUSH1 0x1 ADD SLOAD GT ISZERO PUSH2 0x43D JUMPI PUSH1 0xCB SLOAD PUSH2 0x4957 SWAP1 PUSH1 0x1 SWAP1 PUSH2 0x570A JUMP JUMPDEST PUSH1 0xD7 SSTORE POP JUMP JUMPDEST PUSH1 0xC9 SLOAD PUSH1 0x40 DUP1 MLOAD PUSH4 0x16C42977 PUSH1 0xE1 SHL DUP2 MSTORE SWAP1 MLOAD PUSH0 SWAP3 PUSH1 0x1 PUSH1 0x1 PUSH1 0xA0 SHL SUB AND SWAP2 PUSH4 0x2D8852EE SWAP2 PUSH1 0x4 DUP1 DUP4 ADD SWAP3 PUSH1 0x20 SWAP3 SWAP2 SWAP1 DUP3 SWAP1 SUB ADD DUP2 DUP7 GAS STATICCALL ISZERO DUP1 ISZERO PUSH2 0x49A4 JUMPI RETURNDATASIZE PUSH0 DUP1 RETURNDATACOPY RETURNDATASIZE PUSH0 REVERT JUMPDEST POP POP POP POP PUSH1 0x40 MLOAD RETURNDATASIZE PUSH1 0x1F NOT PUSH1 0x1F DUP3 ADD AND DUP3 ADD DUP1 PUSH1 0x40 MSTORE POP DUP2 ADD SWAP1 PUSH2 0x21BD SWAP2 SWAP1 PUSH2 0x57F0 JUMP JUMPDEST PUSH1 0x33 DUP1 SLOAD PUSH1 0x1 PUSH1 0x1 PUSH1 0xA0 SHL SUB DUP4 DUP2 AND PUSH1 0x1 PUSH1 0x1 PUSH1 0xA0 SHL SUB NOT DUP4 AND DUP2 OR SWAP1 SWAP4 SSTORE PUSH1 0x40 MLOAD SWAP2 AND SWAP2 SWAP1 DUP3 SWAP1 PUSH32 0x8BE0079C531659141344CD1FD0A4F28419497F9722A3DAAFE3B4186F6B6457E0 SWAP1 PUSH0 SWAP1 LOG3 POP POP JUMP JUMPDEST PUSH1 0x1 PUSH1 0x1 PUSH1 0xA0 SHL SUB AND EXTCODESIZE ISZERO ISZERO SWAP1 JUMP JUMPDEST PUSH0 SLOAD PUSH2 0x100 SWAP1 DIV PUSH1 0xFF AND PUSH2 0x4A4E JUMPI PUSH1 0x40 MLOAD PUSH3 0x461BCD PUSH1 0xE5 SHL DUP2 MSTORE PUSH1 0x4 ADD PUSH2 0xB51 SWAP1 PUSH2 0x5A16 JUMP JUMPDEST PUSH2 0x21B2 PUSH2 0x4C3E JUMP JUMPDEST PUSH0 DUP1 PUSH0 PUSH2 0x4A63 DUP6 DUP6 PUSH2 0x4C6D JUMP JUMPDEST SWAP2 POP SWAP2 POP PUSH2 0x4A70 DUP2 PUSH2 0x4CAF JUMP JUMPDEST POP SWAP1 POP JUMPDEST SWAP3 SWAP2 POP POP JUMP JUMPDEST PUSH0 DUP1 DUP1 DUP1 DUP1 DUP1 PUSH2 0x4A95 PUSH2 0x4A90 PUSH3 0x15180 DUP10 PUSH2 0x5731 JUMP JUMPDEST PUSH2 0x4DF3 JUMP JUMPDEST SWAP2 SWAP8 POP SWAP6 POP SWAP4 POP PUSH0 PUSH2 0x4AAA PUSH3 0x15180 DUP10 PUSH2 0x5A61 JUMP JUMPDEST SWAP1 POP PUSH2 0x4AB8 PUSH2 0xE10 DUP3 PUSH2 0x5731 JUMP JUMPDEST SWAP4 POP PUSH2 0x4AC6 PUSH2 0xE10 DUP3 PUSH2 0x5A61 JUMP JUMPDEST SWAP1 POP PUSH2 0x4AD3 PUSH1 0x3C DUP3 PUSH2 0x5731 JUMP JUMPDEST SWAP3 POP PUSH2 0x4AE0 PUSH1 0x3C DUP3 PUSH2 0x5A61 JUMP JUMPDEST SWAP2 POP POP SWAP2 SWAP4 SWAP6 POP SWAP2 SWAP4 SWAP6 JUMP JUMPDEST PUSH1 0x60 PUSH0 PUSH2 0x4AF8 DUP4 PUSH2 0x4F62 JUMP JUMPDEST PUSH1 0x1 ADD SWAP1 POP PUSH0 DUP2 PUSH1 0x1 PUSH1 0x1 PUSH1 0x40 SHL SUB DUP2 GT ISZERO PUSH2 0x4B16 JUMPI PUSH2 0x4B16 PUSH2 0x538A JUMP JUMPDEST PUSH1 0x40 MLOAD SWAP1 DUP1 DUP3 MSTORE DUP1 PUSH1 0x1F ADD PUSH1 0x1F NOT AND PUSH1 0x20 ADD DUP3 ADD PUSH1 0x40 MSTORE DUP1 ISZERO PUSH2 0x4B40 JUMPI PUSH1 0x20 DUP3 ADD DUP2 DUP1 CALLDATASIZE DUP4 CALLDATACOPY ADD SWAP1 POP JUMPDEST POP SWAP1 POP DUP2 DUP2 ADD PUSH1 0x20 ADD JUMPDEST PUSH0 NOT ADD PUSH16 0x181899199A1A9B1B9C1CB0B131B232B3 PUSH1 0x81 SHL PUSH1 0xA DUP7 MOD BYTE DUP2 MSTORE8 PUSH1 0xA DUP6 DIV SWAP5 POP DUP5 PUSH2 0x4B4A JUMPI POP SWAP4 SWAP3 POP POP POP JUMP JUMPDEST PUSH2 0x4B84 DUP2 PUSH2 0x4A19 JUMP JUMPDEST PUSH2 0x4BE6 JUMPI PUSH1 0x40 MLOAD PUSH3 0x461BCD PUSH1 0xE5 SHL DUP2 MSTORE PUSH1 0x20 PUSH1 0x4 DUP3 ADD MSTORE PUSH1 0x2D PUSH1 0x24 DUP3 ADD MSTORE PUSH32 0x455243313936373A206E657720696D706C656D656E746174696F6E206973206E PUSH1 0x44 DUP3 ADD MSTORE PUSH13 0x1BDD08184818DBDB9D1C9858DD PUSH1 0x9A SHL PUSH1 0x64 DUP3 ADD MSTORE PUSH1 0x84 ADD PUSH2 0xB51 JUMP JUMPDEST PUSH0 DUP1 MLOAD PUSH1 0x20 PUSH2 0x5BDB DUP4 CODECOPY DUP2 MLOAD SWAP2 MSTORE DUP1 SLOAD PUSH1 0x1 PUSH1 0x1 PUSH1 0xA0 SHL SUB NOT AND PUSH1 0x1 PUSH1 0x1 PUSH1 0xA0 SHL SUB SWAP3 SWAP1 SWAP3 AND SWAP2 SWAP1 SWAP2 OR SWAP1 SSTORE JUMP JUMPDEST PUSH2 0x4C1D DUP4 PUSH2 0x5037 JUMP JUMPDEST PUSH0 DUP3 MLOAD GT DUP1 PUSH2 0x4C29 JUMPI POP DUP1 JUMPDEST ISZERO PUSH2 0x1D64 JUMPI PUSH2 0x4C38 DUP4 DUP4 PUSH2 0x5076 JUMP JUMPDEST POP POP POP POP JUMP JUMPDEST PUSH0 SLOAD PUSH2 0x100 SWAP1 DIV PUSH1 0xFF AND PUSH2 0x4C64 JUMPI PUSH1 0x40 MLOAD PUSH3 0x461BCD PUSH1 0xE5 SHL DUP2 MSTORE PUSH1 0x4 ADD PUSH2 0xB51 SWAP1 PUSH2 0x5A16 JUMP JUMPDEST PUSH2 0x21B2 CALLER PUSH2 0x49C8 JUMP JUMPDEST PUSH0 DUP1 DUP3 MLOAD PUSH1 0x41 SUB PUSH2 0x4CA1 JUMPI PUSH1 0x20 DUP4 ADD MLOAD PUSH1 0x40 DUP5 ADD MLOAD PUSH1 0x60 DUP6 ADD MLOAD PUSH0 BYTE PUSH2 0x4C95 DUP8 DUP3 DUP6 DUP6 PUSH2 0x5164 JUMP JUMPDEST SWAP5 POP SWAP5 POP POP POP POP PUSH2 0x4CA8 JUMP JUMPDEST POP PUSH0 SWAP1 POP PUSH1 0x2 JUMPDEST SWAP3 POP SWAP3 SWAP1 POP JUMP JUMPDEST PUSH0 DUP2 PUSH1 0x4 DUP2 GT ISZERO PUSH2 0x4CC2 JUMPI PUSH2 0x4CC2 PUSH2 0x5A74 JUMP JUMPDEST SUB PUSH2 0x4CCA JUMPI POP JUMP JUMPDEST PUSH1 0x1 DUP2 PUSH1 0x4 DUP2 GT ISZERO PUSH2 0x4CDE JUMPI PUSH2 0x4CDE PUSH2 0x5A74 JUMP JUMPDEST SUB PUSH2 0x4D26 JUMPI PUSH1 0x40 MLOAD PUSH3 0x461BCD PUSH1 0xE5 SHL DUP2 MSTORE PUSH1 0x20 PUSH1 0x4 DUP3 ADD MSTORE PUSH1 0x18 PUSH1 0x24 DUP3 ADD MSTORE PUSH24 0x45434453413A20696E76616C6964207369676E6174757265 PUSH1 0x40 SHL PUSH1 0x44 DUP3 ADD MSTORE PUSH1 0x64 ADD PUSH2 0xB51 JUMP JUMPDEST PUSH1 0x2 DUP2 PUSH1 0x4 DUP2 GT ISZERO PUSH2 0x4D3A JUMPI PUSH2 0x4D3A PUSH2 0x5A74 JUMP JUMPDEST SUB PUSH2 0x4D87 JUMPI PUSH1 0x40 MLOAD PUSH3 0x461BCD PUSH1 0xE5 SHL DUP2 MSTORE PUSH1 0x20 PUSH1 0x4 DUP3 ADD MSTORE PUSH1 0x1F PUSH1 0x24 DUP3 ADD MSTORE PUSH32 0x45434453413A20696E76616C6964207369676E6174757265206C656E67746800 PUSH1 0x44 DUP3 ADD MSTORE PUSH1 0x64 ADD PUSH2 0xB51 JUMP JUMPDEST PUSH1 0x3 DUP2 PUSH1 0x4 DUP2 GT ISZERO PUSH2 0x4D9B JUMPI PUSH2 0x4D9B PUSH2 0x5A74 JUMP JUMPDEST SUB PUSH2 0x43D JUMPI PUSH1 0x40 MLOAD PUSH3 0x461BCD PUSH1 0xE5 SHL DUP2 MSTORE PUSH1 0x20 PUSH1 0x4 DUP3 ADD MSTORE PUSH1 0x22 PUSH1 0x24 DUP3 ADD MSTORE PUSH32 0x45434453413A20696E76616C6964207369676E6174757265202773272076616C PUSH1 0x44 DUP3 ADD MSTORE PUSH2 0x7565 PUSH1 0xF0 SHL PUSH1 0x64 DUP3 ADD MSTORE PUSH1 0x84 ADD PUSH2 0xB51 JUMP JUMPDEST PUSH0 DUP1 DUP1 DUP4 DUP2 PUSH3 0x253D8C PUSH2 0x4E09 DUP4 PUSH3 0x10BD9 PUSH2 0x5A88 JUMP JUMPDEST PUSH2 0x4E13 SWAP2 SWAP1 PUSH2 0x5A88 JUMP JUMPDEST SWAP1 POP PUSH0 PUSH3 0x23AB1 PUSH2 0x4E25 DUP4 PUSH1 0x4 PUSH2 0x5AA7 JUMP JUMPDEST PUSH2 0x4E2F SWAP2 SWAP1 PUSH2 0x5AD6 JUMP JUMPDEST SWAP1 POP PUSH1 0x4 PUSH2 0x4E40 DUP3 PUSH3 0x23AB1 PUSH2 0x5AA7 JUMP JUMPDEST PUSH2 0x4E4B SWAP1 PUSH1 0x3 PUSH2 0x5A88 JUMP JUMPDEST PUSH2 0x4E55 SWAP2 SWAP1 PUSH2 0x5AD6 JUMP JUMPDEST PUSH2 0x4E5F SWAP1 DUP4 PUSH2 0x5B02 JUMP JUMPDEST SWAP2 POP PUSH0 PUSH3 0x164B09 PUSH2 0x4E71 DUP5 PUSH1 0x1 PUSH2 0x5A88 JUMP JUMPDEST PUSH2 0x4E7D SWAP1 PUSH2 0xFA0 PUSH2 0x5AA7 JUMP JUMPDEST PUSH2 0x4E87 SWAP2 SWAP1 PUSH2 0x5AD6 JUMP JUMPDEST SWAP1 POP PUSH1 0x4 PUSH2 0x4E97 DUP3 PUSH2 0x5B5 PUSH2 0x5AA7 JUMP JUMPDEST PUSH2 0x4EA1 SWAP2 SWAP1 PUSH2 0x5AD6 JUMP JUMPDEST PUSH2 0x4EAB SWAP1 DUP5 PUSH2 0x5B02 JUMP JUMPDEST PUSH2 0x4EB6 SWAP1 PUSH1 0x1F PUSH2 0x5A88 JUMP JUMPDEST SWAP3 POP PUSH0 PUSH2 0x98F PUSH2 0x4EC7 DUP6 PUSH1 0x50 PUSH2 0x5AA7 JUMP JUMPDEST PUSH2 0x4ED1 SWAP2 SWAP1 PUSH2 0x5AD6 JUMP JUMPDEST SWAP1 POP PUSH0 PUSH1 0x50 PUSH2 0x4EE2 DUP4 PUSH2 0x98F PUSH2 0x5AA7 JUMP JUMPDEST PUSH2 0x4EEC SWAP2 SWAP1 PUSH2 0x5AD6 JUMP JUMPDEST PUSH2 0x4EF6 SWAP1 DUP7 PUSH2 0x5B02 JUMP JUMPDEST SWAP1 POP PUSH2 0x4F03 PUSH1 0xB DUP4 PUSH2 0x5AD6 JUMP JUMPDEST SWAP5 POP PUSH2 0x4F10 DUP6 PUSH1 0xC PUSH2 0x5AA7 JUMP JUMPDEST PUSH2 0x4F1B DUP4 PUSH1 0x2 PUSH2 0x5A88 JUMP JUMPDEST PUSH2 0x4F25 SWAP2 SWAP1 PUSH2 0x5B02 JUMP JUMPDEST SWAP2 POP DUP5 DUP4 PUSH2 0x4F34 PUSH1 0x31 DUP8 PUSH2 0x5B02 JUMP JUMPDEST PUSH2 0x4F3F SWAP1 PUSH1 0x64 PUSH2 0x5AA7 JUMP JUMPDEST PUSH2 0x4F49 SWAP2 SWAP1 PUSH2 0x5A88 JUMP JUMPDEST PUSH2 0x4F53 SWAP2 SWAP1 PUSH2 0x5A88 JUMP JUMPDEST SWAP11 SWAP2 SWAP10 POP SWAP8 POP SWAP6 POP POP POP POP POP POP JUMP JUMPDEST PUSH0 DUP1 PUSH19 0x184F03E93FF9F4DAA797ED6E38ED64BF6A1F01 PUSH1 0x40 SHL DUP4 LT PUSH2 0x4FA0 JUMPI PUSH19 0x184F03E93FF9F4DAA797ED6E38ED64BF6A1F01 PUSH1 0x40 SHL DUP4 DIV SWAP3 POP PUSH1 0x40 ADD JUMPDEST PUSH10 0x4EE2D6D415B85ACEF81 PUSH1 0x20 SHL DUP4 LT PUSH2 0x4FCA JUMPI PUSH10 0x4EE2D6D415B85ACEF81 PUSH1 0x20 SHL DUP4 DIV SWAP3 POP PUSH1 0x20 ADD JUMPDEST PUSH7 0x2386F26FC10000 DUP4 LT PUSH2 0x4FE8 JUMPI PUSH7 0x2386F26FC10000 DUP4 DIV SWAP3 POP PUSH1 0x10 ADD JUMPDEST PUSH4 0x5F5E100 DUP4 LT PUSH2 0x5000 JUMPI PUSH4 0x5F5E100 DUP4 DIV SWAP3 POP PUSH1 0x8 ADD JUMPDEST PUSH2 0x2710 DUP4 LT PUSH2 0x5014 JUMPI PUSH2 0x2710 DUP4 DIV SWAP3 POP PUSH1 0x4 ADD JUMPDEST PUSH1 0x64 DUP4 LT PUSH2 0x5026 JUMPI PUSH1 0x64 DUP4 DIV SWAP3 POP PUSH1 0x2 ADD JUMPDEST PUSH1 0xA DUP4 LT PUSH2 0x4A74 JUMPI PUSH1 0x1 ADD SWAP3 SWAP2 POP POP JUMP JUMPDEST PUSH2 0x5040 DUP2 PUSH2 0x4B7B JUMP JUMPDEST PUSH1 0x40 MLOAD PUSH1 0x1 PUSH1 0x1 PUSH1 0xA0 SHL SUB DUP3 AND SWAP1 PUSH32 0xBC7CD75A20EE27FD9ADEBAB32041F755214DBC6BFFA90CC0225B39DA2E5C2D3B SWAP1 PUSH0 SWAP1 LOG2 POP JUMP JUMPDEST PUSH1 0x60 PUSH2 0x5081 DUP4 PUSH2 0x4A19 JUMP JUMPDEST PUSH2 0x50DC JUMPI PUSH1 0x40 MLOAD PUSH3 0x461BCD PUSH1 0xE5 SHL DUP2 MSTORE PUSH1 0x20 PUSH1 0x4 DUP3 ADD MSTORE PUSH1 0x26 PUSH1 0x24 DUP3 ADD MSTORE PUSH32 0x416464726573733A2064656C65676174652063616C6C20746F206E6F6E2D636F PUSH1 0x44 DUP3 ADD MSTORE PUSH6 0x1B9D1C9858DD PUSH1 0xD2 SHL PUSH1 0x64 DUP3 ADD MSTORE PUSH1 0x84 ADD PUSH2 0xB51 JUMP JUMPDEST PUSH0 DUP1 DUP5 PUSH1 0x1 PUSH1 0x1 PUSH1 0xA0 SHL SUB AND DUP5 PUSH1 0x40 MLOAD PUSH2 0x50F6 SWAP2 SWAP1 PUSH2 0x59FB JUMP JUMPDEST PUSH0 PUSH1 0x40 MLOAD DUP1 DUP4 SUB DUP2 DUP6 GAS DELEGATECALL SWAP2 POP POP RETURNDATASIZE DUP1 PUSH0 DUP2 EQ PUSH2 0x512E JUMPI PUSH1 0x40 MLOAD SWAP2 POP PUSH1 0x1F NOT PUSH1 0x3F RETURNDATASIZE ADD AND DUP3 ADD PUSH1 0x40 MSTORE RETURNDATASIZE DUP3 MSTORE RETURNDATASIZE PUSH0 PUSH1 0x20 DUP5 ADD RETURNDATACOPY PUSH2 0x5133 JUMP JUMPDEST PUSH1 0x60 SWAP2 POP JUMPDEST POP SWAP2 POP SWAP2 POP PUSH2 0x515B DUP3 DUP3 PUSH1 0x40 MLOAD DUP1 PUSH1 0x60 ADD PUSH1 0x40 MSTORE DUP1 PUSH1 0x27 DUP2 MSTORE PUSH1 0x20 ADD PUSH2 0x5BFB PUSH1 0x27 SWAP2 CODECOPY PUSH2 0x5217 JUMP JUMPDEST SWAP6 SWAP5 POP POP POP POP POP JUMP JUMPDEST PUSH0 DUP1 PUSH16 0xA2A8918CA85BAFE22016D0B997E4DF60 PUSH1 0x1 PUSH1 0xFF SHL SUB DUP4 GT ISZERO PUSH2 0x518F JUMPI POP PUSH0 SWAP1 POP PUSH1 0x3 PUSH2 0x520E JUMP JUMPDEST PUSH1 0x40 DUP1 MLOAD PUSH0 DUP1 DUP3 MSTORE PUSH1 0x20 DUP3 ADD DUP1 DUP5 MSTORE DUP10 SWAP1 MSTORE PUSH1 0xFF DUP9 AND SWAP3 DUP3 ADD SWAP3 SWAP1 SWAP3 MSTORE PUSH1 0x60 DUP2 ADD DUP7 SWAP1 MSTORE PUSH1 0x80 DUP2 ADD DUP6 SWAP1 MSTORE PUSH1 0x1 SWAP1 PUSH1 0xA0 ADD PUSH1 0x20 PUSH1 0x40 MLOAD PUSH1 0x20 DUP2 SUB SWAP1 DUP1 DUP5 SUB SWAP1 DUP6 GAS STATICCALL ISZERO DUP1 ISZERO PUSH2 0x51E0 JUMPI RETURNDATASIZE PUSH0 DUP1 RETURNDATACOPY RETURNDATASIZE PUSH0 REVERT JUMPDEST POP POP PUSH1 0x40 MLOAD PUSH1 0x1F NOT ADD MLOAD SWAP2 POP POP PUSH1 0x1 PUSH1 0x1 PUSH1 0xA0 SHL SUB DUP2 AND PUSH2 0x5208 JUMPI PUSH0 PUSH1 0x1 SWAP3 POP SWAP3 POP POP PUSH2 0x520E JUMP JUMPDEST SWAP2 POP PUSH0 SWAP1 POP JUMPDEST SWAP5 POP SWAP5 SWAP3 POP POP POP JUMP JUMPDEST PUSH1 0x60 DUP4 ISZERO PUSH2 0x5226 JUMPI POP DUP2 PUSH2 0x5230 JUMP JUMPDEST PUSH2 0x5230 DUP4 DUP4 PUSH2 0x5237 JUMP JUMPDEST SWAP4 SWAP3 POP POP POP JUMP JUMPDEST DUP2 MLOAD ISZERO PUSH2 0x5247 JUMPI DUP2 MLOAD DUP1 DUP4 PUSH1 0x20 ADD REVERT JUMPDEST DUP1 PUSH1 0x40 MLOAD PUSH3 0x461BCD PUSH1 0xE5 SHL DUP2 MSTORE PUSH1 0x4 ADD PUSH2 0xB51 SWAP2 SWAP1 PUSH2 0x5B28 JUMP JUMPDEST PUSH1 0x40 MLOAD DUP1 PUSH1 0x80 ADD PUSH1 0x40 MSTORE DUP1 PUSH0 PUSH1 0x1 PUSH1 0x1 PUSH1 0xA0 SHL SUB AND DUP2 MSTORE PUSH1 0x20 ADD PUSH0 DUP2 MSTORE PUSH1 0x20 ADD PUSH0 DUP2 MSTORE PUSH1 0x20 ADD PUSH0 DUP2 MSTORE POP SWAP1 JUMP JUMPDEST PUSH1 0x1 PUSH1 0x1 PUSH1 0xA0 SHL SUB DUP2 AND DUP2 EQ PUSH2 0x43D JUMPI PUSH0 DUP1 REVERT JUMPDEST PUSH0 PUSH1 0x20 DUP3 DUP5 SUB SLT ISZERO PUSH2 0x52B2 JUMPI PUSH0 DUP1 REVERT JUMPDEST DUP2 CALLDATALOAD PUSH2 0x5230 DUP2 PUSH2 0x528E JUMP JUMPDEST DUP1 MLOAD DUP3 MSTORE PUSH1 0x20 DUP2 ADD MLOAD PUSH1 0x20 DUP4 ADD MSTORE PUSH1 0x40 DUP2 ADD MLOAD PUSH1 0x40 DUP4 ADD MSTORE PUSH1 0x60 DUP2 ADD MLOAD PUSH1 0x60 DUP4 ADD MSTORE POP POP JUMP JUMPDEST PUSH1 0x80 DUP2 ADD PUSH2 0x4A74 DUP3 DUP5 PUSH2 0x52BD JUMP JUMPDEST DUP2 MLOAD DUP2 MSTORE PUSH1 0x20 DUP1 DUP4 ADD MLOAD SWAP1 DUP3 ADD MSTORE PUSH1 0x40 DUP1 DUP4 ADD MLOAD SWAP1 DUP3 ADD MSTORE PUSH1 0x60 DUP1 DUP4 ADD MLOAD SWAP1 DUP3 ADD MSTORE PUSH1 0x80 DUP1 DUP4 ADD MLOAD PUSH1 0x1 PUSH1 0x1 PUSH1 0xA0 SHL SUB AND SWAP1 DUP3 ADD MSTORE PUSH1 0xA0 DUP2 ADD PUSH2 0x4A74 JUMP JUMPDEST PUSH0 PUSH1 0x20 DUP3 DUP5 SUB SLT ISZERO PUSH2 0x533F JUMPI PUSH0 DUP1 REVERT JUMPDEST POP CALLDATALOAD SWAP2 SWAP1 POP JUMP JUMPDEST PUSH1 0x1 PUSH1 0x1 PUSH1 0xA0 SHL SUB SWAP4 DUP5 AND DUP2 MSTORE SWAP2 SWAP1 SWAP3 AND PUSH1 0x20 DUP3 ADD MSTORE PUSH1 0x40 DUP2 ADD SWAP2 SWAP1 SWAP2 MSTORE PUSH1 0x60 ADD SWAP1 JUMP JUMPDEST PUSH0 DUP1 PUSH1 0x40 DUP4 DUP6 SUB SLT ISZERO PUSH2 0x537B JUMPI PUSH0 DUP1 REVERT JUMPDEST POP POP DUP1 CALLDATALOAD SWAP3 PUSH1 0x20 SWAP1 SWAP2 ADD CALLDATALOAD SWAP2 POP JUMP JUMPDEST PUSH4 0x4E487B71 PUSH1 0xE0 SHL PUSH0 MSTORE PUSH1 0x41 PUSH1 0x4 MSTORE PUSH1 0x24 PUSH0 REVERT JUMPDEST PUSH0 PUSH1 0x1 PUSH1 0x1 PUSH1 0x40 SHL SUB DUP1 DUP5 GT ISZERO PUSH2 0x53B7 JUMPI PUSH2 0x53B7 PUSH2 0x538A JUMP JUMPDEST PUSH1 0x40 MLOAD PUSH1 0x1F DUP6 ADD PUSH1 0x1F NOT SWAP1 DUP2 AND PUSH1 0x3F ADD AND DUP2 ADD SWAP1 DUP3 DUP3 GT DUP2 DUP4 LT OR ISZERO PUSH2 0x53DF JUMPI PUSH2 0x53DF PUSH2 0x538A JUMP JUMPDEST DUP2 PUSH1 0x40 MSTORE DUP1 SWAP4 POP DUP6 DUP2 MSTORE DUP7 DUP7 DUP7 ADD GT ISZERO PUSH2 0x53F7 JUMPI PUSH0 DUP1 REVERT JUMPDEST DUP6 DUP6 PUSH1 0x20 DUP4 ADD CALLDATACOPY PUSH0 PUSH1 0x20 DUP8 DUP4 ADD ADD MSTORE POP POP POP SWAP4 SWAP3 POP POP POP JUMP JUMPDEST PUSH0 DUP3 PUSH1 0x1F DUP4 ADD SLT PUSH2 0x541F JUMPI PUSH0 DUP1 REVERT JUMPDEST PUSH2 0x5230 DUP4 DUP4 CALLDATALOAD PUSH1 0x20 DUP6 ADD PUSH2 0x539E JUMP JUMPDEST PUSH0 DUP1 PUSH1 0x40 DUP4 DUP6 SUB SLT ISZERO PUSH2 0x543F JUMPI PUSH0 DUP1 REVERT JUMPDEST DUP3 CALLDATALOAD PUSH2 0x544A DUP2 PUSH2 0x528E JUMP JUMPDEST SWAP2 POP PUSH1 0x20 DUP4 ADD CALLDATALOAD PUSH1 0x1 PUSH1 0x1 PUSH1 0x40 SHL SUB DUP2 GT ISZERO PUSH2 0x5464 JUMPI PUSH0 DUP1 REVERT JUMPDEST PUSH2 0x5470 DUP6 DUP3 DUP7 ADD PUSH2 0x5410 JUMP JUMPDEST SWAP2 POP POP SWAP3 POP SWAP3 SWAP1 POP JUMP JUMPDEST PUSH1 0x20 DUP1 DUP3 MSTORE DUP3 MLOAD DUP3 DUP3 ADD DUP2 SWAP1 MSTORE PUSH0 SWAP2 SWAP1 PUSH1 0x40 SWAP1 DUP2 DUP6 ADD SWAP1 DUP7 DUP5 ADD DUP6 JUMPDEST DUP3 DUP2 LT ISZERO PUSH2 0x54D1 JUMPI DUP2 MLOAD DUP1 MLOAD PUSH1 0x1 PUSH1 0x1 PUSH1 0xA0 SHL SUB SWAP1 DUP2 AND DUP7 MSTORE DUP8 DUP3 ADD MLOAD AND DUP8 DUP7 ADD MSTORE DUP6 ADD MLOAD DUP6 DUP6 ADD MSTORE PUSH1 0x60 SWAP1 SWAP4 ADD SWAP3 SWAP1 DUP6 ADD SWAP1 PUSH1 0x1 ADD PUSH2 0x5496 JUMP JUMPDEST POP SWAP2 SWAP8 SWAP7 POP POP POP POP POP POP POP JUMP JUMPDEST PUSH0 DUP1 PUSH1 0x40 DUP4 DUP6 SUB SLT ISZERO PUSH2 0x54EF JUMPI PUSH0 DUP1 REVERT JUMPDEST DUP3 CALLDATALOAD PUSH2 0x54FA DUP2 PUSH2 0x528E JUMP JUMPDEST SWAP5 PUSH1 0x20 SWAP4 SWAP1 SWAP4 ADD CALLDATALOAD SWAP4 POP POP POP JUMP JUMPDEST DUP1 MLOAD PUSH1 0x1 PUSH1 0x1 PUSH1 0xA0 SHL SUB AND DUP3 MSTORE PUSH1 0x20 DUP1 DUP3 ADD MLOAD SWAP1 DUP4 ADD MSTORE PUSH1 0x40 DUP1 DUP3 ADD MLOAD SWAP1 DUP4 ADD MSTORE PUSH1 0x60 SWAP1 DUP2 ADD MLOAD SWAP2 ADD MSTORE JUMP JUMPDEST PUSH1 0x80 DUP2 ADD PUSH2 0x4A74 DUP3 DUP5 PUSH2 0x5508 JUMP JUMPDEST PUSH1 0x1 PUSH1 0x1 PUSH1 0xA0 SHL SUB SWAP2 SWAP1 SWAP2 AND DUP2 MSTORE PUSH1 0x20 ADD SWAP1 JUMP JUMPDEST PUSH1 0x20 DUP1 DUP3 MSTORE DUP3 MLOAD DUP3 DUP3 ADD DUP2 SWAP1 MSTORE PUSH0 SWAP2 SWAP1 DUP5 DUP3 ADD SWAP1 PUSH1 0x40 DUP6 ADD SWAP1 DUP5 JUMPDEST DUP2 DUP2 LT ISZERO PUSH2 0x5597 JUMPI PUSH2 0x5584 DUP4 DUP6 MLOAD PUSH2 0x5508 JUMP JUMPDEST SWAP3 DUP5 ADD SWAP3 PUSH1 0x80 SWAP3 SWAP1 SWAP3 ADD SWAP2 PUSH1 0x1 ADD PUSH2 0x5571 JUMP JUMPDEST POP SWAP1 SWAP7 SWAP6 POP POP POP POP POP POP JUMP JUMPDEST PUSH0 DUP1 PUSH0 DUP1 PUSH0 PUSH1 0xA0 DUP7 DUP9 SUB SLT ISZERO PUSH2 0x55B7 JUMPI PUSH0 DUP1 REVERT JUMPDEST DUP6 CALLDATALOAD SWAP5 POP PUSH1 0x20 DUP7 ADD CALLDATALOAD SWAP4 POP PUSH1 0x40 DUP7 ADD CALLDATALOAD SWAP3 POP PUSH1 0x60 DUP7 ADD CALLDATALOAD SWAP2 POP PUSH1 0x80 DUP7 ADD CALLDATALOAD PUSH1 0x1 PUSH1 0x1 PUSH1 0x40 SHL SUB DUP2 GT ISZERO PUSH2 0x55E8 JUMPI PUSH0 DUP1 REVERT JUMPDEST PUSH2 0x55F4 DUP9 DUP3 DUP10 ADD PUSH2 0x5410 JUMP JUMPDEST SWAP2 POP POP SWAP3 SWAP6 POP SWAP3 SWAP6 SWAP1 SWAP4 POP JUMP JUMPDEST PUSH1 0x20 DUP1 DUP3 MSTORE DUP3 MLOAD DUP3 DUP3 ADD DUP2 SWAP1 MSTORE PUSH0 SWAP2 SWAP1 DUP5 DUP3 ADD SWAP1 PUSH1 0x40 DUP6 ADD SWAP1 DUP5 JUMPDEST DUP2 DUP2 LT ISZERO PUSH2 0x5597 JUMPI PUSH2 0x562F DUP4 DUP6 MLOAD PUSH2 0x5508 JUMP JUMPDEST SWAP3 DUP5 ADD SWAP3 PUSH1 0x80 SWAP3 SWAP1 SWAP3 ADD SWAP2 PUSH1 0x1 ADD PUSH2 0x561C JUMP JUMPDEST PUSH0 PUSH1 0x20 DUP3 DUP5 SUB SLT ISZERO PUSH2 0x5652 JUMPI PUSH0 DUP1 REVERT JUMPDEST DUP2 CALLDATALOAD PUSH1 0x1 PUSH1 0x1 PUSH1 0x40 SHL SUB DUP2 GT ISZERO PUSH2 0x5667 JUMPI PUSH0 DUP1 REVERT JUMPDEST DUP3 ADD PUSH1 0x1F DUP2 ADD DUP5 SGT PUSH2 0x5677 JUMPI PUSH0 DUP1 REVERT JUMPDEST PUSH2 0x5686 DUP5 DUP3 CALLDATALOAD PUSH1 0x20 DUP5 ADD PUSH2 0x539E JUMP JUMPDEST SWAP5 SWAP4 POP POP POP POP JUMP JUMPDEST PUSH1 0x20 DUP1 DUP3 MSTORE DUP3 MLOAD DUP3 DUP3 ADD DUP2 SWAP1 MSTORE PUSH0 SWAP2 SWAP1 DUP5 DUP3 ADD SWAP1 PUSH1 0x40 DUP6 ADD SWAP1 DUP5 JUMPDEST DUP2 DUP2 LT ISZERO PUSH2 0x5597 JUMPI PUSH2 0x56BC DUP4 DUP6 MLOAD PUSH2 0x52BD JUMP JUMPDEST SWAP3 DUP5 ADD SWAP3 PUSH1 0x80 SWAP3 SWAP1 SWAP3 ADD SWAP2 PUSH1 0x1 ADD PUSH2 0x56A9 JUMP JUMPDEST PUSH4 0x4E487B71 PUSH1 0xE0 SHL PUSH0 MSTORE PUSH1 0x32 PUSH1 0x4 MSTORE PUSH1 0x24 PUSH0 REVERT JUMPDEST PUSH4 0x4E487B71 PUSH1 0xE0 SHL PUSH0 MSTORE PUSH1 0x11 PUSH1 0x4 MSTORE PUSH1 0x24 PUSH0 REVERT JUMPDEST DUP1 DUP3 ADD DUP1 DUP3 GT ISZERO PUSH2 0x4A74 JUMPI PUSH2 0x4A74 PUSH2 0x56E3 JUMP JUMPDEST DUP2 DUP2 SUB DUP2 DUP2 GT ISZERO PUSH2 0x4A74 JUMPI PUSH2 0x4A74 PUSH2 0x56E3 JUMP JUMPDEST PUSH4 0x4E487B71 PUSH1 0xE0 SHL PUSH0 MSTORE PUSH1 0x12 PUSH1 0x4 MSTORE PUSH1 0x24 PUSH0 REVERT JUMPDEST PUSH0 DUP3 PUSH2 0x573F JUMPI PUSH2 0x573F PUSH2 0x571D JUMP JUMPDEST POP DIV SWAP1 JUMP JUMPDEST PUSH1 0x20 DUP1 DUP3 MSTORE PUSH1 0x2C SWAP1 DUP3 ADD MSTORE PUSH0 DUP1 MLOAD PUSH1 0x20 PUSH2 0x5BBB DUP4 CODECOPY DUP2 MLOAD SWAP2 MSTORE PUSH1 0x40 DUP3 ADD MSTORE PUSH12 0x19195B1959D85D1958D85B1B PUSH1 0xA2 SHL PUSH1 0x60 DUP3 ADD MSTORE PUSH1 0x80 ADD SWAP1 JUMP JUMPDEST PUSH1 0x20 DUP1 DUP3 MSTORE PUSH1 0x2C SWAP1 DUP3 ADD MSTORE PUSH0 DUP1 MLOAD PUSH1 0x20 PUSH2 0x5BBB DUP4 CODECOPY DUP2 MLOAD SWAP2 MSTORE PUSH1 0x40 DUP3 ADD MSTORE PUSH12 0x6163746976652070726F7879 PUSH1 0xA0 SHL PUSH1 0x60 DUP3 ADD MSTORE PUSH1 0x80 ADD SWAP1 JUMP JUMPDEST PUSH0 PUSH1 0x20 DUP3 DUP5 SUB SLT ISZERO PUSH2 0x57C6 JUMPI PUSH0 DUP1 REVERT JUMPDEST DUP2 MLOAD DUP1 ISZERO ISZERO DUP2 EQ PUSH2 0x5230 JUMPI PUSH0 DUP1 REVERT JUMPDEST PUSH0 PUSH1 0x20 DUP3 DUP5 SUB SLT ISZERO PUSH2 0x57E5 JUMPI PUSH0 DUP1 REVERT JUMPDEST DUP2 MLOAD PUSH2 0x5230 DUP2 PUSH2 0x528E JUMP JUMPDEST PUSH0 PUSH1 0x20 DUP3 DUP5 SUB SLT ISZERO PUSH2 0x5800 JUMPI PUSH0 DUP1 REVERT JUMPDEST POP MLOAD SWAP2 SWAP1 POP JUMP JUMPDEST DUP1 DUP3 MUL DUP2 ISZERO DUP3 DUP3 DIV DUP5 EQ OR PUSH2 0x4A74 JUMPI PUSH2 0x4A74 PUSH2 0x56E3 JUMP JUMPDEST PUSH1 0x1 PUSH1 0x1 PUSH1 0xA0 SHL SUB SWAP3 SWAP1 SWAP3 AND DUP3 MSTORE PUSH1 0x20 DUP3 ADD MSTORE PUSH1 0x40 ADD SWAP1 JUMP JUMPDEST DUP1 MLOAD PUSH1 0x1 PUSH1 0x1 PUSH1 0x70 SHL SUB DUP2 AND DUP2 EQ PUSH2 0x584D JUMPI PUSH0 DUP1 REVERT JUMPDEST SWAP2 SWAP1 POP JUMP JUMPDEST PUSH0 DUP1 PUSH0 PUSH1 0x60 DUP5 DUP7 SUB SLT ISZERO PUSH2 0x5864 JUMPI PUSH0 DUP1 REVERT JUMPDEST PUSH2 0x586D DUP5 PUSH2 0x5837 JUMP JUMPDEST SWAP3 POP PUSH2 0x587B PUSH1 0x20 DUP6 ADD PUSH2 0x5837 JUMP JUMPDEST SWAP2 POP PUSH1 0x40 DUP5 ADD MLOAD PUSH4 0xFFFFFFFF DUP2 AND DUP2 EQ PUSH2 0x5893 JUMPI PUSH0 DUP1 REVERT JUMPDEST DUP1 SWAP2 POP POP SWAP3 POP SWAP3 POP SWAP3 JUMP JUMPDEST SWAP3 DUP4 MSTORE PUSH1 0x1 PUSH1 0x1 PUSH1 0x70 SHL SUB SWAP2 DUP3 AND PUSH1 0x20 DUP5 ADD MSTORE AND PUSH1 0x40 DUP3 ADD MSTORE PUSH1 0x60 ADD SWAP1 JUMP JUMPDEST PUSH0 PUSH1 0x1 DUP3 ADD PUSH2 0x58CE JUMPI PUSH2 0x58CE PUSH2 0x56E3 JUMP JUMPDEST POP PUSH1 0x1 ADD SWAP1 JUMP JUMPDEST PUSH1 0x1 PUSH1 0x1 PUSH1 0x70 SHL SUB DUP2 DUP2 AND DUP4 DUP3 AND MUL DUP1 DUP3 AND SWAP2 SWAP1 DUP3 DUP2 EQ PUSH2 0x1F3D JUMPI PUSH2 0x1F3D PUSH2 0x56E3 JUMP JUMPDEST PUSH0 PUSH1 0x1 PUSH1 0x1 PUSH1 0x70 SHL SUB DUP4 DUP2 AND DUP1 PUSH2 0x5911 JUMPI PUSH2 0x5911 PUSH2 0x571D JUMP JUMPDEST SWAP3 AND SWAP2 SWAP1 SWAP2 DIV SWAP3 SWAP2 POP POP JUMP JUMPDEST PUSH1 0x1 PUSH1 0x1 PUSH1 0x70 SHL SUB SWAP4 DUP5 AND DUP2 MSTORE SWAP2 SWAP1 SWAP3 AND PUSH1 0x20 DUP3 ADD MSTORE PUSH1 0x1 PUSH1 0x1 PUSH1 0xA0 SHL SUB SWAP1 SWAP2 AND PUSH1 0x40 DUP3 ADD MSTORE PUSH1 0x60 ADD SWAP1 JUMP JUMPDEST PUSH1 0x1 PUSH1 0x1 PUSH1 0xA0 SHL SUB SWAP3 SWAP1 SWAP3 AND DUP3 MSTORE PUSH1 0x1 PUSH1 0x1 PUSH1 0x70 SHL SUB AND PUSH1 0x20 DUP3 ADD MSTORE PUSH1 0x40 ADD SWAP1 JUMP JUMPDEST PUSH1 0x1 PUSH1 0x1 PUSH1 0xA0 SHL SUB SWAP4 DUP5 AND DUP2 MSTORE SWAP2 SWAP1 SWAP3 AND PUSH1 0x20 DUP3 ADD MSTORE PUSH1 0x1 PUSH1 0x1 PUSH1 0x70 SHL SUB SWAP1 SWAP2 AND PUSH1 0x40 DUP3 ADD MSTORE PUSH1 0x60 ADD SWAP1 JUMP JUMPDEST PUSH0 JUMPDEST DUP4 DUP2 LT ISZERO PUSH2 0x59B1 JUMPI DUP2 DUP2 ADD MLOAD DUP4 DUP3 ADD MSTORE PUSH1 0x20 ADD PUSH2 0x5999 JUMP JUMPDEST POP POP PUSH0 SWAP2 ADD MSTORE JUMP JUMPDEST PUSH0 DUP5 MLOAD PUSH2 0x59CA DUP2 DUP5 PUSH1 0x20 DUP10 ADD PUSH2 0x5997 JUMP JUMPDEST DUP5 MLOAD SWAP1 DUP4 ADD SWAP1 PUSH2 0x59DE DUP2 DUP4 PUSH1 0x20 DUP10 ADD PUSH2 0x5997 JUMP JUMPDEST DUP5 MLOAD SWAP2 ADD SWAP1 PUSH2 0x59F1 DUP2 DUP4 PUSH1 0x20 DUP9 ADD PUSH2 0x5997 JUMP JUMPDEST ADD SWAP6 SWAP5 POP POP POP POP POP JUMP JUMPDEST PUSH0 DUP3 MLOAD PUSH2 0x5A0C DUP2 DUP5 PUSH1 0x20 DUP8 ADD PUSH2 0x5997 JUMP JUMPDEST SWAP2 SWAP1 SWAP2 ADD SWAP3 SWAP2 POP POP JUMP JUMPDEST PUSH1 0x20 DUP1 DUP3 MSTORE PUSH1 0x2B SWAP1 DUP3 ADD MSTORE PUSH32 0x496E697469616C697A61626C653A20636F6E7472616374206973206E6F742069 PUSH1 0x40 DUP3 ADD MSTORE PUSH11 0x6E697469616C697A696E67 PUSH1 0xA8 SHL PUSH1 0x60 DUP3 ADD MSTORE PUSH1 0x80 ADD SWAP1 JUMP JUMPDEST PUSH0 DUP3 PUSH2 0x5A6F JUMPI PUSH2 0x5A6F PUSH2 0x571D JUMP JUMPDEST POP MOD SWAP1 JUMP JUMPDEST PUSH4 0x4E487B71 PUSH1 0xE0 SHL PUSH0 MSTORE PUSH1 0x21 PUSH1 0x4 MSTORE PUSH1 0x24 PUSH0 REVERT JUMPDEST DUP1 DUP3 ADD DUP3 DUP2 SLT PUSH0 DUP4 SLT DUP1 ISZERO DUP3 AND DUP3 ISZERO DUP3 AND OR ISZERO PUSH2 0x1F3D JUMPI PUSH2 0x1F3D PUSH2 0x56E3 JUMP JUMPDEST DUP1 DUP3 MUL PUSH0 DUP3 SLT PUSH1 0x1 PUSH1 0xFF SHL DUP5 EQ AND ISZERO PUSH2 0x5AC2 JUMPI PUSH2 0x5AC2 PUSH2 0x56E3 JUMP JUMPDEST DUP2 DUP2 SDIV DUP4 EQ DUP3 ISZERO OR PUSH2 0x4A74 JUMPI PUSH2 0x4A74 PUSH2 0x56E3 JUMP JUMPDEST PUSH0 DUP3 PUSH2 0x5AE4 JUMPI PUSH2 0x5AE4 PUSH2 0x571D JUMP JUMPDEST PUSH1 0x1 PUSH1 0xFF SHL DUP3 EQ PUSH0 NOT DUP5 EQ AND ISZERO PUSH2 0x5AFD JUMPI PUSH2 0x5AFD PUSH2 0x56E3 JUMP JUMPDEST POP SDIV SWAP1 JUMP JUMPDEST DUP2 DUP2 SUB PUSH0 DUP4 SLT DUP1 ISZERO DUP4 DUP4 SGT AND DUP4 DUP4 SLT DUP3 AND OR ISZERO PUSH2 0x5B21 JUMPI PUSH2 0x5B21 PUSH2 0x56E3 JUMP JUMPDEST POP SWAP3 SWAP2 POP POP JUMP JUMPDEST PUSH1 0x20 DUP2 MSTORE PUSH0 DUP3 MLOAD DUP1 PUSH1 0x20 DUP5 ADD MSTORE PUSH2 0x5B46 DUP2 PUSH1 0x40 DUP6 ADD PUSH1 0x20 DUP8 ADD PUSH2 0x5997 JUMP JUMPDEST PUSH1 0x1F ADD PUSH1 0x1F NOT AND SWAP2 SWAP1 SWAP2 ADD PUSH1 0x40 ADD SWAP3 SWAP2 POP POP JUMP INVALID 0xA7 0xCE DUP4 PUSH14 0x32B2BF62B7E2097A8E0A6D8AEB3 SLOAD SDIV 0xAD ISZERO 0x27 0x1E SWAP7 0xD3 0xB0 XOR DUP11 SAR MOD 0xFC 0xA7 0xCE DUP4 PUSH14 0x32B2BF62B7E2097A8E0A6D8AEB3 SLOAD SDIV 0xAD ISZERO 0x27 0x1E SWAP7 0xD3 0xB0 XOR DUP11 SAR MOD 0xFB 0xA7 0xCE DUP4 PUSH14 0x32B2BF62B7E2097A8E0A6D8AEB3 SLOAD SDIV 0xAD ISZERO 0x27 0x1E SWAP7 0xD3 0xB0 XOR DUP11 SAR MOD REVERT CHAINID PUSH22 0x6E6374696F6E206D7573742062652063616C6C656420 PUSH21 0x68726F75676820360894A13BA1A3210667C828492D 0xB9 DUP14 0xCA RETURNDATACOPY KECCAK256 PUSH23 0xCC3735A920A3CA505D382BBC416464726573733A206C6F PUSH24 0x2D6C6576656C2064656C65676174652063616C6C20666169 PUSH13 0x6564A7CE836D032B2BF62B7E20 SWAP8 0xA8 0xE0 0xA6 0xD8 0xAE 0xB3 SLOAD SDIV 0xAD ISZERO 0x27 0x1E SWAP7 0xD3 0xB0 XOR DUP11 SAR MOD INVALID LOG2 PUSH5 0x6970667358 0x22 SLT KECCAK256 CREATE SWAP6 0xAD BLOCKHASH 0x25 EXP DUP16 LOG0 0x25 0x23 PUSH24 0x430F607992688F3DB57F3C34468158946DA9496A8F64736F PUSH13 0x63430008140033000000000000 "
		},
		"gasEstimates": {
			"creation": {
				"codeDepositCost": "4734200",
				"executionCost": "infinite",
				"totalCost": "infinite"
			},
			"external": {
				"_btbtestup1()": "infinite",
				"acbConfig()": "3240",
				"acbPrice()": "infinite",
				"airdropMachine(address,uint256)": "infinite",
				"autoCancelLp()": "infinite",
				"buyMachine(uint256,uint256)": "infinite",
				"changeConfig(address)": "26794",
				"claim()": "infinite",
				"claimDynOrderArr(uint256)": "11797",
				"claimDynamic(uint256,uint256,uint256,uint256,bytes)": "infinite",
				"claimOrderArr(uint256)": "11819",
				"claimedAmount(address)": "2477",
				"claimedDynReward(address)": "9483",
				"computingPower(address)": "infinite",
				"getClaimOrderByIndex(uint256,uint256)": "infinite",
				"getClaimOrderLength()": "2896",
				"getMaxOrderReward(uint256)": "11755",
				"getMiningMachineByIndex(uint256,uint256)": "infinite",
				"getMiningMachineLength()": "2368",
				"getNoOrderReward(uint256)": "11997",
				"getUserByIndex(uint256,uint256)": "infinite",
				"getUserLength()": "2742",
				"initialize(address)": "infinite",
				"isAutoCancel(string)": "infinite",
				"isBuyMachine(address)": "2522",
				"lastMaxOrderSettleTime()": "2877",
				"lastOrderTime()": "2811",
				"machineArr(uint256)": "12017",
				"machineReward(address)": "infinite",
				"maxOrderIndex()": "2855",
				"maxOrderPool()": "2503",
				"maxOrderReward()": "infinite",
				"noOrderPool()": "3119",
				"owner()": "2875",
				"proxiableUUID()": "infinite",
				"ref(address)": "3277",
				"register(address)": "infinite",
				"renounceOwnership()": "infinite",
				"superFomo()": "infinite",
				"swap(uint256)": "infinite",
				"swapOutAmount(uint256)": "infinite",
				"syncPool()": "infinite",
				"transferMaxOrder(uint256)": "11291",
				"transferNoOrder(uint256)": "11137",
				"transferOwnership(address)": "infinite",
				"upgradeTo(address)": "infinite",
				"upgradeToAndCall(address,bytes)": "infinite",
				"userMachine(address,uint256)": "5402",
				"userMachineArr(address)": "infinite",
				"users(uint256)": "9096"
			},
			"internal": {
				"_acb()": "infinite",
				"_acbPair()": "infinite",
				"_acbPrice()": "infinite",
				"_authorizeUpgrade(address)": "infinite",
				"_getMessageHash(address,uint256,uint256,uint256,uint256)": "infinite",
				"_machineExpireTime()": "infinite",
				"_minePool()": "infinite",
				"_settleMaxOrderReward()": "infinite",
				"_settleNoOrderReward()": "infinite",
				"_usdt()": "infinite"
			}
		},
		"methodIdentifiers": {
			"_btbtestup1()": "e8bb4c33",
			"acbConfig()": "dba64f8f",
			"acbPrice()": "7bab1032",
			"airdropMachine(address,uint256)": "57629f82",
			"autoCancelLp()": "e91e969c",
			"buyMachine(uint256,uint256)": "382e227f",
			"changeConfig(address)": "210835ae",
			"claim()": "4e71d92d",
			"claimDynOrderArr(uint256)": "c8ee5073",
			"claimDynamic(uint256,uint256,uint256,uint256,bytes)": "d7df42d3",
			"claimOrderArr(uint256)": "cb82ab19",
			"claimedAmount(address)": "04e86903",
			"claimedDynReward(address)": "233be799",
			"computingPower(address)": "e500845d",
			"getClaimOrderByIndex(uint256,uint256)": "cbba3def",
			"getClaimOrderLength()": "a7808f1a",
			"getMaxOrderReward(uint256)": "624343e6",
			"getMiningMachineByIndex(uint256,uint256)": "eed0ab53",
			"getMiningMachineLength()": "265eb5b8",
			"getNoOrderReward(uint256)": "baf189d2",
			"getUserByIndex(uint256,uint256)": "51ae6b1b",
			"getUserLength()": "7456fed6",
			"initialize(address)": "c4d66de8",
			"isAutoCancel(string)": "f951d945",
			"isBuyMachine(address)": "1865e4d5",
			"lastMaxOrderSettleTime()": "a3592158",
			"lastOrderTime()": "8e56d48c",
			"machineArr(uint256)": "f2782d6d",
			"machineReward(address)": "c6834bf6",
			"maxOrderIndex()": "9b5f0f22",
			"maxOrderPool()": "42ff7bcd",
			"maxOrderReward()": "2562c39b",
			"noOrderPool()": "d77f5ee7",
			"owner()": "8da5cb5b",
			"proxiableUUID()": "52d1902d",
			"ref(address)": "c4b6ebdf",
			"register(address)": "4420e486",
			"renounceOwnership()": "715018a6",
			"superFomo()": "45b3e93e",
			"swap(uint256)": "94b918de",
			"swapOutAmount(uint256)": "3f22297e",
			"syncPool()": "ad7e01be",
			"transferMaxOrder(uint256)": "4469ed13",
			"transferNoOrder(uint256)": "2d6d56b0",
			"transferOwnership(address)": "f2fde38b",
			"upgradeTo(address)": "3659cfe6",
			"upgradeToAndCall(address,bytes)": "4f1ef286",
			"userMachine(address,uint256)": "bf024cfa",
			"userMachineArr(address)": "fc76f17c",
			"users(uint256)": "365b98b2"
		}
	},
	"abi": [
		{
			"inputs": [],
			"name": "Buylock",
			"type": "error"
		},
		{
			"inputs": [],
			"name": "NoBuyMachine",
			"type": "error"
		},
		{
			"inputs": [],
			"name": "NoRegistered",
			"type": "error"
		},
		{
			"inputs": [],
			"name": "NotConfig",
			"type": "error"
		},
		{
			"inputs": [],
			"name": "NotOp",
			"type": "error"
		},
		{
			"inputs": [],
			"name": "NotSelf",
			"type": "error"
		},
		{
			"inputs": [],
			"name": "Registered",
			"type": "error"
		},
		{
			"inputs": [],
			"name": "TimeNotYet",
			"type": "error"
		},
		{
			"anonymous": false,
			"inputs": [
				{
					"indexed": false,
					"internalType": "address",
					"name": "previousAdmin",
					"type": "address"
				},
				{
					"indexed": false,
					"internalType": "address",
					"name": "newAdmin",
					"type": "address"
				}
			],
			"name": "AdminChanged",
			"type": "event"
		},
		{
			"anonymous": false,
			"inputs": [
				{
					"indexed": true,
					"internalType": "address",
					"name": "beacon",
					"type": "address"
				}
			],
			"name": "BeaconUpgraded",
			"type": "event"
		},
		{
			"anonymous": false,
			"inputs": [
				{
					"indexed": false,
					"internalType": "uint8",
					"name": "version",
					"type": "uint8"
				}
			],
			"name": "Initialized",
			"type": "event"
		},
		{
			"anonymous": false,
			"inputs": [
				{
					"indexed": true,
					"internalType": "address",
					"name": "previousOwner",
					"type": "address"
				},
				{
					"indexed": true,
					"internalType": "address",
					"name": "newOwner",
					"type": "address"
				}
			],
			"name": "OwnershipTransferred",
			"type": "event"
		},
		{
			"anonymous": false,
			"inputs": [
				{
					"indexed": true,
					"internalType": "address",
					"name": "implementation",
					"type": "address"
				}
			],
			"name": "Upgraded",
			"type": "event"
		},
		{
			"inputs": [],
			"name": "_btbtestup1",
			"outputs": [
				{
					"internalType": "address",
					"name": "",
					"type": "address"
				}
			],
			"stateMutability": "view",
			"type": "function"
		},
		{
			"inputs": [],
			"name": "acbConfig",
			"outputs": [
				{
					"internalType": "contract ACConfig",
					"name": "",
					"type": "address"
				}
			],
			"stateMutability": "view",
			"type": "function"
		},
		{
			"inputs": [],
			"name": "acbPrice",
			"outputs": [
				{
					"internalType": "uint256",
					"name": "",
					"type": "uint256"
				}
			],
			"stateMutability": "view",
			"type": "function"
		},
		{
			"inputs": [
				{
					"internalType": "address",
					"name": "user",
					"type": "address"
				},
				{
					"internalType": "uint256",
					"name": "amount",
					"type": "uint256"
				}
			],
			"name": "airdropMachine",
			"outputs": [],
			"stateMutability": "nonpayable",
			"type": "function"
		},
		{
			"inputs": [],
			"name": "autoCancelLp",
			"outputs": [],
			"stateMutability": "nonpayable",
			"type": "function"
		},
		{
			"inputs": [
				{
					"internalType": "uint256",
					"name": "amount",
					"type": "uint256"
				},
				{
					"internalType": "uint256",
					"name": "bType",
					"type": "uint256"
				}
			],
			"name": "buyMachine",
			"outputs": [],
			"stateMutability": "nonpayable",
			"type": "function"
		},
		{
			"inputs": [
				{
					"internalType": "address",
					"name": "_acbConfig",
					"type": "address"
				}
			],
			"name": "changeConfig",
			"outputs": [],
			"stateMutability": "nonpayable",
			"type": "function"
		},
		{
			"inputs": [],
			"name": "claim",
			"outputs": [],
			"stateMutability": "nonpayable",
			"type": "function"
		},
		{
			"inputs": [
				{
					"internalType": "uint256",
					"name": "",
					"type": "uint256"
				}
			],
			"name": "claimDynOrderArr",
			"outputs": [
				{
					"internalType": "address",
					"name": "user",
					"type": "address"
				},
				{
					"internalType": "uint256",
					"name": "amount",
					"type": "uint256"
				},
				{
					"internalType": "uint256",
					"name": "orderType",
					"type": "uint256"
				},
				{
					"internalType": "uint256",
					"name": "createTime",
					"type": "uint256"
				}
			],
			"stateMutability": "view",
			"type": "function"
		},
		{
			"inputs": [
				{
					"internalType": "uint256",
					"name": "refAmount",
					"type": "uint256"
				},
				{
					"internalType": "uint256",
					"name": "team",
					"type": "uint256"
				},
				{
					"internalType": "uint256",
					"name": "sameLevel",
					"type": "uint256"
				},
				{
					"internalType": "uint256",
					"name": "share",
					"type": "uint256"
				},
				{
					"internalType": "bytes",
					"name": "signature",
					"type": "bytes"
				}
			],
			"name": "claimDynamic",
			"outputs": [],
			"stateMutability": "nonpayable",
			"type": "function"
		},
		{
			"inputs": [
				{
					"internalType": "uint256",
					"name": "",
					"type": "uint256"
				}
			],
			"name": "claimOrderArr",
			"outputs": [
				{
					"internalType": "address",
					"name": "user",
					"type": "address"
				},
				{
					"internalType": "uint256",
					"name": "amount",
					"type": "uint256"
				},
				{
					"internalType": "uint256",
					"name": "orderType",
					"type": "uint256"
				},
				{
					"internalType": "uint256",
					"name": "createTime",
					"type": "uint256"
				}
			],
			"stateMutability": "view",
			"type": "function"
		},
		{
			"inputs": [
				{
					"internalType": "address",
					"name": "",
					"type": "address"
				}
			],
			"name": "claimedAmount",
			"outputs": [
				{
					"internalType": "uint256",
					"name": "",
					"type": "uint256"
				}
			],
			"stateMutability": "view",
			"type": "function"
		},
		{
			"inputs": [
				{
					"internalType": "address",
					"name": "user",
					"type": "address"
				}
			],
			"name": "claimedDynReward",
			"outputs": [
				{
					"components": [
						{
							"internalType": "uint256",
							"name": "ref",
							"type": "uint256"
						},
						{
							"internalType": "uint256",
							"name": "team",
							"type": "uint256"
						},
						{
							"internalType": "uint256",
							"name": "sameLevel",
							"type": "uint256"
						},
						{
							"internalType": "uint256",
							"name": "share",
							"type": "uint256"
						}
					],
					"internalType": "struct IMMStore.ClaimedDynReward",
					"name": "dynReward",
					"type": "tuple"
				}
			],
			"stateMutability": "view",
			"type": "function"
		},
		{
			"inputs": [
				{
					"internalType": "address",
					"name": "user",
					"type": "address"
				}
			],
			"name": "computingPower",
			"outputs": [
				{
					"internalType": "uint256",
					"name": "amount",
					"type": "uint256"
				}
			],
			"stateMutability": "view",
			"type": "function"
		},
		{
			"inputs": [
				{
					"internalType": "uint256",
					"name": "start",
					"type": "uint256"
				},
				{
					"internalType": "uint256",
					"name": "end",
					"type": "uint256"
				}
			],
			"name": "getClaimOrderByIndex",
			"outputs": [
				{
					"components": [
						{
							"internalType": "address",
							"name": "user",
							"type": "address"
						},
						{
							"internalType": "uint256",
							"name": "amount",
							"type": "uint256"
						},
						{
							"internalType": "uint256",
							"name": "orderType",
							"type": "uint256"
						},
						{
							"internalType": "uint256",
							"name": "createTime",
							"type": "uint256"
						}
					],
					"internalType": "struct IMMStore.ClaimOrder[]",
					"name": "claimOrder",
					"type": "tuple[]"
				}
			],
			"stateMutability": "view",
			"type": "function"
		},
		{
			"inputs": [],
			"name": "getClaimOrderLength",
			"outputs": [
				{
					"internalType": "uint256",
					"name": "",
					"type": "uint256"
				}
			],
			"stateMutability": "view",
			"type": "function"
		},
		{
			"inputs": [
				{
					"internalType": "uint256",
					"name": "index",
					"type": "uint256"
				}
			],
			"name": "getMaxOrderReward",
			"outputs": [
				{
					"components": [
						{
							"internalType": "address",
							"name": "user",
							"type": "address"
						},
						{
							"internalType": "uint256",
							"name": "amount",
							"type": "uint256"
						},
						{
							"internalType": "uint256",
							"name": "number",
							"type": "uint256"
						},
						{
							"internalType": "uint256",
							"name": "timestamp",
							"type": "uint256"
						}
					],
					"internalType": "struct IMMStore.TransferOrder",
					"name": "",
					"type": "tuple"
				}
			],
			"stateMutability": "view",
			"type": "function"
		},
		{
			"inputs": [
				{
					"internalType": "uint256",
					"name": "start",
					"type": "uint256"
				},
				{
					"internalType": "uint256",
					"name": "end",
					"type": "uint256"
				}
			],
			"name": "getMiningMachineByIndex",
			"outputs": [
				{
					"components": [
						{
							"internalType": "address",
							"name": "user",
							"type": "address"
						},
						{
							"internalType": "uint256",
							"name": "computingPower",
							"type": "uint256"
						},
						{
							"internalType": "uint256",
							"name": "createTime",
							"type": "uint256"
						},
						{
							"internalType": "uint256",
							"name": "lastTime",
							"type": "uint256"
						}
					],
					"internalType": "struct IMMStore.MiningMachine[]",
					"name": "miningMachineArr",
					"type": "tuple[]"
				}
			],
			"stateMutability": "view",
			"type": "function"
		},
		{
			"inputs": [],
			"name": "getMiningMachineLength",
			"outputs": [
				{
					"internalType": "uint256",
					"name": "",
					"type": "uint256"
				}
			],
			"stateMutability": "view",
			"type": "function"
		},
		{
			"inputs": [
				{
					"internalType": "uint256",
					"name": "index",
					"type": "uint256"
				}
			],
			"name": "getNoOrderReward",
			"outputs": [
				{
					"components": [
						{
							"internalType": "address",
							"name": "user",
							"type": "address"
						},
						{
							"internalType": "uint256",
							"name": "amount",
							"type": "uint256"
						},
						{
							"internalType": "uint256",
							"name": "number",
							"type": "uint256"
						},
						{
							"internalType": "uint256",
							"name": "timestamp",
							"type": "uint256"
						}
					],
					"internalType": "struct IMMStore.TransferOrder",
					"name": "",
					"type": "tuple"
				}
			],
			"stateMutability": "view",
			"type": "function"
		},
		{
			"inputs": [
				{
					"internalType": "uint256",
					"name": "start",
					"type": "uint256"
				},
				{
					"internalType": "uint256",
					"name": "end",
					"type": "uint256"
				}
			],
			"name": "getUserByIndex",
			"outputs": [
				{
					"components": [
						{
							"internalType": "address",
							"name": "user",
							"type": "address"
						},
						{
							"internalType": "address",
							"name": "ref",
							"type": "address"
						},
						{
							"internalType": "uint256",
							"name": "registerTime",
							"type": "uint256"
						}
					],
					"internalType": "struct IMMStore.User[]",
					"name": "userArr",
					"type": "tuple[]"
				}
			],
			"stateMutability": "view",
			"type": "function"
		},
		{
			"inputs": [],
			"name": "getUserLength",
			"outputs": [
				{
					"internalType": "uint256",
					"name": "",
					"type": "uint256"
				}
			],
			"stateMutability": "view",
			"type": "function"
		},
		{
			"inputs": [
				{
					"internalType": "address",
					"name": "_acbConfig",
					"type": "address"
				}
			],
			"name": "initialize",
			"outputs": [],
			"stateMutability": "nonpayable",
			"type": "function"
		},
		{
			"inputs": [
				{
					"internalType": "string",
					"name": "",
					"type": "string"
				}
			],
			"name": "isAutoCancel",
			"outputs": [
				{
					"internalType": "bool",
					"name": "",
					"type": "bool"
				}
			],
			"stateMutability": "view",
			"type": "function"
		},
		{
			"inputs": [
				{
					"internalType": "address",
					"name": "",
					"type": "address"
				}
			],
			"name": "isBuyMachine",
			"outputs": [
				{
					"internalType": "bool",
					"name": "",
					"type": "bool"
				}
			],
			"stateMutability": "view",
			"type": "function"
		},
		{
			"inputs": [],
			"name": "lastMaxOrderSettleTime",
			"outputs": [
				{
					"internalType": "uint256",
					"name": "",
					"type": "uint256"
				}
			],
			"stateMutability": "view",
			"type": "function"
		},
		{
			"inputs": [],
			"name": "lastOrderTime",
			"outputs": [
				{
					"internalType": "uint256",
					"name": "",
					"type": "uint256"
				}
			],
			"stateMutability": "view",
			"type": "function"
		},
		{
			"inputs": [
				{
					"internalType": "uint256",
					"name": "",
					"type": "uint256"
				}
			],
			"name": "machineArr",
			"outputs": [
				{
					"internalType": "address",
					"name": "user",
					"type": "address"
				},
				{
					"internalType": "uint256",
					"name": "computingPower",
					"type": "uint256"
				},
				{
					"internalType": "uint256",
					"name": "createTime",
					"type": "uint256"
				},
				{
					"internalType": "uint256",
					"name": "lastTime",
					"type": "uint256"
				}
			],
			"stateMutability": "view",
			"type": "function"
		},
		{
			"inputs": [
				{
					"internalType": "address",
					"name": "user",
					"type": "address"
				}
			],
			"name": "machineReward",
			"outputs": [
				{
					"components": [
						{
							"internalType": "uint256",
							"name": "pendingReward",
							"type": "uint256"
						},
						{
							"internalType": "uint256",
							"name": "pendingRebate",
							"type": "uint256"
						},
						{
							"internalType": "uint256",
							"name": "claimedReward",
							"type": "uint256"
						},
						{
							"internalType": "uint256",
							"name": "rebatedReward",
							"type": "uint256"
						},
						{
							"internalType": "bool",
							"name": "canClaim",
							"type": "bool"
						}
					],
					"internalType": "struct IMMStore.MachineReward",
					"name": "rewardInfo",
					"type": "tuple"
				}
			],
			"stateMutability": "view",
			"type": "function"
		},
		{
			"inputs": [],
			"name": "maxOrderIndex",
			"outputs": [
				{
					"internalType": "uint256",
					"name": "",
					"type": "uint256"
				}
			],
			"stateMutability": "view",
			"type": "function"
		},
		{
			"inputs": [],
			"name": "maxOrderPool",
			"outputs": [
				{
					"internalType": "uint256",
					"name": "",
					"type": "uint256"
				}
			],
			"stateMutability": "view",
			"type": "function"
		},
		{
			"inputs": [],
			"name": "maxOrderReward",
			"outputs": [
				{
					"components": [
						{
							"internalType": "uint256",
							"name": "countdown",
							"type": "uint256"
						},
						{
							"internalType": "uint256",
							"name": "poolAmount",
							"type": "uint256"
						},
						{
							"internalType": "uint256",
							"name": "rewardAmount",
							"type": "uint256"
						},
						{
							"internalType": "uint256",
							"name": "maxComputingPower",
							"type": "uint256"
						},
						{
							"internalType": "address",
							"name": "maxOrderUser",
							"type": "address"
						}
					],
					"internalType": "struct IMMStore.MaxOrderReward",
					"name": "order",
					"type": "tuple"
				}
			],
			"stateMutability": "view",
			"type": "function"
		},
		{
			"inputs": [],
			"name": "noOrderPool",
			"outputs": [
				{
					"internalType": "uint256",
					"name": "",
					"type": "uint256"
				}
			],
			"stateMutability": "view",
			"type": "function"
		},
		{
			"inputs": [],
			"name": "owner",
			"outputs": [
				{
					"internalType": "address",
					"name": "",
					"type": "address"
				}
			],
			"stateMutability": "view",
			"type": "function"
		},
		{
			"inputs": [],
			"name": "proxiableUUID",
			"outputs": [
				{
					"internalType": "bytes32",
					"name": "",
					"type": "bytes32"
				}
			],
			"stateMutability": "view",
			"type": "function"
		},
		{
			"inputs": [
				{
					"internalType": "address",
					"name": "",
					"type": "address"
				}
			],
			"name": "ref",
			"outputs": [
				{
					"internalType": "address",
					"name": "",
					"type": "address"
				}
			],
			"stateMutability": "view",
			"type": "function"
		},
		{
			"inputs": [
				{
					"internalType": "address",
					"name": "_refAddress",
					"type": "address"
				}
			],
			"name": "register",
			"outputs": [],
			"stateMutability": "nonpayable",
			"type": "function"
		},
		{
			"inputs": [],
			"name": "renounceOwnership",
			"outputs": [],
			"stateMutability": "nonpayable",
			"type": "function"
		},
		{
			"inputs": [],
			"name": "superFomo",
			"outputs": [
				{
					"components": [
						{
							"internalType": "uint256",
							"name": "countdown",
							"type": "uint256"
						},
						{
							"internalType": "uint256",
							"name": "poolAmount",
							"type": "uint256"
						},
						{
							"internalType": "uint256",
							"name": "rewardAmount",
							"type": "uint256"
						},
						{
							"internalType": "uint256",
							"name": "totalBurnAmount",
							"type": "uint256"
						},
						{
							"internalType": "address",
							"name": "lastUser",
							"type": "address"
						}
					],
					"internalType": "struct IMMStore.SuperFomo",
					"name": "fomo",
					"type": "tuple"
				}
			],
			"stateMutability": "view",
			"type": "function"
		},
		{
			"inputs": [
				{
					"internalType": "uint256",
					"name": "amount",
					"type": "uint256"
				}
			],
			"name": "swap",
			"outputs": [],
			"stateMutability": "nonpayable",
			"type": "function"
		},
		{
			"inputs": [
				{
					"internalType": "uint256",
					"name": "amount",
					"type": "uint256"
				}
			],
			"name": "swapOutAmount",
			"outputs": [
				{
					"internalType": "uint256",
					"name": "",
					"type": "uint256"
				}
			],
			"stateMutability": "view",
			"type": "function"
		},
		{
			"inputs": [],
			"name": "syncPool",
			"outputs": [],
			"stateMutability": "nonpayable",
			"type": "function"
		},
		{
			"inputs": [
				{
					"internalType": "uint256",
					"name": "",
					"type": "uint256"
				}
			],
			"name": "transferMaxOrder",
			"outputs": [
				{
					"internalType": "address",
					"name": "user",
					"type": "address"
				},
				{
					"internalType": "uint256",
					"name": "amount",
					"type": "uint256"
				},
				{
					"internalType": "uint256",
					"name": "number",
					"type": "uint256"
				},
				{
					"internalType": "uint256",
					"name": "timestamp",
					"type": "uint256"
				}
			],
			"stateMutability": "view",
			"type": "function"
		},
		{
			"inputs": [
				{
					"internalType": "uint256",
					"name": "",
					"type": "uint256"
				}
			],
			"name": "transferNoOrder",
			"outputs": [
				{
					"internalType": "address",
					"name": "user",
					"type": "address"
				},
				{
					"internalType": "uint256",
					"name": "amount",
					"type": "uint256"
				},
				{
					"internalType": "uint256",
					"name": "number",
					"type": "uint256"
				},
				{
					"internalType": "uint256",
					"name": "timestamp",
					"type": "uint256"
				}
			],
			"stateMutability": "view",
			"type": "function"
		},
		{
			"inputs": [
				{
					"internalType": "address",
					"name": "newOwner",
					"type": "address"
				}
			],
			"name": "transferOwnership",
			"outputs": [],
			"stateMutability": "nonpayable",
			"type": "function"
		},
		{
			"inputs": [
				{
					"internalType": "address",
					"name": "newImplementation",
					"type": "address"
				}
			],
			"name": "upgradeTo",
			"outputs": [],
			"stateMutability": "nonpayable",
			"type": "function"
		},
		{
			"inputs": [
				{
					"internalType": "address",
					"name": "newImplementation",
					"type": "address"
				},
				{
					"internalType": "bytes",
					"name": "data",
					"type": "bytes"
				}
			],
			"name": "upgradeToAndCall",
			"outputs": [],
			"stateMutability": "payable",
			"type": "function"
		},
		{
			"inputs": [
				{
					"internalType": "address",
					"name": "",
					"type": "address"
				},
				{
					"internalType": "uint256",
					"name": "",
					"type": "uint256"
				}
			],
			"name": "userMachine",
			"outputs": [
				{
					"internalType": "uint256",
					"name": "",
					"type": "uint256"
				}
			],
			"stateMutability": "view",
			"type": "function"
		},
		{
			"inputs": [
				{
					"internalType": "address",
					"name": "user",
					"type": "address"
				}
			],
			"name": "userMachineArr",
			"outputs": [
				{
					"components": [
						{
							"internalType": "uint256",
							"name": "computingPower",
							"type": "uint256"
						},
						{
							"internalType": "uint256",
							"name": "createTime",
							"type": "uint256"
						},
						{
							"internalType": "uint256",
							"name": "countdown",
							"type": "uint256"
						},
						{
							"internalType": "uint256",
							"name": "lastTime",
							"type": "uint256"
						}
					],
					"internalType": "struct IMMStore.MachineResponse[]",
					"name": "list",
					"type": "tuple[]"
				}
			],
			"stateMutability": "view",
			"type": "function"
		},
		{
			"inputs": [
				{
					"internalType": "uint256",
					"name": "",
					"type": "uint256"
				}
			],
			"name": "users",
			"outputs": [
				{
					"internalType": "address",
					"name": "user",
					"type": "address"
				},
				{
					"internalType": "address",
					"name": "ref",
					"type": "address"
				},
				{
					"internalType": "uint256",
					"name": "registerTime",
					"type": "uint256"
				}
			],
			"stateMutability": "view",
			"type": "function"
		}
	]
}